:020000040000fa
:080000000002040000000000f2
:020000040000fa
:04000800de03000013
:020000040000fa
:04000c00de0300000f
:020000040000fa
:04001000de0300000b
:020000040000fa
:04001400d80300000d
:020000040000fa
:04001800d20300000f
:020000040000fa
:04001c00de030000ff
:020000040000fa
:04002000de030000fb
:020000040000fa
:04002400de030000f7
:020000040000fa
:04002800de030000f3
:020000040000fa
:04002c00de030000ef
:020000040000fa
:04003000de030000eb
:020000040000fa
:04003400e0030000e5
:020000040000fa
:04003800de030000e3
:020000040000fa
:04003c00de030000df
:020000040000fa
:04004000c8020000f2
:020000040000fa
:040044002e02000088
:020000040000fa
:04004800de030000d3
:020000040000fa
:04004c00de030000cf
:020000040000fa
:04005000de030000cb
:020000040000fa
:040054002e03000077
:020000040000fa
:040058007c03000025
:020000040000fa
:04005c00de030000bf
:020000040000fa
:04006000de030000bb
:020000040000fa
:04006400de030000b7
:020000040000fa
:04006800de030000b3
:020000040000fa
:04006c00de030000af
:020000040000fa
:04007000de030000ab
:020000040000fa
:04007400c8030000bd
:020000040000fa
:04007800fa03000087
:020000040000fa
:04007c00de0300009f
:020000040000fa
:04008000de0300009b
:020000040000fa
:04008400de03000097
:020000040000fa
:04008800de03000093
:020000040000fa
:04008c00de0300008f
:020000040000fa
:04009000c2020000a8
:020000040000fa
:04009400de03000087
:020000040000fa
:04009800de03000083
:020000040000fa
:04009c00de0300007f
:020000040000fa
:0400a000a2030000b7
:020000040000fa
:0400a400de03000077
:020000040000fa
:0400a800de03000073
:020000040000fa
:0400ac00de0300006f
:020000040000fa
:0400b000de0300006b
:020000040000fa
:0400b400de03000067
:020000040000fa
:0400b800de03000063
:020000040000fa
:0400bc00de0300005f
:020000040000fa
:0400c000de0300005b
:020000040000fa
:0400c400de03000057
:020000040000fa
:0400c800de03000053
:020000040000fa
:0400cc00de0300004f
:020000040000fa
:0400d000de0300004b
:020000040000fa
:0400d400de03000047
:020000040000fa
:0400d800de03000043
:020000040000fa
:0400dc00de0300003f
:020000040000fa
:0400e000de0300003b
:020000040000fa
:0400e400de03000037
:020000040000fa
:0400e800de03000033
:020000040000fa
:0400ec00de0300002f
:020000040000fa
:0400f000de0300002b
:020000040000fa
:0400f400de03000027
:020000040000fa
:0400f800de03000023
:020000040000fa
:0400fc00de0300001f
:020000040000fa
:04010000de0300001a
:020000040000fa
:04010400de03000016
:020000040000fa
:04010800de03000012
:020000040000fa
:04010c00de0300000e
:020000040000fa
:04011000de0300000a
:020000040000fa
:04011400de03000006
:020000040000fa
:04011800de03000002
:020000040000fa
:04011c00de030000fe
:020000040000fa
:04012000de030000fa
:020000040000fa
:04012400de030000f6
:020000040000fa
:04012800de030000f2
:020000040000fa
:04012c00de030000ee
:020000040000fa
:04013000de030000ea
:020000040000fa
:04013400de030000e6
:020000040000fa
:04013800de030000e2
:020000040000fa
:04013c00de030000de
:020000040000fa
:04014000de030000da
:020000040000fa
:04014400de030000d6
:020000040000fa
:04014800de030000d2
:020000040000fa
:04014c00de030000ce
:020000040000fa
:04015000de030000ca
:020000040000fa
:04015400de030000c6
:020000040000fa
:04015800de030000c2
:020000040000fa
:04015c00de030000be
:020000040000fa
:04016000de030000ba
:020000040000fa
:04016400de030000b6
:020000040000fa
:04016800de030000b2
:020000040000fa
:04016c00de030000ae
:020000040000fa
:04017000de030000aa
:020000040000fa
:04017400de030000a6
:020000040000fa
:04017800de030000a2
:020000040000fa
:04017c00de0300009e
:020000040000fa
:04018000de0300009a
:020000040000fa
:04018400de03000096
:020000040000fa
:04018800de03000092
:020000040000fa
:04018c00de0300008e
:020000040000fa
:04019000de0300008a
:020000040000fa
:04019400de03000086
:020000040000fa
:04019800de03000082
:020000040000fa
:04019c00de0300007e
:020000040000fa
:0401a000de0300007a
:020000040000fa
:0401a400de03000076
:020000040000fa
:0401a800de03000072
:020000040000fa
:0401ac00de0300006e
:020000040000fa
:0401b000de0300006a
:020000040000fa
:0401b400de03000066
:020000040000fa
:0401b800de03000062
:020000040000fa
:0401bc00de0300005e
:020000040000fa
:0401c000de0300005a
:020000040000fa
:0401c400de03000056
:020000040000fa
:0401c800de03000052
:020000040000fa
:0401cc00de0300004e
:020000040000fa
:0401d000de0300004a
:020000040000fa
:0401d400de03000046
:020000040000fa
:0401d800de03000042
:020000040000fa
:0401dc00de0300003e
:020000040000fa
:0401e000de0300003a
:020000040000fa
:0401e400de03000036
:020000040000fa
:0401e800de03000032
:020000040000fa
:0401ec00de0300002e
:020000040000fa
:0401f000de0300002a
:020000040000fa
:0401f400de03000026
:020000040000fa
:0401f800de03000022
:020000040000fa
:0401fc00de0300001e
:020000040000fa
:04020000de03000019
:020000040000fa
:04020400de03000015
:020000040000fa
:04020800de03000011
:020000040000fa
:04020c00de0300000d
:020000040000fa
:04021000de03000009
:020000040000fa
:04021400de03000005
:020000040000fa
:04021800de03000001
:020000040000fa
:04021c00de030000fd
:020000040000fa
:04022000de030000f9
:020000040000fa
:04022400de030000f5
:020000040000fa
:04022800de030000f1
:020000040000fa
:04022c00de030000ed
:020000040000fa
:04023000de030000e9
:020000040000fa
:04023400de030000e5
:020000040000fa
:04023800de030000e1
:020000040000fa
:04023c00de030000dd
:020000040000fa
:04024000de030000d9
:020000040000fa
:04024400de030000d5
:020000040000fa
:04024800de030000d1
:020000040000fa
:04024c00de030000cd
:020000040000fa
:04025000de030000c9
:020000040000fa
:04025400de030000c5
:020000040000fa
:04025800de030000c1
:020000040000fa
:04025c00de030000bd
:020000040000fa
:04026000de030000b9
:020000040000fa
:04026400de030000b5
:020000040000fa
:04026800de030000b1
:020000040000fa
:04026c00de030000ad
:020000040000fa
:04027000de030000a9
:020000040000fa
:04027400de030000a5
:020000040000fa
:04027800de030000a1
:020000040000fa
:04027c00de0300009d
:020000040000fa
:04028000de03000099
:020000040000fa
:100400000e2eef000c2ea800600020004a28b70036
:100410000f0021000e0821006b2921000e0078003a
:100420008001b1000001880001c4fe0040c7af0098
:100430000500370000c2fe004abc2c003a067800d6
:100440003c0078000004010000c2fe00eab32c006a
:0c0450003a0678003c007800000401002f
:020000040000fa
:10045c0000e8a900008ea80061e2a900801f7800c6
:10046c00b632ec002700320060002000b612e30028
:10047c002b003200c0002000b612e3002b0032002b
:10048c0010012000b612e3001800320020012000f9
:10049c00b612e30028003200d0012000b612e300af
:1004ac003200320020032000b612e3002800320094
:1004bc00200f2000b612e3002a00320000112000a9
:1004cc00b612e30007003a00b852e20003003a000b
:1004dc00e08a20002048880060088800b8f2ee000e
:1004ec00b6b2ef004f00780000400600b852e200b0
:1004fc00fcff3200c01521002048880060088800ed
:10050c00f8ff37002348a900400a20003048880033
:10051c00e08a20002048880060088800f1ff37003e
:10052c006076200030488800eeff3700400a20003b
:10053c0030488800ebff37008014200030488800da
:10054c00c01521002048880060088800e5ff3700ae
:10055c00b952e200e3ff320000c8a90020c8a8008d
:10056c00e0ff370020c8a900deff37000348a900d0
:10057c002348a800dbff37000348a900008ea90020
:10058c000040060000c8a900809fbe00829fbe00ec
:10059c00849fbe00861f78003200f800b195800061
:1005ac002103b100e7826000c308de0002042000d2
:1005bc000110b80004a02c0004024000e3132b002f
:1005cc0090488000630060000006010000000000fd
:1005dc00000000000000000061e2a8000200e00042
:1005ec001200320001c0fe00344078000003eb0022
:1005fc000070a7000083eb00f007b2004300dd00a1
:10060c00808041008580400000c2fe0011407800cf
:10061c000670a7000080ea006022ab00feff3a00e3
:10062c0068e2b7000201e900ecff37006022ab0082
:10063c00feff3a006822ef003200f9004f03780009
:10064c004f02be004f01be004f00be00004006002e
:10065c000168a9000d2f78002202ae00210037009e
:10066c003d118000736ce10002003a003a12a800c0
:10067c001c003700716ce10002003a003a12a9002c
:10068c0018003700636ce10003003a0010002000f2
:10069c00609388000000fe00809fbe0039d2bf002e
:1006ac000080fb00211f2100810040008d48780054
:1006bc003a92a8003632ec003972ec00f0012000be
:1006cc003972b60081002000010050003652e30060
:1006dc00030039003001200024e2b7003a32a800b0
:1006ec004f00be00ae067800004006003a12af0084
:1006fc00004006000188a900809fbe003212e20073
:10070c000b00320034d2bf000080fb0021212100fd
:10071c00810040001140780024e2b7008048eb00d3
:10072c003232ed003472ec00f00120003472b6006d
:10073c004f00be000040060003c8a900809fbe0009
:10074c00821f7800b01180006304e10003003a00be
:10075c0010002000609388000000fe00212721007b
:10076c00a294800081004100804878001200b00003
:10077c00f201b200a29488004f0178004f00be0035
:10078c00004006000268a9003e32ef0013aeae0036
:10079c003e12a80000400600200020006093880054
:1007ac000000fe0040002000609388000000fe0066
:1007bc000000fe000068a9006632ec00c812e200de
:1007cc0003003200c832ed0001003a0013e1a90029
:1007dc00c052e20003003a00c112af0066490200a9
:0c07ec0000000000004006000000fe00bd
:020000040000fa
:1007f8000000000084450000584900005400000033
:10080800ce350000fe830000834e00004f500000ec
:10081800a43500000484000008840000844300001c
:10082800414c00004c000000d6350000e6350000c1
:10083800f0350000fc3500000436000012360000d8
:100848002036000032360000443600005e360000d4
:1008580012840000814900007c3600002e840000cc
:10086800814c00008636000034840000814a000074
:10087800903600003a840000865500004e4c000077
:100888004f4f0000500000009a36000040840000de
:100898008349000050400000a43600004c8400004a
:1008a80086520000454200004f4f000054000000ef
:1008b800ae3600005484000087450000584500000b
:1008c8004355000054450000b03600006084000025
:1008d800854000004558000045430000b836000038
:1008e8006c84000085560000455800004543000010
:1008f800bc3600007684000081400000c636000047
:10090800808400008243000040000000ce360000d2
:10091800868400008245000040000000d8360000b0
:100928008e8400008345000043400000e636000046
:10093800968400008232000040000000f636000075
:100948009e84000084540000424c000040000000d7
:1009580004370000a684000084540000424c0000c4
:100968002100000014370000b0840000812100003d
:1009780028370000ba8400008243000021000000ec
:1009880032370000c08400008232000021000000dd
:100998003e370000c8840000834400005550000022
:1009a8004a370000d084000084320000445500001b
:1009b8005000000052370000d8840000843f000037
:1009c80044550000500000005e370000e28400003b
:1009d80084440000524f0000500000006a370000b5
:1009e800ec84000085320000445200004f500000a3
:1009f80072370000f684000085520000445200005f
:100a08004f5000007c370000008500008453000030
:100a18005741000050000000843700000a8500009c
:100a28008532000053570000415000009037000005
:100a380014850000835200004f540000a4370000c2
:100a48001e850000842d0000524f00005400000055
:100a5800b637000026850000844f00005645000088
:100a680052000000c63700003085000085320000c3
:100a78004f56000045520000d03700003a8500006c
:100a8800834e000049500000de3700004485000016
:100a9800823e000052000000e63700004c8500004e
:100aa800825200003e000000f0370000548500002c
:100ab8008252000040000000fa3700005c85000008
:100ac8008353000050400000043800006485000093
:100ad8008353000050210000103800006c8500008e
:100ae8008352000050400000183800007485000050
:100af8008352000050210000223800007c8500004d
:100b080084540000554300004b0000002c380000be
:100b180084850000854400004550000054480000ca
:100b2800383800008e8500008450000049430000da
:100b38004b0000004638000098850000853e000004
:100b480043530000544b000054380000a2850000b5
:100b580085430000535400004b3e000062380000fb
:100b6800ac850000834d000053420000703800003f
:100b7800b6850000874d0000415800002d4900004f
:100b88004e5400007a380000be850000874d0000f2
:100b9800494e00002d4900004e54000084380000e2
:100ba800ca8500008348000045580000a4350000ad
:100bb8001a8400001000000088890000bc8400002e
:100bc80004840000d68500008744000045430000e7
:100bd800494d0000414c0000a43500001a84000073
:100be8000a00000088890000bc840000048400001a
:100bf800e8850000812b00008e380000fe8500008b
:100c0800812d000096380000048600008231000023
:100c18002b000000a03800000a8600008232000085
:100c28002b000000a8380000128600008231000066
:100c38002d000000b03800001a8600008232000043
:100c48002d000000b8380000228600008232000023
:100c58002a000000c03800002a8600008232000006
:100c68002f000000c838000032860000864c0000c3
:100c7800534800004946000054000000d0380000e6
:100c88003a8600008652000053480000494600009a
:100c980054000000ec38000046860000822b00005b
:100ca800210000000839000052860000824d000033
:100cb8002b000000163900005a860000812a000027
:100cc8002639000062860000824d00002a000000dc
:100cd8003039000068860000835500004d2a000066
:100ce8003c3900007086000083550000442a00004b
:100cf8004839000078860000812f00005c39000028
:100d080080860000834d00004f4400006a390000cf
:100d180086860000822a00002f0000007839000033
:100d28008e860000852a00002f4d00004f440000e9
:100d38008a39000096860000842f00004d4f00007d
:100d4800440000009e390000a0860000865500007f
:100d58004d2f00004d4f000044000000ae39000048
:100d6800aa86000086550000442f00004d4f000061
:100d780044000000c0390000b6860000834d000022
:100d880041580000dc390000c2860000834d000095
:100d9800494e0000ea390000ca8600008455000068
:100da8004d41000058000000f8390000d2860000cc
:100db800845500004d4900004e000000063a00002e
:100dc800dc860000865700004954000048490000ae
:100dd8004e000000143a0000e6860000844500003a
:100de800564500004e0000002c3a0000f286000034
:100df800834f0000444400003a3a0000fc8600009b
:100e08008341000042530000483a00000487000074
:100e1800844400004142000053000000523a0000a0
:100e28000c870000835300003e440000683a00002d
:100e380016870000873f00004e450000474100002c
:100e480054450000783a00001e87000086530000d1
:100e58004d2f0000524500004d000000a435000051
:100e6800de840000de870000508500003685000023
:100e78005085000008870000508500001287000098
:100e880058850000b28600001085000058850000d3
:100e9800268700001085000058850000268700007e
:100ea800048400002a870000864600004d2f0000b9
:100eb8004d4f000044000000a4350000d484000019
:100ec80050850000de840000de87000050850000a9
:100ed8005085000012870000608500000887000028
:100ee800b2860000108500005885000026870000a3
:100ef80010850000588500002e880000228400001c
:100f0800140000000a8800003685000022840000d2
:100f18000c000000608500002285000006860000a5
:100f2800108500001e86000006850000048400006d
:100f3800588700008545000056410000522b0000ec
:100f4800a4350000d4840000928400000e860000be
:100f580010850000bc840000048400009e87000007
:100f68008545000056410000522d0000a4350000c0
:100f7800d4840000928400001e86000010850000c2
:100f8800bc84000004840000b48700008341000092
:100f98004e440000863a0000ca870000824f0000d5
:100fa800520000008e3a0000d287000083580000eb
:100fb8004f520000963a0000da870000834e000086
:100fc8004f5400009e3a0000e28700008649000066
:100fd8004e5600004552000054000000ae3a000092
:100fe800ea87000087440000494e0000564500008b
:100ff80052540000b63a0000f6870000864e000002
:10100800454700004154000045000000c03a000078
:1010180002880000874400004e4500004741000058
:1010280054450000c83a00000e88000082300000d5
:101038003d000000d83a00001a8800008330000004
:101048003c3e0000e23a00002288000082300000a6
:101058003c000000f23a00002a88000082300000bc
:101068003e000000fe3a000032880000813d00008a
:101078000e3b00003a880000823c00003e00000061
:101088001e3b000040880000813c00002e3b000011
:1010980048880000813e00003e3b00004e8800006a
:1010a800825500003c0000004e3b000054880000c0
:1010b800825500003e0000005e3b00005c88000096
:1010c80084430000454c00004c0000006e3b0000cb
:1010d8006488000085430000454c00004c2b00004c
:1010e800783b00006e88000085430000454c0000f6
:1010f8004c530000803b00007888000085410000c8
:101108004c490000474e0000a4350000c08800008c
:101118000087000022840000100000001a840000ec
:1011280000000000c0880000c48400001a84000089
:101138000100000012920000048400008288000070
:10114800874100004c490000474e0000454400001c
:101158008a3b0000a4880000853e00004348000048
:1011680041520000943b0000b08800008448000011
:101178004552000045000000a43500007c890000ad
:101188008284000004840000ba880000844d0000b6
:101198004f56000045000000a23b0000ca8800002e
:1011a800854300004d4f000056450000aa3b000053
:1011b800d4880000864300004d4f000056450000cb
:1011c8003e000000ca3b0000de88000085430000a6
:1011d8004841000052530000a43500000484000078
:1011e800ea8800008543000048410000522b0000b7
:1011f800a43500000e86000004840000f688000074
:10120800844300004841000052000000a43500005b
:101218007c8a0000ce8d0000d48400008a840000ff
:101228001e880000dc8f0000106d0000697300004c
:10123800736900006e67000020630000617200009f
:101248006163000074650000720000000e860000f3
:101258008a8400000484000004890000c65b000042
:1012680043480000415200005d000000a435000022
:10127800ec9500000a8900001e9300001a84000003
:101288001e9200000484000032890000845300008c
:10129800434100004e000000ee3b00004a89000078
:1012a80084460000494c00004c000000103c00003f
:1012b80054890000892d0000545200004149000063
:1012c8004c4900004e4700002e3c00005e8900009b
:1012d800855300005441000054450000ae3500001d
:1012e800140000006c8900008244000050000000d7
:1012f800ae3500001000000078890000844200002c
:101308004153000045000000ae3500001200000007
:101318008289000089530000595300004c410000a5
:101328005445000053540000ae3500000200000090
:101338008e890000864c000041540000455300008f
:1013480054000000ae350000040000009e89000033
:101358008350000041440000ae3500000800000042
:10136800ac8900008354000049420000ae350000fb
:1013780006000000b68900008550000041530000b7
:1013880054450000ae3500000a000000c089000086
:10139800833e0000494e0000ae35000016000000f4
:1013a800cc8900008248000050000000ae350000e3
:1013b80018000000d689000086270000534f00005f
:1013c8005552000043450000ae3500000c000000f7
:1013d800e089000087230000534f000055520000a9
:1013e80043450000ae3500000e000000ee89000005
:1013f800875200005042000052450000414b000057
:10140800ae3500001c000000fc8900008544000087
:1014180042470000454e0000ae3500001e000000a7
:101428000a8a00008753000059530000434f000008
:101438004e530000ae3500001a000000168a000066
:101448008756000045520000534900004f4e0000e7
:10145800443c0000248a0000825200003000000052
:101468004e3c0000308a000082530000300000002b
:10147800583c0000388a000086520000414d0000a8
:10148800454e000044000000623c0000408a000015
:10149800854900004d4d0000454400006c3c0000ab
:1014a8004c8a00008648000049440000444500007a
:1014b8004e000000763c0000568a0000854e000071
:1014c8004d410000524b0000803c0000628a000041
:1014d800874c0000454e00004d410000534b000072
:1014e8008a3c00006c8a0000824200004c00000028
:1014f800943c0000788a00008754000049420000ac
:10150800534900005a4500009e3c0000808a0000b4
:101518008750000041440000534900005a4500002c
:10152800a83c00008c8a0000865500004c49000049
:101538004d49000054000000b23c0000988a0000a9
:10154800854400004f4300004f4c0000bc3c0000a5
:10155800a48a000084540000525500004500000091
:10156800c63c0000ae8a000085460000414c0000e1
:1015780053450000d03c0000b88a000083440000b6
:1015880050300000da3c0000c28a000087270000c3
:10159800534f00005552000043450000e43c000052
:1015a800ca8a0000875300004f55000052430000cc
:1015b80045210000f23c0000d68a0000863f00006a
:1015c800444900004749000054000000a4350000c9
:1015d800d48400001a8400006000000060880000c5
:1015e80022840000080000001a8400002000000087
:1015f80006860000d48400001a8400003900000028
:1016080060880000228400001a000000d4840000d2
:101618001a8400004100000058880000228400005d
:10162800080000001a840000000000000484000084
:101638001a84000007000000068600001a840000d3
:101648003000000006860000d4840000888900006d
:10165800828400005888000004840000e28a0000a8
:10166800873f0000444f0000554200004c450000f1
:10167800a4350000368500008a8400001a84000022
:101688002e0000003c8800002284000010000000aa
:101698001a84000001000000888d00001a840000f0
:1016a800ffff00001e8400001800000036850000bf
:1016b8008a8400001a8400002c0000003c88000086
:1016c80022840000060000001e840000e2ff0000e3
:1016d8001a8400000000000004840000348b00001d
:1016e800873e00004e5500004d4200004552000064
:1016f800a43500001a840000000000005085000096
:10170800d4840000228400004e00000036850000ca
:101718008a840000ea8a0000208400002200000079
:10172800588500002284000040000000f284000078
:101738003c8b0000228400003a000000588500001d
:10174800588500001a84000002000000d6870000b7
:1017580050850000508500001e840000ccff00006a
:10176800068500001a840000ffff00005085000075
:10177800508500001a8500008889000082840000d6
:101788007c860000588500005e8600001a850000ef
:101798001a84000001000000888d00001e840000eb
:1017a800b0ff000058850000f284000004840000a7
:1017b800748b0000853f000053490000474e00002d
:1017c800a4350000368500008a8400001c840000cf
:1017d8002d0000003c880000208400000a00000062
:1017e8001a840000000000001e8400000c000000a5
:1017f8001a84000001000000888d00001a8400008f
:101808000100000004840000de8b0000853f00001a
:101818004241000053450000a43500003685000011
:101828008a8400001c840000240000003c8800001a
:10183800228400000e0000001a840000100000003e
:1018480088890000bc8400001e840000320000006b
:10185800368500008a8400001c84000023000000f4
:101868003c880000228400000e0000001a8400005a
:101878000a00000088890000bc8400001e84000063
:1018880018000000368500008a8400001c840000cf
:10189800250000003c88000022840000120000009f
:1018a8001a8400000200000088890000bc8400003f
:1018b800108500000e860000108500001e860000be
:1018c800048400000a8c0000873f00004e55000089
:1018d8004d42000045520000a435000088890000f0
:1018e8008284000050850000d48400001a8400001f
:1018f80000000000d484000022850000aa8e0000a9
:10190800108c0000e48b0000508500007c8b0000e8
:10191800228400001000000058850000fc840000ac
:10192800fc8400001a840000000000001e840000ef
:1019380024000000f284000022850000f2840000e8
:101948006085000000870000228400000400000079
:1019580016880000588500001a8400000200000064
:10196800ce8700002084000004000000f2840000fc
:101978001a840000ffff00005885000088890000d5
:10198800bc84000004840000688c000085570000b7
:101998004f52000044530000a43500001a84000090
:1019a80000000000faa50000a6890000828400005b
:1019b800d48400001e880000208400005e0000001f
:1019c800d48400008a8400005e8a0000ce8700006c
:1019d8002284000008000000268600001e84000003
:1019e800e6ff0000d4840000d48400008a8400004c
:1019f800748a0000ce870000d48400001e8a00008c
:101a0800828400001a84000022a400003c880000a0
:101a1800228400000c00000090a300001085000044
:101a2800f28400001e84000004000000549a0000a4
:101a3800008600001a84000040000000588800005a
:101a48002084000004000000faa500005085000072
:101a58000e8600005885000086a5000036a5000007
:101a680026860000108500000e8600001085000004
:101a78001e8400009cff0000f2840000faa500000c
:101a8800ee9e000004840000ca8c0000855500000a
:101a98005050000045520000003d00004a8d0000f3
:101aa800845300004b49000050000000223d000014
:101ab800548d000087410000445200003e49000058
:101ac8004e000000a4350000d28a000022850000e4
:101ad8002285000006860000ce8600001a840000d9
:101ae80000000000c6860000d0890000bc84000009
:101af800048400005e8d0000872f0000535400000e
:101b0800524900004e470000a4350000228500001d
:101b1800368500000086000022850000228500002e
:101b28000686000004840000808d000085500000b7
:101b38004152000053450000a4350000d28a00003d
:101b4800d089000082840000888d0000368500005e
:101b5800508500002285000050890000368500006d
:101b68001085000022840000040000000e8600009a
:101b7800668d0000588500008a85000006860000f2
:101b8800048400009a8d0000845700004f52000022
:101b980044000000a4350000d4840000d28a00006c
:101ba800d089000082840000888d00002285000012
:101bb8005a8d0000f2840000668d0000a08d0000a0
:101bc800c0880000ee8e0000c08800000484000079
:101bd800c88d000084460000494e00004400000003
:101be8003e3d0000ee8d00008641000043430000aa
:101bf8004550000054000000a43500003685000060
:101c08000086000050850000d48400006ca4000009
:101c1800d48400001a8400000d0000003c880000f5
:101c28002284000014000000f28400007c8a000076
:101c380036850000c4840000108500000686000078
:101c48000e8600000685000004840000d48400008d
:101c58001a840000080000003c880000228400006c
:101c680014000000f2840000de8400003c880000bc
:101c780020840000ccff0000d2a500001e860000d2
:101c88001e840000c4ff0000d48400001a840000f1
:101c9800180000003c880000228400000e000000ac
:101ca800f2840000e6a50000f2840000d48400005d
:101cb8001e840000acff0000d48400001a840000d9
:101cc800160000003c880000228400001a00000072
:101cd800f2840000e6a50000c689000082840000a6
:101ce800aa8e000086a50000f2840000d4840000bb
:101cf80034900000008600001e84000088ff000069
:101d080036850000608500003c88000020840000c3
:101d180010000000d4840000c4a400003685000030
:101d2800c48400000e8600001e84000070ff0000be
:101d3800f28400001e8400006aff0000f88d000095
:101d4800854300004f5500004e540000a4350000a4
:101d5800d48400008a840000508500000e860000ac
:101d68005885000004840000a48e0000854500000a
:101d7800525200004f520000a435000036a5000062
:101d8800aa8e000086a5000036a500001c8400006d
:101d98003f000000c4a400001a84000000000000f6
:101da80072890000bc8400003c8a00008284000024
:101db80070850000faa500007a900000ba8e000035
:101dc800883e0000434f0000554e00005445000077
:101dd80044000000a4350000de840000c484000034
:101de8000e86000010850000d088000004840000e2
:101df800e48e0000894900004e540000455200005e
:101e08005052000045540000a4350000de8a00004e
:101e18001a84000000000000d0890000bc84000083
:101e28007c8a0000ce8d0000d48400008a840000e3
:101e38002284000040000000508d0000f48d000056
:101e4800e8840000228400001c0000000e860000c8
:101e580072890000828400001e880000d687000076
:101e68002284000008000000688400001e8400002e
:101e7800d8ff00001e9200001e840000d2ff000060
:101e8800708c000022840000080000008493000089
:101e98001e840000c6ff0000aa8e000086a5000070
:101ea8001a8400003f000000c4a40000faa5000046
:101eb800ba8f0000f284000004840000fe8e000047
:101ec80088450000564100004c5500004154000070
:101ed80045000000a4350000d28a000050850000ab
:101ee80050850000d08900008284000050850000e1
:101ef800088f000058850000d0890000bc840000cd
:101f08005885000058850000de8a0000048400001f
:101f1800a4350000549a00001a8400000300000051
:101f2800008600001a840000400000004a88000073
:101f38002084000004000000faa5000036a5000077
:101f48001a8400004f000000c4a400001a84000096
:101f58004b000000c4a4000004840000648f00004b
:101f680085410000424f000052540000a435000093
:101f7800728900008284000022840000140000009e
:101f8800a689000082840000b2900000d48400007a
:101f980082840000a6890000bc8400007c890000bf
:101fa800bc8400003c8a0000708500007a90000024
:101fb800a4350000969300001085000022840000dc
:101fc8000a000000aa8e000086a50000faa50000fd
:101fd800ba8f0000f284000004840000b48f00006f
:101fe800c6410000424f0000525400002200000089
:101ff800a43500001e930000dc8f0000d093000081
:1020080004840000f48f0000844300004c49000061
:1020180050000000a4350000d4840000c6890000e8
:1020280082840000bc840000ba8900008284000019
:1020380010850000c6890000828400000e8600001a
:1020480010850000d088000004840000089000007b
:102058008747000045540000434c000049500000e9
:10206800a4350000c689000082840000aa8e000002
:102078001085000036850000ba89000082840000bf
:1020880010850000d088000004840000a4350000fa
:10209800ba89000082840000d48400001a840000f9
:1020a8003f000000008e0000d48400001e8600005f
:1020b8000e90000036a50000088f0000728900000d
:1020c8008284000020840000040000008c8f00003f
:1020d800faa500001e840000dcff00002c90000020
:1020e800845100005549000054000000a435000048
:1020f800348a0000808500001a8400000000000077
:1021080072890000bc8400004a90000074900000ae
:10211800c1280000a43500001a840000290000002e
:10212800a08d0000fc840000048400008c90000056
:10213800c15c0000a4350000d28a000000860000bf
:10214800668d0000048400009c900000874e00000b
:10215800464100003e4c000046410000a435000006
:102168001a840000020000000686000004840000b3
:10217800aa900000874e0000464100003e43000040
:1021880046410000a4350000d48400008a84000081
:102198001a8400001f000000ce870000008600009f
:1021a8000e860000ac88000004840000be90000089
:1021b800853e0000424f000044590000a43500004d
:1021c800d4840000828400001a840000843d00004a
:1021d8003c8800002284000004000000748800008d
:1021e8007488000004840000dc900000874300002d
:1021f800464100003e4e000046410000a435000064
:10220800d48400001a8400000013000058880000dd
:10221800228400000a000000d4840000de87000049
:102228001e84000056000000d48400005085000081
:102238001a84000021000000508500001e8600005e
:10224800d48400008a840000d48400001a8400002a
:1022580080000000ce8700002084000014000000e9
:10226800f2840000588500001e860000d484000017
:102278002284000028000000508500001e84000011
:10228800deff0000068500001a8400001f00000021
:10229800ce87000036850000008600000e8600000c
:1022a800ac880000588500003c880000d4840000f9
:1022b800228400000a000000f28400001e8400004e
:1022c800080000000685000010850000f284000068
:1022d80004840000fa900000863f0000454d00008d
:1022e8005054000059000000a4350000c68a0000c0
:1022f800c08800003c880000048400007091000041
:10230800894900004d4d0000454400004941000046
:1023180054450000a4350000789100002084000096
:1023280012000000a689000082840000d484000006
:102338008a840000528a0000d687000010850000b9
:10234800c4840000048400008491000084480000d4
:102358004944000045000000a435000078910000c1
:102368002084000012000000a6890000828400007a
:10237800d48400008a8400005e8a0000d6870000aa
:1023880010850000c484000004840000a435000007
:10239800789100002084000012000000a689000047
:1023a80082840000d48400008a840000688a0000c7
:1023b800d687000010850000c48400000484000053
:1023c800aa910000865200004556000045410000d1
:1023d8004c000000a4350000789100002084000023
:1023e80014000000a689000082840000d484000044
:1023f8008a8400005e8a0000f2870000ce87000011
:1024080010850000c484000004840000e6910000e8
:10241800854100004c4c00004f540000a4350000da
:102428007c89000056860000048400000c9200009d
:10243800812c0000a4350000c0880000bc84000086
:102448001a840000020000001292000004840000b8
:102458001c920000824300002c000000a4350000fc
:10246800c0880000c48400001a8400000100000035
:1024780012920000048400002e92000081270000c0
:10248800a43500007c8a0000ce8d0000d4840000b2
:102498008a8400001e88000012960000508d0000fb
:1024a800f48d000022840000060000001e84000055
:1024b80012000000aa8e000086a5000036a50000c4
:1024c8001a8400003f000000c4a40000faa5000020
:1024d800ba8f00000484000042920000c35b000031
:1024e800275d0000a4350000ec9500004492000030
:1024f8001e9300001a8400001e920000048400004d
:1025080072920000c53c00004d410000524b000093
:10251800a4350000ec950000c08800000484000089
:1025280086920000c83c000052450000534f00004e
:102538004c56000045000000a4350000ec95000052
:10254800c0880000068600001e9200000484000077
:1025580096920000c53e00004d410000524b00001d
:10256800a4350000ec950000c08800001a84000023
:10257800000000001e92000004840000ae920000db
:10258800c83e000052450000534f00004c56000062
:1025980045000000a4350000ec950000d48400003c
:1025a800c088000010850000068600001085000025
:1025b800bc84000004840000c4920000c15b0000d9
:1025c800a43500001a840000000000007289000091
:1025d800bc84000004840000e2920000c15d000099
:1025e800a43500001a840000ffff00007289000073
:1025f800bc84000004840000f2920000c95b000063
:10260800434f00004d500000494c0000455d00005c
:10261800a4350000ec950000449200001e920000d2
:102628000484000002930000c643000046410000f5
:102638002c000000a435000058850000d484000058
:10264800828400001e9200007488000050850000fb
:102658000484000018930000853f0000574f0000d5
:1026680052440000a43500007c8a0000ce8d000092
:10267800508d0000f48d0000e88400001e880000e2
:10268800228400000e000000aa8e000086a500002b
:102698001a8400003f000000c4a40000ba8f0000a4
:1026a8000484000030930000c85000004f5300001d
:1026b800545000004f4e000045000000a4350000b3
:1026c800ec95000036930000368800000c000000ee
:1026d8001a8400001a8400001e9200001e84000064
:1026e800040000001e9200000484000058930000bb
:1026f800c74c00004954000045520000414c0000fe
:10270800a435000072890000828400002284000041
:10271800080000001e9300001a8400001e920000aa
:1027280004840000a435000058850000608500007e
:1027380058850000aa8e000000860000ac880000c2
:1027480050850000108500005085000004840000ba
:10275800a435000096930000aa8e000004840000af
:10276800a43500009693000004840000a4350000fe
:1027780096930000aa8e000086a50000048400003d
:10278800a43500001a84000022000000ce8d00004d
:10279800aa8e000004840000a4350000c493000041
:1027a80000860000ac8800007c890000bc84000022
:1027b800048400007c930000c25300002200000043
:1027c800a4350000ec9500001e930000ac930000b7
:1027d800d093000004840000e0930000c24300008e
:1027e80022000000a4350000ec9500001e930000b4
:1027f800b4930000d093000004840000f29300001a
:10280800c22e000022000000a435000072890000da
:1028180082840000228400000a0000001e93000049
:10282800ba930000d093000004840000c493000011
:1028380086a500000484000004940000c75200002c
:10284800454300005552000053450000a4350000e0
:10285800a689000082840000c69000001e92000035
:102868000484000022940000c24400004f000000cd
:10287800a4350000ec9500001e930000248400009d
:10288800c0880000a88500001a840000000000002d
:10289800a88500000484000038940000c33f0000ad
:1028a800444f0000a4350000ec9500001e93000082
:1028b80026840000c08800001a840000040000007c
:1028c80000860000a88500001a84000000000000af
:1028d800a88500001e9300001e840000c088000028
:1028e800a88500000484000052940000c54c000034
:1028f8004541000056450000a4350000ec95000055
:102908001e930000488400001e9300001e840000ef
:10291800c0880000a885000004840000a4350000d9
:10292800b2850000e8840000228400001400000042
:10293800d4840000c088000074880000108500005e
:102948000686000010850000bc8400001e8400007c
:10295800e8ff0000b2850000a09200000484000097
:102968007a940000c44c00004f4f00005000000053
:10297800a4350000ec9500001e9300002884000098
:102988009294000004840000b6940000c52b000057
:102998004c4f00004f500000a4350000ec9500009b
:1029a8001e9300002a840000929400000484000012
:1029b800ca940000c542000045470000494e000087
:1029c800a4350000ec9500008c92000004840000ff
:1029d800de940000c541000047410000494e000058
:1029e800a4350000ec9500001e9300001e84000032
:1029f800a092000004840000ee940000c555000079
:102a08004e540000494c0000a4350000ec9500002d
:102a18001e93000022840000a0920000048400009d
:102a280002950000c249000046000000a4350000dd
:102a3800ec9500001e93000022840000b492000070
:102a48000484000016950000c454000048450000a6
:102a58004e000000a4350000ec950000ce92000066
:102a68000484000028950000c44500004c53000071
:102a780045000000a4350000ec9500001e930000fe
:102a88001e840000b4920000108500002e950000fe
:102a98000484000038950000c5570000484900002c
:102aa8004c450000a4350000ec9500001e93000082
:102ab80022840000b4920000108500000484000005
:102ac80050950000c65200004550000045410000e6
:102ad80054000000a4350000ec9500001e9300008f
:102ae8001e840000a0920000ce9200000484000022
:102af80066950000c44300004153000045000000f3
:102b0800a4350000ec9500001a84000000000000c5
:102b1800048400007e950000c24f000046000000bb
:102b2800a4350000ec9500001e93000036850000d7
:102b38001e9300003c8800001e93000022840000c1
:102b4800b49200000484000090950000c545000080
:102b58004e4400004f460000a4350000ec950000ec
:102b68001e9300001e840000b4920000108500002f
:102b7800ce92000004840000aa950000c74500001a
:102b88004e4400004341000053450000a4350000b6
:102b9800ec950000e8840000228400000800000092
:102ba800ce9200001e840000f6ff00001e93000075
:102bb800f284000004840000c2950000c83f0000b1
:102bc800434f00004d500000494c000045000000f4
:102bd800a435000072890000828400001e8800006d
:102be800dc8f0000116300006f6d00007069000049
:102bf8006c650000206f00006e6c000079200000fa
:102c0800776f00007264000004840000e295000001
:102c1800853f00004e4100004d450000a4350000ee
:102c2800dc8f00000c6e0000616d00006520000064
:102c38006d69000073730000696e00006700000092
:102c4800048400000c960000873a00004e4f0000f4
:102c58004e4100004d450000a4350000c08800002a
:102c68001e930000a4350000f492000004840000c4
:102c780028960000c545000058490000542c000063
:102c8800a43500001e9300000484000004840000a2
:102c98003e9600008648000045410000444500007b
:102ca80052000000a4350000a6890000d48400006a
:102cb800828400001e920000c08800001085000079
:102cc800bc8400007c8a0000ce8d0000508d00007e
:102cd8008a840000d48400001e8800001296000038
:102ce8000e8600001292000088880000ca91000039
:102cf800b0910000048400004e9600008646000053
:102d08004f5200004745000054000000a435000061
:102d18004492000002910000b2900000d4840000a8
:102d28001a8400000080000060880000dc8f00002a
:102d38001a430000616e000027740000206600003e
:102d48006f7200006765000074200000776f000054
:102d580072640000206900006e200000464c0000ec
:102d68004153000048000000d48400007c89000022
:102d7800bc84000082840000a6890000bc84000096
:102d88000484000082960000864d00004152000035
:102d98004b45000052000000a43500005696000084
:102da800c08800001e930000a43500001e93000098
:102db8001a8400001e9200001e930000ea9600008c
:102dc80044960000ee91000004840000a435000041
:102dd80002910000b2900000d48400007c890000b9
:102de800bc84000082840000a6890000bc84000026
:102df80004840000c8960000813a0000a435000051
:102e080056960000f49200001e930000a4350000be
:102e1800048400000097000086430000524500002b
:102e28004154000045000000a435000056960000fb
:102e3800ee9100001a840000843d00001e920000fc
:102e48001e9300000c84000004840000a4350000d8
:102e580058850000d4840000748800005085000064
:102e680082840000a689000082840000c6900000c9
:102e780074880000bc8400000484000010970000df
:102e8800c54400004f450000533e0000a435000033
:102e98001e9300002a970000c08800001a840000d2
:102ea800020000007e880000008600001e920000dc
:102eb8004496000030960000f2840000048400006c
:102ec8004497000088560000415200004941000024
:102ed800424c000045000000a4350000189700008f
:102ee8001a840000000000001e9200000484000004
:102ef80066970000884300004f4e000053540000be
:102f0800414e000054000000a43500005696000011
:102f1800ee9100001a840000c43500001e920000e3
:102f28001e920000048400007e970000c13b000050
:102f3800a4350000ec95000044960000ee910000d6
:102f4800e492000004840000a4350000ba93000055
:102f58001a5500006e6900006e690000746900006f
:102f6800616c0000697a000065640000206400005c
:102f78006566000065720000656400002077000047
:102f88006f72000064000000faa50000ba8f00000c
:102f98009a9700008544000045460000455200000d
:102fa800a4350000569600001e930000a4350000ca
:102fb8001e930000a89700001e93000004840000e0
:102fc800ee91000004840000ce97000086440000c3
:102fd800454600004552000021000000a4350000cd
:102fe80074880000bc84000004840000ea97000094
:102ff800864400004546000045520000400000009d
:10300800a435000074880000828400000484000055
:10301800fc9700008249000053000000a43500001e
:1030280036930000f284000074880000bc8400001d
:10303800048400000e980000c22e00002800000042
:10304800a43500001a84000029000000ce8d00007d
:10305800aa8e000086a500000484000020980000c5
:10306800833200003e520000a4350000588500005d
:103078002c85000010850000508500005085000058
:10308800508500000484000034980000833200005a
:10309800523e0000a4350000588500005885000005
:1030a800588500001085000022850000508500002a
:1030b800048400004a980000833200005240000057
:1030c800a435000058850000588500006085000080
:1030d80036850000508500002285000050850000dc
:1030e800108500000484000060980000843f000000
:1030f8004453000050000000a4350000688500001b
:103108003c8a00008284000058880000dc8f0000a0
:10311800115300002073000074610000636b00000d
:10312800207500006e64000065720000666c000087
:103138006f770000688500003c8a000082840000e8
:103148001a84000040000000268600000086000067
:1031580060880000dc8f000010530000207300001e
:1031680074610000636b0000206f0000766500004a
:10317800726600006c6f0000770000000484000095
:103188007a980000822e000053000000a435000049
:10319800948500001c8400003c000000c4a40000ca
:1031a800d4840000ee9e00001c8400003e00000055
:1031b800c4a4000036a50000e884000022840000b2
:1031c8000e000000d48400009e850000ee9e0000e2
:1031d8001e8600001e840000f0ff0000048400002a
:1031e800c6980000842e0000525400004e000000d3
:1031f800a43500008889000082840000da85000078
:103208001c84000052000000c4a400001c840000bc
:103218003a000000c4a4000078850000348a000049
:10322800248400003084000082840000ee9e0000a8
:103238001a840000020000002a840000f4ff000045
:1032480088890000bc84000004840000f69800000f
:1032580084440000554d000050000000a4350000d3
:10326800e8840000208400000400000004840000ba
:10327800888900008284000050850000da850000fb
:10328800108500001a840000feff0000ce870000b1
:10329800108500001a84000000000000248400004b
:1032a800308400001a8400000f000000ce87000060
:1032b800208400000e000000faa50000d48400005d
:1032c8001a84000004000000cc9e000036a500000f
:1032d800d48400009a8400001a84000003000000cf
:1032e800cc9e00001a840000010000000086000047
:1032f80028840000d6ff0000f284000058850000f2
:1033080088890000bc840000048400002c99000017
:10331800854400004542000055470000a4350000e0
:10332800108a0000bc840000048400008c9900000e
:103338008542000052450000414b0000a4350000c2
:10334800108a00008284000020840000060000002b
:10335800f28400000484000078850000048a0000dc
:10336800bc840000faa50000ba9300000d620000ba
:1033780072650000616b0000207000006f6900003a
:103388006e7400003a200000ee9e0000faa50000ce
:10339800ca980000faa500004a90000004840000c2
:1033a8009c9900008652000045530000554d0000ce
:1033b80045000000a4350000108a00008284000047
:1033c8002284000016000000048a000082840000a5
:1033d800e8840000228400000c00000080850000c2
:1033e8001a84000000000000048a0000bc84000069
:1033f80004840000d6990000865300004352000060
:1034080042550000460000008e3d0000009a000072
:10341800844800005441000042000000983d00002c
:10342800a23d00000c9a00008556000049440000a7
:10343800454f00001e3e0000189a00008743000018
:1034480055520000454e0000424c00002a3e000044
:10345800229a0000834300004c530000463e0000bf
:103468002e9a000086530000435200004c5500007d
:10347800500000005c3e0000369a000086530000b1
:10348800435200004c4400004e000000663e00001d
:10349800429a00008447000045540000580000008c
:1034a800703e00004e9a000084470000455400001a
:1034b800590000007e3e0000589a00008453000026
:1034c80045540000580000008c3e0000629a00003d
:1034d800845300004554000059000000aa3e000033
:1034e8006c9a0000864300005552000041440000d9
:1034f80052000000c83e0000769a00008643000093
:1035080055520000504f000053000000a435000041
:10351800729a0000689a000004840000829a0000f1
:103528008753000043520000434800004152000006
:10353800de3e0000949a00008743000048520000d5
:103548003e53000043520000063f0000a09a0000ce
:10355800854900004e5600004c4e00002e3f0000ea
:10356800ac9a0000874c0000432d00004c45000039
:1035780046540000563f0000b69a0000884c0000f0
:10358800432d000052490000474800005400000045
:103598006e3f0000c29a0000874c0000432d0000d7
:1035a800484f00004d450000883f0000d09a0000b9
:1035b800864c0000432d0000454e000044000000ea
:1035c800a4350000be8a00002a9a00007e9a0000f6
:1035d8001a8400003f000000d4840000f287000035
:1035e80022850000ce870000de84000000860000ef
:1035f8009a8400007c8a00003c8800002284000035
:103608001a000000108500001e860000d484000007
:103618002284000008000000108500001e840000bd
:10362800e4ff0000689a0000f28400001e84000095
:1036380008000000f2840000689a0000cc9a00009c
:10364800b48a00002a9a000004840000dc9a000072
:10365800854c0000432d0000555000009c3f0000a1
:103668002c9b0000864c0000432d0000444f0000b6
:10367800574e0000b43f0000369b000087540000fe
:10368800474c00004348000041520000ce3f000074
:10369800429b000084500000555400004300000085
:1036a800e43f00004e9b00008243000052000000ef
:1036b80022400000589b00008a4e00004558000038
:1036c800542d0000434f00004c4f00004e000000f6
:1036d800a4350000be8a00002a9a0000129a000051
:1036e8008a840000208400000a0000001a84000078
:1036f80004000000129a0000c4840000549a0000dc
:10370800d48400001a8400003c0000004a880000ad
:103718002084000008000000f28400001e840000dd
:1037280014000000129a00008a840000008600003d
:10373800129a00008a8400001e860000f2870000aa
:10374800ce870000689a0000b48a00002a9a000018
:1037580004840000609b0000864c0000432d00009c
:10376800444500004c000000a4350000be8a00005b
:103778002a9a00007e9a00000e8600001a84000033
:1037880040000000549a00000e86000026840000c5
:103798001e84000012000000d48400009a840000f7
:1037a800368500001e860000c48400000e860000d6
:1037b80028840000f2ff00001e8600007c8a0000ba
:1037c80010850000c4840000b48a00002a9a000012
:1037d80004840000b09b0000884c0000432d0000ca
:1037e800494e00005352000054000000a435000068
:1037f800549a0000e49a0000549a0000de84000005
:103808003c880000208400002e000000d4840000c2
:103818001a8400003f0000003c880000208400005b
:1038280022000000be9a00009c9a0000549a0000f2
:103838000e8600005e9a000022850000a89a00000b
:103848001e860000de8400003c8800002284000000
:10385800eaff0000368500005e9a00007c8a0000be
:10386800a89a0000f2840000689a0000048400000e
:10387800f09b000087420000414300004b440000d9
:10388800454c0000a4350000549a00002284000032
:1038980006000000be9a0000b89b000004840000e7
:1038a8003e9c0000854300004c5200004c4e000036
:1038b80044400000569c0000864c0000432d000048
:1038c800424500004c000000a43500001a840000a6
:1038d800c80000001a840000e8030000ca9f000026
:1038e80004840000609c0000844c0000432d00000c
:1038f800454d000049540000a4350000d484000060
:103908001a8400002000000058880000208400006d
:1039180012000000d48400001a8400007e00000019
:10392800608800002084000006000000549b00000e
:1039380004840000d48400001a8400000d000000f4
:103948003c8800002284000008000000f284000087
:103958005c9b000004840000d48400001a840000ea
:10396800090000003c8800002284000008000000d4
:10397800f28400006c9b000004840000d4840000e2
:103988001a8400008f0000003c8800002284000098
:1039980008000000f2840000be9a000004840000c1
:1039a800d48400001a840000900000003c880000c5
:1039b8002284000008000000f2840000cc9a000075
:1039c80004840000d48400001a84000091000000e0
:1039d8003c8800002284000008000000f2840000f7
:1039e800d89a000004840000d48400001a840000df
:1039f800920000003c8800002284000008000000bb
:103a0800f2840000e49a000004840000d4840000da
:103a18001a8400008d0000003c8800002284000009
:103a280008000000f2840000329b000004840000bb
:103a3800d48400001a8400008e0000003c88000036
:103a48002284000008000000f28400003e9b000071
:103a580004840000d48400001a84000008000000d8
:103a68003c8800002284000008000000f284000066
:103a7800469c000004840000d48400001a840000de
:103a8800180000003c8800002284000008000000a4
:103a9800f28400005c9c000004840000d4840000d0
:103aa8001a8400007f0000003c8800002284000087
:103ab80008000000f2840000b89b000004840000a5
:103ac800d48400001a8400000c0000003c88000028
:103ad8002284000008000000f2840000329a0000ee
:103ae80004840000d48400001a84000095000000bb
:103af8003c8800002284000008000000f2840000d6
:103b0800fa9b000004840000d48400001a8400009a
:103b1800070000003c880000228400000800000024
:103b2800f2840000689c000004840000549b00009c
:103b380004840000789c0000884c0000432d00009d
:103b4800454d0000495400003f0000006640000059
:103b5800a09d0000874c0000432d0000504100004c
:103b680047450000a4350000329a00000484000094
:103b7800ae9d0000854400004947000049540000fc
:103b8800a43500001a8400000900000036850000f2
:103b98004a8800001a84000007000000ce87000051
:103ba800008600001a840000300000000086000033
:103bb80004840000be9d00008745000058540000a2
:103bc8005241000043540000a4350000be860000a6
:103bd80022850000c49d000004840000e09d0000d0
:103be800823c000023000000a4350000b0890000da
:103bf80082840000948a000000860000da890000b0
:103c0800bc84000004840000f49d00008448000087
:103c18004f4c000044000000a43500001a84000046
:103c2800ffff0000da89000056860000da890000ec
:103c380082840000c4840000048400000a9e0000fe
:103c480081230000a43500008889000082840000d8
:103c5800e89d0000109e000004840000249e0000df
:103c68008223000053000000a4350000269e0000b7
:103c7800de840000d687000020840000f8ff0000e2
:103c880004840000349e000084530000494700006b
:103c98004e000000a43500002e8800002284000099
:103ca800080000001c8400002d000000109e000089
:103cb80004840000489e0000822300003e000000ab
:103cc800a4350000fc840000da890000828400002a
:103cd800b089000082840000948a000000860000f9
:103ce800368500000686000004840000609e0000ff
:103cf8008353000054520000a4350000d48400000f
:103d08005085000012870000f89d0000389e0000d2
:103d1800588500004e9e0000649e00000484000048
:103d28007c9e0000874300004f4c0000464900007d
:103d38004c4c0000a435000006860000d484000026
:103d4800368800002084000008000000f28400008b
:103d58001e840000040000004aa50000048400003e
:103d6800969e0000822e000052000000a43500003c
:103d7800508500001a870000588500005c9f0000ed
:103d880004840000b69e0000835500002e520000f7
:103d9800a4350000508500001a84000000000000cf
:103da80058850000749f000004840000c89e00002d
:103db800825500002e000000a43500001a8400007f
:103dc800000000002a9f000004840000dc9e000020
:103dd800812e0000a435000088890000828400003c
:103de8001a8400000a0000003c88000022840000b9
:103df800e6ff00001a8700003e9f000004840000d0
:103e0800ec9e0000813f0000a43500001a840000e9
:103e1800feff0000ce87000082840000ee9e0000b6
:103e280004840000069f0000824300003f00000059
:103e3800a43500008a840000ee9e0000048400007f
:103e4800189f000083550000442e0000a435000090
:103e5800f89d0000389e0000649e000036a5000012
:103e680086a5000004840000269f0000824400000c
:103e78002e000000a435000088890000828400001c
:103e88001a8400000a0000003c8800002284000018
:103e9800e0ff0000809e000036a5000086a5000017
:103ea800048400003a9f0000834400002e52000062
:103eb800a435000050850000809e00005885000051
:103ec800368500009e9e000086a500000484000040
:103ed800589f000084550000442e00005200000046
:103ee800a435000050850000f89d0000389e0000b1
:103ef800649e000058850000368500009e9e0000e4
:103f080086a5000004840000704000006e9f000039
:103f18008753000045520000454e0000424c000007
:103f2800a44000008c9f000084420000415500001e
:103f380044000000ba400000989f0000855300002c
:103f48005055000054430000e0400000a29f0000cc
:103f58008553000047450000544300000e4100000f
:103f6800ac9f000087530000524500004144000008
:103f7800593f00004641000054410000b69f000030
:103f8800845400004f4e00004500000072410000bc
:103f980092410000c49f0000865200005354000064
:103fa8004f5200004500000014420000d09f00005e
:103fb800855200004c4f000041440000544200006c
:103fc800dc9f0000843f00005749000050000000bb
:103fd8008e420000e69f0000845700005749000009
:103fe80050000000a4350000ec9f00002084000071
:103ff800fcff000004840000f09f000087450000db
:10400800455700005249000054450000bc420000da
:1040180002a000008645000045520000454100000e
:10402800440000001a4300000ea00000854500006f
:104038005041000047450000584300001aa0000006
:104048008745000053450000435400004f520000cc
:104058006243000024a0000084450000414c000099
:104068004c0000006c43000030a0000086450000b2
:10407800455200004153000045000000764300000f
:104088003aa0000086520000414d00003e45000065
:1040980045000000a4350000228500001a840000b5
:1040a8000000000024840000389800001a840000f2
:1040b80000010000de840000649800000aa00000ef
:1040c800008600004e9800001a84000000010000dd
:1040d8005e8600001a840000000100002a840000a7
:1040e800e4ff0000fc840000f28400000484000067
:1040f80046a0000084580000524100004d00000016
:10410800ba35000003000000e29f0000d89f0000bd
:10411800e29f0000d89f00007ea0000086530000a8
:1041280045520000494100004c000000ba3500002b
:1041380002000000a8a20000a89f0000b29f000093
:1041480092a000008645000045500000524f000034
:104158004d000000ba3500000400000016a0000061
:104168000aa0000016a000004ea00000a6a00000b3
:104178008653000044430000415200004400000000
:10418800ba3500000500000078a9000086a90000e3
:1041980012aa0000c4a90000bca0000085440000c9
:1041a8004556000049440000d8430000d2a0000052
:1041b800874600004e5f0000524500004144000061
:1041c800e2430000dca00000884600004e5f0000cb
:1041d800575200004954000045000000ec4300001d
:1041e800e8a00000874600004e5f0000494d00002f
:1041f800473e0000f6430000f6a000008746000096
:104208004e5f00003e4900004d470000004400009a
:1042180002a10000854d00004f5500004e540000db
:104228000a4400000ea10000865500004d4f000012
:10423800554e0000540000001444000018a100006e
:104248008544000045560000494f0000a435000091
:10425800108500007e88000000860000828400002f
:10426800688400000484000024a10000844c00003d
:104278004f41000044000000a4350000e4a0000005
:1042880010850000ac840000048400001e44000077
:104298004e4400003aa10000884c0000432d000065
:1042a800454b0000455900003f00000068440000ed
:1042b80050a10000874c0000432d0000454b000032
:1042c800455900007a4400005ea10000894c0000b6
:1042d800432d0000464900004c54000045520000a0
:1042e800984400006aa10000874c0000432d00009c
:1042f8004b450000593f0000a43500005aa10000ba
:10430800d48400002284000012000000f28400001f
:1043180066a1000074a100002084000008000000cd
:10432800f28400001e840000eaff000004840000fc
:1043380078a10000864c0000432d00004b4500008a
:1043480059000000a435000080a10000e8840000a6
:1043580022840000faff0000048400001b5b0000b8
:10436800411b00005b4200001b5b0000431b000078
:104378005b4400001b5b0000313b0000354100003e
:104388001b5b0000313b0000354200001b5b000056
:10439800313b0000354300001b5b0000313b00004f
:1043a800354400001b5b0000327e00001b5b0000f0
:1043b800317e00001b5b0000337e00001b4f0000b5
:1043c800461b00005b3500007e1b00005b360000ca
:1043d8007e1b00005b3300003b3500007e1b0000a5
:1043e8005b3300003b350000481b00005b330000d6
:1043f8003b350000461b00005b3500003b350000e4
:104408007e1b00005b3600003b3500007e0000008c
:104418009ea10000835800004f4e0000be440000db
:104428000ea20000845800004f460000460000001d
:10443800c844000016a2000088560000542d000051
:10444800454b0000455900003f000000a43500001e
:104458000484000020a2000087560000542d0000ac
:10446800454b000045590000a435000004840000b5
:1044780030a2000089560000542d00004649000073
:104488004c54000045520000a4350000d4840000bc
:104498001a8400001f0000005088000022840000d9
:1044a8000400000004840000d48400001c84000080
:1044b8001b0000003c880000228400000800000067
:1044c800f2840000b29f0000048400001a840000f7
:1044d80074a20000008600008a84000004840000a2
:1044e80020200000202000002020000020200000c4
:1044f80008200000202000000c0d000020200000f3
:1045080020200000202000002020000016200000ad
:1045180016200000202000003ea200008756000060
:10452800542d00004b450000593f0000a435000001
:104538000484000092a2000086560000542d00005a
:104548004b45000059000000a43500000484000019
:10455800a0a2000087560000542d0000454d000021
:1045680049540000a435000004840000aea20000f5
:1045780088560000542d0000454d000049540000a5
:104588003f000000a4350000be9f00000484000026
:10459800bca2000088560000542d000041540000c1
:1045a8002d58000059000000a435000004840000c4
:1045b800cea2000087560000542d00005041000094
:1045c80047450000a43500001a8400000c000000d4
:1045d800a89f000004840000dea2000087560000a7
:1045e800542d0000435200004c460000a435000042
:1045f8001a8400000d000000a89f00001a84000023
:104608000a000000a89f000004840000f2a2000035
:104618008a560000542d0000444500004c4200001a
:10462800414300004b000000a43500001a8400003c
:1046380008000000a89f00007c8a0000a89f0000d6
:104648001a84000008000000a89f000004840000ed
:104658000ca3000088560000542d000044450000bb
:104668004c4c00004e000000a43500001a840000e5
:104678001b000000a89f00001a8400005b000000d7
:10468800a89f00001a84000032000000a89f0000c4
:104698001a8400004b000000a89f00001a84000044
:1046a8000d000000a89f0000048400002ea3000055
:1046b8008a560000542d0000435500005253000054
:1046c8004f5200003f000000a43500001a8400008b
:1046d8001b000000a89f00001a8400005b00000077
:1046e800a89f00001a84000036000000a89f000060
:1046f8001a8400006e000000a89f000004840000d7
:104708005ca3000088560000542d000047450000b7
:104718005459000058000000a435000068a30000a8
:10472800b29f00001a8400001b0000003c880000b3
:1047380022840000f6ff0000b29f0000f28400000f
:10474800b29f00001a8400003000000006860000b6
:10475800b29f0000d48400001a8400003b000000cf
:104768003c88000020840000140000001a84000027
:104778003000000006860000108500001a84000042
:104788000a0000006486000000860000b29f000056
:10479800f2840000b29f00001a840000300000007c
:1047a80006860000b29f0000d48400001a8400002e
:1047b800520000003c880000208400001400000023
:1047c8001a840000300000000686000010850000f2
:1047d8001a8400000a0000006486000000860000b9
:1047e800b29f0000f28400000484000086a3000049
:1047f800874c0000432d0000434f00004e5300003b
:10480800ba350000a6a1000080a1000066a1000042
:104818005aa10000809c0000aa9d00008a9a00000e
:10482800329a000074a10000fca300008753000026
:1048380045520000434f00004e530000ba350000b7
:10484800a8a200009aa2000038a200002aa2000034
:10485800b6a20000c6a20000d8a20000e6a200008e
:1048680048a200001aa40000854c00004f43000035
:10487800414c0000a435000004a40000048400009a
:1048880038a4000086520000454d00004f54000037
:1048980045000000a435000022a4000004840000a4
:1048a80046a40000874300004f4e0000534f00000d
:1048b8004c450000a43500001e8a0000bc8400009e
:1048c8000484000056a40000834b000045590000f2
:1048d800a43500001e8a0000828400001a840000ab
:1048e800000000007c8400000484000068a400002c
:1048f800844b0000455900003f000000a43500002b
:104908001e8a0000828400001a8400000100000052
:104918007c840000048400007ca40000844500001e
:104928004b45000059000000a43500001e8a000015
:10493800828400001a840000020000007c840000c9
:104948000484000092a40000854500004b45000047
:10495800593f0000a43500001e8a00008284000030
:104968001a840000030000007c8400000484000016
:10497800a8a40000844500004d4900005400000030
:10498800a43500001e8a0000828400001a840000fa
:10499800040000007c84000004840000bea4000021
:1049a800854500004d490000543f0000a435000033
:1049b8001e8a0000828400001a840000050000009e
:1049c8007c84000004840000d4a400008541000019
:1049d800542d000058590000a43500001e8a00001c
:1049e800828400001a840000060000007c84000015
:1049f80004840000eaa4000084500000414700003d
:104a080045000000a43500001e8a000082840000d2
:104a18001a840000070000007c8400000484000061
:104a280000a50000894500004b450000593e0000e4
:104a38004348000041520000a43500001e8a0000cf
:104a4800828400001a840000080000007c840000b2
:104a58000484000016a500008553000050410000a2
:104a680043450000a43500001a840000200000001f
:104a7800c4a400000484000030a500008653000090
:104a8800504100004345000053000000a4350000d9
:104a9800d48400001a840000000000005088000040
:104aa8002084000006000000f28400000484000056
:104ab8001a840000000000002484000036a50000cd
:104ac80028840000fcff00000484000042a50000c8
:104ad800874300004c450000415200004c4e000046
:104ae800a43500001a84000018000000c4a40000c7
:104af800048400006ca50000845400005950000094
:104b080045000000a4350000d48400002084000083
:104b180006000000fc840000048400001a840000e1
:104b28000000000024840000d48400008a8400006f
:104b3800e8840000228400000e000000c4a40000e5
:104b48000e86000028840000f0ff00001e8400008c
:104b58000400000048840000f2840000048400007f
:104b680080a5000086440000454c00004554000024
:104b780045000000a43500001a8400007f000000f2
:104b8800c4a4000004840000b6a500008744000007
:104b9800454c000042410000434b0000a435000092
:104ba8001a84000008000000c4a400000484000067
:104bb800caa5000087440000454c00004c4900008d
:104bc8004e450000a43500001a84000018000000bb
:104bd800c4a4000004840000dea50000874e000085
:104be800455700004c4900004e450000a435000020
:104bf8001a8400000d000000c4a400000484000012
:104c0800f2a50000864d0000464c0000415300000c
:104c180048000000ba350000060000003ea600006b
:104c280000a7000066a7000026a7000006a600004f
:104c380087460000425500004646000045520000e5
:104c4800a43500001a840000000c000024ad000008
:104c5800d48400001a8400003c120000bc840000c8
:104c6800048400001ca6000085540000424c00008b
:104c7800404c0000d244000038a6000085540000d3
:104c8800424c000040480000e244000042a60000f8
:104c98008249000040000000f24400004ca60000d9
:104ca8008546000041440000445200000e450000c3
:104cb80054a60000854600004e45000058540000e8
:104cc8001c4500002a450000524500005ea6000071
:104cd8008555000044520000454c00007445000012
:104ce8006ca60000883f0000464c0000494d0000bb
:104cf8004954000053000000a4350000de84000081
:104d08001a840000008000001a84000000000000df
:104d180072a600002e88000022840000080000000f
:104d28001a8400000000000004840000de840000f3
:104d38001a840000eb5700001a84000005000000e8
:104d480072a600002e8800000484000076a60000e9
:104d5800885200004f5700003e46000041440000c2
:104d680052000000a43500001a840000000800006a
:104d78006c86000004840000aca600008646000093
:104d8800455200004153000045000000a4350000d2
:104d9800b6a6000080a60000228400001e000000c5
:104da800108500001a84000000f80000ce8700007b
:104db80010850000be8a00001e9a00005aa6000056
:104dc8001a8400000300000068a60000b48a0000ee
:104dd8001e9a000004840000ca980000fc840000a9
:104de80004840000c2a60000863e0000464c000075
:104df8004153000048000000a435000080a60000d0
:104e08002084000008000000fc840000f2840000f8
:104e1800048400005aa6000066a600001a84000058
:104e28000100000068a6000004840000f8a6000045
:104e380089520000414d00003e4600004c410000f0
:104e480053480000a435000080a60000208400001c
:104e580008000000fc840000fc84000004840000ba
:104e68005aa600001a8400000000000024840000f4
:104e7800d484000066a600001a8400000100000027
:104e880068a6000064a600001a840000060000005e
:104e9800008600001a840000060000002a84000032
:104ea800e8ff0000f2840000048400001ca7000052
:104eb800894600004c410000534800003e52000063
:104ec800414d0000a4350000228500001a8400002e
:104ed8000000000024840000de8400001a84000022
:104ee800020000005e8600003898000050a600000e
:104ef8002c8500003898000036850000c484000026
:104f08000e8600005885000036850000c484000025
:104f18000e8600005885000036850000c484000015
:104f28000e8600004e9800001a840000030000005e
:104f38002a840000d2ff0000fc840000f2840000f4
:104f4800048400005ca70000874900004d4700006a
:104f580048450000414400009a450000a8a7000009
:104f6800854d00004147000049430000a44500006a
:104f7800b4a70000864900004d470000524f0000ca
:104f880057000000ae450000bea70000874900009a
:104f98004d47000053490000474e0000a43500006b
:104fa8001a84000000000000b0a70000048400007c
:104fb800caa70000884900004d4700004c41000086
:104fc8005453000054000000a43500001a84000067
:104fd80001000000b0a7000004840000dea7000064
:104fe800854900004d47000044500000a4350000ea
:104ff8001a84000002000000b0a70000048400002a
:10500800f4a70000874900004d47000053490000fd
:105018005a450000a43500001a840000030000006f
:10502800b0a700000484000006a80000895300000f
:105038004554000048450000414400004552000026
:10504800a4350000baa70000d2a70000b68400006b
:10505800c0880000faa70000b6840000a6890000f6
:1050680082840000e8a70000b6840000c088000021
:10507800c68a0000068600000ea80000b68400005c
:10508800048400001aa80000874900004d4700006a
:105098004144000044520000a43500001a84000076
:1050a800008000001a840000000000000484000052
:1050b80048a80000843f0000494d00004700000058
:1050c800a4350000b0a700001a8400000800000002
:1050d80050a8000066a70000d2a70000ac8400001a
:1050e800baa700003c880000048400005ea8000005
:1050f800853f0000534900005a450000a4350000d0
:105108000ea80000ac840000048400007ca8000005
:10511800894500005241000053450000524f0000ed
:1051280057530000a43500000ea80000ac8400000e
:105138001a84000008000000008600001a8400009d
:10514800000c0000a68600001085000022840000e4
:10515800040000000e860000c6a7000010850000ad
:105168001a8400000000000024840000d484000099
:10517800caa600000e86000028840000f8ff000080
:10518800f2840000048400008ca800008749000015
:105198004d4700005341000056450000a43500006b
:1051a80078910000228400000400000004840000bc
:1051b80024a8000096a80000b0a7000082a800005c
:1051c8001a840000080000000086000050a80000b3
:1051d80026a7000004840000caa800008449000033
:1051e8004d4700004c4f000041440000a43500002a
:1051f80064a80000e6870000dc8f0000184e00005d
:105208006f200000626f00006f74000020690000ca
:105218006d61000067650000206100007661000094
:10522800696c0000616200006c6500002e000000df
:10523800b0a7000082a800001a840000080000003f
:105248000086000050a8000066a70000faa700002a
:10525800ac8400007c890000bc840000e8a7000042
:10526800ac840000a6890000bc840000048400000f
:10527800f2a800008753000044430000494e000094
:1052880049540000b84500003ea90000843f0000d2
:105298005344000043000000824600004aa9000071
:1052a800863f000053440000434f00004b000000bd
:1052b800a435000050a900001a8400000100000075
:1052c8001a8400000100000042860000ce8700001a
:1052d8000484000054a900008753000044430000e0
:1052e80052450000414400008c46000070a90000af
:1052f80088530000444300005752000049540000fe
:1053080045000000d84600007ca90000874e000038
:1053180053450000435400004f520000a4350000dc
:105328001a84000000020000068600001a840000ab
:1053380000000000c6860000108500001a840000e6
:10534800000200000086000010850000588500005b
:105358004e9800001a840000010000005e860000dc
:105368003898000050850000048400008aa90000d5
:10537800874900004d4700003e53000044430000a9
:10538800a4350000389800005ca9000020840000c3
:105398000800000046a90000228400001c0000004c
:1053a800368500006498000086a9000092a90000d4
:1053b800d484000022840000060000001e8400003f
:1053c800f0ff0000fc8400004e980000fc84000000
:1053d80004840000ba9300001253000044630000e4
:1053e8006172000064200000777200006974000098
:1053f8006520000065720000726f000072000000f6
:10540800faa50000ba8f0000bca90000875300006d
:10541800444300003e4900004d470000a435000009
:10542800389800005ca900002084000008000000f3
:1054380046a90000228400002000000036850000f4
:105448006498000078a9000022840000160000007b
:1054580092a90000d4840000228400000600000005
:105468001e840000ecff0000fc8400004e98000041
:10547800fc84000004840000ba930000115300006b
:10548800446300006172000064200000726500003f
:105498006164000020650000727200006f720000f5
:1054a800faa50000ba8f00000aaa0000854500008e
:1054b80053540000523e0000a4350000d48400007c
:1054c8009a84000050850000fc8800005885000080
:1054d800048400005aaa00008453000054520000bb
:1054e8003e000000a4350000d48400008a84000037
:1054f80050850000fc8800005885000004840000e6
:1055080070aa00008843000053540000523e000077
:10551800524100004d000000a435000050850000f5
:10552800d48400008a8400000e860000588500009c
:105538002c8500001a84000000000000248400006c
:1055480076aa00001085000050850000368500000e
:10555800c48400000e8600005885000028840000de
:10556800f0ff0000fc8400000484000086aa00000c
:1055780084530000545200003d000000a435000090
:105588005085000060aa00005885000060aa00004d
:1055980022850000368500003c8800002284000037
:1055a8002a0000001a840000000000002484000083
:1055b8005085000060aa00005885000060aa00001d
:1055c800228500003c880000228400000e000000b4
:1055d80028840000eeff0000fc8400001a8400000c
:1055e800ffff000004840000488400001e840000bf
:1055f80004000000f2840000fc8400001a8400000b
:105608000000000004840000bcaa000088480000d4
:1056180045410000504900004e4900005400000078
:10562800484700000aab00008848000045410000d8
:1056380050530000495a000045000000624700002e
:1056480018ab0000884800004541000050460000a3
:1056580052450000450000006c47000076470000f6
:1056680026ab00008846000052450000454c00006b
:1056780049530000540000008047000036ab00008a
:105688008855000053450000444c00004953000071
