:020000040000fa
:080000000002040000000000f2
:020000040000fa
:1000080046030000460300004603000046030000c4
:1000180046030000460300004603000046030000b4
:100028004603000046030000460300005204000097
:100038004603000046030000be030000480300001a
:10004800460300004603000046030000a604000023
:10005800ca040000460300004603000046030000ef
:100068004603000046030000460300004603000064
:100078002c0400004603000046030000460300006d
:100088004603000046030000460300004603000044
:100098004603000046030000460300004603000034
:1000a8004603000046030000460300004603000024
:1000b8004603000046030000460300004603000014
:1000c8004603000046030000460300004603000004
:1000d80046030000460300004603000046030000f4
:1000e80046030000460300004603000046030000e4
:1000f80046030000460300004603000046030000d4
:1001080046030000460300004603000046030000c3
:1001180046030000460300004603000046030000b3
:1001280046030000460300004603000046030000a3
:100138004603000046030000460300004603000093
:100148004603000046030000460300004603000083
:100158004603000046030000460300004603000073
:100168004603000046030000460300004603000063
:100178004603000046030000460300004603000053
:100188004603000046030000460300004603000043
:100198004603000046030000460300004603000033
:1001a8004603000046030000460300004603000023
:1001b8004603000046030000460300004603000013
:1001c8004603000046030000460300004603000003
:1001d80046030000460300004603000046030000f3
:1001e80046030000460300004603000046030000e3
:0801f80046030000460300006d
:020000040000fa
:1002080046030000460300004603000046030000c2
:1002180046030000460300004603000046030000b2
:100228004603000046030000460300005204000095
:100238004603000046030000be0300004803000018
:10024800460300004603000046030000a604000021
:10025800ca040000460300004603000046030000ed
:100268004603000046030000460300004603000062
:100278002c0400004603000046030000460300006b
:100288004603000046030000460300004603000042
:100298004603000046030000460300004603000032
:1002a8004603000046030000460300004603000022
:1002b8004603000046030000460300004603000012
:1002c8004603000046030000460300004603000002
:1002d80046030000460300004603000046030000f2
:1002e80046030000460300004603000046030000e2
:1002f80046030000460300004603000046030000d2
:1003080046030000460300004603000046030000c1
:1003180046030000460300004603000046030000b1
:1003280046030000460300004603000046030000a1
:100338004603000046030000460300004603000091
:100348004603000046030000460300004603000081
:100358004603000046030000460300004603000071
:100368004603000046030000460300004603000061
:100378004603000046030000460300004603000051
:100388004603000046030000460300004603000041
:100398004603000046030000460300004603000031
:1003a8004603000046030000460300004603000021
:1003b8004603000046030000460300004603000011
:1003c8004603000046030000460300004603000001
:1003d80046030000460300004603000046030000f1
:1003e80046030000460300004603000046030000e1
:0803f80046030000460300006b
:020000040000fa
:1004000000802000f1ff2000018009000018eb00af
:100410000f782200a9d220008f04980094130200c4
:100420000000000000802200000188000e742200fd
:100430009e049800a0002000a0049800a08b280033
:10044000c0049800888b2800b80578003b0078002d
:10045000004001000000000000000000000000005b
:10046000000000000000000000000000000000008c
:10047000000000000000000000000000000000007c
:10048000000000000000000000000000000000006c
:10049000000000000000000000000000000000005c
:020000040000fa
:10068c000000fe00801f78000028ec0018003200eb
:10069c00600020000008e3001b003200c0002000b6
:1006ac000008e3001b003200200120000008e300da
:1006bc001b003200c00220000008e3001e003200c4
:1006cc00c00e20000008e3001e003200f0102000d5
:1006dc000008e3001d003200001120000008e300b8
:1006ec002000320084e0a9004f0078000040060092
:1006fc0050022000100c8800b01f2000000c880055
:10070c0060088800f7ff3700601d2000100c88007f
:10071c00f4ff370050022000100c8800f1ff370066
:10072c00a0042000100c8800703f2000000c8800f2
:10073c0060088800ebff370084c0a90094c0a800b3
:10074c00e8ff370094c0a900e6ff37000000eb007b
:10075c000248e300e3ff320000a8ef000268ef005c
:10076c00e0ff370000a8ef0002e8ef00ddff3700e4
:10077c00801f7800811f7800821f7800831f78000b
:10078c00841f7800851f78003400f8003008800042
:10079c00630060004100dd0000600100000000000b
:1007ac00000000000000000000000000000000003d
:1007bc000000000000000000cc42a8000000200057
:1007cc00a001880001408000c102b100e7826000f6
:1007dc00c308de00220320000110b8006480200052
:1007ec000402400063902800344078000080fb0035
:1007fc004300dd00808141008581410093407800f9
:10080c008180fb006022ab00feff3a0041138800a0
:10081c000201e900f3ff3a006022ab00feff3a0050
:10082c006822ef003400f900cf0278004f02780004
:10083c00cf0178004f017800cf0078004f0078008e
:10084c00cc42a90084c0a9000040060000a0fe0014
:10085c005016800000e0a300deacd7000b0039007e
:10086c0000ce20001168800081004000f0668000fe
:10087c004500de008008780002adec00f00120009d
:10088c00022db60000402000f06688000080fe00bb
:10089c008680a90000400600801f7800811f780028
:1008ac00821f78003e2dec00440de2000300320064
:1008bc00442ded0001003a0013e1a900006880000e
:1008cc00020de3001900320001ce2000810040002f
:1008dc0011a0a60012003900110078000000d10010
:1008ec000f0031008000eb00820020000010a500fa
:1008fc000180b0000201e900fcff3b000100a600f2
:10090c000700370041d0200032698000810041008f
:10091c00804878001200b000f201b2003269880001
:10092c0000adec00f0012000002db6004f01780066
:10093c00cf0078004f0078008460a90000400600ca
:10094c008560a900801f7800811f7800ddccbf0076
:10095c000080fb0061cb2000810040002202ae0031
:10096c00060037003011800080487800da2cec004b
:10097c00dd6cec00f0002000dd6cb600cf007800e0
:10098c004f007800004006008580a900801f780089
:10099c00811f7800d60ce2000a003200d8ccbf00d0
:1009ac000080fb0061cc20008100400011407800e9
:1009bc0024e2b700d62ced00d86cec00f00020003f
:1009cc00d86cb600cf0078004f00780000400600cd
:020000040000fa
:1009dc000000000005540000494300004b53000088
:1009ec00c613000016850000044d0000534500009e
:1009fc0043000000d013000016850000044c0000da
:100a0c004653000052000000e01300001685000061
:100a1c0004520000414e000044000000f813000096
:100a2c001685000005530000524100004e440000a2
:100a3c002a14000000000000034300004c53000087
:100a4c00ec1200008085000004580000504f00009c
:100a5c0053000000fc1200008085000004590000c7
:100a6c00504f000053000000101300008085000060
:100a7c000643000055520000504f00005300000088
:100a8c00040e0000308500003a850000d685000079
:100a9c0080850000044500004d4900005400000012
:100aac002213000080850000024300005200000069
:100abc005813000080850000024200004c0000002a
:100acc005a130000808500000853000043520000b8
:100adc004f4c00004c55000050000000601300000b
:100aec0080850000054300004c5200004c4e000075
:100afc007813000080850000045400005950000059
:100b0c0045000000040e0000de850000000000001f
:100b1c001886000032860000f08500005685000023
:100b2c002486000090850000d6850000000000009f
:100b3c00043f00004b450000590000006c120000ff
:100b4c00a6850000034b00004559000082120000ee
:100b5c0000000000044300004f4c00004400000063
:100b6c000e0e0000ac88000004570000415200003b
:100b7c004d000000100e0000ac880000074500007e
:100b8c005845000043550000544500001c0e000061
:100b9c00ac880000044500005849000054000000d7
:100bac00220e0000ac880000054c000049540000e7
:100bbc002a0e0000ac880000044300004c490000e1
:100bcc0054000000360e0000ac8800000243000008
:100bdc0040000000440e0000ac88000002430000fe
:100bec00210000004e0e0000ac88000005440000ff
:100bfc004f420000524100005c0e0000ac88000027
:100c0c00064400004f30000042520000410000003a
:100c1c00640e0000ac880000044400004f44000047
:100c2c004f0000007a0e0000ac8800000644000063
:100c3c004f4c00004f4f0000500000008a0e000087
:100c4c00ac880000014900009c0e0000ac8800003c
:100c5c000344000055500000a60e0000ac880000b4
:100c6c00043f00004455000050000000ae0e000090
:100c7c00ac88000004440000524f000050000000fb
:100c8c00ba0e0000ac88000004530000574100006d
:100c9c0050000000c20e0000ac880000035200009f
:100cac004f540000ce0e0000ac880000044f000032
:100cbc005645000052000000de0e0000ac8800001b
:100ccc00034e000049500000e80e0000ac88000004
:100cdc00023e000052000000f00e0000ac88000044
:100cec00025200003e000000fa0e0000ac8800002a
:100cfc000252000040000000040f0000ac8800000d
:100d0c0003530000504000000e0f0000ac880000a0
:100d1c000353000050210000180f0000ac880000a5
:100d2c000352000050400000220f0000ac8800006d
:100d3c0003520000502100002c0f0000ac88000072
:100d4c0004540000554300004b000000360f000017
:100d5c00ac880000012b0000460f0000ac8800009e
:100d6c00012d0000520f0000ac8800000231000081
:100d7c002b0000005e0f0000ac8800000231000068
:100d8c002d000000660f0000ac880000023200004d
:100d9c002a0000006e0f0000ac8800000232000038
:100dac002f000000760f0000ac880000064c0000fd
:100dbc005348000049460000540000007e0f00001c
:100dcc00ac88000006520000534800004946000061
:100ddc0054000000860f0000ac880000022b0000bd
:100dec00210000008e0f0000ac880000024d0000b6
:100dfc002b0000009a0f0000ac880000034100009b
:100e0c004e440000a80f0000ac880000024f000008
:100e1c0052000000b20f0000ac8800000358000024
:100e2c004f520000bc0f0000ac88000006490000c7
:100e3c004e5600004552000054000000c60f000042
:100e4c00ac880000064e00004547000041540000ed
:100e5c0045000000ce0f0000ac88000002300000fe
:100e6c003d000000d60f0000ac88000002300000ee
:100e7c003c000000e00f0000ac880000013d0000c9
:100e8c00ee0f0000ac880000023c00003e000000a9
:100e9c0000100000ac880000045400004553000012
:100eac0054000000040e000026850000aa870000f4
:100ebc00ce870000de8500004d010000008500009b
:100ecc00aa870000c0870000de8500004d010000ed
:100edc0000850000028600005e870000ac880000e0
:100eec0007530000455200005445000053540000c5
:100efc00040e000026850000e4870000fa8800003c
:100f0c00f08800000286000084870000ac88000096
:100f1c00074b0000424400005445000053540000ad
:100f2c00040e000026850000ac85000056850000ec
:100f3c00028600009a870000ac880000054800007b
:100f4c004f4d000045000000040e0000de8500003f
:100f5c0000000000de850000000000004685000057
:100f6c00d6850000ac880000064f00004b4f0000f7
:100f7c0046460000040e00006685000066850000f1
:100f8c00d6850000ac880000024f00004b0000002a
:100f9c00040e0000de8500004f00000056850000a6
:100fac00de8500004b00000056850000d685000051
:100fbc00ac880000034d000053470000040e0000f5
:100fcc00de850000e803000000850000de850000df
:100fdc00c88d0000fc870000d6850000ac8800009e
:100fec00055a00005459000050450000040e000042
:100ffc0032860000f0850000328600000e8600006c
:10100c001088000056850000c08600000286000093
:10101c00fe8700004686000046860000d68500004c
:10102c00ac880000075300005452000054450000e7
:10103c0053540000040e000026850000de850000dd
:10104c00d78d0000fc870000de850000060800003c
:10105c00de85000000000000de85000000000000be
:10106c00de8500002b000000c6880000a28800006e
:10107c0026850000a2880000de850000060800001e
:10108c00de85000000000000de850000000000008e
:10109c00de8500002b000000d0880000a288000034
:1010ac000286000022880000ac8800000a4500007f
:1010bc0045500000524f00004d54000045530000b5
:1010cc0054000000040e000026850000de850000a0
:1010dc00d78d0000fc870000de85000006080000ac
:1010ec00de85000064000000dc8800001e85000026
:1010fc00a288000026850000de8500006400000048
:10110c000a85000004890000a2880000de8500002a
:10111c0006080000de85000064000000e688000080
:10112c00028600007e880000ac88000005440000a8
:10113c00454c000041590000040e0000de85000003
:10114c00f401000000850000d6850000ac8800008a
:10115c00074900004e4600004c4f00004f50000065
:10116c001210000068880000ac880000000000002d
:10117c0006520000535400004f520000450000007e
:10118c007e100000de880000065200004c4f00006c
:10119c0041440000b0100000de880000064500004d
:1011ac00535400004f52000045000000e2100000b4
:1011bc00de880000054500004c4f00004144000053
:1011cc002a1100000000000005530000454d0000ee
:1011dc004954000082140000f288000004530000ff
:1011ec004745000054000000b0140000000000004f
:1011fc00045400004f4e000045000000e6140000af
:020000040000fa
:10120c004020000010f800001020000040000000fa
:10121c001020000040f800004020000010000000ea
:10122c0020700000a820000020200000000000001a
:10123c000020000020200000a8700000200000000a
:10124c0000700000f8f80000f870000000000000ca
:10125c000000000000000000000000000000000082
:10126c000000000000000000000000000000000072
:10127c000000000000000000000000000000000062
:10128c000000000000000000000000000000000052
:10129c000000000000000000000000000000000042
:1012ac000000000000000000000000000000000032
:1012bc000000000000000000000000000000000022
:1012cc000000000000000000000000000000000012
:1012dc000000000000000000000000000000000002
:1012ec0000000000000000000000000000000000f2
:1012fc0000000000000000000000000000000000e2
:10130c0000000000000000000000000000000000d1
:10131c0000000000000000000000000000000000c1
:10132c0000000000000000000000000000000000b1
:10133c0000000000000000000000000000000000a1
:10134c000000000000000000000000000000000091
:10135c000000000000000000000000000000000081
:10136c000000000000000000000000000000000071
:10137c000000000000000000000000000000000061
:10138c000000000000000000000000000000000051
:10139c000000000000000000000000000000000041
:1013ac000000000000000000000000000000000031
:1013bc000000000000000000000000000000000021
:1013cc000000000000000000000000000000000011
:1013dc000000000000000000000000000000000001
:1013ec0000000000000000000000000000000000f1
:1013fc0000000000000000000000000000000000e1
:10140c0000000000000000000000000000000000d0
:10141c002020000020200000200000002000000000
:10142c0050500000500000000000000000000000c0
:10143c0050500000f8500000f85000005000000020
:10144c0020780000a070000028f0000020000000b0
:10145c00c0c80000102000004098000018000000d8
:10146c0060900000a0400000a89000006800000000
:10147c0060200000400000000000000000000000a0
:10148c001020000040400000402000001000000030
:10149c004020000010100000102000004000000050
:1014ac0000200000a8700000a82000000000000030
:1014bc000020000020f800002020000000000000a8
:1014cc000000000000000000602000004000000050
:1014dc000000000000f00000000000000000000010
:1014ec000000000000000000006000006000000030
:1014fc0000080000102000004080000000000000e8
:10150c007088000098a80000c888000070000000d7
:10151c00206000002020000020200000f8000000c7
:10152c00708800001020000040800000f8000000cf
:10153c00f008000008f0000008080000f0000000af
:10154c001030000050900000f81000001000000057
:10155c00f880000080f0000008080000f000000097
:10156c003040000080f0000088880000700000000f
:10157c00f80800001020000040400000400000006f
:10158c0070880000887000008888000070000000df
:10159c0070880000887000000808000070000000cf
:1015ac0000600000600000006060000000000000af
:1015bc00006000006000000060200000400000009f
:1015cc0010200000408000004020000010000000af
:1015dc0000000000f8000000f8000000000000000f
:1015ec004020000010080000102000004000000007
:1015fc00708800000810000020000000200000008f
:10160c007088000008680000a8a8000070000000a6
:10161c007088000088f800008888000088000000ae
:10162c00f088000088f0000088880000f0000000be
:10163c00788000008080000080800000780000002e
:10164c00f08800008888000088880000f000000006
:10165c00f880000080f8000080800000f800000096
:10166c00f880000080f800008080000080000000fe
:10167c007880000080b000008888000070000000b6
:10168c008888000088f80000888800008800000026
:10169c0070200000202000002020000070000000be
:1016ac0078080000080800000890000060000000a6
:1016bc0088900000a0c00000a090000088000000ee
:1016cc00808000008080000080800000f800000016
:1016dc0088d80000a88800008888000088000000d6
:1016ec0088880000c8a800009888000088000000c6
:1016fc007088000088880000888800007000000056
:10170c00f088000088f0000080800000800000005d
:10171c007088000088880000a898000078000000fd
:10172c00f088000088f00000a09000008800000005
:10173c00788000008070000008080000f0000000b5
:10174c00f8200000202000002020000020000000d5
:10175c0088880000888800008888000070000000dd
:10176c008888000088880000885000002000000055
:10177c008888000088a80000a8d800008800000015
:10178c00888800005020000050880000880000006d
:10179c0088880000885000002020000020000000f5
:1017ac00f81000002040000080800000f8000000cd
:1017bc00604000004040000040400000600000001d
:1017cc000080000040200000100800000000000015
:1017dc0018080000080800000808000018000000a5
:1017ec0020500000880000000000000000000000f5
:1017fc0000000000000000000000000000f80000e5
:10180c00402000001000000000000000000000005c
:10181c0000000000700800007888000078000000cc
:10182c008080000080b00000c8880000f00000003c
:10183c000000000070800000808800007000000034
:10184c000808000008680000988800007800000074
:10185c000000000070880000f8800000700000009c
:10186c003048000040e00000404000004000000014
:10187c0000000000788800008878000008700000e4
:10188c0080800000b0c8000088880000880000003c
:10189c00002000000020000020200000200000009c
:1018ac0010000000301000001090000060000000dc
:1018bc008080000090a00000c0a0000090000000fc
:1018cc00602000002020000020200000700000009c
:1018dc0000000000d0a80000a888000088000000cc
:1018ec0000000000b0c800008888000088000000dc
:1018fc000000000070880000888800007000000064
:10190c0000000000f088000088f0000080800000db
:10191c00000000006890000090b00000501800001b
:10192c0000000000b0c800008080000080000000b3
:10193c00000000007080000070080000f000000043
:10194c0040400000e0400000404800003000000033
:10195c0000000000888800008898000068000000e3
:10196c000000000088880000885000002000000063
:10197c000000000088880000a8a8000050000000ab
:10198c00000000008850000020500000880000007b
:10199c0000000000888800008878000008700000b3
:1019ac0000000000f810000020400000f8000000cb
:1019bc00204000004080000040400000200000005b
:1019cc00202000002020000020200000200000002b
:1019dc0040200000201000002020000040000000eb
:1019ec000000000040a800001000000000000000f3
:1019fc00fcfc0000fcfc0000fcfc0000fcfc0000fb
:101a0c001c610000326200002163000023640000ae
:101a1c00246500002b66000034670000336800006a
:101a2c00436900003b6a0000426b00004b6c0000f5
:101a3c003a6d0000316e0000446f00004d700000e4
:101a4c00157100002d7200001b7300002c74000037
:101a5c003c7500002a7600001d77000022780000fb
:101a6c00357900001a7a000045300000163100006c
:101a7c001e32000026330000253400002e350000f5
:101a8c00363600003d3700003e3800004639000075
:101a9c00292000004e2d0000553d00000e60000076
:101aac000d090000545b00005b5d00004c3b000026
:101abc00412c0000492e00004a2f00005227000044
:101acc005d7c0000660800000d0900005a0d000046
:101adc00761b0000000000000e7e000016210000a6
:101aec001e40000026230000252400002e250000a7
:101afc00365e00003d2600003e2a0000462800000d
:101b0c00452900004e5f0000547b0000552b00005f
:101b1c005b7d00005d5c00004c3a0000522200002e
:101b2c00413c0000493e00004a3f0000000000001c
:101b3c001281000059810000148000001182000005
:101b4c005883000000000000148000001182000087
:101b5c0000000000708500006c8600007d8c000089
:101b6c0071840000698700007a8d00007588000080
:101b7c00728900006b8a0000748b00005a0d000003
:101b8c0000000000466f0000727400006845000001
:101b9c0078200000563000002e3100000d0a0000a5
:101bac000054000068650000207100007569000099
:101bbc00636b000020620000726f0000776e000003
:101bcc00206600006f780000206a0000756d000030
:101bdc00702000006f760000657200002074000019
:101bec0068650000206c0000617a0000792000001c
:0c1bfc00646f0000672e00000d00000068
:020000040000fa
:101c0800881f78000b047800b80578003b0078003e
:101c1800004001000000fe000e7422000f78220030
:101c2800888b2800b80578003b0078000040010048
:101c38008c0578002e0678000b4001004f047800d0
:101c4800b80578003b007800004001000c2f7800b0
:101c5800080690000884e800b80578003b00780082
:101c6800004001000c2f7800184678000884e8002e
:101c78000c86fb00b80578003b00780000400100a6
:101c88001c4678000c86fb00b80578003b007800fd
:101c9800004001000c80fb002e067800004e780002
:101ca8002e067800b80578003b0078000040010057
:101cb80018047800b80578003b007800004001005f
:101cc8000c00e0002e06780004003a0018047800a2
:101cd800b80578003b007800004001000884e8005f
:101ce800b80578003b00780000400100871f7800a5
:101cf8008c0378002e0678008c1f78002e0678005a
:101d0800b80578003b007800004001008703e80030
:101d18001e38e1000100320018047800cf03780073
:101d28008f87e900b80578003b0078000040010083
:101d38000c2f780007067800b80578003b0078007b
:101d4800004001000c2f7800b80578003b007800af
:101d5800004001000c00e000010032000c2f780068
:101d6800b80578003b007800004001002e06780096
:101d7800b80578003b007800004001000c007800ae
:101d88001e06780000079800b80578003b00780028
:101d9800004001000c0078001e067800feb897008d
:101da800010f780070bf9f00b80578003b007800ed
:101db800004001000c2f78007ebe9700b80578001f
:101dc8003b007800004001002e00b100b805780003
:101dd8003b007800004001008c1f78002e06780038
:101de800b80578003b007800004001000c2f78000f
:101df8004f067800b80578003b00780000400100e5
:101e08000c2f78001f067800b80578003b00780092
:101e1800004001000c2f78000e067800b805780005
:101e28003b007800004001000c0778002e0678007f
:101e3800b80578003b007800004001000c2f7800be
:101e48000f067800b80578003b00780000400100d4
:101e58008c0778002e067800b80578003b007800db
:101e6800004001000c0078001e067800feb89700bc
:101e780070bf9f00010f7800b80578003b0078001c
:101e8800004001001e0046002e067800000678007b
:101e9800b80578003b007800004001000c0078008d
:101ea8002e06780000065600b80578003b0078003a
:101eb800004001001c00b000b80578003b00780025
:101ec800004001001c00b100b80578003b00780014
:101ed800004001000c064600b80578003b00780079
:101ee800004001000c06d100b80578003b007800de
:101ef800004001000c06d000b80578003b007800cf
:101f0800004001000c06d100b80578003b007800bd
:101f1800004001002e0078001c0e40002e067800bc
:101f2800b80578003b007800004001000c007800fc
:101f38002e0678001e0f40000c80b000b80578000f
:101f48003b007800004001001e0f66002e06780056
:101f5800b80578003b007800004001001e0f7600ad
:101f68002e067800b80578003b0078000040010094
:101f78001e0f6e002e067800b80578003b0078002a
:101f8800004001000c86ea00b80578003b007800a4
:101f9800004001000c06ea00b80578003b00780014
:101fa800004001001c00b1000c065e00b805780076
:101fb8003b007800004001000080eb000c06460062
:101fc8000c065e000c066800b80578003b00780037
:101fd800004001000000eb001e60e10001003a0033
:101fe8000080ea002e06780000067800b805780020
:101ff8003b007800004001000000eb001e60e1009b
:10200800010032000080ea002e0678000006780001
:10201800b80578003b00780000400100ffff37005a
:1020280000742000cc22b7000080ea00c822b60065
:1020380000fe2f00a826b60070002000a826b700d2
:1020480000fe2f00c826b60080002000c826b70072
:1020580000fe2f00c626b60070002000c626b70076
:1020680041e2a900b01320001012880041e2a80044
:10207800000006000c0078002e06780048e2b70041
:102088004002ae00feff3700401280000c007800ce
:102098000080fd0048e2b7004002ae00feff3700b6
:1020a800401280000c00780048e2b7004002ae0001
:1020b800feff3700401280002e0678000000060060
:1020c800cd22a9005000200048e2b7004002ae002f
:1020d800feff37004012800048e2ef004002ae00e9
:1020e800feff3700cd22a8004802af00f4ff3700fa
:1020f80000000600cd42a9002000200048e2b700f9
:102108004002ae00feff3700401280008c007800cd
:102118002e0678003e100200000000000c01780036
:102128002e0678000100e0000700320032407800f7
:1021380048e2b7004002ae00feff370040128000c0
:102148008100e900f7ff3700cd42a800b805780004
:102158003b00780000400100cd42a900300020007b
:1021680048e2b7004002ae00feff37004012800090
:102178008c0078002e0678003e1002000000000057
:102188000c0178002e067800832420000100e0006e
:102198000600320048e2ef004002ae00feff3700c2
:1021a800135978008100e900f8ff3700cd42a800f4
:1021b800b80578003b007800004001006410020078
:1021c80000000000cd22a9006000200048e2b7000e
:1021d8004002ae00feff370040128000cd22a8006a
:1021e80000000000cd22a9002000200048e2b7002e
:1021f8004002ae00feff3700401280004866dd0056
:102208000c2f78000006eb000c86d2003e1002006e
:10221800000000000c0178002e0678000310200052
:102228003240780048e2b7004002ae00feff3700b7
:10223800401280008301e900f9ff3a00cd22a8008e
:10224800b80578003b0078000040010064100200e7
:1022580000000000cd22a9003000200048e2b700ad
:102268004002ae00feff3700401280004866dd00e5
:102278000c2f78000006eb000c86d2003e100200fe
:10228800000000000c0178002e06780003102000e2
:1022980048e2ef004002ae00feff37004012800027
:1022a800005978008301e900f9ff3a00cd22a8001f
:1022b800b80578003b007800004001000000eb0002
:1022c80021698000326980000208e10007003200bd
:1022d80042d0200002814000242dec00f0012000b3
:1022e800242db600124078000080fb000000060094
:1022f800320078000000e00006003200800178001b
:102308008381fb000118e100f9ff3a000080fd001d
:102318000080fb00000006003400f8006211020093
:10232800000000000000e00067003200010e2000fd
:102338000008e10005003a0028ada800621102007b
:10234800000000000000e0005f003200010f2000e4
:102358000100e10005003a0028cda8006211020042
:10236800000000000000e000570032008000780004
:1023780028cdae000300370028adaf000b003700b2
:102388002d00370028adae001000370002002000f5
:10239800a201880002db28007c1102000000000076
:1023a8000000e00001003200450037000200200074
:1023b800a2018800a2da28007c11020000000000b7
:1023c8000000e0003d00320022003700280dae007a
:1023d8000700370002002000a201880022d7280049
:1023e8007c110200000000000000e00034003a0008
:1023f80002002000a201880062d028007c1102009f
:10240800000000000000e0000b0032001106200070
:102418000100e1002a003900a10720000100e100c5
:1024280027003e00286dae000050a200280daf0026
:102438000050a2002200370002002000a2018800fc
:10244800e2d928007c110200000000000000e00032
:102458001a003200110820000100e10004003a00cf
:10246800280da90028cdae00280da80013003700bc
:10247800310820000100e10003003a0028cdae0039
:10248800286daa000d003700010820000100e100b6
:1024980004003a00282da90028cdae00282da80058
:1024a80006003700210820000100e10003003a007f
:1024b800284da90028cdae00282da8000000eb006b
:1024c80028cda90028ada9003400f90000000600b5
:1024d80090110200000000000c2f78000006780020
:1024e8000000e000020032000c2f78000086eb00ac
:1024f800b80578003b007800004001009011020008
:10250800000000000000e000fcff32000c2f780003
:1025180000067800b80578003b007800004001000c
:10252800c862a900c882a900c842a9001036800064
:10253800f10f2e000100600001a0200001007000d2
:10254800103688002036800001fe2f000100600050
:10255800210120000100700020368800b00320000f
:102568001013880061e2a8006822ef00703f200085
:1025780060088800000c8800400c8800a004200037
:10258800100c88002003b000300c88005000200098
:10259800200c8800500c8800f0ff2800a620b60008
:1025a80000002500a620b700f08f2f00a620b60057
:1025b80000502000a620b70000a8ef0002e8ef00b6
:1025c80084e0a90094e0a80011e1a800000006003a
:1025d800000222006180200057020900801878005c
:1025e8000428ef00b80578003b007800004001009f
:1025f800200320000060e100010039001c032000d6
:102608000c00780004e8b7002e067800b8057800ba
:102618003b007800004001007860e10001003900cb
:102628007c0120000c00780005e8b7002e06780031
:10263800b80578003b007800004001006d60e100bb
:1026480002003a002e0678000d00370020c3b300c0
:102658000548bc0004c8bf000080fb000200400021
:1026680061802000810040008c4878002e067800a8
:102678000468ec00200320000448e30007003a0047
:102688000468ef000568ec00800120000548e300bd
:10269800020039000568ed0007003700b80578002a
:1026a8003b00780000400100f5ff37000c2f780050
:1026b8000c022000e1ff3700618020002003200089
:1026c80001014000034b2000808151008301d100ab
:1026d8008301e90003800900b21878000c2f780004
:1026e8007c0120000000370062802000800120006b
:1026f8000060e10006003100200320000060b800ff
:1027080002014000000222001800090000197800a8
:102718002e067800b80578003b00780000400100dc
:102728004440a9000000eb00a00188004440a80034
:102738004427ef004307a80042e7a80081e0a9006a
:10274800c0a2ef00c8a2ef0068a0ef006aa0ef00e7
:102758002ca3ef009412020000000000fc140200f9
:10276800000000004c1402000000000014100200d9
:1027780000000000d01402000000000042c7a800ba
:10278800000006000c2f7800fc698000b80578006e
:102798003b00780000400100f06980000c00400018
:1027a8003e0de300feff3a002e067800b8057800db
:1027b8003b00780000400100422dd50040add70015
:1027c800040039000002280042adb60020002000b5
:1027d80040adb6000c2f78000c6a8000b805780070
:1027e8003b007800004001000001eb00f3002000ee
:1027f800400dae0003003700402dec000100390009
:10280800422dec00400dd40080007800428dd600a7
:102818008000fd00402db4000100780042adb400f6
:10282800422dd50040add700400dd5008381d3009f
:102838000402e900f3ff31000c2f7800030678004a
:10284800b80578003b007800004001002503a80087
:10285800f000200040198800800078000001eb009b
:102868002023a8002003af00feff370000188000d7
:102878000080d3000281d2008100e900f8ff3a000d
:10288800026a8800b80578003b0078000040010023
:10289800c9a2a900f00f2e00cc26b60000302000f7
:1028a800cc26b70000fe2f00a426b600c0002000ea
:1028b800a426b700700620004011880021e2a80075
:1028c80080ff2f00aa20b60030002000aa20b70001
:1028d800f0ff2800a820b60000002300a820b700b9
:1028e8008580a9009580a8008560a9009560a8004a
:1028f8002462ef002342a80000000600d60ce20084
:1029080005003a002322af00030037002c1188008d
:102918002e0678000d00370000012000d60ce300d9
:10292800feff3200d9ccbf000080fb0061cc200044
:10293800810040008c4878002e067800d62cec00e8
:10294800d96cec00f0002000d96cb600b80578000e
:102958003b007800004001000c2f7800da0ce20000
:1029680001003a00fdff3700dcccbf000080fb000f
:1029780061cb20008100400011467800da2ced0080
:10298800dc6cec00f0002000dc6cb600b8057800c8
:102998003b00780000400100f0fd2f00c822b6007f
:1029a800f00f2e00c426b60000402100c426b70050
:1029b800d0002000800c88000001200090088800ca
:1029c800000006007c0888006c0c88000c06d1000a
:1029d8007c0c88002e06780013e1a8002c6a880079
:1029e8002e067800b80578003b007800004001000a
:1029f800f00f2e008026b60000f020008026b700d9
:102a08008220a80070002000ae20b7008680a900b0
:102a18009680a800f0e7230010088800f0ff28003f
:102a2800a420b60000002300a420b7000040200026
:102a3800f06688008460a9009460a80005e1a800f9
:042a48000000060084
:020000040000fa
:020000040001f9
:0457f800ae2b0000d4
:020000040000fa
:020000040001f9
:0457fc007f3f0000eb
:00000001FF
