:020000040000fa
:080000000002040000000000f2
:020000040000fa
:040008005a03000097
:020000040000fa
:04000c005a03000093
:020000040000fa
:040010005a0300008f
:020000040000fa
:040014005a0300008b
:020000040000fa
:040018005803000089
:020000040000fa
:04001c005a03000083
:020000040000fa
:040020005a0300007f
:020000040000fa
:040024005a0300007b
:020000040000fa
:040028005a03000077
:020000040000fa
:04002c005a03000073
:020000040000fa
:040030005a0300006f
:020000040000fa
:040034005c03000069
:020000040000fa
:040038005a03000067
:020000040000fa
:04003c005a03000063
:020000040000fa
:040040008602000034
:020000040000fa
:04004400180200009e
:020000040000fa
:040048005a03000057
:020000040000fa
:04004c005a03000053
:020000040000fa
:040050005a0300004f
:020000040000fa
:04005400ea020000bc
:020000040000fa
:040058000e03000093
:020000040000fa
:04005c005a03000043
:020000040000fa
:040060005a0300003f
:020000040000fa
:040064005a0300003b
:020000040000fa
:040068005a03000037
:020000040000fa
:04006c005a03000033
:020000040000fa
:040070005a0300002f
:020000040000fa
:040074003203000053
:020000040000fa
:040078007e03000003
:020000040000fa
:04007c005a03000023
:020000040000fa
:040080005a0300001f
:020000040000fa
:040084005a0300001b
:020000040000fa
:040088005a03000017
:020000040000fa
:04008c005a03000013
:020000040000fa
:040090005a0300000f
:020000040000fa
:040094005a0300000b
:020000040000fa
:040098005a03000007
:020000040000fa
:04009c005a03000003
:020000040000fa
:0400a0003c0300001d
:020000040000fa
:0400a4005a030000fb
:020000040000fa
:0400a8005a030000f7
:020000040000fa
:0400ac005a030000f3
:020000040000fa
:0400b0005a030000ef
:020000040000fa
:0400b4005a030000eb
:020000040000fa
:0400b8005a030000e7
:020000040000fa
:0400bc005a030000e3
:020000040000fa
:0400c0005a030000df
:020000040000fa
:0400c4005a030000db
:020000040000fa
:0400c8005a030000d7
:020000040000fa
:0400cc005a030000d3
:020000040000fa
:0400d0005a030000cf
:020000040000fa
:0400d4005a030000cb
:020000040000fa
:0400d8005a030000c7
:020000040000fa
:0400dc005a030000c3
:020000040000fa
:0400e0005a030000bf
:020000040000fa
:0400e4005a030000bb
:020000040000fa
:0400e8005a030000b7
:020000040000fa
:0400ec005a030000b3
:020000040000fa
:0400f0005a030000af
:020000040000fa
:0400f4005a030000ab
:020000040000fa
:0400f8005a030000a7
:020000040000fa
:0400fc005a030000a3
:020000040000fa
:040100005a0300009e
:020000040000fa
:040104005a0300009a
:020000040000fa
:040108005a03000096
:020000040000fa
:04010c005a03000092
:020000040000fa
:040110005a0300008e
:020000040000fa
:040114005a0300008a
:020000040000fa
:040118005a03000086
:020000040000fa
:04011c005a03000082
:020000040000fa
:040120005a0300007e
:020000040000fa
:040124005a0300007a
:020000040000fa
:040128005a03000076
:020000040000fa
:04012c005a03000072
:020000040000fa
:040130005a0300006e
:020000040000fa
:040134005a0300006a
:020000040000fa
:040138005a03000066
:020000040000fa
:04013c005a03000062
:020000040000fa
:040140005a0300005e
:020000040000fa
:040144005a0300005a
:020000040000fa
:040148005a03000056
:020000040000fa
:04014c005a03000052
:020000040000fa
:040150005a0300004e
:020000040000fa
:040154005a0300004a
:020000040000fa
:040158005a03000046
:020000040000fa
:04015c005a03000042
:020000040000fa
:040160005a0300003e
:020000040000fa
:040164005a0300003a
:020000040000fa
:040168005a03000036
:020000040000fa
:04016c005a03000032
:020000040000fa
:040170005a0300002e
:020000040000fa
:040174005a0300002a
:020000040000fa
:040178005a03000026
:020000040000fa
:04017c005a03000022
:020000040000fa
:040180005a0300001e
:020000040000fa
:040184005a0300001a
:020000040000fa
:040188005a03000016
:020000040000fa
:04018c005a03000012
:020000040000fa
:040190005a0300000e
:020000040000fa
:040194005a0300000a
:020000040000fa
:040198005a03000006
:020000040000fa
:04019c005a03000002
:020000040000fa
:0401a0005a030000fe
:020000040000fa
:0401a4005a030000fa
:020000040000fa
:0401a8005a030000f6
:020000040000fa
:0401ac005a030000f2
:020000040000fa
:0401b0005a030000ee
:020000040000fa
:0401b4005a030000ea
:020000040000fa
:0401b8005a030000e6
:020000040000fa
:0401bc005a030000e2
:020000040000fa
:0401c0005a030000de
:020000040000fa
:0401c4005a030000da
:020000040000fa
:0401c8005a030000d6
:020000040000fa
:0401cc005a030000d2
:020000040000fa
:0401d0005a030000ce
:020000040000fa
:0401d4005a030000ca
:020000040000fa
:0401d8005a030000c6
:020000040000fa
:0401dc005a030000c2
:020000040000fa
:0401e0005a030000be
:020000040000fa
:0401e4005a030000ba
:020000040000fa
:0401e8005a030000b6
:020000040000fa
:0401ec005a030000b2
:020000040000fa
:0401f0005a030000ae
:020000040000fa
:0401f4005a030000aa
:020000040000fa
:0401f8005a030000a6
:020000040000fa
:0401fc005a030000a2
:020000040000fa
:040200005a0300009d
:020000040000fa
:040204005a03000099
:020000040000fa
:040208005a03000095
:020000040000fa
:04020c005a03000091
:020000040000fa
:040210005a0300008d
:020000040000fa
:040214005a03000089
:020000040000fa
:040218005a03000085
:020000040000fa
:04021c005a03000081
:020000040000fa
:040220005a0300007d
:020000040000fa
:040224005a03000079
:020000040000fa
:040228005a03000075
:020000040000fa
:04022c005a03000071
:020000040000fa
:040230005a0300006d
:020000040000fa
:040234005a03000069
:020000040000fa
:040238005a03000065
:020000040000fa
:04023c005a03000061
:020000040000fa
:040240005a0300005d
:020000040000fa
:040244005a03000059
:020000040000fa
:040248005a03000055
:020000040000fa
:04024c005a03000051
:020000040000fa
:040250005a0300004d
:020000040000fa
:040254005a03000049
:020000040000fa
:040258005a03000045
:020000040000fa
:04025c005a03000041
:020000040000fa
:040260005a0300003d
:020000040000fa
:040264005a03000039
:020000040000fa
:040268005a03000035
:020000040000fa
:04026c005a03000031
:020000040000fa
:040270005a0300002d
:020000040000fa
:040274005a03000029
:020000040000fa
:040278005a03000025
:020000040000fa
:04027c005a03000021
:020000040000fa
:040280005a0300001d
:020000040000fa
:100400000e2eef000f0021000e0821000e007800d4
:100410008001b1000001880001c4fe0000c2fe009e
:10042000ea9f2a003a0678003c00780000040100a8
:020000040000fa
:1004300000e8a90061e2a900801f78000231ec0009
:1004400019003200600020000211e3001c0032009d
:10045000c00020000211e3001c0032002001200037
:100460000211e3001c003200200320000211e3000f
:100470001f003200200f20000211e3002100320093
:10048000f01020000451e200010032000000e800fa
:100490000211e30002003a0004f1ee0002b1ef00a5
:1004a0004f00780000400600400a200030488800d5
:1004b000e08a20002048880060088800f8ff3700a4
:1004c000a080200030488800f5ff3700400a200057
:1004d00030488800f2ff3700801420003048880040
:1004e000c01521002048880060088800ecff370014
:1004f0000551e200eaff320000c8a90020c8a800a8
:10050000e7ff370020c8a900e5ff370000c8a900b1
:10051000809fbe00829fbe00849fbe00861f780021
:100520003200f80000c2fe00118880002103b100f3
:10053000e7826000c308de00020420000110b8005a
:10054000c410210004024000a38b290090488000c1
:1005500063006000000601000000000000000000d1
:100560000000000061e2a8000200e000100032007c
:10057000344078000003eb000070a7000083eb001c
:10058000f007b2004300dd0080804100858040001c
:10059000114078000670a7000080ea006022ab00de
:1005a000feff3a0068e2b7000201e900eeff370003
:1005b0006022ab00feff3a006822ef003200f90033
:1005c0004f0378004f02be004f01be004f00be0037
:1005d000004006000168a900801f7800811f780094
:1005e000d3d7bf000080fb00c17a2100810040000a
:1005f0002202ae00060037003011800080487800eb
:10060000d037ec00d377ec00f0002000d377b600b1
:10061000cf0078004f007800004006000188a90054
:10062000801f7800811f7800cc17e2000a0032009a
:10063000ced7bf000080fb00c17b210081004000bd
:100640001140780024e2b700cc37ed00ce77ec0003
:10065000f0002000ce77b600cf0078004f00780081
:10066000004006001438ef0013aeae001418a800c6
:100670000268a9000040060003c8a900809fbe00d0
:10068000829fbe00b0118000417d2100b2bf80007a
:1006900081004100804878001200b000f201b200f1
:1006a000b2bf88004f01be004f00be0000400600f0
:1006b0000000fe000000fe000068a900809fbe0050
:1006c000829fbe002038ec002618e20003003200b2
:1006d0002638ed0001003a0013e1a9000a51e200ba
:1006e00003003a000b11af00762902000000000061
:1006f0004f01be004f00be00004006000000fe009b
:020000040000fa
:10070000000000002445000058490000540000008b
:10071000f21c000082830000a52800004c49000064
:1007200054290000fa1c00008c830000a628000059
:10073000434c00004954000029000000041d000043
:1007400096830000a828000042520000414e00009d
:100750004348000029000000101d0000a283000093
:10076000a928000054420000524100004e430000fe
:1007700048290000181d0000b0830000a9280000cf
:100780003f420000524100004e4300004829000053
:10079000261d0000be830000a4280000444f000076
:1007a00029000000341d0000cc830000a6280000b2
:1007b0004c4f00004f50000029000000461d000073
:1007c000d6830000a72800002b4c00004f4f0000ec
:1007d00050290000601d0000e283000083490000f2
:1007e000504000007e1d0000ee83000083490000a1
:1007f00050210000881d0000f68300008652000092
:10080000454200004f4f000054000000921d0000c0
:10081000fe83000087450000584500004355000056
:1008200054450000941d00000a8400008840000028
:1008300045580000454300005554000045000000a5
:100840009c1d00001684000081400000a21d0000d5
:10085000248400008243000040000000aa1d000024
:100860002a8400008232000040000000b41d000015
:100870003284000081210000c21d00003a84000083
:100880008243000021000000cc1d000040840000d5
:100890008232000021000000d81d000048840000c2
:1008a00081490000e61d000050840000814a0000dc
:1008b000f01d000056840000865500004e4c0000dc
:1008c0004f4f000050000000fa1d00005c84000043
:1008d0008344000055500000041e0000688400009e
:1008e0008432000044550000500000000c1e00003f
:1008f00070840000843f0000445500005000000058
:10090000181e00007a84000084440000524f00004a
:1009100050000000241e0000848400008532000086
:10092000445200004f5000002c1e00008e84000036
:10093000845300005741000050000000361e0000a4
:100940009884000085320000535700004150000099
:10095000421e0000a2840000835200004f54000099
:10096000561e0000ac840000842d0000524f000091
:1009700054000000681e0000b4840000844f000092
:100980005645000052000000781e0000be840000a2
:10099000853200004f56000045520000821e0000c4
:1009a000c8840000834e000049500000901e0000e3
:1009b000d2840000823e000052000000981e000019
:1009c000da840000825200003e000000a21e0000f7
:1009d000e28400008252000040000000ac1e0000d3
:1009e000ea8400008353000050400000b61e00005f
:1009f000f28400008353000050210000c21e00005a
:100a0000fa8400008352000050400000ca1e00001b
:100a1000028500008352000050210000d41e000017
:100a20000a85000084540000554300004b0000007c
:100a3000de1e0000128500008544000045500000c5
:100a400054480000ea1e00001c850000845000008d
:100a5000494300004b000000f81e000026850000fe
:100a6000853e000043530000544b0000061f000069
:100a70003085000085430000535400004b3e0000c9
:100a8000141f00003a85000083480000455800000c
:100a9000c81c00009283000010000000f6870000d0
:100aa0003c840000888300004485000087440000e7
:100ab00045430000494d0000414c0000c81c0000a7
:100ac000928300000a000000f68700003c840000ca
:100ad0008883000056850000812b0000221f000043
:100ae0006c850000812d00002a1f00007285000027
:100af000823100002b000000341f000078850000c8
:100b0000823200002b0000003c1f000080850000a6
:100b1000823100002d000000441f00008885000085
:100b2000823200002d0000004c1f00009085000064
:100b3000823200002a000000541f00009885000047
:100b4000823200002f0000005c1f0000a085000022
:100b5000864c000053480000494600005400000045
:100b6000641f0000a8850000865200005348000062
:100b70004946000054000000741f0000b4850000c6
:100b8000822b000021000000841f0000c0850000af
:100b9000824d00002b000000921f0000c88500005d
:100ba000812a0000a21f0000d0850000824d0000b5
:100bb0002a000000ac1f0000d6850000835500000d
:100bc0004d2a0000b81f0000de850000835500009c
:100bd000442a0000c81c00006c840000de84000071
:100be000e28500008a8400009e840000e684000004
:100bf000e2850000b08400006e850000888300005c
:100c0000e6850000812f0000c41f0000028600005e
:100c1000822a00002f000000d21f0000088600007a
:100c2000852a00002f4d00004f440000e41f000003
:100c300010860000842f00004d4f0000440000008b
:100c4000f81f00001a860000865500004d2f000096
:100c50004d4f0000440000000820000024860000e2
:100c6000834d0000415800001a200000308600002b
:100c7000834d0000494e0000282000003886000007
:100c80008657000049540000484900004e0000000b
:100c900036200000408600008445000056450000d4
:100ca0004e0000004e2000004c860000834f0000e4
:100cb000444400005c200000568600008341000090
:100cc000425300006a2000005e860000834100005d
:100cd0004e4400007420000066860000824f000031
:100ce000520000007c2000006e8600008358000047
:100cf0004f520000842000007686000086490000e4
:100d00004e56000045520000540000008c200000a8
:100d10007e86000087440000494e000056450000d2
:100d200052540000942000008a860000864e000085
:100d30004547000041540000450000009e2000008f
:100d400096860000874400004e45000047410000a1
:100d500054450000a6200000a2860000823000005a
:100d60003d000000b6200000ae860000823000008a
:100d70003c000000c0200000b68600008230000069
:100d80003e000000cc200000be860000813d000037
:100d9000d6200000c6860000823c00003e00000015
:100da000e6200000cc860000813c0000f620000018
:100db000d4860000813e000006210000da86000093
:100dc000825500003c00000016210000e086000073
:100dd000825500003e00000026210000e886000049
:100de00084430000454c00004c0000003621000008
:100df000f086000085430000454c00004c2b0000ad
:100e000040210000fa86000085430000454c0000a8
:100e10004c53000048210000048700008541000079
:100e20004c490000474e0000c81c000046870000e7
:100e30006c84000092830000010000006a860000bc
:100e40006e850000ea8700003c8400008883000073
:100e50000e870000874100004c490000474e00000b
:100e600045440000522100002a870000853e000012
:100e700043480000415200005c210000368700001a
:100e8000844800004552000045000000c81c0000d6
:100e9000ea87000026840000888300004087000065
:100ea000844d00004f560000450000006a210000fc
:100eb00050870000854300004d4f0000564500005c
:100ec000862100005a87000084530000434100003f
:100ed0004e000000a221000064870000844600004c
:100ee000494c00004c000000be2100006e8700004d
:100ef00085430000464900004c4c0000d42100000e
:100f000078870000892d00005452000041490000fc
:100f10004c4900004e470000ea2100008287000093
:100f200085500000414300004b240000c81c000015
:100f3000328700006c840000de840000c48400005e
:100f40006c84000092830000000000009283000087
:100f5000020000002c8600008a84000074850000d6
:100f6000c48400006e850000928300000000000031
:100f70009e8400003c8400007684000044840000cd
:100f800092830000010000006e8500009e84000036
:100f900060870000e68400008883000090870000de
:100fa000855300005441000054450000d21c00004d
:100fb0000c000000d0870000834400005030000087
:100fc000d21c000008000000dc8700008244000002
:100fd00050000000d21c00000a000000e68700005c
:100fe000844200004153000045000000d21c000074
:100ff0000e000000f08700008953000059530000e4
:101000004c4100005445000053540000d21c000025
:1010100018000000fc870000864c000041540000ce
:101020004553000054000000d21c00001a000000cc
:101030000c8800008252000030000000d21c00002a
:10104000140000001a8800008253000030000000e5
:10105000d21c000012000000248800008350000011
:1010600041440000d21c0000020000002e88000055
:101070008354000049420000d21c00000000000020
:1010800038880000833e0000494e0000d21c00005a
:10109000100000004288000082480000500000005c
:1010a000d21c0000160000004c88000086270000bb
:1010b000534f00005552000043450000d21c000071
:1010c000040000005688000087230000534f0000f2
:1010d0005552000043450000d21c000006000000ed
:1010e0006488000087560000455200005349000004
:1010f0004f4e00000022000072880000865200005f
:10110000414d0000454e0000440000000a2200004e
:101110007e880000854900004d4d000045440000d8
:10112000142200008a88000086480000494400001c
:10113000444500004e0000001e220000948800007c
:10114000874c0000454e00004d410000534b00000d
:1011500028220000a0880000824200004c0000000d
:1011600032220000ac880000875400004942000091
:10117000534900005a4500003c220000b48800009a
:101180008750000041440000534900005a450000c8
:1011900046220000c0880000865500004c4900002f
:1011a0004d4900005400000050220000cc8800008f
:1011b000854400004f4300004f4c00005a220000bd
:1011c000d888000086270000534f000055520000c9
:1011d0004345000064220000e288000087530000bd
:1011e0004f550000524300004521000072220000cc
:1011f000ee88000086440000494700004954000082
:101200003f000000c81c00006c84000092830000b6
:1012100060000000ec860000c883000008000000a9
:101220009283000020000000748500006c840000a0
:101230009283000039000000ec860000c8830000a3
:101240001a0000006c84000092830000410000003e
:10125000e4860000c88300000800000092830000bc
:101260000000000088830000928300000700000057
:101270007485000092830000300000007485000037
:101280006c840000f687000026840000e4860000dd
:1012900088830000fa880000873e00004e55000059
:1012a0004d42000045520000c81c00006c84000044
:1012b000c88300002c000000c48400002e840000bd
:1012c00002890000b2860000c8830000060000000a
:1012d0008a84000088830000de840000a884000067
:1012e000f687000026840000ea850000e6840000fe
:1012f000cc850000a884000092830000010000005b
:10130000688b0000ac830000d2ff000088830000df
:101310004c890000853f000053490000474e000003
:10132000c81c0000c48400002e8400009e830000be
:101330002d000000c8860000ba8300000a000000eb
:101340009283000000000000ac8300000c0000004d
:101350009283000001000000688b0000928300006f
:1013600001000000888300008a890000853f00009a
:101370004241000053450000c81c0000c484000026
:101380002e8400009e83000024000000c886000018
:10139000c88300000e0000009283000010000000cf
:1013a000f68700003c840000ac830000320000009f
:1013b000c48400002e8400009e83000023000000ef
:1013c000c8860000c88300000e0000009283000061
:1013d0000a000000f68700003c840000ac83000097
:1013e00018000000c48400002e8400009e830000ca
:1013f00025000000c8860000c8830000120000001d
:101400009283000002000000f68700003c84000088
:101410009e8400007c8500009e8400008c85000076
:1014200088830000b6890000873f0000444f000019
:10143000554200004c450000c81c0000c484000058
:101440002e840000928300002e000000c886000059
:10145000c88300001000000092830000010000001b
:10146000688b000092830000ffff0000ac83000047
:1014700018000000c48400002e8400009283000045
:101480002c000000c8860000c88300000600000091
:10149000ac830000e2ff0000928300000000000027
:1014a00088830000148a0000873f00004e5500002a
:1014b0004d42000045520000c81c0000f6870000a5
:1014c00026840000de8400006c840000928300000b
:1014d000000000006c840000b0840000508c00000c
:1014e000bc89000090890000de840000548900005f
:1014f00080840000c8830000260000001c8a0000d1
:10150000c883000010000000e68400009283000001
:101510000200000072860000de840000ac83000040
:10152000e6ff00009484000094840000e68400003c
:101530008a8400009283000000000000ac83000059
:10154000240000008a840000b08400008a84000027
:10155000ee8400005a860000c883000004000000ea
:10156000aa860000e68400009283000002000000ca
:101570006a860000ba830000040000008a8400002c
:1015800092830000ffff0000e6840000f687000061
:101590003c84000088830000548a000085570000c6
:1015a0004f52000044530000c81c00007c9500000e
:1015b00014880000268400006c840000b2860000bd
:1015c000ba830000400000006c8400002e840000fc
:1015d0009c8800006a860000c883000008000000a4
:1015e00094850000ac830000e6ff00006c840000de
:1015f0006c8400002e840000a88800006a86000029
:101600006c8400001a9500006e8500009283000033
:1016100040000000e4860000ba83000004000000df
:101620007c950000de8400007c850000e6840000dc
:10163000c49500008695000094850000ac830000ee
:10164000baff00008a8400007c95000088830000b7
:10165000ce8a000085550000505000004552000021
:10166000802200002a8b0000845300004b490000b8
:1016700050000000a2220000348b000087410000cf
:10168000445200003e4900004e000000c81c00000b
:10169000ea880000b0840000b08400007485000077
:1016a0003c860000928300000000000034860000a9
:1016b000468800003c840000888300003e8b0000c8
:1016c000872f000053540000524900004e4700008d
:1016d000c81c0000b0840000c48400006e850000b7
:1016e000b0840000b084000074850000888300008e
:1016f000608b0000855000004152000053450000ff
:10170000c81c0000ea88000046880000268400000b
:10171000688b0000c4840000de840000b0840000f8
:101720006a870000c48400009e840000c883000013
:10173000040000007c850000468b0000e684000069
:101740001885000074850000888300007a8b0000f3
:10175000845700004f52000044000000c81c0000e5
:101760006c840000ea88000046880000268400009f
:10177000688b0000b08400003a8b00008a8400006f
:10178000468b0000808b000046870000948c000090
:101790004687000088830000a88b00008446000074
:1017a000494e000044000000be220000ce8b000025
:1017b00086410000434300004550000054000000f3
:1017c000c81c0000c48400006e850000de84000098
:1017d0006c840000309800006c840000928300004c
:1017e0000d000000c8860000c8830000160000003d
:1017f0008a840000b0880000c48400004484000093
:101800009e840000748500007c850000e684000052
:101810008a840000888300006c84000092830000aa
:1018200008000000c8860000c88300001400000003
:101830008a84000076840000c8860000ba83000015
:10184000caff0000109600008c850000ac830000e9
:10185000c2ff0000c4840000ee840000c8860000bf
:10186000ba830000100000006c8400007495000032
:10187000c4840000448400007c850000ac83000028
:10188000aaff00008a840000ac830000a4ff0000cf
:10189000d88b0000854300004f5500004e540000d7
:1018a000c81c00006c8400002e840000de84000050
:1018b0007c850000e6840000888300004a8c0000dc
:1018c00085450000525200004f520000c81c000025
:1018d00086950000508c0000c4950000869500009d
:1018e0009e8300003f00000074950000928300007a
:1018f00000000000d68700003c840000288800001b
:1019000026840000fe8400007c950000f08d00001d
:10191000608c0000883e0000434f0000554e0000e0
:101920005445000044000000c81c000076840000fc
:10193000448400007c8500009e84000060870000d5
:10194000888300008a8c0000812c0000c81c0000e5
:10195000468700003c8400009283000002000000e3
:10196000828f000088830000a48c00008243000066
:101970002c000000c81c00004687000044840000c2
:101980009283000001000000828f00008883000025
:10199000b68c0000894900004e54000045520000fa
:1019a0005052000045540000c81c0000f68800009a
:1019b0009283000000000000468800003c84000084
:1019c000b0880000ae8b00006c8400002e84000004
:1019d000c88300003e000000d48b0000808400001b
:1019e000c88300001c0000007c850000d687000032
:1019f00026840000b286000072860000c8830000c2
:101a00000800000012840000ac830000daff000030
:101a1000a68c0000ac830000d4ff00005c8a0000ac
:101a2000c883000008000000fe900000ac830000a6
:101a3000c8ff0000508c0000c49500009283000095
:101a40003f000000749500007c9500008a8d000026
:101a50008a84000088830000ca8c0000884500004a
:101a6000564100004c550000415400004500000064
:101a7000c81c0000ea880000de840000de8400004c
:101a80004688000026840000de840000d48c00001c
:101a9000e6840000468800003c840000e6840000e4
:101aa000e6840000f6880000888300002e8d000088
:101ab000824f00004b000000c81c00001a95000077
:101ac00092830000030000006e85000092830000f6
:101ad00040000000d6860000ba8300000400000029
:101ae0007c95000086950000928300004f00000066
:101af00074950000928300004b0000007495000074
:101b000088830000588d000085410000424f00008e
:101b100052540000c81c0000d68700002684000034
:101b2000c883000014000000148800002684000010
:101b3000488e00006c840000268400001488000099
:101b40003c840000ea8700003c84000028880000f4
:101b500026840000fe840000f08d0000848d0000cb
:101b600086410000424f0000525400002200000055
:101b7000c81c0000c88300001c000000468700004d
:101b8000508c0000c495000086950000ee84000093
:101b90006c8400002e8400009e8400007c85000080
:101ba0009e840000c49500007c9500008a8d000092
:101bb000e68400006c8400002e8400006e85000026
:101bc0007c85000032870000de84000088830000ee
:101bd000b08d000084510000554900005400000001
:101be000c81c00001e880000268400000e8500002e
:101bf0009283000000000000d68700003c840000b3
:101c00003c880000268400006c8400009283000061
:101c10003f000000e08b000086950000d48c00009f
:101c2000d687000026840000ba830000040000006c
:101c30005c8d00007c950000ac830000e2ff00009a
:101c4000ea8d0000c1280000c81c0000928300003b
:101c500029000000808b000094840000888300002d
:101c6000228e0000c15c0000c81c0000ea88000051
:101c70006e850000468b000088830000328e0000d5
:101c8000874e0000464100003e4c000046410000e7
:101c9000c81c000092830000020000007485000050
:101ca00088830000408e0000874e000046410000ff
:101cb0003e43000046410000c81c00006c84000048
:101cc0002e840000928300001f0000006a8600003e
:101cd0006e8500007c85000032870000888300004c
:101ce000548e0000853e0000424f00004459000021
:101cf000c81c00000087000088830000728e00006e
:101d000087430000464100003e4e0000464100006f
:101d1000c81c00006c8400009283000000190000c1
:101d2000e4860000c88300000a0000006c84000004
:101d30007a860000ac8300005a0000006c8400002a
:101d4000de8400009283000021000000de84000099
:101d50008c8500006c8400002e8400006c840000e0
:101d600092830000800000006a860000ba830000b1
:101d7000140000008a840000e68400008c850000c6
:101d80006c840000c88300002a000000de8400008c
:101d9000ac830000deff0000e68400008a840000bf
:101da000928300001f0000006a860000c4840000c7
:101db0006e8500007c85000032870000e68400000c
:101dc000c88600006c840000c88300000c0000007e
:101dd0008a840000ac8300000a000000e684000052
:101de0008a8400009e8400008a84000088830000aa
:101df000808e0000854500004d50000054590000c1
:101e0000c81c0000e0870000268400004687000010
:101e1000c886000088830000fa8e0000894900000f
:101e20004d4d00004544000049410000544500006c
:101e3000c81c0000008f0000ba83000012000000e0
:101e400014880000268400006c8400002e840000aa
:101e500090880000728600009e8400004484000088
:101e6000888300000e8f0000844800004944000071
:101e700045000000c81c0000008f0000ba8300006d
:101e80001200000014880000268400006c8400000a
:101e90002e8400009c880000728600009e84000052
:101ea0004484000088830000348f000086520000c4
:101eb00045560000454100004c000000c81c0000d1
:101ec000008f0000ba830000140000001488000096
:101ed000268400006c8400002e8400009c88000092
:101ee000868600006a8600009e840000448400000c
:101ef00088830000568f0000854100004c4c000094
:101f00004f540000c81c0000ea870000c485000090
:101f1000888300007c8f000081270000c81c00001f
:101f2000b0880000ae8b00006c8400002e8400009e
:101f3000c88300000c000000d48b0000c8830000a0
:101f400020000000ac8300002c0000008a84000008
:101f5000409100001028000027290000206e00009a
:101f6000616d0000652000006d6900007373000062
:101f7000696e0000670000007c9500008a8d0000fb
:101f8000508c0000c49500008695000092830000ec
:101f90003f000000749500007c9500008a8d0000d1
:101fa000888300008c8f0000c95b0000434f000055
:101fb0004d500000494c0000455d0000c81c000069
:101fc0008e8f0000a68c000088830000d48f000054
:101fd000c84300004f4d0000504900004c45000030
:101fe0003f000000c81c0000d687000026840000c7
:101ff000b2860000b88d0000116300006f6d000014
:10200000706900006c650000206f00006e6c0000bd
:1020100079200000776f0000726400008883000060
:10202000e88f0000c53c00004d410000524b00000d
:10203000c81c0000f28f0000468700008883000063
:1020400012900000c83c000052450000534f0000b1
:102050004c56000045000000c81c0000f28f000034
:102060004687000074850000a68c0000888300006d
:1020700022900000c53e00004d410000524b000080
:10208000c81c0000f28f0000468700009283000009
:1020900000000000a68c0000888300003a90000039
:1020a000c83e000052450000534f00004c5600004f
:1020b00045000000c81c0000f28f00006c84000086
:1020c000468700009e840000748500009e84000006
:1020d0003c8400008883000050900000c15b000039
:1020e000c81c00009283000000000000d68700009a
:1020f0003c840000888300006e900000c15d0000f9
:10210000c81c000092830000ffff0000d68700007b
:102110003c840000888300007e900000c95b0000c2
:10212000434f00004d500000494c0000455d000049
:10213000c81c0000f28f00008e8f0000a68c0000eb
:10214000888300008e900000c74300004f4d0000c0
:10215000504900004c450000c81c0000e684000007
:102160006c84000026840000a68c0000008700001c
:10217000de84000088830000a4900000c8500000a6
:102180004f530000545000004f4e00004500000027
:10219000c81c0000b0880000ae8b0000d48b00008b
:1021a0006c840000b2860000c88300000e000000ae
:1021b0008a840000508c0000c495000092830000c7
:1021c0003f0000008a8d0000c28600000c00000065
:1021d00092830000a68c0000ac900000ac8300004d
:1021e0000200000088830000be900000c74c000081
:1021f0004954000045520000414c0000c81c00003a
:10220000d687000026840000c88300000800000074
:10221000ac90000092830000a68c00008883000030
:10222000f6900000834400004f240000c81c00000a
:10223000e6840000ee840000e6840000508c00007c
:102240006e85000032870000de8400009e8400005e
:10225000de8400008883000012910000c324000087
:10226000227c0000c81c000016910000508c000069
:10227000888300002e910000c32e0000227c000005
:10228000c81c000016910000508c0000c49500008e
:10229000888300003c910000c32400002c22000031
:1022a000c81c00009283000022000000ae8b0000da
:1022b000508c00006e85000032870000ea87000025
:1022c0003c840000888300004c910000c253000051
:1022d00022000000c81c0000f28f0000ac9000003b
:1022e0003291000050910000888300006691000048
:1022f000c22e000022000000c81c0000f28f000067
:10230000ac900000409100005091000088830000d4
:1023100078910000c752000045430000555200006c
:1023200053450000c81c00001488000026840000eb
:102330005c8e0000a68c0000888300008a9100005b
:10234000c24400004f000000c81c0000f28f0000d3
:10235000ac900000d2830000468700003685000064
:102360009283000000000000368500008883000092
:10237000a0910000c54c00004541000056450000fa
:10238000c81c0000f28f0000ac90000064840000c4
:10239000ac900000ac830000409000003685000047
:1023a00088830000ba910000e74600004958000009
:1023b0004c4f00004f500000c81c0000408500003a
:1023c00080840000c8830000140000006c840000ba
:1023d00046870000008700009e840000748500008e
:1023e0009e8400003c840000ac830000e8ff0000f5
:1023f000408500002c90000088830000d4910000ec
:10240000c44c00004f4f000050000000c81c0000ea
:10241000f28f0000ac900000de830000dc91000031
:102420008883000000920000c52b00004c4f000084
:102430004f500000c81c0000f28f0000ac9000005c
:10244000ea830000dc910000888300001492000001
:10245000c542000045470000494e0000c81c00006e
:10246000f28f00001890000088830000289200007e
:10247000c541000047410000494e0000c81c000053
:10248000f28f0000ac900000ac8300002c900000a4
:102490008883000038920000c55500004e540000ab
:1024a000494c0000c81c0000f28f0000ac900000f6
:1024b000c88300002c900000888300004c9200002c
:1024c000c249000046000000c81c0000f28f000056
:1024d000ac900000c883000040900000888300009a
:1024e00060920000c4540000484500004e00000007
:1024f000c81c0000f28f00005a9000008883000082
:1025000072920000c44500004c53000045000000da
:10251000c81c0000f28f0000ac900000ac830000eb
:10252000409000009e8400007892000088830000a4
:1025300082920000c5570000484900004c45000049
:10254000c81c0000f28f0000ac900000c88300009f
:10255000409000009e840000888300009a92000052
:10256000c6520000455000004541000054000000e4
:10257000c81c0000f28f0000ac900000ac8300008b
:102580002c9000005a90000088830000b092000058
:10259000c44300004153000045000000c81c000077
:1025a000f28f00009283000000000000888300008a
:1025b000c8920000c24f000046000000c81c000086
:1025c000f28f0000ac900000c4840000ac900000ca
:1025d000c8860000ac900000c88300004090000056
:1025e00088830000da920000c54500004e440000d8
:1025f0004f460000c81c0000f28f0000ac900000a5
:10260000ac830000409000009e8400005a900000bf
:1026100088830000f4920000c74500004e4400008b
:102620004341000053450000c81c0000f28f000029
:1026300080840000c8830000080000005a90000059
:10264000ac830000f6ff0000ac9000008a8400001c
:10265000888300000c930000c52c00004558000042
:1026600049540000c81c0000ac90000088830000a2
:10267000888300002c930000864300005245000030
:102680004154000045000000c81c000014880000f0
:102690006c84000026840000a68c000046870000a1
:1026a0009e8400003c840000b0880000ae8b0000d7
:1026b0002e8400006c840000b2860000b88d0000fb
:1026c0000c6d000069730000736900006e67000004
:1026d000206e0000616d0000650000007c85000038
:1026e000828f0000148700003a8f0000888300006a
:1026f0003c930000813a0000c81c00004493000095
:1027000080900000ac900000c81c0000888300008e
:102710007a930000873c000042550000494c0000bd
:1027200044530000c81c00007c930000ac900000e3
:10273000a29300004687000000870000a68c0000de
:1027400088830000042300008a930000872800008b
:10275000444f0000455300003e290000c81c000003
:10276000e68400006c84000000870000de84000026
:102770002684000014880000268400005c8e00007f
:1027800092830000040000006e8500003c8400007d
:1027900088830000a6930000c54400004f45000058
:1027a000533e0000c81c0000ac900000ae93000037
:1027b000468700009283000002000000828f000024
:1027c000ac90000030940000468700009e8400001a
:1027d0003c84000088830000cc93000088560000f1
:1027e0004152000049410000424c000045000000f9
:1027f000c81c0000449300008090000092830000f9
:10280000de1c0000a68c0000928300000000000087
:10281000a68c00003094000088830000ee93000036
:10282000884300004f4e000053540000414e00000a
:1028300054000000c81c0000449300008090000079
:1028400092830000e81c0000a68c0000a68c00000b
:10285000309400008883000010940000c13b000009
:10286000c81c0000f28f0000ac90000088830000bc
:102870005e8f000070900000888300002e9400009e
:10288000874900004e4600004c4f00004f500000aa
:102890001223000040940000822e0000530000002c
:1028a000c81c0000228500009e8300003c00000040
:1028b000749500006c840000429700009e83000025
:1028c0003e000000749500008695000080840000a2
:1028d000c88300000e0000006c8400002c850000fe
:1028e000429700008c850000ac830000f0ff0000e0
:1028f000888300004c940000854800004455000087
:102900004d500000c81c000080840000ba83000005
:102910000400000088830000f68700002684000081
:10292000de840000488500009e8400009283000041
:10293000feff00006a8600009e8400009283000073
:1029400000000000d2830000528400009283000047
:10295000070000006a860000ba8300000e00000035
:102960007c9500006c84000092830000050000004c
:1029700014970000869500006c84000026840000f7
:10298000928300000500000014970000928300006d
:10299000020000006e850000de830000d6ff00000c
:1029a0008a840000e6840000f68700003c84000072
:1029b00088830000142300007c94000085560000ea
:1029c000494400004f4e000078230000de940000d0
:1029d0008743000055520000454e0000424c000065
:1029e00084230000e8940000834300004c5300005f
:1029f000a0230000f494000086530000435200001e
:102a00004c55000050000000b6230000fc9400006c
:102a100086530000435200004c4400004e0000006a
:102a2000c0230000089500008447000045540000c2
:102a300058000000ca2300001495000084470000dd
:102a40004554000059000000d82300001e950000e6
:102a5000845300004554000058000000e6230000a5
:102a600028950000845300004554000059000000e0
:102a700004240000329500008643000055520000f7
:102a8000504f000053000000c81c00002e950000ad
:102a900038950000888300003c950000844c0000bd
:102aa0004546000054000000222400004e9500001e
:102ab00085520000494700004854000048240000a7
:102ac0005895000087540000474c00004348000020
:102ad000415200007224000062950000844500000d
:102ae0004d49000054000000882400006e9500004d
:102af0008243000052000000a824000078950000e6
:102b0000855300005041000043450000ba240000f6
:102b100080950000865300005041000043450000ae
:102b200053000000c81c00006c8400009283000069
:102b300000000000dc860000ba83000006000000f0
:102b40008a84000088830000928300000000000057
:102b5000d283000086950000de830000fcff0000a9
:102b6000888300008a950000854300004c520000d5
:102b70004c4e0000c0240000b495000084540000b6
:102b80005950000045000000c81c00006c84000083
:102b9000ba830000060000009484000088830000cf
:102ba0009283000000000000d28300006c840000cb
:102bb0002e84000080840000c88300000e00000006
:102bc000749500007c850000de830000f0ff0000ab
:102bd000ac83000004000000648400008a840000cc
:102be00088830000be95000086440000454c00002c
:102bf0004554000045000000c81c0000b0880000db
:102c00007495000088830000f4950000884200005d
:102c1000414300004b4300004841000052000000c7
:102c2000c81c000054950000fc950000549500005d
:102c30008883000006960000854400004947000094
:102c400049540000c81c00009283000009000000e5
:102c5000c4840000d68600009283000007000000b4
:102c60006a8600006e85000092830000300000003c
:102c70006e850000888300001c96000087450000d8
:102c8000585400005241000043540000c81c00008a
:102c900092830000000000009e8400002c8600004b
:102ca0009e84000022960000888300003e9600006b
:102cb000823c000023000000c81c00003288000095
:102cc00026840000c88800006e850000508800003f
:102cd0003c8400008883000058960000844800006f
:102ce0004f4c000044000000c81c0000928300000c
:102cf000ffff000050880000c485000050880000dd
:102d00002684000044840000888300006e96000042
:102d100081230000c81c0000f68700002684000004
:102d20004696000074960000888300008896000094
:102d30008223000053000000c81c00008a96000097
:102d40006c840000ba830000faff00008883000052
:102d50009896000084530000494700004e00000090
:102d6000c81c0000ba860000c883000008000000ec
:102d70009e8300002d0000007496000088830000f0
:102d8000aa960000822300003e000000c81c00003c
:102d90008a840000508800002684000032880000e9
:102da00026840000c88800006e850000c4840000ee
:102db0007485000088830000c296000083530000e1
:102dc00054520000c81c00006c840000de84000027
:102dd000628600005c9600009c960000e68400007d
:102de000b0960000c696000088830000de960000c2
:102df000822e000052000000c81c0000de8400008b
:102e0000e2960000e6840000c4840000748500009f
:102e100092950000c495000088830000f896000099
:102e2000835500002e520000c81c0000de84000004
:102e30005c9600009c960000c6960000e6840000a8
:102e4000c48400007485000092950000c4950000c1
:102e50008883000010970000825500002e000000bb
:102e6000c81c00005c9600009c960000c6960000fe
:102e700086950000c4950000888300002c97000010
:102e8000812e0000c81c0000f68700002684000088
:102e9000928300000a0000007a860000ba830000d6
:102ea000e2ff000086950000e2960000c495000055
:102eb0008883000040970000813f0000c81c00008c
:102ec00092830000feff00006a8600002684000056
:102ed00042970000888300005c9700008243000056
:102ee0003f000000c81c00002e8400004297000034
:102ef000888300006e970000854300004841000071
:102f000052530000c81c00009e8400009283000001
:102f100000000000d28300006c8400007495000063
:102f2000de830000faff00008a840000888300002e
:102f3000e82400007c970000844200004155000016
:102f400044000000222500009c97000085530000eb
:102f5000454d00004954000042250000a69700009e
:102f60008453000047450000540000007025000015
:102f700090250000b0970000845400004f4e0000e0
:102f800045000000ac250000c2250000bc970000f1
:102f90008753000044430000494e0000495400009c
:102fa000ea260000c8970000865200005354000033
:102fb0004f5200004500000012270000d497000087
:102fc000855200004c4f000041440000442700009f
:102fd000e097000086450000535400004f52000067
:102fe0004500000076270000ea97000085450000b4
:102ff0004c4f000041440000be270000f6270000af
:103000002628000040280000f697000086470000b0
:10301000455400004b450000590000005a280000ac
:1030200006980000843f00004b4500005900000056
:10303000c81c00000e980000029800006c8400007c
:10304000c88300000600000092830000ffff00001c
:103050008883000012980000834b0000455900004f
:10306000c81c00001898000080840000c88300007d
:10307000faff00008a840000888300002c9800007a
:10308000844e0000554600003f000000c81c0000b0
:10309000189800006c840000c88300000c00000039
:1030a0009484000030980000928300000d0000001e
:1030b000c886000088830000c81c000076980000c5
:1030c0007898000074980000da940000fe970000e1
:1030d00098970000c4970000b89700007a98000005
:1030e00000980000888300007c28000098280000d9
:1030f000a8280000b4280000bc2800004098000068
:1031000085540000494300004b530000f0280000a4
:1031100080980000845500005345000043000000e3
:10312000fa2800008a980000844d000053450000f2
:10313000430000000c29000094980000844c00001b
:1031400046530000520000001c2900009e98000019
:1031500084520000414e0000440000003429000069
:10316000a898000085530000524100004e44000022
:0431700066290000cc
:020000040000fa
:10317400000000000000000000000000000000004b
:1031840000000000000f000008080000080800000c
:1031940008080000080f0000000000000000000004
:1031a4000000000000f80000080800000808000003
:1031b4000808000008f800000000000000000000fb
:1031c40008080000080800000808000008080000bb
:1031d4000000000000ff00000000000000000000ec
:1031e4000808000008ff00000808000008080000a4
:1031f40000000000000000000000000000000000cb
:1032040000000000000000000000000000000000ba
:1032140000000000000000000000000000000000aa
:103224000000000000ff000008080000080800007b
:103234000808000008ff0000000000000000000073
:10324400000000000000000000000000000000007a
:1032540008080000080f0000080800000808000023
:103264000808000008f8000008080000080800002a
:1032740080c00000e0f00000e0c00000800000001a
:1032840001030000070f0000070300000100000015
:10329400000000000000000000000000000000002a
:1032a400000000000000000000000000000000001a
:1032b400000000000000000000000000000000000a
:1032c40000000000000000000000000000000000fa
:1032d40000000000000000000000000000fe0000ec
:1032e400103800007c1000001010000000fe0000e8
:1032f40020700000a8200000202000000000000032
:103304000020000020200000a87000002000000021
:103314004020000010f800001020000040000000d1
:103324001020000040f800004020000010000000c1
:10333400000000000080000080800000fe0000000b
:103344000000000044fe00004400000000000000f3
:1033540000000000103800007cfe000000000000a7
:1033640000000000fe7c0000381000000000000097
:103374000000000000000000000000000000000049
:103384002020000020200000200000002000000079
:103394005050000050000000000000000000000039
:1033a40050500000f8500000f85000005000000099
:1033b40020780000a070000028f000002000000029
:1033c400c0c8000010200000409800001800000051
:1033d40060900000a0400000a89000006800000079
:1033e4006020000040000000000000000000000019
:1033f40010200000404000004020000010000000a9
:1034040040200000101000001020000040000000c8
:1034140000200000a8700000a820000000000000a8
:103424000020000020f80000202000000000000020
:1034340000000000000000006020000040000000c8
:103444000000000000f00000000000000000000088
:1034540000000000000000000060000060000000a8
:103464000008000010200000408000000000000060
:103474007088000098a80000c88800007000000050
:10348400206000002020000020200000f800000040
:10349400708800001020000040800000f800000048
:1034a400f008000008f0000008080000f000000028
:1034b4001030000050900000f810000010000000d0
:1034c400f880000080f0000008080000f000000010
:1034d4003040000080f00000888800007000000088
:1034e400f8080000102000004040000040000000e8
:1034f4007088000088700000888800007000000058
:103504007088000088700000080800007000000047
:103514000060000060000000606000000000000027
:103524000060000060000000602000004000000017
:103534001020000040800000402000001000000027
:1035440000000000f8000000f80000000000000087
:10355400402000001008000010200000400000007f
:103564007088000008100000200000002000000007
:103574007088000008680000a8a80000700000001f
:103584007088000088f80000888800008800000027
:10359400f088000088f0000088880000f000000037
:1035a40078800000808000008080000078000000a7
:1035b400f08800008888000088880000f00000007f
:1035c400f880000080f8000080800000f80000000f
:1035d400f880000080f80000808000008000000077
:1035e4007880000080b0000088880000700000002f
:1035f4008888000088f8000088880000880000009f
:103604007020000020200000202000007000000036
:10361400780800000808000008900000600000001e
:1036240088900000a0c00000a09000008800000066
:10363400808000008080000080800000f80000008e
:1036440088d80000a888000088880000880000004e
:1036540088880000c8a8000098880000880000003e
:1036640070880000888800008888000070000000ce
:10367400f088000088f000008080000080000000d6
:103684007088000088880000a89800007800000076
:10369400f088000088f00000a0900000880000007e
:1036a400788000008070000008080000f00000002e
:1036b400f82000002020000020200000200000004e
:1036c4008888000088880000888800007000000056
:1036d40088880000888800008850000020000000ce
:1036e4008888000088a80000a8d80000880000008e
:1036f40088880000502000005088000088000000e6
:10370400888800008850000020200000200000006d
:10371400f81000002040000080800000f800000045
:103724006040000040400000404000006000000095
:10373400008000004020000010080000000000008d
:10374400180800000808000008080000180000001d
:10375400205000008800000000000000000000006d
:1037640000000000000000000000000000f800005d
:1037740040200000100000000000000000000000d5
:103784000000000070080000788800007800000045
:103794008080000080b00000c8880000f0000000b5
:1037a40000000000708000008088000070000000ad
:1037b40008080000086800009888000078000000ed
:1037c4000000000070880000f88000007000000015
:1037d4003048000040e0000040400000400000008d
:1037e400000000007888000088780000087000005d
:1037f40080800000b0c800008888000088000000b5
:103804000020000000200000202000002000000014
:103814001000000030100000109000006000000054
:103824008080000090a00000c0a000009000000074
:103834006020000020200000202000007000000014
:1038440000000000d0a80000a88800008800000044
:1038540000000000b0c80000888800008800000054
:1038640000000000708800008888000070000000dc
:1038740000000000f088000088f000008080000054
:10388400000000006890000090b000005018000094
:1038940000000000b0c8000080800000800000002c
:1038a400000000007080000070080000f0000000bc
:1038b40040400000e04000004048000030000000ac
:1038c400000000008888000088980000680000005c
:1038d40000000000888800008850000020000000dc
:1038e4000000000088880000a8a800005000000024
:1038f40000000000885000002050000088000000f4
:10390400000000008888000088780000087000002b
:1039140000000000f810000020400000f800000043
:1039240020400000408000004040000020000000d3
:1039340020200000202000002020000020000000a3
:103944004020000020100000202000004000000063
:103954000000000040a8000010000000000000006b
:10396400fcfc0000fcfc0000fcfc0000fcfc000073
:020000040000fa
:103974000c4600006f720000746800004578000077
:0c39840020560000302e00003100000032
:020000040000fa
:103990008a1f78000c0578003a0678003c00780011
:1039a000000401000d2f78003c0078008b064000d9
:1039b0003a0678003c007800000401000d2f7800e2
:1039c0008c0678003a0678003c007800000401007c
:1039d0000d2f78009c0678003a0678003c007800ad
:1039e000000401004f0578003a0678003c0078009a
:1039f000000401000d2f7800ba0678003a0678001e
:103a00003c007800000401000d2f7800ba06780011
:103a10008d86fb003a0678003c0078000004010027
:103a20001a0545003a0678003c00780000040100c1
:103a30000d00e000ae067800f9ff3a000a85e800c4
:103a40003a0678003c007800000401000d00e00018
:103a5000ae067800f2ff32000a85e8003a067800e8
:103a60003c00780000040100881f7800891f78005e
:103a70008d047800ae0678000d047800ae0678005c
:103a80003a0678003c007800000401008904e80050
:103a90000848e100040032001a0545003a067800a3
:103aa0003c007800000401000a85e800cf0478009b
:103ab0004f0478003a0678003c00780000040100ca
:103ac000090078008d844400ae0678000800e1000b
:103ad000040035000800e9000048e100f2ff34006e
:103ae000020037000848e100efff3d001a054500dd
:103af0003a0678003c007800000401000d2f7800a1
:103b00008a0678003a0678003c007800000401003c
:103b10000d057800ae0678003a0678003c00780083
:103b2000000401000000fe000d067800ae067800db
:103b30003c007800000401001d007800ae0678000b
:103b4000000401009d0678003a0678003c007800e9
:103b5000000401009d4678008d86fb003a0678003f
:103b60003c007800000401001d0078002d00b0002a
:103b70009d067800002f78003a0678003c00780017
:103b800000040100ae0e7800ae0678003a06780018
:103b90003c007800000401002e007800804e780080
:103ba000ae0678003a0678003c0078000004010078
:103bb000ae0e78002d00b000ae0e7800ae06780094
:103bc0003a0678003c007800000401000d2f7800d0
:103bd000890678003a0678003c007800000401006d
:103be0000d2f7800ffbe97003a0678003c00780061
:103bf00000040100cf0478004f0478003a067800f2
:103c00003c007800000401000d2f78003a0678008f
:103c10003c007800000401001e0078000d2f7800a1
:103c2000002f78003a0678003c007800000401007c
:103c30000d00e000010032000d2f78003a067800f8
:103c40003c00780000040100ae0678003a067800d7
:103c50003c00780000040100ae067800ae06780053
:103c60003a0678003c007800000401000d0078005e
:103c70009e067800000f78003a0678003c00780035
:103c8000000401007eb897007dbf9f008006780089
:103c90006eb897009e00780061bf9f00000f78000b
:103ca0003a0678003c007800000401001e0078000d
:103cb0000d00fd00000f78007eb897008006fd0023
:103cc00070bf9f003a0678003c00780000040100b5
:103cd0000d0078009e067800feb89700010f78006e
:103ce00070bf9f003a0678003c0078000004010095
:103cf0000d2f7800febe97003a0678003c00780051
:103d0000000401000d2f7800eebe97005eb897000a
:103d1000002f78003a0678003c007800000401008b
:103d20000e87e9003a0678003c00780000040100a4
:103d30008d1f7800ae0678003a0678003c007800c7
:103d4000000401000d2f7800cf0678003a067800b5
:103d50003c007800000401000d2f7800ffbe9700a2
:103d60003a0678003c007800000401000e0078005c
:103d70000d2f7800800678003a0678003c00780025
:103d8000000401000d0778003a0678003c00780036
:103d9000000401000d2f78008f0678003a067800a5
:103da0003c007800000401008d077800ae06780022
:103db0003a0678003c007800000401001e007800fc
:103dc0000d0f7800002f78003a0678003c0078004c
:103dd0000004010050c08000000057000d2f780043
:103de0008006d1003a0678003c007800000401000b
:103df0000e0078008d06d0000d005000900678006f
:103e00003a0678003c007800000401000088800039
:103e10000d18780000888800ae0678003a06780011
:103e20003c007800000401000d2f7800008880001d
:103e3000c0067800008888003a0678003c007800c8
:103e400000040100ae8646003a0678003c00780087
:103e5000000401002e0078008d0650003a0678001c
:103e60003c007800000401001d00b0003a06780014
:103e70003c007800000401002d00b0003a067800f4
:103e80003c007800000401001d00b1003a067800f3
:103e90003c007800000401002d00b1003a067800d3
:103ea0003c007800000401008d8646003a06780048
:103eb0003c007800000401008d06d1003a0678002d
:103ec0003c007800000401000d007800ae06780088
:103ed0000000e900008009008d06d0003a06780055
:103ee0003c007800000401000d007800ae06780068
:103ef0000000e900008009008d06d1003a06780034
:103f00003c007800000401001d0078002e004000f5
:103f1000800e7800ae0678003a0678003c00780003
:103f2000000401007eb897000d004000ae06780046
:103f30000d80b000000f78003a0678003c00780051
:103f4000000401002ee8b900800678003a067800e7
:103f50003c007800000401001e80b900000f7800ca
:103f6000810678003a0678003c00780000040100e1
:103f70001e68b80081067800000f78003a067800c5
:103f80003c007800000401002e01780011000900b7
:103f90000d01d800800678003a0678003c007800d1
:103fa000000401002e007800ae0078000180b90006
:103fb000110009004d08d800800678003a06780004
:103fc0003c007800000401002e007800ae0078006c
:103fd0000180b900110009000d00d800012f780000
:103fe000800678003a0678003c0078000004010062
:103ff0001e017800110009004d19d80080067800d4
:10400000010f78003a0678003c00780000040100b7
:10401000ae0078002e007800110009004d88d8000d
:1040200080067800012f78003a0678003c0078007e
:10403000000401002e0078000068e10001003d004e
:104040000d00fd003a0678003c00780000040100f5
:104050002e0078000d00e10001003d000d00fd0084
:104060003a0678003c007800000401000000eb00f4
:104070002e017800ae0078000208e100030039004c
:104080000d08e100010031000080eb00800678009f
:104090003a0678003c007800000401000080eb0044
:1040a0000d00a7000000eb00800678003a067800bb
:1040b0003c007800000401000080eb000d00a60029
:1040c0000000eb00800678003a0678003c0078009b
:1040d000000401000df0a7008d06ea003a06780002
:1040e0003c00780000040100ae8666003a067800c5
:1040f0003c00780000040100ae8676003a067800a5
:104100003c00780000040100ae866e003a0678009c
:104110003c007800000401008d86ea003a06780031
:104120003c007800000401008d86ea001e8fea0042
:104130003a0678003c007800000401008d06ea0091
:104140003a0678003c007800000401008d86ea0001
:104150001e8fea00100020001e0f40000d80b000ee
:104160003a0678003c007800000401001d00b10010
:104170008d865e003a0678003c007800000401005d
:104180008d8646008d865e008d86ea003a067800b0
:104190003c007800000401008d8646008d865e009c
:1041a0003a0678003c007800000401000000eb00b3
:1041b0002e68e10001003a000080eb0080067800e4
:1041c0003a0678003c007800000401000000eb0093
:1041d0002e68e100010032000080ea0080067800cd
:1041e0003a0678003c007800000401000080eb00f3
:1041f0002e68e10001003c000080ea0080067800a3
:104200003a0678003c007800000401000080eb00d2
:104210002e68e100010035000080ea008006780089
:104220003a0678003c007800000401000000eb0032
:104230002e68e100010036000080ea008006780068
:104240003a0678003c007800000401000000eb0012
:104250002e68e100010031000080ea00800678004d
:104260003a0678003c007800000401000d2f780029
:104270002d0020003a0678003c0078000004010080
:104280002d00b0003a0678003c00780000040100e0
:104290006268b800800678003a0678003c00780032
:1042a000000401000d00a7008d06e8003a06780022
:1042b0003c00780000040100fd07b200e068e10066
:1042c00001003d00fd0520003a0678003c00780022
:1042d000000401000d007800ae0678000d017800a2
:1042e000ae0678008d007800ae0678000000e00091
:1042f000030032000000e900008009003119780055
:104300003a0678003c007800000401000d007800b7
:10431000ae0678000d017800ae0678008d007800ba
:10432000ae0678000000e000030032000000e90063
:1043300000800900315978003a0678003c00780086
:10434000000401000d007800ae0678009e007800a1
:104350000d00e000050032001104e100030032000e
:104360008100e8008d06e900fbff3a00010f7800ac
:104370003a0678003c007800000401002e00780026
:10438000ae0078000100e000030032008100e90087
:1043900001800900801e7800ae0678003a06780099
:1043a0003c007800000401002e007800ae00780088
:1043b0000100e000030032008100e90001800900f3
:1043c000805e7800ae0678003a0678003c007800ff
:1043d000000401001e0078000d00400011022000c2
:1043e0000000e900100ce10090333e000000e800fe
:1043f0009e0650003a0678003c0078000004010058
:104400000d2f7800adcb29003a0678003c007800eb
:10441000000401000d2f7800fdff2c003a06780003
:104420003c007800000401000d2f78000d042000ee
:104430003a0678003c007800000401000d2f780057
:104440000d0220003a0678003c00780000040100cc
:104450000d2f7800fd0120003a0678003c0078001e
:10446000000401000d2f78000d0220003a067800ac
:104470003c007800000401000d2f78000d0520009d
:104480003a0678003c007800000401000d2f780007
:104490000d0520003a0678003c0078000004010079
:1044a0000d2f7800edff2c003a0678003c007800d4
:1044b000000401000d2f78008dcc29003a06780009
:1044c0003c007800000401000d2f7800edbf800053
:1044d0000d2f7800fdbf80003a0678003c00780080
:1044e00000040100fdbf8800ae067800edbf880023
:1044f000ae0678003a0678003c007800000401001f
:104500008d007800ae067800314178000204e000aa
:1045100009003200314078000241e900e105e10084
:10452000faff3900fa05e100f8ff3e000042b10051
:10453000f0f89f00f5ff37003a0678003c0078005d
:10454000000401000d007800ae0678009e0078009f
:104550000d00e000050032001104e10003003a0004
:104560008100e8008d06e900fbff3a00010f7800aa
:104570003a0678003c007800000401008d017800c4
:104580000d2f78003342780092c080000200e000d6
:10459000190032008280e9003240780080437800c0
:1045a000f043b2000404e10002003200110178007f
:1045b000f6ff370003037800844278000504e0002a
:1045c00005003200364078003204e100f7ff3a007f
:1045d0008542e900f9ff37000200a7000201e80068
:1045e000020f78008086eb000744b200030032001f
:1045f0008d06ea00010037000d0020003a06780021
:104600003c007800000401000a0678003c057800b0
:104610000d2f78008c0678003a0678003c00780070
:1046200000040100ffff3700106ea900108ea900e2
:1046300000348000f10f2e00010060000180200096
:1046400001007000003488001034800001fe2f004b
:10465000010060000101200001007000103488009a
:10466000b0022000101388006402a800c0152100c9
:104670006008880020488800804888008014200056
:1046800030488800a03820007048880050c02100c1
:104690000048880050488800f0ff28004228b600f3
:1046a000000025004228b700f08f2f004228b600f6
:1046b000005020004228b70002b1ef0004f1ef00e3
:1046c00005f1ef0000e8a90020e8a80011e1a8002a
:1046d000d0142000408888000a71ef000b11a80058
:1046e0000b31a9003a0678003c0078000004010074
:1046f0000d00780005f1b700ae0678003a067800a4
:104700003c007800000401000d007800ae0678003f
:104710000000e000050032009829020000000000bf
:104720003a0678003c00780000040100a829020045
:10473000000000003a0678003c0078000004010008
:104740000a71ec0000022200c1102100ff020900e2
:10475000801878000631ef000b31a9000a71ed00d6
:104760003a0678003c00780000040100b6290200f7
:10477000000000003a0678003c00780000040100c8
:10478000dc290200000000003a0678003c007800b6
:10479000000401000d2f780006d1bf0080067800cc
:1047a0008d86fb003a0678003c007800000401008a
:1047b0000d2f780007d1bf00800678008d86fb00a2
:1047c0003a0678003c007800000401000a71ec0011
:1047d0000b31af0082290200000000000b31a9005c
:1047e000f00320000068e10001003e000d007800a9
:1047f00006f1b7000a71ed00ae0678003a067800bf
:104800003c007800000401000a71ec000b31af009d
:1048100082290200000000000b31a9007868e10045
:10482000010039007d0120000d00780007f1b7007c
:104830000a71ed00ae0678003a0678003c00780078
:10484000000401000a71ec000b31af008229020064
:10485000000000000b31a9000671ed0008003b00cc
:104860000771ed0003003b00dc290200000000009e
:104870000771ef00000420000000e90006f1b70016
:104880000a71ed003a0678003c007800000401004f
:104890000a71ec000b31af00822902000000000019
:1048a0000b31a9000671ec00000420000651e30062
:1048b000080039000671ef000771ec00800120004c
:1048c0000751e30003003900b62902000000000090
:1048d0000771ed000a71ed003a0678003c0078009f
:1048e000000401000a71ec000b31af0082290200c4
:1048f000000000000b31a900822902000000000026
:104900000a71ed003a0678003c00780000040100ce
:104910000a71ec000b31af00822902000000000098
:104920000b31a90000c4b3000751bc0006d1bf0081
:104930000080fb0002004000c11021008100400007
:104940008d487800ae0678000a71ed00d0ff370080
:104950000a71ec000b31af00822902000000000058
:104960000b31a900f003200006f1b7000a71ed0039
:10497000c7ff37000d2f78000d022000e4ff37003d
:104980000a71ec000b31af00822902000000000028
:104990000b31a900c2102100800120000068e10055
:1049a00006003100000420000068b8000201400049
:1049b000000222001f000900001978000a71ed00b2
:1049c000ae0678003a0678003c007800000401004a
:1049d000116ea900f00f2e008826b60000302000ce
:1049e0008826b70000fe2f00c426b600c0022000b3
:1049f000c426b700601c20004011880021e2a800f6
:104a000080ff2f004628b600300020004628b7005f
:104a1000f0ff28004428b600000023004428b70017
:104a20000188a9002188a8000168a9002168a800c0
:104a30002462ef002342a8003a0678003c00780088
:104a40000004010021e2a90000d82100c142200099
:104a5000420020008100d1000080d3000201e90063
:104a6000110009004d88d8000000e90040118800bd
:104a700021e2a800ae0678003a0678003c007800f3
:104a800000040100cc17e20005003a002322af0029
:104a9000030037002d118800ae0678000d003700a6
:104aa00000012000cc17e300feff3200cfd7bf008b
:104ab0000080fb00c17b2100810040008d48780010
:104ac000ae067800cc37ec00cf77ec00f000200089
:104ad000cf77b6003a0678003c0078000004010069
:104ae0000d2f7800d017e20001003a00fdff3700db
:104af000d2d7bf000080fb00c17a210081004000b6
:104b000091467800d037ed00d277ec00f00020001d
:104b1000d277b6003a0678003c0078000004010025
:104b2000f0fd2f00102eb600f00f2e008226b600ea
:104b3000002021008226b7001629ef0050402000f7
:104b4000a048880000012000900888003a067800fc
:104b50003c007800000401007d088800cd488800f2
:104b60008d06d100dd488800ae06780013e1a8006c
:104b70003dc18800ae0678003a0678003c00780017
:104b800000040100405c2000142eb7000080ea0001
:104b9000102eb60019aea800f0ff28004828b60075
:104ba000000023004828b7002268a8000268a90076
:104bb000e01320001012880041e2a8003a067800b5
:104bc0003c0078000004010041e2a900f00120004f
:104bd0004222b600010078004222b70041e2a8005c
:104be00000000600144ea80041e2a800f0cfb30078
:104bf000a100200048e2b7004002ae00feff3700ef
:104c0000401280008100e900faff3a00000006002f
:104c1000144ea800f0cfb30048e2b7004002ae0047
:104c2000feff37004012800000000600800278007e
:104c300090082000203288004626ef0041e6a800b8
:104c400070702000103288004c26ef004e26ef00d6
:104c5000054078000060a0000070a10048e6b700a1
:104c600048e2b7004002ae00feff3700401280006d
:104c7000010078000080fd0048e6b70048e2b70078
:104c80004002ae00feff37004012800001007800b5
:104c900048e6b70048e2b7004002ae00feff37002a
:104ca00040128000020078000080fd0048e6b70056
:104cb00048e2b7004002ae00feff3700401280001d
:104cc0000200780048e6b7004086a80048e2b70036
:104cd0004002ae00feff3700401280004086af0069
:104ce000feff37004cc6bf0048e2b7004002ae00ee
:104cf000feff37004012800081002000f0cfb3009b
:104d000048e2b7004002ae00feff370040128000cc
:104d1000f0cfb20004003a008100e900f7ff3a004a
:104d20001498a80000000600005a78000300e00074
:104d300001003a000000060048e2ef004002ae0029
:104d4000feff370048c2bf00005a78008301e90027
:104d5000f6ff37000d007800ae06780048e2b70095
:104d60004002ae00feff3700401280000d007800c8
:104d70000080fd0048e2b7004002ae00feff3700b1
:104d8000401280000d00780048e2b7004002ae00fb
:104d9000feff370040128000ae06780000000600db
:104da00014cea9005000200048e2b7004002ae0037
:104db000feff37004012800048e2ef004002ae00e4
:104dc000feff370014cea8004802af00f4ff370002
:104dd000000006001438ef0013aeaf00000006001c
:104de0001418a80001002000e425020000000000c3
:104df000f225020000000000144ea900000020006f
:104e00008000eb000001eb008001eb00a481210099
:104e100016260200000000003a0678003c007800e8
:104e200000040100154ea9002000200048e2b70050
:104e30004002ae00feff3700401280008d00780077
:104e4000ae067800aa260200000000000d017800de
:104e5000ae0678000100e000070032003240780022
:104e600048e2b7004002ae00feff3700401280006b
:104e70008100e900f7ff3700154ea8003a067800d8
:104e80003c00780000040100154ea900300020000d
:104e900048e2b7004002ae00feff3700401280003b
:104ea0008d007800ae067800aa26020000000000ff
:104eb0000d017800ae067800832420000100e00098
:104ec0000600320048e2ef004002ae00feff37006d
:104ed000135978008100e900f8ff3700154ea8004b
:104ee0003a0678003c00780000040100d026020059
:104ef0000000000014cea9006000200048e2b700c6
:104f00004002ae00feff37004012800014cea80021
:104f10000000000014cea9002000200048e2b700e5
:104f20004002ae00feff370040128000c86edd0078
:104f30000d2f78008006eb008d86d200aa26020095
:104f4000000000000d017800ae067800031020007c
:104f50003240780048e2b7004002ae00feff370062
:104f6000401280008301e900f9ff3a0014cea80046
:104f70003a0678003c00780000040100d0260200c8
:104f80000000000014cea9003000200048e2b70065
:104f90004002ae00feff370040128000c86edd0008
:104fa0000d2f78008006eb008d86d200aa26020025
:104fb000000000000d017800ae067800031020000c
:104fc00048e2ef004002ae00feff370040128000d2
:104fd000005978008301e900f9ff3a0014cea800d7
:104fe0003a0678003c00780000040100060ea80094
:104ff000000ea900040ea90000e022000035880080
:10500000c228a800700020004a28b700f002200043
:1050100030368800601c2000c011880031e2a800f2
:10502000f08f2f004e28b600005020004e28b70009
:1050300003c8a90023c8a8000288a9002288a800e4
:105040003a0678003c00780000040100a00f200020
:105050002018b4002018e300feff3a00040ea90057
:1050600000c18000630040002018e300feff3a000a
:10507000040ea8003a0678003c0078000004010005
:10508000e068e10005003d006d68e10006003200c7
:105090006868e1000400320002003700ff69e100a7
:1050a000010035008006eb003a0678003c007800ed
:1050b000000401000000eb00a1bf8000b2bf80002f
:1050c0000208e10007003200427d21000281400019
:1050d000f437ec00f0012000f437b60012407800fd
:1050e0000080fb000d2f7800800678003a067800db
:1050f0003c007800000401000001200004a1b7007a
:10510000d022220010088800f0ff28004028b600b6
:10511000000023004028b7000068a9002068a8000c
:1051200005e1a8003a0678003c0078000004010080
:105130004427ef0040042000303a880042e7a800ee
:10514000c1e8a9003a0678003c007800000401009c
:10515000001021007f5f09000018eb003a0678007c
:105160003c0078000004010042c7a8003a0678001d
:105170003c007800000401000000210060c08800ad
:105180000008210050c08800000c21000088880021
:10519000a000200030c08800c0752100d0bf88006a
:1051a000c0702100c0bf8800e0bf8800000520005b
:1051b000f0bf88000090210010c088008b7f210084
:1051c00000c2fe00e0ff2f001000780080c08800c1
:1051d00090c088003a0678003c0078000004010086
:1051e0000d2f78000dc180003a0678003c00780051
:1051f00000040100300220008d06e9000068b800bc
:105200000080090000000000ae0678003a06780031
:105210003c0078000004010000c180000d00400047
:105220002018e300feff3a00ae0678003a06780048
:105230003c007800000401002438d50022b8d700d3
:10524000040039000002280024b8b6002000200025
:1052500022b8b6000d2f78001dc180003a067800f4
:105260003c007800000401000001eb000401200074
:105270002218ae00030037002238ec00010039008c
:105280002438ec002218d400800078002498d6003e
:105290008000fd002238b4000100780024b8b4007a
:1052a0002438d50022b8d7002218d5008381d30036
:1052b0000402e900f3ff3a000d2f7800830678001e
:1052c0003a0678003c0078000004010000c180002c
:1052d000320020000280d80010c1880021c188005f
:0c52e0003a0678003c0078000004010051
:020000040000fa
:1052ec000831ed000100320000000600d01420004f
:1052fc00408888000b31aa000a71ec0000c4b3008e
:10530c000751bc0006d1bf000080fb00020040002a
:10531c00c1102100810040001174a2000a71ed003f
:10532c00000006000b11af0000000600d014200096
:10533c00408888000a71ef00100020000bf1b700c4
:10534c00000006000a71ec000b31af00822902004c
:10535c00000000000b71ef000a71ed000000060068
:10536c000a71ec000b31af00822902000000000032
:10537c000b31a900c11021000004200001014000e4
:10538c0003602000808151008301d1008301e9007a
:10539c0003800900b2187800000222001f000900e7
:1053ac00801878000a71ed00000006000a71ec000c
:1053bc000b31af0082290200000000000b31a90064
:1053cc00c1102100006020008080400000042000fb
:1053dc0000815000df0209004121780000018100aa
:1053ec001f000900002178000a71ed000000060082
:1053fc005c9800007c9800007a880000508c0000bb
:0c540c00c49500007c950000f08d0000ad
:020000040000fa
:04fffc00b2980000b7
:020000040000fa
:02000004000af0
:04afe000dfff00008f
:020000040000fa
:02000004000af0
:04afe400ffff00006b
:020000040000fa
:02000004000af0
:04afe8005fff000007
:020000040000fa
:02000004000af0
:04afec009aff0000c8
:020000040000fa
:02000004000af0
:04aff000fbff000063
:020000040000fa
:02000004000af0
:04aff400ffff00005b
:00000001FF
