:020000040000fa
:080000000002040000000000f2
:020000040000fa
:04000800b003000041
:020000040000fa
:04000c00b00300003d
:020000040000fa
:04001000b003000039
:020000040000fa
:04001400aa0300003b
:020000040000fa
:04001800a40300003d
:020000040000fa
:04001c00b00300002d
:020000040000fa
:04002000b003000029
:020000040000fa
:04002400b003000025
:020000040000fa
:04002800b003000021
:020000040000fa
:04002c00b00300001d
:020000040000fa
:04003000b003000019
:020000040000fa
:04003400b203000013
:020000040000fa
:04003800b003000011
:020000040000fa
:04003c00b00300000d
:020000040000fa
:040040009a02000020
:020000040000fa
:040044002c0200008a
:020000040000fa
:04004800b003000001
:020000040000fa
:04004c00b0030000fd
:020000040000fa
:04005000b0030000f9
:020000040000fa
:0400540000030000a5
:020000040000fa
:040058004e03000053
:020000040000fa
:04005c00b0030000ed
:020000040000fa
:04006000b0030000e9
:020000040000fa
:04006400b0030000e5
:020000040000fa
:04006800b0030000e1
:020000040000fa
:04006c00b0030000dd
:020000040000fa
:04007000b0030000d9
:020000040000fa
:040074009a030000eb
:020000040000fa
:04007800d4030000ad
:020000040000fa
:04007c00b0030000cd
:020000040000fa
:04008000b0030000c9
:020000040000fa
:04008400b0030000c5
:020000040000fa
:04008800b0030000c1
:020000040000fa
:04008c00b0030000bd
:020000040000fa
:04009000b0030000b9
:020000040000fa
:04009400b0030000b5
:020000040000fa
:04009800b0030000b1
:020000040000fa
:04009c00b0030000ad
:020000040000fa
:0400a00074030000e5
:020000040000fa
:0400a400b0030000a5
:020000040000fa
:0400a800b0030000a1
:020000040000fa
:0400ac00b00300009d
:020000040000fa
:0400b000b003000099
:020000040000fa
:0400b400b003000095
:020000040000fa
:0400b800b003000091
:020000040000fa
:0400bc00b00300008d
:020000040000fa
:0400c000b003000089
:020000040000fa
:0400c400b003000085
:020000040000fa
:0400c800b003000081
:020000040000fa
:0400cc00b00300007d
:020000040000fa
:0400d000b003000079
:020000040000fa
:0400d400b003000075
:020000040000fa
:0400d800b003000071
:020000040000fa
:0400dc00b00300006d
:020000040000fa
:0400e000b003000069
:020000040000fa
:0400e400b003000065
:020000040000fa
:0400e800b003000061
:020000040000fa
:0400ec00b00300005d
:020000040000fa
:0400f000b003000059
:020000040000fa
:0400f400b003000055
:020000040000fa
:0400f800b003000051
:020000040000fa
:0400fc00b00300004d
:020000040000fa
:04010000b003000048
:020000040000fa
:04010400b003000044
:020000040000fa
:04010800b003000040
:020000040000fa
:04010c00b00300003c
:020000040000fa
:04011000b003000038
:020000040000fa
:04011400b003000034
:020000040000fa
:04011800b003000030
:020000040000fa
:04011c00b00300002c
:020000040000fa
:04012000b003000028
:020000040000fa
:04012400b003000024
:020000040000fa
:04012800b003000020
:020000040000fa
:04012c00b00300001c
:020000040000fa
:04013000b003000018
:020000040000fa
:04013400b003000014
:020000040000fa
:04013800b003000010
:020000040000fa
:04013c00b00300000c
:020000040000fa
:04014000b003000008
:020000040000fa
:04014400b003000004
:020000040000fa
:04014800b003000000
:020000040000fa
:04014c00b0030000fc
:020000040000fa
:04015000b0030000f8
:020000040000fa
:04015400b0030000f4
:020000040000fa
:04015800b0030000f0
:020000040000fa
:04015c00b0030000ec
:020000040000fa
:04016000b0030000e8
:020000040000fa
:04016400b0030000e4
:020000040000fa
:04016800b0030000e0
:020000040000fa
:04016c00b0030000dc
:020000040000fa
:04017000b0030000d8
:020000040000fa
:04017400b0030000d4
:020000040000fa
:04017800b0030000d0
:020000040000fa
:04017c00b0030000cc
:020000040000fa
:04018000b0030000c8
:020000040000fa
:04018400b0030000c4
:020000040000fa
:04018800b0030000c0
:020000040000fa
:04018c00b0030000bc
:020000040000fa
:04019000b0030000b8
:020000040000fa
:04019400b0030000b4
:020000040000fa
:04019800b0030000b0
:020000040000fa
:04019c00b0030000ac
:020000040000fa
:0401a000b0030000a8
:020000040000fa
:0401a400b0030000a4
:020000040000fa
:0401a800b0030000a0
:020000040000fa
:0401ac00b00300009c
:020000040000fa
:0401b000b003000098
:020000040000fa
:0401b400b003000094
:020000040000fa
:0401b800b003000090
:020000040000fa
:0401bc00b00300008c
:020000040000fa
:0401c000b003000088
:020000040000fa
:0401c400b003000084
:020000040000fa
:0401c800b003000080
:020000040000fa
:0401cc00b00300007c
:020000040000fa
:0401d000b003000078
:020000040000fa
:0401d400b003000074
:020000040000fa
:0401d800b003000070
:020000040000fa
:0401dc00b00300006c
:020000040000fa
:0401e000b003000068
:020000040000fa
:0401e400b003000064
:020000040000fa
:0401e800b003000060
:020000040000fa
:0401ec00b00300005c
:020000040000fa
:0401f000b003000058
:020000040000fa
:0401f400b003000054
:020000040000fa
:0401f800b003000050
:020000040000fa
:0401fc00b00300004c
:020000040000fa
:04020000b003000047
:020000040000fa
:04020400b003000043
:020000040000fa
:04020800b00300003f
:020000040000fa
:04020c00b00300003b
:020000040000fa
:04021000b003000037
:020000040000fa
:04021400b003000033
:020000040000fa
:04021800b00300002f
:020000040000fa
:04021c00b00300002b
:020000040000fa
:04022000b003000027
:020000040000fa
:04022400b003000023
:020000040000fa
:04022800b00300001f
:020000040000fa
:04022c00b00300001b
:020000040000fa
:04023000b003000017
:020000040000fa
:04023400b003000013
:020000040000fa
:04023800b00300000f
:020000040000fa
:04023c00b00300000b
:020000040000fa
:04024000b003000007
:020000040000fa
:04024400b003000003
:020000040000fa
:04024800b0030000ff
:020000040000fa
:04024c00b0030000fb
:020000040000fa
:04025000b0030000f7
:020000040000fa
:04025400b0030000f3
:020000040000fa
:04025800b0030000ef
:020000040000fa
:04025c00b0030000eb
:020000040000fa
:04026000b0030000e7
:020000040000fa
:04026400b0030000e3
:020000040000fa
:04026800b0030000df
:020000040000fa
:04026c00b0030000db
:020000040000fa
:04027000b0030000d7
:020000040000fa
:04027400b0030000d3
:020000040000fa
:04027800b0030000cf
:020000040000fa
:04027c00b0030000cb
:020000040000fa
:04028000b0030000c7
:020000040000fa
:100400000e2eef00600020004a28b7000f002100e8
:100410000e082100cb2321000e0078008001b100de
:100420000001880001c4fe0040c7af00050037008e
:1004300000c2fe00aa102c003a0678003c007800aa
:100440000004010000c2fe00ca072c003a06780032
:080450003c00780000040100eb
:020000040000fa
:1004580000e8a90061e2a900801f7800a032ec0042
:100468001900320060002000a012e3001c003200d6
:10047800c0002000a012e3001c0032002001200070
:10048800a012e3001c00320020032000a012e300a9
:100498001f003200200f2000a012e30021003200cc
:1004a800f0102000a252e200010032000000e80033
:1004b800a012e30002003a00a2f2ee00a0b2ef00a0
:1004c8004f00780000400600400a200030488800ad
:1004d800e08a20002048880060088800f8ff37007c
:1004e800a080200030488800f5ff3700400a20002f
:1004f80030488800f2ff3700801420003048880018
:10050800c01521002048880060088800ecff3700eb
:10051800a352e200eaff320000c8a90020c8a800e0
:10052800e7ff370020c8a900e5ff370000c8a90089
:10053800809fbe00829fbe00849fbe00861f7800f9
:100548003200f800019580002103b100e7826000c5
:10055800c308de00020420000110b80004a02c002b
:100568000402400023822a00904880006300600053
:10057800000601000000000000000000000000006c
:1005880061e2a8000200e0001200320001c0fe0093
:10059800344078000003eb000070a7000083eb00f4
:1005a800f007b2004300dd008080410085804000f4
:1005b80000c2fe00114078000670a7000080ea0023
:1005c8006022ab00feff3a0068e2b7000201e900d2
:1005d800ecff37006022ab00feff3a006822ef0014
:1005e8003200f9004f0378004f02be004f01be00f1
:1005f8004f00be00004006000168a9000d2f7800da
:100608002202ae00210037003d118000736ce1002a
:1006180002003a003a12a8001c003700716ce10091
:1006280002003a003a12a90018003700636ce10092
:1006380003003a0010002000d09488000000fe005b
:10064800809fbe0039d2bf000080fb00211f21001f
:10065800810040008d4878003a92a8003632ec00bc
:100668003972ec00f00120003972b60081002000d8
:10067800010050003652e300030039003001200029
:1006880024e2b7003a32a8004f00be00ae06780058
:10069800004006003a12af00004006000188a90099
:1006a800809fbe003212e2000b00320034d2bf003d
:1006b8000080fb00212121008100400011407800ca
:1006c80024e2b7008048eb003232ed003472ec00cf
:1006d800f00120003472b6004f00be000040060052
:1006e80003c8a900809fbe00821f7800b011800057
:1006f8006304e10003003a0010002000d094880051
:100708000000fe0061262100429480008100410023
:10071800804878001200b000f201b20042948800cc
:100728004f0178004f00be00004006000268a90093
:100738008a32ef0013aeae008a12a800004006000d
:1007480020002000d09488000000fe004000200017
:10075800d09488000000fe000000fe000068a90098
:10076800809fbe00829fbe009432ec00aa12e20075
:1007780003003200aa32ed0001003a0013e1a9009b
:10078800a852e20003003a00a912af00c43e0200da
:10079800000000004f01be004f00be0000400600f0
:0407a8000000fe004f
:020000040000fa
:1007ac00000000008445000058490000540000007f
:1007bc00b22c0000d8830000834e00004f50000084
:1007cc00882c0000de830000e283000084430000dc
:1007dc00414c00004c000000ba2c0000ec830000df
:1007ec00a52800004c49000054290000ca2c000028
:1007fc00f6830000a6280000434c0000495400007a
:10080c0029000000d42c000000840000a82800005f
:10081c0042520000414e00004348000029000000f5
:10082c00e02c00000c840000a928000054420000b9
:10083c00524100004e43000048290000e82c000003
:10084c001a840000a92800003f4200005241000019
:10085c004e43000048290000f62c000028840000bc
:10086c00a4280000444f000029000000042d0000c3
:10087c0036840000a52800003f4400004f290000ea
:10088c00162d000040840000a62800004c4f0000ec
:10089c004f50000029000000282d00004a84000061
:1008ac00a72800002b4c00004f4f000050290000df
:1008bc00422d000056840000834900005040000087
:1008cc00602d00006284000086520000454200004a
:1008dc004f4f0000540000006a2d00006a84000095
:1008ec008745000058450000435500005445000062
:1008fc006c2d00007684000081400000742d0000f7
:10090c008284000082430000400000007c2d000027
:10091c00888400008245000040000000862d000005
:10092c00908400008345000043400000942d00009b
:10093c00988400008232000040000000a42d0000ca
:10094c00a084000084540000424c000040000000d1
:10095c00b22d0000a884000084540000424c00001a
:10096c0021000000c22d0000b28400008121000093
:10097c00d62d0000bc840000824300002100000042
:10098c00e02d0000c2840000823200002100000033
:10099c00ec2d0000ca84000081490000f82d0000f5
:1009ac00d2840000814a0000022e0000d88400008e
:1009bc00865500004e4c00004f4f000050000000c8
:1009cc000c2e0000de840000834400005550000013
:1009dc00162e0000ea84000084320000445500000a
:1009ec00500000001e2e0000f2840000843f000026
:1009fc0044550000500000002a2e0000fc8400002a
:100a0c0084440000524f000050000000362e0000bd
:100a1c000685000085320000445200004f50000053
:100a2c003e2e00001085000084530000574100004a
:100a3c0050000000482e00001a850000853200008e
:100a4c005357000041500000542e00002485000034
:100a5c00835200004f540000682e00002e850000c9
:100a6c00842d0000524f0000540000007a2e00002c
:100a7c0036850000844f00005645000052000000ef
:100a8c008a2e000040850000853200004f56000081
:100a9c0045520000942e00004a850000834e000051
:100aac0049500000a22e000054850000823e000038
:100abc0052000000aa2e00005c850000825200004b
:100acc003e000000b42e000064850000825200003d
:100adc0040000000be2e00006c8500008353000017
:100aec0050400000c82e00007485000083530000a5
:100afc0050210000d42e00007c85000083520000a1
:100b0c0050400000dc2e0000848500008352000061
:100b1c0050210000e62e00008c850000845400005b
:100b2c00554300004b000000f02e0000948500009f
:100b3c00854400004550000054480000fc2e000085
:100b4c009e85000084500000494300004b000000cb
:100b5c000a2f0000a8850000853e000043530000ca
:100b6c00544b0000182f0000b28500008543000094
:100b7c00535400004b3e0000262f0000bc850000a3
:100b8c00834d000053420000342f0000c685000046
:100b9c00874d0000415800002d4900004e540000c4
:100bac003e2f0000ce850000874d0000494e00000e
:100bbc002d4900004e540000482f0000da8500003b
:100bcc008348000045580000882c0000fc8300007e
:100bdc00100000006e890000be840000de8300005f
:100bec00e68500008744000045430000494d0000a5
:100bfc00414c0000882c0000fc8300000a0000001f
:100c0c006e890000be840000de830000f8850000c1
:100c1c00812b0000522f00000e860000812d000059
:100c2c005a2f000014860000823100002b000000b7
:100c3c00642f00001a860000823200002b00000096
:100c4c006c2f000022860000823100002d00000075
:100c5c00742f00002a860000823200002d00000054
:100c6c007c2f000032860000823200002a00000037
:100c7c00842f00003a860000823200002f00000012
:100c8c008c2f000042860000864c00005348000068
:100c9c004946000054000000942f00004a860000d2
:100cac0086520000534800004946000054000000e2
:100cbc00b02f000056860000822b0000210000009f
:100ccc00cc2f000062860000824d00002b0000003b
:100cdc00da2f00006a860000812a0000ea2f00004b
:100cec0072860000824d00002a000000f42f0000e4
:100cfc0078860000835500004d2a0000003000006b
:100d0c008086000083550000442a00000c3000004f
:100d1c0088860000812f00002030000090860000a3
:100d2c00834d00004f4400002e30000096860000da
:100d3c00822a00002f0000003c3000009e8600003c
:100d4c00852a00002f4d00004f4400004e3000005b
:100d5c00a6860000842f00004d4f000044000000c8
:100d6c0062300000b0860000865500004d2f000058
:100d7c004d4f00004400000072300000ba860000a5
:100d8c0086550000442f00004d4f00004400000029
:100d9c0084300000c6860000834d000041580000de
:100dac00a0300000d2860000834d0000494e0000a8
:100dbc00ae300000da860000845500004d41000082
:100dcc0058000000bc300000e28600008455000092
:100ddc004d4900004e000000ca300000ec860000b7
:100dec008657000049540000484900004e0000009e
:100dfc00d8300000f68600008445000056450000ff
:100e0c004e000000f030000002870000834f00000d
:100e1c0044440000fe3000000c87000083410000b9
:100e2c00425300000c310000148700008444000081
:100e3c004142000053000000163100001c870000e6
:100e4c00835300003e4400002c3100002687000034
:100e5c00873f00004e45000047410000544500000c
:100e6c003c3100002e870000865300004d2f0000ff
:100e7c00524500004d000000882c0000f884000052
:100e8c00c487000060850000468500006085000076
:100e9c00188700006085000022870000688500002c
:100eac00c28600002085000068850000368700009f
:100ebc00208500006885000036870000de83000076
:100ecc003a870000864600004d2f00004d4f000071
:100edc0044000000882c0000ee84000060850000b7
:100eec00f8840000c4870000608500006085000065
:100efc00228700007085000018870000c286000061
:100f0c0020850000688500003687000020850000e1
:100f1c006885000014880000328400001400000072
:100f2c00f087000046850000328400000c000000b1
:100f3c0070850000328500001686000020850000b8
:100f4c002e860000688500000c850000de83000002
:100f5c0068870000834100004e4400004a310000c5
:100f6c00b0870000824f0000520000005231000098
:100f7c00b8870000835800004f5200005a3100001f
:100f8c00c0870000834e00004f5400006231000007
:100f9c00c8870000864900004e56000045520000ec
:100fac005400000072310000d0870000874400001c
:100fbc00494e000056450000525400007a310000a2
:100fcc00dc870000864e00004547000041540000bd
:100fdc004500000084310000e887000087440000d1
:100fec004e45000047410000544500008c31000084
:100ffc00f4870000823000003d0000009c310000ae
:10100c0000880000833000003c3e0000a631000048
:10101c0008880000823000003c000000b63100005f
:10102c0010880000823000003e000000c231000039
:10103c0018880000813d0000d2310000208800009b
:10104c00823c00003e000000e231000026880000d7
:10105c00813c0000f23100002e880000813e00002f
:10106c000232000034880000825500003c00000071
:10107c00123200003a880000825500003e00000049
:10108c00223200004288000084430000454c0000de
:10109c004c000000323200004a88000085430000fa
:1010ac00454c00004c2b00003c32000054880000e2
:1010bc0085430000454c00004c53000044320000b6
:1010cc005e880000854100004c490000474e00003e
:1010dc00882c0000a68800001087000032840000d5
:1010ec0010000000fc83000000000000a688000037
:1010fc00c6840000fc830000010000001493000073
:10110c00de83000068880000874100004c49000025
:10111c00474e0000454400004e3200008a88000013
:10112c00853e000043480000415200005832000048
:10113c0096880000844800004552000045000000dd
:10114c00882c00006289000084840000de8300008b
:10115c00a0880000844d00004f56000045000000a0
:10116c0066320000b0880000854300004d4f00003f
:10117c00564500006e320000ba880000864300001d
:10118c004d4f0000564500003e0000008e3200001e
:10119c00c488000085430000484100005253000001
:1011ac00882c0000de830000d088000085430000fe
:1011bc0048410000522b0000882c00001e860000c5
:1011cc00de830000dc8800008443000048410000fe
:1011dc0052000000882c0000808a0000d48d000092
:1011ec00ee8400008c8400000488000076900000df
:1011fc00106d000069730000736900006e670000d9
:10120c0020630000617200006163000074650000df
:10121c00720000001e8600008c840000de8300003b
:10122c00ea880000c65b0000434800004152000001
:10123c005d000000882c00002a970000f088000058
:10124c0020940000fc83000020930000de8300004b
:10125c001889000084530000434100004e00000038
:10126c00b23200003089000084460000494c000076
:10127c004c000000d43200003a890000892d000097
:10128c0054520000414900004c4900004e470000f8
:10129c00f2320000448900008553000054410000e4
:1012ac0054450000922c00001c00000052890000e4
:1012bc008244000050000000922c0000120000003c
:1012cc005e8900008442000041530000450000008c
:1012dc00922c00001800000068890000895300005f
:1012ec00595300004c410000544500005354000079
:1012fc00922c00000200000074890000864c000053
:10130c00415400004553000054000000922c000092
:10131c0004000000848900008252000030000000ac
:10132c00922c0000140000009289000082530000ef
:10133c0030000000922c0000160000009c89000078
:10134c008350000041440000922c00000800000073
:10135c00a68900008354000049420000922c000032
:10136c0006000000b08900008550000041530000c9
:10137c0054450000922c00000a000000ba890000bd
:10138c00833e0000494e0000922c00001e0000001d
:10139c00c68900008248000050000000922c00001a
:1013ac0020000000d089000086270000534f000069
:1013bc005552000043450000922c00000c00000028
:1013cc00da89000087230000534f000055520000bb
:1013dc0043450000922c00000e000000e88900003c
:1013ec00874200004f4f0000544400004556000057
:1013fc00922c00001a000000f689000087520000b1
:10140c005042000052450000414b0000922c00005d
:10141c0026000000048a00008544000042470000ba
:10142c00454e0000922c000028000000128a00009b
:10143c008553000054440000494e0000922c0000db
:10144c00220000001e8a0000865300005444000055
:10145c004f55000054000000922c000024000000a6
:10146c002a8a0000875600004552000053490000ac
:10147c004f4e000008330000388a000086520000ee
:10148c00414d0000454e00004400000012330000a6
:10149c00448a0000854900004d4d00004544000081
:1014ac001c330000508a00008648000049440000ac
:1014bc00444500004e000000263300005a8a00000c
:1014cc00854e00004d410000524b000030330000af
:1014dc00668a0000874c0000454e00004d4100001c
:1014ec00534b00003a330000708a00008242000027
:1014fc004c000000443300007c8a0000875400003c
:10150c0049420000534900005a4500004e33000088
:10151c00848a0000875000004144000053490000b9
:10152c005a45000058330000908a00008655000090
:10153c004c4900004d49000054000000623300008b
:10154c009c8a0000854400004f4300004f4c000073
:10155c006c330000a88a000084540000525500002f
:10156c004500000076330000b28a0000854600007a
:10157c00414c00005345000080330000bc8a000041
:10158c0083440000503000008a330000c68a0000fb
:10159c0087270000534f00005552000043450000c0
:1015ac0094330000ce8a0000875300004f55000092
:1015bc005243000045210000a2330000da8a0000eb
:1015cc00863f0000444900004749000054000000d9
:1015dc00882c0000ee840000fc83000060000000fa
:1015ec00468800003284000008000000fc830000e4
:1015fc002000000016860000ee840000fc83000032
:10160c003900000046880000328400001a000000f7
:10161c00ee840000fc830000410000003e880000c6
:10162c003284000008000000fc8300000000000071
:10163c00de830000fc83000007000000168600001b
:10164c00fc8300003000000016860000ee840000d1
:10165c006e890000848400003e880000de83000058
:10166c00e68a0000873f0000444f0000554200000e
:10167c004c450000882c0000468500008c8400003e
:10168c00fc8300002e000000228800003284000041
:10169c0010000000fc830000010000008e8d000093
:1016ac00fc830000ffff00001684000018000000ff
:1016bc00468500008c840000fc8300002c00000098
:1016cc00228800003284000006000000168400000e
:1016dc00e2ff0000fc83000000000000de8300003d
:1016ec00388b0000873e00004e5500004d42000034
:1016fc0045520000882c0000fc8300000000000014
:10170c0060850000ee840000328400005000000070
:10171c00468500008c840000ee8a000024840000c2
:10172c0022000000688500003284000042000000a6
:10173c000c850000408b0000328400003c0000004f
:10174c006885000068850000fc8300000200000032
:10175c00bc870000608500006085000016840000d6
:10176c00ccff0000688500000c850000fc830000a5
:10177c00ffff000060850000608500002a850000e6
:10178c006e890000848400008c860000688500004f
:10179c006e8600002a850000fc830000010000001a
:1017ac008e8d000016840000aeff000068850000de
:1017bc000c850000de830000788b0000853f000064
:1017cc0053490000474e0000882c0000468500005d
:1017dc008c840000088400002d000000228800008a
:1017ec00248400000a000000fc83000000000000bc
:1017fc00168400000c000000fc83000001000000b7
:10180c008e8d0000fc83000001000000de830000d0
:10181c00e48b0000853f000042410000534500006e
:10182c00882c0000468500008c8400000884000091
:10183c002400000022880000328400000e0000000a
:10184c00fc830000100000006e890000be840000c4
:10185c001684000032000000468500008c840000d5
:10186c00088400002300000022880000328400005d
:10187c000e000000fc8300000a0000006e890000ce
:10188c00be8400001684000018000000468500008d
:10189c008c840000088400002500000022880000d1
:1018ac003284000012000000fc83000002000000e3
:1018bc006e890000be840000208500001e8600009a
:1018cc00208500002e860000de830000108c0000b6
:1018dc00873f00004e5500004d420000455200006d
:1018ec00882c00006e890000848400006085000054
:1018fc00ee840000fc83000000000000ee84000079
:10190c0032850000328f0000168c0000ea8b00003c
:10191c0060850000808b0000328400001000000005
:10192c00688500001685000016850000fc83000009
:10193c000000000016840000240000000c8500004c
:10194c00328500000c8500007085000010870000b7
:10195c003284000004000000fc8700006885000051
:10196c00fc83000002000000b48700002484000007
:10197c00040000000c850000fc830000ffff000049
:10198c00688500006e890000be840000de830000c4
:10199c006e8c0000855700004f520000445300002d
:1019ac00882c0000fc83000000000000648e000006
:1019bc008c89000084840000ee8400000488000000
:1019cc00248400005e000000ee8400008c84000083
:1019dc00628a0000b4870000328400000800000016
:1019ec003686000016840000e6ff0000ee8400003e
:1019fc00ee8400008c840000788a0000b48700001c
:101a0c00ee840000328a000084840000fc83000015
:101a1c00569e000022880000328400000c0000005a
:101a2c005e9f0000208500000c85000016840000dd
:101a3c0004000000609b000010860000fc83000086
:101a4c00400000003e8800002484000004000000d8
:101a5c00648e0000608500001e8600006885000012
:101a6c00309c0000ea9b00003686000020850000b8
:101a7c001e86000020850000168400009cff0000dc
:101a8c000c850000648e0000b89d0000de83000011
:101a9c00d08c0000855500005050000045520000cd
:101aac00b0330000508d0000845300004b490000ff
:101abc0050000000d23300005a8d00008741000016
:101acc00445200003e4900004e000000882c0000eb
:101adc00d68a000032850000328500001686000090
:101aec00de860000fc83000000000000d6860000ab
:101afc00ca890000be840000de830000648d0000f3
:101b0c00872f000053540000524900004e4700003c
:101b1c00882c0000328500004685000010860000ed
:101b2c00328500003285000016860000de8300003e
:101b3c00868d000085500000415200005345000086
:101b4c00882c0000d68a0000ca890000848400001a
:101b5c008e8d0000468500006085000032850000f7
:101b6c003689000046850000208500003284000084
:101b7c00040000001e8600006c8d000068850000cb
:101b8c009a85000016860000de830000a08d000000
:101b9c00845700004f52000044000000882c0000c5
:101bac00ee840000d68a0000ca89000084840000fc
:101bbc008e8d000032850000608d00000c850000c9
:101bcc006c8d0000a68d0000a6880000768f0000aa
:101bdc00a6880000de830000ce8d00008446000045
:101bec00494e000044000000ee330000f48d00006c
:101bfc00844700004554000043000000882c00007e
:101c0c00248a0000848400007e840000de830000af
:101c1c00fe8d000087440000454c00004c41000044
:101c2c0053540000882c0000328a00008484000089
:101c3c00fc830000d89b0000228800003284000046
:101c4c00060000007c9c0000de830000ec9e00007f
:101c5c00de830000108e000087440000454c00001d
:101c6c004c4900004e450000882c0000328a0000d0
:101c7c0084840000fc830000d89b000022880000b4
:101c8c00328400000e000000fc8300000000000005
:101c9c00749b00006a9b0000269c0000de83000001
:101cac000a9f0000de830000328e0000874e000089
:101cbc00455700004c4900004e450000882c0000a0
:101ccc00328a000084840000fc830000d89b000052
:101cdc00228800003284000006000000e09b000017
:101cec00de830000d09e0000de8300005c8e0000ce
:101cfc0086410000434300004550000054000000a2
:101d0c00882c0000468500001086000060850000cd
:101d1c00ee840000048e0000ee840000fc830000c2
:101d2c000d00000022880000328400001600000024
:101d3c000c850000808a000046850000c6840000e7
:101d4c0020850000168600001e86000068850000b5
:101d5c000c850000de830000ee840000fc83000094
:101d6c0008000000228800003284000014000000eb
:101d7c000c850000f88400002288000024840000f8
:101d8c00caff0000188e00002e860000168400008a
:101d9c00c2ff0000ee840000fc830000180000006d
:101dac0022880000328400000e0000000c85000028
:101dbc003a8e00000c850000ee84000016840000b2
:101dcc00aaff0000ee840000fc8300001600000057
:101ddc0022880000328400001a0000000c850000ec
:101dec003a8e0000c089000084840000328f00000d
:101dfc00309c00000c850000ee840000ce900000aa
:101e0c00108600001684000086ff00004685000046
:101e1c00708500002288000024840000100000005f
:101e2c00ee840000c69b000046850000c6840000be
:101e3c001e860000168400006eff00000c8500005a
:101e4c001684000068ff00007e8e000085430000b1
:101e5c004f5500004e540000882c0000ee8400000a
:101e6c008c840000608500001e86000068850000e0
:101e7c00de8300002c8f00008545000052520000cc
:101e8c004f520000882c0000ea9b0000328f0000ab
:101e9c00309c0000ea9b0000088400003f0000001a
:101eac00c69b0000fc830000000000005889000065
:101ebc00be840000a089000084840000808500009e
:101ecc00648e00001c910000428f0000883e0000d0
:101edc00434f0000554e00005445000044000000e4
:101eec00882c0000f8840000c68400001e860000c8
:101efc0020850000b6880000de8300006c8f000097
:101f0c00894900004e540000455200005052000018
:101f1c0045540000882c0000e28a0000fc8300007d
:101f2c0000000000ca890000be840000808a000006
:101f3c00d48d0000ee8400008c84000032840000fc
:101f4c0040000000568d0000fa8d00000285000054
:101f5c00328400001c0000001e860000588900001e
:101f6c008484000004880000bc87000032840000d8
:101f7c00080000007e84000016840000d8ff0000da
:101f8c002093000016840000d2ff0000768c000025
:101f9c0032840000080000008694000016840000c3
:101fac00c6ff0000328f0000309c0000fc83000054
:101fbc003f000000c69b0000648e000048900000ab
:101fcc000c850000de830000868f00008845000031
:101fdc00564100004c5500004154000045000000e3
:101fec00882c0000d68a0000608500006085000007
:101ffc00ca8900008484000060850000908f000076
:10200c0068850000ca890000be8400006885000055
:10201c0068850000e28a0000de830000ec8f00007f
:10202c00824f00004b000000882c0000609b0000d9
:10203c00fc8300000300000010860000fc830000fd
:10204c0040000000308800002484000004000000e0
:10205c00648e0000ea9b0000fc8300004f0000002f
:10206c00c69b0000fc8300004b000000c69b0000d8
:10207c00de8300001690000085410000424f0000f6
:10208c0052540000882c0000588900008484000001
:10209c0032840000140000008c890000848400004d
:1020ac00a6910000ee840000848400008c8900005e
:1020bc00be84000062890000be840000a08900007c
:1020cc0084840000808500001c9100004290000078
:1020dc00a63f0000414200004f5200005400000097
:1020ec00882c0000a09400002085000032840000a1
:1020fc000a000000328f0000309c0000648e00004b
:10210c00489000000c850000de8300006e900000fb
:10211c00c6410000424f0000525400002200000053
:10212c00882c00002094000076900000029500009e
:10213c00de8300008e900000844300004c490000b8
:10214c0050000000882c0000ee840000c0890000c4
:10215c0084840000be840000b489000084840000e4
:10216c0020850000c0890000848400001e860000c9
:10217c0020850000b6880000de830000a2900000dd
:10218c008747000045540000434c000049500000b4
:10219c00882c0000c089000084840000328f00006d
:1021ac002085000046850000b4890000848400006e
:1021bc0020850000b6880000de830000c690000079
:1021cc00a4520000455000004c000000882c000078
:1021dc00b489000084840000ee840000fc830000bd
:1021ec003f000000868e0000ee8400002e8600006a
:1021fc00a8900000ea9b0000908f00005889000016
:10220c008484000024840000040000001a90000064
:10221c00648e000016840000dcff0000e6900000d5
:10222c00845100005549000054000000882c000027
:10223c00968900008484000090850000fc830000d7
:10224c000000000058890000be840000ec900000e3
:10225c0016910000c1280000882c0000fc830000af
:10226c0029000000a68d000016850000de8300000a
:10227c0030910000c15c0000882c0000d68a000060
:10228c00108600006c8d0000de8300004091000081
:10229c00854c00004f430000414c000034340000da
:1022ac004e91000086520000454d00004f54000036
:1022bc00450000003e3400005891000087430000a8
:1022cc004f4e0000534f00004c450000882c00007e
:1022dc006091000022880000248400000e000000a1
:1022ec00fc830000d89b0000fc8300009aa3000034
:1022fc001684000012000000c28a0000429e0000fa
:10230c00fc830000569e0000fc830000be9e000073
:10231c00b88a0000429e0000248a0000be8400009f
:10232c00328a0000be840000de830000649100004d
:10233c00874e0000464100003e4c00004641000024
:10234c00882c0000fc8300000200000016860000b0
:10235c00de8300009e910000874e00004641000085
:10236c003e43000046410000882c0000ee84000033
:10237c008c840000fc8300001f000000b487000068
:10238c00108600001e86000092880000de8300008c
:10239c00b2910000853e0000424f000044590000fd
:1023ac00882c0000ee84000084840000fc83000074
:1023bc004834000022880000328400000400000031
:1023cc005a8800005a880000de830000d09100007b
:1023dc0087430000464100003e4e0000464100008d
:1023ec00882c0000ee840000fc8300000013000029
:1023fc003e880000328400000a000000ee840000d9
:10240c00c4870000168400005a000000ee8400000f
:10241c0060850000fc830000210000006085000046
:10242c002e860000ee8400008c840000ee840000f8
:10243c00fc83000080000000b487000024840000ae
:10244c00140000000c850000688500002e8600003a
:10245c00ee840000328400002a0000006085000039
:10246c0016840000deff0000688500000c8500006b
:10247c00fc8300001f000000b487000046850000ac
:10248c00108600001e8600009288000068850000ff
:10249c0022880000ee840000328400000c00000052
:1024ac000c850000168400000a00000068850000fe
:1024bc000c850000208500000c850000de830000e8
:1024cc00ee910000863f0000454d00005054000086
:1024dc0059000000882c0000ca8a0000a688000061
:1024ec0022880000de830000689200008949000009
:1024fc004d4d00004544000049410000544500008a
:10250c00882c00007092000024840000120000004f
:10251c008c89000084840000ee8400008c84000010
:10252c00568a0000bc87000020850000c68400008d
:10253c00de8300007c9200008448000049440000c7
:10254c0045000000882c00007092000024840000dc
:10255c00120000008c89000084840000ee840000ce
:10256c008c840000628a0000bc870000208500007b
:10257c00c6840000de830000a2920000a7280000a1
:10258c004e4d0000415200004b290000882c0000e9
:10259c007092000024840000120000008c8900005e
:1025ac0084840000ee8400008c8400006c8a00009f
:1025bc00bc87000020850000c6840000de8300007c
:1025cc00c4920000865200004556000045410000b0
:1025dc004c000000882c0000709200002484000045
:1025ec00140000008c89000084840000ee8400003c
:1025fc008c840000628a0000d8870000b487000039
:10260c0020850000c6840000de830000e8920000f4
:10261c00854100004c4c00004f540000882c0000f9
:10262c006289000066860000de8300000e930000c5
:10263c00812c0000882c0000a6880000be840000bd
:10264c00fc8300000200000014930000de830000f5
:10265c001e930000824300002c000000882c000018
:10266c00a6880000c6840000fc8300000100000066
:10267c0014930000de8300003093000081270000db
:10268c00882c0000808a0000d48d0000ee840000ad
:10269c008c8400000488000050970000568d0000c8
:1026ac00fa8d000032840000060000001684000041
:1026bc0012000000328f0000309c0000ea9b0000ea
:1026cc00fc8300003f000000c69b0000648e0000ed
:1026dc0048900000de83000044930000c35b0000c0
:1026ec00275d0000882c00002a970000469300000c
:1026fc0020940000fc83000020930000de83000087
:10270c0074930000c53c00004d410000524b00008a
:10271c00882c00002a970000a6880000de830000a9
:10272c0088930000c83c000052450000534f000045
:10273c004c56000045000000882c00002a97000031
:10274c00a68800001686000020930000de8300009f
:10275c0098930000c53e00004d410000524b000014
:10276c00882c00002a970000a6880000fc8300003b
:10277c000000000020930000de830000b0930000f6
:10278c00c83e000052450000534f00004c5600005c
:10279c0045000000882c00002a970000ee84000001
:1027ac00a688000020850000168600002085000009
:1027bc00be840000de830000c6930000c15b0000f5
:1027cc00882c0000fc8300000000000058890000e9
:1027dc00be840000de830000e4930000c15d0000b5
:1027ec00882c0000fc830000ffff000058890000cb
:1027fc00be840000de830000f4930000c95b00007f
:10280c00434f00004d500000494c0000455d000056
:10281c00882c00002a9700004693000020930000ab
:10282c00de83000004940000c64300004641000013
:10283c002c000000882c000068850000ee8400004d
:10284c0084840000209300005a88000060850000fa
:10285c00de8300001a940000853f0000574f0000f3
:10286c0052440000882c0000808a0000d48d0000a7
:10287c00568d0000fa8d00000285000004880000cf
:10288c00328400000e000000328f0000309c0000eb
:10289c00fc8300003f000000c69b00004890000035
:1028ac00de83000032940000c85000004f5300003b
:1028bc00545000004f4e000045000000882c0000d2
:1028cc002a970000389400001c8800000c000000bf
:1028dc00fc830000fc8300002093000016840000a1
:1028ec000400000020930000de8300005a940000d6
:1028fc00c74c00004954000045520000414c0000f8
:10290c00882c000058890000848400003284000068
:10291c000800000020940000fc83000020930000bd
:10292c00de8300007e940000a5280000444f0000c8
:10293c0024290000882c00006885000070850000a8
:10294c0068850000328f000010860000928800001d
:10295c00608500002085000060850000de8300009b
:10296c009a940000a42800005322000029000000c3
:10297c00882c0000a0940000328f0000de83000041
:10298c00b8940000a4280000432200002900000095
:10299c00882c0000a0940000de830000c894000086
:1029ac00a42800002e22000029000000882c000022
:1029bc00a0940000328f0000309c0000de830000e9
:1029cc00d6940000a45300004c49000054000000b1
:1029dc00882c0000fc83000022000000d48d000035
:1029ec00328f0000de830000e8940000a428000071
:1029fc002c22000029000000882c0000ee9400001e
:102a0c00108600009288000062890000be840000dd
:102a1c00de830000fc940000c25300002200000082
:102a2c00882c00002a97000020940000be9400001f
:102a3c0002950000de83000012950000c2430000e6
:102a4c0022000000882c00002a970000209400002f
:102a5c00ce94000002950000de8300002495000057
:102a6c00c22e000022000000882c000058890000b3
:102a7c0084840000328400000a00000020940000ce
:102a8c00dc94000002950000de830000ee94000050
:102a9c00309c0000de83000036950000c752000019
:102aac00454300005552000053450000882c00009f
:102abc008c89000084840000ba91000020930000ef
:102acc00de83000054950000c24400004f0000005b
:102adc00882c00002a970000209400003c84000001
:102aec00a6880000b8850000fc83000000000000f0
:102afc00b8850000de8300006a950000c33f00002b
:102b0c00444f0000882c00002a97000020940000fd
:102b1c0046840000a6880000fc8300000200000030
:102b2c006488000010860000b8850000fc8300005b
:102b3c0000000000b88500002094000016840000fe
:102b4c00b6930000b8850000de8300008495000079
:102b5c00c54c00004541000056450000882c000083
:102b6c002a97000020940000e684000020940000c6
:102b7c0016840000b6930000b8850000de830000c8
:102b8c00ae950000e7460000495800004c4f00008d
:102b9c004f500000882c0000c28500000285000008
:102bac003284000014000000ee840000a6880000af
:102bbc005a88000020850000168600002085000041
:102bcc00be84000016840000e8ff0000c2850000ef
:102bdc00a2930000de830000c8950000c44c0000e6
:102bec004f4f000050000000882c00002a97000076
:102bfc002094000052840000d0950000de83000079
:102c0c00f4950000c52b00004c4f00004f50000005
:102c1c00882c00002a970000209400005e8400009d
:102c2c00d0950000de83000008960000c54200002d
:102c3c0045470000494e0000882c00002a970000f0
:102c4c008e930000de8300001c960000c54100003e
:102c5c0047410000494e0000882c00002a970000d4
:102c6c002094000016840000a2930000de83000074
:102c7c002c960000c55500004e540000494c000035
:102c8c00882c00002a970000209400003284000059
:102c9c00a2930000de83000040960000c2490000b1
:102cac0046000000882c00002a97000020940000a9
:102cbc0032840000b6930000de83000054960000be
:102ccc00c4540000484500004e000000882c000051
:102cdc002a970000d0930000de8300006696000067
:102cec00c44500004c53000045000000882c000037
:102cfc002a9700002094000016840000b693000070
:102d0c00208500006c960000de83000076960000a3
:102d1c00c5570000484900004c450000882c0000b5
:102d2c002a9700002094000032840000b693000023
:102d3c0020850000de8300008e960000c652000045
:102d4c00455000004541000054000000882c000054
:102d5c002a9700002094000016840000a293000023
:102d6c00d0930000de830000a4960000c443000052
:102d7c004153000045000000882c00002a970000f9
:102d8c00fc83000000000000de830000bc96000005
:102d9c00c24f000046000000882c00002a9700005b
:102dac00209400004685000020940000228800003a
:102dbc002094000032840000b6930000de830000f3
:102dcc00ce960000c54500004e4400004f46000062
:102ddc00882c00002a970000209400001684000024
:102dec00b693000020850000d0930000de83000025
:102dfc00e8960000c74500004e4400004341000027
:102e0c0053450000882c00002a9700000285000022
:102e1c003284000008000000d093000016840000eb
:102e2c00f6ff0000209400000c850000de830000fb
:102e3c0000970000c83f0000434f00004d500000b9
:102e4c00494c000045000000882c00005889000007
:102e5c008484000004880000769000001163000058
:102e6c006f6d0000706900006c650000206f000041
:102e7c006e6c000079200000776f00007264000017
:102e8c00de83000020970000853f00004e410000cb
:102e9c004d450000882c0000769000000c6e000060
:102eac00616d0000652000006d6900007373000007
:102ebc00696e000067000000de8300004a97000086
:102ecc00873a00004e4f00004e4100004d45000077
:102edc00882c0000a688000020940000882c00009c
:102eec00f6930000de83000066970000c5450000e5
:102efc0058490000542c0000882c0000209400003d
:102f0c00de830000de8300007c9700008648000012
:102f1c00454100004445000052000000882c000090
:102f2c008c890000ee840000848400002093000053
:102f3c00a688000020850000be840000808a000066
:102f4c00d48d0000568d00008c840000ee840000af
:102f5c0004880000509700001e86000014930000a7
:102f6c006e880000cc920000a8920000de83000066
:102f7c008c970000864600004f5200004745000029
:102f8c0054000000882c000046930000f6910000cd
:102f9c00a6910000ee840000fc830000008000007d
:102fac0046880000769000001a430000616e000015
:102fbc0027740000206600006f7200006765000037
:102fcc0074200000776f000072640000206900001c
:102fdc006e200000464c00004153000048000000e9
:102fec00ee84000062890000be840000848400002e
:102ffc008c890000be840000de830000c0970000b6
:10300c00813a0000882c000094970000f693000091
:10301c0020940000882c0000de830000069800003d
:10302c00864e0000455700004c4900004e450000fc
:10303c004541000054450000882c00009497000086
:10304c00f0920000fc830000483400002093000044
:10305c0020940000e6830000de830000882c000032
:10306c0068850000ee8400005a880000608500002e
:10307c00848400008c89000084840000ba910000d4
:10308c005a880000be840000de8300001698000001
:10309c00c54400004f450000533e0000882c000042
:1030ac002094000034980000a6880000fc830000e7
:1030bc0002000000648800001086000020930000cd
:1030cc00829700006e9700000c850000de830000e4
:1030dc004e98000088560000415200004941000003
:1030ec00424c000045000000882c00002298000093
:1030fc00fc8300000000000020930000de83000031
:10310c0070980000884300004f4e0000535400009c
:10311c00414e000054000000882c000094970000e1
:10312c00f0920000fc830000a82c0000209300000b
:10313c0020930000de83000088980000c13b000053
:10314c00882c00002a97000082970000f092000063
:10315c00e6930000de830000a4980000a82800007d
:10316c004e4f0000494e0000495400002900000059
:10317c00882c0000dc9400001a5500006e690000d9
:10318c006e69000074690000616c0000697a0000cf
:10319c006564000020640000656600006572000034
:1031ac0065640000207700006f720000640000006e
:1031bc00648e000048900000b49800008544000024
:1031cc004546000045520000882c000094970000f2
:1031dc0020940000882c000020940000be98000071
:1031ec0020940000de830000f0920000de830000db
:1031fc00e49800008644000045460000455200005b
:10320c0021000000882c00005a880000be840000b9
:10321c00de83000000990000864400004546000053
:10322c004552000040000000882c00005a88000025
:10323c0084840000de8300001299000082490000a3
:10324c0053000000882c0000389400000c8500000e
:10325c005a880000be840000de8300002499000020
:10326c00c22e000028000000882c0000fc83000007
:10327c0029000000d48d0000328f0000309c00002b
:10328c00de83000036990000833200003e520000bd
:10329c00882c0000688500003c850000208500001b
:1032ac00608500006085000060850000de83000002
:1032bc004a99000083320000523e0000882c000026
:1032cc006885000068850000688500002085000086
:1032dc003285000060850000de83000060990000ec
:1032ec008332000052400000882c000068850000ea
:1032fc006885000070850000468500006085000030
:10330c00328500006085000020850000de8300000f
:10331c0076990000843f00004453000050000000e8
:10332c00882c000078850000a089000084840000af
:10333c003e880000769000001153000020730000be
:10334c0074610000636b0000207500006e64000067
:10335c0065720000666c00006f77000078850000d5
:10336c00a089000084840000fc8300004000000061
:10337c00368600001086000046880000769000001b
:10338c00105300002073000074610000636b000098
:10339c00206f000076650000726600006c6f000004
:1033ac0077000000de83000090990000822e000060
:1033bc0053000000882c0000a48500000884000045
:1033cc003c000000c69b0000ee840000b89d00008d
:1033dc00088400003e000000c69b0000ea9b000031
:1033ec0002850000328400000e000000ee84000014
:1033fc00ae850000b89d00002e86000016840000eb
:10340c00f0ff0000de830000dc990000842e000039
:10341c00525400004e000000882c00006e89000001
:10342c0084840000ea85000008840000520000003b
:10343c00c69b0000088400003a000000c69b0000f8
:10344c009689000084840000ee84000084840000cf
:10345c00b89d000026860000ee84000088850000e0
:10346c00fc83000002000000168600002288000089
:10347c0032840000eaff0000648e00000c8500001e
:10348c006e890000be840000de8300000c9a0000f0
:10349c0084440000554d000050000000882c0000b2
:1034ac00028500002484000004000000de8300007c
:1034bc006e8900008484000060850000ea850000ad
:1034cc0020850000fc830000feff0000b487000094
:1034dc0020850000fc830000000000003c840000fc
:1034ec00d4840000fc8300000f000000b4870000af
:1034fc00248400000e000000648e0000ee840000a6
:10350c00fc83000004000000969d0000ea9b000074
:10351c00ee8400009c840000fc830000030000008b
:10352c00969d0000fc830000010000001086000046
:10353c0052840000d6ff00000c8500006885000056
:10354c006e890000be840000de8300004e9a0000ed
:10355c00854400004542000055470000882c0000bf
:10356c00188a0000be840000de830000ae9a0000c2
:10357c008542000052450000414b0000882c0000a1
:10358c00188a0000848400002484000006000000d7
:10359c000c850000de830000888500000c8a00008a
:1035ac00be840000648e0000dc9400000d620000fc
:1035bc0072650000616b0000207000006f690000f4
:1035cc006e7400003a200000b89d0000648e00006c
:1035dc00e0990000648e0000ec900000de83000097
:1035ec00be9a00008652000045530000554d000065
:1035fc0045000000882c0000188a0000848400001c
:10360c0032840000160000000c8a00008484000044
:10361c0002850000328400000c0000009085000040
:10362c00fc830000000000000c8a0000be84000037
:10363c00de83000052340000f89a0000855600002a
:10364c00494400004f4e0000b6340000249b00009b
:10365c008743000055520000454e0000424c0000cc
:10366c00c23400002e9b0000834300004c5300002a
:10367c00de3400003a9b00008653000043520000e9
:10368c004c55000050000000fa340000429b000032
:10369c0086530000435200004c4400004e000000d2
:1036ac00043500004e9b0000844700004554000088
:1036bc00580000000e3500005a9b000084470000a3
:1036cc0045540000590000001c350000649b0000ac
:1036dc008453000045540000580000002a350000b7
:1036ec006e9b0000845300004554000059000000fc
:1036fc0048350000789b00008643000055520000be
:10370c00504f000053000000882c0000749b0000f8
:10371c007e9b0000de830000829b0000875300002c
:10372c00435200004348000041520000663500003f
:10373c00949b0000844c000045460000540000009f
:10374c008e350000a09b0000855200004947000008
:10375c0048540000b4350000aa9b000087540000b8
:10376c00474c00004348000041520000de35000089
:10377c00b49b0000844500004d490000540000003b
:10378c00882c0000328a0000848400007e840000b3
:10379c00de830000c09b00008450000055540000e4
:1037ac0043000000f4350000d29b0000824300006f
:1037bc005200000014360000dc9b00008553000012
:1037cc005041000043450000882c0000fc830000a1
:1037dc0020000000c69b0000de830000e49b00007c
:1037ec008653000050410000434500005300000088
:1037fc00882c0000ee840000fc8300000000000018
:10380c003688000024840000060000000c850000af
:10381c00de830000fc830000000000003c840000fc
:10382c00ea9b000052840000fcff0000de830000d5
:10383c00f69b0000854300004c5200004c4e0000eb
:10384c0026360000209c00008454000059500000d3
:10385c0045000000882c0000ee8400002484000049
:10386c000600000016850000de830000fc830000cb
:10387c00000000003c840000ee8400008c840000fa
:10388c0002850000328400000e000000c69b000080
:10389c001e86000052840000f0ff00001684000019
:1038ac0004000000e68400000c850000de830000ac
:1038bc002a9c000086440000454c00004554000042
:1038cc0045000000882c0000808a0000c69b000088
:1038dc00de830000609c0000884200004143000031
:1038ec004b4300004841000052000000882c0000af
:1038fc00a69b0000689c0000a69b0000de830000d5
:10390c00729c0000854400004947000049540000a7
:10391c00882c0000fc830000090000004685000094
:10392c0030880000fc83000007000000b487000012
:10393c0010860000fc8300003000000010860000a0
:10394c00de830000889c000087450000585400006e
:10395c005241000043540000882c0000ce86000029
:10396c00328500008e9c0000de830000aa9c0000c3
:10397c00823c000023000000882c0000aa89000073
:10398c0084840000988a000010860000d48900000e
:10399c00be840000de830000be9c00008448000052
:1039ac004f4c000044000000882c0000fc830000f9
:1039bc00ffff0000d489000066860000d489000057
:1039cc0084840000c6840000de830000d49c0000c8
:1039dc0081230000882c00006e8900008484000084
:1039ec00b29c0000da9c0000de830000ee9c00001c
:1039fc008223000053000000882c0000f09c000083
:103a0c00f8840000bc87000024840000f8ff00004c
:103a1c00de830000fe9c0000845300004947000038
:103a2c004e000000882c0000148800003284000036
:103a3c0008000000088400002d000000da9c000043
:103a4c00de830000129d0000822300003e00000077
:103a5c00882c000016850000d489000084840000a6
:103a6c00aa89000084840000988a00001086000057
:103a7c004685000016860000de8300002a9d0000ab
:103a8c008353000054520000882c0000ee84000088
:103a9c006085000022870000c29c0000029d00008f
:103aac0068850000189d00002e9d0000de8300003c
:103abc00469d0000874300004f4c00004649000023
:103acc004c4c0000882c000016860000ee84000090
:103adc001c88000024840000080000000c850000f5
:103aec001684000004000000fe9b0000de83000032
:103afc00609d0000822e000052000000882c000007
:103b0c00608500002a870000688500000a9e00007e
:103b1c00de830000809d0000835500002e520000c3
:103b2c00882c000060850000fc8300000000000071
:103b3c0068850000229e0000de830000929d00003c
:103b4c00825500002e000000882c0000fc83000031
:103b5c0000000000e69d0000de830000a69d000032
:103b6c00812e0000882c00002a870000fa9d00009e
:103b7c00de830000b69d0000813f0000882c000011
:103b8c00fc830000feff0000b4870000848400006a
:103b9c00b89d0000de830000c29d0000824300003f
:103bac003f000000882c00008c840000b89d0000b1
:103bbc00de830000d49d000083550000442e0000dd
:103bcc00882c0000c29c0000029d00002e9d00006d
:103bdc00ea9b0000309c0000de830000e29d0000a8
:103bec00824400002e000000882c00004a9d00003a
:103bfc00ea9b0000309c0000de830000f69d000074
:103c0c00834400002e520000882c000060850000c8
:103c1c004a9d00006885000046850000689d0000f4
:103c2c00309c0000de830000069e000084550000de
:103c3c00442e000052000000882c0000608500001b
:103c4c00c29c0000029d00002e9d000068850000b3
:103c5c0046850000689d0000309c0000de8300005b
:103c6c004e3600001c9e0000875300004552000099
:103c7c00454e0000424c0000823600003a9e000087
:103c8c0084420000415500004400000098360000ba
:103c9c00469e000085530000505500005443000020
:103cac00be360000509e00008553000047450000c2
:103cbc0054430000ec3600005a9e0000855600006c
:103ccc0054460000494c00005445000052000000ce
:103cdc00882c0000ee840000fc8300001f00000014
:103cec00368800003284000004000000de830000ef
:103cfc00ee840000088400001b00000022880000f5
:103d0c0032840000080000000c850000609e00005a
:103d1c00de830000fc8300009a9e000010860000e9
:103d2c008c840000de830000202000002020000096
:103d3c00202000002020000008200000202000008f
:103d4c000c0d00002020000020200000202000008e
:103d5c00202000001620000016200000202000006b
:103d6c00649e000085560000544b0000455900002d
:103d7c00882c0000609e00006e9e0000de83000018
:103d8c00b89e00008656000054430000524c0000c0
:103d9c0046000000882c0000fc8300000d00000091
:103dac00569e0000fc8300000a000000569e000096
:103dbc00de830000c89e00008956000054440000b9
:103dcc00454c000042410000434b0000882c000091
:103ddc00fc83000008000000569e0000808a000052
:103dec00569e0000fc83000008000000569e000058
:103dfc00de830000e29e0000875600005444000061
:103e0c00454c00004c4e0000882c0000fc83000048
:103e1c001b000000569e0000fc8300005b000000ad
:103e2c00569e0000fc83000032000000569e0000ed
:103e3c00fc8300004b000000569e0000fc83000039
:103e4c000d000000569e0000de830000029f000063
:103e5c0089560000543f00004355000052530000a7
:103e6c004f520000882c0000fc8300001b00000057
:103e7c00569e0000fc8300005b000000569e000074
:103e8c00fc83000036000000569e0000fc830000fe
:103e9c006e000000569e0000de8300002e9f000086
:103eac008756000054470000455400005958000044
:103ebc00882c0000389f0000609e0000fc830000ee
:103ecc001b0000002288000032840000f6ff000076
:103edc00609e00000c850000609e0000fc830000ca
:103eec003000000016860000609e0000ee8400008a
:103efc00fc8300003b0000002288000024840000aa
:103f0c0014000000fc830000300000001686000046
:103f1c0020850000fc8300000a000000748600006d
:103f2c0010860000609e00000c850000609e000062
:103f3c00fc8300003000000016860000609e00002c
:103f4c00ee840000fc830000520000002288000078
:103f5c002484000014000000fc83000030000000ea
:103f6c001686000020850000fc8300000a0000007b
:103f7c007486000010860000609e00000c85000016
:103f8c00de830000569f0000835800004f4e000057
:103f9c0024370000ca9f0000845800004f460000e0
:103fac00460000002e37000038370000d29f00007a
:103fbc00845400004f4e00004500000056370000ae
:103fcc0076370000de9f000086520000535400003c
:103fdc004f52000045000000f8370000ea9f000037
:103fec00855200004c4f000041440000383800005e
:103ffc00f69f0000843f000057490000500000006d
:10400c007238000000a000008457000057490000df
:10401c0050000000882c000006a000002484000042
:10402c00fcff0000de8300000aa0000087450000b2
:10403c00455700005249000054450000a0380000cc
:10404c001ca00000864500004552000045410000c0
:10405c0044000000fe38000028a000008545000048
:10406c0050410000474500003c39000034a00000de
:10407c008745000053450000435400004f52000098
:10408c00463900003ea0000084450000414c000071
:10409c004c000000503900004aa00000864500008a
:1040ac004552000041530000450000005a39000001
:1040bc0054a00000843f0000494d00004700000060
:1040cc00882c0000a2a00000fc8300000800000067
:1040dc004ea20000ee84000066a2000032850000b3
:1040ec00fe89000084840000ae8400007e84000001
:1040fc00c4a00000ae840000aca000002288000028
:10410c00de83000060a00000853f000053490000e2
:10411c005a450000882c0000fea00000ae84000070
:10412c00de8300008aa00000864200005448000094
:10413c004541000044000000bc3900009aa000007a
:10414c00854d00004147000049430000c63900007e
:10415c00a6a000008646000042540000524f00000a
:10416c0057000000d0390000b0a0000086420000cb
:10417c0054530000494700004e000000882c0000fa
:10418c00fc83000000000000a2a00000de83000001
:10419c00bca0000087420000544c000041540000b9
:1041ac0053540000882c0000fc8300000100000028
:1041bc00a2a00000de830000d0a00000844200001a
:1041cc005444000050000000882c0000fc830000c8
:1041dc0002000000a2a00000de830000e4a00000aa
:1041ec008642000054530000495a0000450000006c
:1041fc00882c0000fc83000003000000a2a000003b
:10420c00de830000f6a00000895300004554000036
:10421c00484500004144000045520000882c000035
:10422c00aca00000c4a00000b8840000a688000068
:10423c00eaa00000b88400008c890000848400008f
:10424c00d8a00000b8840000a6880000ca8a00002c
:10425c0016860000fea00000b8840000de8300007b
:10426c000aa1000086520000414d00003e450000ae
:10427c0045000000882c00004e99000002850000cb
:10428c003284000036000000f88400007a990000a7
:10429c00fc83000000010000c28600000c850000b9
:1042ac00fc83000000010000208500001686000041
:1042bc00de8600002085000046850000ee840000ac
:1042cc007a990000328500006085000024a000006f
:1042dc007085000016860000688500006499000057
:1042ec00328500006e86000016840000c6ff0000b8
:1042fc000c8500006499000016850000de83000028
:10430c0038a1000084580000524100004d0000000c
:10431c009e2c000003000000fc9f0000f29f000098
:10432c00fc9f0000f29f000088a10000884b000059
:10433c0045590000424f000041520000440000006b
:10434c009e2c0000000000009aa300006ca300004b
:10435c0078a30000e68300009ca1000086530000b7
:10436c0043520000454500004e0000009e2c00000a
:10437c00010000009c9b0000d89b0000e68300001d
:10438c00e6830000b4a100008653000045520000f3
:10439c00494100004c0000009e2c0000020000006f
:1043ac00be9e0000569e0000609e0000e68300004a
:1043bc00caa100008645000045500000524f000085
:1043cc004d0000009e2c00000400000030a00000f6
:1043dc0024a0000030a0000040a10000e0a10000db
:1043ec00865300004443000041520000440000008a
:1043fc009e2c00000500000092a50000a0a5000066
:10440c002ca60000dea50000f6a10000864d0000e1
:10441c00464c000041530000480000009e2c000058
:10442c0006000000aca300006ea40000d4a40000a1
:10443c0094a400000ca20000854400004556000026
:10444c0049440000da39000022a20000874600002f
:10445c004e5f00005245000041440000e43900006a
:10446c002ca20000884600004e5f0000575200004e
:10447c004954000045000000ee39000038a200004d
:10448c00874600004e5f0000494d0000473e00008b
:10449c00f839000046a20000874600004e5f00007d
:1044ac003e4900004d470000023a000052a20000b5
:1044bc00874200004f4f000054410000445200005e
:1044cc00882c0000fe89000084840000ee8400002b
:1044dc0014a20000228800002484000018000000b0
:1044ec00208500000c850000fea100002288000041
:1044fc00328400001e000000fc830000010000005c
:10450c00fc83000000000000de8300000c8500002e
:10451c005aa200002288000032840000040000002f
:10452c0020a50000b8a0000024a40000de83000039
:10453c00fc83000000000000ee840000de8300001d
:10454c005ea20000844900004d47000021000000dd
:10455c00882c0000709200003284000006000000dd
:10456c000c850000de830000fe890000be84000084
:10457c0014a100005aa20000a2a0000090a000000c
:10458c00fc8300000800000010860000328500004b
:10459c00ee84000066a2000032850000fe89000057
:1045ac0084840000ae8400007e840000de83000062
:1045bc00a8a20000844900004d4700004000000004
:1045cc00882c0000fe890000be84000066a000005c
:1045dc00cc87000076900000184e00006f20000081
:1045ec00626f00006f740000206900006d610000b4
:1045fc00676500002061000076610000696c0000b6
:10460c00616200006c6500002e000000a2a000009a
:10461c0090a00000fc830000080000001086000041
:10462c004ea20000ee84000066a20000328500005d
:10463c00fe89000084840000ae8400007e840000ab
:10464c007e89000084840000ca8a000084840000f3
:10465c002a88000076900000144200006f6f000062
:10466c0074200000696d0000616700006520000087
:10467c006f750000746400006174000065640000d4
:10468c002e000000eaa00000ae8400006289000049
:10469c00be840000d8a00000ae8400008c8900000d
:1046ac00be840000de830000e0a20000844c000009
:1046bc004f41000044000000882c000034a2000090
:1046cc0020850000de8300000c3a00003c3a00001c
:1046dc00563a00005ca30000844500004b450000e6
:1046ec0059000000783a000072a30000843f0000db
:1046fc004b45000059000000882c000078a30000f6
:10470c006ea30000ee84000032840000060000005e
:10471c00fc830000ffff0000de8300007ca3000090
:10472c00834b000045590000882c000082a3000038
:10473c0032840000fcff0000de83000096a3000022
:10474c0085540000424c0000404c00009a3a000096
:10475c00a6a3000085540000424c00004048000015
:10476c00aa3a0000b0a300008249000040000000fb
:10477c00ba3a0000baa3000085460000414400008c
:10478c0044520000d63a0000c2a300008546000047
:10479c004e45000058540000e43a0000f23a000084
:1047ac001a3b0000cca300008555000044520000c9
:1047bc00454c00003c3b0000daa30000883f0000a1
:1047cc00464c0000494d00004954000053000000c5
:1047dc00882c0000f8840000fc830000008000009e
:1047ec00fc83000000000000e0a30000148800001f
:1047fc003284000008000000fc8300000000000070
:10480c00de830000f8840000fc830000eb570000fe
:10481c00fc83000005000000e0a3000014880000e9
:10482c00de830000e4a30000885200004f57000014
:10483c003e4600004144000052000000882c00005d
:10484c00fc830000000800007c860000de83000072
:10485c001aa4000086460000455200004153000097
:10486c0045000000882c000024a40000eea30000ea
:10487c00328400001e00000020850000fc83000034
:10488c0000f80000b487000020850000c28a0000f8
:10489c002a9b0000c8a30000fc830000030000005a
:1048ac00d6a30000b88a00002a9b0000de8300001b
:1048bc00e099000016850000de83000030a40000a3
:1048cc00863e0000464c00004153000048000000aa
:1048dc00882c0000eea300002484000008000000d7
:1048ec00168500000c850000de830000c8a30000c4
:1048fc00d4a30000fc83000001000000d6a300003c
:10490c00de83000066a4000089520000414d0000c7
:10491c003e4600004c41000053480000882c00002b
:10492c00eea300002484000008000000168500009f
:10493c0016850000de830000c8a30000fc83000085
:10494c00000000003c840000ee840000d4a30000b2
:10495c00fc83000001000000d6a30000d2a30000dd
:10496c00fc8300000600000010860000fc830000a1
:10497c00060000005e840000e8ff00000c850000cb
:10498c00de8300008aa40000894600004c41000030
:10499c00534800003e520000414d0000882c00009e
:1049ac0032850000fc830000000000003c84000005
:1049bc00f8840000fc830000020000006e860000fa
:1049cc004e990000bea300003c8500004e990000eb
:1049dc0046850000c68400001e8600006885000025
:1049ec0046850000c68400001e8600006885000015
:1049fc0046850000c68400001e86000064990000f5
:104a0c00fc830000030000005e840000d2ff000065
:104a1c00168500000c850000de830000caa400008f
:104a2c00894500005241000053450000524f0000e0
:104a3c0057530000882c0000a2a00000fea000002c
:104a4c001086000084840000fc8300000800000035
:104a5c0010860000fc830000000c0000b6860000ed
:104a6c002085000032840000040000001e86000037
:104a7c00b8a0000020850000fc83000000000000ae
:104a8c003c840000ee84000038a400001e86000068
:104a9c0052840000f8ff00000c850000de8300004b
:104aac0016a500008753000044430000494e000047
:104abc0049540000623b000058a50000843f0000f0
:104acc0053440000430000002c3c000064a500008f
:104adc00863f000053440000434f00004b00000091
:104aec00882c00006aa50000fc8300000100000077
:104afc00fc8300000100000052860000b487000017
:104b0c00de8300006ea500008753000044430000c4
:104b1c005245000041440000363c00008aa50000cc
:104b2c0088530000444300005752000049540000d1
:104b3c0045000000823c000096a50000874e000056
:104b4c0053450000435400004f520000882c0000d5
:104b5c00fc8300000002000016860000fc830000ad
:104b6c0000000000d686000020850000fc830000b9
:104b7c0000020000108600002085000068850000ff
:104b8c0064990000fc830000010000006e860000a8
:104b9c004e99000060850000de830000a4a5000093
:104bac00874900004d4700003e530000444300007d
:104bbc00882c00004e99000076a50000248400008b
:104bcc000800000060a50000328400001c000000fa
:104bdc00468500007a990000a0a50000aca5000055
:104bec00ee840000328400000600000016840000f1
:104bfc00f0ff000016850000649900001685000087
:104c0c00de830000dc9400001253000044630000bb
:104c1c00617200006420000077720000697400006b
:104c2c006520000065720000726f000072000000c9
:104c3c00648e000048900000d6a500008753000049
:104c4c00444300003e4900004d470000882c000002
:104c5c004e99000076a50000248400000800000096
:104c6c0060a5000032840000200000004685000092
:104c7c007a99000092a50000328400001600000012
:104c8c00aca50000ee840000328400000600000099
:104c9c0016840000ecff00001685000064990000eb
:104cac0016850000de830000dc9400001153000028
:104cbc004463000061720000642000007265000013
:104ccc006164000020650000727200006f720000c9
:104cdc00648e000048900000882c0000fc830000cb
:104cec009a1200008484000004880000de83000017
:104cfc00882c00009aa6000098a60000209b0000bb
:104d0c006aa30000369e0000e69f0000da9f0000b8
:104d1c00a0a600006ca3000060a500000c8500009c
:104d2c00de830000f23c00000e3d00001e3d000042
:104d3c002a3d0000363d00003e3d000024a6000048
:104d4c0085540000494300004b530000583d0000bf
:104d5c00a6a6000084550000534500004300000047
:104d6c00623d0000b0a60000844d000053450000d9
:104d7c0043000000743d0000baa60000844c000003
:104d8c004653000052000000843d0000c4a6000001
:104d9c0084520000414e0000440000009c3d000085
:104dac00cea6000085530000524100004e44000086
:104dbc00ce3d0000d8a60000854300004c45000005
:104dcc0041520000882c0000ca8a00006289000051
:104ddc00be8400007e890000848400008c89000061
:104dec00be840000de830000e2a6000086550000b1
:104dfc004e5500005345000044000000882c000074
:104e0c00a48a0000a688000016860000de8300003d
:104e1c00fca600008446000052450000450000003e
:104e2c00882c000004a70000b89d0000de83000061
:104e3c0010a70000884800004541000050530000b6
:104e4c00495a000045000000de3d000020a700008c
:104e5c008743000052430000454e0000424c0000c6
:104e6c00e83d00002ea70000883f000043520000e0
:104e7c0043460000494600004f000000f83d00008a
:104e8c003aa7000085430000524300004c45000047
:104e9c000c3e000048a7000088430000524300006d
:104eac005354000041520000540000001c3e00000e
:104ebc0052a70000854300005243000044570000f5
:104ecc00263e000060a7000085430000524300000e
:104edc00504c00003c3e00006aa7000087430000d5
:104eec0052430000504f00004c590000503e00004f
:104efc0074a70000844300005243000040000000ef
:104f0c005e3e000080a70000854300005243000075
:104f1c0044400000683e00008aa700008443000063
:104f2c005243000030000000763e000094a70000c1
:104f3c00854300005243000043210000843e0000e2
:104f4c009ea7000084430000524300002100000093
:104f5c00943e0000a8a700008543000052430000c7
:104f6c0044210000a23e0000b2a7000087430000cd
:104f7c0052430000444f00004e450000b63e000076
:104f8c00bca70000854300005243000031360000ee
:104f9c00882c00009aa70000b88a000036a70000f1
:104fac00fc8300000800000066a70000fc830000e2
:104fbc001000000070a70000fc830000211000000e
:104fcc00fc830000000000007ca70000c28a0000e7
:104fdc004ea700005ca70000de830000c8a70000fd
:104fec00844300005243000037000000882c00006e
:104ffc009aa70000b88a000036a70000fc830000c6
:10500c000600000066a70000fc83000006000000fc
:10501c0070a70000fc83000088000000fc830000e7
:10502c00000000007ca70000c28a00004ea7000010
:08503c005ca70000de83000008
:020000040000fa
:10504400000000000000000000000000000000005c
:1050540000000000000f000008080000080800001d
:1050640008080000080f0000000000000000000015
:105074000000000000f80000080800000808000014
:105084000808000008f8000000000000000000000c
:1050940008080000080800000808000008080000cc
:1050a4000000000000ff00000000000000000000fd
:1050b4000808000008ff00000808000008080000b5
:1050c40000000000000000000000000000000000dc
:1050d40000000000000000000000000000000000cc
:1050e40000000000000000000000000000000000bc
:1050f4000000000000ff000008080000080800008d
:105104000808000008ff0000000000000000000084
:10511400000000000000000000000000000000008b
:1051240008080000080f0000080800000808000034
:105134000808000008f8000008080000080800003b
:1051440080c00000e0f00000e0c00000800000002b
:1051540001030000070f0000070300000100000026
:10516400000000000000000000000000000000003b
:10517400000000000000000000000000000000002b
:10518400000000000000000000000000000000001b
:10519400000000000000000000000000000000000b
:1051a40000000000000000000000000000fe0000fd
:1051b400103800007c1000001010000000fe0000f9
:1051c40020700000a8200000202000000000000043
:1051d4000020000020200000a87000002000000033
:1051e4004020000010f800001020000040000000e3
:1051f4001020000040f800004020000010000000d3
:10520400000000000080000080800000fe0000001c
:105214000000000044fe0000440000000000000004
:1052240000000000103800007cfe000000000000b8
:1052340000000000fe7c00003810000000000000a8
:10524400000000000000000000000000000000005a
:10525400202000002020000020000000200000008a
:10526400505000005000000000000000000000004a
:1052740050500000f8500000f850000050000000aa
:1052840020780000a070000028f00000200000003a
:10529400c0c8000010200000409800001800000062
:1052a40060900000a0400000a8900000680000008a
:1052b400602000004000000000000000000000002a
:1052c40010200000404000004020000010000000ba
:1052d40040200000101000001020000040000000da
:1052e40000200000a8700000a820000000000000ba
:1052f4000020000020f80000202000000000000032
:1053040000000000000000006020000040000000d9
:105314000000000000f00000000000000000000099
:1053240000000000000000000060000060000000b9
:105334000008000010200000408000000000000071
:105344007088000098a80000c88800007000000061
:10535400206000002020000020200000f800000051
:10536400708800001020000040800000f800000059
:10537400f008000008f0000008080000f000000039
:105384001030000050900000f810000010000000e1
:10539400f880000080f0000008080000f000000021
:1053a4003040000080f00000888800007000000099
:1053b400f8080000102000004040000040000000f9
:1053c4007088000088700000888800007000000069
:1053d4007088000088700000080800007000000059
:1053e4000060000060000000606000000000000039
:1053f4000060000060000000602000004000000029
:105404001020000040800000402000001000000038
:1054140000000000f8000000f80000000000000098
:105424004020000010080000102000004000000090
:105434007088000008100000200000002000000018
:105444007088000008680000a8a800007000000030
:105454007088000088f80000888800008800000038
:10546400f088000088f0000088880000f000000048
:1054740078800000808000008080000078000000b8
:10548400f08800008888000088880000f000000090
:10549400f880000080f8000080800000f800000020
:1054a400f880000080f80000808000008000000088
:1054b4007880000080b00000888800007000000040
:1054c4008888000088f800008888000088000000b0
:1054d4007020000020200000202000007000000048
:1054e4007808000008080000089000006000000030
:1054f40088900000a0c00000a09000008800000078
:10550400808000008080000080800000f80000009f
:1055140088d80000a888000088880000880000005f
:1055240088880000c8a8000098880000880000004f
:1055340070880000888800008888000070000000df
:10554400f088000088f000008080000080000000e7
:105554007088000088880000a89800007800000087
:10556400f088000088f00000a0900000880000008f
:10557400788000008070000008080000f00000003f
:10558400f82000002020000020200000200000005f
:105594008888000088880000888800007000000067
:1055a40088880000888800008850000020000000df
:1055b4008888000088a80000a8d80000880000009f
:1055c40088880000502000005088000088000000f7
:1055d400888800008850000020200000200000007f
:1055e400f81000002040000080800000f800000057
:1055f40060400000404000004040000060000000a7
:10560400008000004020000010080000000000009e
:10561400180800000808000008080000180000002e
:10562400205000008800000000000000000000007e
:1056340000000000000000000000000000f800006e
:1056440040200000100000000000000000000000e6
:105654000000000070080000788800007800000056
:105664008080000080b00000c8880000f0000000c6
:1056740000000000708000008088000070000000be
:1056840008080000086800009888000078000000fe
