:020000040000fa
:080000000002040000000000f2
:020000040000fa
:040008006003000091
:020000040000fa
:04000c00600300008d
:020000040000fa
:040010006003000089
:020000040000fa
:040014006003000085
:020000040000fa
:040018005e03000083
:020000040000fa
:04001c00600300007d
:020000040000fa
:040020006003000079
:020000040000fa
:040024006003000075
:020000040000fa
:040028006003000071
:020000040000fa
:04002c00600300006d
:020000040000fa
:040030006003000069
:020000040000fa
:040034006203000063
:020000040000fa
:040038006003000061
:020000040000fa
:04003c00600300005d
:020000040000fa
:040040008a02000030
:020000040000fa
:040044001c0200009a
:020000040000fa
:040048006003000051
:020000040000fa
:04004c00600300004d
:020000040000fa
:040050006003000049
:020000040000fa
:04005400f0020000b6
:020000040000fa
:04005800140300008d
:020000040000fa
:04005c00600300003d
:020000040000fa
:040060006003000039
:020000040000fa
:040064006003000035
:020000040000fa
:040068006003000031
:020000040000fa
:04006c00600300002d
:020000040000fa
:040070006003000029
:020000040000fa
:04007400380300004d
:020000040000fa
:0400780084030000fd
:020000040000fa
:04007c00600300001d
:020000040000fa
:040080006003000019
:020000040000fa
:040084006003000015
:020000040000fa
:040088006003000011
:020000040000fa
:04008c00600300000d
:020000040000fa
:040090006003000009
:020000040000fa
:040094006003000005
:020000040000fa
:040098006003000001
:020000040000fa
:04009c0060030000fd
:020000040000fa
:0400a0004203000017
:020000040000fa
:0400a40060030000f5
:020000040000fa
:0400a80060030000f1
:020000040000fa
:0400ac0060030000ed
:020000040000fa
:0400b00060030000e9
:020000040000fa
:0400b40060030000e5
:020000040000fa
:0400b80060030000e1
:020000040000fa
:0400bc0060030000dd
:020000040000fa
:0400c00060030000d9
:020000040000fa
:0400c40060030000d5
:020000040000fa
:0400c80060030000d1
:020000040000fa
:0400cc0060030000cd
:020000040000fa
:0400d00060030000c9
:020000040000fa
:0400d40060030000c5
:020000040000fa
:0400d80060030000c1
:020000040000fa
:0400dc0060030000bd
:020000040000fa
:0400e00060030000b9
:020000040000fa
:0400e40060030000b5
:020000040000fa
:0400e80060030000b1
:020000040000fa
:0400ec0060030000ad
:020000040000fa
:0400f00060030000a9
:020000040000fa
:0400f40060030000a5
:020000040000fa
:0400f80060030000a1
:020000040000fa
:0400fc00600300009d
:020000040000fa
:040100006003000098
:020000040000fa
:040104006003000094
:020000040000fa
:040108006003000090
:020000040000fa
:04010c00600300008c
:020000040000fa
:040110006003000088
:020000040000fa
:040114006003000084
:020000040000fa
:040118006003000080
:020000040000fa
:04011c00600300007c
:020000040000fa
:040120006003000078
:020000040000fa
:040124006003000074
:020000040000fa
:040128006003000070
:020000040000fa
:04012c00600300006c
:020000040000fa
:040130006003000068
:020000040000fa
:040134006003000064
:020000040000fa
:040138006003000060
:020000040000fa
:04013c00600300005c
:020000040000fa
:040140006003000058
:020000040000fa
:040144006003000054
:020000040000fa
:040148006003000050
:020000040000fa
:04014c00600300004c
:020000040000fa
:040150006003000048
:020000040000fa
:040154006003000044
:020000040000fa
:040158006003000040
:020000040000fa
:04015c00600300003c
:020000040000fa
:040160006003000038
:020000040000fa
:040164006003000034
:020000040000fa
:040168006003000030
:020000040000fa
:04016c00600300002c
:020000040000fa
:040170006003000028
:020000040000fa
:040174006003000024
:020000040000fa
:040178006003000020
:020000040000fa
:04017c00600300001c
:020000040000fa
:040180006003000018
:020000040000fa
:040184006003000014
:020000040000fa
:040188006003000010
:020000040000fa
:04018c00600300000c
:020000040000fa
:040190006003000008
:020000040000fa
:040194006003000004
:020000040000fa
:040198006003000000
:020000040000fa
:04019c0060030000fc
:020000040000fa
:0401a00060030000f8
:020000040000fa
:0401a40060030000f4
:020000040000fa
:0401a80060030000f0
:020000040000fa
:0401ac0060030000ec
:020000040000fa
:0401b00060030000e8
:020000040000fa
:0401b40060030000e4
:020000040000fa
:0401b80060030000e0
:020000040000fa
:0401bc0060030000dc
:020000040000fa
:0401c00060030000d8
:020000040000fa
:0401c40060030000d4
:020000040000fa
:0401c80060030000d0
:020000040000fa
:0401cc0060030000cc
:020000040000fa
:0401d00060030000c8
:020000040000fa
:0401d40060030000c4
:020000040000fa
:0401d80060030000c0
:020000040000fa
:0401dc0060030000bc
:020000040000fa
:0401e00060030000b8
:020000040000fa
:0401e40060030000b4
:020000040000fa
:0401e80060030000b0
:020000040000fa
:0401ec0060030000ac
:020000040000fa
:0401f00060030000a8
:020000040000fa
:0401f40060030000a4
:020000040000fa
:0401f80060030000a0
:020000040000fa
:0401fc00600300009c
:020000040000fa
:040200006003000097
:020000040000fa
:040204006003000093
:020000040000fa
:04020800600300008f
:020000040000fa
:04020c00600300008b
:020000040000fa
:040210006003000087
:020000040000fa
:040214006003000083
:020000040000fa
:04021800600300007f
:020000040000fa
:04021c00600300007b
:020000040000fa
:040220006003000077
:020000040000fa
:040224006003000073
:020000040000fa
:04022800600300006f
:020000040000fa
:04022c00600300006b
:020000040000fa
:040230006003000067
:020000040000fa
:040234006003000063
:020000040000fa
:04023800600300005f
:020000040000fa
:04023c00600300005b
:020000040000fa
:040240006003000057
:020000040000fa
:040244006003000053
:020000040000fa
:04024800600300004f
:020000040000fa
:04024c00600300004b
:020000040000fa
:040250006003000047
:020000040000fa
:040254006003000043
:020000040000fa
:04025800600300003f
:020000040000fa
:04025c00600300003b
:020000040000fa
:040260006003000037
:020000040000fa
:040264006003000033
:020000040000fa
:04026800600300002f
:020000040000fa
:04026c00600300002b
:020000040000fa
:040270006003000027
:020000040000fa
:040274006003000023
:020000040000fa
:04027800600300001f
:020000040000fa
:04027c00600300001b
:020000040000fa
:040280006003000017
:020000040000fa
:100400000e2eef00700020004a28b7000f002100d8
:100410000e0821000e0078008001b1000001880064
:1004200001c4fe0000c2fe002adc2a003a06780061
:080430003c007800000401000b
:020000040000fa
:1004380000e8a90061e2a900801f78001c32ec00e6
:1004480019003200600020001c12e3001c0032007a
:10045800c00020001c12e3001c0032002001200014
:100468001c12e3001c003200200320001c12e300d1
:100478001f003200200f20001c12e3002100320070
:10048800f01020001e52e200010032000000e800d7
:100498001c12e30002003a001ef2ee001cb2ef004c
:1004a8004f00780000400600400a200030488800cd
:1004b800e08a20002048880060088800f8ff37009c
:1004c800a080200030488800f5ff3700400a20004f
:1004d80030488800f2ff3700801420003048880038
:1004e800c01521002048880060088800ecff37000c
:1004f8001f52e200eaff320000c8a90020c8a80085
:10050800e7ff370020c8a900e5ff370000c8a900a9
:10051800809fbe00829fbe00849fbe00861f780019
:100528003200f800e19080002103b100e78260000a
:10053800c308de00020420000110b80004a02c004b
:100548000402400003bb290090488000630060005b
:10055800000601000000000000000000000000008c
:1005680061e2a8000200e0001200320001c0fe00b3
:10057800344078000003eb000070a7000083eb0014
:10058800f007b2004300dd00808041008580400014
:1005980000c2fe00114078000670a7000080ea0043
:1005a8006022ab00feff3a0068e2b7000201e900f2
:1005b800ecff37006022ab00feff3a006822ef0034
:1005c8003200f9004f0378004f02be004f01be0011
:1005d8004f00be00004006000168a900801f780097
:1005e800811f7800c9d1bf000080fb00211a2100bb
:1005f800810040002202ae00060037003011800062
:1006080080487800c631ec00c971ec00f000200089
:10061800c971b600cf0078004f007800004006008e
:100628000188a900801f7800811f7800c211e200ac
:100638000a003200c4d1bf000080fb00211b21004a
:10064800810040001140780024e2b700c231ed007b
:10065800c471ec00f0002000c471b600cf0078002f
:100668004f007800004006000a32ef0013aeae00db
:100678000a12a8000268a9000040060003c8a900e1
:10068800809fbe00829fbe00b0118000a11c210087
:10069800628f800081004100804878001200b0001d
:1006a800f201b200628f88004f01be004f00be0009
:1006b800004006000000fe000000fe000068a900df
:1006c800809fbe00829fbe001632ec002612e20018
:1006d800030032002632ed0001003a0013e1a900c0
:1006e8002452e20003003a002512af00282d020030
:1006f800000000004f01be004f00be000040060091
:040708000000fe00ef
:020000040000fa
:10070c00000000002445000058490000540000007f
:10071c00e81f000088830000a52800004c49000059
:10072c0054290000f01f000092830000a62800004e
:10073c00434c00004954000029000000fa1f00003f
:10074c009c830000a828000042520000414e00008b
:10075c00434800002900000006200000a883000088
:10076c00a928000054420000524100004e430000f2
:10077c00482900000e200000b6830000a9280000c4
:10078c003f420000524100004e4300004829000047
:10079c001c200000c4830000a4280000444f00006b
:1007ac00290000002a200000d2830000a6280000a7
:1007bc004c4f00004f500000290000003c2000006e
:1007cc00dc830000a72800002b4c00004f4f0000da
:1007dc005029000056200000e883000083490000e7
:1007ec005040000074200000f48300008349000096
:1007fc00502100007e200000fc8300008652000087
:10080c00454200004f4f00005400000088200000bb
:10081c000484000087450000584500004355000043
:10082c00544500008a20000010840000884000001d
:10083c004558000045430000555400004500000099
:10084c00922000001c8400008140000098200000d1
:10085c002a8400008245000040000000a020000017
:10086c00308400008343000045400000ae200000af
:10087c00388400008243000040000000be200000cd
:10088c0040840000874200005546000046450000a9
:10089c0052210000be1f00009c9b0000d885000068
:1008ac00a68400008e83000048840000884200006b
:1008bc005546000046450000524300002100000050
:1008cc00be1f00009c9b0000d8850000ae84000079
:1008dc008e8300005c8400008742000055460000b7
:1008ec004645000052400000be1f00009c9b0000cb
:1008fc00d8850000348400008e83000072840000d0
:10090c008842000055460000464500005243000056
:10091c0040000000be1f00009c9b0000d88500001a
:10092c003c8400008e83000086840000823200002c
:10093c0040000000c82000009c84000081210000c1
:10094c00d6200000a4840000824300002100000097
:10095c00e0200000aa840000823200002100000088
:10096c00ec200000b284000081490000fa20000055
:10097c00ba840000814a000004210000c0840000f9
:10098c00865500004e4c00004f4f000050000000f8
:10099c000e210000c6840000834400005550000066
:1009ac0018210000d284000084320000445500005d
:1009bc005000000020210000da840000843f000079
:1009cc0044550000500000002c210000e48400007d
:1009dc0084440000524f00005000000038210000f9
:1009ec00ee84000085320000445200004f5000009d
:1009fc0040210000f884000084530000574100009f
:100a0c00500000004a2100000285000085320000e1
:100a1c005357000041500000562100000c85000087
:100a2c00835200004f5400006a210000168500001c
:100a3c00842d0000524f0000540000007c21000067
:100a4c001e850000844f0000564500005200000037
:100a5c008c21000028850000853200004f560000d4
:100a6c00455200009621000032850000834e0000a4
:100a7c0049500000a42100003c850000823e00008b
:100a8c0052000000ac21000044850000825200009e
:100a9c003e000000b62100004c8500008252000090
:100aac0040000000c021000054850000835300006a
:100abc0050400000ca2100005c85000083530000f8
:100acc0050210000d62100006485000083520000f4
:100adc0050400000de2100006c85000083520000b5
:100aec0050210000e82100007485000084540000af
:100afc00554300004b000000f22100007c850000f3
:100b0c00854400004550000054480000fe210000c0
:100b1c008685000084500000494300004b00000013
:100b2c000c22000090850000853e0000435300001d
:100b3c00544b00001a2200009a85000085430000e7
:100b4c00535400004b3e000028220000a4850000f6
:100b5c008348000045580000be1f00009883000029
:100b6c001000000054880000a68400008e83000052
:100b7c00ae8500008744000045430000494d00004d
:100b8c00414c0000be1f0000988300000a000000ca
:100b9c0054880000a68400008e830000c0850000ed
:100bac00812b000036220000d6850000812d00002c
:100bbc003e220000dc850000823100002b0000008a
:100bcc0048220000e2850000823200002b00000069
:100bdc0050220000ea850000823100002d00000048
:100bec0058220000f2850000823200002d00000027
:100bfc0060220000fa850000823200002a0000000a
:100c0c006822000002860000823200002f000000e3
:100c1c00702200000a860000864c00005348000039
:100c2c0049460000540000007822000012860000a3
:100c3c008652000053480000494600005400000052
:100c4c00882200001e860000822b0000210000007c
:100c5c00982200002a860000824d00002b00000024
:100c6c00a622000032860000812a0000b622000075
:100c7c003a860000824d00002a000000c0220000cd
:100c8c0040860000835500004d2a0000cc22000055
:100c9c004886000083550000442a0000be1f000057
:100cac00d6840000488500004c860000f4840000c7
:100cbc0008850000508500004c8600001a85000055
:100ccc00d88500008e83000050860000812f000024
:100cdc00d82200006c860000834d00004f440000b9
:100cec00e622000072860000822a00002f0000001d
:100cfc00f42200007a860000852a00002f4d0000a7
:100d0c004f4400000623000082860000842f000060
:100d1c004d4f0000440000001a2300008c86000098
:100d2c00865500004d2f00004d4f00004400000080
:100d3c002a23000096860000834d000041580000d5
:100d4c003c230000a2860000834d0000494e0000a9
:100d5c004a230000aa860000865700004954000070
:100d6c00484900004e00000058230000b2860000e5
:100d7c0084450000564500004e0000007023000022
:100d8c00be860000834f0000444400007e23000018
:100d9c00c886000083410000425300008c230000f1
:100dac00d0860000834100004e44000096230000d2
:100dbc00d8860000824f0000520000009e230000e5
:100dcc00e0860000835800004f520000a62300006c
:100ddc00e8860000864900004e560000455200008f
:100dec0054000000ae230000f08600008744000091
:100dfc00494e00005645000052540000b623000036
:100e0c00fc860000864e000045470000415400005f
:100e1c0045000000c0230000088700008744000044
:100e2c004e4500004741000054450000c823000017
:100e3c0014870000823000003d000000d823000021
:100e4c0020870000823000003c000000e2230000fc
:100e5c0028870000823000003e000000ee230000d6
:100e6c0030870000813d0000f82300003887000027
:100e7c00823c00003e000000082400003e87000079
:100e8c00813c00001824000046870000813e0000d1
:100e9c00282400004c870000825500003c00000014
:100eac003824000052870000825500003e000000ec
:100ebc00482400005a87000084430000454c000081
:100ecc004c0000005824000062870000854300009d
:100edc00454c00004c2b0000622400006c87000085
:100eec0085430000454c00004c5300006a24000070
:100efc0076870000854100004c490000474e0000f9
:100f0c00be1f0000b8870000d68400009883000044
:100f1c0001000000dc860000d88500004888000035
:100f2c00a68400008e8300008087000087410000ab
:100f3c004c490000474e000045440000742400005a
:100f4c009c870000853e0000434800004152000091
:100f5c007e240000a8870000844800004552000051
:100f6c0045000000be1f0000488800002c840000d3
:100f7c008e830000b2870000844d00004f560000a5
:100f8c00450000008c240000c2870000854300004f
:100f9c004d4f000056450000ae240000cc870000e9
:100fac0084530000434100004e000000d024000098
:100fbc00d687000084460000494c00004c0000001d
:100fcc00f2240000e0870000892d0000545200003c
:100fdc00414900004c4900004e470000102500001c
:100fec00ea87000085500000414300004b240000bc
:100ffc00be1f0000a4870000d684000048850000b6
:10100c002e850000d68400009883000000000000ac
:10101c0098830000020000009e860000f48400000b
:10102c00de8500002e850000d88500009883000026
:10103c000000000008850000a6840000e084000089
:10104c00ae8400009883000001000000d8850000e9
:10105c0008850000d2870000508500008e830000b8
:10106c00f8870000855300005441000054450000ef
:10107c00c81f00000c0000003888000082440000eb
:10108c0050000000c81f00000a0000004488000047
:10109c00844200004153000045000000c81f0000be
:1010ac000e0000004e8800008953000059530000c8
:1010bc004c4100005445000053540000c81f000070
:1010cc00180000005a880000864c000041540000b3
:1010dc004553000054000000c81f00001a00000017
:1010ec006a8800008252000030000000c81f000017
:1010fc0014000000788800008253000030000000cb
:10110c00c81f0000120000008288000083500000fd
:10111c0041440000c81f0000020000008c88000041
:10112c008354000049420000c81f0000000000006a
:10113c0096880000833e0000494e0000c81f000046
:10114c0010000000a0880000824800005000000041
:10115c00c81f000016000000aa88000086270000a7
:10116c00534f00005552000043450000c81f0000bb
:10117c0004000000b488000087230000534f0000d7
:10118c005552000043450000c81f00000600000037
:10119c00c2880000875600004552000053490000e9
:1011ac004f4e000026250000d0880000865200001b
:1011bc00414d0000454e0000440000003025000069
:1011cc00dc880000854900004d4d000045440000be
:1011dc003a250000e88800008648000049440000d9
:1011ec00444500004e00000044250000f288000039
:1011fc00874c0000454e00004d410000534b000051
:10120c004e250000fe880000824200004c000000c9
:10121c00582500000a89000087540000494200004c
:10122c00534900005a450000622500001289000055
:10123c008750000041440000534900005a4500000b
:10124c006c2500001e890000834400005030000013
:10125c00762500002a890000865500004c490000c4
:10126c004d49000054000000802500003289000028
:10127c00854400004f4300004f4c00008a250000bd
:10128c003e8900008154000094250000488900002c
:10129c00814600009e2500004e8900008627000034
:1012ac00534f00005552000043450000a825000094
:1012bc0054890000875300004f5500005243000032
:1012cc0045210000b625000060890000863f000023
:1012dc00444900004749000054000000be1f0000b4
:1012ec00d684000098830000600000005e87000038
:1012fc00ce8300000800000098830000200000004e
:10130c00de850000d68400009883000039000000c0
:10131c005e870000ce8300001a000000d684000017
:10132c00988300004100000056870000ce83000027
:10133c000800000098830000000000008e8300006d
:10134c009883000007000000de85000098830000f1
:10135c0030000000de850000d684000054880000b8
:10136c002c840000568700008e8300006c890000de
:10137c00873f0000444f0000554200004c450000e0
:10138c00be1f00002e8500004484000098830000de
:10139c002e0000003a870000ce83000010000000f1
:1013ac009883000001000000f08b0000988300007f
:1013bc00ffff0000b2830000180000002e85000023
:1013cc0044840000988300002c0000003a87000041
:1013dc00ce83000006000000b2830000e2ff000094
:1013ec0098830000000000008e830000be8900007e
:1013fc00873e00004e5500004d4200004552000053
:10140c00be1f00009883000000000000488500000b
:10141c00d6840000ce830000500000002e85000012
:10142c004484000074890000c08300002200000086
:10143c0050850000ce83000042000000f4840000c0
:10144c00c6890000ce8300003c00000050850000df
:10145c00508500009883000002000000e486000024
:10146c004885000048850000b2830000ccff0000d6
:10147c0050850000f484000098830000ffff0000fa
:10148c004885000048850000128500005488000043
:10149c002c84000054860000508500003686000025
:1014ac00128500009883000001000000f08b000002
:1014bc00b2830000aeff000050850000f4840000f1
:1014cc008e830000fe890000853f00005349000018
:1014dc00474e0000be1f00002e8500004484000013
:1014ec00a48300002d0000003a870000c083000098
:1014fc000a0000009883000000000000b283000086
:10150c000c0000009883000001000000f08b00002c
:10151c0098830000010000008e8300006a8a00009e
:10152c00853f00004241000053450000be1f0000f3
:10153c002e85000044840000a483000024000000d9
:10154c003a870000ce8300000e0000009883000054
:10155c001000000054880000a6840000b283000034
:10156c00320000002e85000044840000a48300009b
:10157c00230000003a870000ce8300000e0000001c
:10158c00988300000a00000054880000a684000024
:10159c00b2830000180000002e8500004484000077
:1015ac00a4830000250000003a870000ce830000d1
:1015bc001200000098830000020000005488000014
:1015cc00a684000008850000e68500000885000060
:1015dc00f68500008e830000968a0000873f00008d
:1015ec004e5500004d42000045520000be1f000049
:1015fc00548800002c84000048850000d68400002c
:10160c009883000000000000d68400001a850000ba
:10161c00d88c00009c8a0000708a0000488500006d
:10162c00068a0000ce8300001000000050850000e8
:10163c00fe840000fe84000098830000000000007f
:10164c00b283000024000000f48400001a8500001e
:10165c00f484000058850000cc860000ce83000086
:10166c00040000001c8700005085000098830000d7
:10167c0002000000dc860000c083000004000000b3
:10168c00f484000098830000ffff000050850000e8
:10169c0054880000a68400008e830000f48a0000a9
:1016ac00855700004f52000044530000be1f00003d
:1016bc0014960000728800002c840000d684000070
:1016cc0024870000c083000040000000d684000086
:1016dc0044840000fa880000dc860000ce83000001
:1016ec0008000000fe850000b2830000e6ff000049
:1016fc00d6840000d68400004484000006890000d3
:10170c00dc860000d6840000b2950000d88500006d
:10171c00988300004000000056870000c083000042
:10172c00040000001496000048850000e6850000c7
:10173c00508500005c9600001e960000fe8500009f
:10174c00b2830000baff0000f4840000149600007d
:10175c008e830000568b0000855500005050000011
:10176c0045520000c4250000b28b000084530000d9
:10177c004b49000050000000e6250000bc8b000027
:10178c0087410000445200003e4900004e0000001a
:10179c00be1f00005c8900001a8500001a8500003d
:1017ac00de850000ae86000098830000000000007b
:1017bc00a6860000a4880000a68400008e8300008a
:1017cc00c68b0000872f00005354000052490000c4
:1017dc004e470000be1f00001a8500002e85000039
:1017ec00d88500001a8500001a850000de850000ef
:1017fc008e830000e88b00008550000041520000f1
:10180c0053450000be1f00005c890000a488000046
:10181c002c840000f08b00002e8500004885000011
:10182c001a850000dc8700002e850000088500006a
:10183c00ce83000004000000e6850000ce8b000083
:10184c005085000082850000de8500008e8300003c
:10185c00028c0000845700004f520000440000002e
:10186c00be1f0000d68400005c890000a488000024
:10187c002c840000f08b00001a850000c28b000045
:10188c00f4840000ce8b0000088c0000b8870000a8
:10189c001c8d0000b88700008e830000308c000087
:1018ac0084460000494e000044000000022600005f
:1018bc00568c000086410000434300004550000058
:1018cc0054000000be1f00002e850000d8850000cb
:1018dc0048850000d6840000da9a0000d684000007
:1018ec00988300000d0000003a870000ce830000b2
:1018fc0016000000f48400000e8900002e85000004
:10190c00ae84000008850000de850000e68500003e
:10191c0050850000f48400008e830000d684000003
:10192c0098830000080000003a870000ce83000076
:10193c0014000000f4840000e08400003a870000ea
:10194c00c0830000caff0000a8960000f6850000c6
:10195c00b2830000c2ff00002e85000058850000f5
:10196c003a870000c083000010000000d6840000fd
:10197c000c9600002e850000ae840000e685000069
:10198c00b2830000aaff0000f4840000b2830000c0
:10199c00a4ff0000608c0000854300004f55000040
:1019ac004e540000be1f0000d6840000448400008a
:1019bc0048850000e6850000508500008e830000fd
:1019cc00d28c000085450000525200004f5200009e
:1019dc00be1f00001e960000d88c00005c96000014
:1019ec001e960000a48300003f0000000c9600002f
:1019fc0098830000000000003e880000a6840000d0
:101a0c00868800002c840000688500001496000075
:101a1c00748e0000e88c0000883e0000434f0000ec
:101a2c00554e00005445000044000000be1f00004d
:101a3c00e0840000ae840000e6850000088500000c
:101a4c00d28700008e830000128d0000812c0000d4
:101a5c00be1f0000b8870000a68400009883000019
:101a6c0002000000069000008e8300002c8d000008
:101a7c00824300002c000000be1f0000b88700004d
:101a8c00ae84000098830000010000000690000066
:101a9c008e8300003e8d0000894900004e540000ea
:101aac00455200005052000045540000be1f00007b
:101abc00688900009883000000000000a4880000e2
:101acc00a68400000e890000368c0000d68400002d
:101adc0044840000ce83000040000000b88b00005e
:101aec005c8c0000ea840000ce8300001c00000027
:101afc00e68500003e8800002c840000248700004e
:101b0c00e4860000ce83000008000000188400006a
:101b1c00b2830000d8ff00002e8d0000b2830000bd
:101b2c00d2ff0000fc8a0000ce83000008000000f9
:101b3c0046910000b2830000c6ff0000d88c000064
:101b4c005c960000988300003f0000000c9600009b
:101b5c0014960000148e0000f48400008e830000a4
:101b6c00528d000088450000564100004c55000085
:101b7c004154000045000000be1f00005c890000bd
:101b8c004885000048850000a48800002c840000d3
:101b9c00488500005c8d000050850000a488000082
:101bac00a684000050850000508500006889000064
:101bbc008e830000b88d0000824f00004b000000a7
:101bcc00be1f0000b29500009883000003000000c7
:101bdc00d885000098830000400000004887000072
:101bec00c083000004000000149600001e96000044
:101bfc00988300004f0000000c96000098830000b2
:101c0c004b0000000c9600008e830000e28d00005b
:101c1c0085410000424f000052540000be1f0000de
:101c2c003e8800002c840000ce83000014000000cd
:101c3c00728800002c840000cc8e0000d68400003a
:101c4c002c84000072880000a684000048880000e4
:101c5c00a6840000868800002c84000068850000a3
:101c6c00748e00000e8e0000a63f00004142000062
:101c7c004f52000054000000be1f00006091000095
:101c8c0008850000ce8300000a000000d88c0000fc
:101c9c005c96000014960000148e0000f484000082
:101cac008e8300003a8e0000c6410000424f0000b7
:101cbc005254000022000000be1f0000ee900000f5
:101ccc00428e0000b49100008e8300005a8e0000fa
:101cdc00845100005549000054000000be1f000054
:101cec007c8800002c84000078850000988300001c
:101cfc00000000003e880000a68400009a880000c6
:101d0c002c840000d6840000988300003f00000063
:101d1c00688c00001e9600005c8d00003e88000060
:101d2c002c840000c083000004000000e68d00003d
:101d3c0014960000b2830000e2ff00006e8e0000db
:101d4c00c1280000be1f000098830000290000007d
:101d5c00088c0000fe8400008e830000a68e00001c
:101d6c00c15c0000be1f00005c890000d88500002b
:101d7c00ce8b00008e830000b68e0000874e0000d4
:101d8c00464100003e4c000046410000be1f0000d2
:101d9c009883000002000000de8500008e830000a6
:101dac00c48e0000874e0000464100003e430000f8
:101dbc0046410000be1f0000d68400004484000091
:101dcc00988300001f000000dc860000d88500000e
:101ddc00e6850000a48700008e830000d88e0000ea
:101dec00853e0000424f000044590000be1f000019
:101dfc00728700008e830000f68e0000874300007f
:101e0c00464100003e4e000046410000be1f00004f
:101e1c00d684000098830000001300005687000051
:101e2c00ce8300000a000000d6840000ec8600007f
:101e3c00b28300005a000000d684000048850000e0
:101e4c00988300002100000048850000f685000002
:101e5c00d684000044840000d684000098830000df
:101e6c0080000000dc860000c0830000140000002d
:101e7c00f484000050850000f6850000d684000034
:101e8c00ce8300002a00000048850000b2830000c9
:101e9c00deff000050850000f484000098830000f1
:101eac001f000000dc8600002e850000d885000095
:101ebc00e6850000a4870000508500003a870000ea
:101ecc00d6840000ce8300000c000000f4840000d7
:101edc00b28300000a00000050850000f48400006a
:101eec0008850000f48400008e830000048f00003d
:101efc00854500004d50000054590000be1f0000e5
:101f0c002e8900002c840000b88700003a8700005e
:101f1c008e8300007e8f0000894900004d4d00002b
:101f2c00454400004941000054450000be1f00001c
:101f3c00848f0000c0830000120000007288000033
:101f4c002c840000d684000044840000ee8800003d
:101f5c00e486000008850000ae8400008e8300003b
:101f6c00928f0000844800004944000045000000a6
:101f7c00be1f0000848f0000c08300001200000010
:101f8c00728800002c840000d68400004484000079
:101f9c00fa880000e486000008850000ae8400008a
:101fac008e830000b88f000086520000455600005a
:101fbc00454100004c000000be1f0000848f000053
:101fcc00c083000014000000728800002c84000004
:101fdc00d684000044840000fa880000f8860000d3
:101fec00dc86000008850000ae8400008e830000b3
:101ffc00da8f0000854100004c4c00004f5400006b
:10200c00be1f0000488800002e8600008e83000052
:10201c000090000081270000be1f00000e89000008
:10202c00368c0000d6840000448400002487000015
:10203c00c6930000b88b00005c8c0000ce830000bf
:10204c0006000000b283000012000000d88c0000d3
:10205c005c9600001e960000988300003f00000074
:10206c000c96000014960000148e00008e83000065
:10207c0010900000c95b0000434f00004d50000061
:10208c00494c0000455d0000be1f0000129000008e
:10209c002e8d00008e83000040900000c53c000097
:1020ac004d410000524b0000be1f0000a0930000e9
:1020bc00b88700008e83000054900000c83c0000dc
:1020cc0052450000534f00004c56000045000000e4
:1020dc00be1f0000a0930000b8870000de85000042
:1020ec002e8d00008e83000064900000c53e000021
:1020fc004d410000524b0000be1f0000a093000099
:10210c00b887000098830000000000002e8d0000ae
:10211c008e8300007c900000c83e000052450000f9
:10212c00534f00004c56000045000000be1f00003d
:10213c00a0930000d6840000b8870000088500003a
:10214c00de85000008850000a68400008e83000058
:10215c0092900000c15b0000be1f0000988300003d
:10216c00000000003e880000a68400008e83000062
:10217c00b0900000c15d0000be1f000098830000fd
:10218c00ffff00003e880000a68400008e83000044
:10219c00c0900000c95b0000434f00004d50000090
:1021ac00494c0000455d0000be1f0000a0930000dc
:1021bc00129000002e8d00008e830000d090000045
:1021cc00c74300004f4d0000504900004c45000033
:1021dc00be1f000050850000d68400002c84000037
:1021ec002e8d000072870000488500008e83000051
:1021fc00e6900000c85000004f53000054500000ff
:10220c004f4e000045000000be1f0000a0930000d0
:10221c000e890000368c0000b88b00005c8c00002e
:10222c00d684000024870000ce8300000e0000003e
:10223c00f4840000d88c00005c96000098830000a9
:10224c003f000000148e0000348700000c000000da
:10225c0098830000988300002e8d0000b28300004c
:10226c00040000002e8d00008e8300000091000001
:10227c00c74c00004954000045520000414c00007e
:10228c00be1f00003e8800002c840000ce8300009e
:10229c0008000000ee900000988300002e8d0000d6
:1022ac008e8300003e910000a5280000444f0000e2
:1022bc0024290000be1f0000508500005885000036
:1022cc0050850000d88c0000d8850000a487000041
:1022dc004885000008850000488500008e830000ba
:1022ec005a910000a428000053220000290000008d
:1022fc00be1f000060910000d88c00008e8300008f
:10230c0078910000a42800002e2200002900000073
:10231c00be1f000060910000d88c00005c9600008d
:10232c008e83000088910000a45300004c490000eb
:10233c0054000000be1f0000988300002200000023
:10234c00368c0000d88c00008e8300009a9100001f
:10235c00a42800002c22000029000000be1f000051
:10236c00a0910000d8850000a487000048880000d8
:10237c00a68400008e830000ae910000c2530000c2
:10238c0022000000be1f0000a0930000ee90000091
:10239c007e910000b49100008e830000c491000077
:1023ac00c22e000022000000be1f00003e8800006c
:1023bc002c840000ce8300000a000000ee90000088
:1023cc008e910000b49100008e830000a09100005b
:1023dc005c9600008e830000d6910000c75200006e
:1023ec00454300005552000053450000be1f00003d
:1023fc00728800002c840000e08e00002e8d0000fe
:10240c008e830000f4910000c24400004f000000d5
:10241c00be1f0000a0930000ee900000d8830000c7
:10242c00b8870000a0850000988300000000000021
:10243c00a08500008e8300000a920000c54c0000ad
:10244c004541000056450000be1f0000a09300004f
:10245c00ee900000ce840000ee900000b2830000ed
:10246c0082900000a08500008e8300002492000062
:10247c00e7460000495800004c4f00004f50000048
:10248c00be1f0000aa850000ea840000ce83000075
:10249c0014000000d6840000b8870000728700008a
:1024ac0008850000de85000008850000a684000079
:1024bc00b2830000e8ff0000aa8500006e900000c7
:1024cc008e8300003e920000c44c00004f4f000071
:1024dc0050000000be1f0000a0930000ee90000012
:1024ec00e4830000469200008e8300006a92000094
:1024fc00c52b00004c4f00004f500000be1f0000c9
:10250c00a0930000ee900000f083000046920000c3
:10251c008e8300007e920000c542000045470000fb
:10252c00494e0000be1f0000a09300005a9000000e
:10253c008e83000092920000c541000047410000cc
:10254c00494e0000be1f0000a0930000ee9000005a
:10255c00b28300006e9000008e830000a2920000f7
:10256c00c55500004e540000494c0000be1f000031
:10257c00a0930000ee900000ce8300006e9000004f
:10258c008e830000b6920000c24900004600000095
:10259c00be1f0000a0930000ee900000ce83000050
:1025ac00829000008e830000ca920000c454000088
:1025bc00484500004e000000be1f0000a093000024
:1025cc009c9000008e830000dc920000c44500004b
:1025dc004c53000045000000be1f0000a0930000fb
:1025ec00ee900000b283000082900000088500008d
:1025fc00e29200008e830000ec920000c5570000b0
:10260c00484900004c450000be1f0000a09300008c
:10261c00ee900000ce830000829000000885000040
:10262c008e83000004930000c65200004550000049
:10263c004541000054000000be1f0000a0930000a4
:10264c00ee900000b28300006e9000009c900000a1
:10265c008e8300001a930000c44300004153000015
:10266c0045000000be1f0000a093000098830000ee
:10267c00000000008e83000032930000c24f000067
:10268c0046000000be1f0000a0930000ee9000006a
:10269c002e850000ee9000003a870000ee900000be
:1026ac00ce830000829000008e83000044930000d3
:1026bc00c54500004e4400004f460000be1f000000
:1026cc00a0930000ee900000b28300008290000006
:1026dc00088500009c9000008e8300005e93000033
:1026ec00c74500004e440000434100005345000024
:1026fc00be1f0000a0930000ea840000ce830000ff
:10270c00080000009c900000b2830000f6ff00005f
:10271c00ee900000f48400008e830000769300009d
:10272c00c83f0000434f00004d500000494c0000d2
:10273c0045000000be1f00003e8800002c840000f5
:10274c0024870000428e0000116300006f6d0000b2
:10275c00706900006c650000206f00006e6c00005a
:10276c0079200000776f0000726400008e830000f7
:10277c0096930000853f00004e4100004d4500003f
:10278c00be1f0000428e00000c6e0000616d000048
:10279c00652000006d69000073730000696e000015
:1027ac00670000008e830000c0930000c52c000061
:1027bc004558000049540000be1f0000ee90000078
:1027cc008e8300008e830000dc93000086430000a3
:1027dc00524500004154000045000000be1f00009f
:1027ec0072880000d68400002c8400002e8d00001e
:1027fc00b887000008850000a68400000e89000040
:10280c00368c0000b88b000044840000d684000095
:10281c0024870000c6930000e685000006900000a7
:10282c0086870000be8f00008e830000ec930000b2
:10283c00813a0000be1f0000f4930000c29000001b
:10284c00ee900000be1f00008e8300001e9400005e
:10285c00873c000042550000494c000044530000e6
:10286c00be1f000020940000ee9000004694000073
:10287c00b8870000728700002e8d00008e83000048
:10288c00482600002e94000087280000444f0000ca
:10289c00455300003e290000be1f0000508500007b
:1028ac00d684000072870000488500002c8400004c
:1028bc00728800002c840000e08e000098830000d9
:1028cc0004000000d8850000a68400008e83000060
:1028dc004a940000c54400004f450000533e0000e0
:1028ec00be1f0000ee90000052940000b88700005c
:1028fc00988300000200000006900000ee9000009b
:10290c00d4940000b887000008850000a68400005d
:10291c008e83000070940000885600004152000025
:10292c0049410000424c000045000000be1f000061
:10293c00f4930000c290000098830000d41f0000a4
:10294c002e8d000098830000000000002e8d0000ea
:10295c00d49400008e830000929400008843000001
:10296c004f4e000053540000414e00005400000034
:10297c00be1f0000f4930000c2900000988300007a
:10298c00de1f00002e8d00002e8d0000d494000060
:10299c008e830000b4940000c13b0000be1f0000f9
:1029ac00a0930000ee9000008e830000e28f0000e8
:1029bc00b29000008e830000d2940000822e0000a2
:1029cc0053000000be1f00008c850000a483000093
:1029dc003c0000000c960000d6840000da97000042
:1029ec00a48300003e0000000c9600001e96000020
:1029fc00ea840000ce8300000e000000d6840000a4
:102a0c0096850000da970000f6850000b28300007e
:102a1c00f0ff00008e830000e49400008548000065
:102a2c00445500004d500000be1f0000ea84000019
:102a3c00c0830000040000008e8300005488000056
:102a4c002c84000048850000b28500000885000039
:102a5c0098830000feff0000dc8600000885000063
:102a6c009883000000000000d8830000bc840000a4
:102a7c009883000007000000dc860000c083000083
:102a8c000e00000014960000d6840000988300000d
:102a9c0005000000ac9700001e960000d6840000d4
:102aac00348400009883000005000000ac970000ff
:102abc009883000002000000d8850000e483000029
:102acc00d6ff0000f48400005085000054880000fc
:102adc00a68400008e83000056260000149500008a
:102aec0085560000494400004f4e0000ba260000f5
:102afc00769500008743000055520000454e0000bb
:102b0c00424c0000c6260000809500008343000064
:102b1c004c530000e22600008c9500008653000008
:102b2c00435200004c55000050000000fe260000ef
:102b3c009495000086530000435200004c44000062
:102b4c004e00000008270000a095000084470000fc
:102b5c00455400005800000012270000ac950000fe
:102b6c008447000045540000590000002027000055
:102b7c00b695000084530000455400005800000036
:102b8c002e270000c095000084530000455400001f
:102b9c00590000004c270000ca9500008643000035
:102bac0055520000504f000053000000be1f0000a3
:102bbc00c6950000d09500008e830000d4950000cf
:102bcc00844c000045460000540000006a270000b9
:102bdc00e69500008552000049470000485400006b
:102bec0090270000f095000087540000474c00002f
:102bfc004348000041520000ba270000fa9500003b
:102c0c00844500004d49000054000000d02700000e
:102c1c00069600008243000052000000f0270000de
:102c2c001096000085530000504100004345000001
:102c3c000228000018960000865300005041000046
:102c4c004345000053000000be1f0000d684000066
:102c5c0098830000000000004e870000c083000035
:102c6c0006000000f48400008e83000098830000ae
:102c7c0000000000d88300001e960000e4830000d2
:102c8c00fcff00008e8300002296000085430000ac
:102c9c004c5200004c4e0000082800004c960000de
:102cac00845400005950000045000000be1f000075
:102cbc00d6840000c083000006000000fe840000e3
:102ccc008e8300009883000000000000d883000071
:102cdc00d684000044840000ea840000ce83000007
:102cec000e0000000c960000e6850000e483000056
:102cfc00f0ff0000b283000004000000ce8400004e
:102d0c00f48400008e830000569600008644000078
:102d1c00454c00004554000045000000be1f00005b
:102d2c000e8900000c9600008e8300008c9600002b
:102d3c0088420000414300004b4300004841000022
:102d4c0052000000be1f0000ec950000949600009d
:102d5c00ec9500008e8300009e96000085440000d8
:102d6c004947000049540000be1f00009883000032
:102d7c00090000002e8500004887000098830000a1
:102d8c0007000000dc860000d88500009883000056
:102d9c0030000000d88500008e830000b49600003f
:102dac008745000058540000524100004354000075
:102dbc00be1f000098830000000000000885000082
:102dcc009e86000008850000ba9600008e830000e5
:102ddc00d6960000823c000023000000be1f0000bd
:102dec00908800002c84000026890000d885000003
:102dfc00ae880000a68400008e830000f0960000d0
:102e0c00844800004f4c000044000000be1f00002e
:102e1c0098830000ffff0000ae8800002e860000a3
:102e2c00ae8800002c840000ae8400008e8300006d
:102e3c000697000081230000be1f0000548800008c
:102e4c002c840000de9600000c9700008e8300009e
:102e5c00209700008223000053000000be1f0000da
:102e6c0022970000d6840000c0830000faff000007
:102e7c008e83000030970000845300004947000007
:102e8c004e000000be1f00002c870000ce83000007
:102e9c0008000000a48300002d0000000c97000027
:102eac008e83000042970000822300003e00000049
:102ebc00be1f0000f4840000ae8800002c840000cb
:102ecc00908800002c84000026890000d885000022
:102edc002e850000de8500008e8300005a970000ce
:102eec008353000054520000be1f0000d684000023
:102efc0048850000d4860000f4960000349700004a
:102f0c0050850000489700005e9700008e830000fb
:102f1c0076970000822e000052000000be1f0000b9
:102f2c00488500007a970000508500002e8500002f
:102f3c00de8500002a9600005c9600008e8300005f
:102f4c0090970000835500002e520000be1f000019
:102f5c0048850000f4960000349700005e9700004e
:102f6c00508500002e850000de8500002a960000aa
:102f7c005c9600008e830000a8970000825500002c
:102f8c002e000000be1f0000f496000034970000d5
:102f9c005e9700001e9600005c9600008e83000079
:102fac00c4970000812e0000be1f00005488000052
:102fbc002c840000988300000a000000ec860000be
:102fcc00c0830000e2ff00001e9600007a9700000c
:102fdc005c9600008e830000d8970000813f0000b3
:102fec00be1f000098830000feff0000dc8600007e
:102ffc002c840000da9700008e830000f497000008
:10300c00824300003f000000be1f0000448400000b
:10301c00da9700008e8300000698000085430000bc
:10302c004841000052530000be1f000008850000fc
:10303c009883000000000000d8830000d6840000b4
:10304c000c960000e4830000faff0000f4840000fa
:10305c008e83000030280000149800008442000089
:10306c0041550000440000006a280000349800001c
:10307c0085530000454d0000495400008a2800008b
:10308c003e980000845300004745000054000000a7
:10309c00b8280000d828000048980000845400008c
:1030ac004f4e000045000000f42800000a290000e3
:1030bc00549800008753000044430000494e000020
:1030cc0049540000342a0000609800008652000029
:1030dc00535400004f520000450000005c2a0000d1
:1030ec006c980000855200004c4f000041440000d9
:1030fc00942a00007898000087450000455700008e
:10310c005249000054450000c62a00008298000075
:10311c008645000045520000454100004400000077
:10312c001c2b00008e9800008645000045520000c4
:10313c0041530000450000005c2b00009a980000f1
:10314c00843f0000494d000047000000be1f0000f6
:10315c002e850000488500009698000050850000e0
:10316c009c9b0000348400009883000055aa00004a
:10317c003a8700008e830000a6980000845000005f
:10318c00473000003e000000be1f00009883000086
:10319c00020000002e8500007a8400007288000076
:1031ac00a684000098830000040000002e85000017
:1031bc007a84000048880000a684000098830000f0
:1031cc00060000002e850000908400004885000059
:1031dc009c9b00009883000007000000d88500002d
:1031ec002e89000058850000d28700002e8900002f
:1031fc0050850000d88500008e830000c498000024
:10320c0087420000554600003e4400004154000037
:10321c00be1f000048850000d68400009c9b000067
:10322c003c840000088500009c9b0000e6850000a3
:10323c00088500005885000008850000d684000031
:10324c0048850000d28700005085000050850000a2
:10325c00d88500008e83000006990000835300007f
:10326c003e500000be1f00009883000003000000c9
:10327c00dc86000098830000800000003c86000083
:10328c008e83000034990000844900004d470000f3
:10329c003e000000be1f000038990000e0840000d2
:1032ac00ac980000ce8300002a0000006c9b00004c
:1032bc002e850000ca980000d6840000b887000054
:1032cc003a870000ce83000008000000f484000060
:1032dc00b28300001400000048850000e685000061
:1032ec00e0840000969800002e85000058850000b0
:1032fc000e990000b2830000e0ff0000fe84000085
:10330c008e8300004a990000884200004f4f000055
:10331c0054000000be1f0000988300000000000055
:10332c00d6840000509900008e8300008a9900001a
:10333c008942000059540000455300004c450000e0
:10334c0046540000be1f0000b8870000088500002e
:10335c00de8500009883000000010000ae860000ae
:10336c008e8300009e9900008850000047300000ba
:10337c00575200004954000045000000be1f0000d9
:10338c002e8500009c9b00009883000055aa00002d
:10339c002e850000a6840000728700007288000051
:1033ac002c8400002e850000a6840000728700008b
:1033bc00b88700002e850000a684000072870000ec
:1033cc00b88700002e890000de850000988300007d
:1033dc00000100009883000007000000de8500005b
:1033ec00ae860000d6840000488500002e850000c3
:1033fc00ae840000e68500002e89000008850000e0
:10340c0058850000d28700008a9800005085000083
:10341c002e890000d88500008e830000ba99000028
:10342c0087450000575200004e45000058540000dc
:10343c00be1f0000488500002e8500009c9b0000ec
:10344c0058850000b88700002e850000de8500003e
:10345c009883000000010000f6850000ae86000095
:10346c004885000058850000988300000200000089
:10347c0096850000ae84000048850000e6850000bb
:10348c005085000058850000d28700008a98000003
:10349c005085000050850000d88500008e83000008
:1034ac00169a0000843e0000494d000047000000c1
:1034bc00be1f0000648800002c840000728800008d
:1034cc002c8400003a870000ce8300000600000028
:1034dc00fe8400008e83000038990000e084000018
:1034ec00c4990000d6840000b88700003a87000019
:1034fc00ce83000008000000f4840000b2830000ba
:10350c00e8ff0000d6840000b88700002e8500007c
:10351c00de8500009883000000010000f6850000a5
:10352c00ae86000048850000488500002e8500000e
:10353c009c9b000050850000088500005885000009
:10354c00d2870000a62b0000d62b0000f02b000029
:10355c00589a000086470000455400004b45000077
:10356c00590000000a2c0000b09a0000843f0000b3
:10357c004b45000059000000be1f0000b89a000027
:10358c00ac9a0000d6840000ce8300000600000038
:10359c0098830000ffff00008e830000bc9a00009f
:1035ac00834b000045590000be1f0000c29a00006a
:1035bc00ea840000ce830000faff0000f4840000cf
:1035cc008e830000d69a0000844e00005546000001
:1035dc003f000000be1f0000c29a0000d68400000d
:1035ec00ce8300000c000000fe840000da9a00007c
:1035fc00988300000d0000003a8700008e830000c5
:10360c00be1f0000209b0000229b00001e9b0000a0
:10361c0072950000a89a0000309800005c98000099
:10362c0050980000249b0000aa9a00008e83000092
:10363c002c2c0000482c0000582c0000642c00009e
:10364c006c2c0000ea9a00008554000049430000ed
:10365c004b530000a22c00002a9b00008455000054
:10366c005345000043000000ac2c0000349b0000cc
:10367c00844d00005345000043000000be2c0000a8
:10368c003e9b0000844c000046530000520000009a
:10369c00ce2c0000489b000084520000414e0000dc
:1036ac0044000000e62c0000529b000085530000f3
:1036bc00524100004e440000182d00005c9b00009d
:1036cc00854300004c45000041520000be1f000025
:1036dc002e89000048880000a68400006488000041
:1036ec002c84000072880000a68400008e830000e9
:1036fc00669b000084460000524500004500000017
:10370c00be1f00003a890000b8870000de8500006b
:10371c00da9700008e830000809b00008742000037
:10372c00554600004144000044520000be1f0000fa
:10373c00988300004a000000768600009883000001
:10374c00000100003c8600003a890000d88500008a
:04375c008e83000058
:020000040000fa
:103760000000000000000000000000000000000059
:1037700000000000000f000008080000080800001a
:1037800008080000080f0000000000000000000012
:103790000000000000f80000080800000808000011
:1037a0000808000008f80000000000000000000009
:1037b00008080000080800000808000008080000c9
:1037c0000000000000ff00000000000000000000fa
:1037d0000808000008ff00000808000008080000b2
:1037e00000000000000000000000000000000000d9
:1037f00000000000000000000000000000000000c9
:1038000000000000000000000000000000000000b8
:103810000000000000ff0000080800000808000089
:103820000808000008ff0000000000000000000081
:103830000000000000000000000000000000000088
:1038400008080000080f0000080800000808000031
:103850000808000008f80000080800000808000038
:1038600080c00000e0f00000e0c000008000000028
:1038700001030000070f0000070300000100000023
:103880000000000000000000000000000000000038
:103890000000000000000000000000000000000028
:1038a0000000000000000000000000000000000018
:1038b0000000000000000000000000000000000008
:1038c00000000000000000000000000000fe0000fa
:1038d000103800007c1000001010000000fe0000f6
:1038e00020700000a8200000202000000000000040
:1038f0000020000020200000a87000002000000030
:103900004020000010f800001020000040000000df
:103910001020000040f800004020000010000000cf
:10392000000000000080000080800000fe00000019
:103930000000000044fe0000440000000000000001
:1039400000000000103800007cfe000000000000b5
:1039500000000000fe7c00003810000000000000a5
:103960000000000000000000000000000000000057
:103970002020000020200000200000002000000087
:103980005050000050000000000000000000000047
:1039900050500000f8500000f850000050000000a7
:1039a00020780000a070000028f000002000000037
:1039b000c0c800001020000040980000180000005f
:1039c00060900000a0400000a89000006800000087
:1039d0006020000040000000000000000000000027
:1039e00010200000404000004020000010000000b7
:1039f00040200000101000001020000040000000d7
:103a000000200000a8700000a820000000000000b6
:103a10000020000020f8000020200000000000002e
:103a200000000000000000006020000040000000d6
:103a30000000000000f00000000000000000000096
:103a400000000000000000000060000060000000b6
:103a5000000800001020000040800000000000006e
:103a60007088000098a80000c8880000700000005e
:103a7000206000002020000020200000f80000004e
:103a8000708800001020000040800000f800000056
:103a9000f008000008f0000008080000f000000036
:103aa0001030000050900000f810000010000000de
:103ab000f880000080f0000008080000f00000001e
:103ac0003040000080f00000888800007000000096
:103ad000f8080000102000004040000040000000f6
:103ae0007088000088700000888800007000000066
:103af0007088000088700000080800007000000056
:103b00000060000060000000606000000000000035
:103b10000060000060000000602000004000000025
:103b20001020000040800000402000001000000035
:103b300000000000f8000000f80000000000000095
:103b4000402000001008000010200000400000008d
:103b50007088000008100000200000002000000015
:103b60007088000008680000a8a80000700000002d
:103b70007088000088f80000888800008800000035
:103b8000f088000088f0000088880000f000000045
:103b900078800000808000008080000078000000b5
:103ba000f08800008888000088880000f00000008d
:103bb000f880000080f8000080800000f80000001d
:103bc000f880000080f80000808000008000000085
:103bd0007880000080b0000088880000700000003d
:103be0008888000088f800008888000088000000ad
:103bf0007020000020200000202000007000000045
:103c0000780800000808000008900000600000002c
:103c100088900000a0c00000a09000008800000074
:103c2000808000008080000080800000f80000009c
:103c300088d80000a888000088880000880000005c
:103c400088880000c8a8000098880000880000004c
:103c500070880000888800008888000070000000dc
:103c6000f088000088f000008080000080000000e4
:103c70007088000088880000a89800007800000084
:103c8000f088000088f00000a0900000880000008c
:103c9000788000008070000008080000f00000003c
:103ca000f82000002020000020200000200000005c
:103cb0008888000088880000888800007000000064
:103cc00088880000888800008850000020000000dc
:103cd0008888000088a80000a8d80000880000009c
:103ce00088880000502000005088000088000000f4
:103cf000888800008850000020200000200000007c
:103d0000f81000002040000080800000f800000053
:103d100060400000404000004040000060000000a3
:103d2000008000004020000010080000000000009b
:103d3000180800000808000008080000180000002b
:103d4000205000008800000000000000000000007b
:103d500000000000000000000000000000f800006b
:103d600040200000100000000000000000000000e3
:103d70000000000070080000788800007800000053
:103d80008080000080b00000c8880000f0000000c3
:103d900000000000708000008088000070000000bb
:103da00008080000086800009888000078000000fb
:103db0000000000070880000f88000007000000023
:103dc0003048000040e0000040400000400000009b
:103dd000000000007888000088780000087000006b
:103de00080800000b0c800008888000088000000c3
:103df0000020000000200000202000002000000023
:103e00001000000030100000109000006000000062
:103e10008080000090a00000c0a000009000000082
:103e20006020000020200000202000007000000022
:103e300000000000d0a80000a88800008800000052
:103e400000000000b0c80000888800008800000062
:103e500000000000708800008888000070000000ea
:103e600000000000f088000088f000008080000062
:103e7000000000006890000090b0000050180000a2
:103e800000000000b0c8000080800000800000003a
:103e9000000000007080000070080000f0000000ca
:103ea00040400000e04000004048000030000000ba
:103eb000000000008888000088980000680000006a
:103ec00000000000888800008850000020000000ea
:103ed0000000000088880000a8a800005000000032
:103ee0000000000088500000205000008800000002
:103ef000000000008888000088780000087000003a
:103f000000000000f810000020400000f800000051
:103f100020400000408000004040000020000000e1
:103f200020200000202000002020000020000000b1
:103f30004020000020100000202000004000000071
:103f40000000000040a80000100000000000000079
:103f5000fcfc0000fcfc0000fcfc0000fcfc000081
:020000040000fa
:103f60000c4600006f720000746800004578000085
:0c3f700020560000302e00003100000040
:020000040000fa
:103f7c008a1f78000c0578003a0678003c0078001f
:103f8c00000401000d2f78003c0078008b064000e7
:103f9c003a0678003c007800000401000d2f7800f0
:103fac008c0678003a0678003c007800000401008a
:103fbc000d2f78009c0678003a0678003c007800bb
:103fcc00000401004f0578003a0678003c007800a8
:103fdc00000401000d2f7800ba0678003a0678002c
:103fec003c007800000401000d2f7800ba06780020
:103ffc008d86fb003a0678003c0078000004010036
:10400c001a0545003a0678003c00780000040100cf
:10401c000d00e000ae067800f9ff3a000a85e800d2
:10402c003a0678003c007800000401000d00e00026
:10403c00ae067800f2ff32000a85e8003a067800f6
:10404c003c00780000040100881f7800891f78006c
:10405c008d047800ae0678000d047800ae0678006a
:10406c003a0678003c007800000401008904e8005e
:10407c000848e100040032001a0545003a067800b1
:10408c003c007800000401000a85e800cf047800a9
:10409c004f0478003a0678003c00780000040100d8
:1040ac00090078008d844400ae0678000800e10019
:1040bc00040035000800e9000048e100f2ff34007c
:1040cc00020037000848e100efff3d001a054500eb
:1040dc003a0678003c007800000401000d2f7800af
:1040ec008a0678003a0678003c007800000401004b
:1040fc000d057800ae0678003a0678003c00780092
:10410c00000401000000fe000d067800ae067800e9
:10411c003c007800000401001d007800ae06780019
:10412c00000401009d0678003a0678003c007800f7
:10413c00000401003200f80001c0fe009d0678006a
:10414c003200f9003a0678003c00780000040100c7
:10415c003200f80001c0fe009d4678008d86fb0001
:10416c003200f9003a0678003c00780000040100a7
:10417c009d4678008d86fb003a0678003c0078005e
:10418c00000401001d0078002d00b0009d06780091
:10419c00002f78003a0678003c00780000040100fb
:1041ac00ae0e7800ae0678003a0678003c00780037
:1041bc00000401002e007800804e7800ae067800d6
:1041cc003a0678003c00780000040100ae0e78003e
:1041dc002d00b000ae0e7800ae0678003a067800de
:1041ec003c007800000401000d2f7800890678004f
:1041fc003a0678003c007800000401000d2f78008e
:10420c00ffbe97003a0678003c00780000040100dd
:10421c00cf0478004f0478003a0678003c00780010
:10422c00000401000d2f78003a0678003c0078005d
:10423c00000401001e0078000d2f7800002f78007c
:10424c003a0678003c007800000401000d00e00004
:10425c00010032000d2f78003a0678003c007800ff
:10426c0000040100ae0678003a0678003c007800a5
:10427c0000040100ae067800ae0678003a0678001d
:10428c003c007800000401001e0078008006fd0050
:10429c00000f78003a0678003c007800000401001a
:1042ac007eb897007dbf9f00800678006eb897009f
:1042bc009e00780061bf9f00000f78003a067800de
:1042cc003c007800000401001e0078000d00fd0089
:1042dc00000f78007eb897008006fd0070bf9f002d
:1042ec003a0678003c007800000401000d007800cc
:1042fc009e067800feb89700010f780070bf9f00f3
:10430c003a0678003c007800000401000d2f78007c
:10431c00febe97003a0678003c00780000040100cd
:10432c000d2f7800eebe97005eb89700002f780036
:10433c003a0678003c007800000401000e87e90082
:10434c003a0678003c007800000401008d1f7800cc
:10435c00ae0678003a0678003c00780000040100b4
:10436c000d2f7800cf0678003a0678003c007800d4
:10437c00000401000d2f7800ffbe97003a0678006c
:10438c003c007800000401000e0078000d2f78002e
:10439c00800678003a0678003c00780000040100a2
:1043ac000d0778003a0678003c0078000004010004
:1043bc000d2f78008f0678003a0678003c007800c4
:1043cc00000401008d077800ae0678003a067800ec
:1043dc003c007800000401001e0078000d0f7800ee
:1043ec00002f78003a0678003c00780000040100a9
:1043fc0000908000000057000d2f78008006d1003f
:10440c003a0678003c007800000401000e007800a9
:10441c008d06d0000d005000900678003a0678000a
:10442c003c00780000040100008880000d18780022
:10443c0000888800ae0678003a0678003c007800c8
:10444c00000401000d2f780000888000c006780061
:10445c00008888003a0678003c00780000040100cf
:10446c00ae8646003a0678003c0078000004010055
:10447c002e0078008d0650003a0678003c0078003b
:10448c00000401001d00b0003a0678003c007800e2
:10449c00000401002d00b0003a0678003c007800c2
:1044ac00000401001d00b1003a0678003c007800c1
:1044bc00000401002d00b1003a0678003c007800a1
:1044cc00000401008d8646003a0678003c00780016
:1044dc00000401008d86d1003a0678003c0078007b
:1044ec00000401000d007800ae0678000000e90021
:1044fc00008009008d06d0003a0678003c00780058
:10450c00000401000d007800ae0678000000e90000
:10451c00008009008d06d1003a0678003c00780036
:10452c00000401001d0078002e004000800e780071
:10453c00ae0678003a0678003c00780000040100d2
:10454c007eb897000d004000ae0678000d80b000dc
:10455c00000f78003a0678003c0078000004010057
:10456c002ee8b900800678003a0678003c00780006
:10457c00000401001ee8b900000f780081067800e5
:10458c003a0678003c007800000401001e68b80070
:10459c0081067800000f78003a0678003c0078001d
:1045ac00000401002e007800110009000d00d80055
:1045bc00800678003a0678003c0078000004010080
:1045cc002e007800110009000d00d800810678003b
:1045dc003a0678003c007800000401002e007800b8
:1045ec00ae0078000180b900110009004d08d80018
:1045fc00800678003a0678003c0078000004010040
:10460c002e007800ae0078000180b900110009007e
:10461c000d00d800012f7800800678003a0678004b
:10462c003c007800000401001e0078001100090015
:10463c004d08d80080067800010f78003a06780003
:10464c003c00780000040100ae0078002e007800d9
:10465c00110009004d88d80080067800012f7800e1
:10466c003a0678003c007800000401002e00780027
:10467c000068e10001003d000d00fd003a067800e5
:10468c003c007800000401002e0078000d00e100d1
:10469c0001003d000d00fd003a0678003c0078005a
:1046ac00000401000000eb002e017800ae00780041
:1046bc000208e100030039000d08e100010031009f
:1046cc000080eb00800678003a0678003c00780009
:1046dc00000401000080eb000d00a7000000eb00bf
:1046ec00800678003a0678003c007800000401004f
:1046fc000080eb000d00a6000000eb0080067800a7
:10470c003a0678003c007800000401000df0a70088
:10471c008d06ea003a0678003c007800000401009f
:10472c00ae8666003a0678003c0078000004010072
:10473c00ae8676003a0678003c0078000004010052
:10474c00ae866e003a0678003c007800000401004a
:10475c008d86ea003a0678003c00780000040100df
:10476c008d86ea001e8fea003a0678003c0078003d
:10477c00000401008d06ea003a0678003c0078003f
:10478c00000401008d86ea001e8fea001000200054
:10479c001e0f40000d80b0003a0678003c007800f7
:1047ac00000401001d00b1008d865e003a06780001
:1047bc003c007800000401008d8646008d865e006a
:1047cc008d86ea003a0678003c007800000401006f
:1047dc008d8646008d865e003a0678003c00780097
:1047ec00000401000000eb002e68e10001003a001b
:1047fc000080eb00800678003a0678003c007800d8
:10480c00000401000000eb002e68e1000100320002
:10481c000080ea00800678003a0678003c007800b8
:10482c00000401000080eb002e68e10001003c0058
:10483c000080ea00800678003a0678003c00780098
:10484c00000401000080eb002e68e100010035003f
:10485c000080ea00800678003a0678003c00780078
:10486c00000401000000eb002e68e100010036009e
:10487c000080ea00800678003a0678003c00780058
:10488c00000401000000eb002e68e1000100310083
:10489c000080ea00800678003a0678003c00780038
:1048ac00000401000d2f78002d0020003a0678003e
:1048bc003c007800000401002d00b0003a0678009e
:1048cc003c007800000401006268b80080067800a3
:1048dc003a0678003c007800000401000d00a700a7
:1048ec008d06e8003a0678003c00780000040100d0
:1048fc00fd07b200e068e10001003d00fd0520006d
:10490c003a0678003c007800000401003200f80000
:10491c0001c0fe000d007800ae0678000d01780095
:10492c00ae0678008d007800ae0678000000e0003e
:10493c00030032000000e900008009003119780002
:10494c003200f9003a0678003c00780000040100bf
:10495c003200f80001c0fe000d007800ae067800b1
:10496c000d017800ae0678008d007800ae06780058
:10497c000000e000030032000000e90000800900a4
:10498c00315978003200f9003a0678003c00780082
:10499c00000401003200f80001c0fe000d00780098
:1049ac00ae0678009e0078000d00e0000500320095
:1049bc001104e100030032008100e8008d06e900db
:1049cc00fbff3a00010f78003200f9003a0678003c
:1049dc003c007800000401003200f80001c0fe0029
:1049ec000d007800ae0078002e017800ae0678003d
:1049fc000100e000030032008100e90001800900a1
:104a0c00005978003200f9003a0678003c00780032
:104a1c00000401001e0078000d004000110220006f
:104a2c000000e900100ce10036323e000000e80006
:104a3c009e0650003a0678003c0078000004010005
:104a4c000d2f78000dfb29003a0678003c00780009
:104a5c00000401000d2f78000d002d003a0678009f
:104a6c003c007800000401000d2f78000d0420009c
:104a7c003a0678003c007800000401000d2f780005
:104a8c000d0220003a0678003c007800000401007a
:104a9c000d2f7800fd0120003a0678003c007800cc
:104aac00000401000d2f78000d0220003a0678005a
:104abc003c007800000401000d2f78000d0520004b
:104acc003a0678003c007800000401000d2f7800b5
:104adc000d0520003a0678003c0078000004010027
:104aec000d2f78000d3021003a0678003c0078003c
:104afc00000401000d2f78000d0028003a06780004
:104b0c003c007800000401000d2f7800edfb29001b
:104b1c003a0678003c007800000401000d2f780064
:104b2c00fdff2f003a0678003c00780000040100dd
:104b3c000d2f78000d0020003a0678003c0078001c
:104b4c00000401000d2f78009d8f80000d2f780040
:104b5c00ad8f80003a0678003c007800000401001c
:104b6c00ad8f8800ae0678009d8f8800ae06780069
:104b7c003a0678003c007800000401008d007800b3
:104b8c00114178000204e0000a0032008100e800c4
:104b9c00114078000241e900e105e100f9ff39001c
:104bac00fa05e100f7ff3e000042b10080487800b2
:104bbc00f4ff37003a0678003c007800000401004e
:104bcc000d007800ae0678009e0078000d00e00025
:104bdc00050032001104e10003003a008100e800f6
:104bec008d06e900fbff3a00010f78003a067800c9
:104bfc003c007800000401008d0178000d2f780036
:104c0c0033427800429080000200e000190032002c
:104c1c008280e9003240780080437800f043b20093
:104c2c000404e1000200320011017800f6ff3700a5
:104c3c0003037800844278000504e000050032008c
:104c4c00364078003204e100f7ff3a008542e90073
:104c5c00f9ff37000200a7000201e800020f7800fc
:104c6c008086eb000744b200030032008d06ea0098
:104c7c00010037000d0020003a0678003c00780057
:104c8c00000401000a0678003c0578000d2f78001e
:104c9c008c0678003a0678003c007800000401008d
:104cac00106ea900108ea90000348000f10f2e00a8
:104cbc0001006000018020000100700000348800b9
:104ccc001034800001fe2f00010060000101200063
:104cdc000100700010348800b0022000101388000e
:104cec006402a800c01521006008880020488800d4
:104cfc00804888008014200030488800a0382000ac
:104d0c007048880050c02100004888005048880036
:104d1c00f0ff28004228b600000025004228b7000a
:104d2c00f08f2f004228b600005020004228b70018
:104d3c001cb2ef001ef2ef001ff2ef0000e8a9001a
:104d4c0020e8a80011e1a800d014200010918800e0
:104d5c002472ef002512a8002532a9003a0678002b
:104d6c003c007800000401000d0078001ff2b70031
:104d7c00ae0678003a0678003c007800000401008a
:104d8c000d007800ae0678000000e000050032004f
:104d9c00502d0200000000003a0678003c0078001c
:104dac0000040100602d0200000000003a067800ab
:104dbc003c007800000401003200f80001c0fe0045
:104dcc002472ec000002220001a02c00ff0209005a
:104ddc00801878002032ef002532a9002472ed00f3
:104dec003200f9003a0678003c007800000401001b
:104dfc006e2d0200000000003a0678003c0078009e
:104e0c00000401009a2d0200000000003a06780010
:104e1c003c007800000401000d2f780020d2bf0068
:104e2c00800678008d86fb003a0678003c007800fe
:104e3c00000401000d2f780021d2bf0080067800fd
:104e4c008d86fb003a0678003c00780000040100d7
:104e5c002472ec002532af00342d0200000000005b
:104e6c002532a900f00320000068e10001003e009b
:104e7c000d00780020f2b7002472ed00ae06780029
:104e8c003a0678003c007800000401002472ec0023
:104e9c002532af00342d0200000000002532a9009d
:104eac007868e100010039007d0120000d007800d8
:104ebc0021f2b7002472ed00ae0678003a067800b5
:104ecc003c007800000401002472ec002532af0095
:104edc00342d0200000000002532a9002072ed00e4
:104eec0008003b002172ed0003003b009a2d0200ec
:104efc00000000002172ef00000420000000e90017
:104f0c0020f2b7002472ed003a0678003c007800dd
:104f1c00000401002472ec002532af00342d020095
:104f2c00000000002532a9002072ec0000042000d3
:104f3c002052e300080039002072ef002172ec00cf
:104f4c00800120002152e300030039006e2d020085
:104f5c00000000002172ed002472ed003a0678008a
:104f6c003c007800000401002472ec002532af00f4
:104f7c00342d0200000000002532a900342d02005f
:104f8c00000000002472ed003a0678003c00780026
:104f9c00000401002472ec002532af00342d020015
:104fac00000000002532a90000c4b3002152bc004f
:104fbc0020d2bf000080fb000200400001a02c00aa
:104fcc00810040008d487800ae0678002472ed0018
:104fdc00d0ff37002472ec002532af00342d0200d4
:104fec00000000002532a900f003200020f2b700d9
:104ffc002472ed00c7ff37000d2f78000d02200042
:10500c00e4ff37002472ec002532af00342d02008f
:10501c00000000002532a90002a02c008001200015
:10502c000068e10006003100000420000068b800b0
:10503c0002014000000222001f0009000019780044
:10504c002472ed00ae0678003a0678003c00780039
:10505c0000040100116ea900f00f2e008826b60086
:10506c00003020008826b70000fe2f00c426b600b2
:10507c00c0022000c426b700601c2000401188002c
:10508c0021e2a80080ff2f004628b6003000200047
:10509c004628b700f0ff28004428b6000000230083
:1050ac004428b7000188a9002188a8000168a9003c
:1050bc002168a8002462ef002342a8003a06780079
:1050cc003c0078000004010021e2a90000d8210076
:1050dc00c1422000420020008100d1000080d3009a
:1050ec000201e900110009004d88d8000000e90018
:1050fc004011880021e2a800ae0678003a0678003c
:10510c003c00780000040100c211e20005003a00e6
:10511c002322af00030037002d118800ae06780063
:10512c000d00370000012000c211e300feff320029
:10513c00c5d1bf000080fb00211b21008100400075
:10514c008d487800ae067800c231ec00c571ec00d9
:10515c00f0002000c571b6003a0678003c007800db
:10516c00000401000d2f7800c611e20001003a0086
:10517c00fdff3700c8d1bf000080fb00211a2100c1
:10518c008100400091467800c631ed00c871ec00fa
:10519c00f0002000c871b6003a0678003c00780098
:1051ac0000040100f0fd2f00102eb600f00f2e00b1
:1051bc008226b600002021008226b7001629ef00b7
:1051cc0050402000a0488800000120009008880072
:1051dc003a0678003c007800000401007d08880045
:1051ec00cd4888008d06d100dd488800ae067800d9
:1051fc0013e1a8003d918800ae0678003a067800cd
:10520c003c00780000040100405c2000142eb70024
:10521c000080ea00102eb60019aea800f0ff28009e
:10522c004828b600000023004828b7002268a800d0
:10523c000268a900e01320001012880041e2a800c7
:10524c003a0678003c0078000004010041e2a90015
:10525c00f00120004222b600010078004222b70083
:10526c0041e2a80000000600144ea80041e2a8008c
:10527c00f0cfb300a100200048e2b7004002ae001e
:10528c00feff3700401280008100e900faff3a006f
:10529c0000000600144ea800f0cfb30048e2b7009f
:1052ac004002ae00feff37004012800000000600f6
:1052bc008002780090082000203288004626ef00fb
:1052cc0041e6a80070702000103288004c26ef00d8
:1052dc004e26ef00054078000060a0000070a10091
:1052ec0048e6b70048e2b7004002ae00feff3700c8
:1052fc0040128000010078000080fd0048e6b700f5
:10530c0048e2b7004002ae00feff370040128000ba
:10531c000100780048e6b70048e2b7004002ae0052
:10532c00feff370040128000020078000080fd0074
:10533c0048e6b70048e2b7004002ae00feff370077
:10534c00401280000200780048e6b7004086a800b2
:10535c0048e2b7004002ae00feff3700401280006a
:10536c004086af00feff37004cc6bf0048e2b700d6
:10537c004002ae00feff370040128000810020008a
:10538c00f0cfb30048e2b7004002ae00feff37009a
:10539c0040128000f0cfb20004003a008100e90016
:1053ac00f7ff3a000a92a80000000600005a7800a5
:1053bc000300e00001003a000000060048e2ef00a4
:1053cc004002ae00feff370048c2bf00005a780012
:1053dc008301e900f6ff37000d007800ae06780077
:1053ec0048e2b7004002ae00feff370040128000da
:1053fc000d0078000080fd0048e2b7004002ae00ce
:10540c00feff3700401280000d00780048e2b70024
:10541c004002ae00feff370040128000ae0678005e
:10542c000000060014cea9005000200048e2b7008e
:10543c004002ae00feff37004012800048e2ef0051
:10544c004002ae00feff370048c2bf0014cea800d9
:10545c004802af00f3ff3700000006000a32ef00ed
:10546c0013aeaf00000006000a12a80001002000d5
:10547c002c290200000000003a2902000000000064
:10548c00144ea900000020008000eb000001eb008e
:10549c008001eb00042121005e29020000000000c5
:1054ac003a0678003c007800000401003200f80055
:1054bc0001c0fe00154ea9002000200048e2b700f4
:1054cc004002ae00feff3700401280008d007800d5
:1054dc00ae067800f2290200000000000d017800f1
:1054ec00ae0678000100e000070032003240780080
:1054fc0048e2b7004002ae00feff370040128000c9
:10550c008100e900f7ff3700154ea8003200f900c2
:10551c003a0678003c00780000040100154ea90002
:10552c003000200048e2b7004002ae00feff37001a
:10553c00401280008d007800ae067800f22902003f
:10554c00000000000d017800ae0678000100e000bc
:10555c000700320048e2ef004002ae00feff3700c9
:10556c0048c2bf00005978008100e900f7ff3700fe
:10557c00154ea8003a0678003c00780000040100a3
:10558c003200f80001c0fe00182a020000000000e2
:10559c0014cea9006000200048e2b7004002ae0023
:1055ac00feff37004012800014cea800000000005f
:1055bc0014cea9002000200048e2b7004002ae0043
:1055cc00feff370040128000fd1fb200c86edd00e8
:1055dc000d2f78008006eb008d86d200f229020098
:1055ec0000000000fd03b200c86edd0002002800c0
:1055fc0002814600ae06780003102000324078008d
:10560c0048e2b7004002ae00feff370040128000b7
:10561c008301e900f9ff3a0014cea8003200f9002a
:10562c003a0678003c00780000040100182a0200b9
:10563c000000000014cea9003000200048e2b700a2
:10564c004002ae00feff370040128000fd1fb2008a
:10565c00c86edd000d2f78008006eb008d86d20021
:10566c00f229020000000000fd03b200c86edd004c
