:020000040000fa
:080000000002040000000000f2
:020000040000fa
:040008006003000091
:020000040000fa
:04000c00600300008d
:020000040000fa
:040010006003000089
:020000040000fa
:040014006003000085
:020000040000fa
:040018005e03000083
:020000040000fa
:04001c00600300007d
:020000040000fa
:040020006003000079
:020000040000fa
:040024006003000075
:020000040000fa
:040028006003000071
:020000040000fa
:04002c00600300006d
:020000040000fa
:040030006003000069
:020000040000fa
:040034006203000063
:020000040000fa
:040038006003000061
:020000040000fa
:04003c00600300005d
:020000040000fa
:040040008a02000030
:020000040000fa
:040044001c0200009a
:020000040000fa
:040048006003000051
:020000040000fa
:04004c00600300004d
:020000040000fa
:040050006003000049
:020000040000fa
:04005400f0020000b6
:020000040000fa
:04005800140300008d
:020000040000fa
:04005c00600300003d
:020000040000fa
:040060006003000039
:020000040000fa
:040064006003000035
:020000040000fa
:040068006003000031
:020000040000fa
:04006c00600300002d
:020000040000fa
:040070006003000029
:020000040000fa
:04007400380300004d
:020000040000fa
:0400780084030000fd
:020000040000fa
:04007c00600300001d
:020000040000fa
:040080006003000019
:020000040000fa
:040084006003000015
:020000040000fa
:040088006003000011
:020000040000fa
:04008c00600300000d
:020000040000fa
:040090006003000009
:020000040000fa
:040094006003000005
:020000040000fa
:040098006003000001
:020000040000fa
:04009c0060030000fd
:020000040000fa
:0400a0004203000017
:020000040000fa
:0400a40060030000f5
:020000040000fa
:0400a80060030000f1
:020000040000fa
:0400ac0060030000ed
:020000040000fa
:0400b00060030000e9
:020000040000fa
:0400b40060030000e5
:020000040000fa
:0400b80060030000e1
:020000040000fa
:0400bc0060030000dd
:020000040000fa
:0400c00060030000d9
:020000040000fa
:0400c40060030000d5
:020000040000fa
:0400c80060030000d1
:020000040000fa
:0400cc0060030000cd
:020000040000fa
:0400d00060030000c9
:020000040000fa
:0400d40060030000c5
:020000040000fa
:0400d80060030000c1
:020000040000fa
:0400dc0060030000bd
:020000040000fa
:0400e00060030000b9
:020000040000fa
:0400e40060030000b5
:020000040000fa
:0400e80060030000b1
:020000040000fa
:0400ec0060030000ad
:020000040000fa
:0400f00060030000a9
:020000040000fa
:0400f40060030000a5
:020000040000fa
:0400f80060030000a1
:020000040000fa
:0400fc00600300009d
:020000040000fa
:040100006003000098
:020000040000fa
:040104006003000094
:020000040000fa
:040108006003000090
:020000040000fa
:04010c00600300008c
:020000040000fa
:040110006003000088
:020000040000fa
:040114006003000084
:020000040000fa
:040118006003000080
:020000040000fa
:04011c00600300007c
:020000040000fa
:040120006003000078
:020000040000fa
:040124006003000074
:020000040000fa
:040128006003000070
:020000040000fa
:04012c00600300006c
:020000040000fa
:040130006003000068
:020000040000fa
:040134006003000064
:020000040000fa
:040138006003000060
:020000040000fa
:04013c00600300005c
:020000040000fa
:040140006003000058
:020000040000fa
:040144006003000054
:020000040000fa
:040148006003000050
:020000040000fa
:04014c00600300004c
:020000040000fa
:040150006003000048
:020000040000fa
:040154006003000044
:020000040000fa
:040158006003000040
:020000040000fa
:04015c00600300003c
:020000040000fa
:040160006003000038
:020000040000fa
:040164006003000034
:020000040000fa
:040168006003000030
:020000040000fa
:04016c00600300002c
:020000040000fa
:040170006003000028
:020000040000fa
:040174006003000024
:020000040000fa
:040178006003000020
:020000040000fa
:04017c00600300001c
:020000040000fa
:040180006003000018
:020000040000fa
:040184006003000014
:020000040000fa
:040188006003000010
:020000040000fa
:04018c00600300000c
:020000040000fa
:040190006003000008
:020000040000fa
:040194006003000004
:020000040000fa
:040198006003000000
:020000040000fa
:04019c0060030000fc
:020000040000fa
:0401a00060030000f8
:020000040000fa
:0401a40060030000f4
:020000040000fa
:0401a80060030000f0
:020000040000fa
:0401ac0060030000ec
:020000040000fa
:0401b00060030000e8
:020000040000fa
:0401b40060030000e4
:020000040000fa
:0401b80060030000e0
:020000040000fa
:0401bc0060030000dc
:020000040000fa
:0401c00060030000d8
:020000040000fa
:0401c40060030000d4
:020000040000fa
:0401c80060030000d0
:020000040000fa
:0401cc0060030000cc
:020000040000fa
:0401d00060030000c8
:020000040000fa
:0401d40060030000c4
:020000040000fa
:0401d80060030000c0
:020000040000fa
:0401dc0060030000bc
:020000040000fa
:0401e00060030000b8
:020000040000fa
:0401e40060030000b4
:020000040000fa
:0401e80060030000b0
:020000040000fa
:0401ec0060030000ac
:020000040000fa
:0401f00060030000a8
:020000040000fa
:0401f40060030000a4
:020000040000fa
:0401f80060030000a0
:020000040000fa
:0401fc00600300009c
:020000040000fa
:040200006003000097
:020000040000fa
:040204006003000093
:020000040000fa
:04020800600300008f
:020000040000fa
:04020c00600300008b
:020000040000fa
:040210006003000087
:020000040000fa
:040214006003000083
:020000040000fa
:04021800600300007f
:020000040000fa
:04021c00600300007b
:020000040000fa
:040220006003000077
:020000040000fa
:040224006003000073
:020000040000fa
:04022800600300006f
:020000040000fa
:04022c00600300006b
:020000040000fa
:040230006003000067
:020000040000fa
:040234006003000063
:020000040000fa
:04023800600300005f
:020000040000fa
:04023c00600300005b
:020000040000fa
:040240006003000057
:020000040000fa
:040244006003000053
:020000040000fa
:04024800600300004f
:020000040000fa
:04024c00600300004b
:020000040000fa
:040250006003000047
:020000040000fa
:040254006003000043
:020000040000fa
:04025800600300003f
:020000040000fa
:04025c00600300003b
:020000040000fa
:040260006003000037
:020000040000fa
:040264006003000033
:020000040000fa
:04026800600300002f
:020000040000fa
:04026c00600300002b
:020000040000fa
:040270006003000027
:020000040000fa
:040274006003000023
:020000040000fa
:04027800600300001f
:020000040000fa
:04027c00600300001b
:020000040000fa
:040280006003000017
:020000040000fa
:100400000e2eef00700020004a28b7000f002100d8
:100410000e0821000e0078008001b1000001880064
:1004200001c4fe0000c2fe000a032b003a06780059
:080430003c007800000401000b
:020000040000fa
:1004380000e8a90061e2a900801f78001c32ec00e6
:1004480019003200600020001c12e3001c0032007a
:10045800c00020001c12e3001c0032002001200014
:100468001c12e3001c003200200320001c12e300d1
:100478001f003200200f20001c12e3002100320070
:10048800f01020001e52e200010032000000e800d7
:100498001c12e30002003a001ef2ee001cb2ef004c
:1004a8004f00780000400600400a200030488800cd
:1004b800e08a20002048880060088800f8ff37009c
:1004c800a080200030488800f5ff3700400a20004f
:1004d80030488800f2ff3700801420003048880038
:1004e800c01521002048880060088800ecff37000c
:1004f8001f52e200eaff320000c8a90020c8a80085
:10050800e7ff370020c8a900e5ff370000c8a900a9
:10051800809fbe00829fbe00849fbe00861f780019
:100528003200f800e19080002103b100e78260000a
:10053800c308de00020420000110b80004a02c004b
:100548000402400043d12900904880006300600005
:10055800000601000000000000000000000000008c
:1005680061e2a8000200e0001200320001c0fe00b3
:10057800344078000003eb000070a7000083eb0014
:10058800f007b2004300dd00808041008580400014
:1005980000c2fe00114078000670a7000080ea0043
:1005a8006022ab00feff3a0068e2b7000201e900f2
:1005b800ecff37006022ab00feff3a006822ef0034
:1005c8003200f9004f0378004f02be004f01be0011
:1005d8004f00be00004006000168a900801f780097
:1005e800811f7800c9d1bf000080fb00211a2100bb
:1005f800810040002202ae00060037003011800062
:1006080080487800c631ec00c971ec00f000200089
:10061800c971b600cf0078004f007800004006008e
:100628000188a900801f7800811f7800c211e200ac
:100638000a003200c4d1bf000080fb00211b21004a
:10064800810040001140780024e2b700c231ed007b
:10065800c471ec00f0002000c471b600cf0078002f
:100668004f007800004006000a32ef0013aeae00db
:100678000a12a8000268a9000040060003c8a900e1
:10068800809fbe00829fbe00b0118000a11c210087
:10069800628f800081004100804878001200b0001d
:1006a800f201b200628f88004f01be004f00be0009
:1006b800004006000000fe000000fe000068a900df
:1006c800809fbe00829fbe001632ec002612e20018
:1006d800030032002632ed0001003a0013e1a900c0
:1006e8002452e20003003a002512af00962f0200c0
:1006f800000000004f01be004f00be000040060091
:040708000000fe00ef
:020000040000fa
:10070c00000000002445000058490000540000007f
:10071c004c21000088830000a52800004c490000f3
:10072c00542900005421000092830000a6280000e8
:10073c00434c000049540000290000005e210000d9
:10074c009c830000a828000042520000414e00008b
:10075c0043480000290000006a210000a883000023
:10076c00a928000054420000524100004e430000f2
:10077c004829000072210000b6830000a92800005f
:10078c003f420000524100004e4300004829000047
:10079c0080210000c4830000a4280000444f000006
:1007ac00290000008e210000d2830000a628000042
:1007bc004c4f00004f50000029000000a021000009
:1007cc00dc830000a72800002b4c00004f4f0000da
:1007dc0050290000ba210000e88300008349000082
:1007ec0050400000d8210000f48300008349000031
:1007fc0050210000e2210000fc8300008652000022
:10080c00454200004f4f000054000000ec21000056
:10081c000484000087450000584500004355000043
:10082c0054450000ee2100001084000088400000b8
:10083c004558000045430000555400004500000099
:10084c00f62100001c84000081400000fc21000007
:10085c002a840000824500004000000004220000b1
:10086c003084000083430000454000001222000049
:10087c003884000082430000400000002222000067
:10088c0040840000874200005546000046450000a9
:10089c005221000022210000009d0000d88500009c
:1008ac00a68400008e83000048840000884200006b
:1008bc005546000046450000524300002100000050
:1008cc0022210000009d0000d8850000ae840000ad
:1008dc008e8300005c8400008742000055460000b7
:1008ec00464500005240000022210000009d0000ff
:1008fc00d8850000348400008e83000072840000d0
:10090c008842000055460000464500005243000056
:10091c004000000022210000009d0000d88500004e
:10092c003c8400008e83000086840000823200002c
:10093c00400000002c2200009c840000812100005b
:10094c003a220000a4840000824300002100000031
:10095c0044220000aa840000823200002100000022
:10096c0050220000b2840000814900005e22000089
:10097c00ba840000814a000068220000c084000094
:10098c00865500004e4c00004f4f000050000000f8
:10099c0072220000c6840000834400005550000001
:1009ac007c220000d28400008432000044550000f8
:1009bc005000000084220000da840000843f000014
:1009cc00445500005000000090220000e484000018
:1009dc0084440000524f0000500000009c22000094
:1009ec00ee84000085320000445200004f5000009d
:1009fc00a4220000f884000084530000574100003a
:100a0c0050000000ae22000002850000853200007c
:100a1c005357000041500000ba2200000c85000022
:100a2c00835200004f540000ce22000016850000b7
:100a3c00842d0000524f000054000000e022000002
:100a4c001e850000844f0000564500005200000037
:100a5c00f022000028850000853200004f5600006f
:100a6c0045520000fa22000032850000834e00003f
:100a7c0049500000082300003c850000823e000025
:100a8c005200000010230000448500008252000038
:100a9c003e0000001a2300004c850000825200002a
:100aac004000000024230000548500008353000004
:100abc00504000002e2300005c8500008353000092
:100acc00502100003a23000064850000835200008e
:100adc0050400000422300006c850000835200004f
:100aec00502100004c230000748500008454000049
:100afc00554300004b000000562300007c8500008d
:100b0c00854400004550000054480000622300005a
:100b1c008685000084500000494300004b00000013
:100b2c007023000090850000853e000043530000b8
:100b3c00544b00007e2300009a8500008543000082
:100b4c00535400004b3e00008c230000a485000091
:100b5c0083480000455800002221000098830000c3
:100b6c001000000076880000a68400008e83000030
:100b7c00ae8500008744000045430000494d00004d
:100b8c00414c000022210000988300000a00000064
:100b9c0076880000a68400008e830000c0850000cb
:100bac00812b00009a230000d6850000812d0000c7
:100bbc00a2230000dc850000823100002b00000025
:100bcc00ac230000e2850000823200002b00000004
:100bdc00b4230000ea850000823100002d000000e3
:100bec00bc230000f2850000823200002d000000c2
:100bfc00c4230000fa850000823200002a000000a5
:100c0c00cc23000002860000823200002f0000007e
:100c1c00d42300000a860000864c000053480000d4
:100c2c004946000054000000dc230000128600003e
:100c3c008652000053480000494600005400000052
:100c4c00ec2300001e860000822b00002100000017
:100c5c00fc2300002a860000824d00002b000000bf
:100c6c000a24000032860000812a00001a240000a9
:100c7c003a860000824d00002a0000002424000067
:100c8c0040860000835500004d2a000030240000ef
:100c9c004886000083550000442a000022210000f1
:100cac00d6840000488500004c860000f4840000c7
:100cbc0008850000508500004c8600001a85000055
:100ccc00d88500008e83000050860000812f000024
:100cdc003c2400006c860000834d00004f44000053
:100cec004a24000072860000822a00002f000000b7
:100cfc00582400007a860000852a00002f4d000041
:100d0c004f4400006a24000082860000842f0000fb
:100d1c004d4f0000440000007e2400008c86000033
:100d2c00865500004d2f00004d4f00004400000080
:100d3c008e24000096860000834d00004158000070
:100d4c00a0240000a2860000834d0000494e000044
:100d5c00ae240000aa860000845500004d4100001e
:100d6c0058000000bc240000b2860000845500002e
:100d7c004d4900004e000000ca240000bc86000053
:100d8c008657000049540000484900004e000000fe
:100d9c00d8240000c686000084450000564500009b
:100dac004e000000f0240000d2860000834f0000ab
:100dbc0044440000fe240000dc8600008341000057
:100dcc00425300000c250000e4860000823e000027
:100ddc004400000016250000ec8600008341000052
:100dec004e44000026250000f4860000824f0000cf
:100dfc00520000002e250000fc86000083580000e5
:100e0c004f52000036250000048700008649000080
:100e1c004e56000045520000540000003e250000d4
:100e2c000c87000087440000494e00005645000026
:100e3c00525400004625000018870000864e000022
:100e4c0045470000415400004500000050250000bb
:100e5c0024870000874400004e45000047410000f5
:100e6c0054450000582500003087000082300000f7
:100e7c003d000000682500003c8700008230000027
:100e8c003c00000072250000448700008230000006
:100e9c003e0000007e2500004c870000813d0000d4
:100eac008825000054870000823c00003e000000b2
:100ebc00982500005a870000813c0000a8250000fe
:100ecc0062870000813e0000b825000068870000a2
:100edc00825500003c000000c82500006e87000011
:100eec00825500003e000000d825000076870000e7
:100efc0084430000454c00004c000000e825000035
:100f0c007e87000085430000454c00004c2b000000
:100f1c00f22500008887000085430000454c000046
:100f2c004c530000fa250000928700008541000018
:100f3c004c490000474e000022210000da870000d7
:100f4c00e0860000ce8300001000000098830000b3
:100f5c0000000000da870000ae84000098830000d7
:100f6c0001000000569000008e8300009c8700005a
:100f7c00874100004c490000474e000045440000ea
:100f8c0004260000be870000853e00004348000098
:100f9c00415200000e260000ca8700008448000061
:100fac004552000045000000222100006a88000024
:100fbc002c8400008e830000d4870000844d000038
:100fcc004f560000450000001c260000e48700007e
:100fdc00854300004d4f0000564500003c260000a4
:100fec00ee87000084530000434100004e000000d7
:100ffc005c260000f887000084460000494c000085
:10100c004c0000007e26000002880000892d0000a4
:10101c0054520000414900004c4900004e4700006a
:10102c009c2600000c880000855000004143000005
:10103c004b24000022210000c6870000d68400004b
:10104c00488500002e850000d6840000988300009f
:10105c000000000098830000020000009e86000043
:10106c00f4840000de8500002e850000d885000089
:10107c00988300000000000008850000a684000092
:10108c00e0840000ae8400009883000001000000a2
:10109c00d885000008850000f4870000508500000a
:1010ac008e8300001a880000855300005441000014
:1010bc00544500002c2100000c0000005a88000050
:1010cc0082440000500000002c2100000a000000a7
:1010dc006688000084420000415300004500000077
:1010ec002c2100000e0000007088000089530000c5
:1010fc00595300004c41000054450000535400006b
:10110c002c210000180000007c880000864c000098
:10111c004154000045530000540000002c210000f5
:10112c001a0000008c880000825200003000000081
:10113c002c210000140000009a880000825300004b
:10114c00300000002c21000012000000a4880000d8
:10115c0083500000414400002c21000002000000dc
:10116c00ae88000083540000494200002c2100008e
:10117c0000000000b8880000833e0000494e0000cb
:10118c002c21000010000000c288000082480000e2
:10119c00500000002c21000016000000cc8800003c
:1011ac0086270000534f00005552000043450000b5
:1011bc002c21000004000000d688000087230000ca
:1011cc00534f000055520000434500002c210000f5
:1011dc0006000000e488000087560000455200001d
:1011ec00534900004f4e0000b2260000f288000068
:1011fc0086520000414d0000454e000044000000a6
:10120c00bc260000fe880000854900004d4d000002
:10121c0045440000c62600000a89000086480000ec
:10122c0049440000444500004e000000d026000058
:10123c0014890000854e00004d410000524b000007
:10124c00da26000020890000874c0000454e000083
:10125c004d410000534b0000e42600002a89000099
:10126c00824200004c000000ee260000368900008f
:10127c008754000049420000534900005a450000c1
:10128c00f82600003e890000875000004144000011
:10129c00534900005a450000022700004a8900000b
:1012ac00865500004c4900004d49000054000000d8
:1012bc000c27000056890000854400004f430000b5
:1012cc004f4c00001627000062890000815400007a
:1012dc00202700006c890000814600002a270000ae
:1012ec007289000083440000503000003427000055
:1012fc007889000086270000534f000055520000eb
:10130c00434500003e270000808900008753000001
:10131c004f55000052430000452100004c270000af
:10132c008c890000863f00004449000047490000ba
:10133c005400000022210000d68400009883000095
:10134c00600000007a870000ce83000008000000d7
:10135c009883000020000000de850000d684000089
:10136c0098830000390000007a870000ce830000cb
:10137c001a000000d6840000988300004100000091
:10138c0072870000ce8300000800000098830000e4
:10139c00000000008e83000098830000070000000e
:1013ac00de8500009883000030000000de85000020
:1013bc00d6840000768800002c8400007287000020
:1013cc008e83000098890000873f0000444f000086
:1013dc00554200004c450000222100002e850000e3
:1013ec0044840000988300002e0000005687000003
:1013fc00ce83000010000000988300000100000064
:10140c001c8c000098830000ffff0000b2830000da
:10141c00180000002e850000448400009883000012
:10142c002c00000056870000ce8300000600000050
:10143c00b2830000e2ff000098830000000000006f
:10144c008e830000ea890000873e00004e550000a4
:10145c004d420000455200002221000098830000fc
:10146c000000000048850000d6840000ce830000f8
:10147c00500000002e85000044840000a08900006c
:10148c00c08300002200000050850000ce830000c5
:10149c0042000000f4840000f2890000ce830000ba
:1014ac003c0000005085000050850000988300002f
:1014bc0002000000008700004885000048850000fd
:1014cc00b2830000ccff000050850000f4840000c3
:1014dc0098830000ffff000048850000488500004d
:1014ec0012850000768800002c84000054860000d1
:1014fc00508500003686000012850000988300009d
:10150c00010000001c8c0000b2830000aeff000044
:10151c0050850000f48400008e8300002a8a0000ad
:10152c00853f000053490000474e00002221000077
:10153c002e85000044840000a48300002d000000d0
:10154c0056870000c08300000a000000988300004a
:10155c0000000000b28300000c0000009883000023
:10156c00010000001c8c00009883000001000000aa
:10157c008e830000968a0000853f000042410000e7
:10158c0053450000222100002e85000044840000f9
:10159c00a48300002400000056870000ce830000c6
:1015ac000e000000988300001000000076880000f8
:1015bc00a6840000b2830000320000002e850000db
:1015cc0044840000a4830000230000005687000020
:1015dc00ce8300000e000000988300000a0000007b
:1015ec0076880000a6840000b2830000180000007a
:1015fc002e85000044840000a48300002500000018
:10160c0056870000ce830000120000009883000073
:10161c000200000076880000a68400000885000007
:10162c00e685000008850000f68500008e8300002a
:10163c00c28a0000873f00004e5500004d4200005a
:10164c004552000022210000768800002c84000006
:10165c0048850000d684000098830000000000003c
:10166c00d68400001a850000048d0000c88a000092
:10167c009c8a000048850000328a0000ce8300005e
:10168c001000000050850000fe840000fe84000065
:10169c009883000000000000b283000024000000ca
:1016ac00f48400001a850000f484000058850000c2
:1016bc00e0860000ce8300000400000038870000a4
:1016cc00508500009883000002000000f88600009e
:1016dc00c083000004000000f48400009883000024
:1016ec00ffff00005085000076880000a6840000f3
:1016fc008e830000208b0000855700004f520000a5
:10170c0044530000222100004297000094880000fe
:10171c002c840000d684000040870000c0830000a9
:10172c0040000000d6840000448400001c890000a6
:10173c00f8860000ce83000008000000fe85000043
:10174c00b2830000e6ff0000d6840000d6840000bf
:10175c004484000032890000f8860000d684000022
:10176c00e0960000d885000098830000400000003f
:10177c0072870000c0830000040000004297000044
:10178c0048850000e6850000508500008a9700001f
:10179c004c970000fe850000b2830000baff0000e9
:1017ac00f4840000429700008e830000828b0000be
:1017bc008555000050500000455200005a2700008b
:1017cc00de8b0000845300004b49000050000000e9
:1017dc007c270000e88b0000874100004452000089
:1017ec003e4900004e0000002221000088890000c4
:1017fc001a8500001a850000de850000ae86000008
:10180c009883000000000000a6860000c688000037
:10181c00a68400008e830000f28b0000872f00004e
:10182c0053540000524900004e4700002221000092
:10183c001a8500002e850000d88500001a8500004e
:10184c001a850000de8500008e830000148c0000d9
:10185c008550000041520000534500002221000039
:10186c0088890000c68800002c8400001c8c0000b5
:10187c002e850000488500001a850000fe870000b8
:10188c002e85000008850000ce83000004000000b7
:10189c00e6850000fa8b0000508500008285000070
:1018ac00de8500008e8300002e8c00008457000023
:1018bc004f5200004400000022210000d68400009a
:1018cc0088890000c68800002c8400001c8c000055
:1018dc001a850000ee8b0000f4840000fa8b0000e7
:1018ec00348c0000da870000488d0000da87000095
:1018fc008e8300005c8c000084460000494e000082
:10190c004400000098270000828c000086410000f3
:10191c004343000045500000540000002221000009
:10192c002e850000d885000048850000d684000074
:10193c003e9c0000d6840000988300000d0000003f
:10194c0056870000ce83000016000000f4840000cf
:10195c003a8900002e850000ae8400000885000046
:10196c00de850000e685000050850000f484000050
:10197c008e830000d68400009883000008000000cd
:10198c0056870000ce83000014000000f484000091
:10199c00e084000056870000c0830000caff0000ee
:1019ac00d6970000f6850000b2830000c2ff00004d
:1019bc002e8500005885000056870000c08300006b
:1019cc0010000000d68400003a9700002e8500001d
:1019dc00ae840000e6850000b2830000aaff000080
:1019ec00f4840000b2830000a4ff00008c8c000083
:1019fc00854300004f5500004e540000222100008a
:101a0c00d68400004484000048850000e685000070
:101a1c00508500008e830000fe8c00008545000080
:101a2c00525200004f520000222100004c9700003f
:101a3c00048d00008a9700004c970000a4830000de
:101a4c003f0000003a97000098830000000000005f
:101a5c0060880000a6840000a88800002c84000088
:101a6c006885000042970000a08e0000148d0000d5
:101a7c00883e0000434f0000554e000054450000c6
:101a8c004400000022210000e0840000ae8400002d
:101a9c00e685000008850000f48700008e830000b6
:101aac003e8d0000812c000022210000da8700000e
:101abc00a6840000988300000200000056900000ed
:101acc008e830000588d0000824300002c00000023
:101adc0022210000da870000ae8400009883000009
:101aec0001000000569000008e8300006a8d0000fb
:101afc00894900004e54000045520000505200002d
:101b0c0045540000222100009489000098830000b5
:101b1c0000000000c6880000a68400003a8900007e
:101b2c00628c0000d684000044840000ce83000048
:101b3c0040000000e48b0000888c0000ea84000068
:101b4c00ce8300001c000000e685000060880000c9
:101b5c002c8400004087000000870000ce8300002a
:101b6c000800000018840000b2830000d8ff0000b9
:101b7c005a8d0000b2830000d2ff0000288b0000b9
:101b8c00ce8300000800000096910000b283000094
:101b9c00c6ff0000048d00008a97000098830000a7
:101bac003f0000003a97000042970000408e000072
:101bbc00f48400008e8300007e8d000088450000b8
:101bcc00564100004c5500004154000045000000f7
:101bdc00222100008889000048850000488500000b
:101bec00c68800002c84000048850000888d000009
:101bfc0050850000c6880000a684000050850000b7
:101c0c0050850000948900008e830000e48d000054
:101c1c00824f00004b00000022210000e0960000e3
:101c2c009883000003000000d88500009883000012
:101c3c004000000064870000c08300000400000026
:101c4c00429700004c970000988300004f00000062
:101c5c003a970000988300004b0000003a97000070
:101c6c008e8300000e8e000085410000424f000064
:101c7c005254000022210000608800002c840000d7
:101c8c00ce83000014000000948800002c84000017
:101c9c00f88e0000d68400002c840000948800008c
:101cac00a68400006a880000a6840000a8880000b2
:101cbc002c84000068850000a08e00003a8e000085
:101ccc00a63f0000414200004f52000054000000ab
:101cdc0022210000b091000008850000ce83000096
:101cec000a000000048d00008a9700004297000053
:101cfc00408e0000f48400008e830000668e00008d
:101d0c00c6410000424f0000525400002200000067
:101d1c00222100003e9100006e8e00000492000013
:101d2c008e830000868e000084510000554900000f
:101d3c0054000000222100009e8800002c8400002a
:101d4c007885000098830000000000006088000087
:101d5c00a6840000bc8800002c840000d6840000ff
:101d6c00988300003f000000948c00004c9700000a
:101d7c00888d0000608800002c840000c083000067
:101d8c0004000000128e000042970000b283000095
:101d9c00e2ff00009a8e0000c12800002221000002
:101dac009883000029000000348c0000fe840000a1
:101dbc008e830000d28e0000c15c00002221000046
:101dcc0088890000d8850000fa8b00008e83000003
:101ddc00e28e0000874e0000464100003e4c0000a1
:101dec004641000022210000988300000200000000
:101dfc00de8500008e830000f08e0000874e000010
:101e0c00464100003e4300004641000022210000f4
:101e1c00d684000044840000988300001f0000005a
:101e2c00f8860000d8850000e6850000c687000013
:101e3c008e830000048f0000853e0000424f00009e
:101e4c0044590000222100008e8700008e83000080
:101e5c00228f000087430000464100003e4e0000e8
:101e6c004641000022210000d68400009883000027
:101e7c000013000072870000ce8300000a000000ef
:101e8c00d684000008870000b28300005a000000ce
:101e9c00d6840000488500009883000021000000d3
:101eac0048850000f6850000d684000044840000bc
:101ebc00d68400009883000080000000f8860000a3
:101ecc00c083000014000000f48400005085000062
:101edc00f6850000d6840000ce8300002a000000a6
:101eec0048850000b2830000deff00005085000032
:101efc00f4840000988300001f000000f8860000a6
:101f0c002e850000d8850000e6850000c6870000fd
:101f1c005085000056870000d6840000ce83000058
:101f2c000c000000f4840000b28300000a000000e2
:101f3c0050850000f484000008850000f484000043
:101f4c008e830000308f0000854500004d5000004e
:101f5c0054590000222100007c8900002c840000d0
:101f6c00da870000568700008e830000aa8f0000dd
:101f7c00894900004d4d00004544000049410000d6
:101f8c005445000022210000b08f0000c0830000e7
:101f9c0012000000948800002c840000d6840000fd
:101fac0044840000108900000087000008850000b0
:101fbc00ae8400008e830000be8f000084480000b9
:101fcc00494400004500000022210000b08f0000b1
:101fdc00c083000012000000948800002c840000d4
:101fec00d6840000448400001c8900000087000097
:101ffc0008850000ae8400008e830000e48f000092
:10200c00a72800004e4d0000415200004b29000053
:10201c0022210000b08f0000c083000012000000dd
:10202c00948800002c840000d684000044840000b6
:10203c00268900000087000008850000ae8400009f
:10204c008e8300000690000086520000455600006a
:10205c00454100004c00000022210000b08f000020
:10206c00c083000014000000948800002c84000041
:10207c00d6840000448400001c89000014870000f2
:10208c00f886000008850000ae8400008e830000f6
:10209c002a900000854100004c4c00004f54000079
:1020ac00222100006a8800002e8600008e8300002a
:1020bc005090000081270000222100003a89000086
:1020cc00628c0000d684000044840000408700002d
:1020dc0016940000e48b0000888c0000ce83000076
:1020ec0006000000b283000012000000048d000006
:1020fc008a9700004c970000988300003f00000076
:10210c003a97000042970000408e00008e8300003a
:10211c0060900000c95b0000434f00004d50000070
:10212c00494c0000455d0000222100006290000037
:10213c005a8d00008e83000090900000c53c00007a
:10214c004d410000524b000022210000f093000092
:10215c00da8700008e830000a4900000c83c0000c9
:10216c0052450000534f00004c5600004500000043
:10217c0022210000f0930000da870000de850000c9
:10218c005a8d00008e830000b4900000c53e000004
:10219c004d410000524b000022210000f093000042
:1021ac00da87000098830000000000005a8d0000c0
:1021bc008e830000cc900000c83e00005245000009
:1021cc00534f00004c560000450000002221000037
:1021dc00f0930000d6840000da8700000885000028
:1021ec00de85000008850000a68400008e830000b8
:1021fc00e2900000c15b00002221000098830000e7
:10220c000000000060880000a68400008e8300009f
:10221c0000910000c15d00002221000098830000a5
:10222c00ffff000060880000a68400008e83000081
:10223c0010910000c95b0000434f00004d5000009e
:10224c00494c0000455d000022210000f093000085
:10225c00629000005a8d00008e83000020910000d7
:10226c00c74300004f4d0000504900004c45000092
:10227c002221000050850000d68400002c84000030
:10228c005a8d00008e870000488500008e83000068
:10229c0036910000c85000004f530000545000000d
:1022ac004f4e00004500000022210000f09300007a
:1022bc003a890000628c0000e48b0000888c0000de
:1022cc00d684000040870000ce8300000e00000082
:1022dc00f4840000048d00008a97000098830000ad
:1022ec003f000000408e0000508700000c000000f2
:1022fc0098830000988300005a8d0000b283000080
:10230c00040000005a8d00008e83000050910000e4
:10231c00c74c00004954000045520000414c0000dd
:10232c0022210000608800002c840000ce83000075
:10233c00080000003e910000988300005a8d0000b8
:10234c008e8300008e910000a5280000444f0000f1
:10235c00242900002221000050850000588500002f
:10236c0050850000048d0000d8850000c687000051
:10237c004885000008850000488500008e83000019
:10238c00aa910000a428000053220000290000009c
:10239c0022210000b0910000048d00008e8300000b
:1023ac00c8910000a42800002e2200002900000083
:1023bc0022210000b0910000048d00008a970000db
:1023cc008e830000d8910000a45300004c490000fb
:1023dc00540000002221000098830000220000001d
:1023ec00628c0000048d00008e830000ea910000d6
:1023fc00a42800002c22000029000000222100004b
:10240c00f0910000d8850000c68700006a880000a3
:10241c00a68400008e830000fe910000c2530000d1
:10242c002200000022210000f09300003e910000e9
:10243c00ce910000049200008e83000014920000e4
:10244c00c22e000022000000222100006088000043
:10245c002c840000ce8300000a0000003e91000096
:10246c00de910000049200008e830000f0910000c9
:10247c008a9700008e83000026920000c75200004d
:10248c004543000055520000534500002221000036
:10249c00948800002c8400000c8f00005a8d0000e2
:1024ac008e83000044920000c24400004f000000e4
:1024bc0022210000f09300003e910000d883000020
:1024cc00da870000a085000098830000000000005f
:1024dc00a08500008e8300005a920000c54c0000bd
:1024ec00454100005645000022210000f0930000f9
:1024fc003e910000ce8400003e910000b2830000ab
:10250c00d2900000a08500008e8300007492000021
:10251c00e7460000495800004c4f00004f500000a7
:10252c0022210000aa850000ea840000ce8300006e
:10253c0014000000d6840000da8700008e870000ab
:10254c0008850000de85000008850000a6840000d8
:10255c00b2830000e8ff0000aa850000be900000d6
:10256c008e8300008e920000c44c00004f4f000080
:10257c005000000022210000f09300003e9100006a
:10258c00e4830000969200008e830000ba92000053
:10259c00c52b00004c4f00004f50000022210000c2
:1025ac00f09300003e910000f08300009692000032
:1025bc008e830000ce920000c5420000454700000b
:1025cc00494e000022210000f0930000aa90000068
:1025dc008e830000e2920000c541000047410000dc
:1025ec00494e000022210000f09300003e910000b3
:1025fc00b2830000be9000008e830000f2920000b7
:10260c00c55500004e540000494c0000222100002a
:10261c00f09300003e910000ce830000be900000bd
:10262c008e83000006930000c249000046000000a3
:10263c0022210000f09300003e910000ce830000a8
:10264c00d29000008e8300001a930000c454000046
:10265c00484500004e00000022210000f0930000cd
:10266c00ec9000008e8300002c930000c445000009
:10267c004c5300004500000022210000f0930000a4
:10268c003e910000b2830000d2900000088500004b
:10269c00329300008e8300003c930000c55700006d
:1026ac00484900004c45000022210000f093000036
:1026bc003e910000ce830000d290000008850000ff
:1026cc008e83000054930000c65200004550000059
:1026dc00454100005400000022210000f09300004e
:1026ec003e910000b2830000be900000ec90000010
:1026fc008e8300006a930000c44300004153000025
:10270c004500000022210000f09300009883000097
:10271c00000000008e83000082930000c24f000076
:10272c004600000022210000f09300003e910000c2
:10273c002e8500003e910000568700003e9100005f
:10274c00ce830000d29000008e8300009493000092
:10275c00c54500004e4400004f46000022210000f9
:10276c00f09300003e910000b2830000d290000074
:10277c0008850000ec9000008e830000ae930000f2
:10278c00c74500004e440000434100005345000083
:10279c0022210000f0930000ea840000ce830000a8
:1027ac0008000000ec900000b2830000f6ff00006f
:1027bc003e910000f48400008e830000c69300005c
:1027cc00c83f0000434f00004d500000494c000032
:1027dc004500000022210000608800002c840000cd
:1027ec00408700006e8e0000116300006f6d0000ca
:1027fc00706900006c650000206f00006e6c0000ba
:10280c0079200000776f0000726400008e83000056
:10281c00e6930000853f00004e4100004d4500004e
:10282c00222100006e8e00000c6e0000616d000015
:10283c00652000006d69000073730000696e000074
:10284c00670000008e83000010940000c52c00006f
:10285c004558000049540000222100003e91000020
:10286c008e8300008e8300002c94000086430000b1
:10287c005245000041540000450000002221000098
:10288c0094880000d68400002c8400005a8d00002f
:10289c00da87000008850000a68400003a89000051
:1028ac00628c0000e48b000044840000d68400009d
:1028bc004087000016940000e6850000569000004a
:1028cc00a2870000ea8f00000e9000008e830000ab
:1028dc003c940000864600004f5200004745000023
:1028ec00540000002221000062900000388f00008c
:1028fc00f88e0000d6840000988300000080000051
:10290c007a8700006e8e00001a430000616e000092
:10291c0027740000206600006f72000067650000dd
:10292c0074200000776f00007264000020690000c2
:10293c006e200000464c000041530000480000008f
:10294c00d68400006a880000a68400002c84000055
:10295c0094880000a68400008e8300007094000010
:10296c00813a0000222100004494000012910000e2
:10297c003e910000222100008e830000b6940000de
:10298c00873c000042550000494c000044530000b5
:10299c0022210000b89400003e910000de9400005b
:1029ac00da8700008e8700005a8d00008e830000ad
:1029bc00de270000c694000087280000444f00006a
:1029cc00455300003e2900002221000050850000e4
:1029dc00d68400008e870000488500002c840000ff
:1029ec00948800002c8400000c8f00009883000059
:1029fc0004000000d8850000a68400008e8300002f
:102a0c00e2940000c54400004f450000533e000016
:102a1c00222100003e910000ea940000da870000b9
:102a2c009883000002000000569000003e910000c8
:102a3c00029100003e910000329000003e91000097
:102a4c008e830000da87000008850000a684000051
:102a5c008e8300000895000088560000415200004b
:102a6c0049410000424c00004500000022210000ba
:102a7c00449400001291000098830000382100005b
:102a8c005a8d000098830000000000005a8d000051
:102a9c00749500008e83000032950000884300007e
:102aac004f4e000053540000414e000054000000f3
:102abc002221000044940000129100009883000031
:102acc00422100005a8d00005a8d000074950000c0
:102adc008e83000054950000c13b000022210000b1
:102aec00f09300003e9100008e83000032900000b5
:102afc00029100008e83000072950000843f00005c
:102b0c0044530000500000002221000060850000aa
:102b1c00a88800002c840000728700006e8e0000d4
:102b2c00115300002073000074610000636b0000ff
:102b3c00207500006e64000065720000666c000079
:102b4c006f77000060850000a88800002c840000ce
:102b5c009883000040000000fe850000d88500002e
:102b6c007a8700006e8e0000105300002073000066
:102b7c0074610000636b0000206f0000766500003c
:102b8c00726600006c6f0000770000008e830000fe
:102b9c0084950000822e00005300000022210000ca
:102bac008c850000a48300003c0000003a970000d4
:102bbc00d684000008990000a48300003e000000a9
:102bcc003a9700004c970000ea840000ce83000086
:102bdc000e000000d68400009685000008990000c5
:102bec00f6850000b2830000f0ff00008e83000029
:102bfc00d0950000842e0000525400004e000000be
:102c0c0022210000768800002c840000b285000090
:102c1c00a4830000520000003a970000a483000037
:102c2c003a0000003a9700009e8800002c840000b7
:102c3c00d68400002c84000008990000ee8500006a
:102c4c00d68400007085000098830000020000000c
:102c5c00de85000056870000ce830000eaff0000ee
:102c6c0042970000f484000076880000a6840000df
:102c7c008e8300000096000085480000445500003b
:102c8c004d50000022210000ea840000c0830000a7
:102c9c00040000008e830000768800002c84000065
:102cac0048850000b285000008850000988300006c
:102cbc00feff0000f88600000885000098830000e5
:102ccc0000000000d8830000bc8400009883000042
:102cdc0007000000f8860000c08300000e00000012
:102cec0042970000d6840000988300000500000085
:102cfc00da9800004c970000d68400003484000061
:102d0c009883000005000000da980000988300000a
:102d1c0002000000d8850000e4830000d6ff00000c
:102d2c00f48400005085000076880000a684000022
:102d3c008e830000ec2700004296000085560000b0
:102d4c00494400004f4e000050280000a49600009b
:102d5c008743000055520000454e0000424c0000d5
:102d6c005c280000ae960000834300004c5300002a
:102d7c0078280000ba9600008653000043520000e9
:102d8c004c5500005000000094280000c296000032
:102d9c0086530000435200004c4400004e000000db
:102dac009e280000ce960000844700004554000089
:102dbc0058000000a8280000da96000084470000a4
:102dcc004554000059000000b6280000e4960000ad
:102ddc00845300004554000058000000c428000033
:102dec00ee9600008453000045540000590000008a
:102dfc00e2280000f89600008643000055520000bf
:102e0c00504f00005300000022210000f4960000f7
:102e1c00fe9600008e83000002970000844c000098
:102e2c0045460000540000000029000014970000e3
:102e3c008552000049470000485400002629000034
:102e4c001e97000087540000474c000043480000c8
:102e5c0041520000502900002897000084450000d2
:102e6c004d49000054000000662900003497000012
:102e7c008243000052000000862900003e970000ab
:102e8c008553000050410000434500009829000084
:102e9c004697000086530000504100004345000057
:102eac005300000022210000d6840000988300000b
:102ebc00000000006a870000c083000006000000cc
:102ecc00f48400008e830000988300000000000052
:102edc00d88300004c970000e4830000fcff000046
:102eec008e83000050970000854300004c52000078
:102efc004c4e00009e2900007a970000845400007c
:102f0c00595000004500000022210000d68400002a
:102f1c00c083000006000000fe8400008e830000c9
:102f2c009883000000000000d8830000d6840000c5
:102f3c0044840000ea840000ce8300000e000000f0
:102f4c003a970000e6850000e4830000f0ff0000e3
:102f5c00b283000004000000ce840000f484000062
:102f6c008e8300008497000086440000454c0000ce
:102f7c004554000045000000222100003a89000061
:102f8c003a9700008e830000ba9700008842000038
:102f9c00414300004b430000484100005200000038
:102fac00222100001a970000c29700001a97000017
:102fbc008e830000cc970000854400004947000038
:102fcc0049540000222100009883000009000000f1
:102fdc002e85000064870000988300000700000025
:102fec00f8860000d88500009883000030000000af
:102ffc00d88500008e830000e29700008745000012
:10300c00585400005241000043540000222100009b
:10301c009883000000000000088500009e860000d8
:10302c0008850000e89700008e83000004980000db
:10303c00823c00002300000022210000b288000026
:10304c002c84000052890000d8850000d088000034
:10305c00a68400008e8300001e98000084480000a7
:10306c004f4c000044000000222100009883000017
:10307c00ffff0000d08800002e860000d0880000e2
:10308c002c840000ae8400008e8300003498000075
:10309c008123000022210000768800002c8400008f
:1030ac000c9800003a9800008e8300004e980000a7
:1030bc0082230000530000002221000050980000e1
:1030cc00d6840000c0830000faff00008e8300004d
:1030dc005e98000084530000494700004e00000039
:1030ec002221000048870000ce8300000800000069
:1030fc00a48300002d0000003a9800008e8300008d
:10310c0070980000822300003e0000002221000085
:10311c00f4840000d08800002c840000b2880000e9
:10312c002c84000052890000d88500002e850000f8
:10313c00de8500008e830000889800008353000019
:10314c005452000022210000d68400004885000063
:10315c00e88600002298000062980000508500006c
:10316c00769800008c9800008e830000a4980000d4
:10317c00822e000052000000222100004885000031
:10318c00a8980000508500002e850000de85000008
:10319c00589700008a9700008e830000be980000ac
:1031ac00835500002e5200002221000048850000ab
:1031bc0022980000629800008c9800005085000056
:1031cc002e850000de850000589700008a970000cd
:1031dc008e830000d6980000825500002e0000005f
:1031ec002221000022980000629800008c980000b8
:1031fc004c9700008a9700008e830000f298000024
:10320c00812e000022210000768800002c84000012
:10321c00988300000a00000008870000c0830000ab
:10322c00e2ff00004c970000a89800008a9700006d
:10323c008e83000006990000813f000022210000cf
:10324c0098830000feff0000f88600002c8400002c
:10325c00089900008e830000229900008243000030
:10326c003f00000022210000448400000899000067
:10327c008e83000034990000854300004841000013
:10328c0052530000222100000885000098830000a2
:10329c0000000000d8830000d68400003a9700009c
:1032ac00e4830000faff0000f48400008e83000029
:1032bc00c6290000429900008442000041550000dc
:1032cc0044000000002a00006299000085530000b1
:1032dc00454d000049540000202a00006c99000064
:1032ec008453000047450000540000004e2a0000a3
:1032fc006e2a000076990000845400004f4e0000a6
:10330c00450000008a2a0000a02a000082990000d3
:10331c008753000044430000494e0000495400000c
:10332c00da2b00008e9900008652000053540000e6
:10333c004f52000045000000022c00009a9900003a
:10334c00855200004c4f000041440000422c00000c
:10335c00a6990000843f000057490000500000006f
:10336c007c2c0000b09900008457000057490000e5
:10337c005000000022210000b6990000c08300001c
:10338c00fcff00008e830000ba9900008745000006
:10339c00455700005249000054450000aa2c00007b
:1033ac00cc990000864500004552000045410000c4
:1033bc0044000000162d0000d8990000854500003f
:1033cc005041000047450000622d0000e4990000c8
:1033dc008745000053450000435400004f52000045
:1033ec006c2d0000ee99000084450000414c00005b
:1033fc004c000000762d0000fa9900008645000074
:10340c00455200004153000045000000802d000093
:10341c00049a0000854d000041470000494300001c
:10342c00e22d0000109a0000874d0000414600007c
:10343c00494500004c440000ec2d00001a9a000095
:10344c00874c000041460000494500004c440000f8
:10345c00f62d0000269a000087440000504600001c
:10346c00494500004c440000002e0000329a000038
:10347c008753000049460000494500004c440000b9
:10348c000a2e00003e9a0000853f0000424f0000cb
:10349c004f5400002221000098830000000000001f
:1034ac00d6840000d6840000e0990000009d000046
:1034bc0034840000169a0000568700008e830000aa
:1034cc004a9a0000853f0000534900005a4500000d
:1034dc0022210000469a00009883000000000000a2
:1034ec007a8400008e830000689a0000863f0000fa
:1034fc0042590000544500005300000022210000f6
:10350c00da87000008850000de8500009883000043
:10351c0000010000c28600008e8300007c9a00002f
:10352c00853f0000444f00004e4500002221000062
:10353c00849a0000408700008e830000969a000059
:10354c008553000045540000445000002221000027
:10355c003a9a000098830000000000007a84000072
:10356c006a880000a68400008e830000a69a0000e2
:10357c0089530000455400004c41000054450000a4
:10358c0053540000222100002e9a00009883000062
:10359c00000000007a84000094880000a6840000db
:1035ac008e830000be9a000086500000474c00003d
:1035bc004f410000440000002221000098830000cd
:1035cc000100000008850000e0990000d68400008e
:1035dc00849a0000e0840000d88500004885000033
:1035ec009883000001000000009d0000248500006d
:1035fc00f4870000508500008e830000da9a0000ea
:10360c00844200004f4f00005400000022210000b3
:10361c00509a0000ce8300002a000000d09c0000cd
:10362c00ac9a00007c890000988300000100000027
:10363c0048850000d68400009c9a0000c0830000de
:10364c001000000050850000d6840000e6850000c4
:10365c0048850000e29a0000b2830000ecff0000f5
:10366c0050850000fe840000c89a00008e83000084
:10367c00069b0000894800004541000044570000ab
:10368c00524900005445000022210000988300009c
:10369c000000000048850000169a0000229a0000e5
:1036ac005885000050840000948800002c84000091
:1036bc002e9a00005885000050840000da87000024
:1036cc003a9a00005885000050840000da87000008
:1036dc007c890000de850000469a000058850000b9
:1036ec005084000050850000d6840000d49900005e
:1036fc008e830000409b0000873e00004255000076
:10370c00464600004552000022210000009d0000aa
:10371c002e850000d6840000849a0000d684000018
:10372c001a850000d88500004885000098830000a9
:10373c0000000000d883000008850000d68400003b
:10374c00e685000024850000448400002e850000de
:10375c00ae840000e6850000e4830000eeff00006c
:10376c00fe840000508500008e830000829b0000c8
:10377c0086500000475300004156000045000000f1
:10378c002221000098830000010000008a9b0000a9
:10379c0008850000988300000100000008850000e7
:1037ac00d49900008e830000be9b0000853e000073
:1037bc00424f00004f54000022210000b08f000047
:1037cc00ce830000040000008e830000988300006c
:1037dc00010000004a9b00007c890000d684000098
:1037ec009c9a0000c08300000e0000002e85000093
:1037fc00e685000024850000c69b0000b283000013
:10380c00eeff0000fe8400008e830000142e0000ea
:10381c00442e00005e2e0000dc9b0000864700005a
:10382c00455400004b45000059000000782e000064
:10383c00149c0000843f00004b4500005900000020
:10384c00222100001c9c0000109c0000d68400006b
:10385c00ce8300000600000098830000ffff0000ec
:10386c008e830000209c0000834b00004559000013
:10387c0022210000269c0000ea840000ce83000078
:10388c00faff0000f48400008e8300003a9c0000d4
:10389c00844e0000554600003f000000222100002d
:1038ac00269c0000d6840000ce8300000c00000093
:1038bc00fe8400003e9c0000988300000d00000078
:1038cc00568700008e83000022210000849c00009b
:1038dc00869c0000829c0000a09600000c9c0000be
:1038ec005e9900008a9900007e990000889c000077
:1038fc000e9c00008e8300009a2e0000b62e000055
:10390c00c62e0000d22e0000da2e00004e9c0000c5
:10391c0085540000494300004b530000102f000059
:10392c008e9c0000845500005345000043000000ad
:10393c001a2f0000989c0000844d00005345000095
:10394c00430000002c2f0000a29c0000844c0000bf
:10395c0046530000520000003c2f0000ac9c0000bd
:10396c0084520000414e000044000000542f00001f
:10397c00b69c000085530000524100004e440000ec
:10398c00862f0000c09c0000854300004c450000c1
:10399c0041520000222100007c8900006a8800004e
:1039ac00a6840000868800002c8400009488000007
:1039bc00a68400008e830000ca9c00008446000090
:1039cc005245000045000000222100005e890000e5
:1039dc00da870000de850000089900008e83000065
:1039ec00e49c000087420000554600004144000062
:1039fc004452000022210000988300004a0000007d
:103a0c007686000098830000000100003c860000d0
:0c3a1c005e890000d88500008e83000049
:020000040000fa
:103a2800000000000000000000000000000000008e
:103a380000000000000f000008080000080800004f
:103a480008080000080f0000000000000000000047
:103a58000000000000f80000080800000808000046
:103a68000808000008f8000000000000000000003e
:103a780008080000080800000808000008080000fe
:103a88000000000000ff000000000000000000002f
:103a98000808000008ff00000808000008080000e7
:103aa800000000000000000000000000000000000e
:103ab80000000000000000000000000000000000fe
:103ac80000000000000000000000000000000000ee
:103ad8000000000000ff00000808000008080000bf
:103ae8000808000008ff00000000000000000000b7
:103af80000000000000000000000000000000000be
:103b080008080000080f0000080800000808000066
:103b18000808000008f8000008080000080800006d
:103b280080c00000e0f00000e0c00000800000005d
:103b380001030000070f0000070300000100000058
:103b4800000000000000000000000000000000006d
:103b5800000000000000000000000000000000005d
:103b6800000000000000000000000000000000004d
:103b7800000000000000000000000000000000003d
:103b880000000000000000000000000000fe00002f
:103b9800103800007c1000001010000000fe00002b
:103ba80020700000a8200000202000000000000075
:103bb8000020000020200000a87000002000000065
:103bc8004020000010f80000102000004000000015
:103bd8001020000040f80000402000001000000005
:103be800000000000080000080800000fe0000004f
:103bf8000000000044fe0000440000000000000037
:103c080000000000103800007cfe000000000000ea
:103c180000000000fe7c00003810000000000000da
:103c2800000000000000000000000000000000008c
:103c380020200000202000002000000020000000bc
:103c4800505000005000000000000000000000007c
:103c580050500000f8500000f850000050000000dc
:103c680020780000a070000028f00000200000006c
:103c7800c0c8000010200000409800001800000094
:103c880060900000a0400000a890000068000000bc
:103c9800602000004000000000000000000000005c
:103ca80010200000404000004020000010000000ec
:103cb800402000001010000010200000400000000c
:103cc80000200000a8700000a820000000000000ec
:103cd8000020000020f80000202000000000000064
:103ce800000000000000000060200000400000000c
:103cf8000000000000f000000000000000000000cc
:103d080000000000000000000060000060000000eb
:103d180000080000102000004080000000000000a3
:103d28007088000098a80000c88800007000000093
:103d3800206000002020000020200000f800000083
:103d4800708800001020000040800000f80000008b
:103d5800f008000008f0000008080000f00000006b
:103d68001030000050900000f81000001000000013
:103d7800f880000080f0000008080000f000000053
:103d88003040000080f000008888000070000000cb
:103d9800f80800001020000040400000400000002b
:103da800708800008870000088880000700000009b
:103db800708800008870000008080000700000008b
:103dc800006000006000000060600000000000006b
:103dd800006000006000000060200000400000005b
:103de800102000004080000040200000100000006b
:103df80000000000f8000000f800000000000000cb
:103e080040200000100800001020000040000000c2
:103e1800708800000810000020000000200000004a
:103e28007088000008680000a8a800007000000062
:103e38007088000088f8000088880000880000006a
:103e4800f088000088f0000088880000f00000007a
:103e580078800000808000008080000078000000ea
:103e6800f08800008888000088880000f0000000c2
:103e7800f880000080f8000080800000f800000052
:103e8800f880000080f800008080000080000000ba
:103e98007880000080b00000888800007000000072
:103ea8008888000088f800008888000088000000e2
:103eb800702000002020000020200000700000007a
:103ec8007808000008080000089000006000000062
:103ed80088900000a0c00000a090000088000000aa
:103ee800808000008080000080800000f8000000d2
:103ef80088d80000a8880000888800008800000092
:103f080088880000c8a80000988800008800000081
:103f18007088000088880000888800007000000011
:103f2800f088000088f00000808000008000000019
:103f38007088000088880000a898000078000000b9
:103f4800f088000088f00000a090000088000000c1
:103f5800788000008070000008080000f000000071
:103f6800f820000020200000202000002000000091
:103f78008888000088880000888800007000000099
:103f88008888000088880000885000002000000011
:103f98008888000088a80000a8d8000088000000d1
:103fa8008888000050200000508800008800000029
:103fb80088880000885000002020000020000000b1
:103fc800f81000002040000080800000f800000089
:103fd80060400000404000004040000060000000d9
:103fe80000800000402000001008000000000000d1
:103ff8001808000008080000080800001800000061
:1040080020500000880000000000000000000000b0
:1040180000000000000000000000000000f80000a0
:104028004020000010000000000000000000000018
:104038000000000070080000788800007800000088
:104048008080000080b00000c8880000f0000000f8
:1040580000000000708000008088000070000000f0
:104068000808000008680000988800007800000030
:104078000000000070880000f88000007000000058
:104088003048000040e000004040000040000000d0
:1040980000000000788800008878000008700000a0
:1040a80080800000b0c800008888000088000000f8
:1040b8000020000000200000202000002000000058
:1040c8001000000030100000109000006000000098
:1040d8008080000090a00000c0a0000090000000b8
:1040e8006020000020200000202000007000000058
:1040f80000000000d0a80000a88800008800000088
:1041080000000000b0c80000888800008800000097
:10411800000000007088000088880000700000001f
:1041280000000000f088000088f000008080000097
:10413800000000006890000090b0000050180000d7
:1041480000000000b0c8000080800000800000006f
:10415800000000007080000070080000f0000000ff
:1041680040400000e04000004048000030000000ef
:10417800000000008888000088980000680000009f
:10418800000000008888000088500000200000001f
:104198000000000088880000a8a800005000000067
:1041a8000000000088500000205000008800000037
:1041b800000000008888000088780000087000006f
:1041c80000000000f810000020400000f800000087
:1041d8002040000040800000404000002000000017
:1041e80020200000202000002020000020000000e7
:1041f80040200000201000002020000040000000a7
:104208000000000040a800001000000000000000ae
:10421800fcfc0000fcfc0000fcfc0000fcfc0000b6
:020000040000fa
:104228000c4600006f7200007468000045780000ba
:0c42380020560000302e00003100000075
:020000040000fa
:104244008a1f78000c0578003a0678003c00780054
:10425400000401000d2f78003c0078008b0640001c
:104264003a0678003c007800000401000d2f780025
:104274008c0678003a0678003c00780000040100bf
:104284000d2f78009c0678003a0678003c007800f0
:10429400000401004f0578003a0678003c007800dd
:1042a400000401000d2f7800ba0678003a06780061
:1042b4003c007800000401000d2f7800ba06780055
:1042c4008d86fb003a0678003c007800000401006b
:1042d4001a0545003a0678003c0078000004010005
:1042e4000d00e000ae067800f9ff3a000a85e80008
:1042f4003a0678003c007800000401000d00e0005c
:10430400ae067800f2ff32000a85e8003a0678002b
:104314003c00780000040100881f7800891f7800a1
:104324008d047800ae0678000d047800ae0678009f
:104334003a0678003c007800000401008904e80093
:104344000848e100040032001a0545003a067800e6
:104354003c007800000401000a85e800cf047800de
:104364004f0478003a0678003c007800000401000d
:10437400090078008d844400ae0678000800e1004e
:10438400040035000800e9000048e100f2ff3400b1
:10439400020037000848e100efff3d001a05450020
:1043a4003a0678003c007800000401000d2f7800e4
:1043b4008a0678003a0678003c0078000004010080
:1043c4000d057800ae0678003a0678003c007800c7
:1043d400000401000000fe000d067800ae0678001f
:1043e4003c007800000401001d007800ae0678004f
:1043f400000401009d0678003a0678003c0078002d
:10440400000401003200f80001c0fe009d0678009f
:104414003200f9003a0678003c00780000040100fc
:104424003200f80001c0fe009d4678008d86fb0036
:104434003200f9003a0678003c00780000040100dc
:104444009d4678008d86fb003a0678003c00780093
:10445400000401001d0078002d00b0009d067800c6
:10446400002f78003a0678003c0078000004010030
:10447400ae0e7800ae0678003a0678003c0078006c
:10448400000401002e007800804e7800ae0678000b
:104494003a0678003c00780000040100ae0e780073
:1044a4002d00b000ae0e7800ae0678003a06780013
:1044b4003c007800000401000d2f78008906780084
:1044c4003a0678003c007800000401000d2f7800c3
:1044d400ffbe97003a0678003c0078000004010013
:1044e400cf0478004f0478003a0678003c00780046
:1044f400000401000d2f78003a0678003c00780093
:10450400000401001e0078000d2f7800002f7800b1
:104514003a0678003c007800000401000d00e00039
:10452400010032000d2f78003a0678003c00780034
:1045340000040100ae0678003a0678003c007800da
:1045440000040100ae067800ae0678003a06780052
:104554003c007800000401001e0078008006fd0085
:10456400000f78003a0678003c007800000401004f
:104574007eb897007dbf9f00800678006eb89700d4
:104584009e00780061bf9f00000f78003a06780013
:104594003c007800000401001e0078000d00fd00be
:1045a400000f78007eb897008006fd0070bf9f0062
:1045b4003a0678003c007800000401000d00780001
:1045c4009e067800feb89700010f780070bf9f0028
:1045d4003a0678003c007800000401000d2f7800b2
:1045e400febe97003a0678003c0078000004010003
:1045f4000d2f7800eebe97005eb89700002f78006c
:104604003a0678003c007800000401000e87e900b7
:104614003a0678003c007800000401008d1f780001
:10462400ae0678003a0678003c00780000040100e9
:104634000d2f7800cf0678003a0678003c00780009
:10464400000401000d2f7800ffbe97003a067800a1
:104654003c007800000401000e0078000d2f780063
:10466400800678003a0678003c00780000040100d7
:104674000d0778003a0678003c0078000004010039
:104684000d2f78008f0678003a0678003c007800f9
:10469400000401008d077800ae0678003a06780021
:1046a4003c007800000401001e0078000d0f780023
:1046b400002f78003a0678003c00780000040100de
:1046c40000908000000057000d2f78008006d10074
:1046d4003a0678003c007800000401000e007800df
:1046e4008d06d0000d005000900678003a06780040
:1046f4003c00780000040100008880000d18780058
:1047040000888800ae0678003a0678003c007800fd
:10471400000401000d2f780000888000c006780096
:10472400008888003a0678003c0078000004010004
:10473400ae8646003a0678003c007800000401008a
:104744002e0078008d0650003a0678003c00780070
:10475400000401001d00b0003a0678003c00780017
:10476400000401002d00b0003a0678003c007800f7
:10477400000401001d00b1003a0678003c007800f6
:10478400000401002d00b1003a0678003c007800d6
:10479400000401008d8646003a0678003c0078004b
:1047a400000401008d86d1003a0678003c007800b0
:1047b400000401000d007800ae0678000000e90056
:1047c400008009008d06d0003a0678003c0078008d
:1047d400000401000d007800ae0678000000e90036
:1047e400008009008d06d1003a0678003c0078006c
:1047f400000401001d0078002e004000800e7800a7
:10480400ae0678003a0678003c0078000004010007
:104814007eb897000d004000ae0678000d80b00011
:10482400000f78003a0678003c007800000401008c
:104834002ee8b900800678003a0678003c0078003b
:10484400000401001ee8b900000f7800810678001a
:104854003a0678003c007800000401001e68b800a5
:1048640081067800000f78003a0678003c00780052
:10487400000401002e007800110009000d00d8008a
:10488400800678003a0678003c00780000040100b5
:104894002e007800110009000d00d8008106780070
:1048a4003a0678003c007800000401002e007800ed
:1048b400ae0078000180b900110009004d08d8004d
:1048c400800678003a0678003c0078000004010075
:1048d4002e007800ae0078000180b90011000900b4
:1048e4000d00d800012f7800800678003a06780081
:1048f4003c007800000401001e007800110009004b
:104904004d08d80080067800010f78003a06780038
:104914003c00780000040100ae0078002e0078000e
:10492400110009004d88d80080067800012f780016
:104934003a0678003c007800000401002e0078005c
:104944000068e10001003d000d00fd003a0678001a
:104954003c007800000401002e0078000d00e10006
:1049640001003d000d00fd003a0678003c0078008f
:10497400000401002e0078000068e100010031000d
:104984008006fd003a0678003c007800000401002f
:104994002e0078000d00e100010031000d00fd0043
:1049a4003a0678003c007800000401000000eb00a7
:1049b4002e017800ae0078000208e10003003900ff
:1049c4000d08e100010031000080eb008006780052
:1049d4003a0678003c007800000401000080eb00f7
:1049e4000d00a7000000eb00800678003a0678006e
:1049f4003c007800000401000080eb000d00a600dc
:104a04000000eb00800678003a0678003c0078004d
:104a1400000401000df0a7008d06ea003a067800b4
:104a24003c007800000401000d2f78000000eb002a
:104a34000df0a7000080ea00800678003a067800ae
:104a44003c00780000040100ae8666003a06780057
:104a54003c00780000040100ae8676003a06780037
:104a64003c00780000040100ae866e003a0678002f
:104a74003c007800000401008d86ea003a067800c4
:104a84003c007800000401008d86ea001e8fea00d5
:104a94003a0678003c007800000401008d06ea0024
:104aa4003a0678003c007800000401008d86ea0094
:104ab4001e8fea00100020001e0f40000d80b00081
:104ac4003a0678003c007800000401001d00b100a3
:104ad4008d865e003a0678003c00780000040100f0
:104ae4008d8646008d865e008d86ea003a06780043
:104af4003c007800000401008d8646008d865e002f
:104b04003a0678003c007800000401000000eb0045
:104b14002e68e10001003a000080eb008006780076
:104b24003a0678003c007800000401000000eb0025
:104b34002e68e100010032000080ea00800678005f
:104b44003a0678003c007800000401000080eb0085
:104b54002e68e10001003c000080ea008006780035
:104b64003a0678003c007800000401000080eb0065
:104b74002e68e100010035000080ea00800678001c
:104b84003a0678003c007800000401000000eb00c5
:104b94002e68e100010036000080ea0080067800fb
:104ba4003a0678003c007800000401000000eb00a5
:104bb4002e68e100010031000080ea0080067800e0
:104bc4003a0678003c007800000401000d2f7800bc
:104bd4002d0020003a0678003c0078000004010013
:104be4002d00b0003a0678003c0078000004010073
:104bf4006268b800800678003a0678003c007800c5
:104c0400000401000d00a7008d06e8003a067800b4
:104c14003c00780000040100fd07b200e068e100f8
:104c240001003d00fd0520003a0678003c007800b4
:104c3400000401003200f80001c0fe000d007800fd
:104c4400ae0678008d007800ae0678000000e00023
:104c5400030032000000e90000800900bd1878005c
:104c6400ae0678003200f9003a0678003c0078007d
:104c7400000401003200f80001c0fe000d007800bd
:104c8400ae0678008d007800ae0678000000e000e3
:104c9400030032000000e90000800900bd587800dc
:104ca400ae0678003200f9003a0678003c0078003d
:104cb400000401003200f80001c0fe000d0078007d
:104cc400ae0678009e0078000d00e000050032007a
:104cd4001104e100030032008100e8008d06e900c0
:104ce400fbff3a00010f78003200f9003a06780021
:104cf4003c007800000401003200f80001c0fe000e
:104d04000d007800ae0078002e017800ae06780021
:104d14000100e000030032008100e9000180090085
:104d2400005978003200f9003a0678003c00780017
:104d3400000401001e0078000d0040001102200054
:104d44000000e900100ce10086313e000000e8009c
:104d54009e0650003a0678003c00780000040100ea
:104d64000d2f78004d112a003a0678003c00780097
:104d7400000401000d2f78000d002d003a06780084
:104d84003c007800000401000d2f78000d04200081
:104d94003a0678003c007800000401000d2f7800ea
:104da4000d0220003a0678003c007800000401005f
:104db4000d2f78000d0820003a0678003c0078009a
:104dc400000401000d2f7800fd0120003a06780050
:104dd4003c007800000401000d2f78000d02200033
:104de4003a0678003c007800000401000d2f78009a
:104df4000d0520003a0678003c007800000401000c
:104e04000d2f78000d0520003a0678003c0078004c
:104e1400000401000d2f78000d0028003a067800e8
:104e24003c007800000401000d2f78002d122a00a8
:104e34003a0678003c007800000401000d2f780049
:104e4400fdff2f003a0678003c00780000040100c2
:104e54000d2f78000d0020003a0678003c00780001
:104e6400000401000d2f78000d3021003a0678006f
:104e74003c007800000401000d2f78009d8f800015
:104e84000d2f7800ad8f80003a0678003c00780042
:104e940000040100ad8f8800ae0678009d8f880065
:104ea400ae0678003a0678003c0078000004010061
:104eb4008d007800114178000204e0000a003200fd
:104ec4008100e800114078000241e900e105e100b9
:104ed400f9ff3900fa05e100f7ff3e000042b10096
:104ee40080487800f4ff37003a0678003c007800e8
:104ef400000401000d007800ae0678009e007800e2
:104f04000d00e000050032001104e10003003a0046
:104f14008100e8008d06e900fbff3a00010f7800ec
:104f24003a0678003c007800000401008d01780006
:104f34000d2f780033427800429080000200e00098
:104f4400190032008280e900324078008043780002
:104f5400f043b2000404e1000200320011017800c1
:104f6400f6ff370003037800844278000504e0006c
:104f740005003200364078003204e100f7ff3a00c1
:104f84008542e900f9ff37000200a7000201e800aa
:104f9400020f78008086eb000744b2000300320061
:104fa4008d06ea00010037000d0020003a06780063
:104fb4003c007800000401000a0678003c057800f3
:104fc4000d2f78008c0678003a0678003c007800b3
:104fd40000040100106ea900108ea90000348000a6
:104fe400f10f2e000100600001802000010070001c
:104ff400003488001034800001fe2f00010060009e
:10500400010120000100700010348800b00220006b
:10501400101388006402a800c015210060088800ed
:105024002048880080488800801420003048880088
:10503400a03820007048880050c021000048880033
:1050440050488800f0ff28004228b60000002500e0
:105054004228b700f08f2f004228b60000502000ed
:105064004228b7001cb2ef001ef2ef001ff2ef005f
:1050740000e8a90020e8a80011e1a800d01420004d
:10508400109188002472ef002512a8002532a9008f
:105094003a0678003c007800000401000d00780016
:1050a4001ff2b700ae0678003a0678003c0078009c
:1050b400000401000d007800ae0678000000e00056
:1050c40005003200be2f0200000000003a067800fe
:1050d4003c00780000040100ce2f02000000000014
:1050e4003a0678003c007800000401003200f80021
:1050f40001c0fe002472ec000002220001a02c007a
:10510400ff020900801878002032ef002532a90040
:105114002472ed003200f9003a0678003c00780071
:1051240000040100dc2f0200000000003a067800b1
:105134003c00780000040100083002000000000078
:105144003a0678003c007800000401000d2f780036
:1051540020d2bf00800678008d86fb003a067800d6
:105164003c007800000401000d2f780021d2bf001c
:10517400800678008d86fb003a0678003c007800b3
:10518400000401002472ec002532af00a22f0200bb
:10519400000000002532a900f00320000068e100af
:1051a40001003e000d00780020f2b7002472ed00eb
:1051b400ae0678003a0678003c007800000401004e
:1051c4002472ec002532af00a22f02000000000080
:1051d4002532a9007868e100010039007d01200032
:1051e4000d00780021f2b7002472ed00ae067800bd
:1051f4003a0678003c007800000401002472ec00b8
:105204002532af00a22f0200000000002532a900c1
:105214002072ed0008003b002172ed0003003b000a
:1052240008300200000000002172ef00000420009a
:105234000000e90020f2b7002472ed003a0678007d
:105244003c007800000401002472ec002532af0019
:10525400a22f0200000000002532a9002072ec00f9
:10526400000420002052e300080039002072ef00ff
:105274002172ec00800120002152e3000300390078
:10528400dc2f0200000000002172ed002472ed000a
:105294003a0678003c007800000401002472ec0017
:1052a4002532af00a22f0200000000002532a90021
:1052b400a22f0200000000002472ed003a067800dc
:1052c4003c007800000401002472ec002532af0099
:1052d400a22f0200000000002532a90000c4b30080
:1052e4002152bc0020d2bf000080fb00020040001d
:1052f40001a02c00810040008d487800ae067800a3
:105304002472ed00d0ff37002472ec002532af0088
:10531400a22f0200000000002532a900f0032000a3
:1053240020f2b7002472ed00c7ff37000d2f78007c
:105334000d022000e4ff37002472ec002532af0098
:10534400a22f0200000000002532a90002a02c00b8
:10535400800120000068e100060031000004200004
:105364000068b80002014000000222001f0009008a
:10537400001978002472ed00ae0678003a06780031
:105384003c00780000040100116ea900f00f2e000b
:105394008826b600003020008826b70000fe2f00c3
:1053a400c426b600c0022000c426b700601c20003a
:1053b4004011880021e2a80080ff2f004628b60093
:1053c400300020004628b700f0ff28004428b6002b
:1053d400000023004428b7000188a9002188a80000
:1053e4000168a9002168a8002462ef002342a800f4
:1053f4003a0678003c0078000004010021e2a9008c
:1054040000d82100c1422000420020008100d100c8
:105414000080d3000201e900110009004d88d80082
:105424000000e9004011880021e2a800ae067800df
:105434003a0678003c00780000040100c211e20042
:1054440005003a002322af00030037002d11880025
:10545400ae0678000d00370000012000c211e30001
:10546400feff3200c5d1bf000080fb00211b2100dc
:10547400810040008d487800ae067800c231ec000f
:10548400c571ec00f0002000c571b6003a06780042
:105494003c007800000401000d2f7800c611e200e2
:1054a40001003a00fdff3700c8d1bf000080fb00b7
:1054b400211a21008100400091467800c631ed0098
:1054c400c871ec00f0002000c871b6003a067800fc
:1054d4003c00780000040100f0fd2f00102eb600ff
:1054e400f00f2e008226b600002021008226b7008d
:1054f4001629ef0050402000a04888000001200039
:10550400900888003a0678003c0078000004010006
:105514007d088800cd4888008d06d100dd488800cc
:10552400ae06780013e1a8003d918800ae0678002d
:105534003a0678003c007800000401004044200052
:10554400142eb700f0e72f00142eb600b0a32f00de
:10555400102eb60019aea800f0ff28004828b600a7
:10556400000023004828b7002268a8000268a900a8
:10557400c01320001012880041e2a8003a06780007
:105584003c0078000004010041e2a900f001200081
:105594004222b600010078004222b70041e2a8008e
:1055a40000000600144ea80041e2a800f0cfb300aa
:1055b400a100200048e2b7004002ae00feff370021
:1055c400401280008100e900faff3a000000060062
:1055d400144ea800f0cfb30048e2b7004002ae007a
:1055e400feff3700401280000000060080027800b1
:1055f40090082000203288004626ef0041e6a800eb
:1056040070702000103288004c26ef004e26ef0008
:10561400054078000060a0000070a10048e6b700d3
:1056240048e2b7004002ae00feff3700401280009f
:10563400010078000080fd0048e6b70048e2b700aa
:105644004002ae00feff37004012800001007800e7
:1056540048e6b70048e2b7004002ae00feff37005c
:1056640040128000020078000080fd0048e6b70088
:1056740048e2b7004002ae00feff3700401280004f
