:020000040000fa
:080000000002040000000000f2
:020000040000fa
:040008006003000091
:020000040000fa
:04000c00600300008d
:020000040000fa
:040010006003000089
:020000040000fa
:040014006003000085
:020000040000fa
:040018005e03000083
:020000040000fa
:04001c00600300007d
:020000040000fa
:040020006003000079
:020000040000fa
:040024006003000075
:020000040000fa
:040028006003000071
:020000040000fa
:04002c00600300006d
:020000040000fa
:040030006003000069
:020000040000fa
:040034006203000063
:020000040000fa
:040038006003000061
:020000040000fa
:04003c00600300005d
:020000040000fa
:040040008a02000030
:020000040000fa
:040044001c0200009a
:020000040000fa
:040048006003000051
:020000040000fa
:04004c00600300004d
:020000040000fa
:040050006003000049
:020000040000fa
:04005400f0020000b6
:020000040000fa
:04005800140300008d
:020000040000fa
:04005c00600300003d
:020000040000fa
:040060006003000039
:020000040000fa
:040064006003000035
:020000040000fa
:040068006003000031
:020000040000fa
:04006c00600300002d
:020000040000fa
:040070006003000029
:020000040000fa
:04007400380300004d
:020000040000fa
:0400780084030000fd
:020000040000fa
:04007c00600300001d
:020000040000fa
:040080006003000019
:020000040000fa
:040084006003000015
:020000040000fa
:040088006003000011
:020000040000fa
:04008c00600300000d
:020000040000fa
:040090006003000009
:020000040000fa
:040094006003000005
:020000040000fa
:040098006003000001
:020000040000fa
:04009c0060030000fd
:020000040000fa
:0400a0004203000017
:020000040000fa
:0400a40060030000f5
:020000040000fa
:0400a80060030000f1
:020000040000fa
:0400ac0060030000ed
:020000040000fa
:0400b00060030000e9
:020000040000fa
:0400b40060030000e5
:020000040000fa
:0400b80060030000e1
:020000040000fa
:0400bc0060030000dd
:020000040000fa
:0400c00060030000d9
:020000040000fa
:0400c40060030000d5
:020000040000fa
:0400c80060030000d1
:020000040000fa
:0400cc0060030000cd
:020000040000fa
:0400d00060030000c9
:020000040000fa
:0400d40060030000c5
:020000040000fa
:0400d80060030000c1
:020000040000fa
:0400dc0060030000bd
:020000040000fa
:0400e00060030000b9
:020000040000fa
:0400e40060030000b5
:020000040000fa
:0400e80060030000b1
:020000040000fa
:0400ec0060030000ad
:020000040000fa
:0400f00060030000a9
:020000040000fa
:0400f40060030000a5
:020000040000fa
:0400f80060030000a1
:020000040000fa
:0400fc00600300009d
:020000040000fa
:040100006003000098
:020000040000fa
:040104006003000094
:020000040000fa
:040108006003000090
:020000040000fa
:04010c00600300008c
:020000040000fa
:040110006003000088
:020000040000fa
:040114006003000084
:020000040000fa
:040118006003000080
:020000040000fa
:04011c00600300007c
:020000040000fa
:040120006003000078
:020000040000fa
:040124006003000074
:020000040000fa
:040128006003000070
:020000040000fa
:04012c00600300006c
:020000040000fa
:040130006003000068
:020000040000fa
:040134006003000064
:020000040000fa
:040138006003000060
:020000040000fa
:04013c00600300005c
:020000040000fa
:040140006003000058
:020000040000fa
:040144006003000054
:020000040000fa
:040148006003000050
:020000040000fa
:04014c00600300004c
:020000040000fa
:040150006003000048
:020000040000fa
:040154006003000044
:020000040000fa
:040158006003000040
:020000040000fa
:04015c00600300003c
:020000040000fa
:040160006003000038
:020000040000fa
:040164006003000034
:020000040000fa
:040168006003000030
:020000040000fa
:04016c00600300002c
:020000040000fa
:040170006003000028
:020000040000fa
:040174006003000024
:020000040000fa
:040178006003000020
:020000040000fa
:04017c00600300001c
:020000040000fa
:040180006003000018
:020000040000fa
:040184006003000014
:020000040000fa
:040188006003000010
:020000040000fa
:04018c00600300000c
:020000040000fa
:040190006003000008
:020000040000fa
:040194006003000004
:020000040000fa
:040198006003000000
:020000040000fa
:04019c0060030000fc
:020000040000fa
:0401a00060030000f8
:020000040000fa
:0401a40060030000f4
:020000040000fa
:0401a80060030000f0
:020000040000fa
:0401ac0060030000ec
:020000040000fa
:0401b00060030000e8
:020000040000fa
:0401b40060030000e4
:020000040000fa
:0401b80060030000e0
:020000040000fa
:0401bc0060030000dc
:020000040000fa
:0401c00060030000d8
:020000040000fa
:0401c40060030000d4
:020000040000fa
:0401c80060030000d0
:020000040000fa
:0401cc0060030000cc
:020000040000fa
:0401d00060030000c8
:020000040000fa
:0401d40060030000c4
:020000040000fa
:0401d80060030000c0
:020000040000fa
:0401dc0060030000bc
:020000040000fa
:0401e00060030000b8
:020000040000fa
:0401e40060030000b4
:020000040000fa
:0401e80060030000b0
:020000040000fa
:0401ec0060030000ac
:020000040000fa
:0401f00060030000a8
:020000040000fa
:0401f40060030000a4
:020000040000fa
:0401f80060030000a0
:020000040000fa
:0401fc00600300009c
:020000040000fa
:040200006003000097
:020000040000fa
:040204006003000093
:020000040000fa
:04020800600300008f
:020000040000fa
:04020c00600300008b
:020000040000fa
:040210006003000087
:020000040000fa
:040214006003000083
:020000040000fa
:04021800600300007f
:020000040000fa
:04021c00600300007b
:020000040000fa
:040220006003000077
:020000040000fa
:040224006003000073
:020000040000fa
:04022800600300006f
:020000040000fa
:04022c00600300006b
:020000040000fa
:040230006003000067
:020000040000fa
:040234006003000063
:020000040000fa
:04023800600300005f
:020000040000fa
:04023c00600300005b
:020000040000fa
:040240006003000057
:020000040000fa
:040244006003000053
:020000040000fa
:04024800600300004f
:020000040000fa
:04024c00600300004b
:020000040000fa
:040250006003000047
:020000040000fa
:040254006003000043
:020000040000fa
:04025800600300003f
:020000040000fa
:04025c00600300003b
:020000040000fa
:040260006003000037
:020000040000fa
:040264006003000033
:020000040000fa
:04026800600300002f
:020000040000fa
:04026c00600300002b
:020000040000fa
:040270006003000027
:020000040000fa
:040274006003000023
:020000040000fa
:04027800600300001f
:020000040000fa
:04027c00600300001b
:020000040000fa
:040280006003000017
:020000040000fa
:100400000e2eef00700020004a28b7000f002100d8
:100410000e0821000e0078008001b1000001880064
:1004200001c4fe0000c2fe008a512b003a0678008b
:080430003c007800000401000b
:020000040000fa
:1004380000e8a90061e2a900801f78001c32ec00e6
:1004480019003200600020001c12e3001c0032007a
:10045800c00020001c12e3001c0032002001200014
:100468001c12e3001c003200200320001c12e300d1
:100478001f003200200f20001c12e3002100320070
:10048800f01020001e52e200010032000000e800d7
:100498001c12e30002003a001ef2ee001cb2ef004c
:1004a8004f00780000400600400a200030488800cd
:1004b800e08a20002048880060088800f8ff37009c
:1004c800a080200030488800f5ff3700400a20004f
:1004d80030488800f2ff3700801420003048880038
:1004e800c01521002048880060088800ecff37000c
:1004f8001f52e200eaff320000c8a90020c8a80085
:10050800e7ff370020c8a900e5ff370000c8a900a9
:10051800809fbe00829fbe00849fbe00861f780019
:100528003200f800e19080002103b100e78260000a
:10053800c308de00020420000110b80004a02c004b
:1005480004024000430d2a009048800063006000c8
:10055800000601000000000000000000000000008c
:1005680061e2a8000200e0001200320001c0fe00b3
:10057800344078000003eb000070a7000083eb0014
:10058800f007b2004300dd00808041008580400014
:1005980000c2fe00114078000670a7000080ea0043
:1005a8006022ab00feff3a0068e2b7000201e900f2
:1005b800ecff37006022ab00feff3a006822ef0034
:1005c8003200f9004f0378004f02be004f01be0011
:1005d8004f00be00004006000168a900801f780097
:1005e800811f7800c9d1bf000080fb00211a2100bb
:1005f800810040002202ae00060037003011800062
:1006080080487800c631ec00c971ec00f000200089
:10061800c971b600cf0078004f007800004006008e
:100628000188a900801f7800811f7800c211e200ac
:100638000a003200c4d1bf000080fb00211b21004a
:10064800810040001140780024e2b700c231ed007b
:10065800c471ec00f0002000c471b600cf0078002f
:100668004f007800004006000a32ef0013aeae00db
:100678000a12a8000268a9000040060003c8a900e1
:10068800809fbe00829fbe00b0118000a11c210087
:10069800628f800081004100804878001200b0001d
:1006a800f201b200628f88004f01be004f00be0009
:1006b800004006000000fe000000fe000068a900df
:1006c800809fbe00829fbe001632ec002612e20018
:1006d800030032002632ed0001003a0013e1a900c0
:1006e8002452e20003003a002512af007e340200d3
:1006f800000000004f01be004f00be000040060091
:040708000000fe00ef
:020000040000fa
:10070c00000000008445000058490000540000001f
:10071c000c25000014250000888300008443000091
:10072c00414c00004c0000001a250000948300008e
:10073c00a52800004c490000542900002a2500007f
:10074c009e830000a6280000434c00004954000082
:10075c002900000034250000a8830000a828000010
:10076c0042520000414e00004348000029000000a6
:10077c0040250000b4830000a9280000544200006a
:10078c00524100004e43000048290000482500005b
:10079c00c2830000a92800003f4200005241000023
:1007ac004e4300004829000056250000d08300006d
:1007bc00a4280000444f000029000000642500001c
:1007cc00de830000a52800003f4400004f290000f4
:1007dc0076250000e8830000a62800004c4f00009e
:1007ec004f5000002900000088250000f283000013
:1007fc00a72800002b4c00004f4f00005029000090
:10080c00a2250000fe830000834900005040000038
:10081c00c02500000a84000083490000502100001c
:10082c00ca250000128400008652000045420000d8
:10083c004f4f000054000000d42500001a84000023
:10084c008745000058450000435500005445000002
:10085c00d625000026840000884000004558000082
:10086c00454300005554000045000000de25000003
:10087c003284000081400000e2250000408400002a
:10088c008245000040000000ea250000468400007c
:10089c008343000045400000f82500004e84000012
:1008ac00824300004000000008260000568400002f
:1008bc0087420000554600004645000052210000ca
:1008cc00e2240000c0a00000ee850000bc84000003
:1008dc008e8300005e8400008842000055460000b4
:1008ec00464500005243000021000000e2240000b5
:1008fc00c0a00000ee850000c48400008e830000c0
:10090c0072840000874200005546000046450000f6
:10091c0052400000e2240000c0a00000ee85000060
:10092c004a8400008e830000888400008842000006
:10093c0055460000464500005243000040000000b0
:10094c00e2240000c0a00000ee85000052840000ec
:10095c008e8300009c840000823200004000000066
:10096c0012260000b2840000812100002026000025
:10097c00ba84000082430000210000002a260000f7
:10098c00c0840000823200002100000036260000e6
:10099c00c88400008149000044260000d084000077
:1009ac00814a00004e260000d684000086550000c7
:1009bc004e4c00004f4f0000500000005826000025
:1009cc00dc840000834400005550000062260000c7
:1009dc00e884000084320000445500005000000000
:1009ec006a260000f0840000843f0000445500009b
:1009fc005000000076260000fa84000084440000b9
:100a0c00524f0000500000008226000004850000b8
:100a1c0085320000445200004f5000008a2600002e
:100a2c000e85000084530000574100005000000068
:100a3c0094260000188500008532000053570000f2
:100a4c0041500000a02600002285000083520000c7
:100a5c004f540000b42600002c850000842d0000ab
:100a6c00524f000054000000c626000034850000e0
:100a7c00844f00005645000052000000d6260000ae
:100a8c003e850000853200004f56000045520000a4
:100a9c00e026000048850000834e0000495000000d
:100aac00ee26000052850000823e0000520000003d
:100abc00f62600005a850000825200003e0000001d
:100acc0000270000628500008252000040000000f8
:100adc000a2700006a850000835300005040000084
:100aec001427000072850000835300005021000081
:100afc00202700007a85000083520000504000003f
:100b0c00282700008285000083520000502100003d
:100b1c00322700008a8500008454000055430000f1
:100b2c004b0000003c27000092850000854400002b
:100b3c004550000054480000482700009c850000e8
:100b4c0084500000494300004b0000005627000071
:100b5c00a6850000853e000043530000544b000066
:100b6c0064270000b085000085430000535400004a
:100b7c004b3e000072270000ba850000834800003d
:100b8c0045580000e2240000a4830000100000007f
:100b9c0080890000bc8400008e830000c4850000a6
:100bac008744000045430000494d0000414c0000c3
:100bbc00e2240000a48300000a00000080890000e9
:100bcc00bc8400008e830000d6850000812b0000c1
:100bdc0080270000ec850000812d00008827000094
:100bec00f2850000823100002b00000092270000eb
:100bfc00f8850000823200002b0000009a270000cc
:100c0c0000860000823100002d000000a2270000a9
:100c1c0008860000823200002d000000aa27000088
:100c2c0010860000823200002a000000b22700006b
:100c3c0018860000823200002f000000ba27000046
:100c4c0020860000864c00005348000049460000f6
:100c5c0054000000c22700002886000086520000c5
:100c6c00534800004946000054000000d227000001
:100c7c0034860000822b000021000000e2270000d7
:100c8c0040860000824d00002b000000f027000081
:100c9c0048860000812a00000028000050860000d1
:100cac00824d00002a0000000a2800005686000031
:100cbc00835500004d2a0000162800005e860000b7
:100ccc0083550000442a0000e2240000ec8400005c
:100cdc005e850000628600000a8500001e8500000b
:100cec00668500006286000030850000ee850000fd
:100cfc008e83000066860000812f000022280000f1
:100d0c0082860000834d00004f4400003028000014
:100d1c0088860000822a00002f0000003e28000078
:100d2c0090860000852a00002f4d00004f440000e3
:100d3c005028000098860000842f00004d4f0000c2
:100d4c004400000064280000a286000086550000c4
:100d5c004d2f00004d4f000044000000742800008f
:100d6c00ac860000834d000041580000862800002e
:100d7c00b8860000834d0000494e00009428000006
:100d8c00c0860000845500004d4100005800000052
:100d9c00a2280000c8860000845500004d490000c0
:100dac004e000000b0280000d286000086570000dc
:100dbc0049540000484900004e000000be280000c5
:100dcc00dc86000084450000564500004e00000003
:100ddc00d6280000e8860000834f00004444000041
:100dec00e4280000f286000083410000425300001a
:100dfc00f2280000fa860000844400004142000002
:100e0c0053000000fc280000028700008353000000
:100e1c003e440000122900000c870000873f0000b0
:100e2c004e450000474100005445000022290000b7
:100e3c0014870000865300004d2f0000524500001f
:100e4c004d000000e2240000f6840000aa87000098
:100e5c005e850000448500005e850000fe86000073
:100e6c005e8500000887000066850000b4860000df
:100e7c001e850000668500001c8700001e85000092
:100e8c00668500001c8700008e8300002087000010
:100e9c00864600004d2f00004d4f0000440000001e
:100eac00e2240000ec8400005e850000f684000063
:100ebc00aa8700005e8500005e85000008870000a0
:100ecc006e850000fe860000b48600001e850000c2
:100edc00668500001c8700001e85000066850000ea
:100eec00f2870000da83000014000000ce870000b7
:100efc0044850000da8300000c0000006e850000c1
:100f0c0030850000f48500001e8500000c86000072
:100f1c00668500000a8500008e8300004e87000065
:100f2c00834100004e4400003029000096870000e9
:100f3c00824f000052000000382900009e870000fc
:100f4c00835800004f52000040290000a687000083
:100f5c00864900004e560000455200005400000027
:100f6c0048290000ae87000087440000494e00006d
:100f7c00564500005254000050290000ba8700006a
:100f8c00864e00004547000041540000450000001b
:100f9c005a290000c6870000874400004e45000017
:100fac00474100005445000062290000d287000030
:100fbc00823000003d00000072290000de87000036
:100fcc00833000003c3e00007c290000e6870000d6
:100fdc00823000003c0000008c290000ee870000ed
:100fec00823000003e00000098290000f6870000c7
:100ffc00813d0000a2290000fe870000823c000019
:10100c003e000000b229000004880000813c000072
:10101c00c22900000c880000813e0000d22900008b
:10102c0012880000825500003c000000e2290000fc
:10103c0018880000825500003e000000f2290000d4
:10104c002088000084430000454c00004c00000048
:10105c00022a00002888000085430000454c00004f
:10106c004c2b00000c2a0000328800008543000045
:10107c00454c00004c530000142a00003c88000032
:10108c00854100004c490000474e0000e22400005e
:10109c0084880000f6860000da830000100000004f
:1010ac00a48300000000000084880000c4840000b9
:1010bc00a483000001000000749100008e830000e6
:1010cc0046880000874100004c490000474e000054
:1010dc00454400001e2a000068880000853e000080
:1010ec004348000041520000282a00007488000088
:1010fc00844800004552000045000000e224000036
:10110c0074890000428400008e8300007e880000f9
:10111c00844d00004f56000045000000362a0000a8
:10112c008e880000854300004d4f0000564500009e
:10113c00562a0000988800008543000048410000b2
:10114c0052530000e22400008e830000a2880000ad
:10115c008543000048410000522b0000e2240000af
:10116c00fc8500008e830000ae88000084430000e4
:10117c004841000052000000e2240000448a0000b4
:10118c00808d0000ec8400005a840000e28700008f
:10119c008c8f0000106d00006973000073690000f3
:1011ac006e67000020630000617200006163000044
:1011bc007465000072000000fc8500005a84000079
:1011cc008e830000bc880000c65b00004348000012
:1011dc00415200005d000000e22400006495000014
:1011ec00c28800005a920000a4830000788e000090
:1011fc008e830000ea880000845300004341000005
:10120c004e000000762a000002890000844600008f
:10121c00494c00004c000000982a00000c8900008a
:10122c00892d000054520000414900004c49000037
:10123c004e470000b62a00001689000085500000b9
:10124c00414300004b240000e224000070880000a1
:10125c00ec8400005e85000044850000ec840000f6
:10126c00a483000000000000a48300000200000022
:10127c00b48600000a850000f48500004485000057
:10128c00ee850000a4830000000000001e85000015
:10129c00bc840000f6840000c4840000a483000019
:1012ac0001000000ee8500001e8500009e880000f5
:1012bc00668500008e8300002489000085530000a1
:1012cc005441000054450000ec2400000c000000c8
:1012dc00648900008244000050000000ec240000ef
:1012ec000a00000070890000844200004153000095
:1012fc0045000000ec2400000e0000007a8900007c
:10130c0089530000595300004c4100005445000023
:10131c0053540000ec2400001800000086890000e3
:10132c00864c00004154000045530000540000005e
:10133c00ec2400001a000000968900008252000084
:10134c0030000000ec24000014000000a489000010
:10135c008253000030000000ec240000120000005a
:10136c00ae8900008350000041440000ec240000d2
:10137c0002000000b88900008354000049420000bc
:10138c00ec24000000000000c2890000833e000035
:10139c00494e0000ec24000010000000cc89000035
:1013ac008248000050000000ec24000016000000f1
:1013bc00d689000086270000534f000055520000cc
:1013cc0043450000ec24000004000000e08900000c
:1013dc0087230000534f0000555200004345000086
:1013ec00ec24000006000000ee8900008756000087
:1013fc0045520000534900004f4e0000cc2a00001b
:10140c00fc89000086520000414d0000454e000052
:10141c0044000000d62a0000088a0000854900001c
:10142c004d4d000045440000e02a0000148a0000e5
:10143c008648000049440000444500004e0000006e
:10144c00ea2a00001e8a0000854e00004d41000073
:10145c00524b0000f42a00002a8a0000874c00003e
:10146c00454e00004d410000534b0000fe2a000089
:10147c00348a0000824200004c000000082b00005f
:10148c00408a000087540000494200005349000084
:10149c005a450000122b0000488a000087500000bb
:1014ac0041440000534900005a4500001c2b000029
:1014bc00548a0000865500004c4900004d4900003c
:1014cc0054000000262b0000608a000085440000b8
:1014dc004f4300004f4c0000302b00006c8a000082
:1014ec008154000052550000450000003a2b0000ca
:1014fc00768a000081460000414c000053450000f4
:10150c00442b0000808a000083440000503000000f
:10151c004e2b00008a8a000086270000534f0000e3
:10152c005552000043450000582b0000928a0000e1
:10153c00875300004f550000524300004521000026
:10154c00662b00009e8a0000863f00004449000084
:10155c004749000054000000e2240000ec84000025
:10156c00a48300006000000024880000da830000df
:10157c0008000000a483000020000000f485000097
:10158c00ec840000a48300003900000024880000d3
:10159c00da8300001a000000ec840000a483000031
:1015ac00410000001c880000da83000008000000e5
:1015bc00a4830000000000008e830000a4830000c0
:1015cc0007000000f4850000a48300003000000038
:1015dc00f4850000ec840000808900004284000047
:1015ec001c8800008e830000aa8a0000873f000040
:1015fc00444f0000554200004c450000e22400001e
:10160c00448500005a840000a48300002e000000d2
:10161c0000880000da83000010000000a4830000a2
:10162c00010000003a8d0000a4830000ffff0000c1
:10163c00be83000018000000448500005a8400009e
:10164c00a48300002c00000000880000da83000056
:10165c0006000000be830000e2ff0000a48300002f
:10166c00000000008e830000fc8a0000873e000012
:10167c004e5500004d42000045520000e22400008f
:10168c00a4830000000000005e850000ec840000d4
:10169c00da83000050000000448500005a840000ea
:1016ac00b28a0000cc830000220000006685000096
:1016bc00da830000420000000a850000048b000061
:1016cc00da8300003c00000066850000668500009f
:1016dc00a483000002000000a28700005e850000c9
:1016ec005e850000be830000ccff00006685000014
:1016fc000a850000a4830000ffff00005e85000047
:10170c005e8500002885000080890000428400006e
:10171c006a860000668500004c8600002885000063
:10172c00a4830000010000003a8d0000be8300007d
:10173c00aeff0000668500000a8500008e83000065
:10174c003c8b0000853f000053490000474e0000d1
:10175c00e2240000448500005a840000b08300009d
:10176c002d00000000880000cc8300000a0000005f
:10177c00a483000000000000be8300000c000000e9
:10178c00a4830000010000003a8d0000a483000037
:10179c00010000008e830000a88b0000853f000034
:1017ac004241000053450000e22400004485000043
:1017bc005a840000b0830000240000000088000060
:1017cc00da8300000e000000a4830000100000006b
:1017dc0080890000bc840000be8300003200000041
:1017ec00448500005a840000b083000023000000f0
:1017fc0000880000da8300000e000000a4830000c3
:10180c000a00000080890000bc840000be83000038
:10181c0018000000448500005a840000b0830000ca
:10182c002500000000880000da8300001200000090
:10183c00a48300000200000080890000bc8400002a
:10184c001e850000fc8500001e8500000c86000033
:10185c008e830000d48b0000873f00004e550000a3
:10186c004d42000045520000e22400008089000037
:10187c00428400005e850000ec840000a48300001c
:10188c0000000000ec84000030850000228e000077
:10189c00da8b0000ae8b00005e850000448b0000ec
:1018ac00da8300001000000066850000148500003b
:1018bc0014850000a483000000000000be8300001b
:1018cc00240000000a850000308500000a85000015
:1018dc006e850000f6860000da830000040000002c
:1018ec00da87000066850000a48300000200000077
:1018fc009a870000cc830000040000000a850000d9
:10190c00a4830000ffff00006685000080890000b2
:10191c00bc8400008e830000328c000085570000d0
:10192c004f52000044530000e2240000a483000046
:10193c0000000000909900009e8900004284000085
:10194c00ec840000e2870000cc830000460000001d
:10195c00ec8400005a840000268a00009a8700005c
:10196c00da8300000800000014860000be8300002b
:10197c00e6ff0000ec840000ec8400005a840000b8
:10198c003c8a00009a870000ec8400002e9900002d
:10199c00ee850000a4830000400000001c880000bd
:1019ac00cc83000004000000909900005e850000cc
:1019bc00fc85000066850000d89900009a9900000b
:1019cc00148600001e850000fc8500001e850000aa
:1019dc00be830000b4ff00000a850000909900004f
:1019ec00569b00008e830000948c000085550000ef
:1019fc005050000045520000742b0000fc8c00007d
:101a0c00845300004b49000050000000962b00004e
:101a1c00068d000087410000445200003e49000042
:101a2c004e000000e22400009a8a0000308500007d
:101a3c0030850000f4850000c4860000a4830000fb
:101a4c0000000000bc860000d0890000bc840000af
:101a5c008e830000108d0000872f0000535400006f
:101a6c00524900004e470000e2240000308500007f
:101a7c0044850000ee8500003085000030850000b4
:101a8c00f48500008e830000328d0000855000002c
:101a9c004152000053450000e22400009a8a0000e5
:101aac00d0890000428400003a8d0000448500007b
:101abc005e85000030850000088900004485000028
:101acc001e850000da83000004000000fc85000085
:101adc00188d00006685000098850000f4850000d4
:101aec008e8300004c8d0000845700004f52000084
:101afc0044000000e2240000ec8400009a8a0000fc
:101b0c00d0890000428400003a8d0000308500002e
:101b1c000c8d00000a850000188d0000528d00000d
:101b2c0084880000668e0000848800008e8300008c
:101b3c007a8d000084460000494e000044000000ed
:101b4c00b22b0000a08d0000864100004343000032
:101b5c004550000054000000e224000044850000c1
:101b6c00ee8500005e850000ec8400006e9e000097
:101b7c00ec840000a48300000d000000008800002d
:101b8c00da830000160000000a850000448a000079
:101b9c0044850000c48400001e850000f48500000c
:101bac00fc850000668500000a8500008e8300001d
:101bbc00ec840000a48300000800000000880000f2
:101bcc00da830000140000000a850000f68400008f
:101bdc0000880000cc830000caff0000249a00009b
:101bec000c860000be830000c2ff0000448500008c
:101bfc006e85000000880000cc83000010000000ff
:101c0c00ec8400008899000044850000c484000026
:101c1c00fc850000be830000aaff00000a850000be
:101c2c00be830000a4ff0000aa8d000085430000c5
:101c3c004f5500004e540000e2240000ec840000dc
:101c4c005a8400005e850000fc850000668500005b
:101c5c008e8300001c8e000085450000525200004f
:101c6c004f520000e22400009a990000228e0000de
:101c7c00d89900009a990000b08300003f00000042
:101c8c0088990000a4830000000000006a8900000d
:101c9c00bc840000b2890000428400007e850000f4
:101cac0090990000be8f0000328e0000883e00002c
:101cbc00434f0000554e0000544500004400000006
:101ccc00e2240000f6840000c4840000fc850000bf
:101cdc001e8500009e8800008e8300005c8e000034
:101cec00812c0000e224000084880000bc840000e9
:101cfc00a483000002000000749100008e83000099
:101d0c00768e0000824300002c000000e2240000cc
:101d1c0084880000c4840000a4830000010000003b
:101d2c00749100008e830000888e000089490000a9
:101d3c004e54000045520000505200004554000023
:101d4c00e2240000a68a0000a4830000000000002a
:101d5c00d0890000bc840000448a0000808d000003
:101d6c00ec8400005a840000da830000400000007c
:101d7c00028d0000a68d000000850000da830000b3
:101d8c001c000000fc8500006a89000042840000f1
:101d9c00e2870000a2870000da8300000800000040
:101dac002e840000be830000d8ff0000788e000057
:101dbc00be830000d2ff00003a8c0000da830000e2
:101dcc0008000000c0920000be830000c6ff0000a7
:101ddc00228e0000d8990000a48300003f00000070
:101dec0088990000909900005e8f00000a85000021
:101dfc008e8300009c8e0000884500005641000038
:101e0c004c5500004154000045000000e224000045
:101e1c009a8a00005e8500005e850000d089000073
:101e2c00428400005e850000a68e000066850000de
:101e3c00d0890000bc840000668500006685000027
:101e4c00a68a00008e830000028f0000824f0000e3
:101e5c004b000000e22400002e990000a483000037
:101e6c0003000000ee850000a48300004000000089
:101e7c000e880000cc830000040000009099000044
:101e8c009a990000a48300004f000000889900007c
:101e9c00a48300004b000000889900008e83000092
:101eac002c8f000085410000424f0000525400006e
:101ebc00e22400006a89000042840000da830000fa
:101ecc00140000009e89000042840000169000005f
:101edc00ec840000428400009e890000bc84000059
:101eec0074890000bc840000b289000042840000a8
:101efc007e850000be8f0000588f0000a63f0000ba
:101f0c00414200004f52000054000000e224000047
:101f1c00da9200001e850000da8300000a0000003f
:101f2c00228e0000d8990000909900005e8f00006e
:101f3c000a8500008e830000848f0000c6410000db
:101f4c00424f00005254000022000000e224000026
:101f5c005a9200008c8f00003c9300008e8300008e
:101f6c00a48f00008451000055490000540000006b
:101f7c00e2240000a8890000428400008e85000045
:101f8c00a4830000000000006a890000bc840000eb
:101f9c00c689000042840000ec840000a483000089
:101fac003f000000b28d00009a990000a68e000040
:101fbc006a89000042840000cc8300000400000009
:101fcc00308f000090990000be830000e2ff0000fb
:101fdc00b88f0000c1280000e2240000a483000098
:101fec0029000000528d0000148500008e83000033
:101ffc00f08f0000c15c0000e22400009a8a00000f
:10200c00ee850000188d00008e830000009000000b
:10201c00874e0000464100003e4c00004641000047
:10202c00e2240000a483000002000000f4850000fc
:10203c008e8300000e900000874e00004641000089
:10204c003e43000046410000e2240000ec84000006
:10205c005a840000a48300001f0000009a8700002f
:10206c00ee850000fc850000708800008e83000067
:10207c0022900000853e0000424f000044590000b1
:10208c00e2240000388800008e830000409000009d
:10209c0087430000464100003e4e000046410000d0
:1020ac00e2240000ec840000a48300000013000074
:1020bc001c880000da8300000a000000ec84000099
:1020cc00aa870000be8300005a000000ec840000c8
:1020dc005e850000a4830000210000005e850000e6
:1020ec000c860000ec8400005a840000ec84000094
:1020fc00a4830000800000009a870000cc830000bd
:10210c00140000000a850000668500000c860000a3
:10211c00ec840000da8300002a0000005e850000d9
:10212c00be830000deff0000668500000a8500000b
:10213c00a48300001f0000009a8700004485000063
:10214c00ee850000fc8500007088000066850000ac
:10215c0000880000ec840000da8300000c00000012
:10216c000a850000be8300000a000000668500009e
:10217c000a8500001e8500000a8500008e83000081
:10218c004e900000854500004d5000005459000051
:10219c00e22400008e8a0000428400008488000043
:1021ac00008800008e830000c89000008949000060
:1021bc004d4d0000454400004941000054450000cd
:1021cc00e2240000ce900000cc830000120000003e
:1021dc009e89000042840000ec8400005a840000b8
:1021ec001a8a0000a28700001e850000c48400002b
:1021fc008e830000dc9000008448000049440000fd
:10220c0045000000e2240000ce900000cc830000ca
:10221c00120000009e89000042840000ec84000043
:10222c005a840000268a0000a28700001e85000048
:10223c00c48400008e83000002910000a7280000d7
:10224c004e4d0000415200004b290000e2240000da
:10225c00ce900000cc830000120000009e8900008c
:10226c0042840000ec8400005a840000308a000094
:10227c00a28700001e850000c48400008e8300002d
:10228c002491000086520000455600004541000094
:10229c004c000000e2240000ce900000cc83000033
:1022ac00140000009e89000042840000ec840000b1
:1022bc005a840000268a0000b68700009a87000026
:1022cc001e850000c48400008e830000489100002d
:1022dc00854100004c4c00004f540000e2240000eb
:1022ec0074890000448600008e8300006e9100000b
:1022fc0081270000e2240000448a0000808d000049
:10230c00ec8400005a840000e28700008a950000eb
:10231c00028d0000a68d0000da830000060000008c
:10232c00be83000012000000228e0000d89900002d
:10233c009a990000a48300003f00000088990000d7
:10234c00909900005e8f00008e8300007e9100004b
:10235c00c35b0000275d0000e224000064950000d0
:10236c00809100005a920000a4830000788e000037
:10237c008e830000ae910000c53c00004d41000072
:10238c00524b0000e2240000649500008488000099
:10239c008e830000c2910000c83c00005245000032
:1023ac00534f00004c56000045000000e224000092
:1023bc006495000084880000f4850000788e00008d
:1023cc008e830000d2910000c53e00004d410000fc
:1023dc00524b0000e2240000649500008488000049
:1023ec00a483000000000000788e00008e830000a3
:1023fc00ea910000c83e000052450000534f000017
:10240c004c56000045000000e224000064950000da
:10241c00ec840000848800001e850000f485000018
:10242c001e850000bc8400008e830000009200001a
:10243c00c15b0000e2240000a48300000000000047
:10244c006a890000bc8400008e8300001e9200008c
:10245c00c15d0000e2240000a4830000ffff000027
:10246c006a890000bc8400008e8300002e9200005c
:10247c00c95b0000434f00004d500000494c000068
:10248c00455d0000e224000064950000809100008e
:10249c00788e00008e8300003e920000c643000040
:1024ac00464100002c000000e2240000668500007c
:1024bc00ec84000042840000788e00003888000014
:1024cc005e8500008e83000054920000853f000062
:1024dc00574f000052440000e2240000448a0000e0
:1024ec00808d0000028d0000a68d0000008500008c
:1024fc00e2870000da8300000e000000228e00004c
:10250c00d8990000a48300003f00000088990000c7
:10251c005e8f00008e8300006c920000c85000009b
:10252c004f530000545000004f4e00004500000077
:10253c00e22400006495000072920000fa8700000b
:10254c000c000000a4830000a4830000788e00001f
:10255c00be83000004000000788e00008e83000013
:10256c0094920000c74c00004954000045520000f2
:10257c00414c0000e22400006a8900004284000003
:10258c00da830000080000005a920000a4830000c7
:10259c00788e00008e830000b8920000a528000001
:1025ac00444f000024290000e2240000668500004e
:1025bc006e85000066850000228e0000ee8500000e
:1025cc00708800005e8500001e8500005e8500009e
:1025dc008e830000d4920000a42800005322000037
:1025ec0029000000e2240000da920000228e000094
:1025fc008e830000f2920000a42800004322000009
:10260c0029000000e2240000da9200008e83000012
:10261c0002930000a42800002e22000029000000d4
:10262c00e2240000da920000228e0000d89900000b
:10263c008e83000010930000a45300004c4900004e
:10264c0054000000e2240000a483000022000000db
:10265c00808d0000228e00008e83000022930000eb
:10266c00a42800002c22000029000000e224000015
:10267c0028930000ee85000070880000748900002b
:10268c00bc8400008e83000036930000c25300000f
:10269c0022000000e2240000649500005a92000021
:1026ac00f89200003c9300008e8300004c930000d5
:1026bc00c243000022000000e224000064950000e8
:1026cc005a920000089300003c9300008e83000097
:1026dc005e930000c22e000022000000e2240000e5
:1026ec006a89000042840000da8300000a000000be
:1026fc005a920000169300003c9300008e83000059
:10270c0028930000d89900008e830000709300007d
:10271c00c7520000454300005552000053450000cd
:10272c00e22400009e890000428400002a900000f0
:10273c00788e00008e8300008e930000c24400004f
:10274c004f000000e2240000649500005a92000043
:10275c00e483000084880000b6850000a483000098
:10276c0000000000b68500008e830000a4930000da
:10277c00c33f0000444f0000e224000064950000b9
:10278c005a920000ee83000084880000a4830000ad
:10279c000200000042880000ee850000b6850000b3
:1027ac00a483000000000000b68500005a920000cf
:1027bc00be830000f0910000b68500008e830000ff
:1027cc00be930000c54c000045410000564500007a
:1027dc00e2240000649500005a920000e48400009a
:1027ec005a920000be830000f0910000b6850000f4
:1027fc008e830000e8930000e74600004958000073
:10280c004c4f00004f500000e2240000c085000037
:10281c0000850000da83000014000000ec84000046
:10282c0084880000388800001e850000f4850000b4
:10283c001e850000bc840000be830000e8ff000081
:10284c00c0850000dc9100008e8300000294000023
:10285c00c44c00004f4f000050000000e224000068
:10286c00649500005a920000fa8300000a9400005c
:10287c008e8300002e940000c52b00004c4f0000ee
:10288c004f500000e2240000649500005a920000b2
:10289c00068400000a9400008e830000429400001d
:1028ac00c542000045470000494e0000e2240000ec
:1028bc0064950000c89100008e83000056940000bf
:1028cc00c541000047410000494e0000e2240000d1
:1028dc00649500005a920000be830000dc91000059
:1028ec008e83000066940000c55500004e54000015
:1028fc00494c0000e2240000649500005a9200004c
:10290c00da830000dc9100008e8300007a940000d2
:10291c00c249000046000000e2240000649500005b
:10292c005a920000da830000f09100008e830000c0
:10293c008e940000c4540000484500004e00000076
:10294c00e2240000649500000a9200008e830000cf
:10295c00a0940000c44500004c530000450000004a
:10296c00e2240000649500005a920000be8300002f
:10297c00f09100001e850000a69400008e830000dc
:10298c00b0940000c5570000484900004c450000b9
:10299c00e2240000649500005a920000da830000e3
:1029ac00f09100001e8500008e830000c89400008a
:1029bc00c652000045500000454100005400000084
:1029cc00e2240000649500005a920000be830000cf
:1029dc00dc9100000a9200008e830000de9400005f
:1029ec00c44300004153000045000000e2240000f5
:1029fc0064950000a4830000000000008e8300009a
:102a0c00f6940000c24f000046000000e2240000d3
:102a1c00649500005a920000448500005a92000010
:102a2c00008800005a920000da830000f091000048
:102a3c008e83000008950000c54500004e44000040
:102a4c004f460000e2240000649500005a920000fa
:102a5c00be830000f09100001e8500000a92000069
:102a6c008e83000022950000c74500004e440000f4
:102a7c004341000053450000e2240000649500002f
:102a8c0000850000da830000080000000a920000b4
:102a9c00be830000f6ff00005a9200000a85000079
:102aac008e8300003a950000c83f0000434f0000a1
:102abc004d500000494c000045000000e22400008d
:102acc006a89000042840000e28700008c8f0000bd
:102adc00116300006f6d0000706900006c650000f0
:102aec00206f00006e6c000079200000776f0000f2
:102afc00726400008e8300005a950000853f000030
:102b0c004e4100004d450000e22400008c8f000077
:102b1c000c6e0000616d0000652000006d69000006
:102b2c0073730000696e0000670000008e83000064
:102b3c0084950000873a00004e4f00004e41000083
:102b4c004d450000e2240000848800005a920000e9
:102b5c00e2240000309200008e830000a09500005b
:102b6c00c545000058490000542c0000e224000028
:102b7c005a9200008e8300008e830000b6950000f0
:102b8c00864800004541000044450000520000000a
:102b9c00e22400009e890000ec84000042840000c6
:102bac00788e0000848800001e850000bc84000024
:102bbc00448a0000808d0000028d00005a840000c1
:102bcc00ec840000e28700008a950000fc85000080
:102bdc00749100004c8800002c91000008910000ba
:102bec008e830000c6950000864600004f52000000
:102bfc004745000054000000e224000080910000d2
:102c0c005690000016900000ec840000a483000095
:102c1c0000800000248800008c8f00001a43000004
:102c2c00616e000027740000206600006f720000c7
:102c3c006765000074200000776f0000726400006c
:102c4c00206900006e200000464c0000415300003b
:102c5c0048000000ec84000074890000bc84000073
:102c6c00428400009e890000bc8400008e8300001a
:102c7c00fa950000813a0000e2240000ce95000095
:102c8c00309200005a920000e22400008e83000073
:102c9c00f82b0000409600008643000052450000cf
:102cac004154000045000000e2240000ce950000d5
:102cbc00509100005a920000e22400005a92000049
:102ccc004e9600005a92000090830000bc950000c4
:102cdc008e830000e224000066850000ec84000076
:102cec00388800005e850000428400009e89000048
:102cfc00428400002a900000a4830000020000001f
:102d0c0042880000ee850000bc8400008e83000029
:102d1c0052960000c54400004f450000533e000091
:102d2c00e22400005a920000709600008488000093
:102d3c00a48300000200000042880000ee85000021
:102d4c00788e0000bc950000a89500000a85000054
:102d5c008e830000909600008856000041520000bf
:102d6c0049410000424c000045000000e2240000f4
:102d7c005a960000a483000000000000788e00002a
:102d8c008e830000b2960000884300004f4e000076
:102d9c0053540000414e000054000000e224000097
:102dac00ce95000050910000a48300000225000085
:102dbc00788e0000788e00008e830000ca9600008a
:102dcc00c13b0000e224000064950000bc950000ab
:102ddc0050910000209200008e830000e6960000c7
:102dec00a82800004e4f0000494e00004954000036
:102dfc0029000000e2240000169300001a55000080
:102e0c006e6900006e69000074690000616c00005e
:102e1c00697a0000656400002064000065660000ab
:102e2c006572000065640000207700006f7200007e
:102e3c0064000000909900005e8f0000f696000080
:102e4c00854400004546000045520000e224000085
:102e5c00ce9500005a920000e22400005a92000025
:102e6c00009700005a9200008e83000050910000e1
:102e7c008e83000026970000864400004546000023
:102e8c004552000021000000e224000038880000b8
:102e9c00bc8400008e830000429700008644000032
:102eac00454600004552000040000000e2240000ae
:102ebc0038880000428400008e8300005497000084
:102ecc008249000053000000e224000072920000ce
:102edc000a85000038880000bc8400008e83000046
:102eec0066970000c22e000028000000e2240000bb
:102efc00a483000029000000808d0000228e0000b9
:102f0c00d89900008e83000078970000833200006f
:102f1c003e520000e2240000668500003a85000065
:102f2c001e8500005e8500005e8500005e85000049
:102f3c008e8300008c97000083320000523e00000c
:102f4c00e2240000668500006685000066850000ae
:102f5c001e850000308500005e8500008e83000019
:102f6c00a29700008332000052400000e2240000cf
:102f7c0066850000668500006e85000044850000b3
:102f8c005e850000308500005e8500001e85000017
:102f9c008e830000b8970000843f0000445300006b
:102fac0050000000e224000076850000b289000089
:102fbc00428400001c8800008c8f0000115300001c
:102fcc002073000074610000636b0000207500002a
:102fdc006e64000065720000666c00006f77000084
:102fec0076850000b289000042840000a4830000b2
:102ffc004000000014860000ee85000024880000cc
:10300c008c8f0000105300002073000074610000ce
:10301c00636b0000206f0000766500007266000094
:10302c006c6f0000770000008e830000d2970000c8
:10303c00822e000053000000e2240000a285000054
:10304c00b08300003c00000088990000ec84000074
:10305c00569b0000b08300003e00000088990000e1
:10306c009a99000000850000da8300000e00000031
:10307c00ec840000ac850000569b00000c86000020
:10308c00be830000f0ff00008e8300001e9800003d
:10309c00842e0000525400004e000000e224000078
:1030ac008089000042840000c8850000b0830000c5
:1030bc005200000088990000b08300003a00000024
:1030cc0088990000a889000042840000ec8400006c
:1030dc0042840000569b000004860000ec84000033
:1030ec0086850000a483000002000000f485000027
:1030fc0000880000da830000eaff000090990000cd
:10310c000a85000080890000bc8400008e830000ca
:10311c004e98000085480000445500004d500000ba
:10312c00e224000000850000cc83000004000000b5
:10313c008e83000080890000428400005e850000c0
:10314c00c88500001e850000a4830000feff00005f
:10315c009a8700001e850000a48300000000000078
:10316c00e4830000d2840000a48300000700000068
:10317c009a870000cc8300000e000000909900009c
:10318c00ec840000a483000005000000289b0000d4
:10319c009a990000ec8400004a840000a48300008b
:1031ac0005000000289b0000a48300000200000022
:1031bc00ee850000fa830000d6ff00000a850000af
:1031cc006685000080890000bc8400008e830000ae
:1031dc00042c000090980000855600004944000023
:1031ec004f4e0000682c0000f2980000874300004e
:1031fc0055520000454e0000424c0000742c00005b
:10320c00fc980000834300004c530000902c0000fd
:10321c000899000086530000435200004c550000f2
:10322c0050000000ac2c00001099000086530000e8
:10323c00435200004c4400004e000000b62c00002d
:10324c001c99000084470000455400005800000001
:10325c00c02c000028990000844700004554000051
:10326c0059000000ce2c000032990000845300005d
:10327c004554000058000000dc2c00003c99000074
:10328c00845300004554000059000000fa2c000043
:10329c00469900008643000055520000504f000034
:1032ac0053000000e2240000429900004c990000f9
:1032bc008e83000050990000844c000045460000ad
:1032cc0054000000182d0000629900008552000087
:1032dc0049470000485400003e2d00006c99000046
:1032ec0087540000474c0000434800004152000046
:1032fc00682d000076990000844500004d490000bf
:10330c00540000007e2d00008299000082430000d2
:10331c00520000009e2d00008c9900008553000087
:10332c005041000043450000b02d0000949900006e
:10333c00865300005041000043450000530000003c
:10334c00e2240000ec840000a483000000000000d4
:10335c0014880000cc830000060000000a850000e1
:10336c008e830000a483000000000000e4830000b2
:10337c009a990000fa830000fcff00008e83000085
:10338c009e990000854300004c5200004c4e0000fa
:10339c00b62d0000c899000084540000595000005c
:1033ac0045000000e2240000ec840000cc83000007
:1033bc0006000000148500008e830000a48300002a
:1033cc0000000000e4830000ec8400005a8400003c
:1033dc0000850000da8300000e00000088990000d0
:1033ec00fc850000fa830000f0ff0000be830000a3
:1033fc0004000000e48400000a8500008e830000b5
:10340c00d299000086440000454c00004554000051
:10341c0045000000e2240000448a00008899000066
:10342c008e830000089a000088420000414300008f
:10343c004b4300004841000052000000e224000011
:10344c0068990000109a0000689900008e830000b3
:10345c001a9a0000854400004947000049540000b6
:10346c00e2240000a4830000090000004485000051
:10347c000e880000a4830000070000009a8700005b
:10348c00ee850000a483000030000000ee850000f3
:10349c008e830000309a00008745000058540000cd
:1034ac005241000043540000e2240000a4830000b9
:1034bc00000000001e850000b48600001e85000080
:1034cc00369a00008e830000529a0000823c000065
:1034dc0023000000e2240000bc89000042840000ac
:1034ec005c8a0000ee850000da890000bc840000d4
:1034fc008e8300006c9a0000844800004f4c000042
:10350c0044000000e2240000a4830000ffff000040
:10351c00da89000044860000da8900004284000049
:10352c00c48400008e830000829a00008123000076
:10353c00e224000080890000428400005a9a0000b6
:10354c00889a00008e8300009c9a00008223000061
:10355c0053000000e22400009e9a0000ec8400005e
:10356c00cc830000faff00008e830000ac9a0000b0
:10357c0084530000494700004e000000e224000084
:10358c00f2870000da83000008000000b08300001e
:10359c002d000000889a00008e830000be9a000067
:1035ac00822300003e000000e22400000a85000097
:1035bc00da89000042840000bc89000042840000cb
:1035cc005c8a0000ee85000044850000f485000054
:1035dc008e830000d69a00008353000054520000e2
:1035ec00e2240000ec8400005e850000fe860000f2
:1035fc00709a0000b09a000066850000c49a000022
:10360c00da9a00008e830000f29a0000822e0000ed
:10361c0052000000e22400005e850000f69a0000d3
:10362c006685000044850000f4850000a699000022
:10363c00d89900008e8300000c9b0000835500007d
:10364c002e520000e22400005e850000709a0000fb
:10365c00b09a0000da9a00006685000044850000ec
:10366c00f4850000a6990000d89900008e83000014
:10367c00249b0000825500002e000000e224000074
:10368c00709a0000b09a0000da9a00009a99000033
:10369c00d89900008e830000409b0000812e000012
:1036ac00e22400008089000042840000a483000012
:1036bc000a000000aa870000cc830000e2ff000093
:1036cc009a990000f69a0000d89900008e830000a9
:1036dc00549b0000813f0000e2240000a483000002
:1036ec00feff00009a87000042840000569b0000f9
:1036fc008e830000709b0000824300003f0000009e
:10370c00e22400005a840000569b00008e830000c7
:10371c00de2d0000829b0000844200004155000019
:10372c0044000000182e0000929b000085530000fe
:10373c00454d000049540000382e00009c9b0000b1
:10374c00845300004745000054000000662e000022
:10375c00862e0000a69b0000845400004f4e0000f3
:10376c0045000000a42e0000c02e0000b29b0000fb
:10377c008753000044430000494e000049540000a8
:10378c00fa2f0000be9b000086520000535400002c
:10379c004f5200004500000022300000ca9b000080
:1037ac00855200004c4f0000414400006230000084
:1037bc00d69b0000843f00005749000050000000d9
:1037cc009c300000e09b000084570000574900002b
:1037dc0050000000e2240000e69b0000cc830000b7
:1037ec00fcff00008e830000ea9b00008745000070
:1037fc00455700005249000054450000ca300000f3
:10380c00fc9b00008645000045520000454100002d
:10381c004400000036310000089c00008545000083
:10382c00504100004745000082310000149c00000c
:10383c008745000053450000435400004f520000e0
:10384c008c3100001e9c000084450000414c00009f
:10385c004c000000963100002a9c000086450000b8
:10386c00455200004153000045000000a03100000b
:10387c00349c0000854d0000414700004943000086
:10388c0002320000409c0000874d000041460000c1
:10389c00494500004c4400000c3200004a9c0000da
:1038ac00874c000041460000494500004c44000094
:1038bc0016320000569c0000874400005046000061
:1038cc00494500004c44000020320000629c00007e
:1038dc008753000049460000494500004c44000055
:1038ec002a3200006e9c0000853f0000424f000011
:1038fc004f540000e2240000a483000000000000ec
:10390c00ec840000ec840000109c0000c0a00000bf
:10391c004a840000469c0000008800008e83000052
:10392c007a9c0000853f0000534900005a45000076
:10393c00e2240000769c0000a4830000000000003c
:10394c00908400008e830000989c0000863f00004d
:10395c00425900005445000053000000e2240000ce
:10396c00848800001e850000f4850000a4830000fc
:10397c0000010000d88600008e830000ac9c000083
:10398c00853f0000444f00004e450000e22400003b
:10399c00b49c0000e28700008e830000c69c0000ef
:1039ac00855300004554000044500000e224000000
:1039bc006a9c0000a48300000000000090840000ba
:1039cc0074890000bc8400008e830000d69c00002b
:1039dc0089530000455400004c4100005445000040
:1039ec0053540000e22400005e9c0000a4830000fd
:1039fc0000000000908400009e890000bc84000040
:103a0c008e830000ee9c000086500000474c0000a6
:103a1c004f41000044000000e2240000a483000099
:103a2c00010000001e850000109c0000ec840000ca
:103a3c00b49c0000f6840000ee8500005e8500005a
:103a4c00a483000001000000c0a000003a85000023
:103a5c009e880000668500008e8300000a9d000091
:103a6c00844200004f4f000054000000e22400008c
:103a7c00809c0000da8300002a00000080a0000077
:103a8c00dc9c00008e8a0000a48300000100000072
:103a9c005e850000ec840000cc9c0000cc83000010
:103aac001000000066850000ec840000fc8500001e
:103abc005e850000129d0000be830000ecff00003c
:103acc006685000014850000f89c00008e830000c1
:103adc00369d000089480000454100004457000015
:103aec005249000054450000e2240000a483000069
:103afc00000000005e850000469c0000529c000007
:103b0c006e850000668400009e89000042840000df
:103b1c005e9c00006e8500006684000084880000b6
:103b2c006a9c00006e85000066840000848800009a
:103b3c008e8a0000f4850000769c00006e850000e3
:103b4c006684000066850000ec840000049c000084
:103b5c008e830000709d0000873e000042550000df
:103b6c004646000045520000e2240000c0a00000c0
:103b7c0044850000ec840000b49c0000ec84000040
:103b8c0030850000ee8500005e850000a4830000f7
:103b9c0000000000e48300001e850000ec8400009f
:103bac00fc8500003a8500005a8400004485000022
:103bbc00c4840000fc850000fa830000eeff0000c6
:103bcc0014850000668500008e830000b29d000005
:103bdc00865000004753000041560000450000008d
:103bec00e2240000a483000001000000ba9d000044
:103bfc001e850000a4830000010000001e8500004b
:103c0c00049c00008e830000ee9d0000853e0000a9
:103c1c00424f00004f540000e2240000ce90000000
:103c2c00da830000040000008e830000a4830000ef
:103c3c00010000007a9d00008e8a0000ec840000d8
:103c4c00cc9c0000cc8300000e00000044850000da
:103c5c00fc8500003a850000f69d0000be83000044
:103c6c00eeff0000148500008e830000343200004b
:103c7c00643200007e3200000c9e0000864700007b
:103c8c00455400004b4500005900000098320000dc
:103c9c00449e0000843f00004b450000590000008a
:103cac00e22400004c9e0000409e0000ec840000ca
:103cbc00da83000006000000a4830000ffff000070
:103ccc008e830000509e0000834b0000455900007d
:103cdc00e2240000569e000000850000da830000fc
:103cec00faff00000a8500008e8300006a9e000027
:103cfc00844e0000554600003f000000e224000006
:103d0c00569e0000ec840000da8300000c000000da
:103d1c00148500006e9e0000a48300000d000000be
:103d2c00008800008e8300007e9e00008546000007
:103d3c004144000044520000ba3200009c9e000036
:103d4c00854600004e45000058540000c832000063
:103d5c00d6320000fe320000a69e00008555000001
:103d6c0044520000454c000020330000b49e00007b
:103d7c00883f0000464c0000494d000049540000ab
:103d8c0053000000e2240000f6840000a48300002d
:103d9c0000800000a483000000000000ba9e000018
:103dac00f2870000da83000008000000a483000002
:103dbc00000000008e830000f6840000a483000045
:103dcc00ec570000a483000005000000ba9e000020
:103ddc00f28700008e830000be9e00008952000016
:103dec004f5700003e4600004144000052000000c6
:103dfc00e2240000a4830000000800005a860000a2
:103e0c008e830000f49e00008646000045520000a0
:103e1c004153000045000000e2240000fe9e00001b
:103e2c00c89e0000da8300001e0000001e85000002
:103e3c00a483000000f800009a8700001e85000093
:103e4c00868a0000f8980000a29e0000a48300005f
:103e5c0003000000b09e00007c8a0000f89800006f
:103e6c008e83000022980000148500008e830000d1
:103e7c000a9f0000863e0000464c000041530000a3
:103e8c0048000000e2240000c89e0000cc83000023
:103e9c0008000000148500000a8500008e830000d5
:103eac00a29e0000ae9e0000a48300000100000052
:103ebc00b09e00008e830000409f000085540000df
:103ecc00424c0000404c000046330000649f000050
:103edc0085540000424c000040480000563300005e
:103eec006e9f000082490000400000006633000015
:103efc00789f000089520000414d00003e460000b2
:103f0c004c41000053480000e2240000c89e000011
:103f1c00cc8300000800000014850000148500000c
:103f2c008e830000a29e0000a4830000000000000d
:103f3c00e4830000ec840000ae9e0000a48300002b
:103f4c0001000000b09e0000ac9e0000a4830000a5
:103f5c0003000000ee850000a483000003000000b5
:103f6c0006840000e8ff00000a8500008e83000034
:103f7c00809f0000894600004c410000534800001f
:103f8c003e520000414d0000e2240000308500004c
:103f9c00a483000000000000e4830000f68400000d
:103fac00a4830000020000004c86000090970000e3
:103fbc007c9f00003a85000090970000448500002b
:103fcc00c4840000fc850000668500004485000068
:103fdc00c4840000fc850000668500004485000058
:103fec00c4840000fc850000a6970000a483000098
:103ffc000300000006840000d2ff000014850000be
:10400c000a8500008e830000c09f000088460000d7
:10401c004c41000053480000504700003e00000097
:10402c00e22400008e830000e224000034a0000093
:10403c0036a0000032a00000ee9800003c9e00006c
:10404c008e9b0000ba9b0000ae9b000038a00000c5
:10405c003e9e00008e830000823300009e330000e1
:10406c00ae330000ba330000c23300000ca00000d5
:10407c0085540000494300004b530000f833000006
:10408c003ea0000084550000534500004300000092
:10409c000234000048a00000844d0000534500008d
:1040ac00430000001434000052a00000844c0000b7
:1040bc004653000052000000243400005ca00000b5
:1040cc0084520000414e0000440000003c340000cb
:1040dc0066a0000085530000524100004e440000d1
:1040ec006e34000070a00000854300004c450000b9
:1040fc0041520000e22400008e8a00007489000006
:10410c00bc84000090890000428400009e8900005d
:10411c00bc8400008e8300007aa00000865500004d
:10412c004e5500005345000044000000e2240000fe
:10413c00688a000084880000f48500008e830000eb
:10414c0094a0000084460000524500004500000089
:10415c00e22400009ca00000569b00008e8300000f
:10416c00a8a0000087420000554600004144000012
:10417c0044520000e2240000a48300004a00000026
:10418c008c860000a4830000000100005286000011
:0c419c00688a0000ee8500008e830000a1
:020000040000fa
:1041a8000000000000000000000000000000000007
:1041b80000000000000f00000808000008080000c8
:1041c80008080000080f00000000000000000000c0
:1041d8000000000000f800000808000008080000bf
:1041e8000808000008f800000000000000000000b7
:1041f8000808000008080000080800000808000077
:104208000000000000ff00000000000000000000a7
:104218000808000008ff000008080000080800005f
:104228000000000000000000000000000000000086
:104238000000000000000000000000000000000076
:104248000000000000000000000000000000000066
:104258000000000000ff0000080800000808000037
:104268000808000008ff000000000000000000002f
:104278000000000000000000000000000000000036
:1042880008080000080f00000808000008080000df
:104298000808000008f800000808000008080000e6
:1042a80080c00000e0f00000e0c0000080000000d6
:1042b80001030000070f00000703000001000000d1
:1042c80000000000000000000000000000000000e6
:1042d80000000000000000000000000000000000d6
:1042e80000000000000000000000000000000000c6
:1042f80000000000000000000000000000000000b6
:1043080000000000000000000000000000fe0000a7
:10431800103800007c1000001010000000fe0000a3
:1043280020700000a82000002020000000000000ed
:104338000020000020200000a870000020000000dd
:104348004020000010f8000010200000400000008d
:104358001020000040f8000040200000100000007d
:10436800000000000080000080800000fe000000c7
:104378000000000044fe00004400000000000000af
:1043880000000000103800007cfe00000000000063
:1043980000000000fe7c0000381000000000000053
:1043a8000000000000000000000000000000000005
:1043b8002020000020200000200000002000000035
:1043c80050500000500000000000000000000000f5
:1043d80050500000f8500000f85000005000000055
:1043e80020780000a070000028f0000020000000e5
:1043f800c0c800001020000040980000180000000d
:1044080060900000a0400000a89000006800000034
:1044180060200000400000000000000000000000d4
:104428001020000040400000402000001000000064
:104438004020000010100000102000004000000084
:1044480000200000a8700000a82000000000000064
:104458000020000020f800002020000000000000dc
:104468000000000000000000602000004000000084
:104478000000000000f00000000000000000000044
:104488000000000000000000006000006000000064
:10449800000800001020000040800000000000001c
:1044a8007088000098a80000c8880000700000000c
:1044b800206000002020000020200000f8000000fc
:1044c800708800001020000040800000f800000004
:1044d800f008000008f0000008080000f0000000e4
:1044e8001030000050900000f8100000100000008c
:1044f800f880000080f0000008080000f0000000cc
:104508003040000080f00000888800007000000043
:10451800f8080000102000004040000040000000a3
:104528007088000088700000888800007000000013
:104538007088000088700000080800007000000003
:1045480000600000600000006060000000000000e3
:1045580000600000600000006020000040000000d3
:1045680010200000408000004020000010000000e3
:1045780000000000f8000000f80000000000000043
:10458800402000001008000010200000400000003b
:1045980070880000081000002000000020000000c3
:1045a8007088000008680000a8a8000070000000db
:1045b8007088000088f800008888000088000000e3
:1045c800f088000088f0000088880000f0000000f3
:1045d8007880000080800000808000007800000063
:1045e800f08800008888000088880000f00000003b
:1045f800f880000080f8000080800000f8000000cb
:10460800f880000080f80000808000008000000032
:104618007880000080b000008888000070000000ea
:104628008888000088f8000088880000880000005a
:1046380070200000202000002020000070000000f2
:1046480078080000080800000890000060000000da
:1046580088900000a0c00000a09000008800000022
:10466800808000008080000080800000f80000004a
:1046780088d80000a888000088880000880000000a
:1046880088880000c8a800009888000088000000fa
:10469800708800008888000088880000700000008a
:1046a800f088000088f00000808000008000000092
:1046b8007088000088880000a89800007800000032
:1046c800f088000088f00000a0900000880000003a
:1046d800788000008070000008080000f0000000ea
:1046e800f82000002020000020200000200000000a
:1046f8008888000088880000888800007000000012
:104708008888000088880000885000002000000089
:104718008888000088a80000a8d800008800000049
:1047280088880000502000005088000088000000a1
:104738008888000088500000202000002000000029
:10474800f81000002040000080800000f800000001
:104758006040000040400000404000006000000051
:104768000080000040200000100800000000000049
:1047780018080000080800000808000018000000d9
:104788002050000088000000000000000000000029
:1047980000000000000000000000000000f8000019
:1047a8004020000010000000000000000000000091
:1047b8000000000070080000788800007800000001
:1047c8008080000080b00000c8880000f000000071
:1047d8000000000070800000808800007000000069
:1047e80008080000086800009888000078000000a9
:1047f8000000000070880000f880000070000000d1
:104808003048000040e00000404000004000000048
:104818000000000078880000887800000870000018
:1048280080800000b0c80000888800008800000070
:1048380000200000002000002020000020000000d0
:104848001000000030100000109000006000000010
:104858008080000090a00000c0a000009000000030
:1048680060200000202000002020000070000000d0
:1048780000000000d0a80000a88800008800000000
:1048880000000000b0c80000888800008800000010
:104898000000000070880000888800007000000098
:1048a80000000000f088000088f000008080000010
:1048b800000000006890000090b000005018000050
:1048c80000000000b0c800008080000080000000e8
:1048d800000000007080000070080000f000000078
:1048e80040400000e0400000404800003000000068
:1048f8000000000088880000889800006800000018
:104908000000000088880000885000002000000097
:104918000000000088880000a8a8000050000000df
:1049280000000000885000002050000088000000af
:1049380000000000888800008878000008700000e7
:1049480000000000f810000020400000f8000000ff
:10495800204000004080000040400000200000008f
:10496800202000002020000020200000200000005f
:10497800402000002010000020200000400000001f
:104988000000000040a80000100000000000000027
:10499800fcfc0000fcfc0000fcfc0000fcfc00002f
:020000040000fa
:1049a8000c4600006f720000746800004578000033
:0c49b80020560000302e000031000000ee
:020000040000fa
:1049c4008a1f78000c0578003a0678003c007800cd
:1049d400000401000d2f78003c0078008b06400095
:1049e4003a0678003c007800000401000d2f78009e
:1049f4008c0678003a0678003c0078000004010038
:104a04000d2f78009c0678003a0678003c00780068
:104a1400000401004f0578003a0678003c00780055
:104a2400000401003a0678003c007800000401000c
:104a34008d007800ae0678000d007800ae06780090
:104a4400008801003a0678003c0078000004010068
:104a54000d2f7800ba0678003a0678003c007800fa
:104a6400000401000d2f7800ba0678008d86fb0043
:104a74003a0678003c007800000401001a0545005d
:104a84003a0678003c007800000401000d00e000c4
:104a9400ae067800f9ff3a000a85e8003a06780085
:104aa4003c007800000401000d00e000ae06780030
:104ab400f2ff32000a85e8003a0678003c007800ec
:104ac40000040100881f7800891f78008d04780095
:104ad400ae0678000d047800ae0678003a06780039
:104ae4003c007800000401001e68e100020032006e
:104af4004a00b000f3ff3700ae067800ae06780037
:104b04003a0678003c007800000401008904e800bb
:104b14000848e100040032001a0545003a0678000e
:104b24003c007800000401000a85e800cf04780006
:104b34004f0478003a0678003c0078000004010035
:104b4400090078008d844400ae0678000800e10076
:104b5400040035000800e9000048e100f2ff3400d9
:104b6400020037000848e100efff3d001a05450048
:104b74003a0678003c007800000401000d2f78000c
:104b84008a0678003a0678003c00780000040100a8
:104b94000d057800ae0678003a0678003c007800ef
:104ba400000401000000fe000d067800ae06780047
:104bb4003c007800000401009d067800faff3700ed
:104bc4009d0678003a0678003c0078000004010055
:104bd4003200f80001c0fe009d0678003200f900a2
:104be4003a0678003c007800000401003200f80026
:104bf40001c0fe009d4678008d86fb003200f9005e
:104c04003a0678003c007800000401009d467800d4
:104c14008d86fb003a0678003c0078000004010011
:104c24001d0078002d00b0009d067800002f78004c
:104c34003a0678003c00780000040100ae0e7800cb
:104c4400ae0678003a0678003c00780000040100c3
:104c54002e007800804e7800ae0678003a06780080
:104c64003c00780000040100ae0e78002d00b00076
:104c7400ae0e7800ae0678003a0678003c00780064
:104c8400000401000d2f7800890678003a067800a8
:104c94003c007800000401000d2f7800ffbe97004f
:104ca4003a0678003c00780000040100cf04780044
:104cb4004f0478003a0678003c00780000040100b4
:104cc4000d2f78003a0678003c00780000040100bb
:104cd4001e0078000d2f7800002f78003a06780027
:104ce4003c007800000401000d00e00001003200e7
:104cf4000d2f78003a0678003c007800000401008b
:104d0400ae0678003a0678003c0078000004010002
:104d1400ae067800ae0678003a0678003c007800cb
:104d2400000401001e0078008006fd00000f7800da
:104d34003a0678003c007800000401007eb8970031
:104d44007dbf9f00800678006eb897009e007800b3
:104d540061bf9f00000f78003a0678003c0078009d
:104d6400000401001e0078000d00fd00000f780013
:104d74007eb897008006fd0070bf9f003a06780059
:104d84003c007800000401000d0078009e067800c5
:104d9400feb89700010f780070bf9f003a067800b4
:104da4003c007800000401000d2f7800febe97003f
:104db4003a0678003c007800000401000d2f7800ca
:104dc400eebe97005eb89700002f78003a06780090
:104dd4003c007800000401000e87e9003a067800e0
:104de4003c007800000401008d1f7800ae067800b6
:104df4003a0678003c007800000401000d2f78008a
:104e0400cf0678003a0678003c00780000040100e0
:104e14000d2f7800ffbe97003a0678003c0078001a
:104e2400000401000e0078000d2f78008006780041
:104e34003a0678003c007800000401000d07780071
:104e44003a0678003c007800000401000d2f780039
:104e54008f0678003a0678003c00780000040100d0
:104e64008d077800ae0678003a0678003c0078009a
:104e7400000401001e0078000d0f7800002f780058
:104e84003a0678003c00780000040100009080009d
:104e9400000057000d2f78008006d1003a067800f4
:104ea4003c007800000401000e0078008d06d0005c
:104eb4000d005000900678003a0678003c00780017
:104ec40000040100008880000d1878000088880024
:104ed400ae0678003a0678003c0078000004010031
:104ee4000d2f780000888000c006780000888800b4
:104ef4003a0678003c00780000040100ae864600c3
:104f04003a0678003c007800000401002e00780086
:104f14008d0650003a0678003c0078000004010039
:104f24001d00b0003a0678003c007800000401003f
:104f34002d00b0003a0678003c007800000401001f
:104f44001d00b1003a0678003c007800000401001e
:104f54002d00b1003a0678003c00780000040100fe
:104f64008d8646003a0678003c0078000004010073
:104f74008d86d1003a0678003c00780000040100d8
:104f84000d007800ae0678000000e90000800900fa
:104f94008d06d0003a0678003c0078000004010039
:104fa4000d007800ae0678000000e90000800900da
:104fb4008d06d1003a0678003c0078000004010018
:104fc4001d0078002e004000800e7800ae067800a8
:104fd4003a0678003c007800000401007eb897008f
:104fe4000d004000ae0678000d80b000000f780080
:104ff4003a0678003c007800000401002ee8b9006d
:10500400800678003a0678003c007800000401002d
:105014001ee8b900000f7800810678003a0678008f
:105024003c007800000401001e68b8008106780086
:10503400000f78003a0678003c0078000004010074
:105044002e007800110009000d00d80080067800b9
:105054003a0678003c007800000401002e00780035
:10506400110009000d00d800810678003a06780086
:105074003c007800000401002e007800ae007800a7
:105084000180b900110009004d08d800800678009d
:105094003a0678003c007800000401002e007800f5
:1050a400ae0078000180b900110009000d00d8009d
:1050b400012f7800800678003a0678003c007800da
:1050c400000401001e007800110009004d08d800fa
:1050d40080067800010f78003a0678003c007800da
:1050e40000040100ae0078002e00780011000900d1
:1050f4004d88d80080067800012f78003a067800a1
:105104003c007800000401002e0078000068e100f3
:1051140001003d000d00fd003a0678003c007800d7
:10512400000401002e0078000d00e10001003d00a4
:105134000d00fd003a0678003c00780000040100f0
:105144002e0078000068e100010031008006fd00b7
:105154003a0678003c007800000401002e00780034
:105164000d00e100010031000d00fd003a06780059
:105174003c007800000401000000eb002e017800e0
:10518400ae0078000208e100030039000d08e100d8
:10519400010031000080eb00800678003a067800b8
:1051a4003c007800000401000080eb000d00a70023
:1051b4000000eb00800678003a0678003c00780096
:1051c400000401000080eb000d00a6000000eb00cd
:1051d400800678003a0678003c007800000401005c
:1051e4000df0a7008d06ea003a0678003c0078002e
:1051f400000401000df0a600060037001e00780030
:105204008d86ea000080ea001000b0000d80b00036
:10521400000f78003a0678003c0078000004010092
:105224000d2f78000000eb000df0a7000080ea00cd
:10523400800678003a0678003c00780000040100fb
:105244000d007800ae06780000f0a7008d06ea0095
:105254003a0678003c00780000040100ae8666003f
:105264003a0678003c00780000040100ae8676001f
:105274003a0678003c00780000040100ae866e0017
:105284003a0678003c007800000401008d86ea00ac
:105294003a0678003c007800000401008d86ea009c
:1052a4001e8fea003a0678003c00780000040100f2
:1052b4008d06ea003a0678003c00780000040100fc
:1052c4008d86ea001e8fea00100020001e0f4000a9
:1052d4000d80b0003a0678003c007800000401001c
:1052e4001d00b1008d865e003a0678003c0078000f
:1052f400000401000000eb000d00e000010032009a
:105304000080ea00800678003a0678003c007800c5
:10531400000401008d8646008d865e008d86ea00bd
:105324003a0678003c007800000401008d864600af
:105334008d865e003a0678003c0078000004010087
:105344000000eb002e68e10001003a000080eb0051
:10535400800678003a0678003c00780000040100da
:105364000000eb002e68e100010032000080ea003a
:10537400800678003a0678003c00780000040100ba
:105384000080eb002e68e10001003c000080ea0090
:10539400800678003a0678003c007800000401009a
:1053a4000080eb002e68e100010035000080ea0077
:1053b400800678003a0678003c007800000401007a
:1053c4000000eb002e68e100010036000080ea00d6
:1053d400800678003a0678003c007800000401005a
:1053e4000000eb002e68e100010031000080ea00bb
:1053f400800678003a0678003c007800000401003a
:105404000d2f78002d0020003a0678003c0078002b
:10541400000401002d00b0003a0678003c0078003a
:10542400000401006268b800800678003a0678003b
:105434003c007800000401000d00a7008d06e80080
:105444003a0678003c00780000040100fd07b20031
:10545400e068e10001003d00fd0520003a06780007
:105464003c007800000401003200f80001c0fe0096
:105474000d007800ae0678008d007800ae06780046
:105484000000e000030032000000e9000080090091
:10549400bd187800ae0678003200f9003a067800ac
:1054a4003c007800000401003200f80001c0fe0056
:1054b4000d007800ae0678008d007800ae06780006
:1054c4000000e000030032000000e9000080090051
:1054d400bd587800ae0678003200f9003a0678002c
:1054e4003c007800000401003200f80001c0fe0016
:1054f4000d007800ae0678009e0078000d00e000f4
:10550400050032001104e100030032008100e800cc
:105514008d06e900fbff3a00010f78003200f90024
:105524003a0678003c007800000401003200f800dc
:1055340001c0fe000d007800ae0078002e01780056
:10554400ae0678000100e000030032008100e900ab
:1055540001800900005978003200f9003a06780009
:105564003c007800000401001e0078000d0040009b
:10557400110220000000e900100ce10002303e009e
:105584000000e8009e0650003a0678003c007800cf
:10559400000401000d2f78004d4d2a003a067800d2
:1055a4003c007800000401000d2f78000d002d0050
:1055b4003a0678003c007800000401000d2f7800c2
:1055c4000d0420003a0678003c0078000004010035
:1055d4000d2f78000d0220003a0678003c00780078
:1055e400000401000d2f78000d0820003a06780011
:1055f4003c007800000401000d2f7800fd0120001c
:105604003a0678003c007800000401000d2f780071
:105614000d0220003a0678003c00780000040100e6
:105624000d2f78000d0520003a0678003c00780024
:10563400000401000d2f78000d0520003a067800c3
:105644003c007800000401000d2f78000d002800b4
:105654003a0678003c007800000401000d2f780021
:105664002d4e2a003a0678003c0078000004010020
:105674000d2f7800fdff2f003a0678003c007800db
