:020000040000fa
:080000000002040000000000f2
:020000040000fa
:040008006003000091
:020000040000fa
:04000c00600300008d
:020000040000fa
:040010006003000089
:020000040000fa
:040014006003000085
:020000040000fa
:040018005e03000083
:020000040000fa
:04001c00600300007d
:020000040000fa
:040020006003000079
:020000040000fa
:040024006003000075
:020000040000fa
:040028006003000071
:020000040000fa
:04002c00600300006d
:020000040000fa
:040030006003000069
:020000040000fa
:040034006203000063
:020000040000fa
:040038006003000061
:020000040000fa
:04003c00600300005d
:020000040000fa
:040040008a02000030
:020000040000fa
:040044001c0200009a
:020000040000fa
:040048006003000051
:020000040000fa
:04004c00600300004d
:020000040000fa
:040050006003000049
:020000040000fa
:04005400f0020000b6
:020000040000fa
:04005800140300008d
:020000040000fa
:04005c00600300003d
:020000040000fa
:040060006003000039
:020000040000fa
:040064006003000035
:020000040000fa
:040068006003000031
:020000040000fa
:04006c00600300002d
:020000040000fa
:040070006003000029
:020000040000fa
:04007400380300004d
:020000040000fa
:0400780084030000fd
:020000040000fa
:04007c00600300001d
:020000040000fa
:040080006003000019
:020000040000fa
:040084006003000015
:020000040000fa
:040088006003000011
:020000040000fa
:04008c00600300000d
:020000040000fa
:040090006003000009
:020000040000fa
:040094006003000005
:020000040000fa
:040098006003000001
:020000040000fa
:04009c0060030000fd
:020000040000fa
:0400a0004203000017
:020000040000fa
:0400a40060030000f5
:020000040000fa
:0400a80060030000f1
:020000040000fa
:0400ac0060030000ed
:020000040000fa
:0400b00060030000e9
:020000040000fa
:0400b40060030000e5
:020000040000fa
:0400b80060030000e1
:020000040000fa
:0400bc0060030000dd
:020000040000fa
:0400c00060030000d9
:020000040000fa
:0400c40060030000d5
:020000040000fa
:0400c80060030000d1
:020000040000fa
:0400cc0060030000cd
:020000040000fa
:0400d00060030000c9
:020000040000fa
:0400d40060030000c5
:020000040000fa
:0400d80060030000c1
:020000040000fa
:0400dc0060030000bd
:020000040000fa
:0400e00060030000b9
:020000040000fa
:0400e40060030000b5
:020000040000fa
:0400e80060030000b1
:020000040000fa
:0400ec0060030000ad
:020000040000fa
:0400f00060030000a9
:020000040000fa
:0400f40060030000a5
:020000040000fa
:0400f80060030000a1
:020000040000fa
:0400fc00600300009d
:020000040000fa
:040100006003000098
:020000040000fa
:040104006003000094
:020000040000fa
:040108006003000090
:020000040000fa
:04010c00600300008c
:020000040000fa
:040110006003000088
:020000040000fa
:040114006003000084
:020000040000fa
:040118006003000080
:020000040000fa
:04011c00600300007c
:020000040000fa
:040120006003000078
:020000040000fa
:040124006003000074
:020000040000fa
:040128006003000070
:020000040000fa
:04012c00600300006c
:020000040000fa
:040130006003000068
:020000040000fa
:040134006003000064
:020000040000fa
:040138006003000060
:020000040000fa
:04013c00600300005c
:020000040000fa
:040140006003000058
:020000040000fa
:040144006003000054
:020000040000fa
:040148006003000050
:020000040000fa
:04014c00600300004c
:020000040000fa
:040150006003000048
:020000040000fa
:040154006003000044
:020000040000fa
:040158006003000040
:020000040000fa
:04015c00600300003c
:020000040000fa
:040160006003000038
:020000040000fa
:040164006003000034
:020000040000fa
:040168006003000030
:020000040000fa
:04016c00600300002c
:020000040000fa
:040170006003000028
:020000040000fa
:040174006003000024
:020000040000fa
:040178006003000020
:020000040000fa
:04017c00600300001c
:020000040000fa
:040180006003000018
:020000040000fa
:040184006003000014
:020000040000fa
:040188006003000010
:020000040000fa
:04018c00600300000c
:020000040000fa
:040190006003000008
:020000040000fa
:040194006003000004
:020000040000fa
:040198006003000000
:020000040000fa
:04019c0060030000fc
:020000040000fa
:0401a00060030000f8
:020000040000fa
:0401a40060030000f4
:020000040000fa
:0401a80060030000f0
:020000040000fa
:0401ac0060030000ec
:020000040000fa
:0401b00060030000e8
:020000040000fa
:0401b40060030000e4
:020000040000fa
:0401b80060030000e0
:020000040000fa
:0401bc0060030000dc
:020000040000fa
:0401c00060030000d8
:020000040000fa
:0401c40060030000d4
:020000040000fa
:0401c80060030000d0
:020000040000fa
:0401cc0060030000cc
:020000040000fa
:0401d00060030000c8
:020000040000fa
:0401d40060030000c4
:020000040000fa
:0401d80060030000c0
:020000040000fa
:0401dc0060030000bc
:020000040000fa
:0401e00060030000b8
:020000040000fa
:0401e40060030000b4
:020000040000fa
:0401e80060030000b0
:020000040000fa
:0401ec0060030000ac
:020000040000fa
:0401f00060030000a8
:020000040000fa
:0401f40060030000a4
:020000040000fa
:0401f80060030000a0
:020000040000fa
:0401fc00600300009c
:020000040000fa
:040200006003000097
:020000040000fa
:040204006003000093
:020000040000fa
:04020800600300008f
:020000040000fa
:04020c00600300008b
:020000040000fa
:040210006003000087
:020000040000fa
:040214006003000083
:020000040000fa
:04021800600300007f
:020000040000fa
:04021c00600300007b
:020000040000fa
:040220006003000077
:020000040000fa
:040224006003000073
:020000040000fa
:04022800600300006f
:020000040000fa
:04022c00600300006b
:020000040000fa
:040230006003000067
:020000040000fa
:040234006003000063
:020000040000fa
:04023800600300005f
:020000040000fa
:04023c00600300005b
:020000040000fa
:040240006003000057
:020000040000fa
:040244006003000053
:020000040000fa
:04024800600300004f
:020000040000fa
:04024c00600300004b
:020000040000fa
:040250006003000047
:020000040000fa
:040254006003000043
:020000040000fa
:04025800600300003f
:020000040000fa
:04025c00600300003b
:020000040000fa
:040260006003000037
:020000040000fa
:040264006003000033
:020000040000fa
:04026800600300002f
:020000040000fa
:04026c00600300002b
:020000040000fa
:040270006003000027
:020000040000fa
:040274006003000023
:020000040000fa
:04027800600300001f
:020000040000fa
:04027c00600300001b
:020000040000fa
:040280006003000017
:020000040000fa
:100400000e2eef00700020004a28b7000f002100d8
:100410000e0821000e0078008001b1000001880064
:1004200001c4fe0000c2fe002a092b003a06780033
:080430003c007800000401000b
:020000040000fa
:1004380000e8a90061e2a900801f78001c32ec00e6
:1004480019003200600020001c12e3001c0032007a
:10045800c00020001c12e3001c0032002001200014
:100468001c12e3001c003200200320001c12e300d1
:100478001f003200200f20001c12e3002100320070
:10048800f01020001e52e200010032000000e800d7
:100498001c12e30002003a001ef2ee001cb2ef004c
:1004a8004f00780000400600400a200030488800cd
:1004b800e08a20002048880060088800f8ff37009c
:1004c800a080200030488800f5ff3700400a20004f
:1004d80030488800f2ff3700801420003048880038
:1004e800c01521002048880060088800ecff37000c
:1004f8001f52e200eaff320000c8a90020c8a80085
:10050800e7ff370020c8a900e5ff370000c8a900a9
:10051800809fbe00829fbe00849fbe00861f780019
:100528003200f800e19080002103b100e78260000a
:10053800c308de00020420000110b80004a02c004b
:100548000402400063d729009048800063006000df
:10055800000601000000000000000000000000008c
:1005680061e2a8000200e0001200320001c0fe00b3
:10057800344078000003eb000070a7000083eb0014
:10058800f007b2004300dd00808041008580400014
:1005980000c2fe00114078000670a7000080ea0043
:1005a8006022ab00feff3a0068e2b7000201e900f2
:1005b800ecff37006022ab00feff3a006822ef0034
:1005c8003200f9004f0378004f02be004f01be0011
:1005d8004f00be00004006000168a900801f780097
:1005e800811f7800c9d1bf000080fb00211a2100bb
:1005f800810040002202ae00060037003011800062
:1006080080487800c631ec00c971ec00f000200089
:10061800c971b600cf0078004f007800004006008e
:100628000188a900801f7800811f7800c211e200ac
:100638000a003200c4d1bf000080fb00211b21004a
:10064800810040001140780024e2b700c231ed007b
:10065800c471ec00f0002000c471b600cf0078002f
:100668004f007800004006000a32ef0013aeae00db
:100678000a12a8000268a9000040060003c8a900e1
:10068800809fbe00829fbe00b0118000a11c210087
:10069800628f800081004100804878001200b0001d
:1006a800f201b200628f88004f01be004f00be0009
:1006b800004006000000fe000000fe000068a900df
:1006c800809fbe00829fbe001632ec002612e20018
:1006d800030032002632ed0001003a0013e1a900c0
:1006e8002452e20003003a002512af00f82f02005e
:1006f800000000004f01be004f00be000040060091
:040708000000fe00ef
:020000040000fa
:10070c00000000008445000058490000540000001f
:10071c00ae21000088830000a52800004c49000091
:10072c0054290000b621000092830000a628000086
:10073c00434c00004954000029000000c021000077
:10074c009c830000a828000042520000414e00008b
:10075c004348000029000000cc210000a8830000c1
:10076c00a928000054420000524100004e430000f2
:10077c0048290000d4210000b6830000a9280000fd
:10078c003f420000524100004e4300004829000047
:10079c00e2210000c4830000a4280000444f0000a4
:1007ac0029000000f0210000d2830000a6280000e0
:1007bc004c4f00004f5000002900000002220000a6
:1007cc00dc830000a72800002b4c00004f4f0000da
:1007dc00502900001c220000e8830000834900001f
:1007ec00504000003a220000f483000083490000ce
:1007fc005021000044220000fc83000086520000bf
:10080c00454200004f4f0000540000004e220000f3
:10081c000484000087450000584500004355000043
:10082c005445000050220000108400008840000055
:10083c004558000045430000555400004500000099
:10084c00582200001c840000814000005e22000041
:10085c002a8400008245000040000000662200004f
:10086c0030840000834300004540000074220000e7
:10087c003884000082430000400000008422000005
:10088c0040840000874200005546000046450000a9
:10089c005221000084210000629d0000d8850000d8
:1008ac00a68400008e83000048840000884200006b
:1008bc005546000046450000524300002100000050
:1008cc0084210000629d0000d8850000ae840000e9
:1008dc008e8300005c8400008742000055460000b7
:1008ec00464500005240000084210000629d00003b
:1008fc00d8850000348400008e83000072840000d0
:10090c008842000055460000464500005243000056
:10091c004000000084210000629d0000d88500008a
:10092c003c8400008e83000086840000823200002c
:10093c00400000008e2200009c84000081210000f9
:10094c009c220000a48400008243000021000000cf
:10095c00a6220000aa8400008232000021000000c0
:10096c00b2220000b284000081490000c0220000c5
:10097c00ba840000814a0000ca220000c084000032
:10098c00865500004e4c00004f4f000050000000f8
:10099c00d4220000c684000083440000555000009f
:1009ac00de220000d2840000843200004455000096
:1009bc0050000000e6220000da840000843f0000b2
:1009cc004455000050000000f2220000e4840000b6
:1009dc0084440000524f000050000000fe22000032
:1009ec00ee84000085320000445200004f5000009d
:1009fc0006230000f88400008453000057410000d7
:100a0c005000000010230000028500008532000019
:100a1c0053570000415000001c2300000c850000bf
:100a2c00835200004f540000302300001685000054
:100a3c00842d0000524f000054000000422300009f
:100a4c001e850000844f0000564500005200000037
:100a5c005223000028850000853200004f5600000c
:100a6c00455200005c23000032850000834e0000dc
:100a7c00495000006a2300003c850000823e0000c3
:100a8c0052000000722300004485000082520000d6
:100a9c003e0000007c2300004c85000082520000c8
:100aac0040000000862300005485000083530000a2
:100abc0050400000902300005c8500008353000030
:100acc00502100009c23000064850000835200002c
:100adc0050400000a42300006c85000083520000ed
:100aec0050210000ae2300007485000084540000e7
:100afc00554300004b000000b82300007c8500002b
:100b0c00854400004550000054480000c4230000f8
:100b1c008685000084500000494300004b00000013
:100b2c00d223000090850000853e00004353000056
:100b3c00544b0000e02300009a8500008543000020
:100b4c00535400004b3e0000ee230000a48500002f
:100b5c008348000045580000842100009883000061
:100b6c0010000000d6880000a68400008e830000d0
:100b7c00ae8500008744000045430000494d00004d
:100b8c00414c000084210000988300000a00000002
:100b9c00d6880000a68400008e830000c08500006b
:100bac00812b0000fc230000d6850000812d000065
:100bbc0004240000dc850000823100002b000000c2
:100bcc000e240000e2850000823200002b000000a1
:100bdc0016240000ea850000823100002d00000080
:100bec001e240000f2850000823200002d0000005f
:100bfc0026240000fa850000823200002a00000042
:100c0c002e24000002860000823200002f0000001b
:100c1c00362400000a860000864c00005348000071
:100c2c0049460000540000003e24000012860000db
:100c3c008652000053480000494600005400000052
:100c4c004e2400001e860000822b000021000000b4
:100c5c005e2400002a860000824d00002b0000005c
:100c6c006c24000032860000812a00007c240000e5
:100c7c003a860000824d00002a0000008624000005
:100c8c0040860000835500004d2a0000922400008d
:100c9c004886000083550000442a0000842100008f
:100cac00d6840000488500004c860000f4840000c7
:100cbc0008850000508500004c8600001a85000055
:100ccc00d88500008e83000050860000812f000024
:100cdc009e2400006c860000834d00004f440000f1
:100cec00ac24000072860000822a00002f00000055
:100cfc00ba2400007a860000852a00002f4d0000df
:100d0c004f440000cc24000082860000842f000099
:100d1c004d4f000044000000e02400008c860000d1
:100d2c00865500004d2f00004d4f00004400000080
:100d3c00f024000096860000834d0000415800000e
:100d4c0002250000a2860000834d0000494e0000e1
:100d5c0010250000aa860000845500004d410000bb
:100d6c00580000001e250000b286000084550000cb
:100d7c004d4900004e0000002c250000bc860000f0
:100d8c008657000049540000484900004e000000fe
:100d9c003a250000c6860000844500005645000038
:100dac004e00000052250000d2860000834f000048
:100dbc004444000060250000dc86000083410000f4
:100dcc00425300006e250000e486000083530000af
:100ddc003e44000078250000ec86000083410000b2
:100dec004e44000088250000f4860000824f00006d
:100dfc005200000090250000fc8600008358000083
:100e0c004f5200009825000004870000864900001e
:100e1c004e5600004552000054000000a025000072
:100e2c000c87000087440000494e00005645000026
:100e3c0052540000a825000018870000864e0000c0
:100e4c00454700004154000045000000b225000059
:100e5c0024870000874400004e45000047410000f5
:100e6c0054450000ba250000308700008230000095
:100e7c003d000000ca2500003c87000082300000c5
:100e8c003c000000d42500004487000082300000a4
:100e9c003e000000e02500004c870000813d000072
:100eac00ea25000054870000823c00003e00000050
:100ebc00fa2500005a870000813c00000a26000039
:100ecc0062870000813e00001a260000688700003f
:100edc00825500003c0000002a2600006e870000ae
:100eec00825500003e0000003a2600007687000084
:100efc0084430000454c00004c0000004a260000d2
:100f0c007e87000085430000454c00004c2b000000
:100f1c00542600008887000085430000454c0000e3
:100f2c004c5300005c2600009287000085410000b5
:100f3c004c490000474e000084210000da87000075
:100f4c00e0860000ce8300001000000098830000b3
:100f5c0000000000da870000ae84000098830000d7
:100f6c0001000000c29000008e8300009c870000ee
:100f7c00874100004c490000474e000045440000ea
:100f8c0066260000be870000853e00004348000036
:100f9c004152000070260000ca87000084480000ff
:100fac00455200004500000084210000ca88000062
:100fbc002c8400008e830000d4870000844d000038
:100fcc004f560000450000007e260000e48700001c
:100fdc00854300004d4f0000564500009e26000042
:100fec00ee8700008543000048410000525300008a
:100ffc00842100008e830000f887000085430000e8
:10100c0048410000522b000084210000e6850000be
:10101c008e830000048800008443000048410000d7
:10102c0052000000842100009a890000ce8c000040
:10103c00d68400004484000040870000da8e000053
:10104c00106d000069730000736900006e6700008a
:10105c002063000061720000616300007465000091
:10106c0072000000e6850000448400008e830000be
:10107c0012880000c65b000043480000415200008b
:10108c005d000000842100007094000018880000ae
:10109c00be91000098830000c68d00008e83000076
:1010ac004088000084530000434100004e000000c3
:1010bc00be2600005888000084460000494c000001
:1010cc004c000000e026000062880000892d000022
:1010dc0054520000414900004c4900004e470000aa
:1010ec00fe2600006c880000855000004143000083
:1010fc004b24000084210000c6870000d684000029
:10110c00488500002e850000d684000098830000de
:10111c000000000098830000020000009e86000082
:10112c00f4840000de8500002e850000d8850000c8
:10113c00988300000000000008850000a6840000d1
:10114c00e0840000ae8400009883000001000000e1
:10115c00d885000008850000f48700005085000049
:10116c008e8300007a8800008553000054410000f3
:10117c00544500008e2100000c000000ba880000cd
:10118c0082440000500000008e2100000a00000084
:10119c00c688000084420000415300004500000056
:1011ac008e2100000e000000d08800008953000042
:1011bc00595300004c4100005445000053540000aa
:1011cc008e21000018000000dc880000864c000016
:1011dc004154000045530000540000008e210000d3
:1011ec001a000000ec880000825200003000000061
:1011fc008e21000014000000fa88000082530000c9
:10120c00300000008e210000120000000489000054
:10121c0083500000414400008e21000002000000b9
:10122c000e89000083540000494200008e2100000a
:10123c000000000018890000833e0000494e0000a9
:10124c008e2100001000000022890000824800005e
:10125c00500000008e210000160000002c890000b8
:10126c0086270000534f00005552000043450000f4
:10127c008e21000004000000368900008723000046
:10128c00534f000055520000434500008e210000d2
:10129c0006000000448900008756000045520000fb
:1012ac00534900004f4e00001427000052890000e3
:1012bc0086520000414d0000454e000044000000e5
:1012cc001e2700005e890000854900004d4d00007e
:1012dc0045440000282700006a8900008648000069
:1012ec0049440000444500004e0000003227000035
:1012fc0074890000854e00004d410000524b0000e7
:10130c003c27000080890000874c0000454e0000ff
:10131c004d410000534b0000462700008a89000015
:10132c00824200004c00000050270000968900000b
:10133c008754000049420000534900005a45000000
:10134c005a2700009e89000087500000414400008d
:10135c00534900005a45000064270000aa89000088
:10136c00865500004c4900004d4900005400000017
:10137c006e270000b6890000854400004f43000032
:10138c004f4c000078270000c289000081540000f7
:10139c0082270000cc890000814600008c270000c9
:1013ac00d2890000834400005030000096270000d2
:1013bc00d889000086270000534f000055520000ca
:1013cc0043450000a0270000e0890000875300007f
:1013dc004f5500005243000045210000ae2700008d
:1013ec00ec890000863f000044490000474900009a
:1013fc005400000084210000d68400009883000073
:10140c00600000007a870000ce8300000800000016
:10141c009883000020000000de850000d6840000c8
:10142c0098830000390000007a870000ce8300000a
:10143c001a000000d68400009883000041000000d0
:10144c0072870000ce830000080000009883000023
:10145c00000000008e83000098830000070000004d
:10146c00de8500009883000030000000de8500005f
:10147c00d6840000d68800002c84000072870000ff
:10148c008e830000f8890000873f0000444f000065
:10149c00554200004c450000842100002e850000c0
:1014ac0044840000988300002e0000005687000042
:1014bc00ce830000100000009883000001000000a3
:1014cc00888c000098830000ffff0000b2830000ae
:1014dc00180000002e850000448400009883000052
:1014ec002c00000056870000ce8300000600000090
:1014fc00b2830000e2ff00009883000000000000af
:10150c008e8300004a8a0000873e00004e55000082
:10151c004d420000455200008421000098830000d9
:10152c000000000048850000d6840000ce83000037
:10153c00500000002e85000044840000008a00004a
:10154c00c08300002200000050850000ce83000004
:10155c0042000000f4840000528a0000ce83000098
:10156c003c0000005085000050850000988300006e
:10157c00020000000087000048850000488500003c
:10158c00b2830000ccff000050850000f484000002
:10159c0098830000ffff000048850000488500008c
:1015ac0012850000d68800002c84000054860000b0
:1015bc0050850000368600001285000098830000dc
:1015cc0001000000888c0000b2830000aeff000018
:1015dc0050850000f48400008e8300008a8a00008d
:1015ec00853f000053490000474e00008421000055
:1015fc002e85000044840000a48300002d00000010
:10160c0056870000c08300000a0000009883000089
:10161c0000000000b28300000c0000009883000062
:10162c0001000000888c000098830000010000007d
:10163c008e830000f68a0000853f000042410000c6
:10164c0053450000842100002e85000044840000d6
:10165c00a48300002400000056870000ce83000005
:10166c000e0000009883000010000000d6880000d7
:10167c00a6840000b2830000320000002e8500001a
:10168c0044840000a483000023000000568700005f
:10169c00ce8300000e000000988300000a000000ba
:1016ac00d6880000a6840000b28300001800000059
:1016bc002e85000044840000a48300002500000057
:1016cc0056870000ce8300001200000098830000b3
:1016dc0002000000d6880000a684000008850000e7
:1016ec00e685000008850000f68500008e8300006a
:1016fc00228b0000873f00004e5500004d42000039
:10170c004552000084210000d68800002c84000083
:10171c0048850000d684000098830000000000007b
:10172c00d68400001a850000708d0000288b000004
:10173c00fc8a000048850000928a0000ce830000dd
:10174c001000000050850000fe840000fe840000a4
:10175c009883000000000000b28300002400000009
:10176c00f48400001a850000f48400005885000001
:10177c00e0860000ce8300000400000038870000e3
:10178c00508500009883000002000000f8860000dd
:10179c00c083000004000000f48400009883000063
:1017ac00ffff000050850000d6880000a6840000d2
:1017bc008e830000808b0000855700004f52000084
:1017cc0044530000842100009883000000000000b6
:1017dc00c2970000f48800002c840000d68400001e
:1017ec0040870000c083000046000000d684000043
:1017fc00448400007c890000f8860000ce83000041
:10180c0008000000fe850000b2830000e6ff000027
:10181c00d6840000d6840000448400009289000025
:10182c00f8860000d684000060970000d885000080
:10183c00988300004000000072870000c083000005
:10184c0004000000c297000048850000e6850000f7
:10185c00508500000a980000cc970000fe8500001f
:10186c0008850000e685000008850000b2830000b2
:10187c00b4ff0000f4840000c297000088990000b7
:10188c008e830000e28b0000855500005050000054
:10189c0045520000bc2700004a8c00008453000015
:1018ac004b49000050000000de270000548c000063
:1018bc0087410000445200003e4900004e000000e9
:1018cc0084210000e88900001a8500001a850000b8
:1018dc00de850000ae86000098830000000000004a
:1018ec00a686000026890000a68400008e830000d6
:1018fc005e8c0000872f00005354000052490000fa
:10190c004e470000842100001a8500002e8500003f
:10191c00d88500001a8500001a850000de850000bd
:10192c008e830000808c0000855000004152000026
:10193c005345000084210000e8890000268900003e
:10194c002c840000888c00002e8500004885000047
:10195c001a8500005e8800002e85000008850000b6
:10196c00ce83000004000000e6850000668c0000b9
:10197c005085000082850000de8500008e8300000b
:10198c009a8c0000845700004f5200004400000065
:10199c0084210000d6840000e8890000268900001c
:1019ac002c840000888c00001a8500005a8c0000e2
:1019bc00f4840000668c0000a08c0000da87000024
:1019cc00b48d0000da8700008e830000c88c000004
:1019dc0084460000494e000044000000fa27000035
:1019ec00ee8c00008641000043430000455000008f
:1019fc0054000000842100002e850000d8850000d2
:101a0c0048850000d6840000a09c0000d68400000d
:101a1c00988300000d00000056870000ce83000064
:101a2c0016000000f48400009a8900002e85000046
:101a3c00ae84000008850000de850000e68500000d
:101a4c0050850000f48400008e830000d6840000d2
:101a5c00988300000800000056870000ce83000029
:101a6c0014000000f4840000e0840000568700009d
:101a7c00c0830000caff000056980000f6850000e5
:101a8c00b2830000c2ff00002e85000058850000c4
:101a9c0056870000c083000010000000d6840000b0
:101aac00ba9700002e850000ae840000e685000089
:101abc00b2830000aaff0000f4840000b28300008f
:101acc00a4ff0000f88c0000854300004f55000077
:101adc004e54000084210000d68400004484000091
:101aec0048850000e6850000508500008e830000cc
:101afc006a8d000085450000525200004f520000d4
:101b0c0084210000cc970000708d00000a98000022
:101b1c00cc970000a48300003f000000ba9700009f
:101b2c009883000000000000c0880000a68400001c
:101b3c00088900002c84000068850000c297000012
:101b4c000c8f0000808d0000883e0000434f000089
:101b5c00554e000054450000440000008421000054
:101b6c00e0840000ae840000e685000008850000db
:101b7c00f48700008e830000aa8d0000812c0000e9
:101b8c0084210000da870000a684000098830000fe
:101b9c0002000000c29000008e830000c48d000083
:101bac00824300002c00000084210000da87000032
:101bbc00ae8400009883000001000000c290000079
:101bcc008e830000d68d0000894900004e54000021
:101bdc004552000050520000455400008421000082
:101bec00f4890000988300000000000026890000a2
:101bfc00a68400009a890000ce8c0000d6840000d8
:101c0c0044840000ce83000040000000508c000093
:101c1c00f48c0000ea840000ce8300001c0000005d
:101c2c00e6850000c08800002c840000408700007e
:101c3c0000870000ce83000008000000188400001c
:101c4c00b2830000d8ff0000c68d0000b2830000f4
:101c5c00d2ff0000888b0000ce830000080000003b
:101c6c0016920000b2830000c6ff0000708d0000c9
:101c7c000a980000988300003f000000ba9700000b
:101c8c00c2970000ac8e0000f48400008e8300002c
:101c9c00ea8d000088450000564100004c550000bc
:101cac00415400004500000084210000e889000038
:101cbc004885000048850000268900002c8400001f
:101ccc0048850000f48d0000508500002689000036
:101cdc00a68400005085000050850000f4890000a7
:101cec008e830000508e0000824f00004b000000dd
:101cfc00842100006097000098830000030000001e
:101d0c00d885000098830000400000006487000024
:101d1c00c083000004000000c2970000cc970000b4
:101d2c00988300004f000000ba97000098830000d1
:101d3c004b000000ba9700008e8300007a8e0000e2
:101d4c0085410000424f00005254000084210000e5
:101d5c00c08800002c840000ce830000140000001a
:101d6c00f48800002c840000648f0000d6840000ee
:101d7c002c840000f4880000a6840000ca880000af
:101d8c00a6840000088900002c84000068850000ef
:101d9c000c8f0000a68e0000a63f00004142000000
:101dac004f520000540000008421000030920000cb
:101dbc0008850000ce8300000a000000708d000032
:101dcc000a980000c2970000ac8e0000f48400005a
:101ddc008e830000d28e0000c6410000424f0000ee
:101dec00525400002200000084210000be9100002b
:101dfc00da8e0000849200008e830000f28e0000c8
:101e0c00845100005549000054000000842100005a
:101e1c00fe8800002c840000788500009883000068
:101e2c0000000000c0880000a68400001c8900008f
:101e3c002c840000d6840000988300003f00000032
:101e4c00008d0000cc970000f48d0000c0880000cd
:101e5c002c840000c0830000040000007e8e000073
:101e6c00c2970000b2830000e2ff0000068f000062
:101e7c00c128000084210000988300002900000084
:101e8c00a08c0000fe8400008e8300003e8f0000ba
:101e9c00c15c000084210000e8890000d8850000a6
:101eac00668c00008e8300004e8f0000874e000071
:101ebc00464100003e4c00004641000084210000d9
:101ecc009883000002000000de8500008e83000075
:101edc005c8f0000874e0000464100003e4300002e
:101eec004641000084210000d68400004484000098
:101efc00988300001f000000f8860000d8850000c1
:101f0c00e6850000c68700008e830000708f0000fd
:101f1c00853e0000424f000044590000842100001f
:101f2c008e8700008e8300008e8f00008743000098
:101f3c00464100003e4e0000464100008421000056
:101f4c00d684000098830000001300007287000004
:101f5c00ce8300000a000000d68400000887000031
:101f6c00b28300005a000000d684000048850000af
:101f7c00988300002100000048850000f6850000d1
:101f8c00d684000044840000d684000098830000ae
:101f9c0080000000f8860000c083000014000000e0
:101fac00f484000050850000f6850000d684000003
:101fbc00ce8300002a00000048850000b283000098
:101fcc00deff000050850000f484000098830000c0
:101fdc001f000000f88600002e850000d885000048
:101fec00e6850000c687000050850000568700007b
:101ffc00d6840000ce8300000c000000f4840000a6
:10200c00b28300000a00000050850000f484000038
:10201c0008850000f48400008e8300009c8f000073
:10202c00854500004d5000005459000084210000eb
:10203c00dc8900002c840000da8700005687000041
:10204c008e83000016900000894900004d4d000061
:10205c004544000049410000544500008421000023
:10206c001c900000c083000012000000f4880000e7
:10207c002c840000d6840000448400007089000089
:10208c000087000008850000ae8400008e830000ed
:10209c002a900000844800004944000045000000dc
:1020ac00842100001c900000c0830000120000007e
:1020bc00f48800002c840000d684000044840000c6
:1020cc007c8900000087000008850000ae840000b9
:1020dc008e83000050900000a72800004e4d000099
:1020ec00415200004b290000842100001c9000008c
:1020fc00c083000012000000f48800002c84000053
:10210c00d68400004484000086890000008700000b
:10211c0008850000ae8400008e83000072900000e1
:10212c008652000045560000454100004c0000005e
:10213c00842100001c900000c083000014000000eb
:10214c00f48800002c840000d68400004484000035
:10215c007c89000014870000f886000008850000c8
:10216c00ae8400008e830000969000008541000034
:10217c004c4c00004f54000084210000ca88000021
:10218c002e8600008e830000bc900000812700008a
:10219c00842100009a890000ce8c0000d6840000b7
:1021ac00448400004087000096940000508c00008e
:1021bc00f48c0000ce83000006000000b283000007
:1021cc0012000000708d00000a980000cc970000ef
:1021dc00988300003f000000ba970000c2970000ef
:1021ec00ac8e00008e830000cc900000c35b00001e
:1021fc00275d00008421000070940000ce90000048
:10220c00be91000098830000c68d00008e830000f4
:10221c00fc900000c95b0000434f00004d500000d3
:10222c00494c0000455d000084210000ce90000068
:10223c00c68d00008e83000010910000c53c00008c
:10224c004d410000524b00008421000070940000ae
:10225c00da8700008e83000024910000c83c000047
:10226c0052450000534f00004c5600004500000042
:10227c008421000070940000da870000de850000e5
:10228c00c68d00008e83000034910000c53e000016
:10229c004d410000524b000084210000709400005e
:1022ac00da8700009883000000000000c68d000053
:1022bc008e8300004c910000c83e00005245000087
:1022cc00534f00004c5600004500000084210000d4
:1022dc0070940000d6840000da87000008850000a6
:1022ec00de85000008850000a68400008e830000b7
:1022fc0062910000c15b0000842100009883000003
:10230c0000000000c0880000a68400008e8300003e
:10231c0080910000c15d00008421000098830000c2
:10232c00ffff0000c0880000a68400008e83000020
:10233c0090910000c95b0000434f00004d5000001d
:10234c00494c0000455d00008421000070940000a1
:10235c00ce900000c68d00008e830000a09100007e
:10236c00c74300004f4d0000504900004c45000091
:10237c008421000050850000d68400002c840000cd
:10238c00c68d00008e870000488500008e830000fb
:10239c00b6910000c85000004f530000545000008c
:1023ac004f4e000045000000842100007094000096
:1023bc009a890000ce8c0000508c0000f48c000038
:1023cc00d684000040870000ce8300000e00000081
:1023dc00f4840000708d00000a98000098830000bf
:1023ec003f000000ac8e0000508700000c00000085
:1023fc009883000098830000c68d0000b283000013
:10240c0004000000c68d00008e830000d0910000f7
:10241c00c74c00004954000045520000414c0000dc
:10242c0084210000c08800002c840000ce830000b2
:10243c0008000000be91000098830000c68d0000cb
:10244c008e8300000e920000a5280000444f00006f
:10245c0024290000842100005085000058850000cc
:10246c0050850000708d0000d8850000c6870000e4
:10247c004885000008850000488500008e83000018
:10248c002a920000a428000053220000290000001a
:10249c008421000030920000708d00008e830000bb
:1024ac0048920000a42800002e2200002900000001
:1024bc008421000030920000708d00000a9800000a
:1024cc008e83000058920000a45300004c49000079
:1024dc0054000000842100009883000022000000ba
:1024ec00ce8c0000708d00008e8300006a9200007c
:1024fc00a42800002c2200002900000084210000e8
:10250c0070920000d8850000c6870000ca880000c1
:10251c00a68400008e8300007e920000c25300004f
:10252c00220000008421000070940000be91000085
:10253c004e920000849200008e8300009492000062
:10254c00c22e00002200000084210000c088000080
:10255c002c840000ce8300000a000000be91000015
:10256c005e920000849200008e8300007092000046
:10257c000a9800008e830000a6920000c75200004b
:10258c0045430000555200005345000084210000d3
:10259c00f48800002c840000788f0000c68d0000a9
:1025ac008e830000c4920000c24400004f00000063
:1025bc008421000070940000be910000d8830000bc
:1025cc00da870000a085000098830000000000005e
:1025dc00a08500008e830000da920000c54c00003c
:1025ec004541000056450000842100007094000015
:1025fc00be910000ce840000be910000b2830000aa
:10260c0052910000a08500008e830000f49200001f
:10261c00e7460000495800004c4f00004f500000a6
:10262c0084210000aa850000ea840000ce8300000b
:10263c0014000000d6840000da8700008e870000aa
:10264c0008850000de85000008850000a6840000d7
:10265c00b2830000e8ff0000aa8500003e91000054
:10266c008e8300000e930000c44c00004f4f0000fe
:10267c00500000008421000070940000be91000006
:10268c00e4830000169300008e8300003a93000050
:10269c00c52b00004c4f00004f500000842100005f
:1026ac0070940000be910000f083000016930000af
:1026bc008e8300004e930000c54200004547000089
:1026cc00494e000084210000709400002a91000003
:1026dc008e83000062930000c5410000474100005a
:1026ec00494e00008421000070940000be9100004f
:1026fc00b28300003e9100008e83000072930000b4
:10270c00c55500004e540000494c000084210000c7
:10271c0070940000be910000ce8300003e9100003a
:10272c008e83000086930000c24900004600000022
:10273c008421000070940000be910000ce83000044
:10274c00529100008e8300009a930000c454000044
:10275c00484500004e0000008421000070940000e9
:10276c006c9100008e830000ac930000c445000007
:10277c004c530000450000008421000070940000c0
:10278c00be910000b2830000529100000885000049
:10279c00b29300008e830000bc930000c55700006c
:1027ac00484900004c450000842100007094000052
:1027bc00be910000ce8300005291000008850000fd
:1027cc008e830000d4930000c652000045500000d8
:1027dc00454100005400000084210000709400006a
:1027ec00be910000b28300003e9100006c9100008d
:1027fc008e830000ea930000c443000041530000a4
:10280c0045000000842100007094000098830000b3
:10281c00000000008e83000002940000c24f0000f4
:10282c00460000008421000070940000be9100005e
:10283c002e850000be91000056870000be9100005e
:10284c00ce830000529100008e830000149400008f
:10285c00c54500004e4400004f4600008421000096
:10286c0070940000be910000b283000052910000f1
:10287c00088500006c9100008e8300002e940000ef
:10288c00c74500004e440000434100005345000082
:10289c008421000070940000ea840000ce830000c4
:1028ac00080000006c910000b2830000f6ff0000ed
:1028bc00be910000f48400008e830000469400005a
:1028cc00c83f0000434f00004d500000494c000031
:1028dc004500000084210000c08800002c8400000a
:1028ec0040870000da8e0000116300006f6d00005d
:1028fc00706900006c650000206f00006e6c0000b9
:10290c0079200000776f0000726400008e83000055
:10291c0066940000853f00004e4100004d450000cc
:10292c0084210000da8e00000c6e0000616d000046
:10293c00652000006d69000073730000696e000073
:10294c00670000008e83000090940000c52c0000ee
:10295c00455800004954000084210000be9100003d
:10296c008e8300008e830000ac9400008643000030
:10297c005245000041540000450000008421000035
:10298c00f4880000d68400002c840000c68d000062
:10299c00da87000008850000a68400009a890000f0
:1029ac00ce8c0000508c000044840000d6840000c3
:1029bc004087000096940000e6850000c29000005d
:1029cc00a2870000569000007a9000008e830000d1
:1029dc00bc940000864600004f52000047450000a2
:1029ec005400000084210000ce900000a48f000051
:1029fc00648f0000d68400009883000000800000e3
:102a0c007a870000da8e00001a430000616e000025
:102a1c0027740000206600006f72000067650000dc
:102a2c0074200000776f00007264000020690000c1
:102a3c006e200000464c000041530000480000008e
:102a4c00d6840000ca880000a68400002c840000f4
:102a5c00f4880000a68400008e830000f09400002f
:102a6c00813a000084210000c4940000929100007f
:102a7c00be910000842100008e830000369500007a
:102a8c00873c000042550000494c000044530000b4
:102a9c008421000038950000be9100005e95000076
:102aac00da8700008e870000c68d00008e83000040
:102abc00402800004695000087280000444f000085
:102acc00455300003e290000842100005085000081
:102adc00d68400008e870000488500002c840000fe
:102aec00f48800002c840000788f0000988300008c
:102afc0004000000d8850000a68400008e8300002e
:102b0c0062950000c54400004f450000533e000094
:102b1c0084210000be9100006a950000da87000055
:102b2c009883000002000000c2900000be910000db
:102b3c0082910000be9100009e900000be910000aa
:102b4c008e830000da87000008850000a684000050
:102b5c008e830000889500008856000041520000ca
:102b6c0049410000424c0000450000008421000057
:102b7c00c494000092910000988300009a210000f8
:102b8c00c68d00009883000000000000c68d000078
:102b9c00f49500008e830000b2950000884300007d
:102bac004f4e000053540000414e000054000000f2
:102bbc0084210000c49400009291000098830000ce
:102bcc00a4210000c68d0000c68d0000f495000005
:102bdc008e830000d4950000c13b000084210000ce
:102bec0070940000be9100008e8300009e90000047
:102bfc00829100008e830000f2950000843f00005b
:102c0c004453000050000000842100006085000047
:102c1c00088900002c84000072870000da8e000006
:102c2c00115300002073000074610000636b0000fe
:102c3c00207500006e64000065720000666c000078
:102c4c006f77000060850000088900002c8400006c
:102c5c009883000040000000fe850000d88500002d
:102c6c007a870000da8e00001053000020730000f9
:102c7c0074610000636b0000206f0000766500003b
:102c8c00726600006c6f0000770000008e830000fd
:102c9c0004960000822e00005300000084210000e6
:102cac008c850000a48300003c000000ba97000053
:102cbc00d684000088990000a48300003e00000028
:102ccc00ba970000cc970000ea840000ce83000085
:102cdc000e000000d6840000968500008899000044
:102cec00f6850000b2830000f0ff00008e83000028
:102cfc0050960000842e0000525400004e0000003c
:102d0c0084210000d68800002c840000b2850000cd
:102d1c00a483000052000000ba970000a4830000b6
:102d2c003a000000ba970000fe8800002c840000d6
:102d3c00d68400002c84000088990000ee850000e9
:102d4c00d68400007085000098830000020000000b
:102d5c00de85000056870000ce830000eaff0000ed
:102d6c00c2970000f4840000d6880000a6840000fe
:102d7c008e830000809600008548000044550000ba
:102d8c004d50000084210000ea840000c083000044
:102d9c00040000008e830000d68800002c84000004
:102dac0048850000b285000008850000988300006b
:102dbc00feff0000f88600000885000098830000e4
:102dcc0000000000d8830000bc8400009883000041
:102ddc0007000000f8860000c08300000e00000011
:102dec00c2970000d6840000988300000500000004
:102dfc005a990000cc970000d6840000348400005f
:102e0c0098830000050000005a9900009883000088
:102e1c0002000000d8850000e4830000d6ff00000b
:102e2c00f484000050850000d6880000a6840000c1
:102e3c008e8300004e280000c296000085560000cc
:102e4c00494400004f4e0000b228000024970000b7
:102e5c008743000055520000454e0000424c0000d4
:102e6c00be2800002e970000834300004c53000046
:102e7c00da2800003a970000865300004352000005
:102e8c004c55000050000000f6280000429700004e
:102e9c0086530000435200004c4400004e000000da
:102eac00002900004e9700008447000045540000a4
:102ebc00580000000a2900005a97000084470000bf
:102ecc0045540000590000001829000064970000c8
:102edc0084530000455400005800000026290000cf
:102eec006e97000084530000455400005900000008
:102efc0044290000789700008643000055520000da
:102f0c00504f000053000000842100007497000013
:102f1c007e9700008e83000082970000844c000096
:102f2c004546000054000000622900009497000000
:102f3c0085520000494700004854000088290000d1
:102f4c009e97000087540000474c00004348000047
:102f5c0041520000b2290000a897000084450000ef
:102f6c004d49000054000000c8290000b49700002f
:102f7c008243000052000000e8290000be970000c8
:102f8c00855300005041000043450000fa29000021
:102f9c00c6970000865300005041000043450000d6
:102fac005300000084210000d684000098830000a8
:102fbc00000000006a870000c083000006000000cb
:102fcc00f48400008e830000988300000000000051
:102fdc00d8830000cc970000e4830000fcff0000c5
:102fec008e830000d0970000854300004c520000f7
:102ffc004c4e0000002a0000fa9700008454000098
:10300c00595000004500000084210000d6840000c7
:10301c00c083000006000000fe8400008e830000c8
:10302c009883000000000000d8830000d6840000c4
:10303c0044840000ea840000ce8300000e000000ef
:10304c00ba970000e6850000e4830000f0ff000062
:10305c00b283000004000000ce840000f484000061
:10306c008e8300000498000086440000454c00004c
:10307c004554000045000000842100009a8900009e
:10308c00ba9700008e8300003a9800008842000036
:10309c00414300004b430000484100005200000037
:1030ac00842100009a970000429800009a97000033
:1030bc008e8300004c9800008544000049470000b6
:1030cc00495400008421000098830000090000008e
:1030dc002e85000064870000988300000700000024
:1030ec00f8860000d88500009883000030000000ae
:1030fc00d88500008e830000629800008745000090
:10310c005854000052410000435400008421000038
:10311c009883000000000000088500009e860000d7
:10312c0008850000689800008e83000084980000d9
:10313c00823c000023000000842100001289000062
:10314c002c840000b2890000d88500003089000072
:10315c00a68400008e8300009e9800008448000026
:10316c004f4c0000440000008421000098830000b4
:10317c00ffff0000308900002e860000308900001f
:10318c002c840000ae8400008e830000b4980000f4
:10319c008123000084210000d68800002c840000cc
:1031ac008c980000ba9800008e830000ce98000026
:1031bc00822300005300000084210000d0980000fe
:1031cc00d6840000c0830000faff00008e8300004c
:1031dc00de98000084530000494700004e000000b8
:1031ec008421000048870000ce8300000800000006
:1031fc00a48300002d000000ba9800008e8300000c
:10320c00f0980000822300003e00000084210000a2
:10321c00f4840000308900002c8400001289000026
:10322c002c840000b2890000d88500002e85000097
:10323c00de8500008e830000089900008353000097
:10324c005452000084210000d68400004885000000
:10325c00e8860000a2980000e2980000508500006b
:10326c00f69800000c9900008e8300002499000051
:10327c00822e0000520000008421000048850000ce
:10328c0028990000508500002e850000de85000086
:10329c00d89700000a9800008e8300003e99000029
:1032ac00835500002e520000842100004885000048
:1032bc00a2980000e29800000c99000050850000d4
:1032cc002e850000de850000d89700000a980000cb
:1032dc008e83000056990000825500002e000000dd
:1032ec0084210000a2980000e29800000c990000d4
:1032fc00cc9700000a9800008e83000072990000a1
:10330c00812e000084210000d68800002c8400004f
:10331c00988300000a00000008870000c0830000aa
:10332c00e2ff0000cc970000289900000a980000ea
:10333c008e83000086990000813f000084210000ec
:10334c0098830000feff0000f88600002c8400002b
:10335c00889900008e830000a2990000824300002f
:10336c003f00000084210000448400008899000084
:10337c008e830000282a0000b499000084420000cb
:10338c004155000044000000622a0000c49900006e
:10339c0085530000454d000049540000822a00006e
:1033ac00ce990000845300004745000054000000f3
:1033bc00b02a0000d02a0000d899000084540000e4
:1033cc004f4e000045000000ec2a0000022b0000cc
:1033dc00e49900008753000044430000494e00006c
:1033ec00495400003c2c0000f0990000865200006b
:1033fc00535400004f52000045000000642c0000a4
:10340c00fc990000855200004c4f00004144000024
:10341c00a42c0000089a0000843f000057490000cb
:10342c0050000000de2c0000129a000084570000af
:10343c00574900005000000084210000189a000039
:10344c00c0830000fcff00008e8300001c9a00006b
:10345c0087450000455700005249000054450000c4
:10346c000c2d00002e9a00008645000045520000ed
:10347c004541000044000000782d00003a9a0000fd
:10348c00854500005041000047450000c42d000058
:10349c00469a000087450000534500004354000045
:1034ac004f520000ce2d0000509a000084450000c1
:1034bc00414c00004c000000d82d00005c9a00002c
:1034cc0086450000455200004153000045000000b5
:1034dc00e22d0000669a0000854d00004147000077
:1034ec0049430000442e0000729a0000874d0000f2
:1034fc0041460000494500004c4400004e2e00009f
:10350c007c9a0000874c00004146000049450000b1
:10351c004c440000582e0000889a0000874400009c
:10352c0050460000494500004c440000622e00004b
:10353c00949a00008753000049460000494500005a
:10354c004c4400006c2e0000a09a0000853f000047
:10355c00424f00004f54000084210000988300006b
:10356c0000000000d6840000d6840000429a0000bf
:10357c00629d000034840000789a00005687000099
:10358c008e830000ac9a0000853f00005349000078
:10359c005a45000084210000a89a0000988300007e
:1035ac00000000007a8400008e830000ca9a00009c
:1035bc00863f0000425900005445000053000000b3
:1035cc0084210000da87000008850000de850000f9
:1035dc009883000000010000c28600008e8300006a
:1035ec00de9a0000853f0000444f00004e4500006d
:1035fc0084210000e69a0000408700008e830000c2
:10360c00f89a000085530000455400004450000017
:10361c00842100009c9a00009883000000000000a8
:10362c007a840000ca880000a68400008e83000003
:10363c00089b000089530000455400004c410000d9
:10364c00544500005354000084210000909a00005f
:10365c0098830000000000007a840000f4880000c9
:10366c00a68400008e830000209b00008650000082
:10367c00474c00004f410000440000008421000032
:10368c00988300000100000008850000429a0000a9
:10369c00d6840000e69a0000e0840000d885000083
:1036ac00488500009883000001000000629d000026
:1036bc0024850000f4870000508500008e830000f4
:1036cc003c9b0000844200004f4f0000540000005f
:1036dc0084210000b29a0000ce8300002a00000072
:1036ec00329d00000e9b0000dc89000098830000d6
:1036fc000100000048850000d6840000fe9a0000fe
:10370c00c08300001000000050850000d68400002b
:10371c00e685000048850000449b0000b283000051
:10372c00ecff000050850000fe8400002a9b000086
:10373c008e830000689b0000894800004541000012
:10374c0044570000524900005445000084210000f9
:10375c00988300000000000048850000789a000063
:10376c00849a00005885000050840000f488000002
:10377c002c840000909a00005885000050840000b2
:10378c00da8700009c9a00005885000050840000e5
:10379c00da870000dc890000de850000a89a0000b2
:1037ac00588500005084000050850000d68400002d
:1037bc00369a00008e830000a29b0000873e00001a
:1037cc00425500004646000045520000842100008e
:1037dc00629d00002e850000d6840000e69a000051
:1037ec00d68400001a850000d885000048850000aa
:1037fc009883000000000000d883000008850000ba
:10380c00d6840000e6850000248500004484000076
:10381c002e850000ae840000e6850000e4830000e5
:10382c00eeff0000fe840000508500008e83000037
:10383c00e49b0000865000004753000041560000f6
:10384c004500000084210000988300000100000066
:10385c00ec9b00000885000098830000010000002c
:10386c0008850000369a00008e830000209c000022
:10387c00853e0000424f00004f54000084210000a0
:10388c001c900000ce830000040000008e8300001a
:10389c009883000001000000ac9b0000dc89000054
:1038ac00d6840000fe9a0000c08300000e000000c9
:1038bc002e850000e685000024850000289c000071
:1038cc00b2830000eeff0000fe8400008e83000037
:1038dc00762e0000a62e0000c02e00003e9c00009c
:1038ec0086470000455400004b450000590000007d
:1038fc00da2e0000769c0000843f00004b4500004f
:10390c0059000000842100007e9c0000729c000085
:10391c00d6840000ce8300000600000098830000cf
:10392c00ffff00008e830000829c0000834b000090
:10393c004559000084210000889c0000ea840000a6
:10394c00ce830000faff0000f48400008e83000098
:10395c009c9c0000844e0000554600003f00000077
:10396c0084210000889c0000d6840000ce830000d7
:10397c000c000000fe840000a09c00009883000056
:10398c000d000000568700008e830000842100008b
:10399c00e69c0000e89c0000e49c000020970000de
:1039ac006e9c0000c0990000ec990000e0990000aa
:1039bc00ea9c0000709c00008e830000fc2e00002e
:1039cc00182f0000282f0000342f00003c2f00007f
:1039dc00b09c000085540000494300004b5300008c
:1039ec00722f0000f09c000084550000534500002d
:1039fc00430000007c2f0000fa9c0000844d000066
:103a0c0053450000430000008e2f0000049d000071
:103a1c00844c000046530000520000009e2f000012
:103a2c000e9d000084520000414e00004400000036
:103a3c00b62f0000189d0000855300005241000075
:103a4c004e440000e82f0000229d0000854300003a
:103a5c004c4500004152000084210000dc8900002c
:103a6c00ca880000a6840000e68800002c840000b0
:103a7c00f4880000a68400008e8300002c9d0000ba
:103a8c0084460000524500004500000084210000df
:103a9c00be890000da870000de85000088990000ee
:103aac008e830000469d00008742000055460000b2
:103abc00414400004452000084210000988300001f
:103acc004a00000076860000988300000001000088
:103adc003c860000be890000d88500008e83000063
:020000040000fa
:103aec0000000000000000000000000000000000ca
:103afc0000000000000f000008080000080800008b
:103b0c0008080000080f0000000000000000000082
:103b1c000000000000f80000080800000808000081
:103b2c000808000008f80000000000000000000079
:103b3c000808000008080000080800000808000039
:103b4c000000000000ff000000000000000000006a
:103b5c000808000008ff0000080800000808000022
:103b6c000000000000000000000000000000000049
:103b7c000000000000000000000000000000000039
:103b8c000000000000000000000000000000000029
:103b9c000000000000ff00000808000008080000fa
:103bac000808000008ff00000000000000000000f2
:103bbc0000000000000000000000000000000000f9
:103bcc0008080000080f00000808000008080000a2
:103bdc000808000008f800000808000008080000a9
:103bec0080c00000e0f00000e0c000008000000099
:103bfc0001030000070f0000070300000100000094
:103c0c0000000000000000000000000000000000a8
:103c1c000000000000000000000000000000000098
:103c2c000000000000000000000000000000000088
:103c3c000000000000000000000000000000000078
:103c4c0000000000000000000000000000fe00006a
:103c5c00103800007c1000001010000000fe000066
:103c6c0020700000a82000002020000000000000b0
:103c7c000020000020200000a870000020000000a0
:103c8c004020000010f80000102000004000000050
:103c9c001020000040f80000402000001000000040
:103cac00000000000080000080800000fe0000008a
:103cbc000000000044fe0000440000000000000072
:103ccc0000000000103800007cfe00000000000026
:103cdc0000000000fe7c0000381000000000000016
:103cec0000000000000000000000000000000000c8
:103cfc0020200000202000002000000020000000f8
:103d0c0050500000500000000000000000000000b7
:103d1c0050500000f8500000f85000005000000017
:103d2c0020780000a070000028f0000020000000a7
:103d3c00c0c80000102000004098000018000000cf
:103d4c0060900000a0400000a890000068000000f7
:103d5c006020000040000000000000000000000097
:103d6c001020000040400000402000001000000027
:103d7c004020000010100000102000004000000047
:103d8c0000200000a8700000a82000000000000027
:103d9c000020000020f8000020200000000000009f
:103dac000000000000000000602000004000000047
:103dbc000000000000f00000000000000000000007
:103dcc000000000000000000006000006000000027
:103ddc0000080000102000004080000000000000df
:103dec007088000098a80000c888000070000000cf
:103dfc00206000002020000020200000f8000000bf
:103e0c00708800001020000040800000f8000000c6
:103e1c00f008000008f0000008080000f0000000a6
:103e2c001030000050900000f8100000100000004e
:103e3c00f880000080f0000008080000f00000008e
:103e4c003040000080f00000888800007000000006
:103e5c00f808000010200000404000004000000066
:103e6c0070880000887000008888000070000000d6
:103e7c0070880000887000000808000070000000c6
:103e8c0000600000600000006060000000000000a6
:103e9c000060000060000000602000004000000096
:103eac0010200000408000004020000010000000a6
:103ebc0000000000f8000000f80000000000000006
:103ecc0040200000100800001020000040000000fe
:103edc007088000008100000200000002000000086
:103eec007088000008680000a8a80000700000009e
:103efc007088000088f800008888000088000000a6
:103f0c00f088000088f0000088880000f0000000b5
:103f1c007880000080800000808000007800000025
:103f2c00f08800008888000088880000f0000000fd
:103f3c00f880000080f8000080800000f80000008d
:103f4c00f880000080f800008080000080000000f5
:103f5c007880000080b000008888000070000000ad
:103f6c008888000088f8000088880000880000001d
:103f7c0070200000202000002020000070000000b5
:103f8c00780800000808000008900000600000009d
:103f9c0088900000a0c00000a090000088000000e5
:103fac00808000008080000080800000f80000000d
:103fbc0088d80000a88800008888000088000000cd
:103fcc0088880000c8a800009888000088000000bd
:103fdc00708800008888000088880000700000004d
:103fec00f088000088f00000808000008000000055
:103ffc007088000088880000a898000078000000f5
:10400c00f088000088f00000a090000088000000fc
:10401c00788000008070000008080000f0000000ac
:10402c00f8200000202000002020000020000000cc
:10403c0088880000888800008888000070000000d4
:10404c00888800008888000088500000200000004c
:10405c008888000088a80000a8d80000880000000c
:10406c008888000050200000508800008800000064
:10407c0088880000885000002020000020000000ec
:10408c00f81000002040000080800000f8000000c4
:10409c006040000040400000404000006000000014
:1040ac00008000004020000010080000000000000c
:1040bc00180800000808000008080000180000009c
:1040cc0020500000880000000000000000000000ec
:1040dc0000000000000000000000000000f80000dc
:1040ec004020000010000000000000000000000054
:1040fc0000000000700800007888000078000000c4
:10410c008080000080b00000c8880000f000000033
:10411c00000000007080000080880000700000002b
:10412c00080800000868000098880000780000006b
:10413c000000000070880000f88000007000000093
:10414c003048000040e0000040400000400000000b
:10415c0000000000788800008878000008700000db
:10416c0080800000b0c80000888800008800000033
:10417c000020000000200000202000002000000093
:10418c0010000000301000001090000060000000d3
:10419c008080000090a00000c0a0000090000000f3
:1041ac006020000020200000202000007000000093
:1041bc0000000000d0a80000a888000088000000c3
:1041cc0000000000b0c800008888000088000000d3
:1041dc00000000007088000088880000700000005b
:1041ec0000000000f088000088f0000080800000d3
:1041fc00000000006890000090b000005018000013
:10420c0000000000b0c800008080000080000000aa
:10421c00000000007080000070080000f00000003a
:10422c0040400000e040000040480000300000002a
:10423c0000000000888800008898000068000000da
:10424c00000000008888000088500000200000005a
:10425c000000000088880000a8a8000050000000a2
:10426c000000000088500000205000008800000072
:10427c0000000000888800008878000008700000aa
:10428c0000000000f810000020400000f8000000c2
:10429c002040000040800000404000002000000052
:1042ac002020000020200000202000002000000022
:1042bc0040200000201000002020000040000000e2
:1042cc000000000040a800001000000000000000ea
:1042dc00fcfc0000fcfc0000fcfc0000fcfc0000f2
:020000040000fa
:1042ec000c4600006f7200007468000045780000f6
:0c42fc0020560000302e000031000000b1
:020000040000fa
:104308008a1f78000c0578003a0678003c0078008f
:10431800000401000d2f78003c0078008b06400057
:104328003a0678003c007800000401000d2f780060
:104338008c0678003a0678003c00780000040100fa
:104348000d2f78009c0678003a0678003c0078002b
:10435800000401004f0578003a0678003c00780018
:10436800000401000d2f7800ba0678003a0678009c
:104378003c007800000401000d2f7800ba06780090
:104388008d86fb003a0678003c00780000040100a6
:104398001a0545003a0678003c0078000004010040
:1043a8000d00e000ae067800f9ff3a000a85e80043
:1043b8003a0678003c007800000401000d00e00097
:1043c800ae067800f2ff32000a85e8003a06780067
:1043d8003c00780000040100881f7800891f7800dd
:1043e8008d047800ae0678000d047800ae067800db
:1043f8003a0678003c007800000401008904e800cf
:104408000848e100040032001a0545003a06780021
:104418003c007800000401000a85e800cf04780019
:104428004f0478003a0678003c0078000004010048
:10443800090078008d844400ae0678000800e10089
:10444800040035000800e9000048e100f2ff3400ec
:10445800020037000848e100efff3d001a0545005b
:104468003a0678003c007800000401000d2f78001f
:104478008a0678003a0678003c00780000040100bb
:104488000d057800ae0678003a0678003c00780002
:10449800000401000000fe000d067800ae0678005a
:1044a8003c007800000401001d007800ae0678008a
:1044b800000401009d0678003a0678003c00780068
:1044c800000401003200f80001c0fe009d067800db
:1044d8003200f9003a0678003c0078000004010038
:1044e8003200f80001c0fe009d4678008d86fb0072
:1044f8003200f9003a0678003c0078000004010018
:104508009d4678008d86fb003a0678003c007800ce
:10451800000401001d0078002d00b0009d06780001
:10452800002f78003a0678003c007800000401006b
:10453800ae0e7800ae0678003a0678003c007800a7
:10454800000401002e007800804e7800ae06780046
:104558003a0678003c00780000040100ae0e7800ae
:104568002d00b000ae0e7800ae0678003a0678004e
:104578003c007800000401000d2f780089067800bf
:104588003a0678003c007800000401000d2f7800fe
:10459800ffbe97003a0678003c007800000401004e
:1045a800cf0478004f0478003a0678003c00780081
:1045b800000401000d2f78003a0678003c007800ce
:1045c800000401001e0078000d2f7800002f7800ed
:1045d8003a0678003c007800000401000d00e00075
:1045e800010032000d2f78003a0678003c00780070
:1045f80000040100ae0678003a0678003c00780016
:1046080000040100ae067800ae0678003a0678008d
:104618003c007800000401001e0078008006fd00c0
:10462800000f78003a0678003c007800000401008a
:104638007eb897007dbf9f00800678006eb897000f
:104648009e00780061bf9f00000f78003a0678004e
:104658003c007800000401001e0078000d00fd00f9
:10466800000f78007eb897008006fd0070bf9f009d
:104678003a0678003c007800000401000d0078003c
:104688009e067800feb89700010f780070bf9f0063
:104698003a0678003c007800000401000d2f7800ed
:1046a800febe97003a0678003c007800000401003e
:1046b8000d2f7800eebe97005eb89700002f7800a7
:1046c8003a0678003c007800000401000e87e900f3
:1046d8003a0678003c007800000401008d1f78003d
:1046e800ae0678003a0678003c0078000004010025
:1046f8000d2f7800cf0678003a0678003c00780045
:10470800000401000d2f7800ffbe97003a067800dc
:104718003c007800000401000e0078000d2f78009e
:10472800800678003a0678003c0078000004010012
:104738000d0778003a0678003c0078000004010074
:104748000d2f78008f0678003a0678003c00780034
:10475800000401008d077800ae0678003a0678005c
:104768003c007800000401001e0078000d0f78005e
:10477800002f78003a0678003c0078000004010019
:1047880000908000000057000d2f78008006d100af
:104798003a0678003c007800000401000e0078001a
:1047a8008d06d0000d005000900678003a0678007b
:1047b8003c00780000040100008880000d18780093
:1047c80000888800ae0678003a0678003c00780039
:1047d800000401000d2f780000888000c0067800d2
:1047e800008888003a0678003c0078000004010040
:1047f800ae8646003a0678003c00780000040100c6
:104808002e0078008d0650003a0678003c007800ab
:10481800000401001d00b0003a0678003c00780052
:10482800000401002d00b0003a0678003c00780032
:10483800000401001d00b1003a0678003c00780031
:10484800000401002d00b1003a0678003c00780011
:10485800000401008d8646003a0678003c00780086
:10486800000401008d86d1003a0678003c007800eb
:10487800000401000d007800ae0678000000e90091
:10488800008009008d06d0003a0678003c007800c8
:10489800000401000d007800ae0678000000e90071
:1048a800008009008d06d1003a0678003c007800a7
:1048b800000401001d0078002e004000800e7800e2
:1048c800ae0678003a0678003c0078000004010043
:1048d8007eb897000d004000ae0678000d80b0004d
:1048e800000f78003a0678003c00780000040100c8
:1048f8002ee8b900800678003a0678003c00780077
:10490800000401001ee8b900000f78008106780055
:104918003a0678003c007800000401001e68b800e0
:1049280081067800000f78003a0678003c0078008d
:10493800000401002e007800110009000d00d800c5
:10494800800678003a0678003c00780000040100f0
:104958002e007800110009000d00d80081067800ab
:104968003a0678003c007800000401002e00780028
:10497800ae0078000180b900110009004d08d80088
:10498800800678003a0678003c00780000040100b0
:104998002e007800ae0078000180b90011000900ef
:1049a8000d00d800012f7800800678003a067800bc
:1049b8003c007800000401001e0078001100090086
:1049c8004d08d80080067800010f78003a06780074
:1049d8003c00780000040100ae0078002e0078004a
:1049e800110009004d88d80080067800012f780052
:1049f8003a0678003c007800000401002e00780098
:104a08000068e10001003d000d00fd003a06780055
:104a18003c007800000401002e0078000d00e10041
:104a280001003d000d00fd003a0678003c007800ca
:104a3800000401002e0078000068e1000100310048
:104a48008006fd003a0678003c007800000401006a
:104a58002e0078000d00e100010031000d00fd007e
:104a68003a0678003c007800000401000000eb00e2
:104a78002e017800ae0078000208e100030039003a
:104a88000d08e100010031000080eb00800678008d
:104a98003a0678003c007800000401000080eb0032
:104aa8000d00a7000000eb00800678003a067800a9
:104ab8003c007800000401000080eb000d00a60017
:104ac8000000eb00800678003a0678003c00780089
:104ad800000401000df0a7008d06ea003a067800f0
:104ae8003c007800000401000d2f78000000eb0066
:104af8000df0a7000080ea00800678003a067800ea
:104b08003c00780000040100ae8666003a06780092
:104b18003c00780000040100ae8676003a06780072
:104b28003c00780000040100ae866e003a0678006a
:104b38003c007800000401008d86ea003a067800ff
:104b48003c007800000401008d86ea001e8fea0010
:104b58003a0678003c007800000401008d06ea005f
:104b68003a0678003c007800000401008d86ea00cf
:104b78001e8fea00100020001e0f40000d80b000bc
:104b88003a0678003c007800000401001d00b100de
:104b98008d865e003a0678003c007800000401002b
:104ba8008d8646008d865e008d86ea003a0678007e
:104bb8003c007800000401008d8646008d865e006a
:104bc8003a0678003c007800000401000000eb0081
:104bd8002e68e10001003a000080eb0080067800b2
:104be8003a0678003c007800000401000000eb0061
:104bf8002e68e100010032000080ea00800678009b
:104c08003a0678003c007800000401000080eb00c0
:104c18002e68e10001003c000080ea008006780070
:104c28003a0678003c007800000401000080eb00a0
:104c38002e68e100010035000080ea008006780057
:104c48003a0678003c007800000401000000eb0000
:104c58002e68e100010036000080ea008006780036
:104c68003a0678003c007800000401000000eb00e0
:104c78002e68e100010031000080ea00800678001b
:104c88003a0678003c007800000401000d2f7800f7
:104c98002d0020003a0678003c007800000401004e
:104ca8002d00b0003a0678003c00780000040100ae
:104cb8006268b800800678003a0678003c00780000
:104cc800000401000d00a7008d06e8003a067800f0
:104cd8003c00780000040100fd07b200e068e10034
:104ce80001003d00fd0520003a0678003c007800f0
:104cf800000401003200f80001c0fe000d00780039
:104d0800ae0678008d007800ae0678000000e0005e
:104d1800030032000000e90000800900bd18780097
:104d2800ae0678003200f9003a0678003c007800b8
:104d3800000401003200f80001c0fe000d007800f8
:104d4800ae0678008d007800ae0678000000e0001e
:104d5800030032000000e90000800900bd58780017
:104d6800ae0678003200f9003a0678003c00780078
:104d7800000401003200f80001c0fe000d007800b8
:104d8800ae0678009e0078000d00e00005003200b5
:104d98001104e100030032008100e8008d06e900fb
:104da800fbff3a00010f78003200f9003a0678005c
:104db8003c007800000401003200f80001c0fe0049
:104dc8000d007800ae0078002e017800ae0678005d
:104dd8000100e000030032008100e90001800900c1
:104de800005978003200f9003a0678003c00780053
:104df800000401001e0078000d0040001102200090
:104e08000000e900100ce10085313e000000e800d8
:104e18009e0650003a0678003c0078000004010025
:104e28000d2f78006d172a003a0678003c007800ac
:104e3800000401000d2f78000d002d003a067800bf
:104e48003c007800000401000d2f78000d042000bc
:104e58003a0678003c007800000401000d2f780025
:104e68000d0220003a0678003c007800000401009a
:104e78000d2f78000d0820003a0678003c007800d5
:104e8800000401000d2f7800fd0120003a0678008b
:104e98003c007800000401000d2f78000d0220006e
:104ea8003a0678003c007800000401000d2f7800d5
:104eb8000d0520003a0678003c0078000004010047
:104ec8000d2f78000d0520003a0678003c00780088
:104ed800000401000d2f78000d0028003a06780024
:104ee8003c007800000401000d2f78004d182a00be
:104ef8003a0678003c007800000401000d2f780085
:104f0800fdff2f003a0678003c00780000040100fd
:104f18000d2f78000d0020003a0678003c0078003c
:104f2800000401000d2f78000d3021003a067800aa
:104f38003c007800000401000d2f78009d8f800050
:104f48000d2f7800ad8f80003a0678003c0078007d
:104f580000040100ad8f8800ae0678009d8f8800a0
:104f6800ae0678003a0678003c007800000401009c
:104f78008d007800114178000204e0000a00320038
:104f88008100e800114078000241e900e105e100f4
:104f9800f9ff3900fa05e100f7ff3e000042b100d1
:104fa80080487800f4ff37003a0678003c00780023
:104fb800000401000d007800ae0678009e0078001d
:104fc8000d00e000050032001104e10003003a0082
:104fd8008100e8008d06e900fbff3a00010f780028
:104fe8003a0678003c007800000401008d01780042
:104ff8000d2f780033427800429080000200e000d4
:10500800190032008280e90032407800804378003d
:10501800f043b2000404e1000200320011017800fc
:10502800f6ff370003037800844278000504e000a7
:1050380005003200364078003204e100f7ff3a00fc
:105048008542e900f9ff37000200a7000201e800e5
:10505800020f78008086eb000744b200030032009c
:105068008d06ea00010037000d0020003a0678009e
:105078003c007800000401000a0678003c0578002e
:105088000d2f78008c0678003a0678003c007800ee
:1050980000040100106ea900108ea90000348000e1
:1050a800f10f2e0001006000018020000100700057
:1050b800003488001034800001fe2f0001006000d9
:1050c800010120000100700010348800b0022000a7
:1050d800101388006402a800c01521006008880029
:1050e80020488800804888008014200030488800c4
:1050f800a03820007048880050c02100004888006f
:1051080050488800f0ff28004228b600000025001b
:105118004228b700f08f2f004228b6000050200028
:105128004228b7001cb2ef001ef2ef001ff2ef009a
:1051380000e8a90020e8a80011e1a800d014200088
:10514800109188002472ef002512a8002532a900ca
:105158003a0678003c007800000401000d00780051
:105168001ff2b700ae0678003a0678003c007800d7
:10517800000401000d007800ae0678000000e00091
:105188000500320020300200000000003a067800d6
:105198003c007800000401003030020000000000ec
:1051a8003a0678003c007800000401003200f8005c
:1051b80001c0fe002472ec000002220001a02c00b5
:1051c800ff020900801878002032ef002532a9007c
:1051d8002472ed003200f9003a0678003c007800ad
:1051e800000401003e300200000000003a0678008a
:1051f8003c007800000401006a3002000000000052
:105208003a0678003c007800000401000d2f780071
:1052180020d2bf00800678008d86fb003a06780011
:105228003c007800000401000d2f780021d2bf0057
:10523800800678008d86fb003a0678003c007800ee
:10524800000401002472ec002532af000430020093
:10525800000000002532a900f00320000068e100ea
:1052680001003e000d00780020f2b7002472ed0026
:10527800ae0678003a0678003c0078000004010089
:105288002472ec002532af00043002000000000058
:105298002532a9007868e100010039007d0120006d
:1052a8000d00780021f2b7002472ed00ae067800f8
:1052b8003a0678003c007800000401002472ec00f3
:1052c8002532af0004300200000000002532a9009a
:1052d8002072ed0008003b002172ed0003003b0046
:1052e8006a300200000000002172ef000004200074
:1052f8000000e90020f2b7002472ed003a067800b9
:105308003c007800000401002472ec002532af0054
:1053180004300200000000002532a9002072ec00d1
:10532800000420002052e300080039002072ef003a
:105338002172ec00800120002152e30003003900b3
:105348003e300200000000002172ed002472ed00e2
:105358003a0678003c007800000401002472ec0052
:105368002532af0004300200000000002532a900f9
:1053780004300200000000002472ed003a067800b4
:105388003c007800000401002472ec002532af00d4
:1053980004300200000000002532a90000c4b30058
:1053a8002152bc0020d2bf000080fb000200400058
:1053b80001a02c00810040008d487800ae067800de
:1053c8002472ed00d0ff37002472ec002532af00c4
:1053d80004300200000000002532a900f00320007c
:1053e80020f2b7002472ed00c7ff37000d2f7800b8
:1053f8000d022000e4ff37002472ec002532af00d4
:1054080004300200000000002532a90002a02c0090
:10541800800120000068e10006003100000420003f
:105428000068b80002014000000222001f000900c5
:10543800001978002472ed00ae0678003a0678006c
:105448003c00780000040100116ea900f00f2e0046
:105458008826b600003020008826b70000fe2f00fe
:10546800c426b600c0022000c426b700601c200075
:105478004011880021e2a80080ff2f004628b600ce
:10548800300020004628b700f0ff28004428b60066
:10549800000023004428b7000188a9002188a8003b
:1054a8000168a9002168a8002462ef002342a8002f
:1054b8003a0678003c0078000004010021e2a900c7
:1054c80000d82100c1422000420020008100d10004
:1054d8000080d3000201e900110009004d88d800be
:1054e8000000e9004011880021e2a800ae0678001b
:1054f8003a0678003c00780000040100c211e2007e
:1055080005003a002322af00030037002d11880060
:10551800ae0678000d00370000012000c211e3003c
:10552800feff3200c5d1bf000080fb00211b210017
:10553800810040008d487800ae067800c231ec004a
:10554800c571ec00f0002000c571b6003a0678007d
:105558003c007800000401000d2f7800c611e2001d
:1055680001003a00fdff3700c8d1bf000080fb00f2
:10557800211a21008100400091467800c631ed00d3
:10558800c871ec00f0002000c871b6003a06780037
:105598003c00780000040100f0fd2f00102eb6003a
:1055a800f00f2e008226b600002021008226b700c8
:1055b8001629ef0050402000a04888000001200074
:1055c800900888003a0678003c0078000004010042
:1055d8007d088800cd4888008d06d100dd48880008
:1055e800ae06780013e1a8003d918800ae06780069
:1055f8003a0678003c00780000040100404420008e
:10560800142eb700f0e72f00142eb600b0a32f0019
:10561800102eb60019aea800f0ff28004828b600e2
:10562800000023004828b7002268a8000268a900e3
:10563800001320001012880041e2a8003a06780002
:105648003c0078000004010041e2a900f0012000bc
:105658004222b600010078004222b70041e2a800c9
:1056680000000600144ea80041e2a800f0cfb300e5
:10567800a100200048e2b7004002ae00feff37005c
