:020000040000fa
:080000000002040000000000f2
:020000040000fa
:0400080018030000d9
:020000040000fa
:04000c0018030000d5
:020000040000fa
:0400100018030000d1
:020000040000fa
:0400140018030000cd
:020000040000fa
:040018004a11000089
:020000040000fa
:04001c0018030000c5
:020000040000fa
:0400200018030000c1
:020000040000fa
:0400240018030000bd
:020000040000fa
:0400280018030000b9
:020000040000fa
:04002c0018030000b5
:020000040000fa
:0400300018030000b1
:020000040000fa
:040034001a030000ab
:020000040000fa
:0400380018030000a9
:020000040000fa
:04003c0018030000a5
:020000040000fa
:04004000b402000006
:020000040000fa
:040044003a0200007c
:020000040000fa
:040048001803000099
:020000040000fa
:04004c001803000095
:020000040000fa
:040050001803000091
:020000040000fa
:040054008003000025
:020000040000fa
:04005800a4030000fd
:020000040000fa
:04005c001803000085
:020000040000fa
:040060001803000081
:020000040000fa
:04006400180300007d
:020000040000fa
:040068001803000079
:020000040000fa
:04006c001803000075
:020000040000fa
:040070001803000071
:020000040000fa
:04007400180300006d
:020000040000fa
:040078004003000041
:020000040000fa
:04007c001803000065
:020000040000fa
:040080001803000061
:020000040000fa
:04008400180300005d
:020000040000fa
:040088001803000059
:020000040000fa
:04008c001803000055
:020000040000fa
:040090001803000051
:020000040000fa
:04009400180300004d
:020000040000fa
:040098001803000049
:020000040000fa
:04009c001803000045
:020000040000fa
:0400a0001803000041
:020000040000fa
:0400a400180300003d
:020000040000fa
:0400a8001803000039
:020000040000fa
:0400ac001803000035
:020000040000fa
:0400b0001803000031
:020000040000fa
:0400b400180300002d
:020000040000fa
:0400b8001803000029
:020000040000fa
:0400bc001803000025
:020000040000fa
:0400c0001803000021
:020000040000fa
:0400c400180300001d
:020000040000fa
:0400c8001803000019
:020000040000fa
:0400cc001803000015
:020000040000fa
:0400d0001803000011
:020000040000fa
:0400d400180300000d
:020000040000fa
:0400d8001803000009
:020000040000fa
:0400dc001803000005
:020000040000fa
:0400e0001803000001
:020000040000fa
:0400e40018030000fd
:020000040000fa
:0400e80018030000f9
:020000040000fa
:0400ec0018030000f5
:020000040000fa
:0400f00018030000f1
:020000040000fa
:0400f40018030000ed
:020000040000fa
:0400f80018030000e9
:020000040000fa
:0400fc0018030000e5
:020000040000fa
:0401000018030000e0
:020000040000fa
:0401040018030000dc
:020000040000fa
:0401080018030000d8
:020000040000fa
:04010c0018030000d4
:020000040000fa
:0401100018030000d0
:020000040000fa
:0401140018030000cc
:020000040000fa
:0401180018030000c8
:020000040000fa
:04011c0018030000c4
:020000040000fa
:0401200018030000c0
:020000040000fa
:0401240018030000bc
:020000040000fa
:0401280018030000b8
:020000040000fa
:04012c0018030000b4
:020000040000fa
:0401300018030000b0
:020000040000fa
:0401340018030000ac
:020000040000fa
:0401380018030000a8
:020000040000fa
:04013c0018030000a4
:020000040000fa
:0401400018030000a0
:020000040000fa
:04014400180300009c
:020000040000fa
:040148001803000098
:020000040000fa
:04014c001803000094
:020000040000fa
:040150001803000090
:020000040000fa
:04015400180300008c
:020000040000fa
:040158001803000088
:020000040000fa
:04015c001803000084
:020000040000fa
:040160001803000080
:020000040000fa
:04016400180300007c
:020000040000fa
:040168001803000078
:020000040000fa
:04016c001803000074
:020000040000fa
:040170001803000070
:020000040000fa
:04017400180300006c
:020000040000fa
:040178001803000068
:020000040000fa
:04017c001803000064
:020000040000fa
:040180001803000060
:020000040000fa
:04018400180300005c
:020000040000fa
:040188001803000058
:020000040000fa
:04018c001803000054
:020000040000fa
:040190001803000050
:020000040000fa
:04019400180300004c
:020000040000fa
:040198001803000048
:020000040000fa
:04019c001803000044
:020000040000fa
:0401a0001803000040
:020000040000fa
:0401a400180300003c
:020000040000fa
:0401a8001803000038
:020000040000fa
:0401ac001803000034
:020000040000fa
:0401b0001803000030
:020000040000fa
:0401b400180300002c
:020000040000fa
:0401b8001803000028
:020000040000fa
:0401bc001803000024
:020000040000fa
:0401c0001803000020
:020000040000fa
:0401c400180300001c
:020000040000fa
:0401c8001803000018
:020000040000fa
:0401cc001803000014
:020000040000fa
:0401d0001803000010
:020000040000fa
:0401d400180300000c
:020000040000fa
:0401d8001803000008
:020000040000fa
:0401dc001803000004
:020000040000fa
:0401e0001803000000
:020000040000fa
:0401e40018030000fc
:020000040000fa
:0401e80018030000f8
:020000040000fa
:0401ec0018030000f4
:020000040000fa
:0401f00018030000f0
:020000040000fa
:0401f40018030000ec
:020000040000fa
:0401f80018030000e8
:020000040000fa
:0401fc0018030000e4
:020000040000fa
:0402000018030000df
:020000040000fa
:0402040018030000db
:020000040000fa
:0402080018030000d7
:020000040000fa
:04020c0018030000d3
:020000040000fa
:0402100018030000cf
:020000040000fa
:0402140018030000cb
:020000040000fa
:0402180018030000c7
:020000040000fa
:04021c0018030000c3
:020000040000fa
:0402200018030000bf
:020000040000fa
:0402240018030000bb
:020000040000fa
:0402280018030000b7
:020000040000fa
:04022c0018030000b3
:020000040000fa
:0402300018030000af
:020000040000fa
:0402340018030000ab
:020000040000fa
:0402380018030000a7
:020000040000fa
:04023c0018030000a3
:020000040000fa
:04024000180300009f
:020000040000fa
:04024400180300009b
:020000040000fa
:040248001803000097
:020000040000fa
:04024c001803000093
:020000040000fa
:04025000180300008f
:020000040000fa
:04025400180300008b
:020000040000fa
:040258001803000087
:020000040000fa
:04025c001803000083
:020000040000fa
:04026000180300007f
:020000040000fa
:04026400180300007b
:020000040000fa
:040268001803000077
:020000040000fa
:04026c001803000073
:020000040000fa
:04027000180300006f
:020000040000fa
:04027400180300006b
:020000040000fa
:040278001803000067
:020000040000fa
:04027c001803000063
:020000040000fa
:04028000180300005f
:020000040000fa
:1004000001c4fe0001c0fe0000002100f1ff250034
:10041000018009000018eb00f81b0200000000003a
:100420000f0021000e0821000e0188005fbf880028
:100430006ebf8800a000200030bf8800a07121009e
:1004400070bf8800a06c210080bf88000080210060
:1004500020bf880000c2fe00e0ff2f0010007800df
:1004600040bf88004ac429003a0678003c00780062
:040470000004010083
:020000040000fa
:1004740000e8a90061e2a900801f7800c030ec0008
:100484001700320060002000c010e3001a003200a0
:10049400c0002000c010e3001a0032002001200038
:1004a400c010e3001a00320020032000c010e30053
:1004b4001d003200200f2000c010e3001f00320096
:1004c400f0102000c010e3001e00320000112000d4
:1004d400c010e300200032004f0078000040060006
:1004e400400a200030488800e08a20002048880024
:1004f40060088800f8ff3700a0802000304888009a
:10050400f5ff3700400a200030488800f2ff37002a
:100514008014200030488800c0152100204888003d
:1005240060088800ecff3700c350e200eaff3200a5
:1005340000c8a90020c8a800e7ff370020c8a90008
:10054400e5ff3700c250e200e3ff3200c0b0ef0025
:10055400c270ef00e0ff3700c0b0ef00c2f0ef0060
:10056400ddff370000c8a900809fbe00829fbe0047
:10057400849fbe00861f78003200f80000c2fe008f
:10058400018680002103b100e7826000c308de0019
:10059400020420000110b800a40c21000402400051
:1005a400a3c3280090488000630060000006010097
:1005b40000000000000000000000000061e2a8004c
:1005c4000200e00010003200344078000003eb0029
:1005d4000070a7000083eb00f007b2004300dd00c9
:1005e4008080410085804000114078000670a7009b
:1005f4000080ea006022ab00feff3a0068e2b70028
:100604000201e900eeff37006022ab00feff3a0072
:100614006822ef003200f9004f0378004f02be0059
:100624004f01be004f00be00004006000000fe0067
:100634000068a900809fbe00829fbe00f637ec00d0
:10064400fc17e20003003200fc37ed0001003a0021
:1006540013e1a900c418020000000000c850e20021
:1006640003003a00c910af007c1a02000000000029
:100674004f01be004f00be00004006000288a900e2
:1006840000a0fe0095f7af000f00370090708000c7
:1006940000e0a3006ab7d7001600390000772100f4
:1006a40091bc80008100400050bb80004500de000a
:1006b4008008780092b7ec00f00120009237b60071
:1006c4000040200050bb88006e17e20002003a0090
:1006d40095f7a9000700370015cea9006c17af00e5
:1006e40015cea8006c37d5006e37ed0001003a0036
:1006f40011cea8000080fe00004006000168a90099
:10070400801f7800811f7800bdd7bf000080fb00e8
:1007140061792100810040002202ae00060037000a
:100724003011800080487800ba37ec00bd77ec00c7
:10073400f0002000bd77b600cf0078004f007800ad
:10074400004006000188a900801f7800811f7800fe
:10075400b617e2000a003200b8d7bf000080fb00e1
:10076400617a2100810040001140780024e2b70042
:10077400b637ed00b877ec00f0002000b877b6008b
:0c078400cf0078004f0078000040060015
:020000040000fa
:10079000000000000445000058490000540000001b
:1007a00040110000f48b000006520000454200009a
:1007b0004f4f00005400000048110000f48b00006f
:1007c00004570000415200004d0000004a11000093
:1007d000f48b000007450000584500004355000019
:1007e0005445000056110000f48b0000034c00003b
:1007f000495400005e110000f48b00000443000027
:100800004c4900005400000068110000f48b000007
:100810000140000076110000f48b0000024300004c
:10082000400000007e110000f48b00000121000058
:1008300088110000f48b000002430000210000003a
:1008400094110000f48b00000542000052410000aa
:100850004e43000048000000a0110000f48b00008f
:10086000073f000042520000414e00004348000094
:10087000a8110000f48b0000075a0000425200004b
:10088000414e000043480000b6110000f48b000008
:1008900004280000444f000029000000c41100009b
:1008a000f48b0000062800004c4f00004f50000061
:1008b00029000000d6110000f48b0000014900005f
:1008c000f0110000f48b0000014a0000fa11000052
:1008d000f48b0000065500004e4c00004f4f000006
:1008e0005000000004120000f48b000003440000dc
:1008f000555000000e120000f48b0000043200007e
:10090000445500005000000016120000f48b000057
:10091000043f000044550000500000002212000077
:10092000f48b000004440000524f0000500000000f
:100930002e120000f48b000005320000445200002b
:100940004f50000036120000f48b000004530000ea
:10095000574100005000000040120000f48b0000de
:100960000632000053570000415000004c120000b6
:10097000f48b0000035200004f540000601200008e
:10098000f48b0000042d0000524f000054000000c2
:1009900070120000f48b0000044f00005645000068
:1009a0005200000080120000f48b0000034e000093
:1009b000495000008a120000f48b0000023e000043
:1009c0005200000092120000f48b0000025200005e
:1009d0003e0000009c120000f48b00000252000058
:1009e00040000000a6120000f48b0000035300003a
:1009f00050400000b0120000f48b000003530000d0
:100a000050210000ba120000f48b000003520000d5
:100a100050400000c4120000f48b0000035200009c
:100a200050210000ce120000f48b0000045400009e
:100a3000554300004b000000d8120000f48b00006a
:100a4000012b0000e4120000f48b0000012d0000d7
:100a5000ec120000f48b0000023100002b000000bb
:100a6000f6120000f48b0000023200002b000000a0
:100a7000fe120000f48b0000023100002d00000087
:100a800006130000f48b0000023200002d0000006d
:100a90000e130000f48b0000023200002a00000058
:100aa00016130000f48b0000023200002f0000003b
:100ab0001e130000f48b0000064c00005348000099
:100ac000494600005400000026130000f48b00008b
:100ad0000652000053480000494600005400000040
:100ae0002e130000f48b0000022b000021000000f8
:100af00036130000f48b0000024d00002b000000b4
:100b000044130000f48b0000012a0000541300007d
:100b1000f48b0000012f000062130000f48b000032
:100b2000042f00004d4f000044000000701300002f
:100b3000f48b0000045500004d41000058000000f7
:100b400080130000f48b0000045500004d490000a4
:100b50004e0000008e130000f48b000003410000e3
:100b60004e4400009c130000f48b0000024f000074
:100b700052000000a4130000f48b00000358000092
:100b80004f520000ac130000f48b00000649000037
:100b90004e5600004552000054000000b4130000ff
:100ba000f48b0000064e0000454700004154000051
:100bb00045000000bc130000f48b00000230000070
:100bc0003d000000c4130000f48b00000230000060
:100bd0003c000000ce130000f48b00000230000047
:100be0003e000000da130000f48b0000013d00001d
:100bf000e4130000f48b0000023c00003e00000003
:100c0000f4130000f48b0000013c00000414000009
:100c1000f48b0000013e000014140000f48b00006f
:100c2000025500003c00000024140000f48b00007a
:100c3000025500003e00000034140000f48b000058
:100c400004430000454c00004c0000004414000028
:100c5000f48b000005430000454c00004c2b0000c5
:100c60004e140000f48b000005430000454c0000ca
:100c70004c53000056140000f48b000004480000a0
:100c80004552000045000000361100004488000075
:100c90000a840000d0830000f48b0000044d0000a3
:100ca0004f5600004500000060140000f48b000067
:100cb000054300004d4f0000564500007c14000025
:100cc000f48b000005540000494300004b53000022
:100cd00098140000f48b0000044d00005345000000
:100ce00043000000a2140000f48b0000044c00003c
:100cf0004653000052000000b2140000f48b0000c4
:100d000004520000414e000044000000ca140000dc
:100d1000f48b000005530000524100004e440000d7
:100d2000fc140000f48b000005560000494400004c
:100d30004f4e00000c150000f48b0000074300002c
:100d400055520000454e0000424c000018150000ae
:100d5000f48b0000034300004c53000034150000e6
:100d6000f48b000006530000435200004c55000075
:100d7000500000004a150000f48b000006530000ec
:100d8000435200004c4400004e0000005415000087
:100d9000f48b000004470000455400005800000098
:100da0005e150000f48b000004470000455400006d
:100db000590000006c150000f48b00000453000083
:100dc00045540000580000007a150000f48b000024
:100dd000045300004554000059000000981500001d
:100de000f48b00000643000055520000504f0000f5
:100df0005300000036110000e4860000ee8600007b
:100e0000d0830000f48b0000044c00004546000035
:100e100054000000b6150000f48b000005520000dd
:100e20004947000048540000dc150000f48b000026
:100e300007540000474c00004348000041520000a6
:100e400006160000f48b0000044500004d49000028
:100e5000540000001c160000f48b00000243000048
:100e6000520000003c160000f48b00000553000007
:100e700050410000434500004e160000f48b000076
:100e8000065300005041000043450000530000009d
:100e9000361100007a840000fa8300000000000090
:100ea0000c860000388400000600000098840000d2
:100eb000d0830000fa830000000000004e84000090
:100ec0003c8700005a840000fcff0000d083000033
:100ed000f48b0000054300004c5200004c4e000013
:100ee00054160000f48b0000045400005950000018
:100ef00045000000361100007a84000038840000ac
:100f000006000000a2840000d0830000fa830000e5
:100f1000000000004e8400007a840000128400006b
:100f20002a870000308500005a840000f6ff000088
:100f300098840000d0830000f48b00000744000078
:100f4000454c0000455400004500000036110000eb
:100f5000dc8800002a870000d0830000f48b0000aa
:100f600008420000414300004b430000484100009c
:100f700052000000361100000a870000a68700001a
:100f80000a870000d0830000f48b0000012e0000cf
:100f900036110000d0830000f48b0000043f0000f5
:100fa0004b450000590000007c160000f48b000047
:100fb000034b00004559000092160000f48b00001e
:100fc000074b0000424400005f4300004d44000016
:100fd000a4160000f48b000005530000454d0000ee
:100fe00049540000b2160000f48b000004530000c6
:100ff0004745000054000000e0160000f48b00009c
:10100000045400004f4e000045000000001700008f
:10101000f48b000006520000535400004f520000b1
:101020004500000016170000f48b00000652000077
:101030004c4f00004144000048170000f48b0000b2
:1010400006450000535400004f52000045000000c8
:101050007a170000f48b0000054500004c4f00009b
:1010600041440000c2170000f48b0000055300004b
:101070005441000054450000fa170000f48b0000b2
:10108000044400005000000004180000f48b00002d
:101090000442000041530000450000000e1800000b
:1010a000f48b0000064c0000415400004553000042
:1010b0005400000018180000f48b000005520000d6
:1010c000424100005345000022180000f48b00004c
:1010d0000550000042410000534500002c1800005c
:1010e000f48b00000350000041440000361800005b
:1010f000f48b000003540000494200004018000037
:10110000f48b0000095300004f55000052430000cb
:10111000452d0000494400004a180000f48b0000ef
:10112000033e0000494e000054180000f48b0000fc
:101130000756000045520000534900004f4e000082
:101140005e180000f48b000006520000414d0000c4
:10115000454e00004400000068180000f48b0000b9
:10116000074600005f4900004d4d00004544000067
:1011700072180000f48b0000084600005f48000071
:1011800049440000444500004e0000007c18000067
:10119000f48b0000094600005f4c0000454e000043
:1011a0004d410000534b000086180000f48b0000f6
:1011b000024200004c00000090180000f48b000078
:1011c0000754000049420000534900005a450000fe
:1011d0009a180000f48b0000075000004144000002
:1011e000534900005a450000a4180000f48b000089
:1011f000065500004c4900004d4900005400000015
:10120000ae180000f48b0000054400004f430000be
:101210004f4c0000b8180000f48b0000055a000085
:101220005459000050450000361100007a84000037
:10123000128400007a840000448400000a00000048
:101240002a870000308500002c840000f0ff000099
:101250009884000098840000d0830000f48b000084
:1012600006410000434300004550000054000000c8
:1012700036110000d284000022850000d2840000d4
:10128000dc8700007a840000fa8300000d00000073
:10129000f8850000388400004a0000007a840000cd
:1012a000fa83000008000000008600003884000077
:1012b0001c00000098840000e2840000d28400003a
:1012c000f2840000f8850000ea840000ac8400008d
:1012d00038840000d6ff0000ba8700004085000077
:1012e0002c840000ceff0000e28400008484000013
:1012f000f8850000ea840000ac840000448400000b
:1013000008000000988400002c840000baff000050
:101310007a8400002a870000d28400002084000024
:10132000308500002c840000acff00009884000091
:10133000da840000ac84000028850000d08300001f
:10134000f48b0000094900004e5400004552000093
:101350005052000045540000361100003287000052
:101360007a870000d0830000f48b0000024f000059
:101370004b000000361100003c870000fa8300009b
:101380004f0000002a870000fa8300004b00000095
:101390002a870000d0830000f48b00000451000075
:1013a0005549000054000000361100006488000018
:1013b0000a84000012850000fa830000000000008b
:1013c0003c88000018840000a088000014890000f8
:1013d000328700007e8800000a84000094880000a4
:1013e000188400007e8800000a8400007a840000cf
:1013f000fa830000400000004085000038890000aa
:101400003c870000ac8900003c8800000a84000092
:10141000e28500004484000004000000ba89000056
:10142000328700002c840000deff0000f48b0000f7
:101430000454000045530000540000003611000021
:10144000ae860000a08800005c8a0000ba89000017
:10145000fa8300004d010000728600005c8a0000e3
:10146000728a0000fa8300004d01000072860000bd
:101470002c840000eaff0000f48b000007530000fa
:10148000455200005445000053540000361100003e
:10149000ae860000a0880000fc870000f2870000f4
:1014a0002c840000faff0000f48b000005480000c7
:1014b0004f4d00004500000036110000fa83000087
:1014c00000000000fa83000000000000fa8600001f
:1014d000d0830000f48b0000064f00004b4f00004b
:1014e00046460000361100003c8700003c870000a3
:1014f000d0830000f48b0000095100005549000022
:10150000434b0000544500005354000036110000c6
:10151000fa830000fc90000014890000d0830000d2
:10152000f48b0000075300005452000054450000a3
:101530005354000036110000ae860000fa8300000c
:10154000fc90000014890000fa830000ca1000001b
:10155000fa83000000000000fa8300000000000091
:10156000fa8300002b00000012880000808b00002e
:10157000ae860000808b0000fa830000ca100000d5
:10158000fa83000000000000fa8300000000000061
:10159000fa8300002b0000001c880000808b0000f4
:1015a0002c840000e6ff0000f48b00000a450000d8
:1015b00045500000524f00004d54000045530000bc
:1015c0005400000036110000ae860000fa830000cf
:1015d000fc90000014890000fa830000f401000070
:1015e00072860000fa830000ca100000fa8300002f
:1015f0002b00000028880000ae860000808b0000d1
:10160000fa830000ca100000fa83000064000000a2
:10161000328800002c840000e0ff0000f48b000002
:10162000084c00004f4f000050540000455300008c
:101630005400000036110000fa8300005b00000037
:10164000fa830000410000004e8400006084000026
:101650002a8700005a840000faff0000d08b0000a7
:10166000f48b00000854000059500000455400005d
:101670004553000054000000361100007e88000031
:101680000a8400007a840000fa8300003f00000012
:1016900038890000328700007a870000d08300007c
:1016a000f48b000006430000525400004553000034
:1016b0005400000036110000ae860000fa830000de
:1016c000410000007a8400002a8700003287000071
:1016d000308500007a840000fa8300005800000082
:1016e000f885000044840000eeff0000d08b00006d
:1016f000f48b000005440000454c000041590000f7
:1017000036110000fa830000f40100007286000028
:10171000d0830000f48b0000083200004455000024
:1017200050540000455300005400000036110000e2
:10173000fa83000042000000fa830000410000002c
:10174000848400002a8700002a8700002a8700007e
:101750002a870000d08b0000f48b000005540000a5
:10176000455300005434000036110000dc870000af
:101770007a840000fa830000300000002885000011
:10178000488700002a870000d0830000f48b000007
:10179000074900004e4600004c4f00004f5000002b
:1017a000c2180000f48b0000074600004e540000f1
:1017b000544500005354000036110000fa83000025
:1017c00080000000fa830000000000004e8400004a
:1017d000608400002a8700005a840000faff00009d
:1017e00032870000d0830000f48b00000342000029
:1017f0004f58000036110000048400000100000072
:101800002a870000048400000b0000002a870000e3
:1018100004840000030000002a87000032870000d3
:10182000048400000e0000002a87000004840000e9
:10183000070000002a870000048400000f00000059
:101840002a870000328700000484000002000000a4
:101850002a870000048400000c0000002a87000092
:1018600004840000040000002a8700003287000082
:04187000d083000021
:020000040000fa
:101874000000000000000000000000000000000064
:1018840000000000000f0000080800000808000025
:1018940008080000080f000000000000000000001d
:1018a4000000000000f8000008080000080800001c
:1018b4000808000008f80000000000000000000014
:1018c40008080000080800000808000008080000d4
:1018d4000000000000ff0000000000000000000005
:1018e4000808000008ff00000808000008080000bd
:1018f40000000000000000000000000000000000e4
:1019040000000000000000000000000000000000d3
:1019140000000000000000000000000000000000c3
:101924000000000000ff0000080800000808000094
:101934000808000008ff000000000000000000008c
:101944000000000000000000000000000000000093
:1019540008080000080f000008080000080800003c
:101964000808000008f80000080800000808000043
:1019740080c00000e0f00000e0c000008000000033
:1019840001030000070f000007030000010000002e
:101994000000000000000000000000000000000043
:1019a4000000000000000000000000000000000033
:1019b4000000000000000000000000000000000023
:1019c4000000000000000000000000000000000013
:1019d40000000000000000000000000000fe000005
:1019e400103800007c1000001010000000fe000001
:1019f40020700000a820000020200000000000004b
:101a04000020000020200000a8700000200000003a
:101a14004020000010f800001020000040000000ea
:101a24001020000040f800004020000010000000da
:101a3400000000000080000080800000fe00000024
:101a44000000000044fe000044000000000000000c
:101a540000000000103800007cfe000000000000c0
:101a640000000000fe7c00003810000000000000b0
:101a74000000000000000000000000000000000062
:101a84002020000020200000200000002000000092
:101a94005050000050000000000000000000000052
:101aa40050500000f8500000f850000050000000b2
:101ab40020780000a070000028f000002000000042
:101ac400c0c800001020000040980000180000006a
:101ad40060900000a0400000a89000006800000092
:101ae4006020000040000000000000000000000032
:101af40010200000404000004020000010000000c2
:101b040040200000101000001020000040000000e1
:101b140000200000a8700000a820000000000000c1
:101b24000020000020f80000202000000000000039
:101b340000000000000000006020000040000000e1
:101b44000000000000f000000000000000000000a1
:101b540000000000000000000060000060000000c1
:101b64000008000010200000408000000000000079
:101b74007088000098a80000c88800007000000069
:101b8400206000002020000020200000f800000059
:101b9400708800001020000040800000f800000061
:101ba400f008000008f0000008080000f000000041
:101bb4001030000050900000f810000010000000e9
:101bc400f880000080f0000008080000f000000029
:101bd4003040000080f000008888000070000000a1
:101be400f808000010200000404000004000000001
:101bf4007088000088700000888800007000000071
:101c04007088000088700000080800007000000060
:101c14000060000060000000606000000000000040
:101c24000060000060000000602000004000000030
:101c34001020000040800000402000001000000040
:101c440000000000f8000000f800000000000000a0
:101c54004020000010080000102000004000000098
:101c64007088000008100000200000002000000020
:101c74007088000008680000a8a800007000000038
:101c84007088000088f80000888800008800000040
:101c9400f088000088f0000088880000f000000050
:101ca40078800000808000008080000078000000c0
:101cb400f08800008888000088880000f000000098
:101cc400f880000080f8000080800000f800000028
:101cd400f880000080f80000808000008000000090
:101ce4007880000080b00000888800007000000048
:101cf4008888000088f800008888000088000000b8
:101d0400702000002020000020200000700000004f
:101d14007808000008080000089000006000000037
:101d240088900000a0c00000a0900000880000007f
:101d3400808000008080000080800000f8000000a7
:101d440088d80000a8880000888800008800000067
:101d540088880000c8a80000988800008800000057
:101d640070880000888800008888000070000000e7
:101d7400f088000088f000008080000080000000ef
:101d84007088000088880000a8980000780000008f
:101d9400f088000088f00000a09000008800000097
:101da400788000008070000008080000f000000047
:101db400f820000020200000202000002000000067
:101dc400888800008888000088880000700000006f
:101dd40088880000888800008850000020000000e7
:101de4008888000088a80000a8d8000088000000a7
:101df40088880000502000005088000088000000ff
:101e04008888000088500000202000002000000086
:101e1400f81000002040000080800000f80000005e
:101e240060400000404000004040000060000000ae
:101e340000800000402000001008000000000000a6
:101e44001808000008080000080800001800000036
:101e54002050000088000000000000000000000086
:101e640000000000000000000000000000f8000076
:101e740040200000100000000000000000000000ee
:101e8400000000007008000078880000780000005e
:101e94008080000080b00000c8880000f0000000ce
:101ea40000000000708000008088000070000000c6
:101eb4000808000008680000988800007800000006
:101ec4000000000070880000f8800000700000002e
:101ed4003048000040e000004040000040000000a6
:101ee4000000000078880000887800000870000076
:101ef40080800000b0c800008888000088000000ce
:101f0400002000000020000020200000200000002d
:101f1400100000003010000010900000600000006d
:101f24008080000090a00000c0a00000900000008d
:101f3400602000002020000020200000700000002d
:101f440000000000d0a80000a8880000880000005d
:101f540000000000b0c8000088880000880000006d
:101f640000000000708800008888000070000000f5
:101f740000000000f088000088f00000808000006d
:101f8400000000006890000090b0000050180000ad
:101f940000000000b0c80000808000008000000045
:101fa400000000007080000070080000f0000000d5
:101fb40040400000e04000004048000030000000c5
:101fc4000000000088880000889800006800000075
:101fd40000000000888800008850000020000000f5
:101fe4000000000088880000a8a80000500000003d
:101ff400000000008850000020500000880000000d
:102004000000000088880000887800000870000044
:1020140000000000f810000020400000f80000005c
:1020240020400000408000004040000020000000ec
:1020340020200000202000002020000020000000bc
:10204400402000002010000020200000400000007c
:102054000000000040a80000100000000000000084
:10206400fcfc0000fcfc0000fcfc0000fcfc00008c
:020000040000fa
:102074001c61000032620000216300002364000040
:10208400246500002b6600003467000033680000fc
:10209400436900003b6a0000426b00004b6c000087
:1020a4003a6d0000316e0000446f00004d70000076
:1020b400157100002d7200001b7300002c740000c9
:1020c4003c7500002a7600001d770000227800008d
:1020d400357900001a7a00004530000016310000fe
:1020e4001e32000026330000253400002e35000087
:1020f400363600003d3700003e3800004639000007
:10210400292000004e2d0000553d00000e60000007
:102114000d090000545b00005b5d00004c3b0000b7
:10212400412c0000492e00004a2f000052270000d5
:102134005d7c0000660800000d0900005a0d0000d7
:10214400761b0000000000000e7e00001621000037
:102154001e40000026230000252400002e25000038
:10216400365e00003d2600003e2a0000462800009e
:10217400452900004e5f0000547b0000552b0000f1
:102184005b7d00005d5c00004c3a000052220000c0
:10219400413c0000493e00004a3f000000000000ae
:1021a4001281000059810000148000001182000097
:1021b4005883000000000000148000001182000019
:1021c40000000000708500006c8600007d8c00001b
:1021d40071840000698700007a8d00007588000012
:1021e400728900006b8a0000748b00005a0d000095
:0421f40000000000e7
:020000040000fa
:1021f80054680000652000007175000069630000e4
:102208006b200000627200006f7700006e200000f3
:10221800666f0000782000006a7500006d7000008d
:10222800206f0000766500007220000074680000ce
:10223800652000006c6100007a79000020640000cd
:082248006f6700002e0000008a
:020000040000fa
:10225000466f00007274000068450000782000009e
:0c226000563000002e310000000000008d
:020000040000fa
:10226c008a1f78000c0578003a0678003c0078004c
:10227c00000401004f0578003a0678003c00780015
:10228c00000401000000fe000e0821000f002100d8
:10229c004ac429003a0678003c007800000401008a
:1022ac000d067800ae0678003c00780000040100b2
:1022bc000d2f7800ba0678003a0678003c007800ba
:1022cc00000401000d2f78009a4678008d86fb00e3
:1022dc000a85e8003a0678003c007800000401000a
:1022ec009d0678003a0678003c0078000004010056
:1022fc009d4678008d86fb003a0678003c007800fd
:10230c00000401002e007800800e7800ae067800e4
:10231c003a0678003c007800000401002e0078009a
:10232c00804e7800ae0678003a0678003c007800c3
:10233c00000401001a0545003a0678003c007800bc
:10234c00000401000d00e000ae067800f9ff3a0031
:10235c000a85e8003a0678003c0078000004010089
:10236c000d00e000ae067800f2ff32000a85e800ae
:10237c003a0678003c00780000040100881f7800c1
:10238c00891f78008d047800ae0678000d04780063
:10239c00ae0678003a0678003c0078000004010094
:1023ac008904e8000848e100040032001a054500e1
:1023bc003a0678003c007800000401000a85e80029
:1023cc00cf0478004f0478003a0678003c0078007f
:1023dc00000401000d2f7800890678003a06780079
:1023ec003c007800000401000d2f7800ffbe970020
:1023fc003a0678003c00780000040100cf04780015
:10240c004f0478003a0678003c0078000004010084
:10241c000d2f78003a0678003c007800000401008b
:10242c001e0078000d2f7800002f78003a067800f7
:10243c003c007800000401000d00e00001003200b7
:10244c000d2f78003a0678003c007800000401005b
:10245c00ae0678003a0678003c00780000040100d3
:10246c00ae067800ae0678003a0678003c0078009c
:10247c00000401000d0078009e067800000f780023
:10248c003a0678003c007800000401007eb8970002
:10249c007dbf9f00800678006eb897009e00780084
:1024ac0061bf9f00000f78003a0678003c0078006e
:1024bc00000401000d0078009e067800feb897001d
:1024cc00010f780070bf9f003a0678003c0078003e
:1024dc00000401000d0078009e067800feb89700fd
:1024ec00010f780070bf9f003a0678003c0078001e
:1024fc00000401000d2f7800febe97003a0678000c
:10250c003c007800000401000e87e9003a067800d0
:10251c003c007800000401008d1f7800ae067800a6
:10252c003a0678003c007800000401000d2f78007a
:10253c00cf0678003a0678003c00780000040100d1
:10254c000d2f7800ffbe97003a0678003c0078000b
:10255c00000401000d2f78008e0678003a067800f2
:10256c003c007800000401000d077800ae067800ee
:10257c003a0678003c007800000401000d2f78002a
:10258c008f0678003a0678003c00780000040100c1
:10259c008d077800ae0678003a0678003c0078008b
:1025ac00000401001e0078000d0f7800002f780049
:1025bc003a0678003c00780000040100ae86460024
:1025cc003a0678003c007800000401002e007800e8
:1025dc008d0650003a0678003c007800000401009b
:1025ec001d00b0003a0678003c00780000040100a1
:1025fc002d00b0003a0678003c0078000004010081
:10260c001d00b1003a0678003c007800000401007f
:10261c002d00b1003a0678003c007800000401005f
:10262c008d8646003a0678003c00780000040100d4
:10263c008d06d1003a0678003c00780000040100b9
:10264c008d06d0003a0678003c00780000040100aa
:10265c008d06d1003a0678003c0078000004010099
:10266c001d0078002e004000800e7800ae06780029
:10267c003a0678003c007800000401007eb8970010
:10268c008d007800ae067800010f40000d80b00080
:10269c003a0678003c007800000401000d00780038
:1026ac00ae0678000d80b900800678003a067800f6
:1026bc003c007800000401002e0178001100090094
:1026cc000d01d800800678003a0678003c007800ae
:1026dc00000401001e017800110009000d01d80052
:1026ec0080067800010f78003a0678003c007800ec
:1026fc00000401002e0078000068e10001003100a8
:10270c000d00fd003a0678003c0078000004010042
:10271c002e0078000d00e100010031000d00fd00dd
:10272c003a0678003c00780000040100ae86660092
:10273c003a0678003c00780000040100ae86760072
:10274c003a0678003c00780000040100ae866e006a
:10275c003a0678003c007800000401008d86ea00ff
:10276c003a0678003c007800000401008d06ea006f
:10277c003a0678003c007800000401001d00b1000e
:10278c008d865e003a0678003c007800000401005b
:10279c008d8646008d865e008d86ea003a067800ae
:1027ac003c007800000401008d8646008d865e009a
:1027bc003a0678003c007800000401000000eb00b1
:1027cc002e68e10001003a000080eb0080067800e2
:1027dc003a0678003c007800000401000000eb0091
:1027ec002e68e100010032000080ea0080067800cb
:1027fc003a0678003c007800000401000080eb00f1
:10280c002e68e10001003c000080ea0080067800a0
:10281c003a0678003c007800000401000080eb00d0
:10282c002e68e100010035000080ea008006780087
:10283c003a0678003c007800000401000000eb0030
:10284c002e68e100010036000080ea008006780066
:10285c003a0678003c007800000401000000eb0010
:10286c002e68e100010031000080ea00800678004b
:10287c003a0678003c007800000401000d2f780027
:10288c002d0020003a0678003c007800000401007e
:10289c002d00b0003a0678003c00780000040100de
:1028ac006268b800800678003a0678003c00780030
:1028bc00000401000d007800ae0678000d017800d0
:1028cc00ae0678008d007800ae0678000000e000bf
:1028dc00030032000000e900008009003119780083
:1028ec003a0678003c007800000401000d007800e6
:1028fc00ae0678000d017800ae0678008d007800e9
:10290c00ae0678000000e000030032000000e90091
:10291c0000800900315978003a0678003c007800b4
:10292c00000401000d2f7800bdbf80003a0678002e
:10293c003c00780000040100b0bf80000d00400096
:10294c00f617e300feff3a00ae0678003a06780070
:10295c003c00780000040100fa37d500f8b7d70026
:10296c000400390000022800fab7b600200020004d
:10297c00f8b7b6000d2f7800cdbf80003a0678006e
:10298c003c007800000401000001eb00f300200083
:10299c00f817ae0003003700f837ec0001003900df
:1029ac00fa37ec00f817d40080007800fa97d600bc
:1029bc008000fd00f837b40001007800fab7b400cd
:1029cc00fa37d500f8b7d700f817d5008381d300b4
:1029dc000402e900f3ff31000d2f78008306780024
:1029ec003a0678003c00780000040100b0bf80007b
:1029fc00320020000280d800c0bf8800d1bf880000
:102a0c003a0678003c007800000401000d007800c4
:102a1c00c3f0b700ae0678003a0678003c007800a8
:102a2c00000401000d007800ae0678000000e00004
:102a3c00050032009e1a0200000000003a067800e1
:102a4c003c00780000040100ae1a020000000000f7
:102a5c003a0678003c00780000040100c870ec00d5
:102a6c0000022200a10c2100ff020900801878004e
:102a7c00c430ef00c930a900c870ed003a067800e8
:102a8c003c00780000040100bc1a020000000000a9
:102a9c003a0678003c00780000040100e21a0200bb
:102aac00000000003a0678003c00780000040100a9
:102abc000d2f7800c4d0bf00800678008d86fb00f7
:102acc003a0678003c007800000401000d2f7800d5
:102adc00c5d0bf00800678008d86fb003a067800d2
:102aec003c00780000040100c870ec00c930af0055
:102afc00881a020000000000c930a900f003200071
:102b0c000068e10001003e000d007800c4f0b70041
:102b1c00c870ed00ae0678003a0678003c007800ec
:102b2c0000040100c870ec00c930af00881a020024
:102b3c0000000000c930a9007868e10001003900ec
:102b4c007d0120000d007800c5f0b700c870ed00c5
:102b5c00ae0678003a0678003c00780000040100cc
:102b6c00c870ec00c930af00881a020000000000e9
:102b7c00c930a900c470ed0008003b00c570ed0021
:102b8c0003003b00e21a020000000000c570ef00d9
:102b9c00000420000000e900c4f0b700c870ed008c
:102bac003a0678003c00780000040100c870ec0084
:102bbc00c930af00881a020000000000c930a9001b
:102bcc00c470ec0000042000c450e300080039007d
:102bdc00c470ef00c570ec0080012000c550e3000c
:102bec0003003900bc1a020000000000c570ed00a3
:102bfc00c870ed003a0678003c0078000004010033
:102c0c00c870ec00c930af00881a02000000000048
:102c1c00c930a900881a020000000000c870ed003d
:102c2c003a0678003c00780000040100c870ec0003
:102c3c00c930af00881a020000000000c930a9009a
:102c4c0000c4b300c550bc00c4d0bf000080fb0062
:102c5c0002004000a10c2100810040008d4878004a
:102c6c00ae067800c870ed00d0ff3700c870ec00dd
:102c7c00c930af00881a020000000000c930a9005a
:102c8c00f0032000c4f0b700c870ed00c7ff370098
:102c9c000d2f78000d022000e4ff3700c870ec0007
:102cac00c930af00881a020000000000c930a9002a
:102cbc00a20c2100800120000068e1000600310018
:102ccc00000420000068b80002014000000222004d
:102cdc001f00090000197800c870ed00ae067800de
:102cec003a0678003c007800000401006a190200e2
:102cfc00000000000d2f7800800678000000e00036
:102d0c00020032000d2f78008086eb003a06780026
:102d1c003c007800000401006a1902000000000069
:102d2c000000e000fcff32000d2f780080067800d8
:102d3c003a0678003c007800000401000d00780091
:102d4c00521b0200000000008d86e8003a06780055
:102d5c003c00780000040100b617e20005003a00c0
:102d6c002322af00030037002d118800ae06780037
:102d7c000d00370000012000b617e300feff320003
:102d8c00b9d7bf000080fb00617a210081004000b0
:102d9c008d487800ae067800b637ec00b977ec00b9
:102dac00f0002000b977b6003a0678003c007800b5
:102dbc00000401000d2f7800ba17e20001003a0060
:102dcc00fdff3700bcd7bf000080fb0061792100fc
:102ddc008100400091467800ba37ed00bc77ec00da
:102dec00f0002000bc77b6003a0678003c00780072
:102dfc00000401007d088800cd4888008d06d100b4
:102e0c00dd488800ae06780013e1a800edbf88000d
:102e1c00ae0678003a0678003c0078000004010009
:102e2c00154ea9002000200048e2b7004002ae0079
:102e3c00feff3700401280008d007800ae0678004f
:102e4c00821b0200000000000d017800ae06780025
:102e5c000100e000070032003240780048e2b70081
:102e6c004002ae00feff3700401280008100e900f6
:102e7c00f7ff3700154ea8003a0678003c007800a2
:102e8c0000040100154ea9003000200048e2b700f4
:102e9c004002ae00feff3700401280008d0078002b
:102eac00ae067800821b0200000000000d017800c5
:102ebc00ae067800832420000100e00006003200fa
:102ecc0048e2ef004002ae00feff370013597800d5
:102edc008100e900f8ff3700154ea8003a0678008b
:102eec003c00780000040100a81b02000000000058
:102efc0014cea9006000200048e2b7004002ae00ea
:102f0c00feff37004012800014cea8000000000025
:102f1c0014cea9002000200048e2b7004002ae0009
:102f2c00feff370040128000c86edd000d2f7800c8
:102f3c008006eb008d86d200821b02000000000090
:102f4c000d017800ae0678000310200032407800a6
:102f5c0048e2b7004002ae00feff3700401280008e
:102f6c008301e900f9ff3a0014cea8003a06780074
:102f7c003c00780000040100a81b020000000000c7
:102f8c0014cea9003000200048e2b7004002ae0089
:102f9c00feff370040128000c86edd000d2f780058
:102fac008006eb008d86d200821b02000000000020
:102fbc000d017800ae0678000310200048e2ef0007
:102fcc004002ae00feff370040128000005978002e
:102fdc008301e900f9ff3a0014cea8003a06780004
:102fec003c007800000401000d2f78002d7e21009c
:102ffc003a0678003c007800000401000d2f7800a0
:10300c004d7e21003a0678003c0078000004010057
:10301c000d2f78006d7e21003a0678003c00780078
:10302c00000401000d2f78008d7e21003a067800f7
:10303c003c007800000401000d2f7800ad7e2100cb
:10304c003a0678003c007800000401000d2f78004f
:10305c00cd7e21003a0678003c0078000004010087
:10306c000d2f7800ed7e21003a0678003c007800a8
:10307c00000401000d2f78000d7f21003a06780026
:10308c003c007800000401000d2f78002d7f2100fa
:10309c003a0678003c007800000401000d2f7800ff
:1030ac004d7f21003a0678003c00780000040100b6
:1030bc000d2f78008d1229003a0678003c0078001c
:1030cc00000401000d2f7800fdff2c003a0678005b
:1030dc003c007800000401000d2f78000d08200042
:1030ec003a0678003c007800000401000d2f7800af
:1030fc000d0220003a0678003c0078000004010024
:10310c000d2f7800fd0120003a0678003c00780075
:10311c00000401000d2f78000d0220003a06780003
:10312c003c007800000401000d2f78000d052000f4
:10313c003a0678003c007800000401000d2f78005e
:10314c000d0520003a0678003c00780000040100d0
:10315c000d2f7800edff2c003a0678003c0078002b
:10316c00000401000d2f78006d1329003a06780039
:0c317c003c00780000040100ffff370059
:020000040000fa
:1031880080bc80009217e30001003a0000000600ae
:10319800017721008100400011a0a600300037000f
:1031a800110078000000d1002d0031008000eb00f4
:1031b800820020000010a5000180b0000201e90093
:1031c800fcff3b000100a60025003700f00fb2000d
:1031d800010f20000100e10002003a0094d7a80086
:1031e8001f003700010e20000100e10002003a0034
:1031f80094b7a8001a003700410120000008e10038
:1032080005003a009437a90094d7ae009437a80077
:1032180094d7a90094b7a900a10a20000008e100ea
:1032280002003a0094f7a8000d00370011022000b0
:103238000008e10003003a009437ae0001003700af
:103248000000fe00e17b210002bf800081004100f8
:10325800804878001200b000f201b20002bf880076
:1032680090b7ec00f00120009037b600000006008f
:103278000000eb00f1be800002bf80000208e10000
:1032880007003200e27b210002814000de37ec00bb
:10329800f0012000de37b600124078000080fb0005
:1032a80000000600320078000000e000060032004e
:1032b800800178008381fb000118e100f9ff3a00e2
:1032c8000080fd000080fb00000006003200f800ce
:1032d8003c190200000000000000e000520032002b
:1032e8008000780094d7ae000300370094b7af0091
:1032f8000a0037002900370094b7ae000e003700e7
:1033080000c2fe00420e290056190200000000000b
:103318000000e000010032004100370000c2fe005a
:10332800e20d290056190200000000000000e0002c
:103338003a0032001f0037009417ae00060037002d
:1033480000c2fe00620a29005619020000000000af
:103358000000e00032003a0000c2fe00a20329008b
:1033680056190200000000000000e0000b003200c7
:10337800110620000100e10029003900a107200002
:103388000100e10026003e009477ae000050a20044
:103398009417af000050a2002100370000c2fe00c1
:1033a800220d290056190200000000000000e0006c
:1033b8001a003200110820000100e10004003a0060
:1033c8009417a90094d7ae009417a80013003700eb
:1033d800310820000100e10003003a0094d7ae0054
:1033e8009477aa000d003700010820000100e100d1
:1033f80004003a009437a90094d7ae009437a80087
:1034080006003700210820000100e10003003a000f
:103418009457a90094d7ae009437a8000000eb0099
:1034280094d7a90094b7a9003200f900000006005b
:10343800106ea900108ea90000348000f10f2e0034
:103448000100600001802000010070000034880045
:103458001034800001fe2f000100600001012000ef
:103468000100700010348800b0022000101388009a
:103478006402a800c0152100600888002048880060
:10348800804888008014200030488800a038200038
:103498007048880050c021000048880050488800c3
:1034a800f0ff28004228b600000025004228b70097
:1034b800f08f2f004228b600005020004228b700a5
:1034c800c0b0ef00c2f0ef00c3f0ef0000e8a900c1
:1034d80020e8a80011e1a800d01420003086880058
:1034e800c870ef00c910a800c930a9000000060084
:1034f800c630ed000100320000000600d0142000a4
:1035080030868800c930aa00c870ec0000c4b30037
:10351800c550bc00c4d0bf000080fb0002004000c2
:10352800a10c2100810040001174a200c870ed00b8
:1035380000000600c910af0000000600d0142000eb
:1035480030868800c870ef0010002000c9f0b7006e
:1035580000000600c870ec00c930af00881a0200ed
:1035680000000000c970ef00c870ed000000060000
:10357800c870ec00c930af00881a020000000000d3
:10358800c930a900a10c210000042000010140005d
:1035980003602000808151008301d1008301e9008c
:1035a80003800900b2187800000222001f000900f9
:1035b80080187800c870ed0000000600c870ec00a4
:1035c800c930af00881a020000000000c930a90005
:1035d800a10c210000602000808040000004200031
:1035e80000815000df0209004121780000018100bc
:1035f8001f00090000217800c870ed0000000600d7
:1036080000002c00162eb7000080ea00a026ef006c
:1036180000f02200a026b700c228a80070002000f1
:103628004a28b7000288a9002288a80000012000c3
:1036380004a1b700d022220010088800f0ff28005b
:103648004028b600000023004028b70000402000b2
:1036580050bb88000068a9002068a80005e1a80000
:10366800000006002288a90015eea90011eea900a5
:1036780031022000c708dd000180090000000000b9
:1036880015cea90011cea90011eea80095f7a80043
:103698000288a9002288a800000006008000eb002c
:1036a800720020000010a5000180b0000201e900ae
:1036b800fcff3b000100a6000080a0000090a000d5
:1036c80060bb8800a000200070bb8800361b020089
:1036d8000000000095f7af0000000600005c200025
:1036e800142eb7000080ea00102eb60070122000d9
:1036f8001012880041e2a800000006000d007800c2
:10370800ae06780048e2b7004002ae00feff370080
:10371800401280000d0078000080fd0048e2b700ec
:103728004002ae00feff3700401280000d00780016
:1037380048e2b7004002ae00feff370040128000aa
:10374800ae0678000000060014cea9005000200044
:1037580048e2b7004002ae00feff3700401280008a
:1037680048e2ef004002ae00feff370014cea8008a
:103778004802af00f4ff370000000600116ea900f0
:10378800f00f2e008826b600003020008826b700eb
:1037980000fe2f00c426b600c0022000c426b700d1
:1037a800601c20004011880021e2a80080ff2f0043
:1037b8004628b600300020004628b700f0ff280051
:1037c8004428b600000023004428b7000188a90057
:1037d8002188a8000168a9002168a8002462ef00d8
:1037e8002342a800000006004427ef004004200000
:1037f800303a880042e7a800c1e8a9000e2eef0081
:103808001c1a020000000000041b02000000000057
:10381800c21b020000000000721b02000000000032
:103828002c1c02000000000042c7a800f00f200076
:10383800521b02000000000030022000e12e200090
:103848000100b80000800900000000000000060028
:10385800f0fd2f00102eb600f00f2e008226b600c5
:10386800002021008226b7001629ef0050402000d2
:10387800a048880000012000900888000000060089
:08388800d4890000dc8300007c
:020000040000fa
:04fffc00f48b000082
:020000040000fa
:02000004000af0
:04afe000dfff00008f
:020000040000fa
:02000004000af0
:04afe400ffff00006b
:020000040000fa
:02000004000af0
:04afe8005fff000007
:020000040000fa
:02000004000af0
:04afec009aff0000c8
:020000040000fa
:02000004000af0
:04aff000fbff000063
:020000040000fa
:02000004000af0
:04aff400ffff00005b
:00000001FF
