:020000040000fa
:080000000002040000000000f2
:020000040000fa
:04000800b20300003f
:020000040000fa
:04000c00b20300003b
:020000040000fa
:04001000b203000037
:020000040000fa
:04001400ac03000039
:020000040000fa
:04001800a60300003b
:020000040000fa
:04001c00b20300002b
:020000040000fa
:04002000b203000027
:020000040000fa
:04002400b203000023
:020000040000fa
:04002800b20300001f
:020000040000fa
:04002c00b20300001b
:020000040000fa
:04003000b203000017
:020000040000fa
:04003400b403000011
:020000040000fa
:04003800b20300000f
:020000040000fa
:04003c00b20300000b
:020000040000fa
:040040009a02000020
:020000040000fa
:040044002c0200008a
:020000040000fa
:04004800b2030000ff
:020000040000fa
:04004c00b2030000fb
:020000040000fa
:04005000b2030000f7
:020000040000fa
:0400540000030000a5
:020000040000fa
:040058004e03000053
:020000040000fa
:04005c00b2030000eb
:020000040000fa
:04006000b2030000e7
:020000040000fa
:04006400b2030000e3
:020000040000fa
:04006800b2030000df
:020000040000fa
:04006c00b2030000db
:020000040000fa
:04007000b2030000d7
:020000040000fa
:040074009c030000e9
:020000040000fa
:04007800d6030000ab
:020000040000fa
:04007c00b2030000cb
:020000040000fa
:04008000b2030000c7
:020000040000fa
:04008400b2030000c3
:020000040000fa
:04008800b2030000bf
:020000040000fa
:04008c00b2030000bb
:020000040000fa
:04009000b2030000b7
:020000040000fa
:04009400b2030000b3
:020000040000fa
:04009800b2030000af
:020000040000fa
:04009c00b2030000ab
:020000040000fa
:0400a00074030000e5
:020000040000fa
:0400a400b2030000a3
:020000040000fa
:0400a800b20300009f
:020000040000fa
:0400ac00b20300009b
:020000040000fa
:0400b000b203000097
:020000040000fa
:0400b400b203000093
:020000040000fa
:0400b800b20300008f
:020000040000fa
:0400bc00b20300008b
:020000040000fa
:0400c000b203000087
:020000040000fa
:0400c400b203000083
:020000040000fa
:0400c800b20300007f
:020000040000fa
:0400cc00b20300007b
:020000040000fa
:0400d000b203000077
:020000040000fa
:0400d400b203000073
:020000040000fa
:0400d800b20300006f
:020000040000fa
:0400dc00b20300006b
:020000040000fa
:0400e000b203000067
:020000040000fa
:0400e400b203000063
:020000040000fa
:0400e800b20300005f
:020000040000fa
:0400ec00b20300005b
:020000040000fa
:0400f000b203000057
:020000040000fa
:0400f400b203000053
:020000040000fa
:0400f800b20300004f
:020000040000fa
:0400fc00b20300004b
:020000040000fa
:04010000b203000046
:020000040000fa
:04010400b203000042
:020000040000fa
:04010800b20300003e
:020000040000fa
:04010c00b20300003a
:020000040000fa
:04011000b203000036
:020000040000fa
:04011400b203000032
:020000040000fa
:04011800b20300002e
:020000040000fa
:04011c00b20300002a
:020000040000fa
:04012000b203000026
:020000040000fa
:04012400b203000022
:020000040000fa
:04012800b20300001e
:020000040000fa
:04012c00b20300001a
:020000040000fa
:04013000b203000016
:020000040000fa
:04013400b203000012
:020000040000fa
:04013800b20300000e
:020000040000fa
:04013c00b20300000a
:020000040000fa
:04014000b203000006
:020000040000fa
:04014400b203000002
:020000040000fa
:04014800b2030000fe
:020000040000fa
:04014c00b2030000fa
:020000040000fa
:04015000b2030000f6
:020000040000fa
:04015400b2030000f2
:020000040000fa
:04015800b2030000ee
:020000040000fa
:04015c00b2030000ea
:020000040000fa
:04016000b2030000e6
:020000040000fa
:04016400b2030000e2
:020000040000fa
:04016800b2030000de
:020000040000fa
:04016c00b2030000da
:020000040000fa
:04017000b2030000d6
:020000040000fa
:04017400b2030000d2
:020000040000fa
:04017800b2030000ce
:020000040000fa
:04017c00b2030000ca
:020000040000fa
:04018000b2030000c6
:020000040000fa
:04018400b2030000c2
:020000040000fa
:04018800b2030000be
:020000040000fa
:04018c00b2030000ba
:020000040000fa
:04019000b2030000b6
:020000040000fa
:04019400b2030000b2
:020000040000fa
:04019800b2030000ae
:020000040000fa
:04019c00b2030000aa
:020000040000fa
:0401a000b2030000a6
:020000040000fa
:0401a400b2030000a2
:020000040000fa
:0401a800b20300009e
:020000040000fa
:0401ac00b20300009a
:020000040000fa
:0401b000b203000096
:020000040000fa
:0401b400b203000092
:020000040000fa
:0401b800b20300008e
:020000040000fa
:0401bc00b20300008a
:020000040000fa
:0401c000b203000086
:020000040000fa
:0401c400b203000082
:020000040000fa
:0401c800b20300007e
:020000040000fa
:0401cc00b20300007a
:020000040000fa
:0401d000b203000076
:020000040000fa
:0401d400b203000072
:020000040000fa
:0401d800b20300006e
:020000040000fa
:0401dc00b20300006a
:020000040000fa
:0401e000b203000066
:020000040000fa
:0401e400b203000062
:020000040000fa
:0401e800b20300005e
:020000040000fa
:0401ec00b20300005a
:020000040000fa
:0401f000b203000056
:020000040000fa
:0401f400b203000052
:020000040000fa
:0401f800b20300004e
:020000040000fa
:0401fc00b20300004a
:020000040000fa
:04020000b203000045
:020000040000fa
:04020400b203000041
:020000040000fa
:04020800b20300003d
:020000040000fa
:04020c00b203000039
:020000040000fa
:04021000b203000035
:020000040000fa
:04021400b203000031
:020000040000fa
:04021800b20300002d
:020000040000fa
:04021c00b203000029
:020000040000fa
:04022000b203000025
:020000040000fa
:04022400b203000021
:020000040000fa
:04022800b20300001d
:020000040000fa
:04022c00b203000019
:020000040000fa
:04023000b203000015
:020000040000fa
:04023400b203000011
:020000040000fa
:04023800b20300000d
:020000040000fa
:04023c00b203000009
:020000040000fa
:04024000b203000005
:020000040000fa
:04024400b203000001
:020000040000fa
:04024800b2030000fd
:020000040000fa
:04024c00b2030000f9
:020000040000fa
:04025000b2030000f5
:020000040000fa
:04025400b2030000f1
:020000040000fa
:04025800b2030000ed
:020000040000fa
:04025c00b2030000e9
:020000040000fa
:04026000b2030000e5
:020000040000fa
:04026400b2030000e1
:020000040000fa
:04026800b2030000dd
:020000040000fa
:04026c00b2030000d9
:020000040000fa
:04027000b2030000d5
:020000040000fa
:04027400b2030000d1
:020000040000fa
:04027800b2030000cd
:020000040000fa
:04027c00b2030000c9
:020000040000fa
:04028000b2030000c5
:020000040000fa
:100400000e2eef00600020004a28b7000f002100e8
:100410000e082100cb2321000e0078008001b100de
:100420000001880001c4fe0040c7af00050037008e
:1004300000c2fe006a0b2c003a0678003c007800ef
:100440000004010000c2fe008a022c003a06780077
:080450003c00780000040100eb
:020000040000fa
:1004580000e8a90061e2a900801f7800a232ec0040
:100468001900320060002000a212e3001c003200d4
:10047800c0002000a212e3001c003200200120006e
:10048800a212e3001c00320020032000a212e300a5
:100498001f003200200f2000a212e30021003200ca
:1004a800f0102000a452e200010032000000e80031
:1004b800a212e30002003a00a4f2ee00a2b2ef009a
:1004c8004f00780000400600400a200030488800ad
:1004d800e08a20002048880060088800f8ff37007c
:1004e800a080200030488800f5ff3700400a20002f
:1004f80030488800f2ff3700801420003048880018
:10050800c01521002048880060088800ecff3700eb
:10051800a552e200eaff320000c8a90020c8a800de
:10052800e7ff370020c8a900e5ff370000c8a90089
:10053800809fbe00829fbe00849fbe00861f7800f9
:100548003200f800119580002103b100e7826000b5
:10055800c308de00020420000110b80004a02c002b
:1005680004024000237f2a00904880006300600056
:10057800000601000000000000000000000000006c
:1005880061e2a8000200e0001200320001c0fe0093
:10059800344078000003eb000070a7000083eb00f4
:1005a800f007b2004300dd008080410085804000f4
:1005b80000c2fe00114078000670a7000080ea0023
:1005c8006022ab00feff3a0068e2b7000201e900d2
:1005d800ecff37006022ab00feff3a006822ef0014
:1005e8003200f9004f0378004f02be004f01be00f1
:1005f8004f00be00004006000168a9000d2f7800da
:100608002202ae00210037003d118000736ce1002a
:1006180002003a003a12a8001c003700716ce10091
:1006280002003a003a12a90018003700636ce10092
:1006380003003a0010002000e09488000000fe004b
:10064800809fbe0039d2bf000080fb00211f21001f
:10065800810040008d4878003a92a8003632ec00bc
:100668003972ec00f00120003972b60081002000d8
:10067800010050003652e300030039003001200029
:1006880024e2b7003a32a8004f00be00ae06780058
:10069800004006003a12af00004006000188a90099
:1006a800809fbe003212e2000b00320034d2bf003d
:1006b8000080fb00212121008100400011407800ca
:1006c80024e2b7008048eb003232ed003472ec00cf
:1006d800f00120003472b6004f00be000040060052
:1006e80003c8a900809fbe00829fbe00b011800091
:1006f80031c0b300000ce10003003a0010002000f4
:10070800e09488000000fe008126210052948000b9
:1007180081004100804878001200b000f201b20068
:10072800529488004f01be004f00be0000400600f2
:100738000268a9008c32ef0013aeae008c12a8003c
:100748000040060020002000e09488000000fe0021
:1007580040002000e09488000000fe000000fe0039
:100768000068a900809fbe00829fbe009632ec0000
:10077800ac12e20003003200ac32ed0001003a0096
:1007880013e1a900aa52e20003003a00ab12af003d
:10079800703e0200000000004f01be004f00be0086
:0807a800004006000000fe0005
:020000040000fa
:1007b000000000008445000058490000540000007b
:1007c000822c0000582c0000e0830000da83000037
:1007d00084430000414c00004c0000008a2c0000c3
:1007e000e8830000a52800004c49000054290000bf
:1007f0009a2c0000f2830000a6280000434c000061
:100800004954000029000000a42c0000fc830000d3
:10081000a828000042520000414e0000434800005a
:1008200029000000b02c000008840000a928000066
:1008300054420000524100004e430000482900008d
:10084000b82c000016840000a92800003f420000d8
:10085000524100004e43000048290000c62c000011
:1008600024840000a4280000444f00002900000058
:10087000d42c000032840000a52800003f44000072
:100880004f290000e62c00003c840000a628000050
:100890004c4f00004f50000029000000f82c0000d1
:1008a00046840000a72800002b4c00004f4f00009a
:1008b00050290000122d00005284000083490000de
:1008c00050400000302d00005e8400008652000081
:1008d000454200004f4f0000540000003a2d000038
:1008e000668400008745000058450000435500001d
:1008f000544500003c2d000072840000814000003f
:10090000442d00007e84000082430000400000006f
:100910004c2d00008484000082450000400000004f
:10092000562d00008c8400008345000043400000e9
:10093000642d00009484000082320000400000001a
:10094000742d00009c84000081210000822d000095
:10095000a484000082430000210000008c2d0000d0
:10096000aa8400008232000021000000982d0000bf
:10097000b284000081490000a42d0000ba84000068
:10098000814a0000ae2d0000c084000086550000a2
:100990004e4c00004f4f000050000000b82d0000ea
:1009a000c68400008344000055500000c22d0000a2
:1009b000d284000084320000445500005000000042
:1009c000ca2d0000da840000843f00004455000076
:1009d00050000000d62d0000e48400008444000094
:1009e000524f000050000000e22d0000ee84000095
:1009f00085320000445200004f500000ea2d0000f4
:100a0000f8840000845300005741000050000000ab
:100a1000f42d0000028500008532000053570000cd
:100a200041500000002e00000c85000083520000a1
:100a30004f540000142e000016850000842d000085
:100a4000524f000054000000262e00001e850000ba
:100a5000844f00005645000052000000362e000072
:100a600028850000853200004f56000045520000e6
:100a7000402e000032850000834e000049500000e7
:100a80004e2e00003c850000823e00005200000017
:100a9000562e000044850000825200003e000000f7
:100aa000602e00004c8500008252000040000000d3
:100ab0006a2e00005485000083530000504000005f
:100ac000742e00005c85000083530000502100005c
:100ad000802e00006485000083520000504000001a
:100ae000882e00006c850000835200005021000019
:100af000922e0000748500008454000055430000cd
:100b00004b0000009c2e00007c8500008544000006
:100b10004550000054480000a82e000086850000c3
:100b200084500000494300004b000000b62e000036
:100b300090850000853e000043530000544b0000a8
:100b4000c42e00009a850000854300005354000025
:100b50004b3e0000d22e0000a4850000834d000013
:100b600053420000e02e0000ae850000874d0000db
:100b7000415800002d4900004e540000ea2e0000ac
:100b8000b6850000874d0000494e00002d49000049
:100b90004e540000f42e0000c2850000834800007f
:100ba00045580000582c0000f88300001000000099
:100bb00056890000a6840000e0830000ce85000076
:100bc0008744000045430000494d0000414c0000af
:100bd000582c0000f88300000a000000568900002d
:100be000a6840000e0830000e0850000812b000067
:100bf000fe2e0000f6850000812d0000062f00006b
:100c0000fc850000823100002b000000102f000046
:100c100002860000823200002b000000182f000026
:100c20000a860000823100002d000000202f000005
:100c300012860000823200002d000000282f0000e4
:100c40001a860000823200002a000000302f0000c7
:100c500022860000823200002f000000382f0000a2
:100c60002a860000864c00005348000049460000d8
:100c700054000000402f0000328600008652000021
:100c80005348000049460000540000005c2f00005b
:100c90003e860000822b000021000000782f00001b
:100ca0004a860000824d00002b000000862f0000c5
:100cb00052860000812a0000962f00005a8600000c
:100cc000824d00002a000000a02f00006086000076
:100cd000835500004d2a0000ac2f000068860000fc
:100ce00083550000442a0000b82f000070860000e1
:100cf000812f0000cc2f000078860000834d00007b
:100d00004f440000da2f00007e860000822a000097
:100d10002f000000e82f000086860000852a0000d2
:100d20002f4d00004f440000fa2f00008e86000077
:100d3000842f00004d4f0000440000000e300000e2
:100d400098860000865500004d2f00004d4f000092
:100d5000440000001e300000a286000086550000fe
:100d6000442f00004d4f00004400000030300000d0
:100d7000ae860000834d0000415800004c3000005a
:100d8000ba860000834d0000494e00005a30000032
:100d9000c2860000845500004d410000580000004c
:100da00068300000ca860000845500004d490000ec
:100db0004e00000076300000d48600008657000008
:100dc00049540000484900004e00000084300000f3
:100dd000de86000084450000564500004e000000fd
:100de0009c300000ea860000834f0000444400006d
:100df000aa300000f4860000834100004253000046
:100e0000b8300000fc86000084440000414200002d
:100e100053000000c230000004870000835300002c
:100e20003e440000d83000000e870000873f0000dd
:100e30004e4500004741000054450000e8300000e6
:100e400016870000865300004d2f00005245000019
:100e50004d000000582c0000e0840000ac8700002a
:100e6000488500002e8500004885000000870000ae
:100e7000488500000a87000050850000aa8600000f
:100e800008850000508500001e87000008850000ce
:100e9000508500001e870000e083000022870000cc
:100ea000864600004d2f00004d4f0000440000001a
:100eb000582c0000d684000048850000e084000023
:100ec000ac87000048850000488500000a870000c4
:100ed0005885000000870000aa86000008850000f1
:100ee000508500001e870000088500005085000026
:100ef000fc8700002e84000014000000d88700004a
:100f00002e8500002e8400000c0000005885000093
:100f10001a850000fe850000088500001686000086
:100f200050850000f4840000e0830000508700003a
:100f3000834100004e440000f63000009887000016
:100f4000824f000052000000fe300000a087000029
:100f5000835800004f52000006310000a8870000af
:100f6000834e00004f5400000e310000b087000097
:100f7000864900004e560000455200005400000013
:100f80001e310000b887000087440000494e000071
:100f9000564500005254000026310000c48700006e
:100fa000864e000045470000415400004500000007
:100fb00030310000d0870000874400004e4500001b
:100fc000474100005445000038310000dc87000034
:100fd000823000003d00000048310000e88700003a
:100fe000833000003c3e000052310000f0870000da
:100ff000823000003c00000062310000f8870000f1
:10100000823000003e0000006e31000000880000c9
:10101000813d00007e31000008880000823c000015
:101020003e0000008e3100000e880000813c000070
:101030009e31000016880000813e0000ae310000a5
:101040001c880000825500003c000000be310000fa
:1010500022880000825500003e000000ce310000d2
:101060002a88000084430000454c00004c0000002a
:10107000de3100003288000085430000454c00004e
:101080004c2b0000e83100003c8800008543000044
:10109000454c00004c530000f03100004688000031
:1010a000854100004c490000474e0000582c0000cc
:1010b0008e880000f88600002e84000010000000da
:1010c000f8830000000000008e880000ae8400005d
:1010d000f8830000010000000a930000e083000094
:1010e00050880000874100004c490000474e000036
:1010f00045440000fa31000072880000853e00007f
:101100004348000041520000043200007e88000085
:10111000844800004552000045000000582c0000a3
:101120004a89000080840000e08300008888000075
:10113000844d00004f5600004500000012320000b0
:1011400098880000854300004d4f00005645000080
:101150001a320000a2880000864300004d4f0000b4
:10116000564500003e0000003a320000ac88000006
:10117000854300004841000052530000582c0000f5
:10118000e0830000b888000085430000484100006b
:10119000522b0000582c000006860000e08300005f
:1011a000c488000084430000484100005200000051
:1011b000582c0000768a0000ca8d0000d6840000fa
:1011c00088840000ec8700006c900000106d000027
:1011d00069730000736900006e67000020630000ff
:1011e000617200006163000074650000720000001d
:1011f0000686000088840000e0830000d28800009a
:10120000c65b000043480000415200005d00000042
:10121000582c000020970000d88800001694000089
:10122000f883000016930000e083000000890000ae
:1012300084530000434100004e0000005e32000075
:101240001889000084460000494c00004c00000052
:101250008032000022890000892d000054520000d5
:10126000414900004c4900004e4700009e320000fa
:101270002c890000855300005441000054450000b3
:10128000622c00001e0000003a8900008244000029
:1012900050000000622c000012000000468900008f
:1012a000844200004153000045000000622c000011
:1012b00018000000508900008953000059530000b5
:1012c0004c4100005445000053540000622c0000c3
:1012d000020000005c890000864c000041540000c0
:1012e0004553000054000000622c00000400000080
:1012f0006c8900008252000030000000622c000067
:10130000140000007a8900008253000030000000c1
:10131000622c000016000000848900008350000049
:1013200041440000622c0000080000008e8900008b
:101330008354000049420000622c000006000000b7
:10134000988900008550000041530000544500007a
:10135000622c00000a000000a2890000833e000009
:10136000494e0000622c000020000000ae89000001
:101370008248000050000000622c000022000000a3
:10138000b889000086270000534f00005552000026
:1013900043450000622c00000c000000c2890000e0
:1013a00087230000534f00005552000043450000c2
:1013b000622c00000e000000d0890000874200006f
:1013c0004f4f00005444000045560000622c0000be
:1013d0001a000000de890000864200004f4f000026
:1013e000544600004e000000622c00001c0000006b
:1013f000ec89000087520000504200005245000076
:10140000414b0000622c000028000000fa89000017
:101410008544000042470000454e0000622c000059
:101420002a000000088a0000855300005444000090
:10143000494e0000622c000024000000148a0000c5
:1014400086530000544400004f5500005400000033
:10145000622c000026000000208a00008756000051
:1014600045520000534900004f4e0000b4320000c6
:101470002e8a000086520000414d0000454e0000bb
:1014800044000000be3200003a8a00008549000096
:101490004d4d000045440000c8320000468a00005f
:1014a0008648000049440000444500004e0000000a
:1014b000d2320000508a0000854e00004d410000ed
:1014c000524b0000dc3200005c8a0000874c0000b8
:1014d000454e00004d410000534b0000e632000035
:1014e000668a0000824200004c000000f0320000da
:1014f000728a0000875400004942000053490000ee
:101500005a450000fa3200007a8a00008750000035
:1015100041440000534900005a45000004330000d4
:10152000868a0000865500004c4900004d490000a5
:10153000540000000e330000928a00008544000031
:101540004f4300004f4c0000183300009e8a0000fb
:101550008454000052550000450000002233000072
:10156000a88a000085460000414c00005345000059
:101570002c330000b28a0000834400005030000089
:1015800036330000bc8a000087270000534f00005c
:10159000555200004345000040330000c48a00005b
:1015a000875300004f5500005243000045210000c2
:1015b0004e330000d08a0000863f000044490000fe
:1015c0004749000054000000582c0000d684000059
:1015d000f8830000600000002e8800002e840000c8
:1015e00008000000f883000020000000fe850000d5
:1015f000d6840000f8830000390000002e88000027
:101600002e8400001a000000d6840000f883000039
:1016100041000000268800002e8400000800000021
:10162000f883000000000000e0830000f883000061
:1016300007000000fe850000f88300003000000075
:10164000fe850000d68400005689000080840000da
:1016500026880000e0830000dc8a0000873f00004d
:10166000444f0000554200004c450000582c00003b
:101670002e85000088840000f88300002e00000002
:101680000a8800002e84000010000000f88300008b
:1016900001000000848d0000f8830000ffff0000bf
:1016a00012840000180000002e85000088840000cd
:1016b000f88300002c0000000a8800002e8400003f
:1016c0000600000012840000e2ff0000f883000022
:1016d00000000000e08300002e8b0000873e000029
:1016e0004e5500004d42000045520000582c0000ad
:1016f000f88300000000000048850000d684000048
:101700002e840000500000002e8500008884000018
:10171000e48a0000208400002200000050850000c0
:101720002e84000042000000f4840000368b00008c
:101730002e8400003c000000508500005085000011
:10174000f883000002000000a48700004885000024
:101750004885000012840000ccff00005085000086
:10176000f4840000f8830000ffff000048850000bb
:101770004885000012850000568900008084000022
:101780007486000050850000568600001285000017
:10179000f883000001000000848d00001284000026
:1017a000aeff000050850000f4840000e0830000dc
:1017b0006e8b0000853f000053490000474e00003b
:1017c000582c00002e85000088840000048400004e
:1017d0002d0000000a880000208400000a0000009c
:1017e000f883000000000000128400000c000000dc
:1017f000f883000001000000848d0000f8830000e1
:1018000001000000e0830000da8b0000853f00004b
:101810004241000053450000582c00002e85000076
:101820008884000004840000240000000a8800006e
:101830002e8400000e000000f8830000100000005d
:1018400056890000a68400001284000032000000c7
:101850002e8500008884000004840000230000001e
:101860000a8800002e8400000e000000f8830000ab
:101870000a00000056890000a684000012840000bf
:10188000180000002e8500008884000004840000f9
:10189000250000000a8800002e84000012000000cd
:1018a000f88300000200000056890000a6840000b2
:1018b00008850000068600000885000016860000e6
:1018c000e0830000068c0000873f00004e550000ba
:1018d0004d42000045520000582c0000568900007f
:1018e0008084000048850000d6840000f883000052
:1018f00000000000d68400001a850000288f000038
:101900000c8c0000e08b000048850000768b000006
:101910002e8400001000000050850000fe840000ae
:10192000fe840000f8830000000000001284000024
:1019300024000000f48400001a850000f4840000f4
:1019400058850000f88600002e8400000400000086
:10195000e487000050850000f883000002000000ca
:101960009c8700002084000004000000f484000034
:10197000f8830000ffff000050850000568900003a
:10198000a6840000e0830000648c000085570000fe
:101990004f52000044530000582c0000f883000010
:1019a000000000005a8e000074890000808400004e
:1019b000d6840000ec870000208400005e00000058
:1019c000d684000088840000588a00009c870000ac
:1019d0002e840000080000001e8600001284000013
:1019e000e6ff0000d6840000d68400008884000052
:1019f0006e8a00009c870000d6840000288a0000c0
:101a000080840000f8830000409e00000a880000e7
:101a10002e8400000c000000489f00000885000094
:101a2000f48400001284000004000000569b0000b3
:101a3000f8850000f88300004000000026880000c0
:101a400020840000040000005a8e00004885000039
:101a500006860000508500001a9c0000d49b000000
:101a60001e8600000885000006860000088500002c
:101a7000128400009cff0000f48400005a8e0000d5
:101a8000a29d0000e0830000c68c00008555000088
:101a900050500000455200005c330000468d0000ad
:101aa000845300004b490000500000007e330000ca
:101ab000508d000087410000445200003e49000064
:101ac0004e000000582c0000cc8a00001a8500004f
:101ad0001a850000fe850000c6860000f88300001d
:101ae00000000000be860000b2890000a68400004d
:101af000e08300005a8d0000872f0000535400003f
:101b0000524900004e470000582c00001a85000082
:101b10002e850000f88500001a8500001a85000057
:101b2000fe850000e08300007c8d000085500000f1
:101b30004152000053450000582c0000cc8a0000a0
:101b4000b289000080840000848d00002e85000092
:101b5000488500001a8500001e8900002e850000bf
:101b6000088500002e8400000400000006860000a6
:101b7000628d00005085000082850000fe85000017
:101b8000e0830000968d0000845700004f52000053
:101b900044000000582c0000d6840000cc8a0000cd
:101ba000b289000080840000848d00001a85000046
:101bb000568d0000f4840000628d00009c8d0000b2
:101bc0008e8800006c8f00008e880000e08300008b
:101bd000c48d000084460000494e0000440000000f
:101be0009a330000ea8d000084470000455400004d
:101bf00043000000582c00001a8a00008084000076
:101c00007a840000e0830000f48d00008744000027
:101c1000454c00004c41000053540000582c00007b
:101c2000288a000080840000f8830000c29b000026
:101c30000a8800002e84000006000000669c000058
:101c4000e0830000d69e0000e0830000068e0000c6
:101c500087440000454c00004c4900004e45000000
:101c6000582c0000288a000080840000f8830000bf
:101c7000c29b00000a8800002e8400000e000000b5
:101c8000f8830000000000006a9b0000609b0000d9
:101c9000109c0000e0830000f49e0000e083000040
:101ca000288e0000874e0000455700004c49000078
:101cb0004e450000582c0000288a00008084000057
:101cc000f8830000c29b00000a8800002e840000f8
:101cd00006000000ca9b0000e0830000ba9e0000de
:101ce000e0830000528e0000864100004343000064
:101cf0004550000054000000582c00002e850000c4
:101d0000f885000048850000d6840000fa8d0000a8
:101d1000d6840000f88300000d0000000a8800004f
:101d20002e84000016000000f4840000768a000073
:101d30002e850000ae84000008850000fe850000ae
:101d40000686000050850000f4840000e083000057
:101d5000d6840000f8830000080000000a88000014
:101d60002e84000014000000f4840000e0840000d1
:101d70000a88000020840000caff00000e8e0000c8
:101d80001686000012840000c2ff0000d684000006
:101d9000f8830000180000000a8800002e8400006c
:101da0000e000000f4840000308e0000f484000077
:101db000d684000012840000aaff0000d684000030
:101dc000f8830000160000000a8800002e8400003e
:101dd0001a000000f4840000308e0000a889000082
:101de00080840000288f00001a9c0000f48400000a
:101df000d6840000c4900000f88500001284000022
:101e000086ff00002e850000588500000a8800002b
:101e10002084000010000000d6840000b09b000069
:101e20002e850000ae8400000686000012840000ab
:101e30006eff0000f48400001284000068ff0000c0
:101e4000748e0000854300004f5500004e54000082
:101e5000582c0000d68400008884000048850000cb
:101e60000686000050850000e0830000228f0000fd
:101e700085450000525200004f520000582c0000cf
:101e8000d49b0000288f00001a9c0000d49b000007
:101e9000048400003f000000b09b0000f8830000b5
:101ea0000000000040890000a6840000888900002e
:101eb00080840000688500005a8e000012910000a6
:101ec000388f0000883e0000434f0000554e000050
:101ed0005445000044000000582c0000e08400003d
:101ee000ae84000006860000088500009e88000081
:101ef000e0830000628f0000894900004e5400001a
:101f0000455200005052000045540000582c00007b
:101f1000d88a0000f883000000000000b2890000a9
:101f2000a6840000768a0000ca8d0000d6840000d6
:101f3000888400002e840000400000004c8d0000ca
:101f4000f08d0000ea8400002e8400001c000000d8
:101f5000068600004089000080840000ec870000b5
:101f6000a48700002e840000080000007a8400008e
:101f700012840000d8ff00001693000012840000b5
:101f8000d2ff00006c8c00002e84000008000000ce
:101f90007c94000012840000c6ff0000288f00001f
:101fa0001a9c0000f88300003f000000b09b000076
:101fb0005a8e00003e900000f4840000e083000090
:101fc0007c8f000088450000564100004c55000001
:101fd0004154000045000000582c0000cc8a00004d
:101fe0004885000048850000b28900008084000018
:101ff00048850000868f000050850000b2890000ef
:10200000a68400005085000050850000d88a00009a
:10201000e0830000e28f0000824f00004b000000d0
:10202000582c0000569b0000f883000003000000bd
:10203000f8850000f88300004000000018880000c8
:1020400020840000040000005a8e0000d49b000091
:10205000f88300004f000000b09b0000f8830000f0
:102060004b000000b09b0000e08300000c900000db
:1020700085410000424f000052540000582c0000df
:1020800040890000808400002e84000014000000bd
:1020900074890000808400009c910000d6840000b8
:1020a0008084000074890000a68400004a89000032
:1020b000a6840000888900008084000068850000f4
:1020c0001291000038900000a63f0000414200003d
:1020d0004f52000054000000582c0000969400005d
:1020e000088500002e8400000a000000288f0000f0
:1020f0001a9c00005a8e00003e900000f4840000fc
:10210000e083000064900000c6410000424f0000e0
:102110005254000022000000582c000016940000c9
:102120006c900000f8940000e083000084900000b0
:10213000844300004c49000050000000582c00006f
:10214000d6840000a889000080840000a6840000d6
:102150009c8900008084000008850000a889000098
:102160008084000006860000088500009e8800002c
:10217000e08300009890000087470000455400006d
:10218000434c000049500000582c0000a889000072
:1021900080840000288f0000088500002e85000044
:1021a0009c89000080840000088500009e88000053
:1021b000e0830000bc900000a452000045500000e5
:1021c0004c000000582c00009c8900008084000016
:1021d000d6840000f88300003f0000007c8e0000e1
:1021e000d6840000168600009e900000d49b00005c
:1021f000868f000040890000808400002084000059
:1022000004000000109000005a8e000012840000ac
:10221000dcff0000dc900000845100005549000004
:1022200054000000582c00007e89000080840000cb
:1022300078850000f883000000000000408900005d
:10224000a6840000e29000000c910000c12800006c
:10225000582c0000f8830000290000009c8d00002d
:10226000fe840000e083000026910000c15c0000b5
:10227000582c0000cc8a0000f8850000628d000018
:10228000e083000036910000854c00004f430000c1
:10229000414c0000e03300004491000086520000f1
:1022a000454d00004f54000045000000ea33000097
:1022b0004e910000874300004f4e0000534f000036
:1022c0004c450000582c0000569100000a88000080
:1022d000208400000e000000f8830000c29b000074
:1022e000f88300006aa300001284000012000000be
:1022f000b88a00002c9e0000f8830000409e000079
:10230000f8830000a89e0000ae8a00002c9e00000a
:102310001a8a0000a6840000288a0000a684000013
:10232000e08300005a910000874e00004641000003
:102330003e4c000046410000582c0000f88300008d
:1023400002000000fe850000e08300009491000080
:10235000874e0000464100003e4300004641000019
:10236000582c0000d684000088840000f883000008
:102370001f0000009c870000f88500000686000012
:102380007a880000e0830000a8910000853e0000ec
:10239000424f000044590000582c0000d684000031
:1023a00080840000f8830000f43300000a880000f5
:1023b0002e840000040000004288000042880000d3
:1023c000e0830000c6910000874300004641000002
:1023d0003e4e000046410000582c0000d68400000c
:1023e000f883000000130000268800002e840000ff
:1023f0000a000000d6840000ac87000012840000b0
:102400005a000000d684000048850000f8830000d0
:10241000210000004885000016860000d6840000d8
:1024200088840000d6840000f8830000800000004b
:102430009c8700002084000014000000f484000049
:102440005085000016860000d68400002e8400000f
:102450002a0000004885000012840000deff000012
:1024600050850000f4840000f88300001f00000085
:102470009c8700002e850000f8850000068600007d
:102480007a880000508500000a880000d684000089
:102490002e8400000c000000f48400001284000070
:1024a0000a00000050850000f48400000885000048
:1024b000f4840000e0830000e4910000863f000007
:1024c000454d00005054000059000000582c0000f9
:1024d000c08a00008e8800000a880000e0830000a7
:1024e0005e920000894900004d4d00004544000007
:1024f0004941000054450000582c0000669200003d
:102500002084000012000000748900008084000014
:10251000d6840000888400004c8a0000a487000054
:1025200008850000ae840000e08300007292000085
:10253000844800004944000045000000582c000079
:1025400066920000208400001200000074890000e0
:1025500080840000d684000088840000588a00002f
:10256000a487000008850000ae840000e08300001e
:1025700098920000a72800004e4d00004152000034
:102580004b290000582c00006692000020840000b7
:10259000120000007489000080840000d6840000ce
:1025a00088840000628a0000a4870000088500007b
:1025b000ae840000e0830000ba9200008652000062
:1025c00045560000454100004c000000582c00001a
:1025d000669200002084000014000000748900004e
:1025e00080840000d684000088840000588a00009f
:1025f000c08700009c87000008850000ae840000b2
:10260000e0830000de920000854100004c4c000099
:102610004f540000582c00004a8900004e860000ec
:10262000e083000004930000812c0000582c00007f
:102630008e880000a6840000f883000002000000dd
:102640000a930000e083000014930000824300001e
:102650002c000000582c00008e880000ae84000082
:10266000f8830000010000000a930000e0830000ee
:102670002693000081270000582c0000768a000075
:10268000ca8d0000d684000088840000ec8700001a
:10269000469700004c8d0000f08d00002e84000055
:1026a000060000001284000012000000288f0000c5
:1026b0001a9c0000d49b0000f88300003f0000003b
:1026c000b09b00005a8e00003e900000e0830000a6
:1026d0003a930000c35b0000275d0000582c000007
:1026e000209700003c93000016940000f88300003f
:1026f00016930000e08300006a930000c53c0000d0
:102700004d410000524b0000582c00002097000063
:102710008e880000e08300007e930000c83c00002b
:1027200052450000534f00004c5600004500000089
:10273000582c0000209700008e880000fe850000c5
:1027400016930000e08300008e930000c53e000059
:102750004d410000524b0000582c00002097000013
:102760008e880000f883000000000000169300002f
:10277000e0830000a6930000c83e00005245000020
:10278000534f00004c56000045000000582c00003c
:1027900020970000d68400008e8800000885000085
:1027a000fe85000008850000a6840000e08300008c
:1027b000bc930000c15b0000582c0000f8830000af
:1027c0000000000040890000a6840000e0830000b3
:1027d000da930000c15d0000582c0000f88300006f
:1027e000ffff000040890000a6840000e083000095
:1027f000ea930000c95b0000434f00004d50000009
:10280000494c0000455d0000582c00002097000056
:102810003c93000016930000e0830000fa93000050
:10282000c6430000464100002c000000582c000068
:1028300050850000d68400008084000016930000bc
:102840004288000048850000e083000010940000ea
:10285000853f0000574f000052440000582c0000f4
:10286000768a0000ca8d00004c8d0000f08d0000bb
:10287000ea840000ec8700002e8400000e000000b7
:10288000288f00001a9c0000f88300003f00000021
:10289000b09b00003e900000e08300002894000000
:1028a000c85000004f530000545000004f4e00002d
:1028b00045000000582c0000209700002e940000d6
:1028c000048800000c000000f8830000f88300007a
:1028d000169300001284000004000000169300000c
:1028e000e083000050940000c74c000049540000f1
:1028f00045520000414c0000582c00004089000067
:10290000808400002e84000008000000169400005f
:10291000f883000016930000e08300007494000028
:10292000a5280000444f000024290000582c000076
:10293000508500005885000050850000288f000059
:10294000f88500007a8800004885000008850000ae
:1029500048850000e083000090940000a428000057
:102960005322000029000000582c0000969400001b
:10297000288f0000e0830000ae940000a42800002f
:102980004322000029000000582c0000969400000b
:10299000e0830000be940000a42800002e22000066
:1029a00029000000582c000096940000288f000099
:1029b0001a9c0000e0830000cc940000a4530000a7
:1029c0004c49000054000000582c0000f88300001f
:1029d00022000000ca8d0000288f0000e083000064
:1029e000de940000a42800002c2200002900000032
:1029f000582c0000e4940000f88500007a8800005c
:102a00004a890000a6840000e0830000f2940000e0
:102a1000c253000022000000582c00002097000044
:102a200016940000b4940000f8940000e0830000c5
:102a300008950000c243000022000000582c00004e
:102a40002097000016940000c4940000f894000041
:102a5000e08300001a950000c22e00002200000052
:102a6000582c000040890000808400002e84000063
:102a70000a00000016940000d2940000f8940000b0
:102a8000e0830000e49400001a9c0000e083000052
:102a90002c950000c752000045430000555200002d
:102aa00053450000582c0000748900008084000009
:102ab000b091000016930000e08300004a950000ea
:102ac000c24400004f000000582c00002097000076
:102ad00016940000388400008e880000a085000055
:102ae000f883000000000000a0850000e0830000e3
:102af00060950000c33f0000444f0000582c0000c8
:102b00002097000016940000428400008e88000088
:102b1000f8830000020000004c880000f8850000e7
:102b2000a0850000f883000000000000a0850000e0
:102b30001694000012840000ac930000a0850000f1
:102b4000e08300007a950000c54c0000454100007c
:102b500056450000582c00002097000016940000f5
:102b6000ce8400001694000012840000ac93000094
:102b7000a0850000e0830000a4950000e746000067
:102b8000495800004c4f00004f500000582c0000e6
:102b9000aa850000ea8400002e84000014000000d2
:102ba000d68400008e88000042880000088500005e
:102bb000fe85000008850000a68400001284000045
:102bc000e8ff0000aa85000098930000e083000061
:102bd000be950000c44c00004f4f000050000000a4
:102be000582c000020970000169400004e8400002e
:102bf000c6950000e0830000ea950000c52b0000a8
:102c00004c4f00004f500000582c0000209700004f
:102c1000169400005a840000c6950000e08300006e
:102c2000fe950000c542000045470000494e0000e7
:102c3000582c00002097000084930000e0830000df
:102c400012960000c541000047410000494e0000b7
:102c5000582c0000209700001694000012840000f9
:102c600098930000e083000022960000c555000004
:102c70004e540000494c0000582c000020970000e2
:102c8000169400002e84000098930000e08300005a
:102c900036960000c249000046000000582c000093
:102ca00020970000169400002e840000ac930000d2
:102cb000e08300004a960000c4540000484500002c
:102cc0004e000000582c000020970000c693000022
:102cd000e08300005c960000c44500004c530000f7
:102ce00045000000582c00002097000016940000ba
:102cf00012840000ac93000008850000629600007a
:102d0000e08300006c960000c557000048490000b1
:102d10004c450000582c000020970000169400003d
:102d20002e840000ac93000008850000e0830000c2
:102d300084960000c6520000455000004541000046
:102d400054000000582c000020970000169400004a
:102d50001284000098930000c6930000e0830000f6
:102d60009a960000c4430000415300004500000053
:102d7000582c000020970000f8830000000000009d
:102d8000e0830000b2960000c24f00004600000041
:102d9000582c000020970000169400002e8500009b
:102da000169400000a880000169400002e8400008b
:102db000ac930000e0830000c4960000c54500000d
:102dc0004e4400004f460000582c000020970000a1
:102dd0001694000012840000ac93000008850000e7
:102de000c6930000e0830000de960000c7450000a7
:102df0004e4400004341000053450000582c0000a1
:102e000020970000ea8400002e84000008000000e3
:102e1000c693000012840000f6ff00001694000024
:102e2000f4840000e0830000f6960000c83f000034
:102e3000434f00004d500000494c00004500000089
:102e4000582c00004089000080840000ec870000be
:102e50006c900000116300006f6d0000706900004d
:102e60006c650000206f00006e6c0000792000008f
:102e7000776f000072640000e08300001697000086
:102e8000853f00004e4100004d450000582c0000d9
:102e90006c9000000c6e0000616d00006520000069
:102ea0006d69000073730000696e00006700000028
:102eb000e083000040970000873a00004e4f00007a
:102ec0004e4100004d450000582c00008e88000047
:102ed00016940000582c0000ec930000e0830000e2
:102ee0005c970000c545000058490000542c0000c4
:102ef000582c000016940000e0830000e0830000de
:102f000072970000864800004541000044450000db
:102f100052000000582c000074890000d684000084
:102f200080840000169300008e8800000885000051
:102f3000a6840000768a0000ca8d00004c8d000037
:102f400088840000d6840000ec87000046970000cb
:102f5000068600000a93000056880000c292000016
:102f60009e920000e08300008297000086460000e9
:102f70004f5200004745000054000000582c00004c
:102f80003c930000ec9100009c910000d68400006e
:102f9000f8830000008000002e8800006c90000084
:102fa0001a430000616e00002774000020660000d4
:102fb0006f7200006765000074200000776f0000ea
:102fc00072640000206900006e200000464c000082
:102fd0004153000048000000d68400004a890000e8
:102fe000a68400008084000074890000a68400008c
:102ff000e0830000b6970000813a0000582c0000e2
:103000008a970000ec93000016940000582c0000f2
:10301000e0830000fc970000864e0000455700004a
:103020004c4900004e450000454100005445000059
:10303000582c00008a970000e6920000f8830000f8
:10304000f43300001693000016940000e2830000a1
:10305000e0830000582c000050850000d68400005a
:1030600042880000488500008084000074890000c8
:1030700080840000b091000042880000a684000017
:10308000e08300000c980000c54400004f4500009c
:10309000533e0000582c0000169400002a980000af
:1030a0008e880000f8830000020000004c880000b9
:1030b000f8850000169300007897000064970000e0
:1030c000f4840000e083000044980000885600006b
:1030d0004152000049410000424c00004500000000
:1030e000582c000018980000f88300000000000031
:1030f00016930000e08300006698000088430000fb
:103100004f4e000053540000414e00005400000098
:10311000582c00008a970000e6920000f883000017
:10312000782c00001693000016930000e083000046
:103130007e980000c13b0000582c00002097000042
:1031400078970000e6920000dc930000e083000026
:103150009a980000a82800004e4f0000494e000039
:103160004954000029000000582c0000d2940000af
:103170001a5500006e6900006e6900007469000055
:10318000616c0000697a0000656400002064000042
:10319000656600006572000065640000207700002d
:1031a0006f720000640000005a8e00003e90000024
:1031b000aa980000854400004546000045520000e2
:1031c000582c00008a97000016940000582c00002c
:1031d00016940000b498000016940000e0830000ec
:1031e000e6920000e0830000da98000086440000c8
:1031f000454600004552000021000000582c000008
:1032000042880000a6840000e0830000f6980000d9
:103210008644000045460000455200004000000082
:10322000582c00004288000080840000e0830000e9
:10323000089900008249000053000000582c00004b
:103240002e940000f484000042880000a684000050
:10325000e08300001a990000c22e00002800000040
:10326000582c0000f883000029000000ca8d0000df
:10327000288f00001a9c0000e08300002c990000b9
:10328000833200003e520000582c000050850000a0
:10329000248500000885000048850000488500005e
:1032a00048850000e0830000409900008332000060
:1032b000523e0000582c0000508500005085000050
:1032c00050850000088500001a8500004885000030
:1032d000e083000056990000833200005240000055
:1032e000582c0000508500005085000058850000d3
:1032f0002e850000488500001a85000048850000e2
:1033000008850000e08300006c990000843f000005
:103310004453000050000000582c0000608500005d
:103320008889000080840000268800006c900000de
:10333000115300002073000074610000636b0000f3
:10334000207500006e64000065720000666c00006d
:103350006f7700006085000088890000808400008d
:10336000f8830000400000001e860000f885000081
:103370002e8800006c9000001053000020730000a5
:1033800074610000636b0000206f00007665000030
:10339000726600006c6f000077000000e0830000a0
:1033a00086990000822e000053000000582c000077
:1033b0008c850000048400003c000000b09b0000ed
:1033c000d6840000a29d0000048400003e0000009e
:1033d000b09b0000d49b0000ea8400002e84000013
:1033e0000e000000d684000096850000a29d00001b
:1033f0001686000012840000f0ff0000e083000049
:10340000d2990000842e0000525400004e000000ab
:10341000582c00005689000080840000d2850000ee
:103420000484000052000000b09b000004840000ef
:103430003a000000b09b00007e89000080840000fc
:10344000d684000080840000a29d00000e8600004b
:10345000d684000070850000f883000002000000a0
:10346000fe8500000a8800002e840000eaff0000ac
:103470005a8e0000f484000056890000a6840000e3
:10348000e0830000029a000084440000554d0000d3
:1034900050000000582c0000ea8400002084000046
:1034a00004000000e08300005689000080840000d2
:1034b00048850000d285000008850000f8830000e0
:1034c000feff00009c87000008850000f8830000d4
:1034d0000000000038840000bc840000f883000075
:1034e0000f0000009c870000208400000e000000f8
:1034f0005a8e0000d6840000f8830000040000000b
:10350000809d0000d49b0000d684000098840000b9
:10351000f883000003000000809d0000f883000095
:1035200001000000f88500004e840000d6ff000076
:10353000f48400005085000056890000a684000035
:10354000e0830000449a00008544000045420000ea
:1035500055470000582c00000e8a0000a684000089
:10356000e0830000a49a000085420000524500005c
:10357000414b0000582c00000e8a0000808400009f
:103580002084000006000000f4840000e0830000b6
:1035900070850000028a0000a68400005a8e000098
:1035a000d29400000d62000072650000616b0000a3
:1035b000207000006f6900006e7400003a20000067
:1035c000a29d00005a8e0000d69900005a8e00007d
:1035d000e2900000e0830000b49a000086520000f0
:1035e00045530000554d000045000000582c0000d8
:1035f0000e8a0000808400002e8400001600000067
:10360000028a000080840000ea8400002e8400000a
:103610000c00000078850000f88300000000000026
:10362000028a0000a6840000e0830000fe33000050
:10363000ee9a000085560000494400004f4e0000fd
:10364000623400001a9b00008743000055520000be
:10365000454e0000424c00006e340000249b0000e8
:10366000834300004c5300008a340000309b00006c
:1036700086530000435200004c55000050000000eb
:10368000a6340000389b000086530000435200001f
:103690004c4400004e000000b0340000449b000089
:1036a000844700004554000058000000ba34000070
:1036b000509b000084470000455400005900000062
:1036c000c83400005a9b0000845300004554000099
:1036d00058000000d6340000649b000084530000b2
:1036e0004554000059000000f43400006e9b0000b7
:1036f0008643000055520000504f00005300000068
:10370000582c00006a9b0000749b0000e0830000be
:10371000789b0000844c00004546000054000000e7
:10372000123500008a9b00008552000049470000c6
:103730004854000038350000949b00008754000076
:10374000474c000043480000415200006235000031
:103750009e9b0000844500004d490000540000007d
:10376000582c0000288a0000808400007a84000021
:10377000e0830000aa9b0000845000005554000024
:103780004300000078350000bc9b0000824300002d
:103790005200000098350000c69b000085530000d1
:1037a0005041000043450000582c0000f883000001
:1037b00020000000b09b0000e0830000ce9b0000d2
:1037c00086530000504100004345000053000000b4
:1037d000582c0000d6840000f88300000000000090
:1037e0001e8800002084000006000000f484000011
:1037f000e0830000f883000000000000388400002f
:10380000d49b00004e840000fcff0000e083000019
:10381000e09b0000854300004c5200004c4e00002d
:10382000aa3500000a9c0000845400005950000092
:1038300045000000582c0000d684000020840000c1
:1038400006000000fe840000e0830000f883000012
:103850000000000038840000d68400008884000046
:10386000ea8400002e8400000e000000b09b0000df
:10387000068600004e840000f0ff00001284000065
:1038800004000000ce840000f4840000e083000007
:10389000149c000086440000454c00004554000084
:1038a00045000000582c0000768a0000b09b000004
:1038b000e08300004a9c0000884200004143000071
:1038c0004b4300004841000052000000582c00000b
:1038d000909b0000529c0000909b0000e083000041
:1038e0005c9c0000854400004947000049540000ea
:1038f000582c0000f8830000090000002e8500000d
:1039000018880000f8830000070000009c87000072
:10391000f8850000f883000030000000f885000002
:10392000e0830000729c00008745000058540000ae
:103930005241000043540000582c0000b68600009d
:103940001a850000789c0000e0830000949c000031
:10395000823c000023000000582c000092890000e7
:10396000808400008e8a0000f8850000bc89000079
:10397000a6840000e0830000a89c000084480000aa
:103980004f4c000044000000582c0000f883000059
:10399000ffff0000bc8900004e860000bc890000cb
:1039a00080840000ae840000e0830000be9c000024
:1039b00081230000582c00005689000080840000fc
:1039c0009c9c0000c49c0000e0830000d89c000088
:1039d0008223000053000000582c0000da9c0000f5
:1039e000e0840000a487000020840000f8ff0000ad
:1039f000e0830000e89c0000845300004947000079
:103a00004e000000582c0000fc8700002e840000af
:103a100008000000048400002d000000c49c000089
:103a2000e0830000fc9c0000822300003e000000b8
:103a3000582c0000fe840000bc8900008084000037
:103a400092890000808400008e8a0000f8850000c2
:103a50002e850000fe850000e0830000149d00001c
:103a60008353000054520000582c0000d6840000fc
:103a7000488500000a870000ac9c0000ec9c000018
:103a800050850000029d0000189d0000e0830000aa
:103a9000309d0000874300004f4c00004649000065
:103aa0004c4c0000582c0000fe850000d68400001d
:103ab000048800002084000008000000f484000056
:103ac0001284000004000000e89b0000e083000076
:103ad0004a9d0000822e000052000000582c000079
:103ae000488500001287000050850000f49d00000a
:103af000e08300006a9d0000835500002e52000004
:103b0000582c000048850000f883000000000000e9
:103b1000508500000c9e0000e08300007c9d0000aa
:103b2000825500002e000000582c0000f883000091
:103b300000000000d09d0000e0830000909d000088
:103b4000812e0000582c000012870000e49d000028
:103b5000e0830000a09d0000813f0000582c000081
:103b6000f8830000feff00009c87000080840000b6
:103b7000a29d0000e0830000ac9d00008243000095
:103b80003f000000582c000088840000a29d000027
:103b9000e0830000be9d000083550000442e00001d
:103ba000582c0000ac9c0000ec9c0000189d00000c
:103bb000d49b00001a9c0000e0830000cc9d000014
:103bc000824400002e000000582c0000349d0000ac
:103bd000d49b00001a9c0000e0830000e09d0000e0
:103be000834400002e520000582c0000488500003d
:103bf000349d0000508500002e850000529d00007d
:103c00001a9c0000e0830000f09d00008455000035
:103c1000442e000052000000582c0000488500008f
:103c2000ac9c0000ec9c0000189d0000508500003a
:103c30002e850000529d00001a9c0000e0830000c9
:103c4000d2350000069e0000875300004552000058
:103c5000454e0000424c000006360000249e000045
:103c60008442000041550000440000001c36000062
:103c7000309e000085530000505500005443000062
:103c8000423600003a9e0000855300004745000080
:103c90005443000070360000449e0000855600002a
:103ca00054460000494c00005445000052000000fa
:103cb000582c0000d6840000f88300001f0000008c
:103cc0001e8800002e84000004000000e083000035
:103cd000d6840000048400001b0000000a88000055
:103ce0002e84000008000000f48400004a9e0000ba
:103cf000e0830000f8830000849e0000f885000047
:103d000088840000e08300002020000020200000c4
:103d100020200000202000000820000020200000bb
:103d20000c0d0000202000002020000020200000ba
:103d30002020000016200000162000002020000097
:103d40004e9e000085560000544b0000455900006f
:103d5000582c00004a9e0000589e0000e08300009e
:103d6000a29e00008656000054430000524c000002
:103d700046000000582c0000f88300000d000000f1
:103d8000409e0000f88300000a000000409e0000f2
:103d9000e0830000b29e00008956000054440000f9
:103da000454c000042410000434b0000582c0000ed
:103db000f883000008000000409e0000768a0000a2
:103dc000409e0000f883000008000000409e0000b4
:103dd000e0830000cc9e00008756000054440000a1
:103de000454c00004c4e0000582c0000f8830000a9
:103df0001b000000409e0000f88300005b000000f4
:103e0000409e0000f883000032000000409e000049
:103e1000f88300004b000000409e0000f883000083
:103e20000d000000409e0000e0830000ec9e0000ba
:103e300089560000543f00004355000052530000d3
:103e40004f520000582c0000f88300001b000000b7
:103e5000409e0000f88300005b000000409e0000d0
:103e6000f883000036000000409e0000f883000048
:103e70006e000000409e0000e0830000189f0000dc
:103e80008756000054470000455400005958000070
:103e9000582c0000229f00004a9e0000f88300007a
:103ea0001b0000000a8800002e840000f6ff0000be
:103eb0004a9e0000f48400004a9e0000f88300003f
:103ec00030000000fe8500004a9e0000d6840000fd
:103ed000f88300003b0000000a88000020840000f6
:103ee00014000000f883000030000000fe85000090
:103ef00008850000f88300000a0000005c860000ce
:103f0000f88500004a9e0000f48400004a9e0000ec
:103f1000f883000030000000fe8500004a9e00008b
:103f2000d6840000f8830000520000000a880000d8
:103f30002084000014000000f8830000300000001e
:103f4000fe85000008850000f88300000a000000dc
:103f50005c860000f88500004a9e0000f4840000a2
:103f6000e0830000409f0000835800004f4e000097
:103f7000a8360000b49f0000845800004f4600009f
:103f800046000000b2360000bc360000bc9f0000b6
:103f9000845400004f4e000045000000da36000057
:103fa000fa360000c89f00008652000053540000fb
:103fb0004f520000450000007c370000d49f0000f5
:103fc000855200004c4f000041440000bc37000007
:103fd000e09f0000843f00005749000050000000af
:103fe000f6370000ea9f00008457000057490000a0
:103ff00050000000582c0000f09f000020840000ba
:10400000fcff0000e0830000f49f000087450000f3
:104010004557000052490000544500002438000074
:1040200006a0000086450000455200004541000002
:10403000440000008238000012a000008545000006
:104040005041000047450000c03800001ea000009d
:104050008745000053450000435400004f520000c4
:10406000ca38000028a0000084450000414c000030
:104070004c000000d438000034a000008645000049
:10408000455200004153000045000000de380000aa
:104090003ea00000853f0000424f00004f5400004a
:1040a000582c000084a00000f883000008000000e5
:1040b0005aa20000f4890000808400007a84000085
:1040c000a6a00000808400008ea000000a880000e6
:1040d000e08300004aa00000853f00005349000033
:1040e0005a450000582c0000e4a000008084000025
:1040f000e08300006ca000008642000054480000ed
:104100004541000044000000403900007ca0000050
:10411000854d000041470000494300004a39000036
:1041200088a000008646000042540000524f000064
:10413000570000005439000092a0000086420000a1
:1041400054530000494700004e000000582c000066
:1041500084a00000e08300009ea0000087420000d1
:10416000544c00004154000053540000582c0000ef
:1041700084a00000f8830000010000004c880000cb
:10418000f8850000e0830000aea00000844200003b
:104190005444000050000000582c000084a000008f
:1041a000f8830000020000004c880000f885000041
:1041b000e0830000c6a000008642000054530000c7
:1041c000495a000045000000582c000084a000005f
:1041d000f8830000030000004c880000f885000010
:1041e000e0830000dca0000089530000455400007b
:1041f000484500004144000045520000582c000092
:104200008ea00000a6a00000a68400008e880000fa
:10421000cca00000a6840000748900008084000007
:10422000b6a00000a68400008e880000c08a0000ae
:10423000fe850000e4a00000a6840000e0830000ea
:10424000f4a0000086520000414d00003e450000f1
:1042500045000000582c000044990000ea8400004a
:104260002e84000036000000e084000070990000f9
:10427000f883000000010000aa860000f48400001a
:10428000f88300000001000008850000fe850000a2
:10429000c6860000088500002e850000d684000038
:1042a000709900001a850000488500000ea00000eb
:1042b00058850000fe850000508500005a990000d6
:1042c0001a8500005686000012840000c6ff000018
:1042d000f48400005a990000fe840000e08300008e
:1042e00022a10000884b000045590000424f000009
:1042f00041520000440000005e39000072a100003d
:104300008653000043520000454500004e00000067
:104310006839000080a1000086530000455200006b
:10432000494100004c000000723900008ca10000df
:1043300084580000524100004d0000007c3900000c
:1043400098a100008645000045500000524f000033
:104350004d00000086390000a2a100008653000035
:104360004443000041520000440000009039000026
:10437000aea10000864d0000464c000041530000f5
:10438000480000009a390000baa1000087460000ea
:104390004e5f00005245000041440000a439000077
:1043a000c6a10000884600004e5f00005752000082
:1043b0004954000045000000ae390000d2a10000c1
:1043c0008753000045540000424f00004f54000046
:1043d000582c00002e850000e6890000a68400000d
:1043e00008850000d6840000c2a100000a880000f1
:1043f0002e8400001c000000f4840000dca10000fa
:104400000a8800002e8400000a000000f8830000e3
:1044100064a40000128400003e000000f883000045
:10442000a4a400001284000036000000b6a1000021
:104430000a8800002e8400001a000000dca10000a1
:104440000a8800002e8400000a000000f8830000a3
:10445000aea50000128400001e000000f8830000da
:10446000fca500001284000016000000dca1000082
:104470000a8800002e8400000a000000f883000073
:104480002aa100001284000006000000f88300004a
:104490001aa00000f4890000a6840000e083000058
:1044a000e0a10000874200004f4f0000544100008f
:1044b00044520000582c0000e6890000808400006f
:1044c000c2a100000a88000020840000180000003b
:1044d000e689000080840000b6a100000a88000080
:1044e0002e84000022000000f8830000010000007c
:1044f000f883000000000000e0830000f489000061
:1045000080840000f883000064a400000a88000092
:104510002e84000004000000f0a400009aa0000017
:10452000f4a30000e0830000f88300000000000016
:10453000d6840000e083000052a20000853e000007
:10454000424f00004f540000582c0000dca1000036
:10455000e8a1000066920000208400001600000020
:10456000fea0000084a0000072a00000f8830000fc
:1045700008000000f88500005aa20000f48900003d
:10458000808400007a840000e08300009ea2000086
:10459000844200004f4f000054000000582c0000df
:1045a000cea10000e8a1000050a00000b4870000e8
:1045b0006c900000184e00006f200000626f000039
:1045c0006f740000206900006d61000067650000e5
:1045d0002061000076610000696c000061620000eb
:1045e0006c6500002e00000084a0000072a0000096
:1045f000f883000008000000f88500005aa20000bf
:10460000f4890000808400007a840000668900003c
:1046100080840000c08a00008084000012880000ae
:104620006c900000144200006f6f000074200000c6
:10463000696d000061670000652000006f75000073
:104640007464000061740000656400002e000000c6
:10465000cca00000808400004a890000a6840000ed
:10466000b6a000008084000074890000a6840000c9
:10467000e0830000b8390000e8390000023a000089
:10468000c8a20000844500004b450000590000000e
:10469000243a000042a30000843f00004b45000084
:1046a00059000000582c000048a300003ea3000061
:1046b000d68400002e84000006000000f88300006d
:1046c000ffff0000e08300004ca30000834b0000cc
:1046d00045590000582c000052a300002e84000011
:1046e000fcff0000e083000066a30000855400008a
:1046f000424c0000404c0000463a000076a3000007
:1047000085540000424c000040480000563a00002a
:1047100080a300008249000040000000663a0000cb
:104720008aa3000085460000414400004452000076
:10473000823a000092a30000854600004e4500002a
:1047400058540000903a00009e3a0000c63a00001b
:104750009ca300008555000044520000454c000019
:10476000e83a0000aaa30000883f0000464c000081
:10477000494d00004954000053000000582c00002f
:10478000e0840000f883000000800000f88300004f
:1047900000000000b0a30000fc8700002e84000091
:1047a00008000000f883000000000000e083000023
:1047b000e0840000f8830000eb570000f88300005d
:1047c00005000000b0a30000fc870000e0830000ab
:1047d000b4a30000885200004f5700003e4600007e
:1047e0004144000052000000582c0000f8830000f3
:1047f0000008000064860000e0830000eaa30000d7
:10480000864600004552000041530000450000006c
:10481000582c0000f4a30000bea300002e8400006a
:104820001e00000008850000f883000000f800006a
:104830009c87000008850000b88a0000209b0000cb
:1048400098a30000f883000003000000a6a3000066
:10485000ae8a0000209b0000e0830000d699000093
:10486000fe840000e083000000a40000863e0000fb
:10487000464c00004153000048000000582c000046
:10488000bea300002084000008000000fe84000099
:10489000f4840000e083000098a30000a4a30000bb
:1048a000f883000001000000a6a30000e0830000e0
:1048b00036a4000089520000414d00003e46000031
:1048c0004c41000053480000582c0000bea30000db
:1048d0002084000008000000fe840000fe84000028
:1048e000e083000098a30000f883000000000000af
:1048f00038840000d6840000a4a30000f8830000e0
:1049000001000000a6a30000a2a30000f88300009d
:1049100006000000f8850000f88300000600000093
:104920005a840000e8ff0000f4840000e0830000e7
:104930005aa40000894600004c4100005348000082
:104940003e520000414d0000582c00001a85000026
:10495000f88300000000000038840000e0840000bc
:10496000f883000002000000568600004499000011
:104970008ea3000024850000449900002e850000cd
:10498000ae84000006860000508500002e850000e1
:10499000ae84000006860000508500002e850000d1
:1049a000ae840000068600005a990000f8830000db
:1049b000030000005a840000d2ff0000fe840000c3
:1049c000f4840000e08300009aa400008945000000
:1049d0005241000053450000524f00005753000061
:1049e000582c000084a00000e4a00000f88500001e
:1049f00080840000f883000008000000f8850000b3
:104a0000f8830000000c00009e860000088500006e
:104a10002e84000004000000068600009aa000001a
:104a200008850000f88300000000000038840000c2
:104a3000d684000008a40000068600004e84000012
:104a4000f8ff0000f4840000e0830000e6a400000a
:104a50008753000044430000494e000049540000c1
:104a60000e3b000028a50000843f000053440000d6
:104a700043000000d83b000034a50000863f000042
:104a800053440000434f00004b000000582c00002e
:104a90003aa50000f883000001000000f883000040
:104aa000010000003a8600009c870000e0830000bf
:104ab0003ea500008753000044430000524500001b
:104ac00041440000e23b00005aa50000885300006a
:104ad00044430000575200004954000045000000c4
:104ae0002e3c000066a50000874e000053450000e4
:104af000435400004f520000582c0000f88300007f
:104b000000020000fe850000f883000000000000a5
:104b1000be86000008850000f88300000002000047
:104b2000f885000008850000508500005a990000b3
:104b3000f883000001000000568600004499000040
:104b400048850000e083000074a50000874900004c
:104b50004d4700003e53000044430000582c000025
:104b60004499000046a500002084000008000000d1
:104b700030a500002e8400001c0000002e850000df
:104b80007099000070a500007ca50000d68400008c
:104b90002e8400000600000012840000f0ff0000d8
:104ba000fe8400005a990000fe840000e0830000ab
:104bb000d2940000125300004463000061720000b0
:104bc0006420000077720000697400006520000016
:104bd00065720000726f0000720000005a8e0000c3
:104be0003e900000a6a5000087530000444300004b
:104bf0003e4900004d470000582c00004499000039
:104c000046a50000208400000800000030a5000038
:104c10002e840000200000002e8500007099000006
:104c200062a500002e840000160000007ca5000094
:104c3000d68400002e8400000600000012840000cc
:104c4000ecff0000fe8400005a990000fe84000082
:104c5000e0830000d2940000115300004463000080
:104c60006172000064200000726500006164000051
:104c700020650000727200006f7200005a8e000002
:104c80003e900000582c0000f88300009c120000a9
:104c900080840000ec870000e0830000582c0000b6
:104ca0006aa6000068a60000169b00003aa3000058
:104cb000209e0000d09f0000c49f000070a600004e
:104cc0003ca3000030a50000f4840000e083000055
:104cd0009e3c0000ba3c0000ca3c0000d63c0000ec
:104ce000e23c0000ea3c0000f4a50000855400000e
:104cf000494300004b530000043d000076a600002d
:104d00008455000053450000430000000e3d0000a4
:104d100080a60000844d00005345000043000000c1
:104d2000203d00008aa60000844c0000465300008d
:104d300052000000303d000094a6000084520000a4
:104d4000414e000044000000483d00009ea60000c7
:104d500085530000524100004e4400007a3d00009f
:104d6000a8a60000854300004c4500004152000009
:104d7000582c0000c08a00004a890000a684000068
:104d8000668900008084000074890000a684000009
:104d9000e0830000b2a60000865500004e550000da
:104da0005345000044000000582c00009a8a00007f
:104db0008e880000fe850000e0830000cca6000085
:104dc000844600005245000045000000582c0000b9
:104dd000d4a60000a29d0000e0830000e0a6000031
:104de000884800004541000050530000495a000027
:104df000450000008a3d0000f0a600008743000047
:104e000052430000454e0000424c0000943d00001b
:104e1000fea60000883f0000435200004346000009
:104e2000494600004f000000a43d00000aa7000012
:104e300085430000524300004c450000b83d00008f
:104e400018a700008843000052430000535400009c
:104e50004152000054000000c83d000022a700009d
:104e6000854300005243000044570000d23d00003b
:104e700030a700008543000052430000504c000062
:104e8000e83d00003aa700008743000052430000bd
:104e9000504f00004c590000fc3d000044a70000aa
:104ea0008443000052430000400000000a3e00001e
:104eb00050a700008543000052430000444000001a
:104ec000143e00005aa70000844300005243000033
:104ed00030000000223e000064a70000854300006f
:104ee0005243000043210000303e00006ea7000046
:104ef000844300005243000021000000403e0000b7
:104f000078a70000854300005243000044210000c0
:104f10004e3e000082a7000087430000524300007d
:104f2000444f00004e450000623e00008ca7000088
:104f3000854300005243000031360000582c000029
:104f40006aa70000ae8a000006a70000f8830000f0
:104f50000800000036a70000f883000010000000e1
:104f600040a70000f883000021100000f883000033
:104f7000000000004ca70000b88a00001ea7000037
:104f80002ca70000e083000098a7000084430000e5
:104f90005243000037000000582c00006aa70000b0
:104fa000ae8a000006a70000f8830000060000009b
:104fb00036a70000f88300000600000040a70000ac
:104fc000f883000088000000f88300000000000063
:104fd0004ca70000b88a00001ea700002ca7000004
:044fe000e08300006a
:020000040000fa
:104fe40000000000000000000000000000000000bd
:104ff40000000000000f000008080000080800007e
:1050040008080000080f0000000000000000000075
:105014000000000000f80000080800000808000074
:105024000808000008f8000000000000000000006c
:10503400080800000808000008080000080800002c
:105044000000000000ff000000000000000000005d
:105054000808000008ff0000080800000808000015
:10506400000000000000000000000000000000003c
:10507400000000000000000000000000000000002c
:10508400000000000000000000000000000000001c
:105094000000000000ff00000808000008080000ed
:1050a4000808000008ff00000000000000000000e5
:1050b40000000000000000000000000000000000ec
:1050c40008080000080f0000080800000808000095
:1050d4000808000008f8000008080000080800009c
:1050e40080c00000e0f00000e0c00000800000008c
:1050f40001030000070f0000070300000100000087
:10510400000000000000000000000000000000009b
:10511400000000000000000000000000000000008b
:10512400000000000000000000000000000000007b
:10513400000000000000000000000000000000006b
:1051440000000000000000000000000000fe00005d
:10515400103800007c1000001010000000fe000059
:1051640020700000a82000002020000000000000a3
:105174000020000020200000a87000002000000093
:105184004020000010f80000102000004000000043
:105194001020000040f80000402000001000000033
:1051a400000000000080000080800000fe0000007d
:1051b4000000000044fe0000440000000000000065
:1051c40000000000103800007cfe00000000000019
:1051d40000000000fe7c0000381000000000000009
:1051e40000000000000000000000000000000000bb
:1051f40020200000202000002000000020000000eb
:1052040050500000500000000000000000000000aa
:1052140050500000f8500000f8500000500000000a
:1052240020780000a070000028f00000200000009a
:10523400c0c80000102000004098000018000000c2
:1052440060900000a0400000a890000068000000ea
:10525400602000004000000000000000000000008a
:10526400102000004040000040200000100000001a
:10527400402000001010000010200000400000003a
:1052840000200000a8700000a8200000000000001a
:105294000020000020f80000202000000000000092
:1052a400000000000000000060200000400000003a
:1052b4000000000000f000000000000000000000fa
:1052c400000000000000000000600000600000001a
:1052d40000080000102000004080000000000000d2
:1052e4007088000098a80000c888000070000000c2
:1052f400206000002020000020200000f8000000b2
:10530400708800001020000040800000f8000000b9
:10531400f008000008f0000008080000f000000099
:105324001030000050900000f81000001000000041
:10533400f880000080f0000008080000f000000081
:105344003040000080f000008888000070000000f9
:10535400f808000010200000404000004000000059
:1053640070880000887000008888000070000000c9
:1053740070880000887000000808000070000000b9
:105384000060000060000000606000000000000099
:105394000060000060000000602000004000000089
:1053a4001020000040800000402000001000000099
:1053b40000000000f8000000f800000000000000f9
:1053c40040200000100800001020000040000000f1
:1053d4007088000008100000200000002000000079
:1053e4007088000008680000a8a800007000000091
:1053f4007088000088f80000888800008800000099
:10540400f088000088f0000088880000f0000000a8
:105414007880000080800000808000007800000018
:10542400f08800008888000088880000f0000000f0
:10543400f880000080f8000080800000f800000080
:10544400f880000080f800008080000080000000e8
:105454007880000080b000008888000070000000a0
:105464008888000088f80000888800008800000010
:1054740070200000202000002020000070000000a8
:105484007808000008080000089000006000000090
:1054940088900000a0c00000a090000088000000d8
:1054a400808000008080000080800000f800000000
:1054b40088d80000a88800008888000088000000c0
:1054c40088880000c8a800009888000088000000b0
:1054d4007088000088880000888800007000000040
:1054e400f088000088f00000808000008000000048
:1054f4007088000088880000a898000078000000e8
:10550400f088000088f00000a090000088000000ef
:10551400788000008070000008080000f00000009f
:10552400f8200000202000002020000020000000bf
:1055340088880000888800008888000070000000c7
:10554400888800008888000088500000200000003f
:105554008888000088a80000a8d8000088000000ff
:105564008888000050200000508800008800000057
:1055740088880000885000002020000020000000df
:10558400f81000002040000080800000f8000000b7
:105594006040000040400000404000006000000007
:1055a40000800000402000001008000000000000ff
:1055b400180800000808000008080000180000008f
:1055c40020500000880000000000000000000000df
:1055d40000000000000000000000000000f80000cf
:1055e4004020000010000000000000000000000047
:1055f40000000000700800007888000078000000b7
:105604008080000080b00000c8880000f000000026
:10561400000000007080000080880000700000001e
:10562400080800000868000098880000780000005e
:105634000000000070880000f88000007000000086
:105644003048000040e000004040000040000000fe
:1056540000000000788800008878000008700000ce
:1056640080800000b0c80000888800008800000026
:105674000020000000200000202000002000000086
:1056840010000000301000001090000060000000c6
