:020000040000fa
:080000000002040000000000f2
:020000040000fa
:040008005a03000097
:020000040000fa
:04000c005a03000093
:020000040000fa
:040010005a0300008f
:020000040000fa
:040014005a0300008b
:020000040000fa
:040018005803000089
:020000040000fa
:04001c005a03000083
:020000040000fa
:040020005a0300007f
:020000040000fa
:040024005a0300007b
:020000040000fa
:040028005a03000077
:020000040000fa
:04002c005a03000073
:020000040000fa
:040030005a0300006f
:020000040000fa
:040034005c03000069
:020000040000fa
:040038005a03000067
:020000040000fa
:04003c005a03000063
:020000040000fa
:040040008602000034
:020000040000fa
:04004400180200009e
:020000040000fa
:040048005a03000057
:020000040000fa
:04004c005a03000053
:020000040000fa
:040050005a0300004f
:020000040000fa
:04005400ea020000bc
:020000040000fa
:040058000e03000093
:020000040000fa
:04005c005a03000043
:020000040000fa
:040060005a0300003f
:020000040000fa
:040064005a0300003b
:020000040000fa
:040068005a03000037
:020000040000fa
:04006c005a03000033
:020000040000fa
:040070005a0300002f
:020000040000fa
:040074003203000053
:020000040000fa
:040078007e03000003
:020000040000fa
:04007c005a03000023
:020000040000fa
:040080005a0300001f
:020000040000fa
:040084005a0300001b
:020000040000fa
:040088005a03000017
:020000040000fa
:04008c005a03000013
:020000040000fa
:040090005a0300000f
:020000040000fa
:040094005a0300000b
:020000040000fa
:040098005a03000007
:020000040000fa
:04009c005a03000003
:020000040000fa
:0400a0003c0300001d
:020000040000fa
:0400a4005a030000fb
:020000040000fa
:0400a8005a030000f7
:020000040000fa
:0400ac005a030000f3
:020000040000fa
:0400b0005a030000ef
:020000040000fa
:0400b4005a030000eb
:020000040000fa
:0400b8005a030000e7
:020000040000fa
:0400bc005a030000e3
:020000040000fa
:0400c0005a030000df
:020000040000fa
:0400c4005a030000db
:020000040000fa
:0400c8005a030000d7
:020000040000fa
:0400cc005a030000d3
:020000040000fa
:0400d0005a030000cf
:020000040000fa
:0400d4005a030000cb
:020000040000fa
:0400d8005a030000c7
:020000040000fa
:0400dc005a030000c3
:020000040000fa
:0400e0005a030000bf
:020000040000fa
:0400e4005a030000bb
:020000040000fa
:0400e8005a030000b7
:020000040000fa
:0400ec005a030000b3
:020000040000fa
:0400f0005a030000af
:020000040000fa
:0400f4005a030000ab
:020000040000fa
:0400f8005a030000a7
:020000040000fa
:0400fc005a030000a3
:020000040000fa
:040100005a0300009e
:020000040000fa
:040104005a0300009a
:020000040000fa
:040108005a03000096
:020000040000fa
:04010c005a03000092
:020000040000fa
:040110005a0300008e
:020000040000fa
:040114005a0300008a
:020000040000fa
:040118005a03000086
:020000040000fa
:04011c005a03000082
:020000040000fa
:040120005a0300007e
:020000040000fa
:040124005a0300007a
:020000040000fa
:040128005a03000076
:020000040000fa
:04012c005a03000072
:020000040000fa
:040130005a0300006e
:020000040000fa
:040134005a0300006a
:020000040000fa
:040138005a03000066
:020000040000fa
:04013c005a03000062
:020000040000fa
:040140005a0300005e
:020000040000fa
:040144005a0300005a
:020000040000fa
:040148005a03000056
:020000040000fa
:04014c005a03000052
:020000040000fa
:040150005a0300004e
:020000040000fa
:040154005a0300004a
:020000040000fa
:040158005a03000046
:020000040000fa
:04015c005a03000042
:020000040000fa
:040160005a0300003e
:020000040000fa
:040164005a0300003a
:020000040000fa
:040168005a03000036
:020000040000fa
:04016c005a03000032
:020000040000fa
:040170005a0300002e
:020000040000fa
:040174005a0300002a
:020000040000fa
:040178005a03000026
:020000040000fa
:04017c005a03000022
:020000040000fa
:040180005a0300001e
:020000040000fa
:040184005a0300001a
:020000040000fa
:040188005a03000016
:020000040000fa
:04018c005a03000012
:020000040000fa
:040190005a0300000e
:020000040000fa
:040194005a0300000a
:020000040000fa
:040198005a03000006
:020000040000fa
:04019c005a03000002
:020000040000fa
:0401a0005a030000fe
:020000040000fa
:0401a4005a030000fa
:020000040000fa
:0401a8005a030000f6
:020000040000fa
:0401ac005a030000f2
:020000040000fa
:0401b0005a030000ee
:020000040000fa
:0401b4005a030000ea
:020000040000fa
:0401b8005a030000e6
:020000040000fa
:0401bc005a030000e2
:020000040000fa
:0401c0005a030000de
:020000040000fa
:0401c4005a030000da
:020000040000fa
:0401c8005a030000d6
:020000040000fa
:0401cc005a030000d2
:020000040000fa
:0401d0005a030000ce
:020000040000fa
:0401d4005a030000ca
:020000040000fa
:0401d8005a030000c6
:020000040000fa
:0401dc005a030000c2
:020000040000fa
:0401e0005a030000be
:020000040000fa
:0401e4005a030000ba
:020000040000fa
:0401e8005a030000b6
:020000040000fa
:0401ec005a030000b2
:020000040000fa
:0401f0005a030000ae
:020000040000fa
:0401f4005a030000aa
:020000040000fa
:0401f8005a030000a6
:020000040000fa
:0401fc005a030000a2
:020000040000fa
:040200005a0300009d
:020000040000fa
:040204005a03000099
:020000040000fa
:040208005a03000095
:020000040000fa
:04020c005a03000091
:020000040000fa
:040210005a0300008d
:020000040000fa
:040214005a03000089
:020000040000fa
:040218005a03000085
:020000040000fa
:04021c005a03000081
:020000040000fa
:040220005a0300007d
:020000040000fa
:040224005a03000079
:020000040000fa
:040228005a03000075
:020000040000fa
:04022c005a03000071
:020000040000fa
:040230005a0300006d
:020000040000fa
:040234005a03000069
:020000040000fa
:040238005a03000065
:020000040000fa
:04023c005a03000061
:020000040000fa
:040240005a0300005d
:020000040000fa
:040244005a03000059
:020000040000fa
:040248005a03000055
:020000040000fa
:04024c005a03000051
:020000040000fa
:040250005a0300004d
:020000040000fa
:040254005a03000049
:020000040000fa
:040258005a03000045
:020000040000fa
:04025c005a03000041
:020000040000fa
:040260005a0300003d
:020000040000fa
:040264005a03000039
:020000040000fa
:040268005a03000035
:020000040000fa
:04026c005a03000031
:020000040000fa
:040270005a0300002d
:020000040000fa
:040274005a03000029
:020000040000fa
:040278005a03000025
:020000040000fa
:04027c005a03000021
:020000040000fa
:040280005a0300001d
:020000040000fa
:100400000e2eef000f0021000e0821000e007800d4
:100410008001b1000001880001c4fe0000c2fe009e
:100420000a732a003a0678003c00780000040100b4
:020000040000fa
:1004300000e8a90061e2a900801f7800c030ec004c
:100440001900320060002000c010e3001c003200e0
:10045000c0002000c010e3001c003200200120007a
:10046000c010e3001c00320020032000c010e30095
:100470001f003200200f2000c010e30021003200d6
:10048000f0102000c250e200010032000000e8003d
:10049000c010e30002003a00c2f0ee00c0b0ef006e
:1004a0004f00780000400600400a200030488800d5
:1004b000e08a20002048880060088800f8ff3700a4
:1004c000a080200030488800f5ff3700400a200057
:1004d00030488800f2ff3700801420003048880040
:1004e000c01521002048880060088800ecff370014
:1004f000c350e200eaff320000c8a90020c8a800eb
:10050000e7ff370020c8a900e5ff370000c8a900b1
:10051000809fbe00829fbe00849fbe00861f780021
:100520003200f80000c2fe00018680002103b10005
:10053000e7826000c308de00020420000110b8005a
:10054000a40c210004024000c364290090488000ec
:1005500063006000000601000000000000000000d1
:100560000000000061e2a8000200e000100032007c
:10057000344078000003eb000070a7000083eb001c
:10058000f007b2004300dd0080804100858040001c
:10059000114078000670a7000080ea006022ab00de
:1005a000feff3a0068e2b7000201e900eeff370003
:1005b0006022ab00feff3a006822ef003200f90033
:1005c0004f0378004f02be004f01be004f00be0037
:1005d000004006000168a900801f7800811f780094
:1005e00091d7bf000080fb00a17621008100400070
:1005f0002202ae00060037003011800080487800eb
:100600008e37ec009177ec00f00020009177b60077
:10061000cf0078004f007800004006000188a90054
:10062000801f7800811f78008a17e2000a003200dc
:100630008cd7bf000080fb00a17721008100400023
:100640001140780024e2b7008a37ed008c77ec0087
:10065000f00020008c77b600cf0078004f007800c3
:1006600000400600d037ef0013aeae00d017a80050
:100670000268a9000040060003c8a900809fbe00d0
:10068000829fbe00b011800021792100a2bd8000b0
:1006900081004100804878001200b000f201b200f1
:1006a000a2bd88004f01be004f00be000040060002
:1006b0000000fe000000fe000068a900809fbe0050
:1006c000829fbe00dc37ec00e217e200030032003c
:1006d000e237ed0001003a0013e1a900c850e20042
:1006e00003003a00c910af00a82602000000000075
:1006f0004f01be004f00be00004006000000fe009b
:020000040000fa
:10070000000000002445000058490000540000008b
:10071000741a000082830000a52800004c490000e4
:10072000542900007c1a00008c830000a6280000d9
:10073000434c00004954000029000000861a0000c4
:1007400096830000a828000042520000414e00009d
:100750004348000029000000921a0000a283000014
:10076000a928000054420000524100004e430000fe
:10077000482900009a1a0000b0830000a928000050
:100780003f420000524100004e4300004829000053
:10079000a81a0000be830000a4280000444f0000f7
:1007a00029000000b61a0000cc830000a628000033
:1007b0004c4f00004f50000029000000c81a0000f4
:1007c000d68300008349000050400000e21a000078
:1007d000e28300008349000050210000ec1a000071
:1007e000ea83000086520000454200004f4f00009f
:1007f00054000000f61a0000f28300008745000054
:10080000584500004355000054450000f81a000008
:10081000fe8300008840000045580000454300006a
:100820005554000045000000001b00000a84000031
:1008300081400000121b0000188400008243000069
:10084000400000001a1b00001e84000082320000dd
:1008500040000000241b00002684000081210000cd
:10086000321b00002e8400008243000021000000a3
:100870003c1b000034840000823200002100000094
:10088000481b00003c84000081490000561b00000a
:1008900044840000814a0000601b00004a8400007c
:1008a000865500004e4c00004f4f000050000000e5
:1008b0006a1b000050840000834400005550000073
:1008c000741b00005c84000084320000445500006a
:1008d000500000007c1b000064840000843f000086
:1008e0004455000050000000881b00006e8400008a
:1008f00084440000524f000050000000941b000090
:100900007884000085320000445200004f500000ff
:100910009c1b0000828400008453000057410000ab
:1009200050000000a61b00008c84000085320000ef
:100930005357000041500000b21b00009684000095
:10094000835200004f540000c61b0000a08400002a
:10095000842d0000524f000054000000d81b0000fe
:10096000a8840000844f000056450000520000009b
:10097000e81b0000b2840000853200004f560000e2
:1009800045520000f21b0000bc840000834e0000b2
:1009900049500000001c0000c6840000823e000098
:1009a00052000000081c0000ce84000082520000ab
:1009b0003e000000121c0000d6840000825200009d
:1009c000400000001c1c0000de8400008353000077
:1009d00050400000261c0000e68400008353000005
:1009e00050210000321c0000ee8400008352000001
:1009f000504000003a1c0000f684000083520000c2
:100a000050210000441c0000fe84000084540000bb
:100a1000554300004b0000004e1c000006850000fe
:100a20008544000045500000544800005a1c000056
:100a30001085000084500000494300004b00000076
:100a4000681c00001a85000083480000455800001b
:100a50005a1a000092830000100000009a870000dc
:100a60003084000088830000248500008744000053
:100a700045430000494d0000414c00005a1a000057
:100a8000928300000a0000009a8700003084000072
:100a90008883000036850000812b0000761c000052
:100aa0004c850000812d00007e1c00005285000056
:100ab000823100002b000000881c000058850000d7
:100ac000823200002b000000901c000060850000b6
:100ad000823100002d000000981c00006885000095
:100ae000823200002d000000a01c00007085000074
:100af000823200002a000000a81c00007885000057
:100b0000823200002f000000b01c00008085000031
:100b1000864c000053480000494600005400000085
:100b2000b81c000088850000865200005348000071
:100b30004946000054000000c81c000094850000d5
:100b4000822b000021000000d81c0000a0850000be
:100b5000824d00002b000000e61c0000a88500006c
:100b6000812a0000f61c0000b085000083550000bb
:100b70004d2a0000041d0000b685000083550000ca
:100b8000442a00005a1a000060840000d284000049
:100b9000ba8500007e84000092840000da840000a0
:100ba000ba850000a48400004e8500008883000000
:100bb000be850000812f0000101d0000da850000b6
:100bc000822a00002f0000001e1d0000e0850000aa
:100bd000852a00002f4d00004f440000301d00000a
:100be000e8850000842f00004d4f00004400000005
:100bf000441d0000f2850000865500004d2f0000c6
:100c00004d4f000044000000541d0000fc85000012
:100c1000834d000041580000661d0000088600005a
:100c2000834d0000494e0000741d00001086000036
:100c30008657000049540000484900004e0000005b
:100c4000821d000018860000844500005645000003
:100c50004e0000009a1d000024860000834f000013
:100c600044440000a81d00002e86000083410000bf
:100c700042530000b61d000036860000834100008c
:100c80004e440000c01d00003e860000824f000060
:100c900052000000c81d0000468600008358000076
:100ca0004f520000d01d00004e8600008649000013
:100cb0004e5600004552000054000000d81d0000b0
:100cc00056860000864e0000454700004154000053
:100cd00045000000e01d0000628600008230000038
:100ce0003d000000e81d00006e860000823000001c
:100cf0003c000000f21d00007686000082300000fb
:100d00003e000000fe1d00007e860000813d0000c8
:100d1000081e000086860000823c00003e000000a5
:100d2000181e00008c860000813c0000281e000078
:100d300094860000813e0000381e00009a86000064
:100d4000825500003c000000481e0000a086000004
:100d5000825500003e000000581e0000a8860000da
:100d600084430000454c00004c000000681e000059
:100d7000b086000085430000454c00004c2b00006d
:100d8000721e0000ba86000085430000454c00003a
:100d90004c5300007a1e0000c4860000854100000c
:100da0004c490000474e0000841e0000ce86000023
:100db000874100004c490000474e000045440000b8
:100dc000961e0000d8860000853e000043480000c3
:100dd00041520000a01e0000e4860000844800008c
:100de00045520000450000005a1a00008e8700009e
:100df0001a84000088830000ee860000844d000005
:100e00004f56000045000000ae1e0000fe860000a8
:100e1000854300004d4f000056450000ca1e0000eb
:100e20000887000084530000434100004e0000008a
:100e3000e61e00001287000084460000494c0000b6
:100e40004c000000021f00001c87000085430000ca
:100e5000464900004c4c0000181f00002687000087
:100e6000892d000054520000414900004c49000007
:100e70004e4700002e1f0000308700008550000004
:100e8000414300004b2400005a1a0000e086000095
:100e900060840000d2840000b884000060840000f8
:100ea0009283000000000000928300000200000016
:100eb000048600007e84000054850000b884000091
:100ec0004e85000092830000000000009284000024
:100ed000308400006a84000038840000928300009f
:100ee000010000004e850000928400000e87000083
:100ef000da840000888300003e87000085530000ec
:100f00005441000054450000641a00000a0000002b
:100f10007e8700008244000050000000641a000038
:100f2000080000008a87000084420000415300004e
:100f300045000000641a00000c00000094870000c7
:100f400089530000595300004c41000054450000f3
:100f500053540000641a000016000000a08700002f
:100f6000864c00004154000045530000540000002e
:100f7000641a000018000000b087000082520000d0
:100f800030000000641a000012000000be8700005c
:100f90008253000030000000641a000010000000be
:100fa000c88700008350000041440000641a00001c
:100fb00002000000d2870000835400004942000074
:100fc000641a000000000000dc870000833e00007f
:100fd000494e0000641a00000e000000e687000081
:100fe0008248000050000000641a00001400000055
:100ff000f087000086270000534f00005552000084
:1010000043450000641a000004000000fa87000055
:1010100087230000534f0000555200004345000055
:10102000641a0000060000000888000087560000cf
:1010300045520000534900004f4e0000441f00007d
:101040001688000086520000414d0000454e000009
:10105000440000004e1f0000228800008549000067
:101060004d4d000045440000581f00002e88000030
:101070008648000049440000444500004e0000003e
:10108000621f000038880000874c0000454e0000b9
:101090004d410000534b00006c1f000044880000cd
:1010a000824200004c000000761f000050880000c3
:1010b0008754000049420000534900005a4500008f
:1010c000801f000058880000875000004144000045
:1010d000534900005a4500008a1f00006488000040
:1010e000865500004c4900004d49000054000000a6
:1010f000941f000070880000854400004f430000ea
:101100004f4c00009e1f00007c88000086270000d6
:10111000534f00005552000043450000a81f000037
:1011200086880000875300004f550000524300009e
:1011300045210000b61f0000928800008542000093
:1011400041530000453f00005a1a0000b8840000d7
:10115000228400009e830000240000008886000096
:10116000c88300000800000028850000ac83000050
:101170002c000000b8840000228400009e83000040
:101180002500000088860000c88300000e000000d3
:1011900092830000020000009a8700003084000063
:1011a000ac83000012000000b8840000228400001c
:1011b0009e8300002300000088860000c883000092
:1011c0000c0000003e850000928400005c85000059
:1011d000928400006c850000888300009e880000d7
:1011e000844e0000454700003f0000005a1a0000ee
:1011f000b8840000228400009e8300002d000000bf
:1012000088860000d284000092840000e2840000fe
:101210005485000092840000e28400004e850000a6
:1012200088830000f0880000874e0000554d0000c4
:1012300042450000523f00005a1a00009a87000001
:101240001a840000d2840000928300000000000095
:10125000b88400000c8c0000a4880000f688000010
:1012600074840000c88300004200000092830000e4
:101270000000000092840000d2830000608400001f
:10128000d2840000228400009a8700001a840000a3
:101290008c890000ba8300000c000000da84000092
:1012a0007e84000058840000ac8300002000000011
:1012b000928400009a8700001a840000b285000022
:1012c0004e850000da8400005c850000de830000ab
:1012d000d6ff00007e840000e2840000c883000086
:1012e000040000006a86000092840000da84000096
:1012f00088840000da8400009a87000030840000af
:1013000088830000148900008644000049470000db
:10131000495400003f0000005a1a00006084000099
:101320009283000060000000ac860000c8830000cb
:101330000800000092830000200000005485000097
:10134000608400009283000039000000ac86000039
:10135000c88300001a00000060840000928300002f
:1013600041000000a4860000c883000008000000bf
:101370009283000000000000888300009283000038
:101380000700000054850000928300003000000038
:1013900054850000608400009a8700001a840000d1
:1013a000a48600008883000084890000873e000036
:1013b0004e5500004d420000455200005a1a0000f0
:1013c00060840000c88300002c000000b884000086
:1013d000228400008c89000072860000c88300000f
:1013e000060000007e84000088830000d284000094
:1013f0009c8400009a8700001a840000c2850000c7
:10140000da840000ac8500009c8400009283000018
:1014100001000000248b0000ac830000d2ff00001c
:1014200088830000d6890000853f000053490000f2
:10143000474e00005a1a0000b884000022840000c1
:10144000928300002c00000054850000608400009e
:101450003a860000928300000100000088860000a8
:101460004286000060840000c88300000e00000077
:101470005c850000d284000092830000010000001f
:10148000248b0000da84000088830000148a0000a6
:10149000873f00004e5500004d42000045520000bd
:1014a0005a1a0000608400009283000000000000cf
:1014b00060840000a48400000c8c00001a8a0000e4
:1014c000d2840000de890000c88300001000000004
:1014d000da84000088840000888400009283000081
:1014e00000000000ac8300001200000088840000af
:1014f000ca840000da840000c883000004000000f1
:101500006a86000092830000ffff000088830000cd
:10151000488a0000855700004f52000044530000e5
:101520005a1a00000e930000b88700001a840000c9
:101530006084000072860000ba8300004000000052
:101540006084000022840000408800004286000081
:10155000c88300000800000074850000ac83000010
:10156000e6ff000060840000608400002284000028
:101570004c8800004286000060840000ac920000ad
:101580004e8500009283000040000000a486000009
:10159000ba830000040000000e930000d284000013
:1015a0005c850000da840000569300001893000068
:1015b00074850000ac830000baff00007e84000048
:1015c0000e930000888300008a8a00008555000081
:1015d0005050000045520000c41f0000e68a000081
:1015e000845300004b49000050000000e61f00003b
:1015f000f08a000087410000445200003e4900008c
:101600004e0000005a1a00008e880000a4840000da
:10161000a48400005485000014860000928300001a
:10162000000000000c860000ea8700003084000003
:1016300088830000fa8a0000872f000053540000be
:10164000524900004e4700005a1a0000a4840000ce
:10165000b88400004e850000a4840000a48400002b
:1016600054850000888300001c8b0000855000001a
:1016700041520000534500005a1a00008e880000b5
:10168000ea8700001a840000248b0000b884000060
:10169000d2840000a484000018870000b8840000f1
:1016a00092840000c8830000040000005c850000f4
:1016b000028b0000da8400000c85000054850000d5
:1016c00088830000368b0000845700004f520000d2
:1016d000440000005a1a0000608400008e88000058
:1016e000ea8700001a840000248b0000a484000014
:1016f000f68a00007e840000028b00003c8b000014
:10170000f4860000508c0000f486000088830000fe
:10171000648b000084460000494e00004400000035
:10172000022000008a8b0000864100004343000035
:1017300045500000540000005a1a0000b884000010
:101740004e850000d284000060840000c295000035
:1017500060840000928300000d0000008886000075
:10176000c8830000160000007e840000548800003a
:10177000b884000038840000928400005485000082
:101780005c850000da8400007e840000888300000d
:10179000608400009283000008000000888600003a
:1017a000c8830000140000007e8400006a840000ea
:1017b00088860000ba830000caff0000a2930000e0
:1017c0006c850000ac830000c2ff0000b8840000fc
:1017d000e284000088860000ba8300001000000048
:1017e0006084000006930000b88400003884000084
:1017f0005c850000ac830000aaff00007e8400002e
:10180000ac830000a4ff0000948b0000854300001f
:101810004f5500004e5400005a1a0000608400002a
:1018200022840000d28400005c850000da8400007d
:1018300088830000068c000085450000525200009d
:101840004f5200005a1a0000189300000c8c000040
:1018500056930000189300009e8300003f00000094
:1018600006930000928300000000000084870000bf
:1018700030840000cc8700001a840000f28400004d
:101880000e930000948d00001c8c0000883e000028
:10189000434f0000554e0000544500004400000036
:1018a0005a1a00006a840000388400005c85000039
:1018b000928400000e87000088830000468c0000a0
:1018c000812c00005a1a0000f48600006084000099
:1018d000d284000030840000da840000c08600005a
:1018e0008e8700003084000088830000608c000038
:1018f000824300002c0000005a1a0000608400009f
:10190000d284000038840000da8400005c85000086
:101910008e8700003084000088830000788c0000ef
:10192000894900004e54000045520000505200000a
:10193000455400005a1a00009a8800009283000063
:1019400000000000ea870000308400005488000096
:101950006a8b00006084000022840000c8830000bd
:101960003e000000908b000074840000c8830000db
:101970001c0000005c850000848700001a840000c1
:10198000728600004a860000c8830000080000003c
:1019900006840000ac83000004000000728f000089
:1019a000ac830000d4ff0000508a0000c883000010
:1019b000080000009a900000ac830000c8ff0000ff
:1019c0000c8c000056930000928300003f00000042
:1019d000069300000e930000508d00007e840000ee
:1019e00088830000908c000088450000564100006c
:1019f0004c55000041540000450000005a1a0000f8
:101a00008e880000d2840000d2840000ea870000a3
:101a10001a840000d28400009a8c0000da8400004e
:101a2000ea87000030840000da840000da840000d5
:101a30009a88000088830000f48c0000824f000028
:101a40004b0000005a1a0000ac9200009283000084
:101a5000030000004e85000092830000400000005b
:101a600096860000ba830000040000000e93000078
:101a700018930000928300004f00000006930000be
:101a8000928300004b000000069300008883000052
:101a90001e8d000085410000424f0000525400009e
:101aa0005a1a0000cc8700001a840000f28400005b
:101ab000948d00004a8d000086410000424f0000d6
:101ac00052540000220000005a1a0000c88300008f
:101ad00014000000e2840000608400002284000002
:101ae000928400005c850000928400005693000000
:101af0000e930000508d0000da8400006084000026
:101b0000228400004e8500005c850000e086000015
:101b1000d2840000888300005c8d000084510000a6
:101b200055490000540000005a1a0000c287000006
:101b30001a8400000285000092830000000000006b
:101b40008487000030840000e08700001a840000d1
:101b500060840000928300003f0000009c8b000026
:101b6000189300009a8c0000848700001a840000fb
:101b7000ba83000004000000228d00000e930000d4
:101b8000ac830000e2ff00008e8d0000c128000041
:101b90005a1a000092830000290000003c8b0000cc
:101ba0008884000088830000c68d0000874e0000f6
:101bb000464100003e4c0000464100005a1a000019
:101bc000928300000200000054850000888300001a
:101bd000d68d0000874e0000464100003e430000c5
:101be000464100005a1a0000608400002284000070
:101bf000928300001f000000428600004e85000016
:101c00005c850000e086000088830000ea8d00000b
:101c100087430000464100003e4e00004641000060
:101c20005a1a00006084000092830000001900002e
:101c3000a4860000c88300000a0000006084000041
:101c400052860000ac8300005a000000608400004f
:101c5000d28400009283000021000000d2840000a2
:101c60006c85000060840000228400006084000015
:101c7000928300008000000042860000ba830000ca
:101c8000140000007e840000da8400006c850000ef
:101c900060840000c88300002a000000d284000095
:101ca000ac830000deff0000da8400007e840000c8
:101cb000928300001f00000042860000b8840000ec
:101cc0004e8500005c850000e0860000da8400009c
:101cd0008886000060840000c88300000c000000bb
:101ce0007e840000ac8300000a000000da8400005b
:101cf0007e840000928400007e84000088830000bf
:101d0000088e0000894900004d4d00004544000048
:101d100049410000544500005a1a0000b8870000ed
:101d20001a840000aa8700001a8400008886000038
:101d3000ba83000012000000b88700001a84000077
:101d40006084000022840000348800004a8600007d
:101d5000928400003884000088830000828e000096
:101d60008448000049440000450000005a1a000061
:101d7000b88700001a8400006084000022840000fc
:101d8000408800004a8600009284000038840000e9
:101d900088830000b08e0000854100004c4c00009c
:101da0004f5400005a1a00008e870000a4850000de
:101db00088830000cc8e0000812700005a1a0000a2
:101dc000548800006a8b00006084000022840000b8
:101dd000c88300000c000000908b0000c883000046
:101de00020000000ac8300002c0000007e84000076
:101df000dc9000001028000027290000206e000061
:101e0000616d0000652000006d69000073730000c3
:101e1000696e0000670000000e930000508d000006
:101e20000c8c000056930000189300009283000071
:101e30003f000000069300000e930000508d00004c
:101e400088830000dc8e0000c95b0000434f000067
:101e50004d500000494c0000455d00005a1a00003a
:101e6000de8e0000728f000088830000248f000047
:101e7000c84300004f4d0000504900004c45000091
:101e80003f0000005a1a0000848700001a840000f6
:101e9000c88300000400000088830000dc9000007c
:101ea000116300006f6d0000706900006c65000038
:101eb000206f00006e6c000079200000776f00003a
:101ec000726400000e930000508d0000388f0000f7
:101ed000c84300004f4d0000504900004c45000031
:101ee0002c0000005a1a0000701a0000628c0000da
:101ef000688f0000853c00004d410000524b0000ff
:101f00005a1a0000428f0000f48600008883000007
:101f10007a8f0000c83c000052450000534f00007b
:101f20004c560000450000005a1a0000428f000085
:101f3000f486000054850000728f00008883000042
:101f40008a8f0000c53e00004d410000524b00004a
:101f50005a1a0000428f0000f486000092830000ad
:101f600000000000728f000088830000a28f000034
:101f7000c83e000052450000534f00004c56000080
:101f8000450000005a1a0000428f000060840000e3
:101f9000f486000054850000928400003084000024
:101fa00088830000b88f0000c6430000524500003f
:101fb00041540000450000005a1a0000b887000094
:101fc0001a840000628c0000f4860000b8870000cc
:101fd00030840000548800006a8b00006084000098
:101fe0002284000072860000648d00000c6d0000e9
:101ff00069730000736900006e670000206e0000c6
:10200000616d00006500000088830000d48f00002f
:10201000c15b00005a1a000092830000000000001b
:10202000848700003084000088830000089000004e
:10203000c15d00005a1a000092830000ffff0000fb
:10204000848700003084000088830000189000001e
:10205000c95b0000434f00004d500000494c000098
:10206000455d00005a1a0000428f0000de8e00001d
:10207000728f00008883000028900000c743000092
:102080004f4d0000504900004c4500005a1a000016
:10209000428f0000da840000608400001a8400008f
:1020a000728f0000c0860000d28400008883000088
:1020b0003e900000c85000004f53000054500000f4
:1020c0004f4e0000450000005a1a000054880000de
:1020d0006a8b0000908b0000608400007286000014
:1020e000c88300000e0000007e8400000c8c0000fd
:1020f00056930000928300003f000000508d0000c6
:10210000828600000c00000092830000728f0000a5
:1021100046900000ac8300000200000088830000ad
:102120005a900000c74c000049540000455200007e
:10213000414c00005a1a0000848700001a840000f5
:10214000c883000008000000469000009283000051
:10215000628c00008883000092900000834400009d
:102160004f2400005a1a0000da840000e2840000c4
:10217000da8400000c8c00004e850000e086000030
:10218000d284000092840000d28400008883000082
:10219000ae900000c3240000227c00005a1a000008
:1021a000b29000000c8c000088830000ca900000f0
:1021b000c32e0000227c00005a1a0000b2900000da
:1021c0000c8c00005693000088830000d89000001b
:1021d000c32400002c2200005a1a00009283000041
:1021e000220000006a8b00000c8c00004e8500006d
:1021f000e08600008e8700003084000088830000a5
:10220000e8900000c2530000220000005a1a0000ab
:10221000428f000046900000ce900000ec9000003d
:102220008883000002910000c22e000022000000fe
:102230005a1a0000428f000046900000dc90000017
:10224000ec9000008883000014910000c752000049
:102250004543000055520000534500005a1a000043
:10226000b88700001a840000f28d0000728f000011
:102270008883000026910000c54200004547000009
:10228000494e00005a1a0000428f0000808f000063
:10229000888300003c910000c541000047410000d8
:1022a000494e00005a1a0000428f0000469000007c
:1022b000ac830000948f0000888300004c910000e4
:1022c000c55500004e540000494c00005a1a000049
:1022d000428f000046900000c8830000948f0000e9
:1022e0008883000060910000c5410000484500005f
:1022f000414400005a1a0000428f0000469000003e
:10230000ac830000a88f0000888300007491000057
:10231000c2490000460000005a1a0000428f000027
:1023200046900000c8830000a88f0000888300004a
:1023300088910000c4540000484500004e00000091
:102340005a1a0000428f0000c28f000088830000ec
:102350009a910000c44500004c5300004500000065
:102360005a1a0000428f000046900000ac83000023
:10237000a88f000092840000a091000088830000d4
:10238000aa910000c5570000484900004c450000d4
:102390005a1a0000c2910000813a00005a1a000047
:1023a00088830000cc910000874900004e46000061
:1023b0004c4f00004f50000048200000d491000016
:1023c000822e0000530000005a1a000016850000fb
:1023d0009e8300003c000000069300006084000023
:1023e000d49400009e8300003e000000069300008d
:1023f0001893000074840000c88300000e000000e1
:102400006084000020850000d49400006c850000ea
:10241000ac830000f0ff000088830000e091000022
:1024200085480000445500004d5000005a1a000035
:1024300074840000ba830000040000008883000058
:102440009a8700001a840000d284000028850000ca
:102450009284000092830000feff0000428600008c
:10246000928400009283000000000000d2830000ec
:1024700046840000928300000700000042860000ae
:10248000ba8300000e0000000e930000608400007c
:102490009283000005000000a6940000189300003d
:1024a000608400001a840000928300000500000090
:1024b000a694000092830000020000004e850000f8
:1024c000de830000d6ff0000da8400009a87000057
:1024d00030840000888300004a2000001092000031
:1024e00085560000494400004f4e0000ae20000019
:1024f000709200008743000055520000454e0000d6
:10250000424c0000ba2000007a9200008343000091
:102510004c530000d6200000869200008653000035
:10252000435200004c55000050000000ec20000019
:102530008e92000086530000435200004c4400007d
:102540004e000000f62000009a9200008447000030
:10255000455400005800000000210000a692000031
:102560008447000045540000590000000e2100007f
:10257000b092000084530000455400005800000051
:102580001c210000ba920000845300004554000052
:10259000590000003a210000c49200008643000068
:1025a00055520000504f0000530000005a1a00001e
:1025b000c0920000ca92000088830000ce92000002
:1025c000844c0000454600005400000058210000e3
:1025d000e092000085520000494700004854000086
:1025e0007e210000ea92000087540000474c000062
:1025f0004348000041520000a8210000f49200006e
:10260000844500004d49000054000000be21000038
:10261000009300008243000052000000de21000011
:102620000a9300008553000050410000434500001c
:10263000f02100001293000086530000504100007a
:1026400043450000530000005a1a00006084000057
:1026500092830000000000009c860000ba83000006
:10266000060000007e840000888300009283000042
:1026700000000000d283000018930000de830000f9
:10268000fcff0000888300001c93000085430000cd
:102690004c5200004c4e0000f62100004693000012
:1026a0008454000059500000450000005a1a0000f0
:1026b00060840000ba8300000600000088840000e7
:1026c000888300009283000000000000d283000095
:1026d000608400002284000074840000c88300002d
:1026e0000e000000069300005c850000de83000001
:1026f000f0ff0000ac8300000400000058840000dc
:102700007e8400008883000050930000864400000f
:10271000454c000045540000450000005a1a0000d6
:102720005488000006930000888300008693000010
:1027300088420000414300004b4300004841000034
:10274000520000005a1a0000e69200008e9300002a
:10275000e692000088830000989300008544000002
:1027600049470000495400005a1a000092830000b3
:1027700009000000b88400009686000092830000e3
:1027800007000000428600004e8500009283000092
:10279000300000004e85000088830000ae930000ea
:1027a0008745000058540000524100004354000087
:1027b0005a1a00009283000000000000928400007a
:1027c0000486000092840000b49300008883000017
:1027d000d0930000823c0000230000005a1a000041
:1027e000d68700001a8400006c8800004e85000027
:1027f000f48700003084000088830000ea93000022
:10280000844800004f4c0000440000005a1a0000a9
:1028100092830000ffff0000f4870000a485000001
:10282000f48700001a8400003884000088830000c8
:1028300000940000812300005a1a00009a870000cb
:102840001a840000d89300000694000088830000da
:102850001a94000082230000530000005a1a00005e
:102860001c94000060840000ba830000faff00009e
:10287000888300002a940000845300004947000028
:102880004e0000005a1a00007a860000c88300003b
:10289000080000009e8300002d0000000694000048
:1028a000888300003c940000822300003e0000006a
:1028b0005a1a00007e840000f48700001a84000089
:1028c000d68700001a8400006c8800004e85000046
:1028d000b8840000548500008883000054940000f0
:1028e00083530000545200005a1a00006084000014
:1028f000d28400003a860000ee9300002e9400007f
:10290000da8400004294000058940000888300009c
:1029100070940000822e0000520000005a1a00003d
:10292000d284000074940000da840000b8840000af
:102930005485000024930000569300008883000013
:102940008a940000835500002e5200005a1a00009d
:10295000d2840000ee9300002e94000058940000f2
:10296000da840000b884000054850000249300003d
:102970005693000088830000a29400008255000056
:102980002e0000005a1a0000ee9300002e94000062
:1029900058940000189300005693000088830000ac
:1029a000be940000812e00005a1a00009a87000091
:1029b0001a840000928300000a0000005286000082
:1029c000ba830000e2ff0000189300007494000036
:1029d0005693000088830000d2940000813f0000dd
:1029e0005a1a000092830000feff00004286000099
:1029f0001a840000d494000088830000ee94000044
:102a0000824300003f0000005a1a000022840000a8
:102a1000d4940000888300000095000085430000e6
:102a200048410000525300005a1a000092840000ee
:102a30009283000000000000d28300006084000048
:102a400006930000de830000faff00007e84000091
:102a5000888300001e2200000e95000084420000c2
:102a60004155000044000000582200002e9500004f
:102a700085530000454d00004954000078220000b5
:102a800038950000845300004745000054000000c2
:102a9000a6220000c62200004295000084540000d7
:102aa0004f4e000045000000e2220000f822000026
:102ab0004e9500008753000044430000494e00003b
:102ac00049540000202400005a950000865200005e
:102ad000535400004f5200004500000048240000fd
:102ae00066950000855200004c4f000041440000f4
:102af0007a240000729500008645000053540000bf
:102b00004f52000045000000ac2400007c950000fe
:102b1000854500004c4f000041440000f4240000b3
:102b20002c2500005c25000076250000889500001b
:102b300086470000455400004b4500005900000046
:102b40009025000098950000843f00004b45000050
:102b5000590000005a1a0000a0950000949500004a
:102b600060840000c883000006000000928300001b
:102b7000ffff000088830000a4950000834b000045
:102b8000455900005a1a0000aa95000074840000fc
:102b9000c8830000faff00007e84000088830000e4
:102ba000be950000844e0000554600003f00000026
:102bb0005a1a0000aa95000060840000c883000033
:102bc0000c00000088840000c29500009283000081
:102bd0000d00000088860000888300005a1a00005b
:102be000089600000a960000069600006c9200000d
:102bf000909500002a950000569500004a95000027
:102c00000c9600009295000088830000b225000019
:102c1000ce250000de250000ea250000f225000098
:102c2000d295000085540000494300004b5300003a
:102c30002226000012960000845500005345000033
:102c4000430000002c2600001c960000844d00006c
:102c500053450000430000003e2600002696000079
:102c6000844c000046530000520000004e26000035
:102c70003096000084520000414e000044000000e5
:102c8000662600003a96000085530000524100007d
:082c90004e44000098260000ec
:020000040000fa
:102c9800000000000000000000000000000000002c
:102ca80000000000000f00000808000008080000ed
:102cb80008080000080f00000000000000000000e5
:102cc8000000000000f800000808000008080000e4
:102cd8000808000008f800000000000000000000dc
:102ce800080800000808000008080000080800009c
:102cf8000000000000ff00000000000000000000cd
:102d08000808000008ff0000080800000808000084
:102d180000000000000000000000000000000000ab
:102d2800000000000000000000000000000000009b
:102d3800000000000000000000000000000000008b
:102d48000000000000ff000008080000080800005c
:102d58000808000008ff0000000000000000000054
:102d6800000000000000000000000000000000005b
:102d780008080000080f0000080800000808000004
:102d88000808000008f8000008080000080800000b
:102d980080c00000e0f00000e0c0000080000000fb
:102da80001030000070f00000703000001000000f6
:102db800000000000000000000000000000000000b
:102dc80000000000000000000000000000000000fb
:102dd80000000000000000000000000000000000eb
:102de80000000000000000000000000000000000db
:102df80000000000000000000000000000fe0000cd
:102e0800103800007c1000001010000000fe0000c8
:102e180020700000a8200000202000000000000012
:102e28000020000020200000a87000002000000002
:102e38004020000010f800001020000040000000b2
:102e48001020000040f800004020000010000000a2
:102e5800000000000080000080800000fe000000ec
:102e68000000000044fe00004400000000000000d4
:102e780000000000103800007cfe00000000000088
:102e880000000000fe7c0000381000000000000078
:102e9800000000000000000000000000000000002a
:102ea800202000002020000020000000200000005a
:102eb800505000005000000000000000000000001a
:102ec80050500000f8500000f8500000500000007a
:102ed80020780000a070000028f00000200000000a
:102ee800c0c8000010200000409800001800000032
:102ef80060900000a0400000a8900000680000005a
:102f080060200000400000000000000000000000f9
:102f18001020000040400000402000001000000089
:102f280040200000101000001020000040000000a9
:102f380000200000a8700000a82000000000000089
:102f48000020000020f80000202000000000000001
:102f580000000000000000006020000040000000a9
:102f68000000000000f00000000000000000000069
:102f78000000000000000000006000006000000089
:102f88000008000010200000408000000000000041
:102f98007088000098a80000c88800007000000031
:102fa800206000002020000020200000f800000021
:102fb800708800001020000040800000f800000029
:102fc800f008000008f0000008080000f000000009
:102fd8001030000050900000f810000010000000b1
:102fe800f880000080f0000008080000f0000000f1
:102ff8003040000080f00000888800007000000069
:10300800f8080000102000004040000040000000c8
:103018007088000088700000888800007000000038
:103028007088000088700000080800007000000028
:103038000060000060000000606000000000000008
:1030480000600000600000006020000040000000f8
:103058001020000040800000402000001000000008
:1030680000000000f8000000f80000000000000068
:103078004020000010080000102000004000000060
:1030880070880000081000002000000020000000e8
:103098007088000008680000a8a800007000000000
:1030a8007088000088f80000888800008800000008
:1030b800f088000088f0000088880000f000000018
:1030c8007880000080800000808000007800000088
:1030d800f08800008888000088880000f000000060
:1030e800f880000080f8000080800000f8000000f0
:1030f800f880000080f80000808000008000000058
:103108007880000080b0000088880000700000000f
:103118008888000088f8000088880000880000007f
:103128007020000020200000202000007000000017
:1031380078080000080800000890000060000000ff
:1031480088900000a0c00000a09000008800000047
:10315800808000008080000080800000f80000006f
:1031680088d80000a888000088880000880000002f
:1031780088880000c8a8000098880000880000001f
:1031880070880000888800008888000070000000af
:10319800f088000088f000008080000080000000b7
:1031a8007088000088880000a89800007800000057
:1031b800f088000088f00000a0900000880000005f
:1031c800788000008070000008080000f00000000f
:1031d800f82000002020000020200000200000002f
:1031e8008888000088880000888800007000000037
:1031f80088880000888800008850000020000000af
:103208008888000088a80000a8d80000880000006e
:1032180088880000502000005088000088000000c6
:10322800888800008850000020200000200000004e
:10323800f81000002040000080800000f800000026
:103248006040000040400000404000006000000076
:10325800008000004020000010080000000000006e
:1032680018080000080800000808000018000000fe
:10327800205000008800000000000000000000004e
:1032880000000000000000000000000000f800003e
:1032980040200000100000000000000000000000b6
:1032a8000000000070080000788800007800000026
:1032b8008080000080b00000c8880000f000000096
:1032c800000000007080000080880000700000008e
:1032d80008080000086800009888000078000000ce
:1032e8000000000070880000f880000070000000f6
:1032f8003048000040e0000040400000400000006e
:10330800000000007888000088780000087000003d
:1033180080800000b0c80000888800008800000095
:1033280000200000002000002020000020000000f5
:103338001000000030100000109000006000000035
:103348008080000090a00000c0a000009000000055
:1033580060200000202000002020000070000000f5
:1033680000000000d0a80000a88800008800000025
:1033780000000000b0c80000888800008800000035
:1033880000000000708800008888000070000000bd
:1033980000000000f088000088f000008080000035
:1033a800000000006890000090b000005018000075
:1033b80000000000b0c8000080800000800000000d
:1033c800000000007080000070080000f00000009d
:1033d80040400000e040000040480000300000008d
:1033e800000000008888000088980000680000003d
:1033f80000000000888800008850000020000000bd
:103408000000000088880000a8a800005000000004
:1034180000000000885000002050000088000000d4
:10342800000000008888000088780000087000000c
:1034380000000000f810000020400000f800000024
:1034480020400000408000004040000020000000b4
:103458002020000020200000202000002000000084
:103468004020000020100000202000004000000044
:103478000000000040a8000010000000000000004c
:10348800fcfc0000fcfc0000fcfc0000fcfc000054
:020000040000fa
:103498000c4600006f720000746800004578000058
:0c34a80020560000302e00003100000013
:020000040000fa
:1034b4008a1f78000c0578003a0678003c007800f2
:1034c400000401000d2f78003c0078008b064000ba
:1034d4003a0678003c007800000401001c067800dd
:1034e4003c0578004f0578003a0678003c007800e7
:1034f400000401000d2f7800ba0678003a0678001f
:103504003c007800000401000d2f7800ba06780012
:103514008d86fb003a0678003c0078000004010028
:103524001a0545003a0678003c00780000040100c2
:103534000d00e000ae067800f9ff3a000a85e800c5
:103544003a0678003c007800000401000d00e00019
:10355400ae067800f2ff32000a85e8003a067800e9
:103564003c00780000040100881f7800891f78005f
:103574008d047800ae0678000d047800ae0678005d
:103584003a0678003c007800000401008904e80051
:103594000848e100040032001a0545003a067800a4
:1035a4003c007800000401000a85e800cf0478009c
:1035b4004f0478003a0678003c00780000040100cb
:1035c4000d2f78008a0678003a0678003c007800cf
:1035d400000401000d057800ae0678003a06780074
:1035e4003c007800000401000000fe000d06780095
:1035f400ae0678003c007800000401001d0078004d
:10360400ae067800019021000100e10001003900bc
:10361400000401003a0678003c0078000004010030
:103624009d0678003a0678003c007800000401000a
:103634009d4678008d86fb003a0678003c007800b1
:10364400000401001d0078002d00b0009d067800e4
:10365400002f78003a0678003c007800000401004e
:10366400ae0e7800ae0678003a0678003c0078008a
:10367400000401002e007800804e7800ae06780029
:103684003a0678003c00780000040100ae0e780091
:103694002d00b000ae0e7800ae0678003a06780031
:1036a4003c007800000401000d2f780089067800a2
:1036b4003a0678003c007800000401000d2f7800e1
:1036c400ffbe97003a0678003c0078000004010031
:1036d400cf0478004f0478003a0678003c00780064
:1036e400000401000d2f78003a0678003c007800b1
:1036f400000401001e0078000d2f7800002f7800d0
:103704003a0678003c007800000401000d00e00057
:10371400010032000d2f78003a0678003c00780052
:1037240000040100ae0678003a0678003c007800f8
:1037340000040100ae067800ae0678003a06780070
:103744003c007800000401000d0078009e0678001b
:10375400000f78003a0678003c007800000401006d
:103764007eb897007dbf9f00800678006eb89700f2
:103774009e00780061bf9f00000f78003a06780031
:103784003c007800000401001e0078000d00fd00dc
:10379400000f78007eb897008006fd0070bf9f0080
:1037a4003a0678003c007800000401000d0078001f
:1037b4009e067800feb89700010f780070bf9f0046
:1037c4003a0678003c007800000401000d2f7800d0
:1037d400febe97003a0678003c0078000004010021
:1037e4000d2f7800eebe97005eb89700002f78008a
:1037f4003a0678003c007800000401000e87e900d6
:103804003a0678003c007800000401008d1f78001f
:10381400ae0678003a0678003c0078000004010007
:103824000d2f7800cf0678003a0678003c00780027
:10383400000401000d2f7800ffbe97003a067800bf
:103844003c007800000401000e0078000d2f780081
:10385400800678003a0678003c00780000040100f5
:103864000d0778003a0678003c0078000004010057
:103874000d2f78008f0678003a0678003c00780017
:10388400000401008d077800ae0678003a0678003f
:103894003c007800000401001e0078000d0f780041
:1038a400002f78003a0678003c00780000040100fc
:1038b40030be8000000057000d2f78008006d10034
:1038c4003a0678003c007800000401000e007800fd
:1038d4008d06d0000d005000900678003a0678005e
:1038e4003c00780000040100ae8646003a067800e9
:1038f4003c007800000401002e0078008d06500082
:103904003a0678003c007800000401001d00b00075
:103914003a0678003c007800000401002d00b00055
:103924003a0678003c007800000401001d00b10054
:103934003a0678003c007800000401002d00b10034
:103944003a0678003c007800000401008d864600a9
:103954003a0678003c007800000401008d06d1008e
:103964003a0678003c007800000401000d0078005d
:10397400ae0678000000e900008009008d06d00042
:103984003a0678003c007800000401000d0078003d
:10399400ae0678000000e900008009008d06d10021
:1039a4003a0678003c007800000401001d0078000d
:1039b4002e004000800e7800ae0678003a067800ab
:1039c4003c007800000401007eb897008d00780068
:1039d400ae067800010f40000d80b0003a06780072
:1039e4003c007800000401000d007800ae06780069
:1039f4000d80b900800678003a0678003c00780013
:103a0400000401001e68b80081067800000f7800e9
:103a14003a0678003c007800000401002e0178008a
:103a2400110009000d01d800800678003a067800dc
:103a34003c007800000401002e007800ae007800fd
:103a44000180b900110009000d00d800800678003b
:103a54003a0678003c007800000401002e0078004b
:103a6400ae0078000180b900110009000d00d800f3
:103a7400012f7800800678003a0678003c00780030
:103a8400000401001e017800110009004d19d8003e
:103a940080067800010f78003a0678003c00780030
:103aa40000040100ae0078002e0078001100090027
:103ab4004d88d80080067800012f78003a067800f7
:103ac4003c007800000401002e0078000068e1004a
:103ad40001003d000d00fd003a0678003c0078002e
:103ae400000401002e0078000d00e10001003d00fb
:103af4000d00fd003a0678003c0078000004010047
:103b04000000eb002e017800ae0078000208e1000e
:103b1400030039000d08e100010031000080eb00d2
:103b2400800678003a0678003c0078000004010022
:103b34000080eb000d00a7000000eb008006780079
:103b44003a0678003c007800000401000080eb0095
:103b54000d00a6000000eb00800678003a0678000d
:103b64003c007800000401000df0a7008d06ea0077
:103b74003a0678003c00780000040100ae86660036
:103b84003a0678003c00780000040100ae86760016
:103b94003a0678003c00780000040100ae866e000e
:103ba4003a0678003c007800000401008d86ea00a3
:103bb4003a0678003c007800000401008d06ea0013
:103bc4003a0678003c007800000401001d00b100b2
:103bd4008d865e003a0678003c00780000040100ff
:103be4008d8646008d865e008d86ea003a06780052
:103bf4003c007800000401008d8646008d865e003e
:103c04003a0678003c007800000401000000eb0054
:103c14002e68e10001003a000080eb008006780085
:103c24003a0678003c007800000401000000eb0034
:103c34002e68e100010032000080ea00800678006e
:103c44003a0678003c007800000401000080eb0094
:103c54002e68e10001003c000080ea008006780044
:103c64003a0678003c007800000401000080eb0074
:103c74002e68e100010035000080ea00800678002b
:103c84003a0678003c007800000401000000eb00d4
:103c94002e68e100010036000080ea00800678000a
:103ca4003a0678003c007800000401000000eb00b4
:103cb4002e68e100010031000080ea0080067800ef
:103cc4003a0678003c007800000401000d2f7800cb
:103cd4002d0020003a0678003c0078000004010022
:103ce4002d00b0003a0678003c0078000004010082
:103cf4006268b800800678003a0678003c007800d4
:103d040000040100f4860000608400009283000037
:103d140001000000428600004e8500008e870000ee
:103d240030840000888300000d00a7008d06e800a1
:103d34003a0678003c00780000040100fd07b20058
:103d4400e068e10001003d00fd0520003a0678002e
:103d54003c007800000401000d007800ae067800f5
:103d64000d017800ae0678008d007800ae0678006c
:103d74000000e000030032000000e90000800900b8
:103d8400311978003a0678003c00780000040100fc
:103d94000d007800ae0678000d017800ae067800bc
:103da4008d007800ae0678000000e00003003200c9
:103db4000000e90000800900315978003a067800d3
:103dc4003c007800000401000d007800ae06780085
:103dd4009e0078000d00e000050032001104e100af
:103de400030032008100e8008d06e900fbff3a0081
:103df400010f78003a0678003c00780000040100c6
:103e04002e007800ae0078000100e00003003200cc
:103e14008100e90001800900801e7800ae06780068
:103e24003a0678003c007800000401002e00780077
:103e3400ae0078000100e000030032008100e900d8
:103e440001800900805e7800ae0678003a067800aa
:103e54003c007800000401001e0078000d004000c2
:103e6400110220000000e900100ce100c0343e0003
:103e74000000e8009e0650003a0678003c007800f6
:103e8400000401000d2f7800cda429003a06780023
:103e94003c007800000401000d2f7800fdff2c0089
:103ea4003a0678003c007800000401000d2f7800e9
:103eb4000d0420003a0678003c007800000401005c
:103ec4000d2f78000d0220003a0678003c0078009f
:103ed400000401000d2f7800fd0120003a0678004f
:103ee4003c007800000401000d2f78000d02200032
:103ef4003a0678003c007800000401000d2f780099
:103f04000d0520003a0678003c007800000401000a
:103f14000d2f78000d0520003a0678003c0078004b
:103f2400000401000d2f7800edff2c003a06780004
:103f34003c007800000401000d2f7800ada5290095
:103f44003a0678003c007800000401000d2f780048
:103f5400ddbd80000d2f7800edbd80003a067800ad
:103f64003c00780000040100edbd8800ae06780036
:103f7400ddbd8800ae0678003a0678003c00780083
:103f8400000401008d007800ae067800314178000d
:103f94000204e00009003200314078000241e900e7
:103fa400e105e100faff3900fa05e100f8ff3e00ff
:103fb4000042b100f0f89f00f5ff37003a067800a0
:103fc4003c007800000401000d007800ae06780083
:103fd4009e0078000d00e000050032001104e100ad
:103fe40003003a008100e8008d06e900fbff3a0077
:103ff400010f78003a0678003c00780000040100c4
:104004008d0178000d2f78003342780072be800055
:104014000200e000190032008280e900324078009a
:1040240080437800f043b2000404e100020032004f
:1040340011017800f6ff370003037800844278000a
:104044000504e00005003200364078003204e10047
:10405400f7ff3a008542e900f9ff37000200a700a4
:104064000201e800020f78008086eb000744b200ea
:10407400030032008d06ea00010037000d00200025
:104084003a0678003c00780000040100ffff370086
:10409400106ea900108ea90000348000f10f2e00cc
:1040a40001006000018020000100700000348800dd
:1040b4001034800001fe2f00010060000101200087
:1040c4000100700010348800b00220001013880032
:1040d4006402a800c01521006008880020488800f8
:1040e400804888008014200030488800a0382000d0
:1040f4007048880050c0210000488800504888005b
:10410400f0ff28004228b600000025004228b7002e
:10411400f08f2f004228b600005020004228b7003c
:10412400c0b0ef00c2f0ef00c3f0ef0000e8a90058
:1041340020e8a80011e1a800d014200030868800ef
:10414400c870ef00c910a800c930a9003a06780069
:104154003c007800000401000d007800c3f0b700b3
:10416400ae0678003a0678003c00780000040100ae
:104174000d007800ae0678000000e0000500320073
:10418400ca260200000000003a0678003c007800cd
:1041940000040100da260200000000003a0678005c
:1041a4003c00780000040100c870ec00000222000a
:1041b400a10c2100ff02090080187800c430ef0030
:1041c400c930a900c870ed003a0678003c007800b8
:1041d40000040100e8260200000000003a0678000e
:1041e4003c007800000401000e27020000000000db
:1041f4003a0678003c007800000401000d2f780096
:10420400c4d0bf00800678008d86fb003a06780093
:104214003c007800000401000d2f7800c5d0bf00d9
:10422400800678008d86fb003a0678003c00780012
:1042340000040100c870ec00c930af00b4260200cd
:1042440000000000c930a900f00320000068e1006c
:1042540001003e000d007800c4f0b700c870ed0006
:10426400ae0678003a0678003c00780000040100ad
:10427400c870ec00c930af00b42602000000000092
:10428400c930a9007868e100010039007d012000ef
:104294000d007800c5f0b700c870ed00ae067800d8
:1042a4003a0678003c00780000040100c870ec0075
:1042b400c930af00b426020000000000c930a900d4
:1042c400c470ed0008003b00c570ed0003003b0026
:1042d4000e27020000000000c570ef00000420005b
:1042e4000000e900c4f0b700c870ed003a06780099
:1042f4003c00780000040100c870ec00c930af0035
:10430400b426020000000000c930a900c470ec000b
:1043140000042000c450e30008003900c470ef001a
:10432400c570ec0080012000c550e3000300390093
:10433400e826020000000000c570ed00c870ed0022
:104344003a0678003c00780000040100c870ec00d4
:10435400c930af00b426020000000000c930a90033
:10436400b426020000000000c870ed003a06780090
:104374003c00780000040100c870ec00c930af00b4
:10438400b426020000000000c930a90000c4b30034
:10439400c550bc00c4d0bf000080fb000200400038
:1043a400a10c2100810040008d487800ae06780001
:1043b400c870ed00d0ff3700c870ec00c930af0002
:1043c400b426020000000000c930a900f003200058
:1043d400c4f0b700c870ed00c7ff37000d2f780098
:1043e4000d022000e4ff3700c870ec00c930af00b4
:1043f400b426020000000000c930a900a20c21006c
:10440400800120000068e100060031000004200063
:104414000068b80002014000000222001f000900e9
:1044240000197800c870ed00ae0678003a067800ee
:104434003c00780000040100116ea900f00f2e006a
:104444008826b600003020008826b70000fe2f0022
:10445400c426b600c0022000c426b700601c200099
:104464004011880021e2a80080ff2f004628b600f2
:10447400300020004628b700f0ff28004428b6008a
:10448400000023004428b7000188a9002188a8005f
:104494000168a9002168a8002462ef002342a80053
:1044a4003a0678003c0078000004010021e2a900eb
:1044b40000d82100c1422000420020008100d10028
:1044c4000080d3000201e900110009004d88d800e2
:1044d4000000e9004011880021e2a800ae0678003f
:1044e4003a0678003c007800000401008a17e200d4
:1044f40005003a002322af00030037002d11880085
:10450400ae0678000d003700000120008a17e30092
:10451400feff32008dd7bf000080fb00a177210091
:10452400810040008d487800ae0678008a37ec00a0
:104534008d77ec00f00020008d77b6003a06780005
:104544003c007800000401000d2f78008e17e20073
:1045540001003a00fdff370090d7bf000080fb0048
:10456400a176210081004000914678008e37ed004d
:104574009077ec00f00020009077b6003a067800bf
:104584003c00780000040100f0fd2f00102eb6005e
:10459400f00f2e008226b600002021008226b700ec
:1045a4001629ef0050402000a04888000001200098
:1045b400900888003a0678003c0078000004010066
:1045c4007d088800cd4888008d06d100dd4888002c
:1045d400ae06780013e1a8001dbf8800ae0678007f
:1045e4003a0678003c00780000040100405c20009a
:1045f400142eb7000080ea00102eb60019aea800f1
:10460400f0ff28004828b600000023004828b7001f
:104614002268a8000268a900e01320001012880094
:1046240041e2a8003a0678003c007800000401004a
:1046340041e2a900f00120004222b6000100780006
:104644004222b70041e2a80000000600144ea80070
:1046540041e2a800f0cfb300a100200048e2b70077
:104664004002ae00feff3700401280008100e900e6
:10467400faff3a0000000600144ea800f0cfb30081
:1046840048e2b7004002ae00feff3700401280004f
:104694000000060080027800900820002032880084
:1046a4004626ef0041e6a800707020001032880012
:1046b4004c26ef004e26ef00054078000060a00075
:1046c4000070a10048e6b70048e2b7004002ae001f
:1046d400feff370040128000010078000080fd00da
:1046e40048e6b70048e2b7004002ae00feff3700dc
:1046f400401280000100780048e6b70048e2b700a5
:104704004002ae00feff3700401280000200780035
:104714000080fd0048e6b70048e2b7004002ae0062
:10472400feff3700401280000200780048e6b70020
:104734004086a80048e2b7004002ae00feff370002
:10474400401280004086af00feff37004cc6bf0019
:1047540048e2b7004002ae00feff3700401280007e
:1047640081002000f0cfb30048e2b7004002ae0061
:10477400feff370040128000f0cfb20004003a0080
:104784008100e900f7ff3a00d097a8000000060076
:10479400005a78000300e00001003a00000006001f
:1047a40048e2ef004002ae00feff370048c2bf00ff
:1047b400005a78008301e900f6ff37000d00780005
:1047c400ae06780048e2b7004002ae00feff3700b4
:1047d400401280000d0078000080fd0048e2b70020
:1047e4004002ae00feff3700401280000d0078004a
:1047f40048e2b7004002ae00feff370040128000de
:10480400ae0678000000060014cea9005000200077
:1048140048e2b7004002ae00feff370040128000bd
:1048240048e2ef004002ae00feff370014cea800bd
:104834004802af00f4ff370000000600d037ef0055
:1048440013aeaf0000000600d017a800010020003e
:104854001a230200000000002823020000000000c8
:10486400144ea900000020008000eb000001eb00c2
:104874008001eb00647d21004c2302000000000055
:104884003a0678003c00780000040100154ea900a7
:104894002000200048e2b7004002ae00feff3700cf
:1048a400401280008d007800ae067800e0230200fc
:1048b400000000000d017800ae0678000100e00061
:1048c400070032003240780048e2b7004002ae00f0
:1048d400feff3700401280008100e900f7ff370037
:1048e400154ea8003a0678003c0078000004010048
:1048f400154ea9003000200048e2b7004002ae0087
:10490400feff3700401280008d007800ae0678006c
:10491400e0230200000000000d017800ae067800dc
:10492400832420000100e0000600320048e2ef008a
:104934004002ae00feff3700135978008100e90001
:10494400f8ff3700154ea8003a0678003c007800be
:1049540000040100062402000000000014cea90097
:104964006000200048e2b7004002ae00feff3700be
:104974004012800014cea8000000000014cea9004c
:104984002000200048e2b7004002ae00feff3700de
:1049940040128000c86edd000d2f78008006eb0009
:1049a4008d86d200e0230200000000000d01780093
:1049b400ae067800031020003240780048e2b700c9
:1049c4004002ae00feff3700401280008301e90080
:1049d400f9ff3a0014cea8003a0678003c007800ab
:1049e40000040100062402000000000014cea90007
:1049f4003000200048e2b7004002ae00feff37005e
:104a040040128000c86edd000d2f78008006eb0098
:104a14008d86d200e0230200000000000d01780022
:104a2400ae0678000310200048e2ef004002ae001a
:104a3400feff370040128000005978008301e9002e
:104a4400f9ff3a0014cea8003a0678003c0078003a
:104a540000040100060ea800000ea900040ea9001f
:104a640000e0220000358800c228a8007000200061
:104a74004a28b700f002200030368800601c20006d
:104a8400c011880031e2a800f08f2f004e28b60034
:104a9400005020004e28b70003c8a90023c8a8006e
:104aa4000288a9002288a8003a0678003c00780011
:104ab40000040100a00f2000dc17b400dc17e300a1
:104ac400feff3a00040ea900e0be8000630040002f
:104ad400dc17e300feff3a00040ea8003a06780053
:104ae4003c00780000040100e068e10005003d009e
:104af4006d68e100060032006868e10004003200dd
:104b040002003700ff69e100010035008006eb0078
:104b14003a0678003c007800000401000000eb0035
:104b240091bd8000a2bd80000208e10007003200b0
:104b34002279210002814000b237ec00f00120000c
:104b4400b237b600124078000080fb000d2f7800c9
:104b5400800678003a0678003c00780000040100e2
:104b64000001200004a1b700d02222001008880010
:104b7400f0ff28004028b600000023004028b700ba
:104b84000068a9002068a80005e1a8003a0678009a
:104b94003c007800000401004427ef00400420009a
:104ba400303a880042e7a800c1e8a9003a06780034
:104bb4003c00780000040100000c21009f5f090004
:104bc4000018eb003a0678003c007800000401006d
:104bd40042c7a8003a0678003c00780000040100af
:104be4000000210040be88000008210030be88007b
:104bf400a000200010be8800a0712100c0bd880064
:104c0400a06c2100b0bd8800d0bd88000005200044
:104c1400e0bd880000902100f0bd88006b7b21007e
:104c240000c2fe00e0ff2f001000780060be880084
:104c340070be88003a0678003c0078000004010049
:104c44000d2f7800edbe80003a0678003c00780015
:104c540000040100300220008d06e9000068b8005d
:104c64000080090000000000ae0678003a067800d3
:104c74003c00780000040100e0be80000d0040000c
:104c8400dc17e300feff3a00ae0678003a0678002f
:104c94003c00780000040100e037d500deb7d700ff
:104ca4000400390000022800e0b7b600200020000c
:104cb400deb7b6000d2f7800fdbe80003a067800fe
:104cc4003c007800000401000001eb000401200016
:104cd400de17ae0003003700de37ec0001003900b8
:104ce400e037ec00de17d40080007800e097d600af
:104cf4008000fd00de37b40001007800e0b7b400a6
:104d0400e037d500deb7d700de17d5008381d300a6
:104d14000402e900f3ff3a000d2f780083067800bf
:104d24003a0678003c00780000040100e0be8000f0
:104d3400320020000280d800f0be880001bf880045
:0c4d44003a0678003c00780000040100f2
:020000040000fa
:104d5000c630ed000100320000000600d014200033
:104d600030868800c930aa00c870ec0000c4b300c7
:104d7000c550bc00c4d0bf000080fb000200400052
:104d8000a10c2100810040001174a200c870ed0048
:104d900000000600c910af0000000600d01420007b
:104da00030868800c870ef0010002000c9f0b700fe
:104db00000000600c870ec00c930af00b426020045
:104dc00000000000c970ef00c870ed000000060090
:104dd000c870ec00c930af00b4260200000000002b
:104de000c930a900a10c21000004200001014000ed
:104df00003602000808151008301d1008301e9001c
:104e000003800900b2187800000222001f00090088
:104e100080187800c870ed0000000600c870ec0033
:104e2000c930af00b426020000000000c930a9005c
:104e3000a10c2100006020008080400000042000c0
:104e400000815000df02090041217800000181004b
:104e50001f00090000217800c870ed000000060066
:104e6000ee9500000e9600001e8800000c8c0000dd
:0c4e7000569300000e930000948d00008b
:020000040000fa
:04fffc004496000027
:020000040000fa
:02000004000af0
:04afe000dfff00008f
:020000040000fa
:02000004000af0
:04afe400ffff00006b
:020000040000fa
:02000004000af0
:04afe8005fff000007
:020000040000fa
:02000004000af0
:04afec009aff0000c8
:020000040000fa
:02000004000af0
:04aff000fbff000063
:020000040000fa
:02000004000af0
:04aff400ffff00005b
:00000001FF
