:020000040000fa
:080000000002040000000000f2
:020000040000fa
:040008005a03000097
:020000040000fa
:04000c005a03000093
:020000040000fa
:040010005a0300008f
:020000040000fa
:040014005a0300008b
:020000040000fa
:040018005803000089
:020000040000fa
:04001c005a03000083
:020000040000fa
:040020005a0300007f
:020000040000fa
:040024005a0300007b
:020000040000fa
:040028005a03000077
:020000040000fa
:04002c005a03000073
:020000040000fa
:040030005a0300006f
:020000040000fa
:040034005c03000069
:020000040000fa
:040038005a03000067
:020000040000fa
:04003c005a03000063
:020000040000fa
:040040008602000034
:020000040000fa
:04004400180200009e
:020000040000fa
:040048005a03000057
:020000040000fa
:04004c005a03000053
:020000040000fa
:040050005a0300004f
:020000040000fa
:04005400ea020000bc
:020000040000fa
:040058000e03000093
:020000040000fa
:04005c005a03000043
:020000040000fa
:040060005a0300003f
:020000040000fa
:040064005a0300003b
:020000040000fa
:040068005a03000037
:020000040000fa
:04006c005a03000033
:020000040000fa
:040070005a0300002f
:020000040000fa
:040074003203000053
:020000040000fa
:040078007e03000003
:020000040000fa
:04007c005a03000023
:020000040000fa
:040080005a0300001f
:020000040000fa
:040084005a0300001b
:020000040000fa
:040088005a03000017
:020000040000fa
:04008c005a03000013
:020000040000fa
:040090005a0300000f
:020000040000fa
:040094005a0300000b
:020000040000fa
:040098005a03000007
:020000040000fa
:04009c005a03000003
:020000040000fa
:0400a0003c0300001d
:020000040000fa
:0400a4005a030000fb
:020000040000fa
:0400a8005a030000f7
:020000040000fa
:0400ac005a030000f3
:020000040000fa
:0400b0005a030000ef
:020000040000fa
:0400b4005a030000eb
:020000040000fa
:0400b8005a030000e7
:020000040000fa
:0400bc005a030000e3
:020000040000fa
:0400c0005a030000df
:020000040000fa
:0400c4005a030000db
:020000040000fa
:0400c8005a030000d7
:020000040000fa
:0400cc005a030000d3
:020000040000fa
:0400d0005a030000cf
:020000040000fa
:0400d4005a030000cb
:020000040000fa
:0400d8005a030000c7
:020000040000fa
:0400dc005a030000c3
:020000040000fa
:0400e0005a030000bf
:020000040000fa
:0400e4005a030000bb
:020000040000fa
:0400e8005a030000b7
:020000040000fa
:0400ec005a030000b3
:020000040000fa
:0400f0005a030000af
:020000040000fa
:0400f4005a030000ab
:020000040000fa
:0400f8005a030000a7
:020000040000fa
:0400fc005a030000a3
:020000040000fa
:040100005a0300009e
:020000040000fa
:040104005a0300009a
:020000040000fa
:040108005a03000096
:020000040000fa
:04010c005a03000092
:020000040000fa
:040110005a0300008e
:020000040000fa
:040114005a0300008a
:020000040000fa
:040118005a03000086
:020000040000fa
:04011c005a03000082
:020000040000fa
:040120005a0300007e
:020000040000fa
:040124005a0300007a
:020000040000fa
:040128005a03000076
:020000040000fa
:04012c005a03000072
:020000040000fa
:040130005a0300006e
:020000040000fa
:040134005a0300006a
:020000040000fa
:040138005a03000066
:020000040000fa
:04013c005a03000062
:020000040000fa
:040140005a0300005e
:020000040000fa
:040144005a0300005a
:020000040000fa
:040148005a03000056
:020000040000fa
:04014c005a03000052
:020000040000fa
:040150005a0300004e
:020000040000fa
:040154005a0300004a
:020000040000fa
:040158005a03000046
:020000040000fa
:04015c005a03000042
:020000040000fa
:040160005a0300003e
:020000040000fa
:040164005a0300003a
:020000040000fa
:040168005a03000036
:020000040000fa
:04016c005a03000032
:020000040000fa
:040170005a0300002e
:020000040000fa
:040174005a0300002a
:020000040000fa
:040178005a03000026
:020000040000fa
:04017c005a03000022
:020000040000fa
:040180005a0300001e
:020000040000fa
:040184005a0300001a
:020000040000fa
:040188005a03000016
:020000040000fa
:04018c005a03000012
:020000040000fa
:040190005a0300000e
:020000040000fa
:040194005a0300000a
:020000040000fa
:040198005a03000006
:020000040000fa
:04019c005a03000002
:020000040000fa
:0401a0005a030000fe
:020000040000fa
:0401a4005a030000fa
:020000040000fa
:0401a8005a030000f6
:020000040000fa
:0401ac005a030000f2
:020000040000fa
:0401b0005a030000ee
:020000040000fa
:0401b4005a030000ea
:020000040000fa
:0401b8005a030000e6
:020000040000fa
:0401bc005a030000e2
:020000040000fa
:0401c0005a030000de
:020000040000fa
:0401c4005a030000da
:020000040000fa
:0401c8005a030000d6
:020000040000fa
:0401cc005a030000d2
:020000040000fa
:0401d0005a030000ce
:020000040000fa
:0401d4005a030000ca
:020000040000fa
:0401d8005a030000c6
:020000040000fa
:0401dc005a030000c2
:020000040000fa
:0401e0005a030000be
:020000040000fa
:0401e4005a030000ba
:020000040000fa
:0401e8005a030000b6
:020000040000fa
:0401ec005a030000b2
:020000040000fa
:0401f0005a030000ae
:020000040000fa
:0401f4005a030000aa
:020000040000fa
:0401f8005a030000a6
:020000040000fa
:0401fc005a030000a2
:020000040000fa
:040200005a0300009d
:020000040000fa
:040204005a03000099
:020000040000fa
:040208005a03000095
:020000040000fa
:04020c005a03000091
:020000040000fa
:040210005a0300008d
:020000040000fa
:040214005a03000089
:020000040000fa
:040218005a03000085
:020000040000fa
:04021c005a03000081
:020000040000fa
:040220005a0300007d
:020000040000fa
:040224005a03000079
:020000040000fa
:040228005a03000075
:020000040000fa
:04022c005a03000071
:020000040000fa
:040230005a0300006d
:020000040000fa
:040234005a03000069
:020000040000fa
:040238005a03000065
:020000040000fa
:04023c005a03000061
:020000040000fa
:040240005a0300005d
:020000040000fa
:040244005a03000059
:020000040000fa
:040248005a03000055
:020000040000fa
:04024c005a03000051
:020000040000fa
:040250005a0300004d
:020000040000fa
:040254005a03000049
:020000040000fa
:040258005a03000045
:020000040000fa
:04025c005a03000041
:020000040000fa
:040260005a0300003d
:020000040000fa
:040264005a03000039
:020000040000fa
:040268005a03000035
:020000040000fa
:04026c005a03000031
:020000040000fa
:040270005a0300002d
:020000040000fa
:040274005a03000029
:020000040000fa
:040278005a03000025
:020000040000fa
:04027c005a03000021
:020000040000fa
:040280005a0300001d
:020000040000fa
:100400000e2eef000f0021000e0821000e007800d4
:100410008001b1000001880001c4fe0000c2fe009e
:10042000aa802a003a0678003c0078000004010007
:020000040000fa
:1004300000e8a90061e2a900801f7800c030ec004c
:100440001900320060002000c010e3001c003200e0
:10045000c0002000c010e3001c003200200120007a
:10046000c010e3001c00320020032000c010e30095
:100470001f003200200f2000c010e30021003200d6
:10048000f0102000c250e200010032000000e8003d
:10049000c010e30002003a00c2f0ee00c0b0ef006e
:1004a0004f00780000400600400a200030488800d5
:1004b000e08a20002048880060088800f8ff3700a4
:1004c000a080200030488800f5ff3700400a200057
:1004d00030488800f2ff3700801420003048880040
:1004e000c01521002048880060088800ecff370014
:1004f000c350e200eaff320000c8a90020c8a800eb
:10050000e7ff370020c8a900e5ff370000c8a900b1
:10051000809fbe00829fbe00849fbe00861f780021
:100520003200f80000c2fe00018680002103b10005
:10053000e7826000c308de00020420000110b8005a
:10054000a40c21000402400023732900904880007d
:1005500063006000000601000000000000000000d1
:100560000000000061e2a8000200e000100032007c
:10057000344078000003eb000070a7000083eb001c
:10058000f007b2004300dd0080804100858040001c
:10059000114078000670a7000080ea006022ab00de
:1005a000feff3a0068e2b7000201e900eeff370003
:1005b0006022ab00feff3a006822ef003200f90033
:1005c0004f0378004f02be004f01be004f00be0037
:1005d000004006000168a900801f7800811f780094
:1005e00091d7bf000080fb00a17621008100400070
:1005f0002202ae00060037003011800080487800eb
:100600008e37ec009177ec00f00020009177b60077
:10061000cf0078004f007800004006000188a90054
:10062000801f7800811f78008a17e2000a003200dc
:100630008cd7bf000080fb00a17721008100400023
:100640001140780024e2b7008a37ed008c77ec0087
:10065000f00020008c77b600cf0078004f007800c3
:1006600000400600d237ef0013aeae00d217a8004c
:100670000268a9000040060003c8a900809fbe00d0
:10068000829fbe00b011800021792100a2bd8000b0
:1006900081004100804878001200b000f201b200f1
:1006a000a2bd88004f01be004f00be000040060002
:1006b0000000fe000000fe000068a900809fbe0050
:1006c000829fbe00de37ec00e417e2000300320038
:1006d000e437ed0001003a0013e1a900c850e20040
:1006e00003003a00c910af0082270200000000009a
:1006f0004f01be004f00be00004006000000fe009b
:020000040000fa
:10070000000000002445000058490000540000008b
:100710005a1b000082830000a52800004c490000fd
:1007200054290000621b00008c830000a6280000f2
:10073000434c000049540000290000006c1b0000dd
:1007400096830000a828000042520000414e00009d
:100750004348000029000000781b0000a28300002d
:10076000a928000054420000524100004e430000fe
:1007700048290000801b0000b0830000a928000069
:100780003f420000524100004e4300004829000053
:100790008e1b0000be830000a4280000444f000010
:1007a000290000009c1b0000cc830000a62800004c
:1007b0004c4f00004f50000029000000ae1b00000d
:1007c000d6830000a72800002b4c00004f4f0000ec
:1007d00050290000c81b0000e2830000834900008c
:1007e00050400000ce1b0000ee8300008349000053
:1007f00050210000d81b0000f68300008652000044
:10080000454200004f4f000054000000e21b000072
:10081000fe83000087450000584500004355000056
:1008200054450000e41b00000a84000088400000da
:1008300045580000454300005554000045000000a5
:10084000ec1b00001684000081400000fe1b00002d
:10085000248400008243000040000000061c0000c9
:100860002a8400008232000040000000101c0000ba
:1008700032840000812100001e1c00003a84000028
:100880008243000021000000281c0000408400007a
:100890008232000021000000341c00004884000067
:1008a00081490000421c000050840000814a000081
:1008b0004c1c000056840000865500004e4c000081
:1008c0004f4f000050000000561c00005c840000e8
:1008d0008344000055500000601c00006884000044
:1008e000843200004455000050000000681c0000e5
:1008f00070840000843f0000445500005000000058
:10090000741c00007a84000084440000524f0000f0
:1009100050000000801c000084840000853200002c
:10092000445200004f500000881c00008e840000dc
:10093000845300005741000050000000921c00004a
:100940009884000085320000535700004150000099
:100950009e1c0000a2840000835200004f5400003f
:10096000b21c0000ac840000842d0000524f000037
:1009700054000000c41c0000b4840000844f000038
:100980005645000052000000d41c0000be84000048
:10099000853200004f56000045520000de1c00006a
:1009a000c8840000834e000049500000ec1c000089
:1009b000d2840000823e000052000000f41c0000bf
:1009c000da840000825200003e000000fe1c00009d
:1009d000e28400008252000040000000081d000078
:1009e000ea8400008353000050400000121d000004
:1009f000f284000083530000502100001e1d0000ff
:100a0000fa8400008352000050400000261d0000c0
:100a1000028500008352000050210000301d0000bc
:100a20000a85000084540000554300004b0000007c
:100a30003a1d00001285000085440000455000006a
:100a400054480000461d00001c8500008450000032
:100a5000494300004b000000541d000026850000a3
:100a60008348000045580000401b000092830000ae
:100a700010000000b88700003c840000888300005c
:100a8000308500008744000045430000494d0000c8
:100a9000414c0000401b0000928300000a0000004f
:100aa000b88700003c840000888300004285000075
:100ab000812b0000621d000058850000812d000080
:100ac0006a1d00005e850000823100002b000000de
:100ad000741d000064850000823200002b000000bd
:100ae0007c1d00006c850000823100002d0000009c
:100af000841d000074850000823200002d0000007b
:100b00008c1d00007c850000823200002a0000005d
:100b1000941d000084850000823200002f00000038
:100b20009c1d00008c850000864c0000534800008e
:100b30004946000054000000a41d000094850000f8
:100b4000865200005348000049460000540000004f
:100b5000b41d0000a0850000822b000021000000d1
:100b6000c41d0000ac850000824d00002b00000079
:100b7000d21d0000b4850000812a0000e21d0000a3
:100b8000bc850000835500004d2a0000f01d0000c8
:100b9000c285000083550000442a0000401b00006d
:100ba0006c840000de840000c68500008a8400009a
:100bb0009e840000e6840000c6850000b08400002a
:100bc0005a85000088830000ca850000812f00003c
:100bd000fc1d0000e6850000822a00002f000000b6
:100be0000a1e0000ec850000852a00002f4d000041
:100bf0004f4400001c1e0000f4850000842f0000fc
:100c00004d4f000044000000301e0000fe85000033
:100c1000865500004d2f00004d4f0000440000009d
:100c2000401e000008860000834d0000415800006f
:100c3000521e000014860000834d0000494e000043
:100c4000601e00001c86000086570000495400000a
:100c5000484900004e0000006e1e0000248600007f
:100c600084450000564500004e000000861e00002e
:100c700030860000834f000044440000941e0000b2
:100c80003a8600008341000042530000a21e00008b
:100c900042860000834100004e440000ac1e00006c
:100ca0004a860000824f000052000000b41e00007f
:100cb00052860000835800004f520000bc1e000006
:100cc0005a860000864900004e560000455200003a
:100cd00054000000c41e000062860000864e000022
:100ce000454700004154000045000000cc1e0000b4
:100cf0006e860000823000003d000000d41e00001f
:100d00007a860000823000003c000000de1e0000f9
:100d100082860000823000003e000000ea1e0000d3
:100d20008a860000813d0000f41e000092860000cb
:100d3000823c00003e000000041f00009886000076
:100d4000813c0000141f0000a0860000813e0000ce
:100d5000241f0000a6860000825500003c00000011
:100d6000341f0000ac860000825500003e000000e9
:100d7000441f0000b486000084430000454c00007e
:100d80004c000000541f0000bc860000854300009a
:100d9000454c00004c2b00005e1f0000c686000082
:100da00085430000454c00004c530000661f0000c6
:100db000d0860000854100004c490000474e0000ed
:100dc000401b0000128700006c840000928300002a
:100dd000010000004e8600005a850000ac8700002c
:100de0003c84000088830000da8600008741000010
:100df0004c490000474e000045440000701f0000b1
:100e0000f6860000853e0000434800004152000085
:100e10007a1f00000287000084480000455200004d
:100e200045000000401b0000ac8700002684000045
:100e3000888300000c870000844d00004f5600009e
:100e400045000000881f00001c870000854300004b
:100e50004d4f000056450000a41f000026870000eb
:100e600084530000434100004e000000c01f0000fa
:100e70003087000084460000494c00004c00000010
:100e8000dc1f00003a87000085430000464900004f
:100e90004c4c0000f21f000044870000892d000028
:100ea00054520000414900004c4900004e470000e8
:100eb000082000004e8700008550000041430000dc
:100ec0004b240000401b0000fe8600006c840000e4
:100ed000de840000c48400006c8400009283000063
:100ee0000000000092830000020000001086000055
:100ef0008a84000060850000c48400005a850000d8
:100f000092830000000000009e8400003c840000ea
:100f100076840000448400009283000001000000f9
:100f20005a8500009e8400002c870000e6840000a3
:100f3000888300005c870000855300005441000056
:100f4000544500004a1b00000a0000009c87000076
:100f500082440000500000004a1b0000080000000e
:100f6000a8870000844200004153000045000000b3
:100f70004a1b00000c000000b287000089530000eb
:100f8000595300004c4100005445000053540000e8
:100f90004a1b000016000000be870000864c0000bf
:100fa0004154000045530000540000004a1b00005b
:100fb00018000000ce870000864e00004557000054
:100fc00045530000540000004a1b00001a000000b6
:100fd000dc87000082520000300000004a1b000045
:100fe00012000000ea870000825300003000000079
:100ff0004a1b000010000000f4870000835000002e
:10100000414400004a1b000002000000fe8700006f
:1010100083540000494200004a1b00000000000009
:1010200008880000833e0000494e00004a1b000073
:101030000e000000128800008248000050000000ee
:101040004a1b0000140000001c88000086270000d6
:10105000534f000055520000434500004a1b00005a
:10106000040000002688000087230000534f000082
:1010700055520000434500004a1b000006000000d6
:101080003488000087560000455200005349000094
:101090004f4e00001e2000004288000086520000d3
:1010a000414d0000454e0000440000002820000093
:1010b0004e880000854900004d4d00004544000069
:1010c000322000005a880000864800004944000091
:1010d000444500004e0000003c20000064880000f1
:1010e000874c0000454e00004d410000534b00006e
:1010f0004620000070880000824200004c00000082
:10110000502000007c880000875400004942000005
:10111000534900005a4500005a200000848800000e
:101120008750000041440000534900005a45000028
:101130006420000090880000865500004c490000a3
:101140004d490000540000006e2000009c88000003
:10115000854400004f4300004f4c00007820000001
:10116000a888000086270000534f00005552000059
:101170004345000082200000b28800008753000031
:101180004f55000052430000452100009020000010
:10119000be8800008542000041530000453f00002a
:1011a000401b0000c48400002e8400009e830000c9
:1011b0002400000094860000c8830000080000009e
:1011c00034850000ac8300002c000000c4840000c3
:1011d0002e8400009e8300002500000094860000fd
:1011e000c88300000e00000092830000020000008f
:1011f000b88700003c840000ac83000012000000af
:10120000c48400002e8400009e83000023000000a0
:1012100094860000c88300000c0000004a8500008e
:101220009e840000688500009e8400007885000090
:1012300088830000ca880000844e000045470000f3
:101240003f000000401b0000c48400002e8400000a
:101250009e8300002d00000094860000de840000c4
:101260009e840000ee840000608500009e840000e3
:10127000ee8400005a850000888300001c8900006d
:10128000874e0000554d000042450000523f0000cf
:10129000401b0000b887000026840000de840000a8
:1012a0009283000000000000c4840000388c00001d
:1012b000d08800002289000080840000c8830000dc
:1012c0004200000092830000000000009e840000a5
:1012d000d28300006c840000de8400002e840000b5
:1012e000b887000026840000b8890000ba83000097
:1012f0000c000000e68400008a8400006484000082
:10130000ac830000200000009e840000b88700002d
:1013100026840000be8500005a850000e684000097
:1013200068850000de830000d6ff00008a8400008c
:10133000ee840000c88300000400000076860000f0
:101340009e840000e684000094840000e68400008f
:10135000b88700003c8400008883000040890000ba
:101360008644000049470000495400003f00000047
:10137000401b00006c8400009283000060000000ad
:10138000b8860000c88300000800000092830000b7
:1013900020000000608500006c8400009283000043
:1013a00039000000b8860000c88300001a00000061
:1013b0006c8400009283000041000000b0860000b1
:1013c000c8830000080000009283000000000000b5
:1013d0008883000092830000070000006085000001
:1013e0009283000030000000608500006c840000e3
:1013f000b887000026840000b086000088830000c3
:10140000b0890000873e00004e5500004d420000ac
:1014100045520000401b00006c840000c88300009f
:101420002c000000c48400002e840000b889000055
:101430007e860000c8830000060000008a84000049
:1014400088830000de840000a8840000b8870000c4
:1014500026840000ce850000e6840000b8850000e8
:10146000a88400009283000001000000508b00005f
:10147000ac830000d2ff000088830000028a0000d5
:10148000853f000053490000474e0000401b00000c
:10149000c48400002e840000928300002c00000011
:1014a000608500006c840000468600009283000086
:1014b00001000000948600004e8600006c8400004d
:1014c000c88300000e00000068850000de84000074
:1014d0009283000001000000508b0000e6840000b1
:1014e00088830000408a0000873f00004e550000be
:1014f0004d42000045520000401b00006c8400007b
:1015000092830000000000006c840000b0840000a2
:10151000388c0000468a0000de8400000a8a000041
:10152000c883000010000000e684000094840000de
:10153000948400009283000000000000ac8300004f
:101540001200000094840000d6840000e6840000ad
:10155000c88300000400000076860000928300002b
:10156000ffff000088830000748a00008557000098
:101570004f52000044530000401b0000f493000051
:10158000d6870000268400006c8400007e86000060
:10159000ba830000400000006c8400002e8400002c
:1015a0006c8800004e860000c88300000800000020
:1015b00080850000ac830000e6ff00006c84000022
:1015c0006c8400002e840000788800004e860000a5
:1015d0006c840000929300005a8500009283000002
:1015e00040000000b0860000ba8300000400000044
:1015f000f4930000de84000068850000e6840000ab
:101600003c940000fe93000080850000ac83000045
:10161000baff00008a840000f49300008883000071
:10162000b68a000085550000505000004552000069
:101630009e200000128b0000845300004b490000e4
:1016400050000000c02000001c8b000087410000fb
:10165000445200003e4900004e000000401b0000c4
:10166000ba880000b0840000b084000060850000eb
:101670002086000092830000000000001886000011
:10168000168800003c84000088830000268b000040
:10169000872f000053540000524900004e470000bd
:1016a000401b0000b0840000c48400005a85000084
:1016b000b0840000b08400006085000088830000d2
:1016c000488b000085500000415200005345000047
:1016d000401b0000ba880000168800002684000025
:1016e000508b0000c4840000de840000b084000041
:1016f00036870000c48400009e840000c883000078
:1017000004000000688500002e8b0000e6840000c5
:10171000188500006085000088830000628b00004f
:10172000845700004f52000044000000401b00009e
:101730006c840000ba88000016880000268400002f
:10174000508b0000b0840000228b00008a840000cf
:101750002e8b0000688b0000128700007c8c00003c
:101760001287000088830000908b000084460000f0
:10177000494e000044000000dc200000b68b000051
:101780008641000043430000455000005400000023
:10179000401b0000c48400005a850000de84000065
:1017a0006c840000a89600006c8400009283000006
:1017b0000d00000094860000c883000016000000a1
:1017c0008a84000080880000c484000044840000f3
:1017d0009e8400006085000068850000e6840000ab
:1017e0008a840000888300006c84000092830000db
:1017f0000800000094860000c88300001400000068
:101800008a8400007684000094860000ba83000079
:10181000caff00008894000078850000ac830000b7
:10182000c2ff0000c4840000ee8400009486000023
:10183000ba830000100000006c840000ec930000ec
:10184000c48400004484000068850000ac8300006c
:10185000aaff00008a840000ac830000a4ff0000ff
:10186000c08b0000854300004f5500004e5400001f
:10187000401b00006c8400002e840000de84000009
:1018800068850000e684000088830000328c000038
:1018900085450000525200004f520000401b0000de
:1018a000fe930000388c00003c940000fe93000082
:1018b0009e8300003f000000ec9300009283000034
:1018c00000000000a28700003c840000f8870000b0
:1018d00026840000fe840000f4930000b68d000012
:1018e000488c0000883e0000434f0000554e000029
:1018f0005445000044000000401b000076840000b6
:1019000044840000688500009e8400002c8700004d
:1019100088830000728c0000812c0000401b0000b6
:10192000128700003c840000928300000200000047
:10193000228f0000888300008c8c0000824300000e
:101940002c000000401b00001287000044840000af
:101950009283000001000000228f000088830000b5
:101960009e8c0000894900004e5400004552000042
:101970005052000045540000401b0000c688000083
:101980009283000000000000168800003c840000e4
:1019900080880000968b00006c8400002e8400007c
:1019a000c88300003e000000bc8b00008084000063
:1019b000c88300001c00000068850000a2870000aa
:1019c000268400007e86000056860000c883000042
:1019d0000800000012840000ac8300000400000036
:1019e000bc8f0000ac830000d4ff00007c8a0000a4
:1019f000c883000008000000fa900000ac830000db
:101a0000c8ff0000388c00003c9400009283000066
:101a10003f000000ec930000f4930000728d000082
:101a20008a84000088830000b28c00008845000092
:101a3000564100004c550000415400004500000094
:101a4000401b0000ba880000de840000de84000035
:101a50001688000026840000de840000bc8c000094
:101a6000e6840000168800003c840000e684000044
:101a7000e6840000c688000088830000168d000000
:101a8000824f00004b000000401b000092930000ba
:101a900092830000030000005a850000928300003a
:101aa00040000000a2860000ba830000040000008d
:101ab000f4930000fe930000928300004f000000aa
:101ac000ec930000928300004b000000ec930000b8
:101ad00088830000408d000085410000424f0000d7
:101ae00052540000401b0000f887000026840000cc
:101af000fe840000b68d00006c8d00008641000061
:101b0000424f00005254000022000000401b000021
:101b1000c883000014000000ee8400006c84000004
:101b20002e8400009e840000688500009e840000d2
:101b30003c940000f4930000728d0000e6840000e5
:101b40006c8400002e8400005a8500006885000027
:101b5000fe860000de840000888300007e8d000089
:101b6000845100005549000054000000401b000053
:101b7000ee870000268400000e850000928300009e
:101b800000000000a28700003c8400000c880000d8
:101b9000268400006c840000928300003f00000057
:101ba000c88b0000fe930000bc8c0000a2870000e0
:101bb00026840000ba83000004000000448d000069
:101bc000f4930000ac830000e2ff0000b08d000041
:101bd000c1280000401b0000928300002900000083
:101be000688b00009484000088830000e88d00006a
:101bf000c15c0000401b0000ba8800005a8500004c
:101c00002e8b000088830000f88d0000874e0000b6
:101c1000464100003e4c000046410000401b0000d1
:101c200092830000020000006085000088830000ad
:101c3000068e0000874e0000464100003e43000033
:101c400046410000401b00006c8400002e84000010
:101c5000928300001f0000004e8600005a8500009d
:101c600068850000fe860000888300001a8e000050
:101c700087430000464100003e4e00004641000000
:101c8000401b00006c8400009283000000190000db
:101c9000b0860000c88300000a0000006c840000c9
:101ca0005e860000ac8300005a0000006c840000d7
:101cb000de8400009283000021000000de8400002a
:101cc000788500006c8400002e8400006c84000085
:101cd00092830000800000004e860000ba8300005e
:101ce000140000008a840000e6840000788500006b
:101cf0006c840000c88300002a000000de8400001d
:101d0000ac830000deff0000e68400008a8400004f
:101d1000928300001f0000004e860000c484000073
:101d20005a85000068850000fe860000e6840000f9
:101d3000948600006c840000c88300000c00000042
:101d40008a840000ac8300000a000000e6840000e2
:101d50008a8400009e8400008a840000888300003a
:101d6000388e0000894900004d4d000045440000b8
:101d70004941000054450000401b0000d687000088
:101d800026840000c8870000268400009486000096
:101d9000ba83000012000000d687000026840000ed
:101da0006c8400002e8400006088000056860000cd
:101db0009e8400004484000088830000b28e0000ee
:101dc000844800004944000045000000401b00001a
:101dd000d6870000268400006c8400002e8400005a
:101de0006c880000568600009e8400004484000039
:101df00088830000e08e00008652000045560000f7
:101e0000454100004c000000401b0000d687000048
:101e1000268400006c8400002e8400006c88000082
:101e20006a8600004e8600009e8400004484000004
:101e300088830000fc8e0000854100004c4c0000af
:101e40004f540000401b0000ac870000b08500002c
:101e5000888300001c8f000081270000401b0000c9
:101e600080880000968b00006c8400002e840000a7
:101e7000c88300000c000000bc8b0000c883000079
:101e800020000000ac8300002c0000008a840000c9
:101e90003c9100001028000027290000206e00005f
:101ea000616d0000652000006d6900007373000023
:101eb000696e000067000000f4930000728d00005e
:101ec000388c00003c940000fe93000092830000d8
:101ed0003f000000ec930000f4930000728d0000be
:101ee000888300002c8f0000c95b0000434f000076
:101ef0004d500000494c0000455d0000401b0000b3
:101f00002e8f0000bc8f000088830000748f0000bb
:101f1000c84300004f4d0000504900004c450000f0
:101f20003f000000401b0000a28700002684000044
:101f30007e860000868d0000116300006f6d00003a
:101f4000706900006c650000206f00006e6c00007e
:101f500079200000776f0000726400008883000021
:101f6000888f0000c84300004f4d0000504900001a
:101f70004c4500002c000000401b0000561b0000d8
:101f80008e8c0000b28f0000853c00004d410000a7
:101f9000524b0000401b0000928f0000128700008f
:101fa00088830000c48f0000c83c00005245000038
:101fb000534f00004c56000045000000401b00003d
:101fc000928f00001287000060850000bc8f000027
:101fd00088830000d48f0000c53e00004d41000002
:101fe000524b0000401b0000928f0000128700003f
:101ff0009283000000000000bc8f00008883000076
:10200000ec8f0000c83e000052450000534f000016
:102010004c56000045000000401b0000928f00005d
:102020006c84000012870000608500009e84000020
:102030003c8400008883000002900000864300007a
:10204000524500004154000045000000401b0000c4
:10205000d6870000268400008e8c000012870000c6
:10206000e48700003c84000080880000968b00001c
:102070006c8400002e8400007e860000868d0000a7
:102080000c6d000069730000736900006e6700004a
:10209000206e0000616d0000650000006c8400008f
:1020a0002e84000068850000228f0000e08600007a
:1020b0006c8400002e8400006c88000056860000ae
:1020c000c484000044840000888300001e90000047
:1020d000c15b0000401b0000928300000000000074
:1020e000a28700003c840000888300006890000004
:1020f000c15d0000401b000092830000ffff000054
:10210000a28700003c8400008883000078900000d3
:10211000c95b0000434f00004d500000494c0000d7
:10212000455d0000401b0000928f00002e8f0000d4
:10213000bc8f00008883000088900000c743000027
:102140004f4d0000504900004c450000401b00006e
:10215000928f0000e68400006c840000268400005a
:10216000bc8f0000cc860000de8400008883000065
:102170009e900000c85000004f53000054500000d3
:102180004f4e000045000000401b0000808800000a
:10219000968b0000bc8b00006c8400007e860000e3
:1021a000c88300000e0000008a840000388c000004
:1021b0003c940000928300003f000000728d0000fc
:1021c0008e8600000c00000092830000bc8f00008f
:1021d000a6900000ac83000002000000888300008d
:1021e000ba900000c74c000049540000455200005e
:1021f000414c0000401b0000a28700002684000024
:10220000c883000008000000a69000009283000030
:102210008e8c000088830000f29000008344000050
:102220004f240000401b0000e6840000ee84000004
:10223000e6840000388c00005a850000fe8600000d
:10224000de8400009e840000de840000888300009d
:102250000e910000c3240000227c0000401b0000ff
:1022600012910000388c0000888300002a91000041
:10227000c32e0000227c0000401b000012910000d1
:10228000388c00003c9400008883000038910000e6
:10229000c32400002c220000401b00009283000099
:1022a00022000000968b0000388c00005a85000048
:1022b000fe860000ac8700003c840000888300009c
:1022c00048910000c253000022000000401b0000a3
:1022d000928f0000a69000002e9100004c9100000b
:1022e0008883000062910000c22e000022000000de
:1022f000401b0000928f0000a69000003c9100005f
:102300004c9100008883000074910000c7520000c7
:10231000454300005552000053450000401b00009b
:10232000e487000026840000228e0000bc8f00009d
:102330008883000086910000c24400004f00000026
:10234000401b0000928f0000a6900000d283000086
:10235000ca8f0000888300009c910000c44c0000dc
:102360004f4f000050000000401b0000928f000003
:10237000a6900000de830000de8f0000888300004e
:10238000ae910000c52b00004c4f00004f500000e4
:10239000401b0000928f0000a6900000ea8300001e
:1023a000de8f000088830000c2910000c54200005b
:1023b00045470000494e0000401b0000928f00007e
:1023c000ca8f000088830000d6910000c54100003c
:1023d00047410000494e0000401b0000928f000062
:1023e000a6900000ac830000de8f00008883000010
:1023f000e6910000c55500004e540000494c000015
:10240000401b0000928f0000a6900000c8830000cf
:10241000de8f000088830000fa910000c5410000b3
:102420004845000041440000401b0000928f00001e
:10243000a6900000ac830000f28f000088830000ab
:102440000e920000c249000046000000401b000040
:10245000928f0000a6900000c8830000f28f000059
:102460008883000022920000c45400004845000008
:102470004e000000401b0000928f00000c900000f6
:102480008883000034920000c44500004c530000d3
:1024900045000000401b0000928f0000a690000045
:1024a000ac830000f28f00009e8400003a9200008e
:1024b0008883000044920000c5570000484900008e
:1024c0004c450000401b0000928f0000a6900000c9
:1024d000c8830000f28f00009e8400008883000003
:1024e0005c920000c65200004550000045410000cb
:1024f00054000000401b0000928f0000a6900000d6
:10250000ac830000de8f00000c9000008883000088
:1025100072920000813a0000401b000026900000eb
:1025200092830000401b0000bc8f00007a900000e6
:10253000888300008a920000c13b0000401b00001d
:10254000928f0000a690000088830000e4870000be
:102550002e8400006c8800006a8600004e86000011
:10256000d6870000448400006a9000008883000041
:102570009c920000874900004e4600004c4f00002e
:102580004f50000022210000ba920000822e00006d
:1025900053000000401b0000228500009e830000c5
:1025a0003c000000ec9300006c840000ba95000031
:1025b0009e8300003e000000ec930000fe930000ac
:1025c00080840000c88300000e0000006c840000be
:1025d0002c850000ba95000078850000ac830000cf
:1025e000f0ff000088830000c692000085480000cc
:1025f000445500004d500000401b00008084000046
:10260000ba8300000400000088830000b88700003f
:1026100026840000de840000348500009e840000d3
:1026200092830000feff00004e8600009e840000a2
:102630009283000000000000d2830000528400005a
:1026400092830000070000004e860000ba8300005d
:102650000e000000f49300006c84000092830000e0
:10266000050000008c950000fe9300006c840000c3
:102670002684000092830000050000008c95000075
:1026800092830000020000005a850000de830000f3
:10269000d6ff0000e6840000b88700003c840000fc
:1026a0008883000024210000f69200008556000077
:1026b000494400004f4e000088210000569300005e
:1026c0008743000055520000454e0000424c000078
:1026d0009421000060930000834300004c530000ed
:1026e000b02100006c9300008653000043520000ac
:1026f0004c55000050000000c621000074930000fb
:1027000086530000435200004c4400004e0000007d
:10271000d021000080930000844700004554000051
:1027200058000000da2100008c930000844700006c
:102730004554000059000000e82100009693000075
:10274000845300004554000058000000f6210000aa
:10275000a09300008453000045540000590000007d
:1027600014220000aa930000864300005552000086
:10277000504f000053000000401b0000a6930000d3
:10278000b093000088830000b4930000844c0000e4
:10279000454600005400000032220000c6930000ad
:1027a00085520000494700004854000058220000ac
:1027b000d093000087540000474c000043480000bd
:1027c0004152000082220000da930000844500009c
:1027d0004d4900005400000098220000e6930000dc
:1027e0008243000052000000b8220000f093000075
:1027f000855300005041000043450000ca220000fc
:10280000f89300008653000050410000434500004b
:1028100053000000401b00006c8400009283000005
:1028200000000000a8860000ba8300000600000037
:102830008a8400008883000092830000000000006a
:10284000d2830000fe930000de830000fcff000046
:102850008883000002940000854300004c52000071
:102860004c4e0000d02200002c9400008454000044
:102870005950000045000000401b00006c8400001f
:10288000ba830000060000009484000088830000e2
:102890009283000000000000d28300006c840000de
:1028a0002e84000080840000c88300000e00000019
:1028b000ec93000068850000de830000f0ff00005c
:1028c000ac83000004000000648400008a840000df
:1028d000888300003694000086440000454c0000c8
:1028e0004554000045000000401b000080880000a7
:1028f000ec930000888300006c9400008842000084
:10290000414300004b4300004841000052000000da
:10291000401b0000cc93000074940000cc93000096
:10292000888300007e940000854400004947000031
:1029300049540000401b0000928300000900000081
:10294000c4840000a28600009283000007000000fb
:102950004e8600005a85000092830000300000007f
:102960005a85000088830000949400008745000089
:10297000585400005241000043540000401b000026
:1029800092830000000000009e840000108600007a
:102990009e8400009a94000088830000b694000092
:1029a000823c000023000000401b00000288000061
:1029b00026840000988800005a85000020880000c6
:1029c0003c84000088830000d0940000844800000c
:1029d0004f4c000044000000401b000092830000a8
:1029e000ffff000020880000b08500002088000064
:1029f000268400004484000088830000e6940000e0
:102a000081230000401b0000b887000026840000de
:102a1000be940000ec940000888300000095000044
:102a20008223000053000000401b000002950000bc
:102a30006c840000ba830000faff00008883000065
:102a40001095000084530000494700004e0000002c
:102a5000401b000086860000c883000008000000bc
:102a60009e8300002d000000ec940000888300008d
:102a700022950000822300003e000000401b000061
:102a80008a8400002088000026840000028800005c
:102a900026840000988800005a850000c484000045
:102aa00060850000888300003a9500008353000091
:102ab00054520000401b00006c840000de840000c3
:102ac00046860000d494000014950000e6840000bf
:102ad000289500003e950000888300005695000070
:102ae000822e000052000000401b0000de84000027
:102af0005a950000e6840000c48400006085000050
:102b00000a9400003c940000888300007095000047
:102b1000835500002e520000401b0000de840000a0
:102b2000d4940000149500003e950000e684000057
:102b3000c4840000608500000a9400003c940000fa
:102b40008883000088950000825500002e00000058
:102b5000401b0000d4940000149500003e95000036
:102b6000fe9300003c94000088830000a4950000c0
:102b7000812e0000401b0000b88700002684000062
:102b8000928300000a0000005e860000ba83000005
:102b9000e2ff0000fe9300005a9500003c94000004
:102ba00088830000b8950000813f0000401b0000b2
:102bb00092830000feff00004e8600002684000085
:102bc000ba95000088830000d4950000824300007d
:102bd0003f000000401b00002e840000ba9500005a
:102be00088830000e695000085430000484100000e
:102bf00052530000401b00009e840000928300009e
:102c000000000000d28300006c840000ec93000000
:102c1000de830000faff00008a8400008883000041
:102c2000f8220000f49500008442000041550000a5
:102c30004400000032230000149600008553000079
:102c4000454d000049540000522300001e9600002c
:102c5000845300004745000054000000802300001a
:102c6000a023000028960000845400004f4e00006e
:102c700045000000bc230000d22300003496000071
:102c80008753000044430000494e000049540000af
:102c9000fa240000409600008652000053540000c1
:102ca0004f52000045000000222500004c96000015
:102cb000855200004c4f00004144000054250000a4
:102cc0005896000086450000535400004f52000003
:102cd0004500000086250000629600008545000042
:102ce0004c4f000041440000ce25000006260000a5
:102cf00036260000502600006e9600008647000031
:102d0000455400004b450000590000006a260000b1
:102d10007e960000843f00004b45000059000000f3
:102d2000401b0000869600007a9600006c8400002c
:102d3000c88300000600000092830000ffff00002f
:102d4000888300008a960000834b000045590000ec
:102d5000401b00009096000080840000c8830000a3
:102d6000faff00008a84000088830000a496000017
:102d7000844e0000554600003f000000401b00004c
:102d8000909600006c840000c88300000c000000d6
:102d900094840000a8960000928300000d000000bb
:102da0009486000088830000401b0000ee9600001f
:102db000f0960000ec96000052930000769600001a
:102dc000109600003c96000030960000f29600003d
:102dd00078960000888300008c260000a82600005a
:102de000b8260000c4260000cc260000b8960000db
:102df00085540000494300004b530000fc260000ae
:102e0000f896000084550000534500004300000080
:102e10000627000002970000844d00005345000083
:102e200043000000182700000c970000844c0000ad
:102e300046530000520000002827000016970000ab
:102e400084520000414e0000440000004027000072
:102e50002097000085530000524100004e440000be
:042e600072270000d5
:020000040000fa
:102e6400000000000000000000000000000000005e
:102e740000000000000f000008080000080800001f
:102e840008080000080f0000000000000000000017
:102e94000000000000f80000080800000808000016
:102ea4000808000008f8000000000000000000000e
:102eb40008080000080800000808000008080000ce
:102ec4000000000000ff00000000000000000000ff
:102ed4000808000008ff00000808000008080000b7
:102ee40000000000000000000000000000000000de
:102ef40000000000000000000000000000000000ce
:102f040000000000000000000000000000000000bd
:102f14000000000000ff000008080000080800008e
:102f24000808000008ff0000000000000000000086
:102f3400000000000000000000000000000000008d
:102f440008080000080f0000080800000808000036
:102f54000808000008f8000008080000080800003d
:102f640080c00000e0f00000e0c00000800000002d
:102f740001030000070f0000070300000100000028
:102f8400000000000000000000000000000000003d
:102f9400000000000000000000000000000000002d
:102fa400000000000000000000000000000000001d
:102fb400000000000000000000000000000000000d
:102fc40000000000000000000000000000fe0000ff
:102fd400103800007c1000001010000000fe0000fb
:102fe40020700000a8200000202000000000000045
:102ff4000020000020200000a87000002000000035
:103004004020000010f800001020000040000000e4
:103014001020000040f800004020000010000000d4
:10302400000000000080000080800000fe0000001e
:103034000000000044fe0000440000000000000006
:1030440000000000103800007cfe000000000000ba
:1030540000000000fe7c00003810000000000000aa
:10306400000000000000000000000000000000005c
:10307400202000002020000020000000200000008c
:10308400505000005000000000000000000000004c
:1030940050500000f8500000f850000050000000ac
:1030a40020780000a070000028f00000200000003c
:1030b400c0c8000010200000409800001800000064
:1030c40060900000a0400000a8900000680000008c
:1030d400602000004000000000000000000000002c
:1030e40010200000404000004020000010000000bc
:1030f40040200000101000001020000040000000dc
:1031040000200000a8700000a820000000000000bb
:103114000020000020f80000202000000000000033
:1031240000000000000000006020000040000000db
:103134000000000000f0000000000000000000009b
:1031440000000000000000000060000060000000bb
:103154000008000010200000408000000000000073
:103164007088000098a80000c88800007000000063
:10317400206000002020000020200000f800000053
:10318400708800001020000040800000f80000005b
:10319400f008000008f0000008080000f00000003b
:1031a4001030000050900000f810000010000000e3
:1031b400f880000080f0000008080000f000000023
:1031c4003040000080f0000088880000700000009b
:1031d400f8080000102000004040000040000000fb
:1031e400708800008870000088880000700000006b
:1031f400708800008870000008080000700000005b
:10320400006000006000000060600000000000003a
:10321400006000006000000060200000400000002a
:10322400102000004080000040200000100000003a
:1032340000000000f8000000f8000000000000009a
:103244004020000010080000102000004000000092
:10325400708800000810000020000000200000001a
:103264007088000008680000a8a800007000000032
:103274007088000088f8000088880000880000003a
:10328400f088000088f0000088880000f00000004a
:1032940078800000808000008080000078000000ba
:1032a400f08800008888000088880000f000000092
:1032b400f880000080f8000080800000f800000022
:1032c400f880000080f8000080800000800000008a
:1032d4007880000080b00000888800007000000042
:1032e4008888000088f800008888000088000000b2
:1032f400702000002020000020200000700000004a
:103304007808000008080000089000006000000031
:1033140088900000a0c00000a09000008800000079
:10332400808000008080000080800000f8000000a1
:1033340088d80000a8880000888800008800000061
:1033440088880000c8a80000988800008800000051
:1033540070880000888800008888000070000000e1
:10336400f088000088f000008080000080000000e9
:103374007088000088880000a89800007800000089
:10338400f088000088f00000a09000008800000091
:10339400788000008070000008080000f000000041
:1033a400f820000020200000202000002000000061
:1033b4008888000088880000888800007000000069
:1033c40088880000888800008850000020000000e1
:1033d4008888000088a80000a8d8000088000000a1
:1033e40088880000502000005088000088000000f9
:1033f4008888000088500000202000002000000081
:10340400f81000002040000080800000f800000058
:1034140060400000404000004040000060000000a8
:1034240000800000402000001008000000000000a0
:103434001808000008080000080800001800000030
:103444002050000088000000000000000000000080
:1034540000000000000000000000000000f8000070
:1034640040200000100000000000000000000000e8
:103474000000000070080000788800007800000058
:103484008080000080b00000c8880000f0000000c8
:1034940000000000708000008088000070000000c0
:1034a4000808000008680000988800007800000000
:1034b4000000000070880000f88000007000000028
:1034c4003048000040e000004040000040000000a0
:1034d4000000000078880000887800000870000070
:1034e40080800000b0c800008888000088000000c8
:1034f4000020000000200000202000002000000028
:103504001000000030100000109000006000000067
:103514008080000090a00000c0a000009000000087
:103524006020000020200000202000007000000027
:1035340000000000d0a80000a88800008800000057
:1035440000000000b0c80000888800008800000067
:1035540000000000708800008888000070000000ef
:1035640000000000f088000088f000008080000067
:10357400000000006890000090b0000050180000a7
:1035840000000000b0c8000080800000800000003f
:10359400000000007080000070080000f0000000cf
:1035a40040400000e04000004048000030000000bf
:1035b400000000008888000088980000680000006f
:1035c40000000000888800008850000020000000ef
:1035d4000000000088880000a8a800005000000037
:1035e4000000000088500000205000008800000007
:1035f400000000008888000088780000087000003f
:1036040000000000f810000020400000f800000056
:1036140020400000408000004040000020000000e6
:1036240020200000202000002020000020000000b6
:103634004020000020100000202000004000000076
:103644000000000040a8000010000000000000007e
:10365400fcfc0000fcfc0000fcfc0000fcfc000086
:020000040000fa
:103664000c4600006f72000074680000457800008a
:0c36740020560000302e00003100000045
:020000040000fa
:103680008a1f78000c0578003a0678003c00780024
:10369000000401000d2f78003c0078008b064000ec
:1036a0003a0678003c007800000401001c0678000f
:1036b0003c0578004f0578003a0678003c00780019
:1036c000000401000d2f7800ba0678003a06780051
:1036d0003c007800000401000d2f7800ba06780045
:1036e0008d86fb003a0678003c007800000401005b
:1036f0001a0545003a0678003c00780000040100f5
:103700000d00e000ae067800f9ff3a000a85e800f7
:103710003a0678003c007800000401000d00e0004b
:10372000ae067800f2ff32000a85e8003a0678001b
:103730003c00780000040100881f7800891f780091
:103740008d047800ae0678000d047800ae0678008f
:103750003a0678003c007800000401008904e80083
:103760000848e10004003d001a0545003a067800cb
:103770003c007800000401000a85e800cf047800ce
:103780004f0478003a0678003c00780000040100fd
:103790008d844400ae067800f1ff37000d2f7800cd
:1037a0008a0678003a0678003c00780000040100a0
:1037b0000d057800ae0678003a0678003c007800e7
:1037c000000401000000fe000d067800ae0678003f
:1037d0003c007800000401001d007800ae0678006f
:1037e000019021000100e100010039000004010006
:1037f0003a0678003c007800000401009d0678003d
:103800003a0678003c007800000401009d467800ec
:103810008d86fb003a0678003c0078000004010029
:103820001d0078002d00b0009d067800002f780064
:103830003a0678003c00780000040100ae0e7800e3
:10384000ae0678003a0678003c00780000040100db
:103850002e007800804e7800ae0678003a06780098
:103860003c00780000040100ae0e78002d00b0008e
:10387000ae0e7800ae0678003a0678003c0078007c
:10388000000401000d2f7800890678003a067800c0
:103890003c007800000401000d2f7800ffbe970067
:1038a0003a0678003c00780000040100cf0478005c
:1038b0004f0478003a0678003c00780000040100cc
:1038c0000d2f78003a0678003c00780000040100d3
:1038d0001e0078000d2f7800002f78003a0678003f
:1038e0003c007800000401000d00e00001003200ff
:1038f0000d2f78003a0678003c00780000040100a3
:10390000ae0678003a0678003c007800000401001a
:10391000ae067800ae0678003a0678003c007800e3
:10392000000401000d0078009e067800000f78006a
:103930003a0678003c007800000401007eb8970049
:103940007dbf9f00800678006eb897009e007800cb
:1039500061bf9f00000f78003a0678003c007800b5
:10396000000401001e0078000d00fd00000f78002b
:103970007eb897008006fd0070bf9f003a06780071
:103980003c007800000401000d0078009e067800dd
:10399000feb89700010f780070bf9f003a067800cc
:1039a0003c007800000401000d2f7800febe970057
:1039b0003a0678003c007800000401000d2f7800e2
:1039c000eebe97005eb89700002f78003a067800a8
:1039d0003c007800000401000e87e9003a067800f8
:1039e0003c007800000401008d1f7800ae067800ce
:1039f0003a0678003c007800000401000d2f7800a2
:103a0000cf0678003a0678003c00780000040100f8
:103a10000d2f7800ffbe97003a0678003c00780032
:103a2000000401000e0078000d2f78008006780059
:103a30003a0678003c007800000401000d07780089
:103a40003a0678003c007800000401000d2f780051
:103a50008f0678003a0678003c00780000040100e8
:103a60008d077800ae0678003a0678003c007800b2
:103a7000000401001e0078000d0f7800002f780070
:103a80003a0678003c0078000004010030be800057
:103a9000000057000d2f78008006d1003a0678000c
:103aa0003c007800000401000e0078008d06d00074
:103ab0000d005000900678003a0678003c0078002f
:103ac00000040100ae8646003a0678003c0078000b
:103ad000000401002e0078008d0650003a067800a0
:103ae0003c007800000401001d00b0003a06780098
:103af0003c007800000401002d00b0003a06780078
:103b00003c007800000401001d00b1003a06780076
:103b10003c007800000401002d00b1003a06780056
:103b20003c007800000401008d8646003a067800cb
:103b30003c007800000401008d06d1003a067800b0
:103b40003c007800000401000d007800ae0678000b
:103b50000000e900008009008d06d0003a067800d8
:103b60003c007800000401000d007800ae067800eb
:103b70000000e900008009008d06d1003a067800b7
:103b80003c007800000401001d0078002e00400079
:103b9000800e7800ae0678003a0678003c00780087
:103ba000000401007eb897008d007800ae06780012
:103bb000010f40000d80b0003a0678003c0078000c
:103bc000000401000d007800ae0678000d80b900f9
:103bd000800678003a0678003c0078000004010076
:103be0001e68b80081067800000f78003a06780059
:103bf0003c007800000401002e017800110009004b
:103c00000d01d800800678003a0678003c00780064
:103c1000000401002e007800ae0078000180b90099
:103c2000110009000d00d800800678003a067800df
:103c30003c007800000401002e007800ae007800ff
:103c40000180b900110009000d00d800012f780093
:103c5000800678003a0678003c00780000040100f5
:103c60001e017800110009004d19d8008006780067
:103c7000010f78003a0678003c007800000401004b
:103c8000ae0078002e007800110009004d88d800a1
:103c900080067800012f78003a0678003c00780012
:103ca000000401002e0078000068e10001003d00e2
:103cb0000d00fd003a0678003c0078000004010089
:103cc0002e0078000d00e10001003d000d00fd0018
:103cd0003a0678003c007800000401000000eb0088
:103ce0002e017800ae0078000208e10003003900e0
:103cf0000d08e100010031000080eb008006780033
:103d00003a0678003c007800000401000080eb00d7
:103d10000d00a7000000eb00800678003a0678004e
:103d20003c007800000401000080eb000d00a600bc
:103d30000000eb00800678003a0678003c0078002e
:103d4000000401000df0a7008d06ea003a06780095
:103d50003c00780000040100ae8666003a06780058
:103d60003c00780000040100ae8676003a06780038
:103d70003c00780000040100ae866e003a06780030
:103d80003c007800000401008d86ea003a067800c5
:103d90003c007800000401008d06ea003a06780035
:103da0003c007800000401001d00b1008d865e001b
:103db0003a0678003c007800000401008d86460039
:103dc0008d865e008d86ea003a0678003c00780019
:103dd000000401008d8646008d865e003a0678005c
:103de0003c007800000401000000eb002e68e100b8
:103df00001003a000080eb00800678003a06780067
:103e00003c007800000401000000eb002e68e10097
:103e1000010032000080ea00800678003a0678004f
:103e20003c007800000401000080eb002e68e100f7
:103e300001003c000080ea00800678003a06780025
:103e40003c007800000401000080eb002e68e100d7
:103e5000010035000080ea00800678003a0678000c
:103e60003c007800000401000000eb002e68e10037
:103e7000010036000080ea00800678003a067800eb
:103e80003c007800000401000000eb002e68e10017
:103e9000010031000080ea00800678003a067800d0
:103ea0003c007800000401000d2f78002d00200058
:103eb0003a0678003c007800000401002d00b000b4
:103ec0003a0678003c007800000401006268b800ff
:103ed000800678003a0678003c0078000004010073
:103ee0000d00a7008d06e8003a0678003c00780037
:103ef00000040100fd07b200e068e10001003d00a0
:103f0000fd0520003a0678003c007800000401001e
:103f10000d007800ae0678000d017800ae0678003e
:103f20008d007800ae0678000000e000030032004b
:103f30000000e90000800900311978003a06780095
:103f40003c007800000401000d007800ae06780007
:103f50000d017800ae0678008d007800ae0678007e
:103f60000000e000030032000000e90000800900ca
:103f7000315978003a0678003c00780000040100ce
:103f80000d007800ae0678009e0078000d00e0007d
:103f9000050032001104e100030032008100e80056
:103fa0008d06e900fbff3a00010f78003a06780021
:103fb0003c007800000401002e007800ae0078007c
:103fc0000100e000030032008100e90001800900e7
:103fd000801e7800ae0678003a0678003c00780033
:103fe000000401002e007800ae0078000100e0001f
:103ff000030032008100e90001800900805e780042
:10400000ae0678003a0678003c0078000004010013
:104010001e0078000d004000110220000000e900a1
:10402000100ce10069343e000000e8009e065000dc
:104030003a0678003c007800000401000d2f78005b
:104040002db329003a0678003c00780000040100f6
:104050000d2f7800fdff2c003a0678003c00780018
:10406000000401000d2f78000d0420003a067800ae
:104070003c007800000401000d2f78000d022000a4
:104080003a0678003c007800000401000d2f78000b
:10409000fd0120003a0678003c0078000004010091
:1040a0000d2f78000d0220003a0678003c007800c1
:1040b000000401000d2f78000d0520003a0678005d
:1040c0003c007800000401000d2f78000d05200051
:1040d0003a0678003c007800000401000d2f7800bb
:1040e000edff2c003a0678003c0078000004010047
:1040f0000d2f78000db429003a0678003c007800b6
:10410000000401000d2f7800ddbd80000d2f780028
:10411000edbd80003a0678003c0078000004010004
:10412000edbd8800ae067800ddbd8800ae067800e3
:104130003a0678003c007800000401008d00780009
:10414000ae067800314178000204e0000900320038
:10415000314078000241e900e105e100faff390051
:10416000fa05e100f8ff3e000042b100f0f89f00c0
:10417000f5ff37003a0678003c00780000040100a3
:104180000d007800ae0678009e0078000d00e0007b
:10419000050032001104e10003003a008100e8004c
:1041a0008d06e900fbff3a00010f78003a0678001f
:1041b0003c007800000401008d0178000d2f78008c
:1041c0003342780072be80000200e0001900320025
:1041d0008280e9003240780080437800f043b200ea
:1041e0000404e1000200320011017800f6ff3700fc
:1041f00003037800844278000504e00005003200e3
:10420000364078003204e100f7ff3a008542e900c9
:10421000f9ff37000200a7000201e800020f780052
:104220008086eb000744b200030032008d06ea00ee
:10423000010037000d0020003a0678003c007800ad
:1042400000040100ffff3700106ea900108ea900c6
:1042500000348000f10f2e0001006000018020007a
:1042600001007000003488001034800001fe2f002f
:10427000010060000101200001007000103488007e
:10428000b0022000101388006402a800c0152100ad
:10429000600888002048880080488800801420003a
:1042a00030488800a03820007048880050c02100a5
:1042b0000048880050488800f0ff28004228b600d7
:1042c000000025004228b700f08f2f004228b600da
:1042d000005020004228b700c0b0ef00c2f0ef004d
:1042e000c3f0ef0000e8a90020e8a80011e1a80051
:1042f000d014200030868800c870ef00c910a800d4
:10430000c930a9003a0678003c007800000401009a
:104310000d007800c3f0b700ae0678003a067800ca
:104320003c007800000401000d007800ae06780023
:104330000000e00005003200a42702000000000099
:104340003a0678003c00780000040100b42702001f
:10435000000000003a0678003c00780000040100ec
:10436000c870ec0000022200a10c2100ff0209002d
:1043700080187800c430ef00c930a900c870ed0083
:104380003a0678003c00780000040100c2270200d1
:10439000000000003a0678003c00780000040100ac
:1043a000e8270200000000003a0678003c00780090
:1043b000000401000d2f7800c4d0bf0080067800f3
:1043c0008d86fb003a0678003c007800000401006e
:1043d0000d2f7800c5d0bf00800678008d86fb00c9
:1043e0003a0678003c00780000040100c870ec0038
:1043f000c930af008e27020000000000c930a900bc
:10440000f00320000068e10001003e000d0078008c
:10441000c4f0b700c870ed00ae0678003a06780028
:104420003c00780000040100c870ec00c930af0007
:104430008e27020000000000c930a9007868e10062
:10444000010039007d0120000d007800c5f0b700a3
:10445000c870ed00ae0678003a0678003c0078009f
:1044600000040100c870ec00c930af008e270200c4
:1044700000000000c930a900c470ed0008003b0036
:10448000c570ed0003003b00e827020000000000bb
:10449000c570ef00000420000000e900c4f0b70080
:1044a000c870ed003a0678003c0078000004010076
:1044b000c870ec00c930af008e2702000000000079
:1044c000c930a900c470ec0000042000c450e3000f
:1044d00008003900c470ef00c570ec0080012000b6
:1044e000c550e30003003900c227020000000000ad
:1044f000c570ed00c870ed003a0678003c00780009
:1045000000040100c870ec00c930af008e27020023
:1045100000000000c930a9008e2702000000000042
:10452000c870ed003a0678003c00780000040100f5
:10453000c870ec00c930af008e27020000000000f8
:10454000c930a90000c4b300c550bc00c4d0bf002e
:104550000080fb0002004000a10c2100810040000f
:104560008d487800ae067800c870ed00d0ff3700a7
:10457000c870ec00c930af008e27020000000000b8
:10458000c930a900f0032000c4f0b700c870ed00e6
:10459000c7ff37000d2f78000d022000e4ff370021
:1045a000c870ec00c930af008e2702000000000088
:1045b000c930a900a20c2100800120000068e100a0
:1045c00006003100000420000068b800020140002d
:1045d000000222001f00090000197800c870ed00d9
:1045e000ae0678003a0678003c007800000401002e
:1045f000116ea900f00f2e008826b60000302000b2
:104600008826b70000fe2f00c426b600c002200096
:10461000c426b700601c20004011880021e2a800d9
:1046200080ff2f004628b600300020004628b70043
:10463000f0ff28004428b600000023004428b700fb
:104640000188a9002188a8000168a9002168a800a4
:104650002462ef002342a8003a0678003c0078006c
:104660000004010021e2a90000d82100c14220007d
:10467000420020008100d1000080d3000201e90047
:10468000110009004d88d8000000e90040118800a1
:1046900021e2a800ae0678003a0678003c007800d7
:1046a000000401008a17e20005003a002322af004f
:1046b000030037002d118800ae0678000d0037008a
:1046c000000120008a17e300feff32008dd7bf00f3
:1046d0000080fb00a1772100810040008d48780018
:1046e000ae0678008a37ec008d77ec00f0002000f1
:1046f0008d77b6003a0678003c007800000401008f
:104700000d2f78008e17e20001003a00fdff370000
:1047100090d7bf000080fb00a176210081004000ff
:10472000914678008e37ed009077ec00f000200085
:104730009077b6003a0678003c007800000401004b
:10474000f0fd2f00102eb600f00f2e008226b600ce
:10475000002021008226b7001629ef0050402000db
:10476000a048880000012000900888003a067800e0
:104770003c007800000401007d088800cd488800d6
:104780008d06d100dd488800ae06780013e1a80050
:104790002dbf8800ae0678003a0678003c0078000d
:1047a00000040100405c2000142eb7000080ea00e5
:1047b000102eb60019aea800f0ff28004828b60059
:1047c000000023004828b7002268a8000268a9005a
:1047d000e01320001012880041e2a8003a06780099
:1047e0003c0078000004010041e2a900f001200033
:1047f0004222b600010078004222b70041e2a80040
:1048000000000600144ea80041e2a800f0cfb3005b
:10481000a100200048e2b7004002ae00feff3700d2
:10482000401280008100e900faff3a000000060013
:10483000144ea800f0cfb30048e2b7004002ae002b
:10484000feff370040128000000006008002780062
:1048500090082000203288004626ef0041e6a8009c
:1048600070702000103288004c26ef004e26ef00ba
:10487000054078000060a0000070a10048e6b70085
:1048800048e2b7004002ae00feff37004012800051
:10489000010078000080fd0048e6b70048e2b7005c
:1048a0004002ae00feff3700401280000100780099
:1048b00048e6b70048e2b7004002ae00feff37000e
:1048c00040128000020078000080fd0048e6b7003a
:1048d00048e2b7004002ae00feff37004012800001
:1048e0000200780048e6b7004086a80048e2b7001a
:1048f0004002ae00feff3700401280004086af004d
:10490000feff37004cc6bf0048e2b7004002ae00d1
:10491000feff37004012800081002000f0cfb3007e
:1049200048e2b7004002ae00feff370040128000b0
:10493000f0cfb20004003a008100e900f7ff3a002e
:10494000d297a80000000600005a78000300e0009b
:1049500001003a000000060048e2ef004002ae000d
:10496000feff370048c2bf00005a78008301e9000b
:10497000f6ff37000d007800ae06780048e2b70079
:104980004002ae00feff3700401280000d007800ac
:104990000080fd0048e2b7004002ae00feff370095
:1049a000401280000d00780048e2b7004002ae00df
:1049b000feff370040128000ae06780000000600bf
:1049c00014cea9005000200048e2b7004002ae001b
:1049d000feff37004012800048e2ef004002ae00c8
:1049e000feff370014cea8004802af00f4ff3700e6
:1049f00000000600d237ef0013aeaf000000060043
:104a0000d217a80001002000f423020000000000db
:104a10000224020000000000144ea9000000200043
:104a20008000eb000001eb008001eb00847d2100a1
:104a300026240200000000003a0678003c007800be
:104a400000040100154ea9002000200048e2b70034
:104a50004002ae00feff3700401280008d0078005b
:104a6000ae067800ba240200000000000d017800b4
:104a7000ae0678000100e000070032003240780006
:104a800048e2b7004002ae00feff3700401280004f
:104a90008100e900f7ff3700154ea8003a067800bc
:104aa0003c00780000040100154ea90030002000f1
:104ab00048e2b7004002ae00feff3700401280001f
:104ac0008d007800ae067800ba24020000000000d5
:104ad0000d017800ae067800832420000100e0007c
:104ae0000600320048e2ef004002ae00feff370051
:104af000135978008100e900f8ff3700154ea8002f
:104b00003a0678003c00780000040100e02402002e
:104b10000000000014cea9006000200048e2b700a9
:104b20004002ae00feff37004012800014cea80005
:104b30000000000014cea9002000200048e2b700c9
:104b40004002ae00feff370040128000c86edd005c
:104b50000d2f78008006eb008d86d200ba2402006b
:104b6000000000000d017800ae0678000310200060
:104b70003240780048e2b7004002ae00feff370046
:104b8000401280008301e900f9ff3a0014cea8002a
:104b90003a0678003c00780000040100e02402009e
:104ba0000000000014cea9003000200048e2b70049
:104bb0004002ae00feff370040128000c86edd00ec
:104bc0000d2f78008006eb008d86d200ba240200fb
:104bd000000000000d017800ae06780003102000f0
:104be00048e2ef004002ae00feff370040128000b6
:104bf000005978008301e900f9ff3a0014cea800bb
:104c00003a0678003c00780000040100060ea80077
:104c1000000ea900040ea90000e022000035880063
:104c2000c228a800700020004a28b700f002200027
:104c300030368800601c2000c011880031e2a800d6
:104c4000f08f2f004e28b600005020004e28b700ed
:104c500003c8a90023c8a8000288a9002288a800c8
:104c60003a0678003c00780000040100a00f200004
:104c7000de17b400de17e300feff3a00040ea900c1
:104c8000f0be800063004000de17e300feff3a0044
:104c9000040ea8003a0678003c00780000040100e9
:104ca000e068e10005003d006d68e10006003200ab
:104cb0006868e1000400320002003700ff69e1008b
:104cc000010035008006eb003a0678003c007800d1
:104cd000000401000000eb0091bd8000a2bd800037
:104ce0000208e10007003200227921000281400021
:104cf000b237ec00f0012000b237b6001240780065
:104d00000080fb000d2f7800800678003a067800be
:104d10003c007800000401000001200004a1b7005d
:104d2000d022220010088800f0ff28004028b6009a
:104d3000000023004028b7000068a9002068a800f0
:104d400005e1a8003a0678003c0078000004010064
:104d50004427ef0040042000303a880042e7a800d2
:104d6000c1e8a9003a0678003c0078000004010080
:104d7000000c21009f5f09000018eb003a06780044
:104d80003c0078000004010042c7a8003a06780001
:104d90003c007800000401000000210040be8800b3
:104da0000008210030be8800a000200010be88004e
:104db000a0712100c0bd8800a06c2100b0bd88009a
:104dc000d0bd880000052000e0bd880000902100d3
:104dd000f0bd88006b7b210000c2fe00e0ff2f00c9
:104de0001000780060be880070be88003a06780027
:104df0003c007800000401000d2f7800fdbe80000b
:104e00003a0678003c0078000004010030022000df
:104e10008d06e9000068b80000800900000000006d
:104e2000ae0678003a0678003c00780000040100e5
:104e3000f0be80000d004000de17e300feff3a00e8
:104e4000ae0678003a0678003c00780000040100c5
:104e5000e237d500e0b7d70004003900000228008f
:104e6000e2b7b60020002000e0b7b6000d2f7800b2
:104e70000dbf80003a0678003c0078000004010075
:104e80000001eb0004012000e017ae000300370032
:104e9000e037ec0001003900e237ec00e017d40005
:104ea00080007800e297d6008000fd00e037b40073
:104eb00001007800e2b7b400e237d500e0b7d700d0
:104ec000e017d5008381d3000402e900f3ff3a0024
:104ed0000d2f7800830678003a0678003c007800b1
:104ee00000040100f0be8000320020000280d800e3
:104ef00000bf880011bf88003a0678003c007800a7
:044f000000040100a8
:020000040000fa
:104f0400c630ed000100320000000600d01420007d
:104f140030868800c930aa00c870ec0000c4b30011
:104f2400c550bc00c4d0bf000080fb00020040009c
:104f3400a10c2100810040001174a200c870ed0092
:104f440000000600c910af0000000600d0142000c5
:104f540030868800c870ef0010002000c9f0b70048
:104f640000000600c870ec00c930af008e270200b4
:104f740000000000c970ef00c870ed0000000600da
:104f8400c870ec00c930af008e270200000000009a
:104f9400c930a900a10c2100000420000101400037
:104fa40003602000808151008301d1008301e90066
:104fb40003800900b2187800000222001f000900d3
:104fc40080187800c870ed0000000600c870ec007e
:104fd400c930af008e27020000000000c930a900cc
:104fe400a10c21000060200080804000000420000b
:104ff40000815000df020900412178000001810096
:105004001f00090000217800c870ed0000000600b0
:10501400d4960000f49600004a880000388c000002
:0c5024003c940000f4930000b68d0000e6
:020000040000fa
:04fffc002a97000040
:020000040000fa
:02000004000af0
:04afe000dfff00008f
:020000040000fa
:02000004000af0
:04afe400ffff00006b
:020000040000fa
:02000004000af0
:04afe8005fff000007
:020000040000fa
:02000004000af0
:04afec009aff0000c8
:020000040000fa
:02000004000af0
:04aff000fbff000063
:020000040000fa
:02000004000af0
:04aff400ffff00005b
:00000001FF
