:020000040000fa
:080000000002040000000000f2
:020000040000fa
:1000080006040000060400000604000006040000c0
:1000180006040000060400000604000006040000b0
:10002800060400000604000006040000bc030000eb
:10003800060400000604000028030000b2020000c5
:10004800060400000604000006040000080400007e
:100058002c0400000604000006040000060400004a
:100068000604000006040000060400000604000060
:1000780096030000060400000604000006040000c1
:100088000604000006040000060400000604000040
:100098000604000006040000060400000604000030
:1000a8000604000006040000060400000604000020
:1000b8000604000006040000060400000604000010
:1000c8000604000006040000060400000604000000
:1000d80006040000060400000604000006040000f0
:1000e80006040000060400000604000006040000e0
:1000f80006040000060400000604000006040000d0
:1001080006040000060400000604000006040000bf
:1001180006040000060400000604000006040000af
:10012800060400000604000006040000060400009f
:10013800060400000604000006040000060400008f
:10014800060400000604000006040000060400007f
:10015800060400000604000006040000060400006f
:10016800060400000604000006040000060400005f
:10017800060400000604000006040000060400004f
:10018800060400000604000006040000060400003f
:10019800060400000604000006040000060400002f
:1001a800060400000604000006040000060400001f
:1001b800060400000604000006040000060400000f
:1001c80006040000060400000604000006040000ff
:1001d80006040000060400000604000006040000ef
:1001e80006040000060400000604000006040000df
:0801f8000604000006040000eb
:020000040000fa
:1002080006040000060400000604000006040000be
:1002180006040000060400000604000006040000ae
:10022800060400000604000006040000bc030000e9
:10023800060400000604000028030000b2020000c3
:10024800060400000604000006040000080400007c
:100258002c04000006040000060400000604000048
:10026800060400000604000006040000060400005e
:1002780096030000060400000604000006040000bf
:10028800060400000604000006040000060400003e
:10029800060400000604000006040000060400002e
:1002a800060400000604000006040000060400001e
:1002b800060400000604000006040000060400000e
:1002c80006040000060400000604000006040000fe
:1002d80006040000060400000604000006040000ee
:1002e80006040000060400000604000006040000de
:1002f80006040000060400000604000006040000ce
:1003080006040000060400000604000006040000bd
:1003180006040000060400000604000006040000ad
:10032800060400000604000006040000060400009d
:10033800060400000604000006040000060400008d
:10034800060400000604000006040000060400007d
:10035800060400000604000006040000060400006d
:10036800060400000604000006040000060400005d
:10037800060400000604000006040000060400004d
:10038800060400000604000006040000060400003d
:10039800060400000604000006040000060400002d
:1003a800060400000604000006040000060400001d
:1003b800060400000604000006040000060400000d
:1003c80006040000060400000604000006040000fd
:1003d80006040000060400000604000006040000ed
:1003e80006040000060400000604000006040000dd
:0803f8000604000006040000e9
:020000040000fa
:1004000000802000f1ff2000018009000018eb00af
:100410000f782200a9d220008f0498001a0f020042
:100420000000000000802200000188000e742200fd
:100430009e049800a0002000a004980000672800f7
:10044000c0049800e8662800b80578003b007800f2
:10045000004001000000000000000000000000005b
:10046000000000000000000000000000000000008c
:10047000000000000000000000000000000000007c
:10048000000000000000000000000000000000006c
:10049000000000000000000000000000000000005c
:1004a000000000000000000000000000000000004c
:1004b000000000000000000000000000000000003c
:1004c000000000000000000000000000000000002c
:1004d000000000000000000000000000000000001c
:1004e000000000000000000000000000000000000c
:1004f00000000000000000000000000000000000fc
:1005000000000000000000000000000000000000eb
:1005100000000000000000000000000000000000db
:1005200000000000000000000000000000000000cb
:1005300000000000000000000000000000000000bb
:1005400000000000000000000000000000000000ab
:10055000000000000000000000000000000000009b
:040560000000000097
:020000040000fa
:10056400801f78000028ec00180032006000200092
:100574000008e3001b003200c00020000008e30074
:100584001b003200200120000008e3001b003200a1
:10059400c00220000008e3001e003200c00e20004c
:1005a4000008e3001e003200f01020000008e30001
:1005b4001d003200001120000008e300200032007a
:1005c40084e0a9004f00780000400600500220009b
:1005d400100c8800b01f2000000c88006008880000
:1005e400f7ff3700601d2000100c8800f4ff37006f
:1005f40050022000100c8800f1ff3700a0042000f6
:10060400100c8800703f2000000c880060088800ef
:10061400ebff370084c0a90094c0a800e8ff3700ae
:1006240094c0a900e6ff37000000eb000248e30095
:10063400e3ff320000a8ef000268ef00e0ff37009c
:1006440000a8ef0002e8ef00ddff3700801f78000c
:10065400811f7800821f7800831f7800841f780030
:10066400851f78003400f8003008800063006000c3
:100674004100dd00006001000000000000000000f7
:100684000000000000000000000000000000000066
:1006940000000000cc42a80000002000a001880057
:1006a40001408000c102b100e7826000c308de009f
:1006b400220320000110b8006480200004024000de
:1006c40063682800344078000080fb004300dd00ac
:1006d4008081410085814100934078008180fb0046
:1006e4006022ab00feff3a00411388000201e900da
:1006f400f3ff3a006022ab00feff3a006822ef00ed
:100704003400f900cf0278004f027800cf0178005e
:100714004f017800cf0078004f007800cc42a90048
:1007240084c0a9000040060000a0fe00501680000e
:1007340000e0a300deacd7000b00390000ce20009f
:100744001168800081004000f06680004500de00f2
:100754008008780002adec00f0012000022db60004
:1007640000402000f06688000080fe008680a9001a
:1007740000400600801f7800811f7800821f7800e7
:100784003e2dec0000688000020de30019003200e9
:1007940001ce20008100400011a0a6001200390003
:1007a400110078000000d1000f0031008000eb0040
:1007b400820020000010a5000180b0000201e900c1
:1007c400fcff3b000100a6000700370041d02000d9
:1007d4003269800081004100804878001200b00036
:1007e400f201b2003269880000adec00f001200093
:1007f400002db6004f017800cf0078004f0078003c
:100804008460a900004006000000fe008560a90085
:10081400801f7800811f7800ddccbf000080fb00c2
:1008240061cb2000810040002202ae0006003700a8
:100834003011800080487800da2cec00dd6cec008c
:10084400f0002000dd6cb600cf0078004f00780087
:10085400004006008580a900801f7800811f780071
:10086400d60ce2000a003200d8ccbf000080fb00a6
:1008740061cc2000810040001140780024e2b700e0
:10088400d62ced00d86cec00f0002000d86cb6003b
:0c089400cf0078004f0078000040060004
:020000040000fa
:1008a00000000000044d000053450000430000001c
:1008b000480f00006484000004520000414e000014
:1008c00044000000580f000064840000055300003d
:1008d000524100004e4400008a0f0000000000005a
:1008e000034300004c530000100d0000ce840000b4
:1008f00004580000504f000053000000200d00007d
:10090000ce84000004590000504f00005300000046
:10091000340d0000ce840000064300005552000054
:10092000504f000053000000b80d00007e8400000e
:100930008884000010850000ce840000044500007b
:100940004d49000054000000460d0000ce84000018
:1009500002430000520000007c0d0000ce84000025
:10096000024200004c0000007e0d0000ce8400001a
:1009700008530000435200004f4c00004c5500004b
:1009800050000000840d0000ce84000005430000ec
:100990004c5200004c4e00009c0d0000ce84000024
:1009a000045400005950000045000000b80d00003c
:1009b0001885000000000000528500006c850000d2
:1009c0002a850000a48400005e850000de8400000b
:1009d0001085000000000000043f00004b450000af
:1009e00059000000900c0000f4840000034b00004c
:1009f00045590000a60c000000000000074500005b
:100a0000584500004355000054450000c40d000047
:100a100062860000044500005849000054000000b0
:100a2000ca0d000062860000054c00004954000019
:100a3000d40d000062860000044300004c49000011
:100a400054000000e00d0000628600000243000038
:100a500040000000ee0d000062860000024300002e
:100a600021000000f80d000062860000054400002f
:100a70004f42000052410000060e00006286000056
:100a8000064400004f3000004252000041000000c8
:100a90000e0e000062860000044400004f44000077
:100aa0004f000000240e0000628600000644000093
:100ab0004f4c00004f4f000050000000380e000067
:100ac00062860000014900004c0e000062860000b2
:100ad0000344000055500000560e000062860000de
:100ae00004440000524f0000500000005e0e000061
:100af00062860000045300005741000050000000cf
:100b0000660e000062860000035200004f54000091
:100b1000720e000062860000044f0000564500007f
:100b200052000000820e00006286000001310000c9
:100b30002b0000008c0e00006286000004540000b0
:100b40004553000054000000b80d000074840000fc
:100b5000f68500001a860000188500004d0100008f
:100b600058840000f68500000c86000018850000ff
:100b70004d010000588400003c850000aa8500005b
:100b800062860000075300004552000054450000f3
:100b900053540000b80d000074840000308600003b
:100ba000848600007a8600003c850000d085000025
:100bb00062860000074b00004244000054450000dc
:100bc00053540000b80d000074840000fa84000043
:100bd000a48400003c850000e685000062860000d9
:100be000054800004f4d000045000000b80d000012
:100bf00018850000000000001885000000000000bb
:100c0000948400001085000062860000064f0000fa
:100c10004b4f000046460000b80d0000b4840000b1
:100c2000b48400001085000062860000024f0000be
:100c30004b000000b80d0000188500004f000000b8
:100c4000a4840000188500004b000000a48400006c
:100c50001085000062860000034d0000534700002d
:100c6000b80d000018850000e8030000588400005b
:100c700018850000488b00004886000010850000a1
:100c800062860000055a00005459000050450000db
:100c9000b80d00006c8500002a8500006c850000fe
:100ca000488500005c8600007a8600009a85000076
:100cb0003c8500004a8600007685000076850000ad
:100cc0001085000062860000074900004e460000c3
:100cd0004c4f00004f500000940e0000e2850000d1
:100ce000628600000000000005530000454d000032
:100cf00049540000cc0e00007c8600000453000024
:0c0d00004745000054000000fa0e0000ff
:020000040000fa
:100d0c004020000010f800001020000040000000ff
:100d1c001020000040f800004020000010000000ef
:100d2c0020700000a820000020200000000000001f
:100d3c000020000020200000a8700000200000000f
:100d4c0000700000f8f80000f870000000000000cf
:100d5c000000000000000000000000000000000087
:100d6c000000000000000000000000000000000077
:100d7c000000000000000000000000000000000067
:100d8c000000000000000000000000000000000057
:100d9c000000000000000000000000000000000047
:100dac000000000000000000000000000000000037
:100dbc000000000000000000000000000000000027
:100dcc000000000000000000000000000000000017
:100ddc000000000000000000000000000000000007
:100dec0000000000000000000000000000000000f7
:100dfc0000000000000000000000000000000000e7
:100e0c0000000000000000000000000000000000d6
:100e1c0000000000000000000000000000000000c6
:100e2c0000000000000000000000000000000000b6
:100e3c0000000000000000000000000000000000a6
:100e4c000000000000000000000000000000000096
:100e5c000000000000000000000000000000000086
:100e6c000000000000000000000000000000000076
:100e7c000000000000000000000000000000000066
:100e8c000000000000000000000000000000000056
:100e9c000000000000000000000000000000000046
:100eac000000000000000000000000000000000036
:100ebc000000000000000000000000000000000026
:100ecc000000000000000000000000000000000016
:100edc000000000000000000000000000000000006
:100eec0000000000000000000000000000000000f6
:100efc0000000000000000000000000000000000e6
:100f0c0000000000000000000000000000000000d5
:100f1c002020000020200000200000002000000005
:100f2c0050500000500000000000000000000000c5
:100f3c0050500000f8500000f85000005000000025
:100f4c0020780000a070000028f0000020000000b5
:100f5c00c0c80000102000004098000018000000dd
:100f6c0060900000a0400000a89000006800000005
:100f7c0060200000400000000000000000000000a5
:100f8c001020000040400000402000001000000035
:100f9c004020000010100000102000004000000055
:100fac0000200000a8700000a82000000000000035
:100fbc000020000020f800002020000000000000ad
:100fcc000000000000000000602000004000000055
:100fdc000000000000f00000000000000000000015
:100fec000000000000000000006000006000000035
:100ffc0000080000102000004080000000000000ed
:10100c007088000098a80000c888000070000000dc
:10101c00206000002020000020200000f8000000cc
:10102c00708800001020000040800000f8000000d4
:10103c00f008000008f0000008080000f0000000b4
:10104c001030000050900000f8100000100000005c
:10105c00f880000080f0000008080000f00000009c
:10106c003040000080f00000888800007000000014
:10107c00f808000010200000404000004000000074
:10108c0070880000887000008888000070000000e4
:10109c0070880000887000000808000070000000d4
:1010ac0000600000600000006060000000000000b4
:1010bc0000600000600000006020000040000000a4
:1010cc0010200000408000004020000010000000b4
:1010dc0000000000f8000000f80000000000000014
:1010ec00402000001008000010200000400000000c
:1010fc007088000008100000200000002000000094
:10110c007088000008680000a8a8000070000000ab
:10111c007088000088f800008888000088000000b3
:10112c00f088000088f0000088880000f0000000c3
:10113c007880000080800000808000007800000033
:10114c00f08800008888000088880000f00000000b
:10115c00f880000080f8000080800000f80000009b
:10116c00f880000080f80000808000008000000003
:10117c007880000080b000008888000070000000bb
:10118c008888000088f8000088880000880000002b
:10119c0070200000202000002020000070000000c3
:1011ac0078080000080800000890000060000000ab
:1011bc0088900000a0c00000a090000088000000f3
:1011cc00808000008080000080800000f80000001b
:1011dc0088d80000a88800008888000088000000db
:1011ec0088880000c8a800009888000088000000cb
:1011fc00708800008888000088880000700000005b
:10120c00f088000088f00000808000008000000062
:10121c007088000088880000a89800007800000002
:10122c00f088000088f00000a0900000880000000a
:10123c00788000008070000008080000f0000000ba
:10124c00f8200000202000002020000020000000da
:10125c0088880000888800008888000070000000e2
:10126c00888800008888000088500000200000005a
:10127c008888000088a80000a8d80000880000001a
:10128c008888000050200000508800008800000072
:10129c0088880000885000002020000020000000fa
:1012ac00f81000002040000080800000f8000000d2
:1012bc006040000040400000404000006000000022
:1012cc00008000004020000010080000000000001a
:1012dc0018080000080800000808000018000000aa
:1012ec0020500000880000000000000000000000fa
:1012fc0000000000000000000000000000f80000ea
:10130c004020000010000000000000000000000061
:10131c0000000000700800007888000078000000d1
:10132c008080000080b00000c8880000f000000041
:10133c000000000070800000808800007000000039
:10134c000808000008680000988800007800000079
:10135c000000000070880000f880000070000000a1
:10136c003048000040e00000404000004000000019
:10137c0000000000788800008878000008700000e9
:10138c0080800000b0c80000888800008800000041
:10139c0000200000002000002020000020000000a1
:1013ac0010000000301000001090000060000000e1
:1013bc008080000090a00000c0a000009000000001
:1013cc0060200000202000002020000070000000a1
:1013dc0000000000d0a80000a888000088000000d1
:1013ec0000000000b0c800008888000088000000e1
:1013fc000000000070880000888800007000000069
:10140c0000000000f088000088f0000080800000e0
:10141c00000000006890000090b000005018000020
:10142c0000000000b0c800008080000080000000b8
:10143c00000000007080000070080000f000000048
:10144c0040400000e0400000404800003000000038
:10145c0000000000888800008898000068000000e8
:10146c000000000088880000885000002000000068
:10147c000000000088880000a8a8000050000000b0
:10148c000000000088500000205000008800000080
:10149c0000000000888800008878000008700000b8
:1014ac0000000000f810000020400000f8000000d0
:1014bc002040000040800000404000002000000060
:1014cc002020000020200000202000002000000030
:1014dc0040200000201000002020000040000000f0
:1014ec000000000040a800001000000000000000f8
:1014fc00fcfc0000fcfc0000fcfc0000fcfc000000
:10150c001c610000326200002163000023640000b3
:10151c00246500002b66000034670000336800006f
:10152c00436900003b6a0000426b00004b6c0000fa
:10153c003a6d0000316e0000446f00004d700000e9
:10154c00157100002d7200001b7300002c7400003c
:10155c003c7500002a7600001d7700002278000000
:10156c00357900001a7a0000453000001631000071
:10157c001e32000026330000253400002e350000fa
:10158c00363600003d3700003e380000463900007a
:10159c00292000004e2d0000553d00000e6000007b
:1015ac000d090000545b00005b5d00004c3b00002b
:1015bc00412c0000492e00004a2f00005227000049
:1015cc005d7c0000660800000d0900005a0d00004b
:1015dc00761b0000000000000e7e000016210000ab
:1015ec001e40000026230000252400002e250000ac
:1015fc00365e00003d2600003e2a00004628000012
:10160c00452900004e5f0000547b0000552b000064
:10161c005b7d00005d5c00004c3a00005222000033
:10162c00413c0000493e00004a3f00000000000021
:10163c00128100005981000014800000118200000a
:10164c00588300000000000014800000118200008c
:10165c0000000000708500006c8600007d8c00008e
:10166c0071840000698700007a8d00007588000085
:10167c00728900006b8a0000748b00005a0d000008
:10168c0000000000466f0000727400006845000006
:10169c0078200000563000002e3100000d0a0000aa
:1016ac00005400006865000020710000756900009e
:1016bc00636b000020620000726f0000776e000008
:1016cc00206600006f780000206a0000756d000035
:1016dc00702000006f76000065720000207400001e
:1016ec0068650000206c0000617a00007920000021
:1016fc00646f0000672e00000d0a0000000000005f
:020000040000fa
:10170c000000eb0021698000326980000208e100d2
:10171c000700320042d0200002814000242dec0052
:10172c00f0012000242db600124078000080fb0050
:10173c0000000600320078000000e00006003200d5
:10174c00800178008381fb000118e100f9ff3a0069
:10175c000080fd000080fb00000006003400f80053
:10176c00860b0200000000000000e0006700320061
:10177c00010e20000008e10005003a0028ada80089
:10178c00860b0200000000000000e0005f00320049
:10179c00010f20000100e10005003a0028cda8004f
:1017ac00860b0200000000000000e0005700320031
:1017bc008000780028cdae000300370028adaf00c4
:1017cc000b0037002d00370028adae00100037009d
:1017dc0002002000a201880002b32800a00b020026
:1017ec00000000000000e00001003200450037005e
:1017fc0002002000a2018800a2b22800a00b020067
:10180c00000000000000e0003d0032002200370024
:10181c00280dae000700370002002000a20188004e
:10182c0022af2800a00b0200000000000000e00026
:10183c0034003a0002002000a201880062a82800af
:10184c00a00b0200000000000000e0000b003200c2
:10185c00110620000100e1002a003900a107200038
:10186c000100e10027003e00286dae000050a200f0
:10187c00280daf000050a20022003700020020000b
:10188c00a2018800e2b12800a00b020000000000b9
:10189c000000e0001a003200110820000100e100f5
:1018ac0004003a00280da90028cdae00280da80090
:1018bc0013003700310820000100e10003003a005a
:1018cc0028cdae00286daa000d00370001082000bd
:1018dc000100e10004003a00282da90028cdae003b
:1018ec00282da80006003700210820000100e10087
:1018fc0003003a00284da90028cdae00282da800e1
:10190c000000eb0028cda90028ada9003400f90097
:10191c0000000600b40b0200000000000c2f780041
:10192c00000678000000e000020032000c2f780066
:10193c000086eb00b80578003b0078000040010001
:10194c00b40b0200000000000000e000fcff3200bd
:10195c000c2f780000067800b80578003b00780062
:10196c0000400100c862a900c882a900c842a900b1
:10197c0010368000f10f2e000100600001a0200045
:10198c0001007000103688002036800001fe2f0008
:10199c000100600021012000010070002036880049
:1019ac00b00320001013880061e2a8006822ef0049
:1019bc00703f200060088800000c8800400c8800f4
:1019cc00a0042000100c88002003b000300c88000c
:1019dc0050002000200c8800500c8800f0ff2800dc
:1019ec00a620b60000002500a620b700f08f2f001f
:1019fc00a620b60000502000a620b70000a8ef00db
:101a0c0002e8ef0084e0a90094e0a80011e1a8002e
:101a1c00000006000002220061802000570209002d
:101a2c00801878000428ef00b80578003b00780097
:101a3c0000400100200320000060e100010039009b
:101a4c001c0320000c00780004e8b7002e06780078
:101a5c00b80578003b007800004001007860e10098
:101a6c00010039007c0120000c00780005e8b7006b
:101a7c002e067800b80578003b0078000040010085
:101a8c006d60e10002003a002e0678000d00370070
:101a9c0020c3b3000548bc0004c8bf000080fb0095
:101aac000200400061802000810040008c487800da
:101abc002e0678000468ec00200320000448e300a4
:101acc0007003a000468ef000568ec008001200074
:101adc000548e300020039000568ed0007003700f7
:101aec00b80578003b00780000400100f5ff370096
:101afc000c2f78000c022000e1ff370061802000e1
:101b0c002003200001014000034b20008081510084
:101b1c008301d1008301e90003800900b218780029
:101b2c000c2f78007c012000000037006280200020
:101b3c00800120000060e10006003100200320003d
:101b4c000060b800020140000002220018000900e9
:101b5c00001978002e067800b80578003b00780054
:101b6c00004001008d1f7800880678000b04780077
:101b7c00b80578003b007800004001008c05780027
:101b8c002e0678000b4001000d047800cf0678007b
:101b9c00b80578003b007800004001000c2f78005d
:101bac00080690000884e800b80578003b0078002f
:101bbc00004001000c2f7800084690000884e800d3
:101bcc000c86fb00b80578003b0078000040010053
:101bdc000c4690000c86fb00b80578003b007800a2
:101bec00004001000c80fb002e0678000046980097
:101bfc002e067800b80578003b0078000040010004
:101c0c0018047800b80578003b007800004001000b
:101c1c000c00e0002e06780004003a00180478004e
:101c2c00b80578003b007800004001000884e8000b
:101c3c00b80578003b007800004001008d1f78004b
:101c4c00870678008c0378002e0678008d1f7800ac
:101c5c008c0678002e067800b80578003b007800da
:101c6c00004001008703e8000d38e100010032005c
:101c7c00080490008d037800cf067800cf0678001a
:101c8c00b80578003b007800004001000c2f78006c
:101c9c0007067800b80578003b007800004001008a
:101cac000c2f7800b80578003b007800004001004c
:101cbc002e067800b80578003b0078000040010043
:101ccc000c0078000e06900000079800b80578000c
:101cdc003b007800004001000c0078000e069000dc
:101cec00feb897000107980070bf9f00b8057800f8
:101cfc003b007800004001000c2f78007ebe97005e
:101d0c00b80578003b007800004001001c00b000d2
:101d1c00b80578003b00780000400100ffff370059
:101d2c00c9a2a900f00f2e00cc26b600003020006e
:101d3c00cc26b70000fe2f00a426b600c000200061
:101d4c00a426b700700620004011880021e2a800ec
:101d5c0080ff2f00aa20b60030002000aa20b70078
:101d6c00f0ff2800a820b60000002300a820b70030
:101d7c008580a9009580a8008560a9009560a800c1
:101d8c002462ef002342a80000000600d60ce200fb
:101d9c0005003a002322af00030037002c11880005
:101dac002e0678000d00370000012000d60ce30051
:101dbc00feff3200d9ccbf000080fb0061cc2000bc
:101dcc00810040008c4878002e067800d62cec0060
:101ddc00d96cec00f0002000d96cb600b805780086
:101dec003b007800004001000c2f7800da0ce20078
:101dfc0001003a00fdff3700dcccbf000080fb0087
:101e0c0061cb20008100400011467800da2ced00f7
:101e1c00dc6cec00f0002000dc6cb600b80578003f
:101e2c003b007800004001004440a9000000eb009a
:101e3c00a00188004440a8004427ef004307a800f5
:101e4c0042e7a80081e0a900c0a2ef00c8a2ef0001
:101e5c0068a0ef006aa0ef002ca3ef00b80c020002
:101e6c0000000000900f020000000000ba0f0200fa
:101e7c0000000000960e02000000000042c7a800ff
:101e8c0000000600f06980000c0040003e0de300ed
:101e9c00feff3a002e067800b80578003b0078006b
:101eac00004001000001eb00f3002000400dae00eb
:101ebc0003003700402dec0001003900422dec00ee
:101ecc00400dd40080007800428dd6008000fd00cb
:101edc00402db4000100780042adb400422dd50075
:101eec0040add700400dd5008381d3000402e9003a
:101efc00f3ff31000c2f780003067800b80578004a
:101f0c003b00780000400100b80578003b007800e9
:101f1c0000400100f00f2e008026b60000f02000db
:101f2c008026b7008220a80070002000ae20b700e9
:101f3c008680a9009680a800f0e72300100888008e
:101f4c00f0ff2800a420b60000002300a420b70056
:101f5c0000402000f06688008460a9009460a8000e
:101f6c0005e1a8000000060000742000cc22b70098
:101f7c000080ea00c822b60000fe2f00a826b6009a
:101f8c0070002000a826b70000fe2f00c826b6005f
:101f9c0080002000c826b700f00f2e00c626b60021
:101fac0000702000c626b700b00320001012880075
:081fbc0041e2a800000006004c
:020000040000fa
:020000040001f9
:0457f800ae2b0000d4
:020000040000fa
:020000040001f9
:0457fc007f3f0000eb
:00000001FF
