:020000040000fa
:08000000301b040000000000a9
:020000040000fa
:04000800b21b000027
:020000040000fa
:04000c00b21b000023
:020000040000fa
:04001000b21b00001f
:020000040000fa
:04001400b21b00001b
:020000040000fa
:04001800a41200002e
:020000040000fa
:04001c00b21b000013
:020000040000fa
:04002000b21b00000f
:020000040000fa
:04002400b21b00000b
:020000040000fa
:04002800b21b000007
:020000040000fa
:04002c00b21b000003
:020000040000fa
:04003000b21b0000ff
:020000040000fa
:04003400a819000007
:020000040000fa
:04003800b21b0000f7
:020000040000fa
:04003c00b21b0000f3
:020000040000fa
:04004000b2180000f2
:020000040000fa
:040044003c18000064
:020000040000fa
:04004800b21b0000e7
:020000040000fa
:04004c00b21b0000e3
:020000040000fa
:04005000b21b0000df
:020000040000fa
:04005400b61a0000d8
:020000040000fa
:04005800da1a0000b0
:020000040000fa
:04005c00b21b0000d3
:020000040000fa
:04006000b21b0000cf
:020000040000fa
:04006400b21b0000cb
:020000040000fa
:04006800b21b0000c7
:020000040000fa
:04006c00b21b0000c3
:020000040000fa
:04007000b21b0000bf
:020000040000fa
:04007400b21b0000bb
:020000040000fa
:040078008c1b0000dd
:020000040000fa
:04007c00b21b0000b3
:020000040000fa
:04008000b21b0000af
:020000040000fa
:04008400b21b0000ab
:020000040000fa
:04008800b21b0000a7
:020000040000fa
:04008c00b21b0000a3
:020000040000fa
:04009000b21b00009f
:020000040000fa
:04009400b21b00009b
:020000040000fa
:04009800b21b000097
:020000040000fa
:04009c00b21b000093
:020000040000fa
:0400a000b21b00008f
:020000040000fa
:0400a400b21b00008b
:020000040000fa
:0400a800b21b000087
:020000040000fa
:0400ac00b21b000083
:020000040000fa
:0400b000b21b00007f
:020000040000fa
:0400b400b21b00007b
:020000040000fa
:0400b800b21b000077
:020000040000fa
:0400bc00b21b000073
:020000040000fa
:0400c000b21b00006f
:020000040000fa
:0400c400b21b00006b
:020000040000fa
:0400c800b21b000067
:020000040000fa
:0400cc00b21b000063
:020000040000fa
:0400d000b21b00005f
:020000040000fa
:0400d400b21b00005b
:020000040000fa
:0400d800b21b000057
:020000040000fa
:0400dc00b21b000053
:020000040000fa
:0400e000b21b00004f
:020000040000fa
:0400e400b21b00004b
:020000040000fa
:0400e800b21b000047
:020000040000fa
:0400ec00b21b000043
:020000040000fa
:0400f000b21b00003f
:020000040000fa
:0400f400b21b00003b
:020000040000fa
:0400f800b21b000037
:020000040000fa
:0400fc00b21b000033
:020000040000fa
:04010000b21b00002e
:020000040000fa
:04010400b21b00002a
:020000040000fa
:04010800b21b000026
:020000040000fa
:04010c00b21b000022
:020000040000fa
:04011000b21b00001e
:020000040000fa
:04011400b21b00001a
:020000040000fa
:04011800b21b000016
:020000040000fa
:04011c00b21b000012
:020000040000fa
:04012000b21b00000e
:020000040000fa
:04012400b21b00000a
:020000040000fa
:04012800b21b000006
:020000040000fa
:04012c00b21b000002
:020000040000fa
:04013000b21b0000fe
:020000040000fa
:04013400b21b0000fa
:020000040000fa
:04013800b21b0000f6
:020000040000fa
:04013c00b21b0000f2
:020000040000fa
:04014000b21b0000ee
:020000040000fa
:04014400b21b0000ea
:020000040000fa
:04014800b21b0000e6
:020000040000fa
:04014c00b21b0000e2
:020000040000fa
:04015000b21b0000de
:020000040000fa
:04015400b21b0000da
:020000040000fa
:04015800b21b0000d6
:020000040000fa
:04015c00b21b0000d2
:020000040000fa
:04016000b21b0000ce
:020000040000fa
:04016400b21b0000ca
:020000040000fa
:04016800b21b0000c6
:020000040000fa
:04016c00b21b0000c2
:020000040000fa
:04017000b21b0000be
:020000040000fa
:04017400b21b0000ba
:020000040000fa
:04017800b21b0000b6
:020000040000fa
:04017c00b21b0000b2
:020000040000fa
:04018000b21b0000ae
:020000040000fa
:04018400b21b0000aa
:020000040000fa
:04018800b21b0000a6
:020000040000fa
:04018c00b21b0000a2
:020000040000fa
:04019000b21b00009e
:020000040000fa
:04019400b21b00009a
:020000040000fa
:04019800b21b000096
:020000040000fa
:04019c00b21b000092
:020000040000fa
:0401a000b21b00008e
:020000040000fa
:0401a400b21b00008a
:020000040000fa
:0401a800b21b000086
:020000040000fa
:0401ac00b21b000082
:020000040000fa
:0401b000b21b00007e
:020000040000fa
:0401b400b21b00007a
:020000040000fa
:0401b800b21b000076
:020000040000fa
:0401bc00b21b000072
:020000040000fa
:0401c000b21b00006e
:020000040000fa
:0401c400b21b00006a
:020000040000fa
:0401c800b21b000066
:020000040000fa
:0401cc00b21b000062
:020000040000fa
:0401d000b21b00005e
:020000040000fa
:0401d400b21b00005a
:020000040000fa
:0401d800b21b000056
:020000040000fa
:0401dc00b21b000052
:020000040000fa
:0401e000b21b00004e
:020000040000fa
:0401e400b21b00004a
:020000040000fa
:0401e800b21b000046
:020000040000fa
:0401ec00b21b000042
:020000040000fa
:0401f000b21b00003e
:020000040000fa
:0401f400b21b00003a
:020000040000fa
:0401f800b21b000036
:020000040000fa
:0401fc00b21b000032
:020000040000fa
:04020000b21b00002d
:020000040000fa
:04020400b21b000029
:020000040000fa
:04020800b21b000025
:020000040000fa
:04020c00b21b000021
:020000040000fa
:04021000b21b00001d
:020000040000fa
:04021400b21b000019
:020000040000fa
:04021800b21b000015
:020000040000fa
:04021c00b21b000011
:020000040000fa
:04022000b21b00000d
:020000040000fa
:04022400b21b000009
:020000040000fa
:04022800b21b000005
:020000040000fa
:04022c00b21b000001
:020000040000fa
:04023000b21b0000fd
:020000040000fa
:04023400b21b0000f9
:020000040000fa
:04023800b21b0000f5
:020000040000fa
:04023c00b21b0000f1
:020000040000fa
:04024000b21b0000ed
:020000040000fa
:04024400b21b0000e9
:020000040000fa
:04024800b21b0000e5
:020000040000fa
:04024c00b21b0000e1
:020000040000fa
:04025000b21b0000dd
:020000040000fa
:04025400b21b0000d9
:020000040000fa
:04025800b21b0000d5
:020000040000fa
:04025c00b21b0000d1
:020000040000fa
:04026000b21b0000cd
:020000040000fa
:04026400b21b0000c9
:020000040000fa
:04026800b21b0000c5
:020000040000fa
:04026c00b21b0000c1
:020000040000fa
:04027000b21b0000bd
:020000040000fa
:04027400b21b0000b9
:020000040000fa
:04027800b21b0000b5
:020000040000fa
:04027c00b21b0000b1
:020000040000fa
:04028000b21b0000ad
:020000040000fa
:10040000a1028800800078000000eb001a0037008d
:10041000e280400054a0b4009101ba00e2804000a4
:1004200054a0b4009102ba00e280400054a0b4008d
:100430000002eb00472bde00f507b200a6018800a2
:10044000602ce10008003a000049eb000201e800de
:10045000020039003420ec0002f0a0008301e90022
:10046000f9ff3e00040037006128e100010032007e
:100470000082eb000b00070011c3ba001101ba00a3
:100480000604e00003003a000200e000e0ff3a004a
:1004900000000600f607b200a6028800820078007d
:1004a000f5ff370004d0a300e20f49001c0039001b
:1004b000810278003549ba000201e80002003900e3
:1004c0003420ec0002f0a0008301e9000f003200ac
:1004d0002549ba000201e800020039003420ec008e
:1004e00002f0a0008301e900080032000400e000ef
:1004f0000600320015c9ba000201e8000200390006
:100500003420ec0002f0a0008301e9008180e800c3
:1005100054a0b4000300e000e2ff3a00000006002f
:100520009102ba00055978008301e900f7ff320013
:10053000c82ade00055978008301e900f3ff320084
:100540000400e000f1ff320011d9ba00eeff3700dd
:100550009a17040000000000aa1704000000000021
:10056000bc17040000000000981204000000000006
:10057000ce17040000000000001804000000000076
:100580000218040000000000081804000000000029
:100590002018040000000000a21204000000000067
:1005a000a412040000000000b012040000000000cb
:1005b000b612040000000000be120400000000009b
:1005c000c812040000000000d41204000000000063
:1005d000de12040000000000ec1204000000000025
:1005e000f4120400000000000213040000000000e8
:1005f00010130400000000002c1304000000000091
:100600003613040000000000401304000000000046
:100610004a13040000000000521304000000000010
:100620005e130400000000006613040000000000d8
:100630007213040000000000821304000000000098
:100640008c1304000000000094130400000000005c
:100650009e13040000000000a81304000000000026
:10066000b213040000000000bc13040000000000ee
:10067000c613040000000000d013040000000000b6
:10068000da13040000000000ea1304000000000078
:10069000f613040000000000021404000000000033
:1006a0000a140400000000001214040000000000fe
:1006b0001a140400000000002214040000000000ce
:1006c0002a1404000000000032140400000000009e
:1006d0003e140400000000004c1404000000000060
:1006e0005614040000000000601404000000000024
:1006f0006a140400000000007214040000000000ee
:100700007a140400000000008414040000000000bb
:100710009214040000000000a21404000000000075
:10072000b214040000000000c21404000000000025
:10073000d214040000000000e214040000000000d5
:10074000f21404000000000034190400000000004e
:100750003e190400000000004e19040000000000d3
:100760006619040000000000981904000000000051
:100770001217040000000000281704000000000009
:10078000681a040000000000961a0400000000002f
:10079000761b040000000000441504000000000067
:1007a0007615040000000000a815040000000000f9
:0807b000f01504000000000038
:020000040000fa
:1007b8004020000010f80000102000004000000059
:1007c8001020000040f80000402000001000000049
:1007d80020700000a8200000202000000000000079
:1007e8000020000020200000a87000002000000069
:1007f80000700000f8f80000f87000000000000029
:1008080000000000000000000000000000000000e0
:1008180000000000000000000000000000000000d0
:1008280000000000000000000000000000000000c0
:1008380000000000000000000000000000000000b0
:1008480000000000000000000000000000000000a0
:100858000000000000000000000000000000000090
:100868000000000000000000000000000000000080
:100878000000000000000000000000000000000070
:100888000000000000000000000000000000000060
:100898000000000000000000000000000000000050
:1008a8000000000000000000000000000000000040
:1008b8000000000000000000000000000000000030
:1008c8000000000000000000000000000000000020
:1008d8000000000000000000000000000000000010
:1008e8000000000000000000000000000000000000
:1008f80000000000000000000000000000000000f0
:1009080000000000000000000000000000000000df
:1009180000000000000000000000000000000000cf
:1009280000000000000000000000000000000000bf
:1009380000000000000000000000000000000000af
:10094800000000000000000000000000000000009f
:10095800000000000000000000000000000000008f
:10096800000000000000000000000000000000007f
:10097800000000000000000000000000000000006f
:10098800000000000000000000000000000000005f
:10099800000000000000000000000000000000004f
:1009a800000000000000000000000000000000003f
:1009b800000000000000000000000000000000002f
:1009c800202000002020000020000000200000005f
:1009d800505000005000000000000000000000001f
:1009e80050500000f8500000f8500000500000007f
:1009f80020780000a070000028f00000200000000f
:100a0800c0c8000010200000409800001800000036
:100a180060900000a0400000a8900000680000005e
:100a280060200000400000000000000000000000fe
:100a3800102000004040000040200000100000008e
:100a480040200000101000001020000040000000ae
:100a580000200000a8700000a8200000000000008e
:100a68000020000020f80000202000000000000006
:100a780000000000000000006020000040000000ae
:100a88000000000000f0000000000000000000006e
:100a9800000000000000000000600000600000008e
:100aa8000008000010200000408000000000000046
:100ab8007088000098a80000c88800007000000036
:100ac800206000002020000020200000f800000026
:100ad800708800001020000040800000f80000002e
:100ae800f008000008f0000008080000f00000000e
:100af8001030000050900000f810000010000000b6
:100b0800f880000080f0000008080000f0000000f5
:100b18003040000080f0000088880000700000006d
:100b2800f8080000102000004040000040000000cd
:100b3800708800008870000088880000700000003d
:100b4800708800008870000008080000700000002d
:100b5800006000006000000060600000000000000d
:100b680000600000600000006020000040000000fd
:100b7800102000004080000040200000100000000d
:100b880000000000f8000000f8000000000000006d
:100b98004020000010080000102000004000000065
:100ba80070880000081000002000000020000000ed
:100bb8007088000008680000a8a800007000000005
:100bc8007088000088f8000088880000880000000d
:100bd800f088000088f0000088880000f00000001d
:100be800788000008080000080800000780000008d
:100bf800f08800008888000088880000f000000065
:100c0800f880000080f8000080800000f8000000f4
:100c1800f880000080f8000080800000800000005c
:100c28007880000080b00000888800007000000014
:100c38008888000088f80000888800008800000084
:100c4800702000002020000020200000700000001c
:100c58007808000008080000089000006000000004
:100c680088900000a0c00000a0900000880000004c
:100c7800808000008080000080800000f800000074
:100c880088d80000a8880000888800008800000034
:100c980088880000c8a80000988800008800000024
:100ca80070880000888800008888000070000000b4
:100cb800f088000088f000008080000080000000bc
:100cc8007088000088880000a8980000780000005c
:100cd800f088000088f00000a09000008800000064
:100ce800788000008070000008080000f000000014
:100cf800f820000020200000202000002000000034
:100d0800888800008888000088880000700000003b
:100d180088880000888800008850000020000000b3
:100d28008888000088a80000a8d800008800000073
:100d380088880000502000005088000088000000cb
:100d48008888000088500000202000002000000053
:100d5800f81000002040000080800000f80000002b
:100d6800604000004040000040400000600000007b
:100d78000080000040200000100800000000000073
:100d88001808000008080000080800001800000003
:100d98002050000088000000000000000000000053
:100da80000000000000000000000000000f8000043
:100db80040200000100000000000000000000000bb
:100dc800000000007008000078880000780000002b
:100dd8008080000080b00000c8880000f00000009b
:100de8000000000070800000808800007000000093
:100df80008080000086800009888000078000000d3
:100e08000000000070880000f880000070000000fa
:100e18003048000040e00000404000004000000072
:100e28000000000078880000887800000870000042
:100e380080800000b0c8000088880000880000009a
:100e480000200000002000002020000020000000fa
:100e5800100000003010000010900000600000003a
:100e68008080000090a00000c0a00000900000005a
:100e780060200000202000002020000070000000fa
:100e880000000000d0a80000a8880000880000002a
:100e980000000000b0c8000088880000880000003a
:100ea80000000000708800008888000070000000c2
:100eb80000000000f088000088f00000808000003a
:100ec800000000006890000090b00000501800007a
:100ed80000000000b0c80000808000008000000012
:100ee800000000007080000070080000f0000000a2
:100ef80040400000e0400000404800003000000092
:100f08000000000088880000889800006800000041
:100f180000000000888800008850000020000000c1
:100f28000000000088880000a8a800005000000009
:100f380000000000885000002050000088000000d9
:100f48000000000088880000887800000870000011
:100f580000000000f810000020400000f800000029
:100f680020400000408000004040000020000000b9
:100f78002020000020200000202000002000000089
:100f88004020000020100000202000004000000049
:100f98000000000040a80000100000000000000051
:100fa800fcfc0000fcfc0000fcfc0000fcfc000059
:100fb8001c6100003262000021630000236400000d
:100fc800246500002b6600003467000033680000c9
:100fd800436900003b6a0000426b00004b6c000054
:100fe8003a6d0000316e0000446f00004d70000043
:100ff800157100002d7200001b7300002c74000096
:101008003c7500002a7600001d7700002278000059
:10101800357900001a7a00004530000016310000ca
:101028001e32000026330000253400002e35000053
:10103800363600003d3700003e38000046390000d3
:10104800292000004e2d0000553d00000e600000d4
:101058000d090000545b00005b5d00004c3b000084
:10106800412c0000492e00004a2f000052270000a2
:101078005d7c0000660800000d0900005a0d0000a4
:10108800761b0000000000000e7e00001621000004
:101098001e40000026230000252400002e25000005
:1010a800365e00003d2600003e2a0000462800006b
:1010b800452900004e5f0000547b0000552b0000be
:1010c8005b7d00005d5c00004c3a0000522200008d
:1010d800413c0000493e00004a3f0000000000007b
:1010e8001281000059810000148000001182000064
:1010f80058830000000000001480000011820000e6
:1011080000000000708500006c8600007d8c0000e7
:1011180071840000698700007a8d000075880000de
:10112800728900006b8a0000748b00005a0d000061
:1011380000000000466f000072740000684500005f
:1011480078200000563000002e3100000d0a000003
:1011580000540000686500002071000075690000f7
:10116800636b000020620000726f0000776e000061
:10117800206600006f780000206a0000756d00008e
:10118800702000006f760000657200002074000077
:1011980068650000206c0000617a0000792000007a
:0c11a800646f0000672e00000d000000c6
:020000040000fa
:1011b40000000000044300004f4c00004400000005
:1011c400a21200006c8c0000045700004152000081
:1011d4004d000000a41200006c8c000007450000c4
:1011e400584500004355000054450000b01200006b
:1011f4006c8c0000044500005849000054000000b5
:10120400b61200006c8c0000054c0000495400002c
:10121400be1200006c8c0000044300004c49000026
:1012240054000000c81200006c8c0000024300004f
:1012340040000000d41200006c8c00000243000047
:1012440021000000de1200006c8c0000054200004a
:10125400524100004e43000048000000ec12000020
:101264006c8c0000063f000042520000414e00001a
:1012740043480000f41200006c8c000004280000b5
:10128400444f000029000000021300006c8c000091
:10129400062800004c4f00004f50000029000000b9
:1012a400101300006c8c0000014900002c13000096
:1012b4006c8c0000014a0000361300006c8c0000a6
:1012c400065500004e4c00004f4f00005000000037
:1012d400401300006c8c00000344000055500000d3
:1012e4004a1300006c8c0000043f000044550000c9
:1012f40050000000521300006c8c000004440000f5
:10130400524f0000500000005e1300006c8c00007f
:101314000453000057410000500000006613000011
:101324006c8c0000035200004f5400007213000044
:101334006c8c0000044f0000564500005200000071
:10134400821300006c8c0000034e00004950000022
:101354008c1300006c8c0000023e00005200000060
:10136400941300006c8c0000025200003e00000048
:101374009e1300006c8c000002520000400000002c
:10138400a81300006c8c00000353000050400000c0
:10139400b21300006c8c00000353000050210000c5
:1013a400bc1300006c8c000003520000504000008d
:1013b400c61300006c8c0000035200005021000092
:1013c400d01300006c8c000004540000554300004e
:1013d4004b000000da1300006c8c0000012b0000ad
:1013e400ea1300006c8c0000012d0000f6130000cd
:1013f4006c8c0000023100002b000000021400007d
:101404006c8c0000023100002d0000000a14000062
:101414006c8c0000023200002a000000121400004c
:101424006c8c0000023200002f0000001a1400002f
:101434006c8c0000064c0000534800004946000034
:1014440054000000221400006c8c000006520000be
:101454005348000049460000540000002a140000cc
:101464006c8c0000022b00002100000032140000ec
:101474006c8c0000024d00002b0000003e140000a4
:101484006c8c0000034100004e4400004c1400002a
:101494006c8c0000024f0000520000005614000043
:1014a4006c8c0000035800004f52000060140000d0
:1014b4006c8c0000064900004e56000045520000a6
:1014c400540000006a1400006c8c0000064e0000fa
:1014d400454700004154000045000000721400001c
:1014e4006c8c0000023000003d0000007a14000003
:1014f4006c8c0000023000003c00000084140000ea
:101504006c8c0000013d0000921400006c8c000003
:10151400023c00003e000000a21400006c8c00009d
:10152400013c0000b21400006c8c0000013e00007d
:10153400c21400006c8c0000025500003c00000046
:10154400d21400006c8c0000025500003e00000024
:10155400e21400006c8c00000454000045530000a9
:101564005400000098120000828c0000428b00009e
:10157400088b00002c8b00000a8900004d0100003c
:10158400148d0000088b00001e8b00000a890000e7
:101594004d010000148d000030890000eaff0000b6
:1015a4006c8c0000075300004552000054450000b5
:1015b4005354000098120000828c0000428b0000fb
:1015c400728d0000688d000030890000faff000071
:1015d4006c8c0000074b000042440000544500009e
:1015e4005354000098120000828c0000848d000087
:1015f400b28c000030890000faff00006c8c0000ff
:10160400054800004f4d00004500000098120000fe
:101614000a890000000000000a89000000000000a0
:10162400a28c0000028900006c8c0000064f0000b0
:101634004b4f00004646000098120000c48c000086
:10164400c48c0000028900006c8c0000024f000072
:101654004b000000981200000a8900004f000000af
:10166400b28c00000a8900004b000000b28c00001c
:10167400028900006c8c0000034d000053470000f9
:10168400981200000a890000e8030000148d00008d
:101694000a8900009e8800005a8b0000028900001d
:1016a4006c8c0000055a000054590000504500009d
:1016b40098120000728900001c89000072890000e1
:1016c4003c8900000a000000b28c0000008a00007f
:1016d40030890000f0ff0000868900008689000040
:1016e400028900006c8c000009510000554900007b
:1016f400434b00005445000053540000981200006e
:10170400828c00000a890000ad8800005a8b00001a
:1017140030890000feff00006c8c000007530000bd
:101724005452000054450000535400009812000025
:10173400828c00000a890000ad8800005a8b0000ea
:101744000a890000061000000a8900000000000059
:101754000a890000000000000a8900002b00000034
:101764003e8d0000628c0000828c0000628c0000c0
:101774000a890000061000000a8900000000000029
:101784000a890000000000000a8900002b00000004
:10179400488d0000628c000030890000e6ff0000e4
:1017a4006c8c00000a45000045500000524f0000b8
:1017b4004d540000455300005400000098120000ee
:1017c400828c00000a890000ad8800005a8b00005a
:1017d4000a890000f4010000148d00000a89000049
:1017e400061000000a8900002b000000548d000040
:1017f400828c0000628c00000a8900000610000040
:101804000a890000640000005e8d00003089000039
:10181400e0ff00006c8c0000084c00004f4f0000fb
:10182400505400004553000054000000981200007a
:10183400828c0000628c00000a8900005b000000ba
:101844000a89000041000000468900005889000010
:10185400b28c000052890000faff0000768c000070
:101864006c8c0000064300005254000045530000f5
:101874005400000098120000828c00000a890000c5
:101884004100000072890000b28c0000ba8c000094
:10189400008a0000728900000a89000058000000d4
:1018a400868a00003c890000eeff0000768c000070
:1018b4006c8c000005440000454c000041590000b8
:1018c400981200000a890000f4010000148d000041
:1018d400028900006c8c0000074900004e4600009d
:1018e4004c4f00004f500000f2140000e08b000049
:1018f4006c8c000000000000034300004c53000007
:101904009a170000fa8c000004580000504f0000a1
:1019140053000000aa170000fa8c000004590000cc
:10192400504f000053000000bc170000fa8c000068
:101934000643000055520000504f000053000000c1
:10194400981200008c8c0000968c00000289000024
:10195400fa8c0000044500004d49000054000000ca
:10196400ce170000fa8c0000024300005200000071
:1019740000180000fa8c00000553000050410000dc
:101984004345000002180000fa8c000008530000d0
:10199400435200004f4c00004c5500005000000022
:1019a40008180000fa8c0000054300004c520000a7
:1019b4004c4e000020180000fa8c00000454000073
:1019c4005950000045000000981200000a890000e8
:1019d4000000000046890000728900001c89000094
:1019e400b28c000052890000f8ff00000289000058
:1019f400fa8c0000012e00009812000002890000f9
:101a04000000000005540000494300004b5300004f
:101a1400341900002a8d0000044d000053450000d5
:101a2400430000003e1900002a8d0000044c000011
:101a340046530000520000004e1900002a8d000099
:101a440004520000414e00004400000066190000ea
:101a54002a8d000005530000524100004e4400004e
:101a640098190000000000000652000053540000c2
:101a74004f5200004500000044150000568d000040
:101a8400065200004c4f000041440000761500004f
:101a9400568d000006450000535400004f520000cc
:101aa40045000000a8150000568d00000545000003
:101ab4004c4f000041440000f015000000000000fd
:101ac40005530000454d000049540000681a000009
:101ad4006a8d0000045300004745000054000000d4
:101ae400961a000000000000043f00004b4500006f
:101af40059000000121700007e8d0000034b000007
:101b0400455900002817000000000000045400009c
:0c1b14004f4e000045000000761b000052
:020000040000fa
:101b2000001000000606000082000000ffffff001a
:101b300000000000000000000000000000000000a5
:101b40000000000000000000000000000000000095
:101b50000000000000000000000000000000000085
:101b60000000000000000000000000000000000075
:1023300000000000241700001400000082000000cc
:10234000000000000000000000000000000000008d
:10235000000000000000000000000000407f0000be
:10236000400000008000000006160000aa000000e7
:1023700082000000000000000000000000000000db
:10238000000000000000000000000000000000004d
:10239000000000000000000000000000000000003d
:1023a000000000000000000000000000000000002d
:1023b000000000000000000000000000000000001d
:1023c000000000000000000000000000000000000d
:1023d00000000000000000000000000000000000fd
:1023e00000000000000000000000000000000000ed
:1023f00000000000000000000000000000000000dd
:1024000000000000000000000000000000000000cc
:1024100000000000000000000000000000000000bc
:1024200000000000000000000000000000000000ac
:10243000000000000000000000000000000000009c
:10244000000000000000000000000000000000008c
:102450000000000000000000d81600002600000068
:1024600082000000000000000000000000000000ea
:10247000000000000000000000000000000000005c
:10248000000000000000000000000000000000004c
:102490000000000000000000fe1600002600000002
:1024a00082000000000000000000000000000000aa
:1024b000000000000000000000000000000000001c
:1024c000000000000000000000000000000000000c
:1024d0000000000000000000b0160000280000000e
:1024e000820000000000000000000000000000006a
:1024f00000000000000000000000000000000000dc
:1025000000000000000000000000000000000000cb
:10251000000000000000000000000000381700006c
:10252000020000008200000000000000b41b8000d8
:020000040000fa
:10253000881f78000b047800b80578003b0078000d
:10254000000401000000fe000ef427000ff8270031
:1025500088c72800b80578003b0078000004010017
:102560008c0578002e0678000b0401004f047800db
:10257000b80578003b007800000401000c2f7800bb
:1025800038067800b80578003b00780000040100a8
:102590000c2f7800384678000c86fb00b8057800d0
:1025a0003b007800000401001c4678000c86fb000c
:1025b000b80578003b007800000401000c80fb00a7
:1025c0002e067800004e78002e067800b8057800b8
:1025d0003b0078000004010018044400b8057800ae
:1025e0003b007800000401000c00e0002e0678009b
:1025f000f9ff32000884e800b80578003b00780055
:1026000000040100871f78008c037800ae1f78005b
:102610002e067800b80578003b0078000004010021
:102620008703e8007fb897000038e100040032001b
:1026300018044400b80578003b007800000401004d
:102640000884e8008f87e900cf037800b805780098
:102650003b007800000401000c2f7800070678008a
:10266000b80578003b007800000401000c2f7800ca
:102670006fbe9700b80578003b00780000040100a9
:102680008f87e900cf037800b80578003b00780019
:10269000000401000c2f7800b80578003b0078009a
:1026a000000401000c00e000010032000c2f780053
:1026b000b80578003b007800000401002e06780081
:1026c000b80578003b007800000401000c00780099
:1026d0001e06780000079800b80578003b007800d7
:1026e000000401000c0078001e067800feb8970078
:1026f000010f780070bf9f00b80578003b0078009c
:10270000000401000c2f78007ebe9700b805780009
:102710003b007800000401002e00b100b8057800ed
:102720003b007800000401008c1f78002e06780022
:10273000b80578003b007800000401000c2f7800f9
:102740004f067800b80578003b00780000040100cf
:102750000c2f78007fbe9700b80578003b0078000a
:10276000000401000c2f78000e067800b8057800f0
:102770003b007800000401000c0778002e0678006a
:10278000b80578003b007800000401000c2f7800a9
:102790000f067800b80578003b00780000040100bf
:1027a0008c0778002e067800b80578003b0078008a
:1027b000000401000c0078001e067800feb89700a7
:1027c00070bf9f00010f7800b80578003b007800cb
:1027d000000401001e0046002e0678000006780066
:1027e000b80578003b007800000401000c00780078
:1027f0002e06780000065600b80578003b007800e9
:10280000000401001c00b000b80578003b0078000f
:10281000000401001c00b100b80578003b007800fe
:10282000000401000c064600b80578003b00780063
:10283000000401000c06d100b80578003b007800c8
:10284000000401000c06d000b80578003b007800b9
:10285000000401000c06d100b80578003b007800a8
:10286000000401002e0078001c0e40002e067800a7
:10287000b80578003b007800000401000c007800e7
:102880002e0678001e0f40000c80b000b8057800be
:102890003b007800000401001e0f66002e06780041
:1028a000b80578003b007800000401001e0f760098
:1028b0002e067800b80578003b007800000401007f
:1028c0001e0f6e002e067800b80578003b007800d9
:1028d000000401000c86ea00b80578003b0078008f
:1028e000000401000c06ea00b80578003b007800ff
:1028f000000401001c00b1000c065e00b805780061
:102900003b007800000401000080eb000c0646004c
:102910000c065e000c066800b80578003b007800e5
:10292000000401000000eb002e60e10001003a000d
:102930000080ea0000067800b80578003b007800c7
:10294000000401000000eb002e60e10001003200f5
:102950000080ea0000067800b80578003b007800a7
:10296000000401000000eb002e60e10001003400d3
:102970000080ea0000067800b80578003b00780087
:10298000000401000000eb002e60e10001003d00aa
:102990000080ea0000067800b80578003b00780067
:1029a000000401000000eb002e60e1000100360091
:1029b0000080ea0000067800b80578003b00780047
:1029c000000401000000eb002e60e1000100310076
:1029d0000080ea0000067800b80578003b00780027
:1029e00000040100ffff3700005c2000142eb70038
:1029f0000080ea00102eb60070122000101288002d
:102a000041e2a800000006000c0078002e067800c5
:102a100048e2b7004002ae00feff370040128000df
:102a20000c0078000080fd0048e2b7004002ae00d4
:102a3000feff3700401280000c00780048e2b7002b
:102a40004002ae00feff3700401280002e067800e4
:102a50000000060014cea9005000200048e2b70094
:102a60004002ae00feff37004012800048e2ef0057
:102a70004002ae00feff370014cea8004802af00af
:102a8000f4ff370000000600154ea90020002000ca
:102a900048e2b7004002ae00feff3700401280005f
:102aa0008c0078002e06780004150200000000005b
:102ab0000c0178002e0678000100e00007003200cb
:102ac0003240780048e2b7004002ae00feff370017
:102ad000401280008100e900f7ff3700154ea80082
:102ae000b80578003b00780000040100154ea900ed
:102af0003000200048e2b7004002ae00feff370081
:102b0000401280008c0078002e0678000415020028
:102b1000000000000c0178002e06780083242000bd
:102b20000100e0000600320048e2ef004002ae0083
:102b3000feff3700135978008100e900f8ff3700e5
:102b4000154ea800b80578003b007800000401008d
:102b50002a1502000000000014cea9006000200029
:102b600048e2b7004002ae00feff3700401280008e
:102b700014cea8000000000014cea9002000200000
:102b800048e2b7004002ae00feff3700401280006e
:102b90004866dd000c2f78000006eb000c86d200a2
:102ba00004150200000000000c0178002e067800d9
:102bb000031020003240780048e2b7004002ae0027
:102bc000feff3700401280008301e900f9ff3a0060
:102bd00014cea800b80578003b007800000401007e
:102be0002a1502000000000014cea90030002000c9
:102bf00048e2b7004002ae00feff370040128000fe
:102c00004866dd000c2f78000006eb000c86d20031
:102c100004150200000000000c0178002e06780068
:102c20000310200048e2ef004002ae00feff370034
:102c300040128000005978008301e900f9ff3a0052
:102c400014cea800b80578003b007800000401000d
:102c50000000eb00c1b78000d2b780000208e1009d
:102c600007003200826d210002814000f836ec003e
:102c7000f0012000f836b600124078000080fb001a
:102c800000000600320078000000e000060032007c
:102c9000800178008381fb000118e100f9ff3a0010
:102ca0000080fd000080fb00000006003200f800fc
:102cb00028160200000000000000e000570032006b
:102cc00080007800fcd6ae0003003700fcb6af00f1
:102cd0000b0037002d003700fcb6ae0010003700a7
:102ce000022020009201880062882800421602001b
:102cf000000000000000e000010032004500370045
:102d0000022020009201880002882800421602005a
:102d1000000000000000e0003d003200220037000b
:102d2000fc16ae0007003700022020009201880048
:102d30008284280042160200000000000000e0002b
:102d400034003a000220200092018800c27d280051
:102d500042160200000000000000e0000b003200fc
:102d6000110620000100e1002a003900a10720001f
:102d70000100e10027003e00fc76ae000050a200fa
:102d8000fc16af000050a2002200370002202000f5
:102d900092018800428728004216020000000000cd
:102da0000000e0001a003200110820000100e100dc
:102db00004003a00fc16a900fcd6ae00fc16a800e0
:102dc00013003700310820000100e10003003a0041
:102dd000fcd6ae00fc76aa000d00370001082000ea
:102de0000100e10004003a00fc36a900fcd6ae0068
:102df000fc36a80006003700210820000100e10091
:102e000003003a00fc56a900fcd6ae00fc36a80030
:102e10000000eb00fcd6a900fcb6a9003200f900c6
:102e20000000060056160200000000000c2f78007b
:102e3000000678000000e000020032000c2f78004d
:102e40000086eb00b80578003b0078000004010024
:102e500056160200000000000000e000fcff3200f7
:102e60000c2f780000067800b80578003b00780049
:102e700000040100106ea900108ea900003480002b
:102e8000f10f2e00010060000180200001007000a1
:102e9000003488001034800001fe2f000100600023
:102ea0000101200001007000103488003000200073
:102eb00010138800800020006222b700000220006a
:102ec0006222b7006402a80061e2a8006822ef0055
:102ed000c0152100600888002048880080488800cc
:102ee0008014200030488800a038200070488800f6
:102ef000500020000048880050488800f0ff28005b
:102f00004228b600000025004228b700f08f2f00ad
:102f10004228b600005020004228b70000b0ef0061
:102f200002f0ef0000e8a90020e8a80011e1a800e5
:102f3000000006000002220061002100ff020900db
:102f4000801878000430ef00b80578003b00780066
:102f500000040100f00320000060e10001003e00d9
:102f60000c00780004f0b7002e067800b805780051
:102f70003b007800000401007860e10001003900a6
:102f80007c0120000c00780005f0b7002e067800c8
:102f9000b80578003b007800000401006d60e10096
:102fa00002003a002e0678000d00370000c4b3007e
:102fb0000550bc0004d0bf000080fb0002004000b0
:102fc00061002100810040008c4878002e067800c6
:102fd0000470ec00000420000450e30005003a00f7
:102fe0000470ef00700120000550e300080032007b
:102ff0000570ec00b80578003b0078000004010083
:10300000f7ff37000c2f78000c022000e3ff370099
:103010006100210000042000010140000360200045
:10302000808151008301d1008301e9000380090000
:10303000b21878000c2f78007c01200000003700c7
:1030400062002100800120000060e10006003100e4
:10305000000420000060b8000201400000022200cd
:103060001f000900001978002e067800b8057800c6
:083070003b00780000040100a0
:020000040000fa
:10307800801f78000030ec0018003200600020004b
:103088000010e3001b003200c00020000010e30025
:103098001b003200200120000010e3001b0032005a
:1030a800200320000010e3001e003200200f200043
:1030b8000010e3001e003200f01020000010e300b2
:1030c8001d003200001120000010e3002000320033
:1030d80000e8a9004f00780000400600400a2000e0
:1030e80030488800e08a200020488800600888006e
:1030f800f7ff3700a080200030488800f4ff370031
:10310800400a200030488800f1ff37008014200072
:1031180030488800c01521002048880060088800d1
:10312800ebff370000c8a90020c8a800e8ff370057
:1031380020c8a900e6ff37000000eb000250e300ba
:10314800e3ff320000b0ef000270ef00e0ff37004d
:1031580000b0ef0002f0ef00ddff3700809fbe00f7
:10316800829fbe00849fbe003200f80030088000b5
:10317800630060000000d0000006010000000000ad
:103188000000000000000000000000000000000037
:1031980000000000000000000000000000c2fe0067
:1031a800018080002103b100e7826000c308de00cf
:1031b800020420000110b80064002100040240004d
:1031c800c33d280034407800f007b2004300dd001a
:1031d8008080410085804000914078008180fb001c
:1031e8006022ab00feff3a00411388000201e900ab
:1031f800f4ff3a006022ab00feff3a006822ef00bd
:103208003200f9004f02be004f01be004f00be0061
:0832180000c8a90000400600f7
:020000040000fa
:103220004427ef0040042000303a880042e7a8001d
:10323000c1e8a9000e2eef003a17020000000000be
:10324000fe1a020000000000321a02000000000016
:10325000f4140200000000005e1b020000000000e9
:1032600042c7a800000006000c2f78003cb0800088
:10327000b80578003b0078000004010030b0800001
:103280000c0040000616e300feff3a002e06780010
:10329000b80578003b007800000401000a36d5002c
:1032a00008b6d70004003900000228000ab6b600ac
:1032b0002000200008b6b6000c2f78004cb080002b
:1032c000b80578003b007800000401000001eb0025
:1032d000f30020000816ae00030037000836ec00ab
:1032e000010039000a36ec000816d400800078008e
:1032f0000a96d6008000fd000836b4000100780070
:103300000ab6b4000a36d50008b6d7000816d500ac
:103310008381d3000402e900f3ff31000c2f780011
:1033200003067800b80578003b007800000401002f
:1033300030b08000320020000280d80040b0880009
:1033400051b08800b80578003b0078000004010007
:020000040000fa
:103350000068a900801f7800811f7800821f780014
:103360000636ec003817e200030032003837ed0073
:1033700001003a0013e1a90000b980002217e30020
:1033800034003200017021008100400011a0a6002d
:103390002d003700110078000000d1002a00310014
:1033a0008000eb00820020000010a5000180b0002a
:1033b0000201e900fcff3b000100a60022003700eb
:1033c000f00fb200010f20000100e10002003a00fe
:1033d000fcd6a8001c003700010e20000100e1000f
:1033e00002003a00fcb6a800170037004101200097
:1033f0000008e10005003a00fc36a900fcd6ae004a
:10340000fc36a800fcd6a900fcb6a90011022000d9
:103410000008e10005003a00fc36ae00030037006a
:103420000001eb00110009000200d800816d2100ad
:10343000d2b7800081004100804878001200b000bf
:10344000f201b200d2b7880020b7ec00f0012000f2
:103450002037b6004f017800cf0078004f00780089
:043460000040060022
:020000040000fa
:10346400116ea900f00f2e008826b600003020004f
:103474008826b70000fe2f00c426b600c002200034
:10348400c426b700601c20004011880021e2a80077
:1034940080ff2f004628b600300020004628b700e1
:1034a400f0ff28004428b600000023004428b70099
:1034b4000188a9002188a8000168a9002168a80042
:1034c4002462ef002342a80000000600d016e200a8
:1034d40005003a002322af00030037002c118800b6
:1034e4002e0678000d00370000012000d016e300fe
:1034f400feff3200d3d6bf000080fb00016c210028
:10350400810040008c4878002e067800d036ec000c
:10351400d376ec00f0002000d376b600b80578002e
:103524003b007800000401000c2f7800d416e20060
:1035340001003a00fdff3700d6d6bf000080fb0033
:10354400016b21008100400011467800d436ed0063
:10355400d676ec00f0002000d676b600b8057800e8
:083564003b00780000040100a7
:020000040000fa
:10356c000168a900801f7800811f7800d7d6bf00a2
:10357c000080fb00016b2100810040002202ae00a4
:10358c00060037003011800080487800d436ec00fb
:10359c00d776ec00f0002000d776b600cf0078008c
:1035ac004f007800004006000188a900801f7800b9
:1035bc00811f7800d016e2000a003200d2d6bf007c
:1035cc000080fb00016c210081004000114078005c
:1035dc0024e2b700d036ed00d276ec00f0002000eb
:1035ec00d276b600cf0078004f007800004006007d
:020000040000fa
:1035fc0000002c00162eb700f00f2e00a026b600ef
:10360c0000f02000a026b700c228a80070002000ff
:10361c004a28b7000288a9002288a80000012000cf
:10362c0004a1b700d022220010088800f0ff280067
:10363c004028b600000023004028b70000402000be
:10364c00f0b788000068a9002068a80005e1a80070
:04365c000000060064
:020000040000fa
:1036600001c4fe0001c0fe0000002100f1ff2500a2
:10367000018009000018eb000ff8270049722100b3
:103680008f049800101902000000000000002800bc
:10369000000188000ef427009e049800a00020007e
:1036a000a004980000c2fe0088c72800c00498004b
:0c36b000b80578003b0078000004010021
:020000040000fa
:1036bc00f0fd2f00102eb600f00f2e008226b60063
:1036cc00002021008226b7001629ef005040200070
:1036dc00a048880000012000900888000000060027
:1036ec007c088800cc4888000c06d100dc48880097
:1036fc002e06780013e1a800ccb988002e067800bd
:0c370c00b80578003b00780000040100c4
:020000040000fa
:1037180000a0fe009070800000e0a300feb6d70075
:103728000b0039000070210011b9800081004000b1
:10373800f0b780004500de008008780022b7ec0072
:10374800f00120002237b60000402000f0b78800c2
:103758000080fe000288a900004006000000fe006c
:020000040000fa
:04376800000000005d
:020000040000fa
:02000004000af0
:04afe000cdff0000a1
:020000040000fa
:02000004000af0
:04afe400ffff00006b
:020000040000fa
:02000004000af0
:04afe8004fff000017
:020000040000fa
:02000004000af0
:04afec00baff0000a8
:020000040000fa
:02000004000af0
:04aff000fbff000063
:020000040000fa
:02000004000af0
:04aff400ffff00005b
:00000001FF
