:020000040000fa
:080000000002040000000000f2
:020000040000fa
:04000800ea02000008
:020000040000fa
:04000c00ea02000004
:020000040000fa
:04001000ea02000000
:020000040000fa
:04001400ea020000fc
:020000040000fa
:04001800c410000010
:020000040000fa
:04001c00ea020000f4
:020000040000fa
:04002000ea020000f0
:020000040000fa
:04002400ea020000ec
:020000040000fa
:04002800ea020000e8
:020000040000fa
:04002c00ea020000e4
:020000040000fa
:04003000ea020000e0
:020000040000fa
:04003400ec020000da
:020000040000fa
:04003800ea020000d8
:020000040000fa
:04003c00ea020000d4
:020000040000fa
:040040008602000034
:020000040000fa
:04004400180200009e
:020000040000fa
:04004800ea020000c8
:020000040000fa
:04004c00ea020000c4
:020000040000fa
:04005000ea020000c0
:020000040000fa
:040054002c03000079
:020000040000fa
:040058005003000051
:020000040000fa
:04005c00ea020000b4
:020000040000fa
:04006000ea020000b0
:020000040000fa
:04006400ea020000ac
:020000040000fa
:04006800ea020000a8
:020000040000fa
:04006c00ea020000a4
:020000040000fa
:04007000ea020000a0
:020000040000fa
:04007400ea0200009c
:020000040000fa
:040078000e03000073
:020000040000fa
:04007c00ea02000094
:020000040000fa
:04008000ea02000090
:020000040000fa
:04008400ea0200008c
:020000040000fa
:04008800ea02000088
:020000040000fa
:04008c00ea02000084
:020000040000fa
:04009000ea02000080
:020000040000fa
:04009400ea0200007c
:020000040000fa
:04009800ea02000078
:020000040000fa
:04009c00ea02000074
:020000040000fa
:0400a0001003000049
:020000040000fa
:0400a400ea0200006c
:020000040000fa
:0400a800ea02000068
:020000040000fa
:0400ac00ea02000064
:020000040000fa
:0400b000ea02000060
:020000040000fa
:0400b400ea0200005c
:020000040000fa
:0400b800ea02000058
:020000040000fa
:0400bc00ea02000054
:020000040000fa
:0400c000ea02000050
:020000040000fa
:0400c400ea0200004c
:020000040000fa
:0400c800ea02000048
:020000040000fa
:0400cc00ea02000044
:020000040000fa
:0400d000ea02000040
:020000040000fa
:0400d400ea0200003c
:020000040000fa
:0400d800ea02000038
:020000040000fa
:0400dc00ea02000034
:020000040000fa
:0400e000ea02000030
:020000040000fa
:0400e400ea0200002c
:020000040000fa
:0400e800ea02000028
:020000040000fa
:0400ec00ea02000024
:020000040000fa
:0400f000ea02000020
:020000040000fa
:0400f400ea0200001c
:020000040000fa
:0400f800ea02000018
:020000040000fa
:0400fc00ea02000014
:020000040000fa
:04010000ea0200000f
:020000040000fa
:04010400ea0200000b
:020000040000fa
:04010800ea02000007
:020000040000fa
:04010c00ea02000003
:020000040000fa
:04011000ea020000ff
:020000040000fa
:04011400ea020000fb
:020000040000fa
:04011800ea020000f7
:020000040000fa
:04011c00ea020000f3
:020000040000fa
:04012000ea020000ef
:020000040000fa
:04012400ea020000eb
:020000040000fa
:04012800ea020000e7
:020000040000fa
:04012c00ea020000e3
:020000040000fa
:04013000ea020000df
:020000040000fa
:04013400ea020000db
:020000040000fa
:04013800ea020000d7
:020000040000fa
:04013c00ea020000d3
:020000040000fa
:04014000ea020000cf
:020000040000fa
:04014400ea020000cb
:020000040000fa
:04014800ea020000c7
:020000040000fa
:04014c00ea020000c3
:020000040000fa
:04015000ea020000bf
:020000040000fa
:04015400ea020000bb
:020000040000fa
:04015800ea020000b7
:020000040000fa
:04015c00ea020000b3
:020000040000fa
:04016000ea020000af
:020000040000fa
:04016400ea020000ab
:020000040000fa
:04016800ea020000a7
:020000040000fa
:04016c00ea020000a3
:020000040000fa
:04017000ea0200009f
:020000040000fa
:04017400ea0200009b
:020000040000fa
:04017800ea02000097
:020000040000fa
:04017c00ea02000093
:020000040000fa
:04018000ea0200008f
:020000040000fa
:04018400ea0200008b
:020000040000fa
:04018800ea02000087
:020000040000fa
:04018c00ea02000083
:020000040000fa
:04019000ea0200007f
:020000040000fa
:04019400ea0200007b
:020000040000fa
:04019800ea02000077
:020000040000fa
:04019c00ea02000073
:020000040000fa
:0401a000ea0200006f
:020000040000fa
:0401a400ea0200006b
:020000040000fa
:0401a800ea02000067
:020000040000fa
:0401ac00ea02000063
:020000040000fa
:0401b000ea0200005f
:020000040000fa
:0401b400ea0200005b
:020000040000fa
:0401b800ea02000057
:020000040000fa
:0401bc00ea02000053
:020000040000fa
:0401c000ea0200004f
:020000040000fa
:0401c400ea0200004b
:020000040000fa
:0401c800ea02000047
:020000040000fa
:0401cc00ea02000043
:020000040000fa
:0401d000ea0200003f
:020000040000fa
:0401d400ea0200003b
:020000040000fa
:0401d800ea02000037
:020000040000fa
:0401dc00ea02000033
:020000040000fa
:0401e000ea0200002f
:020000040000fa
:0401e400ea0200002b
:020000040000fa
:0401e800ea02000027
:020000040000fa
:0401ec00ea02000023
:020000040000fa
:0401f000ea0200001f
:020000040000fa
:0401f400ea0200001b
:020000040000fa
:0401f800ea02000017
:020000040000fa
:0401fc00ea02000013
:020000040000fa
:04020000ea0200000e
:020000040000fa
:04020400ea0200000a
:020000040000fa
:04020800ea02000006
:020000040000fa
:04020c00ea02000002
:020000040000fa
:04021000ea020000fe
:020000040000fa
:04021400ea020000fa
:020000040000fa
:04021800ea020000f6
:020000040000fa
:04021c00ea020000f2
:020000040000fa
:04022000ea020000ee
:020000040000fa
:04022400ea020000ea
:020000040000fa
:04022800ea020000e6
:020000040000fa
:04022c00ea020000e2
:020000040000fa
:04023000ea020000de
:020000040000fa
:04023400ea020000da
:020000040000fa
:04023800ea020000d6
:020000040000fa
:04023c00ea020000d2
:020000040000fa
:04024000ea020000ce
:020000040000fa
:04024400ea020000ca
:020000040000fa
:04024800ea020000c6
:020000040000fa
:04024c00ea020000c2
:020000040000fa
:04025000ea020000be
:020000040000fa
:04025400ea020000ba
:020000040000fa
:04025800ea020000b6
:020000040000fa
:04025c00ea020000b2
:020000040000fa
:04026000ea020000ae
:020000040000fa
:04026400ea020000aa
:020000040000fa
:04026800ea020000a6
:020000040000fa
:04026c00ea020000a2
:020000040000fa
:04027000ea0200009e
:020000040000fa
:04027400ea0200009a
:020000040000fa
:04027800ea02000096
:020000040000fa
:04027c00ea02000092
:020000040000fa
:04028000ea0200008e
:020000040000fa
:100400000e2eef000f0021000e0821000e007800d4
:100410008001b1000001880001c4fe0000c2fe009e
:100420004ac029003a0678003c0078000004010028
:020000040000fa
:1004300000e8a90061e2a900801f7800c030ec004c
:100440001900320060002000c010e3001c003200e0
:10045000c0002000c010e3001c003200200120007a
:10046000c010e3001c00320020032000c010e30095
:100470001f003200200f2000c010e30021003200d6
:10048000f0102000c250e200010032000000e8003d
:10049000c010e30002003a00c2f0ee00c0b0ef006e
:1004a0004f00780000400600400a200030488800d5
:1004b000e08a20002048880060088800f8ff3700a4
:1004c000a080200030488800f5ff3700400a200057
:1004d00030488800f2ff3700801420003048880040
:1004e000c01521002048880060088800ecff370014
:1004f000c350e200eaff320000c8a90020c8a800eb
:10050000e7ff370020c8a900e5ff370000c8a900b1
:10051000809fbe00829fbe00849fbe00861f780021
:100520003200f80000c2fe00018680002103b10005
:10053000e7826000c308de00020420000110b8005a
:10054000a40c21000402400063ca280090488000e7
:1005500063006000000601000000000000000000d1
:100560000000000061e2a8000200e000100032007c
:10057000344078000003eb000070a7000083eb001c
:10058000f007b2004300dd0080804100858040001c
:10059000114078000670a7000080ea006022ab00de
:1005a000feff3a0068e2b7000201e900eeff370003
:1005b0006022ab00feff3a006822ef003200f90033
:1005c0004f0378004f02be004f01be004f00be0037
:1005d000004006000000fe000068a900809fbe00e9
:1005e000829fbe00d237ec00d817e2000300320031
:1005f000d837ed0001003a0013e1a900c850e2002d
:1006000003003a00c910af00a01a02000000000069
:100610004f01be004f00be00004006000000fe007b
:1006200003c8a900809fbe00829fbe00b011800059
:1006300021792100a2bd800081004100804878001e
:100640001200b000f201b200a2bd88004f01be004e
:100650004f00be00004006000168a900801f78001e
:10066000811f780091d7bf000080fb00a176210098
:10067000810040002202ae000600370030118000e9
:10068000804878008e37ec009177ec00f000200075
:100690009177b600cf0078004f0078000040060048
:1006a0000188a900801f7800811f78008a17e20066
:1006b0000a0032008cd7bf000080fb00a177210028
:1006c000810040001140780024e2b7008a37ed0035
:1006d0008c77ec00f00020008c77b600cf0078001b
:0806e0004f0078000040060005
:020000040000fa
:1006e800f61500002c8c0000055600004944000057
:1006f8004f4e00005a1600007683000007430000a2
:1007080055520000454e0000424c0000661600009d
:1007180080830000034300004c5300008216000051
:100728008c83000006530000435200004c55000023
:100738005000000098160000948300000653000043
:10074800435200004c4400004e000000a216000076
:10075800a083000004470000455400005800000032
:10076800ac160000ac8300000447000045540000ac
:1007780059000000ba160000b683000004530000b8
:100788004554000058000000c8160000c08300004f
:10079800045300004554000059000000e61600000c
:1007a800ca8300000643000055520000504f000065
:1007b80053000000d0100000c8830000d28300005e
:1007c800fc840000d4830000044c0000454600006f
:1007d8005400000004170000e683000005520000e2
:1007e80049470000485400002a170000f083000021
:1007f80007540000474c00004348000041520000e5
:1008080054170000fa830000044500004d49000019
:10081800540000006a17000006840000024300002c
:10082800520000008a1700001084000005530000e1
:1008380050410000434500009c1700001884000048
:1008480006530000504100004345000053000000db
:10085800d010000060850000e28400000000000065
:1008680052870000e8840000060000007e85000032
:10087800fc840000e284000000000000ec8400001a
:1008880020840000ee840000fcff0000fc840000cf
:1008980022840000054300004c5200004c4e00002a
:1008a800a21700004c8400000454000059500000b6
:1008b80045000000d010000060850000e8840000ba
:1008c8000600000088850000fc840000e284000027
:1008d80000000000ec840000608500002285000014
:1008e8000e84000052860000ee840000f6ff00002f
:1008f8007e850000fc840000568400000644000049
:10090800454c00004554000045000000d010000090
:10091800a48800000e840000fc840000808400008d
:1009280008420000414300004b43000048410000da
:1009380052000000d0100000ee8300008a840000fe
:10094800ee830000fc84000092840000023c00005a
:1009580023000000d0100000328800001a85000033
:10096800bc880000448600005088000030850000e4
:10097800fc840000a8840000044800004f4c0000dc
:1009880044000000d0100000e2840000ffff0000d7
:10099800508800009a860000508800001a850000e0
:1009a80038850000fc84000092840000012e0000bd
:1009b800d010000020840000fc840000e610000035
:1009c800f0100000fc1000000411000012110000db
:1009d80020110000321100004c11000056110000d7
:1009e80000000000044500005849000054000000c1
:1009f80060110000f4840000065200004542000027
:100a08004f4f00005400000068110000fe840000f1
:100a180007450000584500004355000054450000b4
:100a28006a1100000a8500000140000072110000f0
:100a38001685000002430000400000007a11000003
:100a48001c850000023200004000000084110000f4
:100a58002485000001210000921100002c8500006f
:100a680002430000210000009c11000032850000b4
:100a78000232000021000000a81100003a850000a1
:100a880001490000b611000042850000014a00003b
:100a9800c011000048850000065500004e4c0000bb
:100aa8004f4f000050000000ca1100004e850000a2
:100ab8000344000055500000d41100005a8500007e
:100ac800043200004455000050000000dc11000012
:100ad80062850000043f00004455000050000000fb
:100ae800e81100006c85000004440000524f00002b
:100af80050000000f4110000768500000532000067
:100b0800445200004f500000fc1100008085000096
:100b18000453000057410000500000000612000076
:100b28008a8500000532000053570000415000003c
:100b38001212000094850000035200004f54000078
:100b4800261200009e850000042d0000524f000070
:100b58005400000036120000a6850000044f000073
:100b6800564500005200000046120000b085000003
:100b7800053200004f560000455200005012000098
:100b8800ba850000034e0000495000005e120000c4
:100b9800c4850000023e00005200000066120000fa
:100ba800cc850000025200003e00000070120000d8
:100bb800d485000002520000400000007a120000b4
:100bc800dc85000003530000504000008412000040
:100bd800e48500000353000050210000901200003b
:100be800ec85000003520000504000009a120000fb
:100bf800f48500000352000050210000a4120000f8
:100c0800fc85000004540000554300004b00000020
:100c1800ae120000048600000544000045500000a4
:100c280054480000ba1200000e8600000348000075
:100c380045580000d0100000e284000010000000b9
:100c4800f687000030850000fc840000188600004c
:100c58000744000045430000494d0000414c000096
:100c6800d0100000e28400000a000000f6870000af
:100c780030850000fc8400002a860000012b00005b
:100c8800c812000040860000012d0000d0120000ac
:100c980046860000023100002b000000da12000036
:100ca8004c860000023200002b000000e212000017
:100cb80054860000023100002d000000ea120000f6
:100cc8005c860000023200002d000000f2120000d5
:100cd80064860000023200002a000000fa120000b8
:100ce8006c860000023200002f0000000213000092
:100cf80074860000064c0000534800004946000076
:100d0800540000000a1300007c8600000652000010
:100d18005348000049460000540000001a13000020
:100d280088860000022b0000210000002a13000022
:100d380094860000024d00002b00000038130000cc
:100d48009c860000012a000048130000a4860000c9
:100d5800012f000056130000aa860000022a000096
:100d68002f00000064130000b0860000052a000070
:100d78002f4d00004f44000076130000b886000095
:100d8800042f00004d4f0000440000008a130000ab
:100d9800c2860000045500004d41000058000000c4
:100da8009a130000cc860000045500004d4900004d
:100db8004e000000a8130000d6860000044500007d
:100dc800564500004e000000b6130000e086000003
:100dd800034f000044440000c4130000ea860000ea
:100de800034100004e440000d2130000f2860000c8
:100df800024f000052000000da130000fa860000db
:100e0800035800004f520000e21300000287000060
:100e1800064900004e5600004552000054000000ec
:100e2800ea1300000a870000064e0000454700004c
:100e38004154000045000000f2130000168700002e
:100e4800023000003d000000fa1300002287000075
:100e5800023000003c000000041400002a87000053
:100e6800023000003e00000010140000328700002d
:100e7800013d00001a1400003a870000023c0000ff
:100e88003e0000002a14000040870000013c0000da
:100e98003a14000048870000013e00004a14000090
:100ea8004e870000025500003c0000005a14000064
:100eb80054870000025500003e0000006a1400003c
:100ec8005c87000004430000454c00004c00000013
:100ed8007a1400006487000005430000454c0000b8
:100ee8004c2b0000841400006e87000005430000ae
:100ef800454c00004c5300008c140000788700001b
:100f0800044800004552000045000000d0100000d1
:100f1800ea8700001a850000fc8400008287000030
:100f2800094900004d4d00004544000049410000ba
:100f380054450000d0100000148800001a850000f5
:100f480060850000068800001a8500003e870000c2
:100f5800e8840000120000005a8600006085000046
:100f68002285000084880000008700003885000082
:100f7800e6840000040000007e850000fc84000078
:100f880092870000044d00004f5600004500000005
:100f980096140000c4870000054300004d4f000070
:100fa80056450000b21400009c8c00000553000058
:100fb8005441000054450000da1000000c00000005
:100fc800d88700000244000050000000da1000003a
:100fd8000a000000e48700000442000041530000ba
:100fe80045000000da1000000e000000ee87000047
:100ff80009530000595300004c41000054450000bb
:1010080053540000da1000001a000000fa870000ac
:10101800064c0000415400004553000054000000f5
:10102800da100000180000000a88000002520000d0
:1010380030000000da1000001400000018880000da
:101048000253000030000000da1000001200000017
:10105800228800000350000041440000da1000001c
:10106800020000002c8800000354000049420000e0
:10107800da1000000000000036880000033e00007f
:10108800494e0000da1000001000000040880000ff
:101098000248000050000000da10000016000000ae
:1010a8004a880000095300004f55000052430000d1
:1010b800452d000049440000da1000000800000037
:1010c8004a880000075600004552000053490000b6
:1010d8004f4e0000ce140000648800000652000045
:1010e800414d0000454e000044000000d8140000a7
:1010f80070880000054900004d4d0000454400007f
:10110800e21400007c880000064800004944000002
:10111800444500004e000000ec14000086880000e2
:10112800074c0000454e00004d410000534b0000a5
:10113800f614000092880000024200004c000000f3
:10114800001500009e880000075400004942000076
:10115800534900005a4500000a150000a6880000ff
:101168000750000041440000534900005a45000060
:1011780014150000b2880000065500004c49000014
:101188004d490000540000001e150000be880000f4
:10119800054400004f4300004f4c00002815000094
:1011a800ca880000065300004f5500005243000053
:1011b8004500000032150000d488000007530000e5
:1011c8004f55000052430000452100004015000023
:1011d800e0880000063f000044490000474900003d
:1011e80054000000d010000092850000e484000044
:1011f800300000004a86000060850000308700004b
:10120800e88400002600000060850000e2840000f9
:101218000a0000005a870000e88400000800000067
:10122800e2840000070000004a8600006085000094
:10123800a48500005a870000ea8400000c00000022
:10124800e2840000ffff0000e68400000a000000be
:101258007e8500007e850000e2840000000000001a
:10126800fc840000ec880000073e00004e5500009a
:101278004d42000045520000d0100000f6870000e3
:101288001a850000d28500006085000028870000cc
:10129800e884000002000000fc8400003689000099
:1012a800053f000053490000474e0000d0100000e1
:1012b800b88500001a85000060850000e4840000fd
:1012c8002d0000003e870000ea8400000e000000a8
:1012d8007e850000e2840000ffff0000d285000048
:1012e800e684000012000000e48400002b000000e7
:1012f8003e870000ea84000016000000e284000037
:1013080001000000d2850000d2850000528600004e
:10131800da85000062860000da850000e6840000b5
:1013280006000000e284000000000000fc840000c9
:1013380052890000073f00004e5500004d42000052
:1013480045520000d010000060850000e2840000d3
:101358000000000060850000a4850000b08a00003d
:101368005a890000d285000040890000fc840000f2
:101378009c890000055700004f52000044530000ac
:10138800d010000016840000148800001a850000a0
:101398006085000028870000e88400002e00000017
:1013a800608500005a8600006085000022850000e4
:1013b8009c880000f886000060850000b483000067
:1013c80044860000e2840000400000005a870000c4
:1013d800e88400000400000016840000d2850000a4
:1013e80052860000da8500005e8400002084000038
:1013f800e6840000ccff00007e8500001684000013
:10140800fc840000bc890000055a00005459000003
:1014180050450000d01000006085000022850000c3
:1014280060850000ea8400000a0000000e840000c5
:1014380052860000e6840000f0ff00008885000066
:10144800fc840000068a000005550000505000008a
:10145800455200004e150000268a0000045700007f
:101468004f5200004400000070150000308a000050
:1014780004460000494e000044000000ac1500007e
:101488003a8a00000641000043430000455000002e
:1014980054000000d0100000b885000060850000ee
:1014a800468800003085000044860000b8850000aa
:1014b8006a8500003e870000e884000036000000ce
:1014c8004a8c000060850000e28400000d000000e6
:1014d8003e870000e88400002600000060850000c8
:1014e800e2840000080000003e870000ea84000053
:1014f8000c0000007e8500009e84000062860000cb
:10150800e6840000d6ff0000608500000e8400001d
:10151800b88500003885000052860000e684000087
:10152800c8ff00007e850000e28400000000000083
:10153800b885000038850000ca8500009285000043
:101548004a860000fc840000448a0000054300002d
:101558004f5500004e540000d01000006085000078
:1015680022850000d285000052860000da8500003e
:10157800fc840000a88a00000545000052520000c3
:101588004f520000d010000020840000b08a0000f4
:101598005e84000020840000e48400003f00000016
:1015a8000e840000e284000000000000e0870000d4
:1015b80030850000288800001a850000f2850000a8
:1015c800fc840000be8a0000094900004e54000057
:1015d800455200005052000045540000d010000051
:1015e800a4880000388a0000608500002285000079
:1015f80028870000e884000018000000428a0000e4
:1016080060850000ea8400000c0000007e85000070
:101618001485000016840000e6840000e2ff000044
:1016280092850000c68a00007e850000fc840000c8
:10163800e68a0000024f00004b000000d0100000b6
:1016480020840000e28400004f0000000e840000a7
:10165800e28400004b0000000e840000fc840000bf
:101668001c8b000005410000424f0000525400004e
:10167800d0100000288800001a850000f2850000bc
:101688008a8b0000348b000006410000424f0000a6
:101698005254000022000000d0100000ea8400002c
:1016a8002c000000f0840000608500002285000006
:1016b8006a850000d2850000d2850000928500006e
:1016c80052860000928500005e840000da850000e2
:1016d800da8500004486000052860000608500001c
:1016e800e8860000e884000004000000528600003c
:1016f800f28400003c8b0000fc840000468b000054
:10170800045100005549000054000000d0100000aa
:101718001e8800001a85000002860000e28400008e
:101728000000000060850000e087000030850000b0
:1017380060880000308500003c8800001a850000a1
:1017480046880000308500003c8800001a850000ab
:10175800e284000040000000628600004e8a00001b
:101768007e85000020840000f28a0000e0870000e7
:101778001a85000028870000ea84000004000000a1
:10178800228b000016840000e6840000deff0000c3
:10179800828b0000074900004e4600004c4f0000b5
:1017a8004f500000f4150000d0100000f28b00002c
:1017b800f48b0000f08b000074830000368c00006e
:1017c8004c8c0000788c00006c8c0000f68b0000bc
:1017d800388c0000fc840000021900001e1900006b
:1017e8002e1900003a19000042190000ce870000a7
:1017f80005540000494300004b53000072190000d3
:10180800fa8b000004550000534500004300000017
:101818007c190000048c0000044d000053450000b2
:10182800430000008e1900000e8c0000044c0000dc
:1018380046530000520000009e190000188c00005a
:1018480004520000414e000044000000b619000098
:10185800228c000005530000524100004e44000055
:10186800e8190000281b0000581b0000d88400005d
:10187800043f00004b450000590000006a1b0000af
:101888003a8c0000034b000045590000801b000003
:10189800f8190000448c0000044200004155000083
:1018a80044000000321a00004e8c0000055300006e
:1018b800454d000049540000521a0000588c0000a1
:1018c800045300004745000054000000801a00003f
:1018d800921b0000628c0000045400004f4e000070
:1018e80045000000ae1b0000ca1700006e8c000007
:1018f80006520000535400004f52000045000000fb
:101908001e1800007a8c0000055200004c4f0000a1
:101918004144000050180000868c00000645000075
:10192800535400004f520000450000008218000088
:10193800908c0000054500004c4f00004144000019
:04194800ca180000b9
:020000040000fa
:10194c00000000000000000000000000000000008b
:10195c0000000000000f000008080000080800004c
:10196c0008080000080f0000000000000000000044
:10197c000000000000f80000080800000808000043
:10198c000808000008f8000000000000000000003b
:10199c0008080000080800000808000008080000fb
:1019ac000000000000ff000000000000000000002c
:1019bc000808000008ff00000808000008080000e4
:1019cc00000000000000000000000000000000000b
:1019dc0000000000000000000000000000000000fb
:1019ec0000000000000000000000000000000000eb
:1019fc000000000000ff00000808000008080000bc
:101a0c000808000008ff00000000000000000000b3
:101a1c0000000000000000000000000000000000ba
:101a2c0008080000080f0000080800000808000063
:101a3c000808000008f8000008080000080800006a
:101a4c0080c00000e0f00000e0c00000800000005a
:101a5c0001030000070f0000070300000100000055
:101a6c00000000000000000000000000000000006a
:101a7c00000000000000000000000000000000005a
:101a8c00000000000000000000000000000000004a
:101a9c00000000000000000000000000000000003a
:101aac0000000000000000000000000000fe00002c
:101abc00103800007c1000001010000000fe000028
:101acc0020700000a8200000202000000000000072
:101adc000020000020200000a87000002000000062
:101aec004020000010f80000102000004000000012
:101afc001020000040f80000402000001000000002
:101b0c00000000000080000080800000fe0000004b
:101b1c000000000044fe0000440000000000000033
:101b2c0000000000103800007cfe000000000000e7
:101b3c0000000000fe7c00003810000000000000d7
:101b4c000000000000000000000000000000000089
:101b5c0020200000202000002000000020000000b9
:101b6c005050000050000000000000000000000079
:101b7c0050500000f8500000f850000050000000d9
:101b8c0020780000a070000028f000002000000069
:101b9c00c0c8000010200000409800001800000091
:101bac0060900000a0400000a890000068000000b9
:101bbc006020000040000000000000000000000059
:101bcc0010200000404000004020000010000000e9
:101bdc004020000010100000102000004000000009
:101bec0000200000a8700000a820000000000000e9
:101bfc000020000020f80000202000000000000061
:101c0c000000000000000000602000004000000008
:101c1c000000000000f000000000000000000000c8
:101c2c0000000000000000000060000060000000e8
:101c3c0000080000102000004080000000000000a0
:101c4c007088000098a80000c88800007000000090
:101c5c00206000002020000020200000f800000080
:101c6c00708800001020000040800000f800000088
:101c7c00f008000008f0000008080000f000000068
:101c8c001030000050900000f81000001000000010
:101c9c00f880000080f0000008080000f000000050
:101cac003040000080f000008888000070000000c8
:101cbc00f808000010200000404000004000000028
:101ccc007088000088700000888800007000000098
:101cdc007088000088700000080800007000000088
:101cec000060000060000000606000000000000068
:101cfc000060000060000000602000004000000058
:101d0c001020000040800000402000001000000067
:101d1c0000000000f8000000f800000000000000c7
:101d2c0040200000100800001020000040000000bf
:101d3c007088000008100000200000002000000047
:101d4c007088000008680000a8a80000700000005f
:101d5c007088000088f80000888800008800000067
:101d6c00f088000088f0000088880000f000000077
:101d7c0078800000808000008080000078000000e7
:101d8c00f08800008888000088880000f0000000bf
:101d9c00f880000080f8000080800000f80000004f
:101dac00f880000080f800008080000080000000b7
:101dbc007880000080b0000088880000700000006f
:101dcc008888000088f800008888000088000000df
:101ddc007020000020200000202000007000000077
:101dec00780800000808000008900000600000005f
:101dfc0088900000a0c00000a090000088000000a7
:101e0c00808000008080000080800000f8000000ce
:101e1c0088d80000a888000088880000880000008e
:101e2c0088880000c8a8000098880000880000007e
:101e3c00708800008888000088880000700000000e
:101e4c00f088000088f00000808000008000000016
:101e5c007088000088880000a898000078000000b6
:101e6c00f088000088f00000a090000088000000be
:101e7c00788000008070000008080000f00000006e
:101e8c00f82000002020000020200000200000008e
:101e9c008888000088880000888800007000000096
:101eac00888800008888000088500000200000000e
:101ebc008888000088a80000a8d8000088000000ce
:101ecc008888000050200000508800008800000026
:101edc0088880000885000002020000020000000ae
:101eec00f81000002040000080800000f800000086
:101efc0060400000404000004040000060000000d6
:101f0c0000800000402000001008000000000000cd
:101f1c00180800000808000008080000180000005d
:101f2c0020500000880000000000000000000000ad
:101f3c0000000000000000000000000000f800009d
:101f4c004020000010000000000000000000000015
:101f5c000000000070080000788800007800000085
:101f6c008080000080b00000c8880000f0000000f5
:101f7c0000000000708000008088000070000000ed
:101f8c00080800000868000098880000780000002d
:101f9c000000000070880000f88000007000000055
:101fac003048000040e000004040000040000000cd
:101fbc00000000007888000088780000087000009d
:101fcc0080800000b0c800008888000088000000f5
:101fdc000020000000200000202000002000000055
:101fec001000000030100000109000006000000095
:101ffc008080000090a00000c0a0000090000000b5
:10200c006020000020200000202000007000000054
:10201c0000000000d0a80000a88800008800000084
:10202c0000000000b0c80000888800008800000094
:10203c00000000007088000088880000700000001c
:10204c0000000000f088000088f000008080000094
:10205c00000000006890000090b0000050180000d4
:10206c0000000000b0c8000080800000800000006c
:10207c00000000007080000070080000f0000000fc
:10208c0040400000e04000004048000030000000ec
:10209c00000000008888000088980000680000009c
:1020ac00000000008888000088500000200000001c
:1020bc000000000088880000a8a800005000000064
:1020cc000000000088500000205000008800000034
:1020dc00000000008888000088780000087000006c
:1020ec0000000000f810000020400000f800000084
:1020fc002040000040800000404000002000000014
:10210c0020200000202000002020000020000000e3
:10211c0040200000201000002020000040000000a3
:10212c000000000040a800001000000000000000ab
:10213c00fcfc0000fcfc0000fcfc0000fcfc0000b3
:020000040000fa
:10214c00466f0000727400006845000078200000a3
:10215c00563000002e310000006300006f6d00004f
:10216c00706900006c650000206f00006e6c000050
:0c217c0079200000776f00007264000002
:020000040000fa
:102188000e0821000f002100cab328003a06780083
:102198003c007800000401008a1f78000c057800d4
:1021a8003a0678003c007800000401000d2f780002
:1021b8003c0078008b0640003a0678003c00780026
:1021c800000401000d2f7800ba0678003a0678005e
:1021d8003c007800000401000d2f7800ba06780052
:1021e8008d86fb003a0678003c0078000004010068
:1021f8001a0545003a0678003c0078000004010002
:102208000d00e000ae067800f9ff3a000a85e80004
:102218003a0678003c007800000401000d00e00058
:10222800ae067800f2ff32000a85e8003a06780028
:102238003c00780000040100881f7800891f78009e
:102248008d047800ae0678000d047800ae0678009c
:102258003a0678003c007800000401008904e80090
:102268000848e100040032001a0545003a067800e3
:102278003c007800000401000a85e800cf047800db
:102288004f0478003a0678003c007800000401000a
:102298000d2f78008a0678003a0678003c0078000e
:1022a800000401000d057800ae0678003a067800b3
:1022b8003c007800000401004f0578003a067800d9
:1022c8003c007800000401000000fe000d067800c4
:1022d800ae0678003c007800000401009d067800f6
:1022e8003a0678003c007800000401009d4678001a
:1022f8008d86fb003a0678003c0078000004010057
:102308001d0078002d00b0001d2f78008006780091
:102318003a0678003c00780000040100ae0e780010
:10232800ae0678003a0678003c0078000004010008
:102338002e007800804e7800ae0678003a067800c5
:102348003c00780000040100ae0e78002d00b000bb
:10235800ae0e7800ae0678003a0678003c007800a9
:10236800000401000d2f7800890678003a067800ed
:102378003c007800000401000d2f7800ffbe970094
:102388003a0678003c00780000040100cf04780089
:102398004f0478003a0678003c00780000040100f9
:1023a8000d2f78003a0678003c0078000004010000
:1023b8001e0078000d2f7800002f78003a0678006c
:1023c8003c007800000401000d00e000010032002c
:1023d8000d2f78003a0678003c00780000040100d0
:1023e800ae0678003a0678003c0078000004010048
:1023f800ae067800ae0678003a0678003c00780011
:10240800000401000d0078009e067800000f780097
:102418003a0678003c007800000401007eb8970076
:102428007dbf9f00800678006eb897009e007800f8
:1024380061bf9f00000f78003a0678003c007800e2
:10244800000401000d0078009e067800feb8970091
:10245800010f780070bf9f003a0678003c007800b2
:10246800000401000d0078009e067800feb8970071
:10247800010f780070bf9f003a0678003c00780092
:10248800000401000d2f7800febe97003a06780080
:102498003c007800000401000d2f7800eebe970084
:1024a8005eb89700002f78003a0678003c00780064
:1024b800000401000e87e9003a0678003c00780025
:1024c800000401008d1f7800ae0678003a067800f7
:1024d8003c007800000401000d2f7800cf0678003a
:1024e8003a0678003c007800000401000d2f7800bf
:1024f800ffbe97003a0678003c007800000401000f
:102508000e0078000d2f7800800678003a067800d3
:102518003c007800000401000d077800ae06780042
:102528003a0678003c007800000401000d2f78007e
:102538008f0678003a0678003c0078000004010015
:102548008d077800ae0678003a0678003c007800df
:10255800000401001e0078000d0f7800002f78009d
:102568003a0678003c0078000004010040be800074
:10257800000057000d2f78008006d1003a06780039
:102588003c00780000040100ae8646003a06780058
:102598003c007800000401002e0078008d065000f1
:1025a8003a0678003c007800000401001d00b000e5
:1025b8003a0678003c007800000401002d00b000c5
:1025c8003a0678003c007800000401001d00b100c4
:1025d8003a0678003c007800000401002d00b100a4
:1025e8003a0678003c007800000401008d86460019
:1025f8003a0678003c007800000401008d06d100fe
:102608003a0678003c007800000401000d007800cc
:10261800ae0678000000e900008009008d06d000b1
:102628003a0678003c007800000401000d007800ac
:10263800ae0678000000e900008009008d06d10090
:102648003a0678003c007800000401001d0078007c
:102658002e004000800e7800ae0678003a0678001a
:102668003c007800000401007eb897008d007800d7
:10267800ae067800010f40000d80b0003a067800e1
:102688003c007800000401000d007800ae067800d8
:102698000d80b900800678003a0678003c00780082
:1026a800000401002e017800110009000d01d80076
:1026b800800678003a0678003c00780000040100a3
:1026c8002e007800ae0078000180b90011000900e2
:1026d8000d00d800800678003a0678003c007800a3
:1026e800000401002e007800ae0078000180b900d7
:1026f800110009000d00d800012f7800800678002d
:102708003a0678003c007800000401001e017800b9
:10271800110009004d19d80080067800010f7800d3
:102728003a0678003c007800000401002e0078008a
:102738000068e100010031000d00fd003a06780054
:102748003c007800000401002e0078000d00e10034
:10275800010031000d00fd003a0678003c007800c9
:10276800000401000080eb000d00a7000000eb0052
:10277800800678003a0678003c00780000040100e2
:102788000080eb000d00a6000000eb00800678003a
:102798003a0678003c00780000040100ae86660026
:1027a8003a0678003c00780000040100ae86760006
:1027b8003a0678003c00780000040100ae866e00fe
:1027c8003a0678003c007800000401008d86ea0093
:1027d8003a0678003c007800000401008d06ea0003
:1027e8003a0678003c007800000401001d00b100a2
:1027f8008d865e003a0678003c00780000040100ef
:102808008d8646008d865e008d86ea003a06780041
:102818003c007800000401008d8646008d865e002d
:102828003a0678003c007800000401000000eb0044
:102838002e68e10001003a000080eb008006780075
:102848003a0678003c007800000401000000eb0024
:102858002e68e100010032000080ea00800678005e
:102868003a0678003c007800000401000080eb0084
:102878002e68e10001003c000080ea008006780034
:102888003a0678003c007800000401000080eb0064
:102898002e68e100010035000080ea00800678001b
:1028a8003a0678003c007800000401000000eb00c4
:1028b8002e68e100010036000080ea0080067800fa
:1028c8003a0678003c007800000401000000eb00a4
:1028d8002e68e100010031000080ea0080067800df
:1028e8003a0678003c007800000401000d2f7800bb
:1028f8002d0020003a0678003c0078000004010012
:102908002d00b0003a0678003c0078000004010071
:102918006268b800800678003a0678003c007800c3
:10292800000401000d007800ae0678000d01780063
:10293800ae0678008d007800ae0678000000e00052
:10294800030032000000e900008009003119780016
:102958003a0678003c007800000401000d00780079
:10296800ae0678000d017800ae0678008d0078007c
:10297800ae0678000000e000030032000000e90025
:1029880000800900315978003a0678003c00780048
:10299800000401000d2f78006d0a29003a0678001e
:1029a8003c007800000401000d2f7800fdff2c008a
:1029b8003a0678003c007800000401000d2f7800ea
:1029c8000d0820003a0678003c0078000004010059
:1029d8000d2f78000d0220003a0678003c007800a0
:1029e800000401000d2f7800fd0120003a06780050
:1029f8003c007800000401000d2f78000d02200033
:102a08003a0678003c007800000401000d2f780099
:102a18000d0520003a0678003c007800000401000b
:102a28000d2f78000d0520003a0678003c0078004c
:102a3800000401000d2f7800edff2c003a06780005
:102a48003c007800000401000d2f78000d0d2900ce
:102a58003a0678003c007800000401000d2f780049
:102a6800ddbd80000d2f7800edbd80003a067800ae
:102a78003c00780000040100edbd8800ae06780037
:102a8800ddbd8800ae0678003a0678003c00780084
:102a9800000401008d007800ae067800314178000e
:102aa8000204e00009003200314078000241e900e8
:102ab800e105e100faff3900fa05e100f8ff3e0000
:102ac8000042b100f0f89f00f5ff37003a067800a1
:102ad8003c00780000040100827b2100820178001c
:102ae800607b21000005b0000002780031be800044
:102af8000408e1000f003100114078000004e000f4
:102b08000c0032008100e8000d04e100f8ff3200fb
:102b1800006978000408e1000600310011407800df
:102b28000004e000030032008100e8000d04e10029
:102b3800f7ff3a0031be8800830678000d01510086
:102b4800824e78003a0678003c00780000040100c4
:102b5800e17c2100010078008d0178000d2f7800bc
:102b680033427800110078000000e00018003200bd
:102b7800800078000081e8003240780080437800c7
:102b8800f041b2000404e100f6ff3a0003037800c4
:102b9800844278000504e0000500320036407800e1
:102ba8003204e100efff3a008542e900f9ff3700ff
:102bb8000200a7000201e800020f78008086eb00ff
:102bc8000748b200030032008d06ea000100370012
:102bd8000d0020003a0678003c007800000401004f
:102be800ffff3700106ea900108ea9000034800086
:102bf800f10f2e000100600001802000010070002c
:102c0800003488001034800001fe2f0001006000ad
:102c1800010120000100700010348800b00220007b
:102c2800101388006402a800c015210060088800fd
:102c38002048880080488800801420003048880098
:102c4800a03820007048880050c021000048880043
:102c580050488800f0ff28004228b60000002500f0
:102c68004228b700f08f2f004228b60000502000fd
:102c78004228b700c0b0ef00c2f0ef00c3f0ef0089
:102c880000e8a90020e8a80011e1a800d01420005d
:102c980030868800c870ef00c910a800c930a900a4
:102ca8003a0678003c007800000401000d00780026
:102cb800c3f0b700ae0678003a0678003c0078000a
:102cc800000401000d007800ae0678000000e00066
:102cd80005003200c21a0200000000003a0678001f
:102ce8003c00780000040100d21a02000000000035
:102cf8003a0678003c00780000040100c870ec0037
:102d080000022200a10c2100ff02090080187800af
:102d1800c430ef00c930a900c870ed003a06780049
:102d28003c00780000040100e01a020000000000e6
:102d38003a0678003c00780000040100061b0200f7
:102d4800000000003a0678003c007800000401000a
:102d58000d2f7800c4d0bf00800678008d86fb0058
:102d68003a0678003c007800000401000d2f780036
:102d7800c5d0bf00800678008d86fb003a06780033
:102d88003c00780000040100c870ec00c930af00b6
:102d9800ac1a020000000000c930a900f0032000ae
:102da8000068e10001003e000d007800c4f0b700a3
:102db800c870ed00ae0678003a0678003c0078004e
:102dc80000040100c870ec00c930af00ac1a020062
:102dd80000000000c930a9007868e100010039004e
:102de8007d0120000d007800c5f0b700c870ed0027
:102df800ae0678003a0678003c007800000401002e
:102e0800c870ec00c930af00ac1a02000000000026
:102e1800c930a900c470ed0008003b00c570ed0082
:102e280003003b00061b020000000000c570ef0015
:102e3800000420000000e900c4f0b700c870ed00ed
:102e48003a0678003c00780000040100c870ec00e5
:102e5800c930af00ac1a020000000000c930a90058
:102e6800c470ec0000042000c450e30008003900de
:102e7800c470ef00c570ec0080012000c550e3006d
:102e880003003900e01a020000000000c570ed00e0
:102e9800c870ed003a0678003c0078000004010094
:102ea800c870ec00c930af00ac1a02000000000086
:102eb800c930a900ac1a020000000000c870ed007b
:102ec8003a0678003c00780000040100c870ec0065
:102ed800c930af00ac1a020000000000c930a900d8
:102ee80000c4b300c550bc00c4d0bf000080fb00c4
:102ef80002004000a10c2100810040008d487800ac
:102f0800ae067800c870ed00d0ff3700c870ec003e
:102f1800c930af00ac1a020000000000c930a90097
:102f2800f0032000c4f0b700c870ed00c7ff3700f9
:102f38000d2f78000d022000e4ff3700c870ec0068
:102f4800c930af00ac1a020000000000c930a90067
:102f5800a20c2100800120000068e1000600310079
:102f6800000420000068b8000201400000022200ae
:102f78001f00090000197800c870ed00ae0678003f
:102f88003a0678003c00780000040100005c20004c
:102f9800142eb7000080ea00102eb6007012200030
:102fa8001012880041e2a8003a0678003c00780038
:102fb800000401000d007800ae06780048e2b70072
:102fc8004002ae00feff3700401280000d0078007e
:102fd8000080fd0048e2b7004002ae00feff370067
:102fe800401280000d00780048e2b7004002ae00b1
:102ff800feff370040128000ae0678000000060091
:1030080014cea9005000200048e2b7004002ae00ec
:10301800feff37004012800048e2ef004002ae0099
:10302800feff370014cea8004802af00f4ff3700b7
:1030380000000600154ea9002000200048e2b70055
:103048004002ae00feff3700401280008d0078007d
:10305800ae067800de170200000000000d017800bf
:10306800ae0678000100e000070032003240780028
:1030780048e2b7004002ae00feff37004012800071
:103088008100e900f7ff3700154ea8003a067800de
:103098003c00780000040100154ea9003000200013
:1030a80048e2b7004002ae00feff37004012800041
:1030b8008d007800ae067800de17020000000000e0
:1030c8000d017800ae067800832420000100e0009e
:1030d8000600320048e2ef004002ae00feff370073
:1030e800135978008100e900f8ff3700154ea80051
:1030f8003a0678003c007800000401000418020039
:103108000000000014cea9006000200048e2b700cb
:103118004002ae00feff37004012800014cea80027
:103128000000000014cea9002000200048e2b700eb
:103138004002ae00feff370040128000c86edd007e
:103148000d2f78008006eb008d86d200de17020076
:10315800000000000d017800ae0678000310200082
:103168003240780048e2b7004002ae00feff370068
:10317800401280008301e900f9ff3a0014cea8004c
:103188003a0678003c0078000004010004180200a8
:103198000000000014cea9003000200048e2b7006b
:1031a8004002ae00feff370040128000c86edd000e
:1031b8000d2f78008006eb008d86d200de17020006
:1031c800000000000d017800ae0678000310200012
:1031d80048e2ef004002ae00feff370040128000d8
:1031e800005978008301e900f9ff3a0014cea800dd
:1031f8003a0678003c007800000401000001200035
:1032080004a1b700d022220010088800f0ff28008f
:103218004028b600000023004028b7000068a90035
:103228002068a80005e1a8003a0678003c0078006c
:10323800000401004427ef0040042000303a8800d1
:1032480042e7a800c1e8a9003a0678003c007800e7
:1032580000040100000c21009f5f09000018eb002a
:103268003a0678003c0078000004010042c7a80034
:103278003a0678003c0078000004010000002100b4
:1032880050be88000008210040be8800a000200031
:1032980020be8800a0712100c0bd8800a06c21005c
:1032a800b0bd8800d0bd880000052000e0bd8800c2
:1032b8000090210000be88006b7b210000c2fe0048
:1032c800e0ff2f001000780080be880070be8800e4
:1032d8003a0678003c007800000401000d2f7800c1
:1032e8009dbe80003a0678003c007800000401008a
:1032f800300220008d06e9000068b800008009004f
:1033080000000000ae0678003a0678003c0078001d
:103318000004010090be80000d004000d217e300b9
:10332800feff3a00ae0678003a0678003c007800c6
:1033380000040100d637d500d4b7d70004003900ff
:1033480000022800d6b7b60020002000d4b7b60087
:103358000d2f7800adbe80003a0678003c0078005a
:10336800000401000001eb00f3002000d417ae00b8
:1033780003003700d437ec0001003900d637ec00e1
:10338800d417d40080007800d697d6008000fd00be
:10339800d437b40001007800d6b7b400d637d500ca
:1033a800d4b7d700d417d5008381d3000402e9002d
:1033b800f3ff31000d2f7800830678003a06780075
:1033c8003c0078000004010090be8000320020001c
:1033d8000280d800a0be8800b1be88003a067800f6
:1033e8003c00780000040100116ea900f00f2e00c7
:1033f8008826b600003020008826b70000fe2f007f
:10340800c426b600c0022000c426b700601c2000f5
:103418004011880021e2a80080ff2f004628b6004e
:10342800300020004628b700f0ff28004428b600e6
:10343800000023004428b7000188a9002188a800bb
:103448000168a9002168a8002462ef002342a800af
:103458003a0678003c0078000004010021e2a90047
:1034680000d82100c1422000420020008100d10084
:103478000080d3000201e900110009004d88d8003e
:103488000000e9004011880021e2a800ae0678009b
:103498003a0678003c007800000401008a17e20030
:1034a80005003a002322af00030037002d118800e1
:1034b800ae0678000d003700000120008a17e300ef
:1034c800feff32008dd7bf000080fb00a1772100ee
:1034d800810040008d487800ae0678008a37ec00fd
:1034e8008d77ec00f00020008d77b6003a06780062
:1034f8003c007800000401000d2f78008e17e200d0
:1035080001003a00fdff370090d7bf000080fb00a4
:10351800a176210081004000914678008e37ed00a9
:103528009077ec00f00020009077b6003a0678001b
:083538003c00780000040100d2
:020000040000fa
:10354000c630ed000100320000000600d01420005b
:1035500030868800c930aa00c870ec0000c4b300ef
:10356000c550bc00c4d0bf000080fb00020040007a
:10357000a10c2100810040001174a200c870ed0070
:1035800000000600c910af0000000600d0142000a3
:1035900030868800c870ef0010002000c9f0b70026
:1035a00000000600c870ec00c930af00ac1a020081
:1035b00000000000c970ef00c870ed0000000600b8
:1035c000c870ec00c930af00ac1a02000000000067
:1035d000c930a900a10c2100000420000101400015
:1035e00003602000808151008301d1008301e90044
:1035f00003800900b2187800000222001f000900b1
:1036000080187800c870ed0000000600c870ec005b
:10361000c930af00ac1a020000000000c930a90098
:10362000a10c2100006020008080400000042000e8
:1036300000815000df020900412178000001810073
:103640001f00090000217800c870ed00000006008e
:020000040000fa
:10365000060ea800000ea900040ea90000e022003a
:1036600000358800c228a800700020004a28b70052
:10367000f002200030368800601c2000c011880055
:1036800031e2a800f08f2f004e28b6000050200035
:103690004e28b70003c8a90023c8a8000288a900c3
:1036a0002288a8003a0678003c0078000004010057
:1036b000040ea90090be800062004000d217e30013
:1036c000feff3a00040ea8003a0678003c0078009d
:1036d00000040100ea1b0200000000000d2f78002a
:1036e000800678000000e000020032000d2f780014
:1036f0008086eb003a0678003c0078000004010068
:10370000ea1b0200000000000000e000fcff3200a5
:103710000d2f7800800678003a0678003c0078008b
:1037200000040100f0fd2f00102eb600f00f2e0057
:103730008226b600002021008226b7001629ef005d
:1037400050402000a0488800000120009008880018
:103750003a0678003c007800000401007d088800eb
:10376000cd4888008d06d100dd488800ae0678007f
:1037700013e1a800cdbe8800ae0678003a067800b6
:083780003c0078000004010088
:020000040000fa
:10378800809fbe00829fbe00a30c21000302b000f0
:1037980002012000110009000280d8000100fd008c
:1037a8000043b000f904e100010036007040b000a9
:1037b800805178000100e0000100fd00f4ff3a00ac
:1037c8004f01be004f00be00000006000000eb00e5
:1037d80091bd8000a2bd80000208e1000700320010
:1037e8002279210002814000b237ec00f00120006c
:1037f800b237b600124078000080fb0000000600d7
:10380800d88b0000f88b00006e8800000e8a00003c
:08381800168400008a8b0000f9
:020000040000fa
:04fffc00cc8b0000aa
:020000040000fa
:02000004000af0
:04afe000dfff00008f
:020000040000fa
:02000004000af0
:04afe400ffff00006b
:020000040000fa
:02000004000af0
:04afe8005fff000007
:020000040000fa
:02000004000af0
:04afec009aff0000c8
:020000040000fa
:02000004000af0
:04aff000fbff000063
:020000040000fa
:02000004000af0
:04aff400ffff00005b
:00000001FF
