:020000040000fa
:080000000002040000000000f2
:020000040000fa
:04000800c003000031
:020000040000fa
:04000c00c00300002d
:020000040000fa
:04001000c003000029
:020000040000fa
:04001400ba0300002b
:020000040000fa
:04001800b40300002d
:020000040000fa
:04001c00c00300001d
:020000040000fa
:04002000c003000019
:020000040000fa
:04002400c003000015
:020000040000fa
:04002800c003000011
:020000040000fa
:04002c00c00300000d
:020000040000fa
:04003000c003000009
:020000040000fa
:04003400c203000003
:020000040000fa
:04003800c003000001
:020000040000fa
:04003c00c0030000fd
:020000040000fa
:04004000aa02000010
:020000040000fa
:040044002e02000088
:020000040000fa
:04004800c0030000f1
:020000040000fa
:04004c00c0030000ed
:020000040000fa
:04005000c0030000e9
:020000040000fa
:040054001003000095
:020000040000fa
:040058005e03000043
:020000040000fa
:04005c00c0030000dd
:020000040000fa
:04006000c0030000d9
:020000040000fa
:04006400c0030000d5
:020000040000fa
:04006800c0030000d1
:020000040000fa
:04006c00c0030000cd
:020000040000fa
:04007000c0030000c9
:020000040000fa
:04007400aa030000db
:020000040000fa
:04007800dc030000a5
:020000040000fa
:04007c00c0030000bd
:020000040000fa
:04008000c0030000b9
:020000040000fa
:04008400c0030000b5
:020000040000fa
:04008800c0030000b1
:020000040000fa
:04008c00c0030000ad
:020000040000fa
:04009000a4020000c6
:020000040000fa
:04009400c0030000a5
:020000040000fa
:04009800c0030000a1
:020000040000fa
:04009c00c00300009d
:020000040000fa
:0400a00084030000d5
:020000040000fa
:0400a400c003000095
:020000040000fa
:0400a800c003000091
:020000040000fa
:0400ac00c00300008d
:020000040000fa
:0400b000c003000089
:020000040000fa
:0400b400c003000085
:020000040000fa
:0400b800c003000081
:020000040000fa
:0400bc00c00300007d
:020000040000fa
:0400c000c003000079
:020000040000fa
:0400c400c003000075
:020000040000fa
:0400c800c003000071
:020000040000fa
:0400cc00c00300006d
:020000040000fa
:0400d000c003000069
:020000040000fa
:0400d400c003000065
:020000040000fa
:0400d800c003000061
:020000040000fa
:0400dc00c00300005d
:020000040000fa
:0400e000c003000059
:020000040000fa
:0400e400c003000055
:020000040000fa
:0400e800c003000051
:020000040000fa
:0400ec00c00300004d
:020000040000fa
:0400f000c003000049
:020000040000fa
:0400f400c003000045
:020000040000fa
:0400f800c003000041
:020000040000fa
:0400fc00c00300003d
:020000040000fa
:04010000c003000038
:020000040000fa
:04010400c003000034
:020000040000fa
:04010800c003000030
:020000040000fa
:04010c00c00300002c
:020000040000fa
:04011000c003000028
:020000040000fa
:04011400c003000024
:020000040000fa
:04011800c003000020
:020000040000fa
:04011c00c00300001c
:020000040000fa
:04012000c003000018
:020000040000fa
:04012400c003000014
:020000040000fa
:04012800c003000010
:020000040000fa
:04012c00c00300000c
:020000040000fa
:04013000c003000008
:020000040000fa
:04013400c003000004
:020000040000fa
:04013800c003000000
:020000040000fa
:04013c00c0030000fc
:020000040000fa
:04014000c0030000f8
:020000040000fa
:04014400c0030000f4
:020000040000fa
:04014800c0030000f0
:020000040000fa
:04014c00c0030000ec
:020000040000fa
:04015000c0030000e8
:020000040000fa
:04015400c0030000e4
:020000040000fa
:04015800c0030000e0
:020000040000fa
:04015c00c0030000dc
:020000040000fa
:04016000c0030000d8
:020000040000fa
:04016400c0030000d4
:020000040000fa
:04016800c0030000d0
:020000040000fa
:04016c00c0030000cc
:020000040000fa
:04017000c0030000c8
:020000040000fa
:04017400c0030000c4
:020000040000fa
:04017800c0030000c0
:020000040000fa
:04017c00c0030000bc
:020000040000fa
:04018000c0030000b8
:020000040000fa
:04018400c0030000b4
:020000040000fa
:04018800c0030000b0
:020000040000fa
:04018c00c0030000ac
:020000040000fa
:04019000c0030000a8
:020000040000fa
:04019400c0030000a4
:020000040000fa
:04019800c0030000a0
:020000040000fa
:04019c00c00300009c
:020000040000fa
:0401a000c003000098
:020000040000fa
:0401a400c003000094
:020000040000fa
:0401a800c003000090
:020000040000fa
:0401ac00c00300008c
:020000040000fa
:0401b000c003000088
:020000040000fa
:0401b400c003000084
:020000040000fa
:0401b800c003000080
:020000040000fa
:0401bc00c00300007c
:020000040000fa
:0401c000c003000078
:020000040000fa
:0401c400c003000074
:020000040000fa
:0401c800c003000070
:020000040000fa
:0401cc00c00300006c
:020000040000fa
:0401d000c003000068
:020000040000fa
:0401d400c003000064
:020000040000fa
:0401d800c003000060
:020000040000fa
:0401dc00c00300005c
:020000040000fa
:0401e000c003000058
:020000040000fa
:0401e400c003000054
:020000040000fa
:0401e800c003000050
:020000040000fa
:0401ec00c00300004c
:020000040000fa
:0401f000c003000048
:020000040000fa
:0401f400c003000044
:020000040000fa
:0401f800c003000040
:020000040000fa
:0401fc00c00300003c
:020000040000fa
:04020000c003000037
:020000040000fa
:04020400c003000033
:020000040000fa
:04020800c00300002f
:020000040000fa
:04020c00c00300002b
:020000040000fa
:04021000c003000027
:020000040000fa
:04021400c003000023
:020000040000fa
:04021800c00300001f
:020000040000fa
:04021c00c00300001b
:020000040000fa
:04022000c003000017
:020000040000fa
:04022400c003000013
:020000040000fa
:04022800c00300000f
:020000040000fa
:04022c00c00300000b
:020000040000fa
:04023000c003000007
:020000040000fa
:04023400c003000003
:020000040000fa
:04023800c0030000ff
:020000040000fa
:04023c00c0030000fb
:020000040000fa
:04024000c0030000f7
:020000040000fa
:04024400c0030000f3
:020000040000fa
:04024800c0030000ef
:020000040000fa
:04024c00c0030000eb
:020000040000fa
:04025000c0030000e7
:020000040000fa
:04025400c0030000e3
:020000040000fa
:04025800c0030000df
:020000040000fa
:04025c00c0030000db
:020000040000fa
:04026000c0030000d7
:020000040000fa
:04026400c0030000d3
:020000040000fa
:04026800c0030000cf
:020000040000fa
:04026c00c0030000cb
:020000040000fa
:04027000c0030000c7
:020000040000fa
:04027400c0030000c3
:020000040000fa
:04027800c0030000bf
:020000040000fa
:04027c00c0030000bb
:020000040000fa
:04028000c0030000b7
:020000040000fa
:100400000e2eef000c2ea800600020004a28b70036
:100410000f0021000e0821006b2921000e0078003a
:100420008001b1000001880001c4fe0040c7af0098
:100430000500370000c2fe006aba2c003a067800b8
:100440003c0078000004010000c2fe000ab22c004b
:0c0450003a0678003c007800000401002f
:020000040000fa
:10045c0000e8a900008ea80061e2a900801f7800c6
:10046c00b632ec001a00320060002000b612e30035
:10047c001d003200c0002000b612e3001d00320047
:10048c0020012000b612e3001d00320020032000e2
:10049c00b612e30022003200200f2000b612e30057
:1004ac0024003200f0102000b852e20001003200ab
:1004bc000000e800b612e30003003a00b8f2ee00c8
:1004cc00b6b2ef002348a9004f00780000400600a8
:1004dc00400a200030488800e08a2000204888002c
:1004ec0060088800f8ff3700a080200030488800a2
:1004fc00f5ff3700400a200030488800f2ff370033
:10050c008014200030488800c01521002048880045
:10051c00600888000348a9002348a800eaff3700b8
:10052c00b952e200e8ff320000c8a90020c8a800b8
:10053c00e5ff370020c8a900e3ff37000348a900f6
:10054c00008ea9000040060000c8a900809fbe00d4
:10055c00829fbe00849fbe00861f78003200f80088
:10056c00b19580002103b100e7826000c308de0072
:10057c00020420000110b80004a02c00040240006a
:10058c0003122b00904880006300600000060100fd
:10059c0000000000000000000000000061e2a80064
:1005ac000200e0001200320001c0fe00344078006e
:1005bc000003eb000070a7000083eb00f007b20013
:1005cc004300dd00808041008580400000c2fe00b9
:1005dc00114078000670a7000080ea006022ab0092
:1005ec00feff3a0068e2b7000201e900ecff3700b9
:1005fc006022ab00feff3a006822ef003200f900e7
:10060c004f0378004f02be004f01be004f00be00ea
:10061c00004006000168a9000d2f78002202ae00f0
:10062c00210037003d118000736ce10002003a009c
:10063c003a12a8001c003700716ce10002003a006d
:10064c003a12a90018003700636ce10003003a006d
:10065c0010002000609388000000fe00809fbe0008
:10066c0039d2bf000080fb00211f21008100400017
:10067c008d4878003a92a8003632ec003972ec00c2
:10068c00f00120003972b6008100200001005000fa
:10069c003652e300030039003001200024e2b70099
:1006ac003a32a8004f00be00ae06780000400600ab
:1006bc003a12af00004006000188a900809fbe00de
:1006cc003212e2000b00320034d2bf000080fb007b
:1006dc0021212100810040001140780024e2b70064
:1006ec008048eb003232ed003472ec00f001200057
:1006fc003472b6004f00be000040060003c8a900cb
:10070c00809fbe00821f7800b01180006304e1005e
:10071c0003003a0010002000609388000000fe00e7
:10072c0021272100a294800081004100804878009c
:10073c001200b000f201b200a29488004f017800c0
:10074c004f00be00004006000268a9003e32ef00d8
:10075c0013aeae003e12a8000040060020002000a0
:10076c00609388000000fe00400020006093880029
:10077c000000fe000000fe000068a9006632ec00dc
:10078c00c812e20003003200c832ed0001003a004a
:10079c0013e1a900c052e20003003a00c112af00fd
:1007ac004849020000000000004006000000fe0066
:020000040000fa
:1007bc00000000008445000058490000540000006f
:1007cc00b0350000e0830000834e00004f50000065
:1007dc0086350000e6830000ea83000084430000b5
:1007ec00414c00004c000000b8350000c83500003a
:1007fc00d2350000de350000e6350000f43500008f
:10080c000236000014360000263600004036000088
:10081c00f4830000814900005e3600001084000063
:10082c00814c00006836000016840000814a0000ec
:10083c00723600001c840000865500004e4c0000ef
:10084c004f4f0000500000007c3600002284000056
:10085c008349000050400000863600002e840000c2
:10086c0086520000454200004f4f0000540000002b
:10087c009036000036840000874500005845000083
:10088c00435500005445000092360000428400009d
:10089c008540000045580000454300009a36000092
:1008ac004e8400008556000045580000454300006a
:1008bc009e3600005884000081400000a8360000dd
:1008cc00628400008243000040000000b03600004b
:1008dc00688400008245000040000000ba36000029
:1008ec00708400008345000043400000c8360000bf
:1008fc00788400008232000040000000d8360000ee
:10090c008084000084540000424c00004000000031
:10091c00e63600008884000084540000424c00003d
:10092c0021000000f63600009284000081210000b6
:10093c000a3700009c840000824300002100000064
:10094c0014370000a2840000823200002100000055
:10095c0020370000aa84000083440000555000009a
:10096c002c370000b2840000843200004455000093
:10097c005000000034370000ba840000843f0000af
:10098c00445500005000000040370000c4840000b3
:10099c0084440000524f0000500000004c3700000f
:1009ac00ce84000085320000445200004f500000fd
:1009bc0054370000d88400008552000044520000d7
:1009cc004f5000005e370000e284000084530000aa
:1009dc00574100005000000066370000ec84000016
:1009ec008532000053570000415000007237000060
:1009fc00f6840000835200004f540000863700003c
:100a0c0000850000842d0000524f000054000000af
:100a1c009837000008850000844f00005645000000
:100a2c0052000000a837000012850000853200003b
:100a3c004f56000045520000b23700001c850000e4
:100a4c00834e000049500000c0370000268500008e
:100a5c00823e000052000000c83700002e850000c6
:100a6c00825200003e000000d237000036850000a4
:100a7c008252000040000000dc3700003e85000080
:100a8c008353000050400000e6370000468500000c
:100a9c008353000050210000f23700004e85000007
:100aac008352000050400000fa37000056850000c9
:100abc008352000050210000043800005e850000c5
:100acc0084540000554300004b0000000e38000019
:100adc006685000085440000455000005448000025
:100aec001a38000070850000845000004943000053
:100afc004b000000283800007a850000853e00007d
:100b0c0043530000544b000036380000848500002d
:100b1c0085430000535400004b3e00004438000055
:100b2c008e850000834d00005342000052380000b7
:100b3c0098850000874d0000415800002d490000a9
:100b4c004e5400005c380000a0850000874d00006a
:100b5c00494e00002d4900004e540000663800003c
:100b6c00ac85000083480000455800008635000025
:100b7c00fc830000100000006a8900009e840000c5
:100b8c00e6830000b8850000874400004543000060
:100b9c00494d0000414c000086350000fc830000ec
:100bac000a0000006a8900009e840000e6830000b1
:100bbc00ca850000812b000070380000e085000021
:100bcc00812d000078380000e6850000823100009d
:100bdc002b00000082380000ec85000082320000ff
:100bec002b0000008a380000f485000082310000e0
:100bfc002d00000092380000fc85000082320000bd
:100c0c002d0000009a38000004860000823200009b
:100c1c002a000000a23800000c860000823200007e
:100c2c002f000000aa38000014860000864c00003b
:100c3c00534800004946000054000000b238000040
:100c4c001c860000865200005348000049460000f4
:100c5c0054000000ce38000028860000822b0000d3
:100c6c0021000000ea38000034860000824d0000ac
:100c7c002b000000f83800003c860000812a0000a0
:100c8c000839000044860000824d00002a00000054
:100c9c00123900004a860000835500004d2a0000de
:100cac001e3900005286000083550000442a0000c3
:100cbc002a3900005a860000812f00003e390000be
:100ccc0062860000834d00004f4400004c39000048
:100cdc0068860000822a00002f0000005a390000ac
:100cec0070860000852a00002f4d00004f44000044
:100cfc006c39000078860000842f00004d4f0000f6
:100d0c0044000000803900008286000086550000f7
:100d1c004d2f00004d4f00004400000090390000a2
:100d2c008c86000086550000442f00004d4f0000bb
:100d3c0044000000a239000098860000834d00009a
:100d4c0041580000be390000a4860000834d00000d
:100d5c00494e0000cc390000ac86000084550000e0
:100d6c004d41000058000000da390000b486000044
:100d7c00845500004d4900004e000000e839000089
:100d8c00be86000086570000495400004849000008
:100d9c004e000000f6390000c886000084450000b3
:100dac00564500004e0000000e3a0000d4860000ac
:100dbc00834f0000444400001c3a0000de86000013
:100dcc0083410000425300002a3a0000e6860000ee
:100ddc00844400004142000053000000343a0000fb
:100dec00ee860000835300003e4400004a3a0000a7
:100dfc00f8860000873f00004e4500004741000088
:100e0c00544500005a3a0000008700008653000049
:100e1c004d2f0000524500004d00000086350000ab
:100e2c00c0840000c08700003285000018850000d7
:100e3c0032850000ea86000032850000f48600004e
:100e4c003a85000094860000f28400003a85000088
:100e5c0008870000f28400003a8500000887000033
:100e6c00e68300000c870000864600004d2f000032
:100e7c004d4f00004400000086350000b684000091
:100e8c0032850000c0840000c0870000328500005d
:100e9c0032850000f486000042850000ea860000de
:100eac0094860000f28400003a8500000887000058
:100ebc00f28400003a8500001088000004840000d1
:100ecc0014000000ec87000018850000048400006a
:100edc000c0000004285000004850000e88500003d
:100eec00f284000000860000e8840000e683000025
:100efc003a8700008545000056410000522b000047
:100f0c0086350000b684000074840000f085000073
:100f1c00f28400009e840000e683000080870000bd
:100f2c008545000056410000522d0000863500001a
:100f3c00b68400007484000000860000f284000077
:100f4c009e840000e6830000968700008341000029
:100f5c004e440000683a0000ac870000824f00004d
:100f6c0052000000703a0000b48700008358000063
:100f7c004f520000783a0000bc870000834e0000fe
:100f8c004f540000803a0000c487000086490000de
:100f9c004e5600004552000054000000903a0000ec
:100fac00cc87000087440000494e000056450000e5
:100fbc0052540000983a0000d8870000864e00007a
:100fcc00454700004154000045000000a23a0000d3
:100fdc00e4870000874400004e45000047410000b4
:100fec0054450000aa3a0000f0870000823000004f
:100ffc003d000000ba3a0000fc870000833000007e
:10100c003c3e0000c43a000004880000823000001e
:10101c003c000000d43a00000c8800008230000034
:10102c003e000000e03a000014880000813d000002
:10103c00f03a00001c880000823c00003e000000da
:10104c00003b000022880000813c0000103b0000a7
:10105c002a880000813e0000203b00003088000000
:10106c00825500003c000000303b00003688000038
:10107c00825500003e000000403b00003e8800000e
:10108c0084430000454c00004c000000503b000025
:10109c004688000085430000454c00004c2b0000a6
:1010ac005a3b00005088000085430000454c00006e
:1010bc004c530000623b00005a8800008541000040
:1010cc004c490000474e000086350000a288000005
:1010dc00e28600000484000010000000fc83000085
:1010ec0000000000a2880000a6840000fc83000021
:1010fc0001000000f4910000e68300006488000009
:10110c00874100004c490000474e00004544000058
:10111c006c3b000086880000853e000043480000c0
:10112c0041520000763b0000928800008448000089
:10113c004552000045000000863500005e89000025
:10114c0064840000e68300009c880000844d00004d
:10115c004f56000045000000843b0000ac880000a6
:10116c00854300004d4f0000564500008c3b0000ad
:10117c00b6880000864300004d4f00005645000025
:10118c003e000000ac3b0000c0880000854300001e
:10119c00484100005253000086350000e6830000f1
:1011ac00cc8800008543000048410000522b000011
:1011bc0086350000f0850000e6830000d88800002a
:1011cc0084430000484100005200000086350000b6
:1011dc005e8a0000b08d0000b68400006c840000b4
:1011ec0000880000be8f0000106d000069730000c5
:1011fc00736900006e6700002063000061720000dc
:10120c00616300007465000072000000f08500004e
:10121c006c840000e6830000e6880000c65b0000da
:10122c0043480000415200005d000000863500007c
:10123c00ce950000ec88000000930000fc830000b9
:10124c0000920000e6830000148900008453000023
:10125c00434100004e000000d03b00002c890000f0
:10126c0084460000494c00004c000000f23b00009a
:10127c0036890000892d00005452000041490000bd
:10128c004c4900004e470000103c00004089000013
:10129c008553000054410000544500009035000077
:1012ac00140000004e890000824400005000000031
:1012bc0090350000100000005a89000084420000a4
:1012cc004153000045000000903500001200000062
:1012dc006489000089530000595300004c41000000
:1012ec0054450000535400009035000002000000eb
:1012fc0070890000864c00004154000045530000ea
:10130c0054000000903500000400000080890000ab
:10131c00835000004144000090350000080000009c
:10132c008e89000083540000494200009035000073
:10133c000600000098890000855000004153000011
:10134c0054450000903500000a000000a2890000fe
:10135c00833e0000494e000090350000160000004e
:10136c00ae8900008248000050000000903500005b
:10137c0018000000b889000086270000534f0000b9
:10138c005552000043450000903500000c00000051
:10139c00c289000087230000534f00005552000003
:1013ac0043450000903500000e000000d08900007d
:1013bc00875200005042000052450000414b000093
:1013cc00903500001c000000de8900008544000000
:1013dc0042470000454e0000903500001e00000002
:1013ec00ec8900008753000059530000434f000064
:1013fc004e530000903500001a000000f8890000e0
:10140c008756000045520000534900004f4e000023
:10141c00263c0000068a00008252000030000000ca
:10142c00303c0000128a00008253000030000000a3
:10143c003a3c00001a8a000086520000414d000020
:10144c00454e000044000000443c0000228a00008d
:10145c00854900004d4d0000454400004e3c000005
:10146c002e8a0000864800004944000044450000d4
:10147c004e000000583c0000388a0000854e0000e9
:10148c004d410000524b0000623c0000448a0000b9
:10149c00874c0000454e00004d410000534b0000ae
:1014ac006c3c00004e8a0000824200004c000000a0
:1014bc00763c00005a8a0000875400004942000024
:1014cc00534900005a450000803c0000628a00002d
:1014dc008750000041440000534900005a45000069
:1014ec008a3c00006e8a0000865500004c490000c2
:1014fc004d49000054000000943c00007a8a000022
:10150c00854400004f4300004f4c00009e3c0000ff
:10151c00868a0000845400005255000045000000eb
:10152c00a83c0000908a000085460000414c000059
:10153c0053450000b23c00009a8a0000834400002e
:10154c0050300000bc3c0000a48a0000872700003b
:10155c00534f00005552000043450000c63c0000ac
:10156c00ac8a0000875300004f5500005243000026
:10157c0045210000d43c0000b88a0000863f0000e2
:10158c004449000047490000540000008635000023
:10159c00b6840000fc83000060000000428800005c
:1015ac000484000008000000fc8300002000000000
:1015bc00e8850000b6840000fc83000039000000c0
:1015cc0042880000048400001a000000b684000069
:1015dc00fc830000410000003a88000004840000f5
:1015ec0008000000fc83000000000000e6830000ff
:1015fc00fc83000007000000e8850000fc8300006d
:10160c0030000000e8850000b68400006a89000004
:10161c00648400003a880000e6830000c48a00005d
:10162c00873f0000444f0000554200004c4500002d
:10163c0086350000188500006c840000fc830000d7
:10164c002e0000001e880000048400001000000022
:10165c00fc830000010000006a8d0000fc83000088
:10166c00ffff000000840000180000001885000037
:10167c006c840000fc8300002c0000001e8800001d
:10168c00048400000600000000840000e2ff00005b
:10169c00fc83000000000000e6830000168b0000b5
:1016ac00873e00004e5500004d42000045520000a0
:1016bc0086350000fc83000000000000328500002d
:1016cc00b6840000048400004e0000001885000061
:1016dc006c840000cc8a0000028400002200000010
:1016ec003a8500000484000040000000d48400000f
:1016fc001e8b0000048400003a0000003a850000b4
:10170c003a850000fc83000002000000b88700004e
:10171c00328500003285000000840000ccff000000
:10172c00e8840000fc830000ffff0000328500000d
:10173c0032850000fc8400006a890000648400008b
:10174c005e8600003a85000040860000fc840000a4
:10175c00fc830000010000006a8d00000084000082
:10176c00b0ff00003a850000d4840000e68300003e
:10177c00568b0000853f000053490000474e000087
:10178c0086350000188500006c840000fe83000084
:10179c002d0000001e880000028400000a000000da
:1017ac00fc83000000000000008400000c0000001e
:1017bc00fc830000010000006a8d0000fc83000027
:1017cc0001000000e6830000c08b0000853f000094
:1017dc00424100005345000086350000188500008a
:1017ec006c840000fe830000240000001e880000b2
:1017fc00048400000e000000fc83000010000000b8
:10180c006a8900009e840000008400003200000001
:10181c00188500006c840000fe830000230000008b
:10182c001e880000048400000e000000fc830000f1
:10183c000a0000006a8900009e84000000840000f9
:10184c0018000000188500006c840000fe83000066
:10185c00250000001e880000048400001200000017
:10186c00fc830000020000006a8900009e840000d6
:10187c00f2840000f0850000f28400000086000075
:10188c00e6830000ec8b0000873f00004e55000003
:10189c004d42000045520000863500006a89000068
:1018ac006484000032850000b6840000fc830000d4
:1018bc0000000000b6840000048500008c8e00003f
:1018cc00f28b0000c68b0000328500005e8b00009e
:1018dc0004840000100000003a850000de84000043
:1018ec00de840000fc830000000000000084000087
:1018fc0024000000d484000004850000d48400007f
:10190c0042850000e2860000048400000400000010
:10191c00f88700003a850000fc83000002000000fc
:10192c00b08700000284000004000000d484000092
:10193c00fc830000ffff00003a8500006a8900006c
:10194c009e840000e68300004a8c0000855700004e
:10195c004f5200004453000086350000fc83000009
:10196c0000000000dca500008889000064840000f1
:10197c00b684000000880000028400005e000000b5
:10198c00b68400006c840000408a0000b087000020
:10199c000484000008000000088600000084000099
:1019ac00e6ff0000b6840000b68400006c840000e2
:1019bc00568a0000b0870000b6840000008a000040
:1019cc0064840000fc83000004a400001e88000056
:1019dc00048400000c00000072a30000f2840000dc
:1019ec00d48400000084000004000000369a00003b
:1019fc00e2850000fc830000400000003a880000f3
:101a0c000284000004000000dca500003285000008
:101a1c00f08500003a85000068a5000018a50000bc
:101a2c0008860000f2840000f0850000f2840000bb
:101a3c00008400009cff0000d4840000dca50000a2
:101a4c00d09e0000e6830000ac8c000085550000a1
:101a5c005050000045520000e23c00002c8d00006c
:101a6c00845300004b49000050000000043d00006e
:101a7c00368d000087410000445200003e490000b2
:101a8c004e00000086350000b48a0000048500007a
:101a9c0004850000e8850000b0860000fc8300008f
:101aac0000000000a8860000b28900009e8400009f
:101abc00e6830000408d0000872f00005354000087
:101acc00524900004e470000863500000485000096
:101adc0018850000e28500000485000004850000e4
:101aec00e8850000e6830000628d00008550000050
:101afc00415200005345000086350000b48a0000b6
:101b0c00b2890000648400006a8d00001885000012
:101b1c003285000004850000328900001885000021
:101b2c00f28400000484000004000000f085000032
:101b3c00488d00003a8500006c850000e8850000a7
:101b4c00e68300007c8d0000845700004f5200009b
:101b5c004400000086350000b6840000b48a000002
:101b6c00b2890000648400006a8d000004850000c6
:101b7c003c8d0000d4840000488d0000828d000054
:101b8c00a2880000d08e0000a2880000e68300002e
:101b9c00aa8d000084460000494e0000440000005d
:101bac00203d0000d08d0000864100004343000022
:101bbc0045500000540000008635000018850000d8
:101bcc00e285000032850000b68400004ea40000bf
:101bdc00b6840000fc8300000d0000001e8800008d
:101bec000484000014000000d48400005e8a00000d
:101bfc0018850000a6840000f2840000e88500002f
:101c0c00f0850000e8840000e6830000b684000044
:101c1c00fc830000080000001e8800000484000003
:101c2c0014000000d4840000c08400001e88000052
:101c3c0002840000ccff0000b4a500000086000068
:101c4c0000840000c4ff0000b6840000fc83000088
:101c5c00180000001e880000048400000e00000024
:101c6c00d4840000c8a50000d4840000b684000011
:101c7c0000840000acff0000b6840000fc83000070
:101c8c00160000001e880000048400001a000000ea
:101c9c00d4840000c8a50000a8890000648400005a
:101cac008c8e000068a50000d4840000b68400006f
:101cbc0016900000e28500000084000088ff000000
:101ccc0018850000428500001e8800000284000078
:101cdc0010000000b6840000a6a4000018850000c7
:101cec00a6840000f08500000084000070ff000056
:101cfc00d4840000008400006aff0000da8d00002c
:101d0c00854300004f5500004e54000086350000fe
:101d1c00b68400006c84000032850000f085000061
:101d2c003a850000e6830000868e000085450000a1
:101d3c00525200004f5200008635000018a50000da
:101d4c008c8e000068a5000018a50000fe83000022
:101d5c003f000000a6a40000fc830000000000006f
:101d6c00548900009e8400001e8a000064840000d8
:101d7c0052850000dca500005c9000009c8e0000e9
:101d8c00883e0000434f0000554e000054450000b3
:101d9c004400000086350000c0840000a6840000ca
:101dac00f0850000f2840000b2880000e683000099
:101dbc00c68e0000894900004e54000045520000b8
:101dcc00505200004554000086350000c08a0000c7
:101ddc00fc83000000000000b28900009e8400001b
:101dec005e8a0000b08d0000b68400006c84000098
:101dfc000484000040000000328d0000d68d0000ed
:101e0c00ca840000048400001c000000f08500005f
:101e1c00548900006484000000880000b88700002a
:101e2c0004840000080000004a84000000840000c4
:101e3c00d8ff00000092000000840000d2ff0000d8
:101e4c00528c00000484000008000000669300001f
:101e5c0000840000c6ff00008c8e000068a5000006
:101e6c00fc8300003f000000a6a40000dca50000dd
:101e7c009c8f0000d4840000e6830000e08e0000fc
:101e8c0088450000564100004c55000041540000ac
:101e9c004500000086350000b48a00003285000041
:101eac0032850000b2890000648400003285000095
:101ebc00ea8e00003a850000b28900009e84000082
:101ecc003a8500003a850000c08a0000e6830000d5
:101edc0086350000369a0000fc83000003000000e9
:101eec00e2850000fc830000400000002c8800000c
:101efc000284000004000000dca5000018a500000e
:101f0c00fc8300004f000000a6a40000fc8300002e
:101f1c004b000000a6a40000e6830000468f0000e2
:101f2c0085410000424f00005254000086350000ed
:101f3c005489000064840000048400001400000034
:101f4c00888900006484000094900000b68400002e
:101f5c0064840000888900009e8400005e89000073
:101f6c009e8400001e8a0000528500005c900000d8
:101f7c008635000078930000f28400000484000091
:101f8c000a0000008c8e000068a50000dca5000093
:101f9c009c8f0000d4840000e6830000968f000024
:101fac00c6410000424f00005254000022000000c5
:101fbc008635000000930000be8f0000b293000035
:101fcc00e6830000d68f0000844300004c490000db
:101fdc005000000086350000b6840000a88900007f
:101fec00648400009e8400009c89000064840000ce
:101ffc00f2840000a889000064840000f0850000d1
:10200c00f2840000b2880000e6830000ea8f000032
:10201c008747000045540000434c00004950000025
:10202c0086350000a8890000648400008c8e0000b6
:10203c00f2840000188500009c8900006484000074
:10204c00f2840000b2880000e683000086350000b0
:10205c009c89000064840000b6840000fc830000ae
:10206c003f000000e28d0000b684000000860000f6
:10207c00f08f000018a50000ea8e000054890000c3
:10208c006484000002840000040000006e8f0000d5
:10209c00dca5000000840000dcff00000e900000b6
:1020ac0084510000554900005400000086350000a2
:1020bc00168a000062850000fc830000000000000e
:1020cc00548900009e8400002c9000005690000063
:1020dc00c128000086350000fc83000029000000a8
:1020ec00828d0000de840000e68300006e9000000c
:1020fc00c15c000086350000b48a0000e285000057
:10210c00488d0000e68300007e900000874e0000a2
:10211c00464100003e4c0000464100008635000060
:10212c00fc83000002000000e8850000e68300004c
:10213c008c900000874e0000464100003e4300009a
:10214c004641000086350000b68400006c84000017
:10215c00fc8300001f000000b0870000e285000037
:10216c00f08500008e880000e6830000a09000003f
:10217c00853e0000424f00004459000086350000a7
:10218c00b684000064840000fc830000663d0000ff
:10219c001e88000004840000040000005688000023
:1021ac0056880000e6830000be90000087430000c4
:1021bc00464100003e4e00004641000086350000be
:1021cc00b6840000fc830000001300003a88000075
:1021dc00048400000a000000b6840000c0870000e0
:1021ec000084000056000000b68400003285000018
:1021fc00fc830000210000003285000000860000f6
:10220c00b68400006c840000b6840000fc830000df
:10221c0080000000b0870000028400001400000061
:10222c00d48400003a85000000860000b6840000cb
:10223c0004840000280000003285000000840000a7
:10224c00deff0000e8840000fc8300001f0000009b
:10225c00b087000018850000e2850000f0850000c2
:10226c008e8800003a8500001e880000b6840000ad
:10227c00048400000a000000d484000000840000e4
:10228c0008000000e8840000f2840000d484000000
:10229c00e6830000dc900000863f0000454d000006
:1022ac00505400005900000086350000a88a000038
:1022bc00a28800001e880000e683000052910000f6
:1022cc00894900004d4d0000454400004941000083
:1022dc0054450000863500005a910000028400002d
:1022ec00120000008889000064840000b68400009d
:1022fc006c840000348a0000b8870000f28400006f
:10230c00a6840000e683000066910000844800006b
:10231c004944000045000000863500005a91000039
:10232c000284000012000000888900006484000010
:10233c00b68400006c840000408a0000b88700005e
:10234c00f2840000a6840000e683000086350000bd
:10235c005a910000028400001200000088890000dd
:10236c0064840000b68400006c8400004a8a00007b
:10237c00b8870000f2840000a6840000e683000009
:10238c008c9100008652000045560000454100002b
:10239c004c000000863500005a91000002840000b9
:1023ac00140000008889000064840000b6840000da
:1023bc006c840000408a0000d4870000b0870000c5
:1023cc00f2840000a6840000e6830000c89100009f
:1023dc00854100004c4c00004f5400008635000035
:1023ec005e89000038860000e6830000ee91000054
:1023fc00812c000086350000a28800009e8400001d
:10240c00fc83000002000000f4910000e683000051
:10241c00fe910000824300002c0000008635000075
:10242c00a2880000a6840000fc83000001000000cc
:10243c00f4910000e6830000109200008127000058
:10244c00863500005e8a0000b08d0000b684000066
:10245c006c84000000880000f4950000328d0000b0
:10246c00d68d0000048400000600000000840000eb
:10247c00120000008c8e000068a5000018a500005a
:10248c00fc8300003f000000a6a40000dca50000b7
:10249c009c8f0000e683000024920000c35b0000c8
:1024ac00275d000086350000ce95000026920000c6
:1024bc0000930000fc83000000920000e683000003
:1024cc0054920000c53c00004d410000524b0000ee
:1024dc0086350000ce950000a2880000e68300003f
:1024ec0068920000c83c000052450000534f0000a9
:1024fc004c5600004500000086350000ce950000cb
:10250c00a2880000e885000000920000e68300002d
:10251c0078920000c53e00004d410000524b000077
:10252c0086350000ce950000a2880000fc830000d8
:10253c000000000000920000e68300009092000072
:10254c00c83e000052450000534f00004c5600009e
:10255c004500000086350000ce950000b6840000d2
:10256c00a2880000f2840000e8850000f2840000dc
:10257c009e840000e6830000a6920000c15b000070
:10258c0086350000fc830000000000005489000028
:10259c009e840000e6830000c4920000c15d000030
:1025ac0086350000fc830000ffff0000548900000a
:1025bc009e840000e6830000d4920000c95b0000fa
:1025cc00434f00004d500000494c0000455d000099
:1025dc0086350000ce950000269200000092000087
:1025ec00e6830000e4920000c64300004641000070
:1025fc002c000000863500003a850000b6840000ef
:10260c0064840000009200005688000032850000af
:10261c00e6830000fa920000853f0000574f00004f
:10262c0052440000863500005e8a0000b08d000028
:10263c00328d0000d68d0000ca8400000088000096
:10264c00048400000e0000008c8e000068a50000c1
:10265c00fc8300003f000000a6a400009c8f00003b
:10266c00e683000012930000c85000004f53000096
:10267c00545000004f4e000045000000863500000d
:10268c00ce95000018930000188800000c00000084
:10269c00fc830000fc83000000920000008400001a
:1026ac000400000000920000e68300003a93000052
:1026bc00c74c00004954000045520000414c00003a
:1026cc0086350000548900006484000004840000f6
:1026dc000800000000930000fc8300000092000042
:1026ec00e6830000863500003a8500004285000034
:1026fc003a8500008c8e0000e28500008e88000078
:10270c0032850000f284000032850000e683000070
:10271c0086350000789300008c8e0000e683000064
:10272c008635000078930000e683000086350000b3
:10273c00789300008c8e000068a50000e6830000f2
:10274c0086350000fc83000022000000b08d0000e4
:10275c008c8e0000e683000086350000a6930000f6
:10276c00e28500008e8800005e8900009e840000d7
:10277c00e68300005e930000c253000022000000bc
:10278c0086350000ce950000009300008e9300006b
:10279c00b2930000e6830000c2930000c243000025
:1027ac002200000086350000ce950000009300004a
:1027bc0096930000b2930000e6830000d4930000cf
:1027cc00c22e000022000000863500005489000053
:1027dc0064840000048400000a00000000930000e0
:1027ec009c930000b2930000e6830000a6930000c7
:1027fc0068a50000e6830000e6930000c7520000c5
:10280c00454300005552000053450000863500003a
:10281c008889000064840000a890000000920000e9
:10282c00e683000004940000c24400004f00000046
:10283c0086350000ce950000009300000684000051
:10284c00a28800008a850000fc83000000000000c4
:10285c008a850000e68300001a940000c33f000044
:10286c00444f000086350000ce9500000093000018
:10287c0008840000a2880000fc8300000400000013
:10288c00e28500008a850000fc8300000000000047
:10289c008a8500000093000000840000a2880000dc
:1028ac008a850000e683000034940000c54c0000cb
:1028bc00454100005645000086350000ce950000cd
:1028cc00009300002a8400000093000000840000a4
:1028dc00a28800008a850000e6830000863500008f
:1028ec0094850000ca8400000484000014000000d9
:1028fc00b6840000a288000056880000f284000014
:10290c00e8850000f28400009e8400000084000032
:10291c00e8ff00009485000082920000e68300002e
:10292c005c940000c44c00004f4f000050000000ad
:10293c0086350000ce950000009300000a8400004c
:10294c0074940000e683000098940000c52b0000ee
:10295c004c4f00004f50000086350000ce95000013
:10296c00009300000c84000074940000e6830000c7
:10297c00ac940000c542000045470000494e0000e1
:10298c0086350000ce9500006e920000e6830000b4
:10299c00c0940000c541000047410000494e0000b2
:1029ac0086350000ce9500000093000000840000e6
:1029bc0082920000e6830000d0940000c555000010
:1029cc004e540000494c000086350000ce950000a6
:1029dc00009300000484000082920000e683000053
:1029ec00e4940000c2490000460000008635000057
:1029fc00ce95000000930000048400009692000025
:102a0c00e6830000f8940000c45400004845000020
:102a1c004e00000086350000ce950000b0920000fc
:102a2c00e68300000a950000c44500004c530000ea
:102a3c004500000086350000ce9500000093000094
:102a4c000084000096920000f284000010950000b3
:102a5c00e68300001a950000c557000048490000a5
:102a6c004c45000086350000ce9500000093000018
:102a7c000484000096920000f2840000e6830000bb
:102a8c0032950000c6520000455000004541000040
:102a9c005400000086350000ce9500000093000025
:102aac000084000082920000b0920000e6830000d7
:102abc0048950000c443000041530000450000004d
:102acc0086350000ce950000fc830000000000005d
:102adc00e683000060950000c24f00004600000035
:102aec0086350000ce95000000930000188500008c
:102afc00009300001e880000009300000484000076
:102b0c0096920000e683000072950000c545000017
:102b1c004e4400004f46000086350000ce95000064
:102b2c00009300000084000096920000f2840000e4
:102b3c00b0920000e68300008c950000c7450000b1
:102b4c004e44000043410000534500008635000010
:102b5c00ce950000ca840000048400000800000028
:102b6c00b092000000840000f6ff0000009300000b
:102b7c00d4840000e6830000a4950000c83f000048
:102b8c00434f00004d500000494c00004500000030
:102b9c008635000054890000648400000088000021
:102bac00be8f0000116300006f6d000070690000a3
:102bbc006c650000206f00006e6c00007920000036
:102bcc00776f000072640000e6830000c49500007b
:102bdc00853f00004e4100004d4500008635000049
:102bec00be8f00000c6e0000616d000065200000bf
:102bfc006d69000073730000696e000067000000cf
:102c0c00e6830000ee950000873a00004e4f00006e
:102c1c004e4100004d45000086350000a2880000a2
:102c2c000093000086350000d6920000e683000079
:102c3c000a960000c545000058490000542c0000bd
:102c4c008635000000930000e6830000e683000058
:102c5c0020960000864800004541000044450000d5
:102c6c00520000008635000088890000b684000000
:102c7c006484000000920000a2880000f28400002e
:102c8c009e8400005e8a0000b08d0000328d000032
:102c9c006c840000b684000000880000f4950000ed
:102cac00f0850000f49100006a880000ac910000ef
:102cbc0092910000e68300003096000086460000ea
:102ccc004f520000474500005400000086350000bc
:102cdc0026920000e490000094900000b68400005e
:102cec00fc8300000080000042880000be8f0000c2
:102cfc001a430000616e000027740000206600007b
:102d0c006f7200006765000074200000776f000090
:102d1c0072640000206900006e200000464c000028
:102d2c004153000048000000b68400005e8900009a
:102d3c009e84000064840000888900009e8400004a
:102d4c00e683000064960000864d000041520000ae
:102d5c004b450000520000008635000038960000fc
:102d6c00a28800000093000086350000009300004c
:102d7c00fc8300000092000000930000cc96000041
:102d8c0026960000d0910000e683000086350000f6
:102d9c00e490000094900000b68400005e8900006e
:102dac009e84000064840000888900009e840000da
:102dbc00e6830000aa960000813a000086350000e8
:102dcc0038960000d6920000009300008635000073
:102ddc00e6830000e29600008643000052450000a6
:102dec004154000045000000863500003896000074
:102dfc00d0910000fc830000663d000000920000b2
:102e0c0000930000ee830000e6830000863500008e
:102e1c003a850000b6840000568800003285000018
:102e2c00648400008889000064840000a89000007d
:102e3c00568800009e840000e6830000f296000095
:102e4c00c54400004f450000533e0000863500008d
:102e5c00009300000c970000a2880000fc83000087
:102e6c000200000060880000e28500000092000073
:102e7c002696000012960000d4840000e683000021
:102e8c00269700008856000041520000494100007e
:102e9c00424c00004500000086350000fa96000008
:102eac00fc8300000000000000920000e68300009c
:102ebc0048970000884300004f4e00005354000018
:102ecc00414e00005400000086350000389600008a
:102edc00d0910000fc830000a63500000092000099
:102eec0000920000e683000060970000c13b0000e8
:102efc0086350000ce95000026960000d09100008b
:102f0c00c6920000e6830000863500009c9300000a
:102f1c001a5500006e6900006e69000074690000ab
:102f2c00616c0000697a0000656400002064000098
:102f3c006566000065720000656400002077000083
:102f4c006f72000064000000dca500009c8f000084
:102f5c007c97000085440000454600004552000067
:102f6c00863500003896000000930000863500007e
:102f7c00009300008a97000000930000e683000095
:102f8c00d0910000e6830000b0970000864400005a
:102f9c004546000045520000210000008635000027
:102fac00568800009e840000e6830000cc97000049
:102fbc0086440000454600004552000040000000d9
:102fcc00863500005688000064840000e68300000b
:102fdc00de97000082490000530000008635000097
:102fec0018930000d4840000568800009e840000d2
:102ffc00e6830000f0970000c22e000028000000bd
:10300c0086350000fc83000029000000b08d000014
:10301c008c8e000068a50000e6830000029800007a
:10302c00833200003e520000863500003a850000d5
:10303c000e850000f284000032850000328500000d
:10304c0032850000e68300001698000083320000f1
:10305c00523e0000863500003a8500003a8500009b
:10306c003a850000f28400000485000032850000df
:10307c00e68300002c9800008332000052400000d0
:10308c00863500003a8500003a8500004285000034
:10309c001885000032850000048500003285000090
:1030ac00f2840000e683000042980000843f000098
:1030bc004453000050000000863500004a85000093
:1030cc001e8a0000648400003a880000be8f000055
:1030dc00115300002073000074610000636b00004a
:1030ec00207500006e64000065720000666c0000c4
:1030fc006f7700004a8500001e8a0000648400007f
:10310c00fc8300004000000008860000e2850000ff
:10311c0042880000be8f0000105300002073000096
:10312c0074610000636b0000206f00007665000086
:10313c00726600006c6f000077000000e6830000f0
:10314c005c980000822e00005300000086350000c1
:10315c0076850000fe8300003c000000a6a4000061
:10316c00b6840000d09e0000fe8300003e000000ec
:10317c00a6a4000018a50000ca8400000484000066
:10318c000e000000b684000080850000d09e000078
:10319c000086000000840000f0ff0000e6830000c1
:1031ac00a8980000842e0000525400004e0000002d
:1031bc00863500006a89000064840000bc8500002c
:1031cc00fe83000052000000a6a40000fe83000055
:1031dc003a000000a6a400005a850000168a0000e0
:1031ec00068400001284000064840000d09e00005d
:1031fc00fc830000020000000c840000f4ff0000bf
:10320c006a8900009e840000e6830000d8980000c4
:10321c0084440000554d000050000000863500002d
:10322c00ca8400000284000004000000e683000051
:10323c006a8900006484000032850000bc850000af
:10324c00f2840000fc830000feff0000b087000049
:10325c00f2840000fc8300000000000006840000e3
:10326c0012840000fc8300000f000000b0870000f7
:10327c00028400000e000000dca50000b6840000f3
:10328c00fc83000004000000ae9e000018a50000a6
:10329c00b68400007c840000fc8300000300000066
:1032ac00ae9e0000fc83000001000000e2850000df
:1032bc000a840000d6ff0000d48400003a85000088
:1032cc006a8900009e840000e68300000e990000cd
:1032dc00854400004542000055470000863500003b
:1032ec00f28900009e840000e68300006e990000c5
:1032fc008542000052450000414b0000863500001d
:10330c00f2890000648400000284000006000000c2
:10331c00d4840000e68300005a850000e689000092
:10332c009e840000dca500009c9300000d62000050
:10333c0072650000616b0000207000006f69000076
:10334c006e7400003a200000d09e0000dca5000046
:10335c00ac980000dca500002c900000e683000077
:10336c007e9900008652000045530000554d000028
:10337c004500000086350000f289000064840000de
:10338c000484000016000000e6890000648400003c
:10339c00ca840000048400000c0000006285000058
:1033ac00fc83000000000000e68900009e84000001
:1033bc00e6830000b89900008653000043520000d9
:1033cc004255000046000000703d0000e2990000ec
:1033dc008448000054410000420000007a3d000087
:1033ec00843d0000ee990000855600004944000021
:1033fc00454f0000003e0000fa9900008743000092
:10340c0055520000454e0000424c00000c3e00009e
:10341c00049a0000834300004c530000283e000037
:10342c00109a000086530000435200004c550000d7
:10343c00500000003e3e0000189a00008653000029
:10344c00435200004c4400004e000000483e000077
:10345c00249a0000844700004554000058000000e6
:10346c00523e0000309a0000844700004554000092
:10347c0059000000603e00003a9a0000845300009e
:10348c0045540000580000006e3e0000449a0000b5
:10349c008453000045540000590000008c3e00008d
:1034ac004e9a000086430000555200004144000033
:1034bc0052000000aa3e0000589a0000864300000b
:1034cc0055520000504f000053000000863500009c
:1034dc00549a00004a9a0000e6830000649a0000a7
:1034ec008753000043520000434800004152000043
:1034fc00c03e0000769a000087430000485200004e
:10350c003e53000043520000e83e0000829a000047
:10351c00854900004e5600004c4e0000103f000044
:10352c008e9a0000874c0000432d00004c45000093
:10353c0046540000383f0000989a0000884c000068
:10354c00432d000052490000474800005400000081
:10355c00503f0000a49a0000874c0000432d00004f
:10356c00484f00004d4500006a3f0000b29a000031
:10357c00864c0000432d0000454e00004400000026
:10358c0086350000a08a00000c9a0000609a0000aa
:10359c00fc8300003f000000b6840000d4870000cc
:1035ac0004850000b0870000c0840000e2850000a4
:1035bc007c8400005e8a00001e88000004840000e9
:1035cc001a000000f284000000860000b68400009f
:1035dc000484000008000000f28400000084000055
:1035ec00e4ff00004a9a0000d4840000008400002c
:1035fc0008000000d48400004a9a0000ae9a000033
:10360c00968a00000c9a0000e6830000be9a000027
:10361c00854c0000432d0000555000007e3f0000fb
:10362c000e9b0000864c0000432d0000444f000010
:10363c00574e0000963f0000189b00008754000076
:10364c00474c00004348000041520000b03f0000ce
:10365c00249b0000845000005554000043000000df
:10366c00c63f0000309b0000824300005200000067
:10367c00044000003a9b00008a4e000045580000b0
:10368c00542d0000434f00004c4f00004e00000032
:10369c0086350000a08a00000c9a0000f499000006
:1036ac006c840000028400000a000000fc8300000f
:1036bc0004000000f4990000a6840000369a000073
:1036cc00b6840000fc8300003c0000002c88000045
:1036dc000284000008000000d48400000084000074
:1036ec0014000000f49900006c840000e2850000d6
:1036fc00f49900006c84000000860000d487000060
:10370c00b08700004a9a0000968a00000c9a0000cc
:10371c00e6830000429b0000864c0000432d000015
:10372c00444500004c00000086350000a08a0000d3
:10373c000c9a0000609a0000f0850000fc830000e9
:10374c0040000000369a0000f0850000088400005c
:10375c000084000012000000b68400007c8400008d
:10376c001885000000860000a6840000f08500008b
:10377c000a840000f2ff0000008600005e8a000050
:10378c00f2840000a6840000968a00000c9a0000c7
:10379c00e6830000929b0000884c0000432d000043
:1037ac00494e0000535200005400000086350000c2
:1037bc00369a0000c69a0000369a0000c0840000b9
:1037cc001e880000028400002e000000b684000059
:1037dc00fc8300003f0000001e88000002840000f3
:1037ec0022000000a09a00007e9a0000369a000089
:1037fc00f0850000409a0000048500008a9a0000c1
:10380c0000860000c08400001e88000004840000b4
:10381c00eaff000018850000409a00005e8a000054
:10382c008a9a0000d48400004a9a0000e6830000c3
:10383c00d29b000087420000414300004b44000033
:10384c00454c000086350000369a000004840000c8
:10385c0006000000a09a00009a9b0000e68300007e
:10386c00209c0000854300004c5200004c4e000090
:10387c0026400000389c0000864c0000432d0000c0
:10388c00424500004c00000086350000fc8300001f
:10389c00c8000000fc830000e8030000ac9f00009f
:1038ac00e6830000429c0000844c0000432d000085
:1038bc00454d00004954000086350000b6840000d8
:1038cc00fc830000200000003a8800000284000005
:1038dc0012000000b6840000fc8300007e00000093
:1038ec00428800000284000006000000369b0000a5
:1038fc00e6830000b6840000fc8300000d0000008d
:10390c001e8800000484000008000000d48400001d
:10391c003e9b0000e6830000b6840000fc830000a0
:10392c00090000001e88000004840000080000004c
:10393c00d48400004e9b0000e6830000b684000097
:10394c00fc8300008f0000001e880000048400002f
:10395c0008000000d4840000a09a0000e683000058
:10396c00b6840000fc830000900000001e8800005c
:10397c000484000008000000d4840000ae9a00000b
:10398c00e6830000b6840000fc8300009100000078
:10399c001e8800000484000008000000d48400008d
:1039ac00ba9a0000e6830000b6840000fc83000095
:1039bc00920000001e880000048400000800000033
:1039cc00d4840000c69a0000e6830000b684000090
:1039dc00fc8300008d0000001e88000004840000a1
:1039ec0008000000d4840000149b0000e683000053
:1039fc00b6840000fc8300008e0000001e880000ce
:103a0c000484000008000000d4840000209b000007
:103a1c00e6830000b6840000fc8300000800000070
:103a2c001e8800000484000008000000d4840000fc
:103a3c00289c0000e6830000b6840000fc83000094
:103a4c00180000001e88000004840000080000001c
:103a5c00d48400003e9c0000e6830000b684000085
:103a6c00fc8300007f0000001e880000048400001e
:103a7c0008000000d48400009a9b0000e68300003c
:103a8c00b6840000fc8300000c0000001e880000bf
:103a9c000484000008000000d4840000149a000084
:103aac00e6830000b6840000fc8300009500000053
:103abc001e8800000484000008000000d48400006c
:103acc00dc9b0000e6830000b6840000fc83000051
:103adc00070000001e88000004840000080000009d
:103aec00d48400004a9c0000e6830000369b000052
:103afc00e68300005a9c0000884c0000432d000017
:103b0c00454d0000495400003f00000048400000b3
:103b1c00829d0000874c0000432d000050410000a6
:103b2c004745000086350000149a0000e68300002b
:103b3c00909d000085440000494700004954000056
:103b4c0086350000fc830000090000001885000089
:103b5c002c880000fc83000007000000b0870000e8
:103b6c00e2850000fc83000030000000e2850000cc
:103b7c00e6830000a09d000087450000585400001b
:103b8c00524100004354000086350000a08600001e
:103b9c0004850000a69d0000e6830000c29d000085
:103bac00823c000023000000863500009289000052
:103bbc0064840000768a0000e2850000bc89000065
:103bcc009e840000e6830000d69d0000844800001f
:103bdc004f4c00004400000086350000fc830000c0
:103bec00ffff0000bc89000038860000bc89000083
:103bfc0064840000a6840000e6830000ec9d0000b5
:103c0c0081230000863500006a890000648400006e
:103c1c00ca9d0000f29d0000e6830000069e000095
:103c2c00822300005300000086350000089e00002f
:103c3c00c0840000b887000002840000f8ff000078
:103c4c00e6830000169e00008453000049470000e4
:103c5c004e0000008635000010880000048400002f
:103c6c0008000000fe8300002d000000f29d000003
:103c7c00e68300002a9e0000822300003e00000024
:103c8c0086350000de840000bc89000064840000de
:103c9c009289000064840000768a0000e2850000ae
:103cac0018850000e8850000e6830000429e0000b5
:103cbc00835300005452000086350000b684000087
:103ccc0032850000f4860000da9d00001a9e000088
:103cdc003a850000309e0000469e0000e6830000fe
:103cec005e9e0000874300004f4c000046490000d8
:103cfc004c4c000086350000e8850000b6840000be
:103d0c00188800000284000008000000d484000021
:103d1c0000840000040000002ca50000e6830000d5
:103d2c00789e0000822e00005200000086350000b4
:103d3c0032850000fc8600003a8500003e9f0000a2
:103d4c00e6830000989e0000835500002e52000070
:103d5c008635000032850000fc8300000000000066
:103d6c003a850000569f0000e6830000aa9e0000e2
:103d7c00825500002e00000086350000fc830000f8
:103d8c00000000000c9f0000e6830000be9e0000b7
:103d9c00812e0000863500006a89000064840000d2
:103dac00fc8300000a0000001e8800000484000050
:103dbc00e6ff0000fc860000209f0000e683000068
:103dcc00ce9e0000813f000086350000fc83000081
:103ddc00feff0000b087000064840000d09e00004d
:103dec00e6830000e89e0000824300003f000000d4
:103dfc00863500006c840000d09e0000e683000035
:103e0c00fa9e000083550000442e00008635000009
:103e1c00da9d00001a9e0000469e000018a50000c6
:103e2c0068a50000e6830000089f000082440000a3
:103e3c002e000000863500006a89000064840000b2
:103e4c00fc8300000a0000001e88000004840000af
:103e5c00e0ff0000629e000018a5000068a50000ad
:103e6c00e68300001c9f0000834400002e520000db
:103e7c008635000032850000629e00003a85000005
:103e8c0018850000809e000068a50000e6830000f5
:103e9c003a9f000084550000442e000052000000a0
:103eac008635000032850000da9d00001a9e000065
:103ebc00469e00003a85000018850000809e000098
:103ecc0068a50000e683000052400000509f0000ef
:103edc008753000045520000454e0000424c000044
:103eec00864000006e9f0000844200004155000097
:103efc00440000009c4000007a9f000085530000a5
:103f0c005055000054430000c2400000849f000044
:103f1c00855300004745000054430000f04000006a
:103f2c008e9f000087530000524500004144000062
:103f3c00593f00002841000036410000989f0000c6
:103f4c00845400004f4e0000450000005441000016
:103f5c0074410000a69f00008652000053540000dc
:103f6c004f52000045000000f6410000b29f0000d7
:103f7c00855200004c4f00004144000036420000c6
:103f8c00be9f0000843f0000574900005000000015
:103f9c0070420000c89f0000845700005749000081
:103fac005000000086350000ce9f00000284000007
:103fbc00fcff0000e6830000d29f00008745000054
:103fcc004557000052490000544500009e42000035
:103fdc00e49f00008645000045520000454100006a
:103fec0044000000fc420000f09f000085450000ea
:103ffc0050410000474500003a430000fc9f000080
:10400c008745000053450000435400004f52000008
:10401c004443000006a0000084450000414c000011
:10402c004c0000004e43000012a00000864500002a
:10403c004552000041530000450000005843000069
:10404c001ca0000086520000414d00003e450000bf
:10405c00450000008635000004850000fc8300004c
:10406c0000000000068400001a980000fc83000089
:10407c0000010000c084000046980000ec9f000086
:10408c00e285000030980000fc8300000001000075
:10409c0040860000fc830000000100000c8400003e
:1040ac00e4ff0000de840000d4840000e6830000fe
:1040bc0028a0000084580000524100004d00000070
:1040cc009c35000003000000c49f0000ba9f000054
:1040dc00c49f0000ba9f000060a00000865300003f
:1040ec0045520000494100004c0000009c35000086
:1040fc00020000008aa200008a9f0000949f00002a
:10410c0074a000008645000045500000524f00008e
:10411c004d0000009c35000004000000f89f0000da
:10412c00ec9f0000f89f000030a0000088a0000069
:10413c00865300004443000041520000440000003c
:10414c009c350000050000005aa9000068a9000079
:10415c00f4a90000a6a900009ea000008544000060
:10416c004556000049440000ba430000b4a00000ca
:10417c00874600004e5f000052450000414400009d
:10418c00c4430000bea00000884600004e5f000043
:10419c00575200004954000045000000ce43000077
:1041ac00caa00000874600004e5f0000494d000089
:1041bc00473e0000d8430000d8a00000874600000e
:1041cc004e5f00003e4900004d470000e2430000f6
:1041dc00e4a00000854d00004f5500004e54000037
:1041ec00ec430000f0a00000865500004d4f00008d
:1041fc00554e000054000000f6430000faa00000e9
:10420c008544000045560000494f000086350000eb
:10421c00f284000060880000e285000064840000e5
:10422c004a840000e683000006a10000844c0000d4
:10423c004f4100004400000086350000c6a000007d
:10424c00f28400008e840000e6830000004400002d
:10425c00304400001ca10000884c0000432d0000dd
:10426c00454b0000455900003f0000004a44000047
:10427c0032a10000874c0000432d0000454b00008c
:10428c00455900005c44000040a10000894c00002e
:10429c00432d0000464900004c54000045520000dc
:1042ac007a4400004ca10000874c0000432d000014
:1042bc004b450000593f0000863500003ca1000032
:1042cc00b68400000484000012000000d4840000b6
:1042dc0048a1000056a10000028400000800000064
:1042ec00d484000000840000eaff0000e683000094
:1042fc005aa10000864c0000432d00004b450000e5
:10430c00590000008635000062a10000ca8400003c
:10431c0004840000faff0000e68300001b5b000031
:10432c00411b00005b4200001b5b0000431b0000b4
:10433c005b4400001b5b0000313b0000354100007a
:10434c001b5b0000313b0000354200001b5b000092
:10435c00313b0000354300001b5b0000313b00008b
:10436c00354400001b5b0000327e00001b5b00002c
:10437c00317e00001b5b0000337e00001b4f0000f1
:10438c00461b00005b3500007e1b00005b36000006
:10439c007e1b00005b3300003b3500007e1b0000e1
:1043ac005b3300003b350000481b00005b33000012
:1043bc003b350000461b00005b3500003b35000020
:1043cc007e1b00005b3600003b3500007e000000c9
:1043dc0080a10000835800004f4e0000a044000054
:1043ec00f0a10000845800004f4600004600000079
:1043fc00aa440000f8a1000088560000542d0000cb
:10440c00454b0000455900003f0000008635000078
:10441c00e683000002a2000087560000542d000025
:10442c00454b00004559000086350000e68300002e
:10443c0012a2000089560000542d000046490000cd
:10444c004c5400004552000086350000b684000034
:10445c00fc8300001f000000328800000484000070
:10446c0004000000e6830000b6840000fe83000018
:10447c001b0000001e8800000484000008000000df
:10448c00d4840000949f0000e6830000fc830000ad
:10449c0056a20000e28500006c840000e683000058
:1044ac002020000020200000202000002020000000
:1044bc0008200000202000000c0d0000202000002f
:1044cc0020200000202000002020000016200000ea
:1044dc00162000002020000020a2000087560000bb
:1044ec00542d00004b450000593f0000863500005c
:1044fc00e683000074a2000086560000542d0000d4
:10450c004b4500005900000086350000e683000092
:10451c0082a2000087560000542d0000454d00007b
:10452c004954000086350000e683000090a200008c
:10453c0088560000542d0000454d000049540000e1
:10454c003f00000086350000a09f0000e6830000bd
:10455c009ea2000088560000542d0000415400001b
:10456c002d5800005900000086350000e68300003d
:10457c00b0a2000087560000542d000050410000ee
:10458c004745000086350000fc8300000c0000004d
:10459c008a9f0000e6830000c0a20000875600003e
:1045ac00542d0000435200004c460000863500009c
:1045bc00fc8300000d0000008a9f0000fc830000bb
:1045cc000a0000008a9f0000e6830000d4a20000cd
:1045dc008a560000542d0000444500004c42000057
:1045ec00414300004b00000086350000fc830000b6
:1045fc00080000008a9f00005e8a00008a9f00006d
:10460c00fc830000080000008a9f0000e683000085
:10461c00eea2000088560000542d00004445000016
:10462c004c4c00004e00000086350000fc8300005e
:10463c001b0000008a9f0000fc8300005b00000050
:10464c008a9f0000fc830000320000008a9f00005b
:10465c00fc8300004b0000008a9f0000fc830000dc
:10466c000d0000008a9f0000e683000010a30000ec
:10467c008a560000542d0000435500005253000090
:10468c004f5200003f00000086350000fc83000004
:10469c001b0000008a9f0000fc8300005b000000f0
:1046ac008a9f0000fc830000360000008a9f0000f7
:1046bc00fc8300006e0000008a9f0000e68300006f
:1046cc003ea3000088560000542d00004745000012
:1046dc005459000058000000863500004aa3000021
:1046ec00949f0000fc8300001b0000001e8800004b
:1046fc0004840000f6ff0000949f0000d4840000a6
:10470c00949f0000fc83000030000000e88500004e
:10471c00949f0000b6840000fc8300003b00000066
:10472c001e8800000284000014000000fc830000be
:10473c0030000000e8850000f2840000fc830000db
:10474c000a00000046860000e2850000949f0000ed
:10475c00d4840000949f0000fc8300003000000013
:10476c00e8850000949f0000b6840000fc830000e4
:10477c00520000001e88000002840000140000009b
:10478c00fc83000030000000e8850000f28400008b
:10479c00fc8300000a00000046860000e285000051
:1047ac00949f0000d4840000e683000068a30000fe
:1047bc00874c0000432d0000434f00004e53000077
:1047cc009c35000088a1000062a1000048a10000f7
:1047dc003ca10000629c00008c9d00006c9a0000c3
:1047ec00149a000056a10000dea3000087530000bd
:1047fc0045520000434f00004e5300009c35000012
:10480c008aa200007ca200001aa200000ca20000e8
:10481c0098a20000a8a20000baa20000c8a2000042
:10482c002aa20000fca30000854c00004f430000ae
:10483c00414c000086350000e6a30000e683000032
:10484c001aa4000086520000454d00004f54000091
:10485c00450000008635000004a40000e68300003b
:10486c0028a40000874300004f4e0000534f000067
:10487c004c45000086350000008a00009e84000034
:10488c00e683000038a40000834b0000455900006b
:10489c0086350000008a000064840000fc83000060
:1048ac00000000005e840000e68300004aa40000c3
:1048bc00844b0000455900003f0000008635000085
:1048cc00008a000064840000fc83000001000000ea
:1048dc005e840000e68300005ea4000084450000b6
:1048ec004b4500005900000086350000008a00008e
:1048fc0064840000fc830000020000005e84000061
:10490c00e683000074a40000854500004b450000c0
:10491c00593f000086350000008a000064840000c6
:10492c00fc830000030000005e840000e6830000ae
:10493c008aa40000844500004d490000540000008a
:10494c0086350000008a000064840000fc830000af
:10495c00040000005e840000e6830000a0a40000b8
:10496c00854500004d490000543f0000863500008d
:10497c00008a000064840000fc8300000500000035
:10498c005e840000e6830000b6a4000085410000b0
:10499c00542d00005859000086350000008a000094
:1049ac0064840000fc830000060000005e840000ac
:1049bc00e6830000cca400008450000041470000b6
:1049cc004500000086350000008a00006484000069
:1049dc00fc830000070000005e840000e6830000fa
:1049ec00e2a40000894500004b450000593e000040
:1049fc00434800004152000086350000008a000048
:104a0c0064840000fc830000080000005e84000049
:104a1c00e6830000f8a4000085530000504100001c
:104a2c004345000086350000fc8300002000000098
:104a3c00a6a40000e683000012a500008653000027
:104a4c005041000043450000530000008635000033
:104a5c00b6840000fc8300000000000032880000d7
:104a6c000284000006000000d4840000e6830000ed
:104a7c00fc830000000000000684000018a5000064
:104a8c000a840000fcff0000e683000024a500005f
:104a9c00874300004c450000415200004c4e000082
:104aac0086350000fc83000018000000a6a400005e
:104abc00e68300004ea5000084540000595000000d
:104acc004500000086350000b6840000028400001a
:104adc0006000000de840000e6830000fc8300007a
:104aec000000000006840000b68400006c84000006
:104afc00ca840000048400000e000000a6a400007c
:104b0c00f08500000a840000f0ff00000084000023
:104b1c00040000002a840000d4840000e683000016
:104b2c0062a5000086440000454c0000455400007e
:104b3c004500000086350000fc8300007f0000006b
:104b4c00a6a40000e683000098a50000874400009e
:104b5c00454c000042410000434b000086350000ec
:104b6c00fc83000008000000a6a40000e6830000ff
:104b7c00aca5000087440000454c00004c490000e7
:104b8c004e45000086350000fc8300001800000034
:104b9c00a6a40000e6830000c0a50000874e00001c
:104bac00455700004c4900004e450000863500007a
:104bbc00fc8300000d000000a6a40000e6830000aa
:104bcc00d4a50000864d0000464c00004153000067
:104bdc00480000009c3500000600000020a60000e4
:104bec00e2a6000048a7000008a70000e8a5000006
:104bfc008746000042550000464600004552000022
:104c0c0086350000fc830000000c000006ad00009f
:104c1c00b6840000fc8300003c1200009e8400005f
:104c2c00e6830000fea5000085540000424c000005
:104c3c00404c0000b44400001aa60000855400004b
:104c4c00424c000040480000c444000024a6000070
:104c5c008249000040000000d44400002ea6000051
:104c6c00854600004144000044520000f04400001e
:104c7c0036a60000854600004e4500005854000042
:104c8c00fe4400000c4500003445000040a6000026
:104c9c008555000044520000454c0000564500006c
:104cac004ea60000883f0000464c0000494d000015
:104cbc00495400005300000086350000c0840000f9
:104ccc00fc83000000800000fc830000000000005a
:104cdc0054a60000108800000484000008000000a6
:104cec00fc83000000000000e6830000c08400008c
:104cfc00fc830000eb570000fc8300000500000063
:104d0c0054a6000010880000e683000058a600009e
:104d1c00885200004f5700003e46000041440000fe
:104d2c005200000086350000fc83000000080000e3
:104d3c004e860000e68300008ea60000864600002a
:104d4c00455200004153000045000000863500002c
:104d5c0098a6000062a60000048400001e0000005b
:104d6c00f2840000fc83000000f80000b087000013
:104d7c00f2840000a08a0000009a00003ca600000b
:104d8c00fc830000030000004aa60000968a000085
:104d9c00009a0000e6830000ac980000de8400005e
:104dac00e6830000a4a60000863e0000464c0000ee
:104dbc0041530000480000008635000062a6000048
:104dcc000284000008000000de840000d48400008f
:104ddc00e68300003ca6000048a60000fc8300000f
:104dec00010000004aa60000e6830000daa60000dd
:104dfc0089520000414d00003e4600004c4100002d
:104e0c00534800008635000062a6000002840000b2
:104e1c0008000000de840000de840000e683000051
:104e2c003ca60000fc83000000000000068400008b
:104e3c00b684000048a60000fc83000001000000be
:104e4c004aa6000046a60000fc83000006000000f5
:104e5c00e2850000fc830000060000000c840000ca
:104e6c00e8ff0000d4840000e6830000fea60000ea
:104e7c00894600004c410000534800003e5200009f
:104e8c00414d00008635000004850000fc830000c5
:104e9c000000000006840000c0840000fc830000b9
:104eac0002000000408600001a98000032a60000a4
:104ebc000e8500001a98000018850000a6840000da
:104ecc00f08500003a85000018850000a6840000db
:104edc00f08500003a85000018850000a6840000cb
:104eec00f085000030980000fc83000003000000f7
:104efc000c840000d2ff0000de840000d48400008b
:104f0c00e68300003ea70000874900004d470000e3
:104f1c0048450000414400007c4500008aa7000081
:104f2c00854d0000414700004943000086450000c4
:104f3c0096a70000864900004d470000524f000024
:104f4c005700000090450000a0a700008749000012
:104f5c004d47000053490000474e000086350000c5
:104f6c00fc8300000000000092a70000e683000014
:104f7c00aca70000884900004d4700004c410000e0
:104f8c00545300005400000086350000fc830000e0
:104f9c000100000092a70000e6830000c0a70000fb
:104fac00854900004d470000445000008635000044
:104fbc00fc8300000200000092a70000e6830000c2
:104fcc00d6a70000874900004d4700005349000058
:104fdc005a45000086350000fc83000003000000e9
:104fec0092a70000e6830000e8a7000089530000a8
:104ffc004554000048450000414400004552000063
:10500c00863500009ca70000b4a70000988400001f
:10501c00a2880000dca700009884000088890000aa
:10502c0064840000caa7000098840000a2880000d5
:10503c00a88a0000e8850000f0a700009884000012
:10504c00e6830000fca70000874900004d470000e4
:10505c00414400004452000086350000fc830000ef
:10506c0000800000fc83000000000000e6830000cc
:10507c002aa80000843f0000494d000047000000b2
:10508c008635000092a70000fc8300000800000099
:10509c0032a8000048a70000b4a700008e840000ce
:1050ac009ca700001e880000e683000040a80000ba
:1050bc00853f0000534900005a450000863500002a
:1050cc00f0a700008e840000e68300005ea80000bc
:1050dc00894500005241000053450000524f00002a
:1050ec005753000086350000f0a700008e840000a6
:1050fc00fc83000008000000e2850000fc83000037
:10510c00000c000088860000f2840000048400007b
:10511c0004000000f0850000a8a70000f284000045
:10512c00fc8300000000000006840000b684000030
:10513c00aca60000f08500000a840000f8ff000017
:10514c00d4840000e68300006ea8000087490000ac
:10515c004d470000534100005645000086350000c5
:10516c005a9100000484000004000000e683000053
:10517c0006a8000078a8000092a7000064a8000010
:10518c00fc83000008000000e285000032a800004b
:10519c0008a70000e6830000aca8000084490000ca
:1051ac004d4700004c4f0000414400008635000084
:1051bc0046a80000c8870000be8f0000184e0000f3
:1051cc006f200000626f00006f7400002069000007
:1051dc006d610000676500002061000076610000d1
:1051ec00696c0000616200006c6500002e0000001c
:1051fc0092a7000064a80000fc83000008000000d7
:10520c00e285000032a8000048a70000dca70000df
:10521c008e8400005e8900009e840000caa70000f6
:10522c008e840000888900009e840000e6830000c4
:10523c00d4a800008753000044430000494e0000ee
:10524c00495400009a45000020a90000843f00004a
:10525c005344000043000000644600002ca90000e9
:10526c00863f000053440000434f00004b000000f9
:10527c008635000032a90000fc830000010000000c
:10528c00fc8300000100000024860000b0870000b1
:10529c00e683000036a90000875300004443000059
:1052ac0052450000414400006e46000052a9000027
:1052bc00885300004443000057520000495400003a
:1052cc0045000000ba4600005ea90000874e0000b1
:1052dc0053450000435400004f5200008635000037
:1052ec00fc83000000020000e8850000fc83000045
:1052fc0000000000a8860000f2840000fc8300007f
:10530c0000020000e2850000f28400003a850000f3
:10531c0030980000fc830000010000004086000073
:10532c001a98000032850000e68300006ca900008a
:10533c00874900004d4700003e53000044430000e5
:10534c00863500001a9800003ea900000284000077
:10535c000800000028a90000048400001c000000c4
:10536c00188500004698000068a9000074a9000088
:10537c00b6840000048400000600000000840000d5
:10538c00f0ff0000de84000030980000de84000096
:10539c00e68300009c93000012530000446300005d
:1053ac0061720000642000007772000069740000d4
:1053bc006520000065720000726f00007200000032
:1053cc00dca500009c8f00009ea900008753000004
:1053dc00444300003e4900004d4700008635000064
:1053ec001a9800003ea9000002840000080000008a
:1053fc0028a900000484000020000000188500008b
:10540c00469800005aa90000048400001600000011
:10541c0074a90000b684000004840000060000009b
:10542c0000840000ecff0000de84000030980000d7
:10543c00de840000e68300009c9300001153000002
:10544c00446300006172000064200000726500007b
:10545c006164000020650000727200006f72000031
:10546c00dca500009c8f0000eca900008545000025
:10547c0053540000523e000086350000b6840000f4
:10548c007c84000032850000de8800003a85000034
:10549c00e68300003caa0000845300005452000034
:1054ac003e00000086350000b68400006c840000cd
:1054bc0032850000de8800003a850000e68300009b
:1054cc0052aa00008843000053540000523e0000d2
:1054dc00524100004d00000086350000328500006e
:1054ec00b68400006c840000f08500003a85000052
:1054fc000e850000fc830000000000000684000004
:10550c0058aa0000f28400003285000018850000c3
:10551c00a6840000f08500003a8500000a84000093
:10552c00f0ff0000de840000e683000068aa0000a3
:10553c0084530000545200003d00000086350000ea
:10554c003285000042aa00003a85000042aa000001
:10555c0004850000188500001e88000004840000eb
:10556c002a000000fc8300000000000006840000fc
:10557c003285000042aa00003a85000042aa0000d1
:10558c00048500001e880000048400000e0000004a
:10559c000a840000eeff0000de840000fc830000a3
:1055ac00ffff0000e68300002a8400000084000056
:1055bc0004000000d4840000de840000fc830000a2
:1055cc0000000000e68300009eaa0000884800004e
:1055dc0045410000504900004e49000054000000b5
:1055ec002a470000ecaa0000884800004541000052
:1055fc0050530000495a0000450000004447000089
:10560c00faaa0000884800004541000050460000fe
:10561c0052450000450000004e470000584700006e
:10562c0008ab00008846000052450000454c0000c5
:10563c0049530000540000006247000018ab000002
:10564c008855000053450000444c000049530000ad
:10565c00540000006c47000026ab0000864200009e
:10566c00534900005a4500004000000086350000f8
:10567c00fc83000006000000e88500007484000034
:10568c00e683000034ab0000864200005349000062
