:020000040000fa
:080000000002040000000000f2
:020000040000fa
:10000800aa030000aa030000aa030000aa03000034
:10001800aa030000aa030000aa030000aa03000024
:10002800aa030000aa030000aa0300005603000068
:10003800aa030000aa030000c20200004a0200004e
:10004800aa030000aa030000aa030000aa030000f4
:10005800aa030000aa030000aa030000aa030000e4
:10006800aa030000aa030000aa030000aa030000d4
:100078002c030000aa030000aa030000aa03000042
:10008800aa030000aa030000aa030000aa030000b4
:10009800aa030000aa030000aa030000aa030000a4
:1000a800aa030000aa030000aa030000aa03000094
:1000b800aa030000aa030000aa030000aa03000084
:1000c800aa030000aa030000aa030000aa03000074
:1000d800aa030000aa030000aa030000aa03000064
:1000e800aa030000aa030000aa030000aa03000054
:1000f800aa030000aa030000aa030000aa03000044
:10010800aa030000aa030000aa030000aa03000033
:10011800aa030000aa030000aa030000aa03000023
:10012800aa030000aa030000aa030000aa03000013
:10013800aa030000aa030000aa030000aa03000003
:10014800aa030000aa030000aa030000aa030000f3
:10015800aa030000aa030000aa030000aa030000e3
:10016800aa030000aa030000aa030000aa030000d3
:10017800aa030000aa030000aa030000aa030000c3
:10018800aa030000aa030000aa030000aa030000b3
:10019800aa030000aa030000aa030000aa030000a3
:1001a800aa030000aa030000aa030000aa03000093
:1001b800aa030000aa030000aa030000aa03000083
:1001c800aa030000aa030000aa030000aa03000073
:1001d800aa030000aa030000aa030000aa03000063
:1001e800aa030000aa030000aa030000aa03000053
:0801f800aa030000aa030000a5
:020000040000fa
:10020800aa030000aa030000aa030000aa03000032
:10021800aa030000aa030000aa030000aa03000022
:10022800aa030000aa030000aa0300005603000066
:10023800aa030000aa030000c20200004a0200004c
:10024800aa030000aa030000aa030000aa030000f2
:10025800aa030000aa030000aa030000aa030000e2
:10026800aa030000aa030000aa030000aa030000d2
:100278002c030000aa030000aa030000aa03000040
:10028800aa030000aa030000aa030000aa030000b2
:10029800aa030000aa030000aa030000aa030000a2
:1002a800aa030000aa030000aa030000aa03000092
:1002b800aa030000aa030000aa030000aa03000082
:1002c800aa030000aa030000aa030000aa03000072
:1002d800aa030000aa030000aa030000aa03000062
:1002e800aa030000aa030000aa030000aa03000052
:1002f800aa030000aa030000aa030000aa03000042
:10030800aa030000aa030000aa030000aa03000031
:10031800aa030000aa030000aa030000aa03000021
:10032800aa030000aa030000aa030000aa03000011
:10033800aa030000aa030000aa030000aa03000001
:10034800aa030000aa030000aa030000aa030000f1
:10035800aa030000aa030000aa030000aa030000e1
:10036800aa030000aa030000aa030000aa030000d1
:10037800aa030000aa030000aa030000aa030000c1
:10038800aa030000aa030000aa030000aa030000b1
:10039800aa030000aa030000aa030000aa030000a1
:1003a800aa030000aa030000aa030000aa03000091
:1003b800aa030000aa030000aa030000aa03000081
:1003c800aa030000aa030000aa030000aa03000071
:1003d800aa030000aa030000aa030000aa03000061
:1003e800aa030000aa030000aa030000aa03000051
:0803f800aa030000aa030000a3
:020000040000fa
:1004000000802000f1ff2000018009000018eb00af
:100410000f78220029d020008f0498007a0a020069
:100420000000000000802200000188000e742200fd
:100430009e049800a0002000a0049800700a02000a
:100440000000000001002000a1018800c1862800f2
:10045000528020000000eb00314078000080fb005b
:100460000200320000597800fbff3700821f78003d
:1004700032090200000000004f0178000000e00097
:10048000faff3200f007b20000497800f7ff3700aa
:04049000ffff370033
:020000040000fa
:10049400801f78000028ec000228ec0018003200cd
:1004a400600020000208e3001b003200c0002000ae
:1004b4000208e3001b003200200120000208e300d0
:1004c4001b003200800220000208e3001e003200fc
:1004d400800e20000208e3001e003200f01020000d
:1004e4000208e3001d003200001120000208e300ae
:1004f4002000320084e0a9004f007800004006008c
:1005040050022000100c8800b01f2000000c88004e
:1005140060088800f7ff3700601d2000100c880079
:10052400f4ff370050022000100c8800f1ff370060
:10053400a0042000100c8800703f2000000c8800ec
:1005440060088800ebff370084c0a90094c0a800ad
:10055400e8ff370094c0a900e6ff37000000eb0075
:100564000448e300e3ff320002a8ef000468ef0050
:10057400e0ff370002a8ef0004e8ef00ddff3700da
:10058400801f7800811f7800821f7800831f780005
:10059400841f7800851f78003400f800300880003c
:1005a400630060004100dd00006001000000000005
:1005b4000000000000000000000000000000000037
:1005c400000000000000000000002000a0018800de
:1005d400114080008102b100e7826000c308de00a0
:1005e400220320000110b8005480200004024000bf
:1005f400c33a2800344078000080fb004300dd004b
:100604008081410085814100934078008180fb0016
:100614006022ab00feff3a00411388000201e900aa
:10062400f3ff3a006022ab00feff3a006822ef00bd
:100634003400f900cf0278004f027800cf0178002f
:100644004f017800cf0078004f00780084c0a900e3
:1006540000400600801f7800811f7800501680003b
:1006640000e0a300b6acd7000b00390080cb20001b
:10067400d166800081004000b06580004500de0046
:1006840080087800daacec00f0012000da2cb60027
:1006940000402000b0658800cf0078004f0078004b
:1006a4008680a90000400600801f7800811f780022
:1006b400821f7800831f7800162dec00c06680002e
:1006c400da0ce3001c00320081cb200081004000e2
:1006d400110078000000d100140031000090a30044
:1006e400120039008001eb00f01fb200020020006c
:1006f4000010a500010039008301e8000201e800b0
:100704006910e100faff3a000300a6000700370071
:10071400c1cd2000f267800081004100804878004c
:100724001200b000f201b200f2678800d8acec000d
:10073400f0012000d82cb600cf0178004f017800da
:10074400cf0078004f0078008460a90000400600c4
:040754000000fe00a3
:020000040000fa
:100758004020000010f800001020000040000000b9
:100768001020000040f800004020000010000000a9
:1007780020700000a82000002020000000000000d9
:100788000020000020200000a870000020000000c9
:1007980000700000f8f80000f87000000000000089
:1007a8000000000000000000000000000000000041
:1007b8000000000000000000000000000000000031
:1007c8000000000000000000000000000000000021
:1007d8000000000000000000000000000000000011
:1007e8000000000000000000000000000000000001
:1007f80000000000000000000000000000000000f1
:1008080000000000000000000000000000000000e0
:1008180000000000000000000000000000000000d0
:1008280000000000000000000000000000000000c0
:1008380000000000000000000000000000000000b0
:1008480000000000000000000000000000000000a0
:100858000000000000000000000000000000000090
:100868000000000000000000000000000000000080
:100878000000000000000000000000000000000070
:100888000000000000000000000000000000000060
:100898000000000000000000000000000000000050
:1008a8000000000000000000000000000000000040
:1008b8000000000000000000000000000000000030
:1008c8000000000000000000000000000000000020
:1008d8000000000000000000000000000000000010
:1008e8000000000000000000000000000000000000
:1008f80000000000000000000000000000000000f0
:1009080000000000000000000000000000000000df
:1009180000000000000000000000000000000000cf
:1009280000000000000000000000000000000000bf
:1009380000000000000000000000000000000000af
:10094800000000000000000000000000000000009f
:10095800000000000000000000000000000000008f
:1009680020200000202000002000000020000000bf
:10097800505000005000000000000000000000007f
:1009880050500000f8500000f850000050000000df
:1009980020780000a070000028f00000200000006f
:1009a800c0c8000010200000409800001800000097
:1009b80060900000a0400000a890000068000000bf
:1009c800602000004000000000000000000000005f
:1009d80010200000404000004020000010000000ef
:1009e800402000001010000010200000400000000f
:1009f80000200000a8700000a820000000000000ef
:100a08000020000020f80000202000000000000066
:100a1800000000000000000060200000400000000e
:100a28000000000000f000000000000000000000ce
:100a380000000000000000000060000060000000ee
:100a480000080000102000004080000000000000a6
:100a58007088000098a80000c88800007000000096
:100a6800206000002020000020200000f800000086
:100a7800708800001020000040800000f80000008e
:100a8800f008000008f0000008080000f00000006e
:100a98001030000050900000f81000001000000016
:100aa800f880000080f0000008080000f000000056
:100ab8003040000080f000008888000070000000ce
:100ac800f80800001020000040400000400000002e
:100ad800708800008870000088880000700000009e
:100ae800708800008870000008080000700000008e
:100af800006000006000000060600000000000006e
:100b0800006000006000000060200000400000005d
:100b1800102000004080000040200000100000006d
:100b280000000000f8000000f800000000000000cd
:100b380040200000100800001020000040000000c5
:100b4800708800000810000020000000200000004d
:100b58007088000008680000a8a800007000000065
:100b68007088000088f8000088880000880000006d
:100b7800f088000088f0000088880000f00000007d
:100b880078800000808000008080000078000000ed
:100b9800f08800008888000088880000f0000000c5
:100ba800f880000080f8000080800000f800000055
:100bb800f880000080f800008080000080000000bd
:100bc8007880000080b00000888800007000000075
:100bd8008888000088f800008888000088000000e5
:100be800702000002020000020200000700000007d
:100bf8007808000008080000089000006000000065
:100c080088900000a0c00000a090000088000000ac
:100c1800808000008080000080800000f8000000d4
:100c280088d80000a8880000888800008800000094
:100c380088880000c8a80000988800008800000084
:100c48007088000088880000888800007000000014
:100c5800f088000088f0000080800000800000001c
:100c68007088000088880000a898000078000000bc
:100c7800f088000088f00000a090000088000000c4
:100c8800788000008070000008080000f000000074
:100c9800f820000020200000202000002000000094
:100ca800888800008888000088880000700000009c
:100cb8008888000088880000885000002000000014
:100cc8008888000088a80000a8d8000088000000d4
:100cd800888800005020000050880000880000002c
:100ce80088880000885000002020000020000000b4
:100cf800f81000002040000080800000f80000008c
:100d080060400000404000004040000060000000db
:100d180000800000402000001008000000000000d3
:100d28001808000008080000080800001800000063
:100d380020500000880000000000000000000000b3
:100d480000000000000000000000000000f80000a3
:100d5800402000001000000000000000000000001b
:100d6800000000007008000078880000780000008b
:100d78008080000080b00000c8880000f0000000fb
:100d880000000000708000008088000070000000f3
:100d98000808000008680000988800007800000033
:100da8000000000070880000f8800000700000005b
:100db8003048000040e000004040000040000000d3
:100dc80000000000788800008878000008700000a3
:100dd80080800000b0c800008888000088000000fb
:100de800002000000020000020200000200000005b
:100df800100000003010000010900000600000009b
:100e08008080000090a00000c0a0000090000000ba
:100e1800602000002020000020200000700000005a
:100e280000000000d0a80000a8880000880000008a
:100e380000000000b0c8000088880000880000009a
:100e48000000000070880000888800007000000022
:100e580000000000f088000088f00000808000009a
:100e6800000000006890000090b0000050180000da
:100e780000000000b0c80000808000008000000072
:100e8800000000007080000070080000f000000002
:100e980040400000e04000004048000030000000f2
:100ea80000000000888800008898000068000000a2
:100eb8000000000088880000885000002000000022
:100ec8000000000088880000a8a80000500000006a
:100ed800000000008850000020500000880000003a
:100ee8000000000088880000887800000870000072
:100ef80000000000f810000020400000f80000008a
:100f08002040000040800000404000002000000019
:100f180020200000202000002020000020000000e9
:100f280040200000201000002020000040000000a9
:100f38000000000040a800001000000000000000b1
:100f4800fcfc0000fcfc0000fcfc0000fcfc0000b9
:100f58001c6100003262000021630000236400006d
:100f6800246500002b660000346700003368000029
:100f7800436900003b6a0000426b00004b6c0000b4
:100f88003a6d0000316e0000446f00004d700000a3
:100f9800157100002d7200001b7300002c740000f6
:100fa8003c7500002a7600001d77000022780000ba
:100fb800357900001a7a000045300000163100002b
:100fc8001e32000026330000253400002e350000b4
:100fd800363600003d3700003e3800004639000034
:100fe800292000004e2d0000553d00000e60000035
:100ff8000d090000545b00005b5d00004c3b0000e5
:10100800412c0000492e00004a2f00005227000002
:101018005d7c0000660800000d0900005a0d000004
:10102800761b0000000000000e7e00001621000064
:101038001e40000026230000252400002e25000065
:10104800365e00003d2600003e2a000046280000cb
:10105800452900004e5f0000547b0000552b00001e
:101068005b7d00005d5c00004c3a000052220000ed
:10107800413c0000493e00004a3f000000000000db
:1010880012810000598100001480000011820000c4
:101098005883000000000000148000001182000046
:1010a80000000000708500006c8600007d8c000048
:1010b80071840000698700007a8d0000758800003f
:1010c800728900006b8a0000748b00000000000029
:1010d800303100003233000034350000363700006c
:1010e8003839000030310000323300003435000058
:1010f8003637000038390000303100003233000044
:10110800343500003637000038390000303100002f
:10111800323300003435000036370000383900001b
:10112800303100003233000034350000363700001b
:10113800383900005448000045200000515500008f
:10114800494300004b200000425200004f57000066
:101158004e200000464f0000582000004a5500006d
:101168004d500000532000004f560000455200002b
:101178002054000048450000204c0000415a00005f
:1011880059200000444f0000472e00002020000096
:101198002020000020200000546800006520000086
:1011a80071750000696300006b2000006272000026
:1011b8006f7700006e200000666f00007820000046
:1011c8006a7500006d700000732000006f760000e3
:1011d800657200002074000068650000206c000043
:1011e800617a000079200000646f0000672e00001b
:1011f8002020000020200000202000000000000027
:020000040000fa
:101208000000eb00e1678000f26780000208e1005f
:1012180007003200c2cd200002814000fc2cec0007
:10122800f0012000fc2cb600124078000080fb0082
:1012380000000600320078000000e00006003200de
:10124800800178008381fb000118e100f9ff3a0072
:101258000080fd000080fb00000006003400f8005c
:1012680004090200000000000000e0006d003200e8
:10127800010e20000008e10005003a0000ada800ba
:1012880004090200000000000000e00065003200d0
:10129800010f20000008e10005003a0000cda80079
:1012a80004090200000000000000e0005d003200b8
:1012b8008000780000adae0010003700020020006a
:1012c800a2018800628528001e09020000000000b3
:1012d8000000e0000100320050003700020020004a
:1012e800a2018800028528001e09020000000000f3
:1012f8000000e000480032002d003700000dae006d
:101308000800370002002000a2018800828128001e
:101318001e090200000000000000e0000100320089
:101328003e00370002002000a2018800c27a28008f
:101338001e090200000000000000e0000d0032005d
:10134800110620000100e10034003900a107200047
:101358000100e10031003e0000cdaf002e00370053
:10136800006dae000050a200000daf000050a200ba
:101378002a00370002002000a201880062852800a8
:101388001e090200000000000000e0000100320019
:101398002200370002002000a201880042842800b1
:1013a8001e090200000000000000e0001a003200e0
:1013b800110820000100e10004003a00000da90016
:1013c80000cdae00000da800130037003108200042
:1013d8000100e10003003a0000cdae00006daa0054
:1013e8000d003700010820000100e10004003a0068
:1013f800002da90000cdae00002da8000600370082
:10140800210820000100e10003003a00004da90076
:1014180000cdae00002da8000000eb0000cda90013
:1014280000ada9003400f90000000600c862a90058
:10143800c882a90010368000f10f2e00010060005c
:1014480001a02000010070001036880020368000be
:1014580001fe2f0001006000210120000100700042
:1014680020368800b00320001013880061e2a8002d
:101478006822ef00703f200060088800000c880098
:10148800400c8800a0042000100c88002003b00045
:10149800300c880050002000200c8800500c880078
:1014a800f0ff2800a620b60000002500a620b700ff
:1014b800f08f2f00a620b60000502000a620b7000d
:1014c80002a8ef0004e8ef0084e0a90094e0a80077
:1014d80011e1a80000000600000220005180200051
:1014e800af04090080587800000006004440a900b5
:1014f8000000eb00a00188004440a8004427ef004a
:101508004307a80042e7a80081e0a900c0a2ef00b5
:10151800c8a2ef0068a0ef006aa0ef002ca3ef00bc
:101528001a0a020000000000b00a020000000000d1
:10153800da0a02000000000042c7a8000000060006
:10154800b168800080804000b06880000100e10040
:10155800fdff3a0000000600f00f2e008026b600be
:1015680000f020008026b7008220a800700020002c
:10157800ae20b7008680a9009680a800f0e7230077
:1015880010088800f0ff2800a420b60000002300ff
:10159800a420b70000402000b06588008460a9003e
:1015a8009460a80005e1a80000000600007420006f
:1015b800cc22b7000080ea00c822b60000fe2f0047
:1015c800a826b60070002000a826b70000fe2f004d
:1015d800c826b60080002000c826b700f00f2e00ed
:1015e800c626b60000702000c626b700b00320004b
:1015f8001012880041e2a80000000600b805780033
:041608000b40010092
:020000040000fa
:020000040001f9
:0457f800ae2b0000d4
:020000040000fa
:020000040001f9
:0457fc007f3f0000eb
:00000001FF
