:020000040000fa
:080000000002040000000000f2
:020000040000fa
:040008006003000091
:020000040000fa
:04000c00600300008d
:020000040000fa
:040010006003000089
:020000040000fa
:040014006003000085
:020000040000fa
:040018005e03000083
:020000040000fa
:04001c00600300007d
:020000040000fa
:040020006003000079
:020000040000fa
:040024006003000075
:020000040000fa
:040028006003000071
:020000040000fa
:04002c00600300006d
:020000040000fa
:040030006003000069
:020000040000fa
:040034006203000063
:020000040000fa
:040038006003000061
:020000040000fa
:04003c00600300005d
:020000040000fa
:040040008a02000030
:020000040000fa
:040044001c0200009a
:020000040000fa
:040048006003000051
:020000040000fa
:04004c00600300004d
:020000040000fa
:040050006003000049
:020000040000fa
:04005400f0020000b6
:020000040000fa
:04005800140300008d
:020000040000fa
:04005c00600300003d
:020000040000fa
:040060006003000039
:020000040000fa
:040064006003000035
:020000040000fa
:040068006003000031
:020000040000fa
:04006c00600300002d
:020000040000fa
:040070006003000029
:020000040000fa
:04007400380300004d
:020000040000fa
:0400780084030000fd
:020000040000fa
:04007c00600300001d
:020000040000fa
:040080006003000019
:020000040000fa
:040084006003000015
:020000040000fa
:040088006003000011
:020000040000fa
:04008c00600300000d
:020000040000fa
:040090006003000009
:020000040000fa
:040094006003000005
:020000040000fa
:040098006003000001
:020000040000fa
:04009c0060030000fd
:020000040000fa
:0400a0004203000017
:020000040000fa
:0400a40060030000f5
:020000040000fa
:0400a80060030000f1
:020000040000fa
:0400ac0060030000ed
:020000040000fa
:0400b00060030000e9
:020000040000fa
:0400b40060030000e5
:020000040000fa
:0400b80060030000e1
:020000040000fa
:0400bc0060030000dd
:020000040000fa
:0400c00060030000d9
:020000040000fa
:0400c40060030000d5
:020000040000fa
:0400c80060030000d1
:020000040000fa
:0400cc0060030000cd
:020000040000fa
:0400d00060030000c9
:020000040000fa
:0400d40060030000c5
:020000040000fa
:0400d80060030000c1
:020000040000fa
:0400dc0060030000bd
:020000040000fa
:0400e00060030000b9
:020000040000fa
:0400e40060030000b5
:020000040000fa
:0400e80060030000b1
:020000040000fa
:0400ec0060030000ad
:020000040000fa
:0400f00060030000a9
:020000040000fa
:0400f40060030000a5
:020000040000fa
:0400f80060030000a1
:020000040000fa
:0400fc00600300009d
:020000040000fa
:040100006003000098
:020000040000fa
:040104006003000094
:020000040000fa
:040108006003000090
:020000040000fa
:04010c00600300008c
:020000040000fa
:040110006003000088
:020000040000fa
:040114006003000084
:020000040000fa
:040118006003000080
:020000040000fa
:04011c00600300007c
:020000040000fa
:040120006003000078
:020000040000fa
:040124006003000074
:020000040000fa
:040128006003000070
:020000040000fa
:04012c00600300006c
:020000040000fa
:040130006003000068
:020000040000fa
:040134006003000064
:020000040000fa
:040138006003000060
:020000040000fa
:04013c00600300005c
:020000040000fa
:040140006003000058
:020000040000fa
:040144006003000054
:020000040000fa
:040148006003000050
:020000040000fa
:04014c00600300004c
:020000040000fa
:040150006003000048
:020000040000fa
:040154006003000044
:020000040000fa
:040158006003000040
:020000040000fa
:04015c00600300003c
:020000040000fa
:040160006003000038
:020000040000fa
:040164006003000034
:020000040000fa
:040168006003000030
:020000040000fa
:04016c00600300002c
:020000040000fa
:040170006003000028
:020000040000fa
:040174006003000024
:020000040000fa
:040178006003000020
:020000040000fa
:04017c00600300001c
:020000040000fa
:040180006003000018
:020000040000fa
:040184006003000014
:020000040000fa
:040188006003000010
:020000040000fa
:04018c00600300000c
:020000040000fa
:040190006003000008
:020000040000fa
:040194006003000004
:020000040000fa
:040198006003000000
:020000040000fa
:04019c0060030000fc
:020000040000fa
:0401a00060030000f8
:020000040000fa
:0401a40060030000f4
:020000040000fa
:0401a80060030000f0
:020000040000fa
:0401ac0060030000ec
:020000040000fa
:0401b00060030000e8
:020000040000fa
:0401b40060030000e4
:020000040000fa
:0401b80060030000e0
:020000040000fa
:0401bc0060030000dc
:020000040000fa
:0401c00060030000d8
:020000040000fa
:0401c40060030000d4
:020000040000fa
:0401c80060030000d0
:020000040000fa
:0401cc0060030000cc
:020000040000fa
:0401d00060030000c8
:020000040000fa
:0401d40060030000c4
:020000040000fa
:0401d80060030000c0
:020000040000fa
:0401dc0060030000bc
:020000040000fa
:0401e00060030000b8
:020000040000fa
:0401e40060030000b4
:020000040000fa
:0401e80060030000b0
:020000040000fa
:0401ec0060030000ac
:020000040000fa
:0401f00060030000a8
:020000040000fa
:0401f40060030000a4
:020000040000fa
:0401f80060030000a0
:020000040000fa
:0401fc00600300009c
:020000040000fa
:040200006003000097
:020000040000fa
:040204006003000093
:020000040000fa
:04020800600300008f
:020000040000fa
:04020c00600300008b
:020000040000fa
:040210006003000087
:020000040000fa
:040214006003000083
:020000040000fa
:04021800600300007f
:020000040000fa
:04021c00600300007b
:020000040000fa
:040220006003000077
:020000040000fa
:040224006003000073
:020000040000fa
:04022800600300006f
:020000040000fa
:04022c00600300006b
:020000040000fa
:040230006003000067
:020000040000fa
:040234006003000063
:020000040000fa
:04023800600300005f
:020000040000fa
:04023c00600300005b
:020000040000fa
:040240006003000057
:020000040000fa
:040244006003000053
:020000040000fa
:04024800600300004f
:020000040000fa
:04024c00600300004b
:020000040000fa
:040250006003000047
:020000040000fa
:040254006003000043
:020000040000fa
:04025800600300003f
:020000040000fa
:04025c00600300003b
:020000040000fa
:040260006003000037
:020000040000fa
:040264006003000033
:020000040000fa
:04026800600300002f
:020000040000fa
:04026c00600300002b
:020000040000fa
:040270006003000027
:020000040000fa
:040274006003000023
:020000040000fa
:04027800600300001f
:020000040000fa
:04027c00600300001b
:020000040000fa
:040280006003000017
:020000040000fa
:100400000e2eef00700020004a28b7000f002100d8
:100410000e0821000e0078008001b1000001880064
:1004200001c4fe0000c2fe002a6d2b003a067800cf
:080430003c007800000401000b
:020000040000fa
:1004380000e8a90061e2a900801f78001c32ec00e6
:1004480019003200600020001c12e3001c0032007a
:10045800c00020001c12e3001c0032002001200014
:100468001c12e3001c003200200320001c12e300d1
:100478001f003200200f20001c12e3002100320070
:10048800f01020001e52e200010032000000e800d7
:100498001c12e30002003a001ef2ee001cb2ef004c
:1004a8004f00780000400600400a200030488800cd
:1004b800e08a20002048880060088800f8ff37009c
:1004c800a080200030488800f5ff3700400a20004f
:1004d80030488800f2ff3700801420003048880038
:1004e800c01521002048880060088800ecff37000c
:1004f8001f52e200eaff320000c8a90020c8a80085
:10050800e7ff370020c8a900e5ff370000c8a900a9
:10051800809fbe00829fbe00849fbe00861f780019
:100528003200f800e19080002103b100e78260000a
:10053800c308de00020420000110b80004a02c004b
:100548000402400043232a009048800063006000b2
:10055800000601000000000000000000000000008c
:1005680061e2a8000200e0001200320001c0fe00b3
:10057800344078000003eb000070a7000083eb0014
:10058800f007b2004300dd00808041008580400014
:1005980000c2fe00114078000670a7000080ea0043
:1005a8006022ab00feff3a0068e2b7000201e900f2
:1005b800ecff37006022ab00feff3a006822ef0034
:1005c8003200f9004f0378004f02be004f01be0011
:1005d8004f00be00004006000168a900801f780097
:1005e800811f7800c9d1bf000080fb00211a2100bb
:1005f800810040002202ae00060037003011800062
:1006080080487800c631ec00c971ec00f000200089
:10061800c971b600cf0078004f007800004006008e
:100628000188a900801f7800811f7800c211e200ac
:100638000a003200c4d1bf000080fb00211b21004a
:10064800810040001140780024e2b700c231ed007b
:10065800c471ec00f0002000c471b600cf0078002f
:100668004f007800004006000a32ef0013aeae00db
:100678000a12a8000268a9000040060003c8a900e1
:10068800809fbe00829fbe00b0118000a11c210087
:10069800628f800081004100804878001200b0001d
:1006a800f201b200628f88004f01be004f00be0009
:1006b800004006000000fe000000fe000068a900df
:1006c800809fbe00829fbe001632ec002612e20018
:1006d800030032002632ed0001003a0013e1a900c0
:1006e8002452e20003003a002512af003836020017
:1006f800000000004f01be004f00be000040060091
:040708000000fe00ef
:020000040000fa
:10070c00000000008445000058490000540000001f
:10071c006c260000742600008883000084430000cf
:10072c00414c00004c0000007a260000948300002d
:10073c00a52800004c490000542900008a2600001e
:10074c009e830000a6280000434c00004954000082
:10075c002900000094260000a8830000a8280000af
:10076c0042520000414e00004348000029000000a6
:10077c00a0260000b4830000a92800005442000009
:10078c00524100004e43000048290000a8260000fa
:10079c00c2830000a92800003f4200005241000023
:1007ac004e43000048290000b6260000d08300000c
:1007bc00a4280000444f000029000000c4260000bb
:1007cc00de830000a52800003f4400004f290000f4
:1007dc00d6260000e8830000a62800004c4f00003d
:1007ec004f50000029000000e8260000f2830000b2
:1007fc00a72800002b4c00004f4f00005029000090
:10080c0002270000fe8300008349000050400000d6
:10081c00202700000a8400008349000050210000ba
:10082c002a27000012840000865200004542000076
:10083c004f4f000054000000342700001a840000c1
:10084c008745000058450000435500005445000002
:10085c003627000026840000884000004558000020
:10086c004543000055540000450000003e270000a1
:10087c0032840000814000004227000040840000c8
:10088c0082450000400000004a270000468400001a
:10089c008343000045400000582700004e840000b0
:1008ac0082430000400000006827000056840000ce
:1008bc0087420000554600004645000052210000ca
:1008cc004226000020a20000ee850000bc8400003f
:1008dc008e8300005e8400008842000055460000b4
:1008ec004645000052430000210000004226000053
:1008fc0020a20000ee850000c48400008e8300005e
:10090c0072840000874200005546000046450000f6
:10091c00524000004226000020a20000ee8500009c
:10092c004a8400008e830000888400008842000006
:10093c0055460000464500005243000040000000b0
:10094c004226000020a20000ee8500005284000028
:10095c008e8300009c840000823200004000000066
:10096c0072270000b2840000812100008027000063
:10097c00ba84000082430000210000008a27000096
:10098c00c084000082320000210000009627000085
:10099c00c884000081490000a4270000d084000016
:1009ac00814a0000ae270000d68400008655000066
:1009bc004e4c00004f4f000050000000b8270000c4
:1009cc00dc8400008344000055500000c227000066
:1009dc00e884000084320000445500005000000000
:1009ec00ca270000f0840000843f0000445500003a
:1009fc0050000000d6270000fa8400008444000058
:100a0c00524f000050000000e22700000485000057
:100a1c0085320000445200004f500000ea270000cd
:100a2c000e85000084530000574100005000000068
:100a3c00f427000018850000853200005357000091
:100a4c004150000000280000228500008352000065
:100a5c004f540000142800002c850000842d000049
:100a6c00524f00005400000026280000348500007e
:100a7c00844f00005645000052000000362800004c
:100a8c003e850000853200004f56000045520000a4
:100a9c004028000048850000834e000049500000ab
:100aac004e28000052850000823e000052000000db
:100abc00562800005a850000825200003e000000bb
:100acc006028000062850000825200004000000097
:100adc006a2800006a850000835300005040000023
:100aec007428000072850000835300005021000020
:100afc00802800007a8500008352000050400000de
:100b0c0088280000828500008352000050210000dc
:100b1c00922800008a850000845400005543000090
:100b2c004b0000009c2800009285000085440000ca
:100b3c004550000054480000a82800009c85000087
:100b4c0084500000494300004b000000b628000010
:100b5c00a6850000853e000043530000544b000066
:100b6c00c4280000b08500008543000053540000e9
:100b7c004b3e0000d2280000ba85000083480000dc
:100b8c004558000042260000a4830000100000001d
:100b9c0080890000bc8400008e830000c4850000a6
:100bac008744000045430000494d0000414c0000c3
:100bbc0042260000a48300000a0000008089000087
:100bcc00bc8400008e830000d6850000812b0000c1
:100bdc00e0280000ec850000812d0000e8280000d2
:100bec00f2850000823100002b000000f22800008a
:100bfc00f8850000823200002b000000fa2800006b
:100c0c0000860000823100002d0000000229000047
:100c1c0008860000823200002d0000000a29000026
:100c2c0010860000823200002a0000001229000009
:100c3c0018860000823200002f0000001a290000e4
:100c4c0020860000864c00005348000049460000f6
:100c5c005400000022290000288600008652000063
:100c6c00534800004946000054000000322900009f
:100c7c0034860000822b0000210000004229000075
:100c8c0040860000824d00002b000000502900001f
:100c9c0048860000812a0000602900005086000070
:100cac00824d00002a0000006a29000056860000d0
:100cbc00835500004d2a0000762900005e86000056
:100ccc0083550000442a000042260000ec840000fa
:100cdc005e850000628600000a8500001e8500000b
:100cec00668500006286000030850000ee850000fd
:100cfc008e83000066860000812f00008229000090
:100d0c0082860000834d00004f44000090290000b3
:100d1c0088860000822a00002f0000009e29000017
:100d2c0090860000852a00002f4d00004f440000e3
:100d3c00b029000098860000842f00004d4f000061
:100d4c0044000000c4290000a28600008655000063
:100d5c004d2f00004d4f000044000000d42900002e
:100d6c00ac860000834d000041580000e6290000cd
:100d7c00b8860000834d0000494e0000f4290000a5
:100d8c00c0860000845500004d4100005800000052
:100d9c00022a0000c8860000845500004d4900005e
:100dac004e000000102a0000d2860000865700007a
:100dbc0049540000484900004e0000001e2a000063
:100dcc00dc86000084450000564500004e00000003
:100ddc00362a0000e8860000834f000044440000df
:100dec00442a0000f28600008341000042530000b8
:100dfc00522a0000fa8600008444000041420000a0
:100e0c00530000005c2a000002870000835300009e
:100e1c003e440000722a00000c870000873f00004f
:100e2c004e4500004741000054450000822a000056
:100e3c0014870000865300004d2f0000524500001f
:100e4c004d00000042260000f6840000aa87000036
:100e5c005e850000448500005e850000fe86000073
:100e6c005e8500000887000066850000b4860000df
:100e7c001e850000668500001c8700001e85000092
:100e8c00668500001c8700008e8300002087000010
:100e9c00864600004d2f00004d4f0000440000001e
:100eac0042260000ec8400005e850000f684000001
:100ebc00aa8700005e8500005e85000008870000a0
:100ecc006e850000fe860000b48600001e850000c2
:100edc00668500001c8700001e85000066850000ea
:100eec00f2870000da83000014000000ce870000b7
:100efc0044850000da8300000c0000006e850000c1
:100f0c0030850000f48500001e8500000c86000072
:100f1c00668500000a8500008e8300004e87000065
:100f2c00834100004e440000902a00009687000088
:100f3c00824f000052000000982a00009e8700009b
:100f4c00835800004f520000a02a0000a687000022
:100f5c00864900004e560000455200005400000027
:100f6c00a82a0000ae87000087440000494e00000c
:100f7c005645000052540000b02a0000ba87000009
:100f8c00864e00004547000041540000450000001b
:100f9c00ba2a0000c6870000874400004e450000b6
:100fac004741000054450000c22a0000d2870000cf
:100fbc00823000003d000000d22a0000de870000d5
:100fcc00833000003c3e0000dc2a0000e687000075
:100fdc00823000003c000000ec2a0000ee8700008c
:100fec00823000003e000000f82a0000f687000066
:100ffc00813d0000022b0000fe870000823c0000b7
:10100c003e000000122b000004880000813c000010
:10101c00222b00000c880000813e0000322b0000c7
:10102c0012880000825500003c000000422b00009a
:10103c0018880000825500003e000000522b000072
:10104c002088000084430000454c00004c00000048
:10105c00622b00002888000085430000454c0000ee
:10106c004c2b00006c2b00003288000085430000e4
:10107c00454c00004c530000742b00003c880000d1
:10108c00854100004c490000474e000042260000fc
:10109c0084880000f6860000da830000100000004f
:1010ac00a48300000000000084880000c4840000b9
:1010bc00a483000001000000189200008e83000041
:1010cc0046880000874100004c490000474e000054
:1010dc00454400007e2b000068880000853e00001f
:1010ec004348000041520000882b00007488000027
:1010fc0084480000455200004500000042260000d4
:10110c0074890000428400008e8300007e880000f9
:10111c00844d00004f56000045000000962b000047
:10112c008e880000854300004d4f0000564500009e
:10113c00b62b000098880000854300004841000051
:10114c0052530000422600008e830000a28800004b
:10115c008543000048410000522b0000422600004d
:10116c00fc8500008e830000ae88000084430000e4
:10117c00484100005200000042260000448a000052
:10118c00248e0000ec8400005a840000e2870000ea
:10119c0030900000106d000069730000736900004e
:1011ac006e67000020630000617200006163000044
:1011bc007465000072000000fc8500005a84000079
:1011cc008e830000bc880000c65b00004348000012
:1011dc00415200005d00000042260000089600000d
:1011ec00c2880000fe920000a48300001c8f000047
:1011fc008e830000ea880000845300004341000005
:10120c004e000000d62b000002890000844600002e
:10121c00494c00004c000000f82b00000c89000029
:10122c00892d000054520000414900004c49000037
:10123c004e470000162c0000168900008550000057
:10124c00414300004b24000042260000708800003f
:10125c00ec8400005e85000044850000ec840000f6
:10126c00a483000000000000a48300000200000022
:10127c00b48600000a850000f48500004485000057
:10128c00ee850000a4830000000000001e85000015
:10129c00bc840000f6840000c4840000a483000019
:1012ac0001000000ee8500001e8500009e880000f5
:1012bc00668500008e8300002489000085530000a1
:1012cc0054410000544500004c2600000c00000066
:1012dc006489000082440000500000004c2600008d
:1012ec000a00000070890000844200004153000095
:1012fc00450000004c2600000e0000007a8900001a
:10130c0089530000595300004c4100005445000023
:10131c00535400004c260000180000008689000081
:10132c00864c00004154000045530000540000005e
:10133c004c2600001a000000968900008252000022
:10134c00300000004c26000014000000a4890000ae
:10135c0082530000300000004c26000012000000f8
:10136c00ae89000083500000414400004c26000070
:10137c0002000000b88900008354000049420000bc
:10138c004c26000000000000c2890000833e0000d3
:10139c00494e00004c26000010000000cc890000d3
:1013ac0082480000500000004c260000160000008f
:1013bc00d689000086270000534f000055520000cc
:1013cc00434500004c26000004000000e0890000aa
:1013dc0087230000534f0000555200004345000086
:1013ec004c26000006000000ee8900008756000025
:1013fc0045520000534900004f4e00002c2c0000b9
:10140c00fc89000086520000414d0000454e000052
:10141c0044000000362c0000088a000085490000ba
:10142c004d4d000045440000402c0000148a000083
:10143c008648000049440000444500004e0000006e
:10144c004a2c00001e8a0000854e00004d41000011
:10145c00524b0000542c00002a8a0000874c0000dc
:10146c00454e00004d410000534b00005e2c000027
:10147c00348a0000824200004c000000682c0000fe
:10148c00408a000087540000494200005349000084
:10149c005a450000722c0000488a0000875000005a
:1014ac0041440000534900005a4500007c2c0000c8
:1014bc00548a0000865500004c4900004d4900003c
:1014cc0054000000862c0000608a00008544000057
:1014dc004f4300004f4c0000902c00006c8a000021
:1014ec008154000052550000450000009a2c000069
:1014fc00768a000081460000414c000053450000f4
:10150c00a42c0000808a00008344000050300000ae
:10151c00ae2c00008a8a000086420000544800006d
:10152c004541000044000000b82c0000928a0000e5
:10153c00854d00004147000049430000c22c0000cb
:10154c009e8a000086420000545300004947000068
:10155c004e000000cc2c0000a88a0000874200003e
:10156c00544c00004154000053540000d62c000091
:10157c00b48a000084420000544400005000000073
:10158c00e02c0000c08a000086420000545300008a
:10159c00495a000045000000ea2c0000ca8a0000ed
:1015ac008646000042540000524f000057000000d5
:1015bc00f42c0000d68a0000884b0000455900002e
:1015cc00424f00004152000044000000fe2c00007d
:1015dc00e28a00008653000043520000454500009b
:1015ec004e000000082d0000f08a00008653000019
:1015fc0045520000494100004c000000122d000033
:10160c00fc8a000084580000524100004d0000008c
:10161c001c2d0000088b0000864500004550000082
:10162c00524f00004d000000262d0000128b0000d0
:10163c008653000044430000415200004400000067
:10164c00302d00001e8b0000864d0000464c000023
:10165c0041530000480000003a2d00002a8b000086
:10166c0086270000534f00005552000043450000f0
:10167c00442d0000368b0000875300004f550000ae
:10168c005243000045210000522d0000428b000007
:10169c00863f000044490000474900005400000008
:1016ac0042260000ec840000a483000060000000cf
:1016bc0024880000da83000008000000a4830000e6
:1016cc0020000000f4850000ec840000a4830000de
:1016dc003900000024880000da8300001a000000a2
:1016ec00ec840000a4830000410000001c88000072
:1016fc00da83000008000000a48300000000000052
:10170c008e830000a483000007000000f485000015
:10171c00a483000030000000f4850000ec8400007d
:10172c0080890000428400001c8800008e83000029
:10173c004e8b0000873f0000444f000055420000d4
:10174c004c45000042260000448500005a840000ed
:10175c00a48300002e00000000880000da83000043
:10176c0010000000a483000001000000de8d0000ca
:10177c00a4830000ffff0000be83000018000000df
:10178c00448500005a840000a48300002c00000053
:10179c0000880000da83000006000000be83000011
:1017ac00e2ff0000a4830000000000008e83000014
:1017bc00a08b0000873e00004e5500004d420000fb
:1017cc004552000042260000a483000000000000e7
:1017dc005e850000ec840000da83000050000000fd
:1017ec00448500005a840000568b0000cc83000016
:1017fc002200000066850000da8300004200000031
:10180c000a850000a88b0000da8300003c00000071
:10181c006685000066850000a483000002000000bd
:10182c00a28700005e8500005e850000be8300007c
:10183c00ccff0000668500000a850000a483000030
:10184c00ffff00005e8500005e850000288500001b
:10185c0080890000428400006a86000066850000d2
:10186c004c86000028850000a483000001000000c5
:10187c00de8d0000be830000aeff00006685000018
:10188c000a8500008e830000e08b0000853f00007d
:10189c0053490000474e00004226000044850000da
:1018ac005a840000b08300002d0000000088000066
:1018bc00cc8300000a000000a4830000000000009c
:1018cc00be8300000c000000a48300000100000097
:1018dc00de8d0000a4830000010000008e83000058
:1018ec004c8c0000853f0000424100005345000035
:1018fc0042260000448500005a840000b08300009a
:10190c002400000000880000da8300000e000000b4
:10191c00a48300001000000080890000bc8400003b
:10192c00be83000032000000448500005a84000091
:10193c00b08300002300000000880000da83000060
:10194c000e000000a48300000a0000008089000043
:10195c00bc840000be830000180000004485000019
:10196c005a840000b08300002500000000880000ad
:10197c00da83000012000000a483000002000000c3
:10198c0080890000bc8400001e850000fc850000de
:10199c001e8500000c8600008e830000788c0000f1
:1019ac00873f00004e5500004d420000455200009c
:1019bc004226000080890000428400005e85000001
:1019cc00ec840000a483000000000000ec84000004
:1019dc0030850000c68e00007e8c0000528c00000a
:1019ec005e850000e88b0000da8300001000000028
:1019fc00668500001485000014850000a483000097
:101a0c0000000000be830000240000000a850000d6
:101a1c00308500000a8500006e850000f686000007
:101a2c00da83000004000000da87000066850000fd
:101a3c00a4830000020000009a870000cc83000001
:101a4c00040000000a850000a4830000ffff0000d2
:101a5c006685000080890000bc8400008e83000035
:101a6c00d68c0000855700004f52000044530000f4
:101a7c0042260000a483000000000000349a0000fd
:101a8c009e89000042840000ec840000e287000084
:101a9c00cc83000046000000ec8400005a84000057
:101aac00268a00009a870000da83000008000000f4
:101abc0014860000be830000e6ff0000ec840000ea
:101acc00ec8400005a8400003c8a00009a870000d5
:101adc00ec840000d2990000ee850000a483000085
:101aec00400000001c880000cc83000004000000b3
:101afc00349a00005e850000fc85000066850000bd
:101b0c007c9a00003e9a0000148600001e8500009e
:101b1c00fc8500001e850000be830000b4ff0000a1
:101b2c000a850000349a0000fa9b00008e830000a6
:101b3c00388d0000855500005050000045520000c3
:101b4c00602d0000a08d0000845300004b49000064
:101b5c0050000000822d0000aa8d0000874100007b
:101b6c00445200003e4900004e0000004226000096
:101b7c003e8b00003085000030850000f4850000ad
:101b8c00c4860000a483000000000000bc86000096
:101b9c00d0890000bc8400008e830000b48d00004e
:101bac00872f000053540000524900004e4700009c
:101bbc00422600003085000044850000ee850000c0
:101bcc003085000030850000f48500008e83000015
:101bdc00d68d000085500000415200005345000096
:101bec00422600003e8b0000d08900004284000099
:101bfc00de8d0000448500005e850000308500000d
:101c0c0008890000448500001e850000da8300006e
:101c1c0004000000fc850000bc8d000066850000ff
:101c2c0098850000f48500008e830000f08d000084
:101c3c00845700004f520000440000004226000070
:101c4c00ec8400003e8b0000d08900004284000030
:101c5c00de8d000030850000b08d00000a8500008c
:101c6c00bc8d0000f68d0000848800000a8f0000f7
:101c7c00848800008e8300001e8e000084460000c5
:101c8c00494e0000440000009e2d0000448e0000d0
:101c9c008641000043430000455000005400000002
:101cac004226000044850000ee8500005e850000a1
:101cbc00ec840000d29e0000ec840000a4830000a1
:101ccc000d00000000880000da8300001600000000
:101cdc000a850000448a000044850000c48400008a
:101cec001e850000f4850000fc8500006685000060
:101cfc000a8500008e830000ec840000a4830000a1
:101d0c000800000000880000da83000014000000c6
:101d1c000a850000f684000000880000cc830000d7
:101d2c00caff0000c89a00000c860000be830000a9
:101d3c00c2ff0000448500006e8500000088000092
:101d4c00cc83000010000000ec8400002c9a0000f2
:101d5c0044850000c4840000fc850000be830000a4
:101d6c00aaff00000a850000be830000a4ff00004b
:101d7c004e8e0000854300004f5500004e5400006d
:101d8c0042260000ec8400005a8400005e850000ae
:101d9c00fc850000668500008e830000c08e00006c
:101dac0085450000525200004f52000042260000b0
:101dbc003e9a0000c68e00007c9a00003e9a0000fd
:101dcc00b08300003f0000002c9a0000a4830000a8
:101ddc00000000006a890000bc840000b289000089
:101dec00428400007e850000349a0000629000005e
:101dfc00d68e0000883e0000434f0000554e000078
:101e0c00544500004400000042260000f684000007
:101e1c00c4840000fc8500001e8500009e88000024
:101e2c008e830000008f0000812c000042260000f1
:101e3c0084880000bc840000a48300000200000021
:101e4c00189200008e8300001a8f0000824300005d
:101e5c002c0000004226000084880000c48400008e
:101e6c00a483000001000000189200008e83000083
:101e7c002c8f0000894900004e5400004552000090
:101e8c005052000045540000422600004a8b0000ce
:101e9c00a483000000000000d0890000bc84000076
:101eac00448a0000248e0000ec8400005a84000058
:101ebc00da83000040000000a68d00004a8e00006e
:101ecc0000850000da8300001c000000fc85000087
:101edc006a89000042840000e2870000a2870000ab
:101eec00da830000080000002e840000be8300008e
:101efc00d8ff00001c8f0000be830000d2ff000042
:101f0c00de8c0000da8300000800000064930000ff
:101f1c00be830000c6ff0000c68e00007c9a000045
:101f2c00a48300003f0000002c9a0000349a0000ab
:101f3c00029000000a8500008e830000408f000094
:101f4c0088450000564100004c55000041540000eb
:101f5c0045000000422600003e8b00005e8500001c
:101f6c005e850000d0890000428400005e85000080
:101f7c004a8f000066850000d0890000bc840000f8
:101f8c0066850000668500004a8b00008e83000089
:101f9c00a68f0000824f00004b000000422600007c
:101fac00d2990000a483000003000000ee8500001d
:101fbc00a4830000400000000e880000cc830000c9
:101fcc0004000000349a00003e9a0000a483000034
:101fdc004f0000002c9a0000a48300004b0000006e
:101fec002c9a00008e830000d08f000085410000e9
:101ffc00424f000052540000422600006a89000043
:10200c0042840000da830000140000009e89000066
:10201c0042840000ba900000ec840000428400006e
:10202c009e890000bc84000074890000bc84000000
:10203c00b2890000428400007e850000629000009e
:10204c00fc8f0000a63f0000414200004f520000f0
:10205c0054000000422600007e9300001e85000004
:10206c00da8300000a000000c68e00007c9a000093
:10207c00349a0000029000000a8500008e83000054
:10208c0028900000c6410000424f0000525400004e
:10209c002200000042260000fe920000309000005a
:1020ac00e09300008e8300004890000084510000f3
:1020bc00554900005400000042260000a889000089
:1020cc00428400008e850000a48300000000000004
:1020dc006a890000bc840000c689000042840000ac
:1020ec00ec840000a48300003f000000568e00002a
:1020fc003e9a00004a8f00006a890000428400006a
:10210c00cc83000004000000d48f0000349a00003f
:10211c00be830000e2ff00005c900000c1280000bc
:10212c0042260000a483000029000000f68d000068
:10213c00148500008e83000094900000c15c0000a8
:10214c00422600003e8b0000ee850000bc8d000096
:10215c008e830000a4900000874e000046410000d2
:10216c003e4c00004641000042260000a4830000c3
:10217c0002000000f48500008e830000b290000085
:10218c00874e0000464100003e43000046410000df
:10219c0042260000ec8400005a840000a483000056
:1021ac001f0000009a870000ee850000fc850000ef
:1021bc00708800008e830000c6900000853e0000f1
:1021cc00424f0000445900004226000038880000ad
:1021dc008e830000e490000087430000464100001d
:1021ec003e4e00004641000042260000ec840000f8
:1021fc00a4830000001300001c880000da83000098
:10220c000a000000ec840000aa870000be830000d6
:10221c005a000000ec8400005e850000a4830000de
:10222c00210000005e8500000c860000ec8400009c
:10223c005a840000ec840000a4830000800000009d
:10224c009a870000cc830000140000000a8500006f
:10225c00668500000c860000ec840000da83000028
:10226c002a0000005e850000be830000deff000037
:10227c00668500000a850000a48300001f00000092
:10228c009a87000044850000ee850000fc85000064
:10229c00708800006685000000880000ec84000057
:1022ac00da8300000c0000000a850000be830000e9
:1022bc000a000000668500000a8500001e850000eb
:1022cc000a8500008e830000f29000008545000016
:1022dc004d50000054590000422600008e8a000028
:1022ec004284000084880000008800008e83000077
:1022fc006c910000894900004d4d000045440000e0
:10230c004941000054450000422600007291000033
:10231c00cc830000120000009e8900004284000063
:10232c00ec8400005a8400001a8a0000a287000086
:10233c001e850000c48400008e8300008091000084
:10234c00844800004944000045000000422600007b
:10235c0072910000cc830000120000009e890000e6
:10236c0042840000ec8400005a840000268a00009d
:10237c00a28700001e850000c48400008e8300002c
:10238c00a6910000a72800004e4d0000415200000d
:10239c004b2900004226000072910000cc83000003
:1023ac00120000009e89000042840000ec840000b2
:1023bc005a840000308a0000a28700001e850000ad
:1023cc00c48400008e830000c89100008652000077
:1023dc0045560000454100004c000000422600001c
:1023ec0072910000cc830000140000009e89000054
:1023fc0042840000ec8400005a840000268a00000d
:10240c00b68700009a8700001e850000c484000077
:10241c008e830000ec910000854100004c4c0000c4
:10242c004f540000422600007489000044860000ce
:10243c008e830000129200008127000042260000cb
:10244c00448a0000248e0000ec8400005a840000b2
:10245c00e28700002e960000a68d00004a8e000038
:10246c00da83000006000000be83000012000000aa
:10247c00c68e00007c9a00003e9a0000a4830000e7
:10248c003f0000002c9a0000349a000002900000db
:10249c008e83000022920000c35b0000275d0000c9
:1024ac00422600000896000024920000fe920000d4
:1024bc00a48300001c8f00008e8300005292000049
:1024cc00c53c00004d410000524b0000422600006c
:1024dc0008960000848800008e830000669200003d
:1024ec00c83c000052450000534f00004c56000001
:1024fc004500000042260000089600008488000079
:10250c00f48500001c8f00008e8300007692000082
:10251c00c53e00004d410000524b00004226000019
:10252c000896000084880000a483000000000000ce
:10253c001c8f00008e8300008e920000c83e0000ad
:10254c0052450000534f00004c560000450000005f
:10255c004226000008960000ec84000084880000ed
:10256c001e850000f48500001e850000bc84000060
:10257c008e830000a4920000c15b00004226000084
:10258c00a4830000000000006a890000bc840000e5
:10259c008e830000c2920000c15d00004226000044
:1025ac00a4830000ffff00006a890000bc840000c7
:1025bc008e830000d2920000c95b0000434f0000e4
:1025cc004d500000494c0000455d000042260000c3
:1025dc0008960000249200001c8f00008e830000df
:1025ec00e2920000c6430000464100002c000000af
:1025fc004226000066850000ec8400004284000046
:10260c001c8f0000388800005e8500008e8300005f
:10261c00f8920000853f0000574f00005244000024
:10262c0042260000448a0000248e0000a68d000083
:10263c004a8e000000850000e2870000da8300006b
:10264c000e000000c68e00007c9a0000a4830000df
:10265c003f0000002c9a0000029000008e830000c6
:10266c0010930000c85000004f530000545000005d
:10267c004f4e000045000000422600000896000066
:10268c0016930000fa8700000c000000a4830000e1
:10269c00a48300001c8f0000be8300000400000017
:1026ac001c8f00008e83000038930000c74c000084
:1026bc004954000045520000414c000042260000e5
:1026cc006a89000042840000da83000008000000e0
:1026dc00fe920000a48300001c8f00008e8300007b
:1026ec005c930000a5280000444f00002429000042
:1026fc0042260000668500006e850000668500009d
:10270c00c68e0000ee850000708800005e8500001b
:10271c001e8500005e8500008e830000789300000b
:10272c00a4280000532200002900000042260000cb
:10273c007e930000c68e00008e83000096930000ee
:10274c00a4280000432200002900000042260000bb
:10275c007e9300008e830000a6930000a428000046
:10276c002e22000029000000422600007e9300006b
:10277c00c68e00007c9a00008e830000b49300008b
:10278c00a45300004c4900005400000042260000f5
:10279c00a483000022000000248e0000c68e0000de
:1027ac008e830000c6930000a42800002c22000099
:1027bc002900000042260000cc930000ee850000aa
:1027cc007088000074890000bc8400008e830000b7
:1027dc00da930000c25300002200000042260000e1
:1027ec0008960000fe9200009c930000e09300000d
:1027fc008e830000f0930000c24300002200000012
:10280c004226000008960000fe920000ac930000e7
:10281c00e09300008e83000002940000c22e0000a2
:10282c0022000000422600006a8900004284000059
:10283c00da8300000a000000fe920000ba93000048
:10284c00e09300008e830000cc9300007c9a000083
:10285c008e83000014940000c75200004543000012
:10286c005552000053450000422600009e8900008e
:10287c0042840000ce9000001c8f00008e8300006c
:10288c0032940000c24400004f00000042260000b9
:10289c0008960000fe920000e4830000848800008b
:1028ac00b6850000a483000000000000b68500007f
:1028bc008e83000048940000c33f0000444f00008a
:1028cc004226000008960000fe920000ee830000f5
:1028dc0084880000a48300000200000042880000ed
:1028ec00ee850000b6850000a48300000000000007
:1028fc00b6850000fe920000be830000949200009a
:10290c00b68500008e83000062940000c54c000068
:10291c004541000056450000422600000896000084
:10292c00fe920000e4840000fe920000be830000d2
:10293c0094920000b68500008e8300008c940000f9
:10294c00e7460000495800004c4f00004f50000073
:10295c0042260000c085000000850000da830000dc
:10296c0014000000ec84000084880000388800000b
:10297c001e850000f48500001e850000bc8400004c
:10298c00be830000e8ff0000c085000080920000bc
:10299c008e830000a6940000c44c00004f4f000032
:1029ac00500000004226000008960000fe92000035
:1029bc00fa830000ae9400008e830000d2940000d5
:1029cc00c52b00004c4f00004f5000004226000069
:1029dc0008960000fe92000006840000ae940000f1
:1029ec008e830000e6940000c542000045470000bd
:1029fc00494e000042260000089600006c92000030
:102a0c008e830000fa940000c5410000474100008d
:102a1c00494e00004226000008960000fe9200007d
:102a2c00be830000809200008e8300000a95000097
:102a3c00c55500004e540000494c000042260000d1
:102a4c0008960000fe920000da83000080920000dd
:102a5c008e8300001e950000c24900004600000055
:102a6c004226000008960000fe920000da83000067
:102a7c00949200008e83000032950000c454000034
:102a8c00484500004e000000422600000896000059
:102a9c00ae9200008e83000044950000c4450000f7
:102aac004c53000045000000422600000896000030
:102abc00fe920000be830000949200001e85000070
:102acc004a9500008e83000054950000c557000005
:102adc00484900004c4500004226000008960000c2
:102aec00fe920000da830000949200001e85000024
:102afc008e8300006c950000c6520000455000000b
:102b0c0045410000540000004226000008960000d9
:102b1c00fe920000be83000080920000ae92000086
:102b2c008e83000082950000c443000041530000d6
:102b3c00450000004226000008960000a483000017
:102b4c00000000008e8300009a950000c24f000028
:102b5c00460000004226000008960000fe9200008d
:102b6c0044850000fe92000000880000fe920000e8
:102b7c00da830000949200008e830000ac95000074
:102b8c00c54500004e4400004f46000042260000a0
:102b9c0008960000fe920000be8300009492000094
:102bac001e850000ae9200008e830000c6950000ca
:102bbc00c74500004e44000043410000534500004f
:102bcc00422600000896000000850000da83000011
:102bdc0008000000ae920000be830000f6ff00006b
:102bec00fe9200000a8500008e830000de95000036
:102bfc00c83f0000434f00004d500000494c0000fe
:102c0c0045000000422600006a8900004284000052
:102c1c00e287000030900000116300006f6d00002f
:102c2c00706900006c650000206f00006e6c000085
:102c3c0079200000776f0000726400008e83000022
:102c4c00fe950000853f00004e4100004d45000000
:102c5c0042260000309000000c6e0000616d0000f8
:102c6c00652000006d69000073730000696e000040
:102c7c00670000008e83000028960000873a000051
:102c8c004e4f00004e4100004d4500004226000012
:102c9c0084880000fe92000042260000d4920000be
:102cac008e83000044960000c54500005849000082
:102cbc00542c000042260000fe9200008e8300007f
:102ccc008e8300005a9600008648000045410000a3
:102cdc004445000052000000422600009e8900007e
:102cec00ec840000428400001c8f000084880000eb
:102cfc001e850000bc840000448a0000248e000065
:102d0c00a68d00005a840000ec840000e2870000cd
:102d1c002e960000fc850000189200004c880000e4
:102d2c00d0910000ac9100008e8300006a960000e8
:102d3c00864600004f52000047450000540000003a
:102d4c004226000024920000fa900000ba90000085
:102d5c00ec840000a48300000080000024880000a4
:102d6c00309000001a430000616e000027740000d0
:102d7c00206600006f720000676500007420000080
:102d8c00776f000072640000206900006e20000064
:102d9c00464c00004153000048000000ec84000049
:102dac0074890000bc840000428400009e890000ed
:102dbc00bc8400008e8300009e960000813a0000c7
:102dcc004226000072960000d4920000fe92000091
:102ddc00422600008e830000e42d0000e4960000e3
:102dec00864300005245000041540000450000009d
:102dfc004226000072960000f4910000fe92000042
:102e0c0042260000fe920000f2960000fe920000a6
:102e1c0090830000609600008e8300004226000024
:102e2c0066850000ec840000388800005e85000098
:102e3c00428400009e89000042840000ce90000075
:102e4c00a48300000200000042880000ee85000010
:102e5c00bc8400008e830000f6960000c544000080
:102e6c004f450000533e000042260000fe92000039
:102e7c001497000084880000a48300000200000066
:102e8c0042880000ee8500001c8f00006096000058
:102e9c004c9600000a8500008e83000034970000d9
:102eac00885600004152000049410000424c00008d
:102ebc004500000042260000fe960000a48300009e
:102ecc00000000001c8f00008e830000569700004d
:102edc00884300004f4e000053540000414e000048
:102eec00540000004226000072960000f49100008d
:102efc00a4830000622600001c8f00001c8f0000c1
:102f0c008e8300006e970000c13b0000422600003b
:102f1c000896000060960000f4910000c492000036
:102f2c008e8300008a970000a82800004e4f0000f6
:102f3c00494e0000495400002900000042260000c0
:102f4c00ba9300001a5500006e6900006e6900000b
:102f5c0074690000616c0000697a0000656400000f
:102f6c002064000065660000657200006564000066
:102f7c00207700006f72000064000000349a00009b
:102f8c00029000009a97000085440000454600001e
:102f9c00455200004226000072960000fe9200008e
:102fac0042260000fe920000a4970000fe92000052
:102fbc008e830000f49100008e830000ca970000fd
:102fcc0086440000454600004552000021000000e8
:102fdc004226000038880000bc8400008e8300006c
:102fec00e69700008644000045460000455200006c
:102ffc004000000042260000388800004284000097
:10300c008e830000f89700008249000053000000f6
:10301c0042260000169300000a8500003888000044
:10302c00bc8400008e8300000a980000c22e0000b1
:10303c002800000042260000a483000029000000a4
:10304c00248e0000c68e00007c9a00008e83000047
:10305c001c980000833200003e5200004226000003
:10306c00668500003a8500001e8500005e85000024
:10307c005e8500005e8500008e83000030980000a5
:10308c0083320000523e000042260000668500009c
:10309c0066850000668500001e85000030850000f6
:1030ac005e8500008e83000046980000833200008d
:1030bc005240000042260000668500006685000034
:1030cc006e850000448500005e85000030850000a0
:1030dc005e8500001e8500008e8300005c98000059
:1030ec00843f0000445300005000000042260000c2
:1030fc0076850000b2890000428400001c88000024
:10310c003090000011530000207300007461000027
:10311c00636b0000207500006e6400006572000097
:10312c00666c00006f77000076850000b2890000a5
:10313c0042840000a48300004000000014860000bc
:10314c00ee85000024880000309000001053000031
:10315c002073000074610000636b0000206f00009e
:10316c0076650000726600006c6f0000770000004e
:10317c008e83000076980000822e00005300000021
:10318c0042260000a2850000b08300003c00000035
:10319c002c9a0000ec840000fa9b0000b083000025
:1031ac003e0000002c9a00003e9a000000850000b2
:1031bc00da8300000e000000ec840000ac850000f7
:1031cc00fa9b00000c860000be830000f0ff00009c
:1031dc008e830000c2980000842e00005254000020
:1031ec004e0000004226000080890000428400004e
:1031fc00c8850000b0830000520000002c9a00002b
:10320c00b08300003a0000002c9a0000a88900004e
:10321c0042840000ec84000042840000fa9b000011
:10322c0004860000ec84000086850000a483000066
:10323c0002000000f485000000880000da83000022
:10324c00eaff0000349a00000a8500008089000023
:10325c00bc8400008e830000f298000085480000ba
:10326c00445500004d50000042260000008500002f
:10327c00cc830000040000008e83000080890000d5
:10328c00428400005e850000c88500001e85000099
:10329c00a4830000feff00009a8700001e8500003a
:1032ac00a483000000000000e4830000d28400002e
:1032bc00a4830000070000009a870000cc83000064
:1032cc000e000000349a0000ec840000a48300007f
:1032dc0005000000cc9b00003e9a0000ec8400002e
:1032ec004a840000a483000005000000cc9b000071
:1032fc00a483000002000000ee850000fa830000a9
:10330c00d6ff00000a850000668500008089000059
:10331c00bc8400008e830000f02d00003499000066
:10332c0085560000494400004f4e0000542e00000a
:10333c00969900008743000055520000454e00004e
:10334c00424c0000602e0000a09900008343000056
:10335c004c5300007c2e0000ac99000086530000fa
:10336c00435200004c55000050000000982e000005
:10337c00b499000086530000435200004c440000f6
:10338c004e000000a22e0000c099000084470000ef
:10339c004554000058000000ac2e0000cc990000f1
:1033ac00844700004554000059000000ba2e00006c
:1033bc00d6990000845300004554000058000000ca
:1033cc00c82e0000e0990000845300004554000012
:1033dc0059000000e62e0000ea9900008643000028
:1033ec0055520000504f00005300000042260000d0
:1033fc00e6990000f09900008e830000f49900001b
:10340c00844c00004546000054000000042f0000ce
:10341c00069a0000855200004947000048540000fd
:10342c002a2f0000109a000087540000474c00001f
:10343c004348000041520000542f00001a9a00002b
:10344c00844500004d490000540000006a2f000024
:10345c00269a000082430000520000008a2f0000d0
:10346c00309a000085530000504100004345000095
:10347c009c2f0000389a0000865300005041000039
:10348c00434500005300000042260000ec8400007d
:10349c00a48300000000000014880000cc8300000e
:1034ac00060000000a8500008e830000a483000043
:1034bc0000000000e48300003e9a0000fa83000044
:1034cc00fcff00008e830000429a00008543000040
:1034dc004c5200004c4e0000a22f00006c9a0000d1
:1034ec0084540000595000004500000042260000a2
:1034fc00ec840000cc830000060000001485000062
:10350c008e830000a483000000000000e483000010
:10351c00ec8400005a84000000850000da8300006f
:10352c000e0000002c9a0000fc850000fa830000bd
:10353c00f0ff0000be83000004000000e4840000e3
:10354c000a8500008e830000769a000086440000f5
:10355c00454c000045540000450000004226000088
:10356c00448a00002c9a00008e830000ac9a000064
:10357c0088420000414300004b43000048410000da
:10358c0052000000422600000c9a0000b49a000081
:10359c000c9a00008e830000be9a00008544000047
:1035ac00494700004954000042260000a483000053
:1035bc0009000000448500000e880000a483000070
:1035cc00070000009a870000ee850000a48300002d
:1035dc0030000000ee8500008e830000d49a0000bd
:1035ec00874500005854000052410000435400002d
:1035fc0042260000a4830000000000001e8500008d
:10360c00b48600001e850000da9a00008e8300004c
:10361c00f69a0000823c00002300000042260000c5
:10362c00bc890000428400005c8a0000ee8500002a
:10363c00da890000bc8400008e830000109b00001f
:10364c00844800004f4c000044000000422600005b
:10365c00a4830000ffff0000da890000448600000c
:10366c00da89000042840000c48400008e830000cc
:10367c00269b000081230000422600008089000068
:10368c0042840000fe9a00002c9b00008e830000f8
:10369c00409b0000822300005300000042260000e3
:1036ac00429b0000ec840000cc830000faff000079
:1036bc008e830000509b000084530000494700009b
:1036cc004e00000042260000f2870000da83000062
:1036dc0008000000b08300002d0000002c9b0000af
:1036ec008e830000629b0000822300003e000000dd
:1036fc00422600000a850000da890000428400009e
:10370c00bc890000428400005c8a0000ee85000049
:10371c0044850000f48500008e8300007a9b000035
:10372c00835300005452000042260000ec84000039
:10373c005e850000fe860000149b0000549b000078
:10374c0066850000689b00007e9b00008e83000055
:10375c00969b0000822e00005200000042260000c2
:10376c005e8500009a9b0000668500004485000081
:10377c00f48500004a9a00007c9a00008e830000b9
:10378c00b09b0000835500002e5200004226000022
:10379c005e850000149b0000549b00007e9b000083
:1037ac006685000044850000f48500004a9a0000fc
:1037bc007c9a00008e830000c89b0000825500009c
:1037cc002e00000042260000149b0000549b0000b9
:1037dc007e9b00003e9a00007c9a00008e830000c5
:1037ec00e49b0000812e000042260000808900002e
:1037fc0042840000a48300000a000000aa87000095
:10380c00cc830000e2ff00003e9a00009a9b00006f
:10381c007c9a00008e830000f89b0000813f000022
:10382c0042260000a4830000feff00009a870000df
:10383c0042840000fa9b00008e830000149c000060
:10384c00824300003f000000422600005a84000022
:10385c00fa9b00008e830000ca2f0000269c0000fb
:10386c008442000041550000440000000430000078
:10387c00369c000085530000454d00004954000063
:10388c0024300000409c0000845300004745000099
:10389c005400000052300000723000004a9c0000be
:1038ac00845400004f4e0000450000009030000092
:1038bc00ac300000569c00008753000044430000cd
:1038cc00494e000049540000e6310000629c0000a3
:1038dc0086520000535400004f5200004500000077
:1038ec000e3200006e9c0000855200004c4f000010
:1038fc00414400004e3200007a9c0000843f0000de
:10390c00574900005000000088320000849c0000e1
:10391c008457000057490000500000004226000068
:10392c008a9c0000cc830000fcff00008e8300000a
:10393c008e9c00008745000045570000524900004e
:10394c0054450000b6320000a09c000086450000e3
:10395c0045520000454100004400000022330000a5
:10396c00ac9c00008545000050410000474500001c
:10397c006e330000b89c00008745000053450000e2
:10398c00435400004f52000078330000c29c0000ea
:10399c0084450000414c00004c00000082330000c4
:1039ac00ce9c0000864500004552000041530000ab
:1039bc00450000008c330000d89c0000853f0000bf
:1039cc00424f00004f540000422600009a8a00002b
:1039dc00b08a0000ee85000042840000a48a00003a
:1039ec00008800008e830000e49c0000853f0000ee
:1039fc00534900005a450000422600009a8a0000f4
:103a0c00d28a0000ee850000428400008e83000004
:103a1c00fc9c0000863f0000425900005445000009
:103a2c005300000042260000848800001e85000020
:103a3c00f4850000a483000000010000d88600007b
:103a4c008e830000109d0000853f0000444f000055
:103a5c004e45000042260000189d0000e287000041
:103a6c008e8300002a9d0000855300004554000001
:103a7c004450000042260000c68a0000a4830000c7
:103a8c00000000009084000074890000bc840000d9
:103a9c008e8300003a9d00008953000045540000bd
:103aac004c410000544500005354000042260000d5
:103abc00bc8a0000a4830000000000009084000079
:103acc009e890000bc8400008e830000529d000083
:103adc0086500000474c00004f410000440000009d
:103aec0042260000a4830000010000001e85000097
:103afc00b49c0000ec840000189d0000f6840000cb
:103b0c00ee8500005e850000a4830000010000002b
:103b1c0020a200003a8500009e8800006685000007
:103b2c008e8300006e9d0000844200004f4f000009
:103b3c005400000042260000ea9c0000da830000da
:103b4c002a000000e0a10000409d00008e8a0000c9
:103b5c00a4830000010000005e850000ec840000de
:103b6c00309d0000cc830000100000006685000032
:103b7c00ec840000fc8500005e850000769d000052
:103b8c00be830000ecff0000668500001485000079
:103b9c005c9d00008e8300009a9d00008948000007
:103bac0045410000445700005249000054450000b4
:103bbc0042260000a4830000000000005e85000087
:103bcc00a48a0000b08a00006e85000066840000a4
:103bdc009e89000042840000bc8a00006e850000b3
:103bec006684000084880000c68a00006e85000090
:103bfc0066840000848800008e8a0000f485000032
:103c0c00d28a00006e850000668400006685000084
:103c1c00ec840000a89c00008e830000d49d000062
:103c2c00873e000042550000464600004552000009
:103c3c004226000020a2000044850000ec84000015
:103c4c00189d0000ec84000030850000ee8500001b
:103c5c005e850000a483000000000000e4830000e7
:103c6c001e850000ec840000fc8500003a850000f5
:103c7c005a84000044850000c4840000fc850000c8
:103c8c00fa830000eeff000014850000668500003a
:103c9c008e830000169e00008650000047530000e3
:103cac00415600004500000042260000a48300009d
:103cbc00010000001e9e00001e850000a483000071
:103ccc00010000001e850000a89c00008e830000ef
:103cdc00529e0000853e0000424f00004f540000f1
:103cec004226000072910000da83000004000000fc
:103cfc008e830000a483000001000000de9d000004
:103d0c008e8a0000ec840000309d0000cc83000003
:103d1c000e00000044850000fc8500003a85000080
:103d2c005a9e0000be830000eeff000014850000c8
:103d3c008e830000ee3300001e3400003834000087
:103d4c00709e000086470000455400004b45000063
:103d5c005900000052340000a89e0000843f00006f
:103d6c004b4500005900000042260000b09e0000a8
:103d7c00a49e0000ec840000da8300000600000022
:103d8c00a4830000ffff00008e830000b49e00009f
:103d9c00834b00004559000042260000ba9e0000eb
:103dac0000850000da830000faff00000a8500009d
:103dbc008e830000ce9e0000844e0000554600000d
:103dcc003f00000042260000ba9e0000ec84000078
:103ddc00da8300000c00000014850000d29e000065
:103dec00a48300000d000000008800008e830000fa
:103dfc00e29e000085460000414400004452000051
:103e0c0074340000009f0000854600004e45000001
:103e1c00585400008234000090340000b834000084
:103e2c000a9f00008555000044520000454c0000dc
:103e3c00da340000189f0000883f0000464c000058
:103e4c00494d000049540000530000004226000078
:103e5c00f6840000a483000000800000a48300000e
:103e6c00000000001e9f0000f2870000da830000b3
:103e7c0008000000a4830000000000008e830000f6
:103e8c00f6840000a4830000ec570000a48300001b
:103e9c00050000001e9f0000f28700008e830000ca
:103eac00229f0000885200004f5700003e46000041
:103ebc00414400005200000042260000a483000090
:103ecc00000800005a8600008e830000589f0000f6
:103edc00864600004552000041530000450000009a
:103eec0042260000629f00002c9f0000da83000035
:103efc001e0000001e850000a483000000f80000d6
:103f0c009a8700001e850000868a00009c9900009c
:103f1c00069f0000a483000003000000149f000013
:103f2c007c8a00009c9900008e830000c6980000db
:103f3c00148500008e8300006e9f0000863e0000fa
:103f4c00464c00004153000048000000422600008f
:103f5c002c9f0000cc83000008000000148500009a
:103f6c000a8500008e830000069f0000129f00004f
:103f7c00a483000001000000149f00008e83000049
:103f8c00a49f000085540000424c0000404c0000ef
:103f9c0000350000c89f000085540000424c000012
:103fac004048000010350000d29f000082490000fc
:103fbc004000000020350000dc9f0000895200000a
:103fcc00414d00003e4600004c41000053480000ab
:103fdc00422600002c9f0000cc830000080000004b
:103fec0014850000148500008e830000069f0000dd
:103ffc00a483000000000000e4830000ec840000b7
:10400c00129f0000a483000001000000149f000018
:10401c00109f0000a483000006000000ee85000045
:10402c00a48300000600000006840000e8ff0000e6
:10403c000a8500008e830000e49f00008946000082
:10404c004c410000534800003e520000414d00001e
:10405c004226000030850000a48300000000000010
:10406c00e4830000f6840000a4830000020000003a
:10407c004c86000034980000e09f00003a85000058
:10408c003498000044850000c4840000fc850000c6
:10409c006685000044850000c4840000fc85000097
:1040ac006685000044850000c4840000fc85000087
:1040bc004a980000a483000003000000068400005e
:1040cc00d2ff0000148500000a8500008e830000da
:1040dc0024a00000884600004c410000534800001a
:1040ec00504700003e000000422600008e83000076
:1040fc0070a00000895300004554000048450000a2
:10410c00414400004552000042260000a48a0000f1
:10411c009a8a0000b08a0000ee850000bc84000082
:10412c00848800009a8a0000c68a0000ee85000090
:10413c00bc8400009e890000428400009a8a000022
:10414c00bc8a0000ee850000bc840000848800005e
:10415c008e8a0000f48500009a8a0000d28a000042
:10416c00ee850000bc8400008e83000080a000005f
:10417c00894500005241000053450000524f000099
:10418c0057530000422600009a8a0000d28a000091
:10419c00ee85000042840000a483000008000000ab
:1041ac00ee850000a4830000000c0000a88600002f
:1041bc001e850000da83000004000000fc8500006e
:1041cc00de8a00001e850000a483000000000000b1
:1041dc00e4830000ec840000769f0000fc85000066
:1041ec00fa830000f8ff00000a8500008e830000af
:1041fc00bea00000894900004d4700003e4600006b
:10420c004c41000053480000422600008aa00000e8
:10421c00c8a000009a8a0000848800008e8a0000e2
:10422c00f4850000a483000008000000ee85000067
:10423c00de8a0000629f0000ee9f00008e8300006b
:10424c0000a10000894600004c41000053480000ca
:10425c003e4900004d470000422600009a8a0000ab
:10426c00a483000008000000de8a0000629f0000aa
:10427c002ea00000ea9c0000da830000340000004d
:10428c00029d000000850000da8300002c00000075
:10429c00e0a100009a8a0000c68a0000ee850000aa
:1042ac004284000074890000bc8400009a8a0000db
:1042bc00bc8a0000ee850000428400009e8900004c
:1042cc00bc8400009a8a00001e850000a4830000b4
:1042dc0008000000ee850000de8a0000629f0000ee
:1042ec002ea000008e8300004226000094a1000046
:1042fc0096a1000092a1000092990000a09e0000df
:10430c00329c00005e9c0000529c000098a10000b2
:10431c00a29e00008e8300003c3500005835000042
:10432c0068350000743500007c35000028a10000c1
:10433c0085540000494300004b530000b235000087
:10434c009ea100008455000053450000430000006e
:10435c00bc350000a8a10000844d000053450000ae
:10436c0043000000ce350000b2a10000844c0000d8
:10437c004653000052000000de350000bca10000d6
:10438c0084520000414e000044000000f63500004d
:10439c00c6a1000085530000524100004e440000ad
:1043ac0028360000d0a10000854300004c450000d9
:1043bc0041520000422600008e8a000074890000e1
:1043cc00bc84000090890000428400009e8900009b
:1043dc00bc8400008e830000daa10000865500002a
:1043ec004e550000534500004400000042260000da
:1043fc00688a000084880000f48500008e83000029
:10440c00f4a1000084460000524500004500000065
:10441c0042260000fca10000fa9b00008e830000e5
:10442c0008a20000874200005546000041440000ed
:10443c004452000042260000a48300004a00000001
:10444c008c860000a483000000010000528600004e
:0c445c00688a0000ee8500008e830000de
:020000040000fa
:104468000000000000000000000000000000000044
:1044780000000000000f0000080800000808000005
:1044880008080000080f00000000000000000000fd
:104498000000000000f800000808000008080000fc
:1044a8000808000008f800000000000000000000f4
:1044b80008080000080800000808000008080000b4
:1044c8000000000000ff00000000000000000000e5
:1044d8000808000008ff000008080000080800009d
:1044e80000000000000000000000000000000000c4
:1044f80000000000000000000000000000000000b4
:1045080000000000000000000000000000000000a3
:104518000000000000ff0000080800000808000074
:104528000808000008ff000000000000000000006c
:104538000000000000000000000000000000000073
:1045480008080000080f000008080000080800001c
:104558000808000008f80000080800000808000023
:1045680080c00000e0f00000e0c000008000000013
:1045780001030000070f000007030000010000000e
:104588000000000000000000000000000000000023
:104598000000000000000000000000000000000013
:1045a8000000000000000000000000000000000003
:1045b80000000000000000000000000000000000f3
:1045c80000000000000000000000000000fe0000e5
:1045d800103800007c1000001010000000fe0000e1
:1045e80020700000a820000020200000000000002b
:1045f8000020000020200000a8700000200000001b
:104608004020000010f800001020000040000000ca
:104618001020000040f800004020000010000000ba
:10462800000000000080000080800000fe00000004
:104638000000000044fe00004400000000000000ec
:1046480000000000103800007cfe000000000000a0
:1046580000000000fe7c0000381000000000000090
:104668000000000000000000000000000000000042
:104678002020000020200000200000002000000072
:104688005050000050000000000000000000000032
:1046980050500000f8500000f85000005000000092
:1046a80020780000a070000028f000002000000022
:1046b800c0c800001020000040980000180000004a
:1046c80060900000a0400000a89000006800000072
:1046d8006020000040000000000000000000000012
:1046e80010200000404000004020000010000000a2
:1046f80040200000101000001020000040000000c2
:1047080000200000a8700000a820000000000000a1
:104718000020000020f80000202000000000000019
:1047280000000000000000006020000040000000c1
:104738000000000000f00000000000000000000081
:1047480000000000000000000060000060000000a1
:104758000008000010200000408000000000000059
:104768007088000098a80000c88800007000000049
:10477800206000002020000020200000f800000039
:10478800708800001020000040800000f800000041
:10479800f008000008f0000008080000f000000021
:1047a8001030000050900000f810000010000000c9
:1047b800f880000080f0000008080000f000000009
:1047c8003040000080f00000888800007000000081
:1047d800f8080000102000004040000040000000e1
:1047e8007088000088700000888800007000000051
:1047f8007088000088700000080800007000000041
:104808000060000060000000606000000000000020
:104818000060000060000000602000004000000010
:104828001020000040800000402000001000000020
:1048380000000000f8000000f80000000000000080
:104848004020000010080000102000004000000078
:104858007088000008100000200000002000000000
:104868007088000008680000a8a800007000000018
:104878007088000088f80000888800008800000020
:10488800f088000088f0000088880000f000000030
:1048980078800000808000008080000078000000a0
:1048a800f08800008888000088880000f000000078
:1048b800f880000080f8000080800000f800000008
:1048c800f880000080f80000808000008000000070
:1048d8007880000080b00000888800007000000028
:1048e8008888000088f80000888800008800000098
:1048f8007020000020200000202000007000000030
:104908007808000008080000089000006000000017
:1049180088900000a0c00000a0900000880000005f
:10492800808000008080000080800000f800000087
:1049380088d80000a8880000888800008800000047
:1049480088880000c8a80000988800008800000037
:1049580070880000888800008888000070000000c7
:10496800f088000088f000008080000080000000cf
:104978007088000088880000a8980000780000006f
:10498800f088000088f00000a09000008800000077
:10499800788000008070000008080000f000000027
:1049a800f820000020200000202000002000000047
:1049b800888800008888000088880000700000004f
:1049c80088880000888800008850000020000000c7
:1049d8008888000088a80000a8d800008800000087
:1049e80088880000502000005088000088000000df
:1049f8008888000088500000202000002000000067
:104a0800f81000002040000080800000f80000003e
:104a1800604000004040000040400000600000008e
:104a28000080000040200000100800000000000086
:104a38001808000008080000080800001800000016
:104a48002050000088000000000000000000000066
:104a580000000000000000000000000000f8000056
:104a680040200000100000000000000000000000ce
:104a7800000000007008000078880000780000003e
:104a88008080000080b00000c8880000f0000000ae
:104a980000000000708000008088000070000000a6
:104aa80008080000086800009888000078000000e6
:104ab8000000000070880000f8800000700000000e
:104ac8003048000040e00000404000004000000086
:104ad8000000000078880000887800000870000056
:104ae80080800000b0c800008888000088000000ae
:104af800002000000020000020200000200000000e
:104b0800100000003010000010900000600000004d
:104b18008080000090a00000c0a00000900000006d
:104b2800602000002020000020200000700000000d
:104b380000000000d0a80000a8880000880000003d
:104b480000000000b0c8000088880000880000004d
:104b580000000000708800008888000070000000d5
:104b680000000000f088000088f00000808000004d
:104b7800000000006890000090b00000501800008d
:104b880000000000b0c80000808000008000000025
:104b9800000000007080000070080000f0000000b5
:104ba80040400000e04000004048000030000000a5
:104bb8000000000088880000889800006800000055
:104bc80000000000888800008850000020000000d5
:104bd8000000000088880000a8a80000500000001d
:104be80000000000885000002050000088000000ed
:104bf8000000000088880000887800000870000025
:104c080000000000f810000020400000f80000003c
:104c180020400000408000004040000020000000cc
:104c2800202000002020000020200000200000009c
:104c3800402000002010000020200000400000005c
:104c48000000000040a80000100000000000000064
:104c5800fcfc0000fcfc0000fcfc0000fcfc00006c
:020000040000fa
:104c68000c4600006f720000746800004578000070
:0c4c780020560000302e0000310000002b
:020000040000fa
:104c84008a1f78000c0578003a0678003c0078000a
:104c9400000401000d2f78003c0078008b064000d2
:104ca4003a0678003c007800000401000d2f7800db
:104cb4008c0678003a0678003c0078000004010075
:104cc4000d2f78009c0678003a0678003c007800a6
:104cd400000401004f0578003a0678003c00780093
:104ce400000401003a0678003c007800000401004a
:104cf4008d007800ae0678000d007800ae067800ce
:104d0400008801003a0678003c00780000040100a5
:104d14000d2f7800ba0678003a0678003c00780037
:104d2400000401000d2f7800ba0678008d86fb0080
:104d34003a0678003c007800000401001a0545009a
:104d44003a0678003c007800000401000d00e00001
:104d5400ae067800f9ff3a000a85e8003a067800c2
:104d64003c007800000401000d00e000ae0678006d
:104d7400f2ff32000a85e8003a0678003c00780029
:104d840000040100881f7800891f78008d047800d2
:104d9400ae0678000d047800ae0678003a06780076
:104da4003c007800000401001e68e10002003200ab
:104db4004a00b000f3ff3700ae067800ae06780074
:104dc4003a0678003c007800000401008904e800f9
:104dd4000848e100040032001a0545003a0678004c
:104de4003c007800000401000a85e800cf04780044
:104df4004f0478003a0678003c0078000004010073
:104e0400090078008d844400ae0678000800e100b3
:104e1400040035000800e9000048e100f2ff340016
:104e2400020037000848e100efff3d001a05450085
:104e34003a0678003c007800000401000d2f780049
:104e44008a0678003a0678003c00780000040100e5
:104e54000d057800ae0678003a0678003c0078002c
:104e6400000401000000fe000d067800ae06780084
:104e74003c007800000401009d067800faff37002a
:104e84009d0678003a0678003c0078000004010092
:104e94003200f80001c0fe009d0678003200f900df
:104ea4003a0678003c007800000401003200f80063
:104eb40001c0fe009d4678008d86fb003200f9009b
:104ec4003a0678003c007800000401009d46780012
:104ed4008d86fb003a0678003c007800000401004f
:104ee4001d0078002d00b0009d067800002f78008a
:104ef4003a0678003c00780000040100ae0e780009
:104f0400ae0678003a0678003c0078000004010000
:104f14002e007800804e7800ae0678003a067800bd
:104f24003c00780000040100ae0e78002d00b000b3
:104f3400ae0e7800ae0678003a0678003c007800a1
:104f4400000401000d2f7800890678003a067800e5
:104f54003c007800000401000d2f7800ffbe97008c
:104f64003a0678003c00780000040100cf04780081
:104f74004f0478003a0678003c00780000040100f1
:104f84000d2f78003a0678003c00780000040100f8
:104f94001e0078000d2f7800002f78003a06780064
:104fa4003c007800000401000d00e0000100320024
:104fb4000d2f78003a0678003c00780000040100c8
:104fc400ae0678003a0678003c0078000004010040
:104fd400ae067800ae0678003a0678003c00780009
:104fe400000401001e0078008006fd00000f780018
:104ff4003a0678003c007800000401007eb897006f
:105004007dbf9f00800678006eb897009e007800f0
:1050140061bf9f00000f78003a0678003c007800da
:10502400000401001e0078000d00fd00000f780050
:105034007eb897008006fd0070bf9f003a06780096
:105044003c007800000401000d0078009e06780002
:10505400feb89700010f780070bf9f003a067800f1
:105064003c007800000401000d2f7800febe97007c
:105074003a0678003c007800000401000d2f780007
:10508400eebe97005eb89700002f78003a067800cd
:105094003c007800000401000e87e9003a0678001d
:1050a4003c007800000401008d1f7800ae067800f3
:1050b4003a0678003c007800000401000d2f7800c7
:1050c400cf0678003a0678003c007800000401001e
:1050d4000d2f7800ffbe97003a0678003c00780058
:1050e400000401000e0078000d2f7800800678007f
:1050f4003a0678003c007800000401000d077800af
:105104003a0678003c007800000401000d2f780076
:105114008f0678003a0678003c007800000401000d
:105124008d077800ae0678003a0678003c007800d7
:10513400000401001e0078000d0f7800002f780095
:105144003a0678003c0078000004010000908000da
:10515400000057000d2f78008006d1003a06780031
:105164003c007800000401000e0078008d06d00099
:105174000d005000900678003a0678003c00780054
:1051840000040100008880000d1878000088880061
:10519400ae0678003a0678003c007800000401006e
:1051a4000d2f780000888000c006780000888800f1
:1051b4003a0678003c00780000040100ae86460000
:1051c4003a0678003c007800000401002e007800c4
:1051d4008d0650003a0678003c0078000004010077
:1051e4001d00b0003a0678003c007800000401007d
:1051f4002d00b0003a0678003c007800000401005d
:105204001d00b1003a0678003c007800000401005b
:105214002d00b1003a0678003c007800000401003b
:105224008d8646003a0678003c00780000040100b0
:105234008d86d1003a0678003c0078000004010015
:105244000d007800ae0678000000e9000080090037
:105254008d06d0003a0678003c0078000004010076
:105264000d007800ae0678000000e9000080090017
:105274008d06d1003a0678003c0078000004010055
:105284001d0078002e004000800e7800ae067800e5
:105294003a0678003c007800000401007eb89700cc
:1052a4000d004000ae0678000d80b000000f7800bd
:1052b4003a0678003c007800000401002ee8b900aa
:1052c400800678003a0678003c007800000401006b
:1052d4001ee8b900000f7800810678003a067800cd
:1052e4003c007800000401001e68b80081067800c4
:1052f400000f78003a0678003c00780000040100b2
:105304002e007800110009000d00d80080067800f6
:105314003a0678003c007800000401002e00780072
:10532400110009000d00d800810678003a067800c3
:105334003c007800000401002e007800ae007800e4
:105344000180b900110009004d08d80080067800da
:105354003a0678003c007800000401002e00780032
:10536400ae0078000180b900110009004d08d80092
:10537400012f7800800678003a0678003c00780017
:10538400000401001e007800110009000d00d8007f
:1053940080067800010f78003a0678003c00780017
:1053a40000040100ae0078002e007800110009000e
:1053b4004d88d80080067800012f78003a067800de
:1053c4003c007800000401002e0078000068e10031
:1053d40001003d000d00fd003a0678003c00780015
:1053e400000401002e0078000d00e10001003d00e2
:1053f4000d00fd003a0678003c007800000401002e
:105404002e0078000068e100010031008006fd00f4
:105414003a0678003c007800000401002e00780071
:105424000d00e100010031000d00fd003a06780096
:105434003c007800000401000000eb002e0178001d
:10544400ae0078000208e100030039000d08e10015
:10545400010031000080eb00800678003a067800f5
:105464003c007800000401000080eb000d00a70060
:105474000000eb00800678003a0678003c007800d3
:10548400000401000080eb000d00a6000000eb000a
:10549400800678003a0678003c0078000004010099
:1054a4000df0a7008d06ea003a0678003c0078006b
:1054b400000401000df0a600060037001e0078006d
:1054c4008d86ea000080ea001000b0000d80b00074
:1054d400000f78003a0678003c00780000040100d0
:1054e4000d2f78000000eb000df0a7000080ea000b
:1054f400800678003a0678003c0078000004010039
:105504000d007800ae06780000f0a7008d06ea00d2
:105514003a0678003c00780000040100ae8666007c
:105524003a0678003c00780000040100ae8676005c
:105534003a0678003c00780000040100ae866e0054
:105544003a0678003c007800000401008d86ea00e9
:105554003a0678003c007800000401008d86ea00d9
:105564001e8fea003a0678003c007800000401002f
:105574008d06ea003a0678003c0078000004010039
:105584008d86ea001e8fea00100020001e0f4000e6
:105594000d80b0003a0678003c0078000004010059
:1055a4001d00b1008d865e003a0678003c0078004c
:1055b400000401000000eb000d00e00001003200d7
:1055c4000080ea00800678003a0678003c00780003
:1055d400000401008d8646008d865e008d86ea00fb
:1055e4003a0678003c007800000401008d864600ed
:1055f4008d865e003a0678003c00780000040100c5
:105604000000eb002e68e10001003a000080eb008e
:10561400800678003a0678003c0078000004010017
:105624000000eb002e68e100010032000080ea0077
:10563400800678003a0678003c00780000040100f7
:105644000080eb002e68e10001003c000080ea00cd
:10565400800678003a0678003c00780000040100d7
:105664000080eb002e68e100010035000080ea00b4
:10567400800678003a0678003c00780000040100b7
