:020000040000fa
:080000000002040000000000f2
:020000040000fa
:040008005a03000097
:020000040000fa
:04000c005a03000093
:020000040000fa
:040010005a0300008f
:020000040000fa
:040014005a0300008b
:020000040000fa
:040018005803000089
:020000040000fa
:04001c005a03000083
:020000040000fa
:040020005a0300007f
:020000040000fa
:040024005a0300007b
:020000040000fa
:040028005a03000077
:020000040000fa
:04002c005a03000073
:020000040000fa
:040030005a0300006f
:020000040000fa
:040034005c03000069
:020000040000fa
:040038005a03000067
:020000040000fa
:04003c005a03000063
:020000040000fa
:040040008602000034
:020000040000fa
:04004400180200009e
:020000040000fa
:040048005a03000057
:020000040000fa
:04004c005a03000053
:020000040000fa
:040050005a0300004f
:020000040000fa
:04005400ea020000bc
:020000040000fa
:040058000e03000093
:020000040000fa
:04005c005a03000043
:020000040000fa
:040060005a0300003f
:020000040000fa
:040064005a0300003b
:020000040000fa
:040068005a03000037
:020000040000fa
:04006c005a03000033
:020000040000fa
:040070005a0300002f
:020000040000fa
:040074003203000053
:020000040000fa
:040078007e03000003
:020000040000fa
:04007c005a03000023
:020000040000fa
:040080005a0300001f
:020000040000fa
:040084005a0300001b
:020000040000fa
:040088005a03000017
:020000040000fa
:04008c005a03000013
:020000040000fa
:040090005a0300000f
:020000040000fa
:040094005a0300000b
:020000040000fa
:040098005a03000007
:020000040000fa
:04009c005a03000003
:020000040000fa
:0400a0003c0300001d
:020000040000fa
:0400a4005a030000fb
:020000040000fa
:0400a8005a030000f7
:020000040000fa
:0400ac005a030000f3
:020000040000fa
:0400b0005a030000ef
:020000040000fa
:0400b4005a030000eb
:020000040000fa
:0400b8005a030000e7
:020000040000fa
:0400bc005a030000e3
:020000040000fa
:0400c0005a030000df
:020000040000fa
:0400c4005a030000db
:020000040000fa
:0400c8005a030000d7
:020000040000fa
:0400cc005a030000d3
:020000040000fa
:0400d0005a030000cf
:020000040000fa
:0400d4005a030000cb
:020000040000fa
:0400d8005a030000c7
:020000040000fa
:0400dc005a030000c3
:020000040000fa
:0400e0005a030000bf
:020000040000fa
:0400e4005a030000bb
:020000040000fa
:0400e8005a030000b7
:020000040000fa
:0400ec005a030000b3
:020000040000fa
:0400f0005a030000af
:020000040000fa
:0400f4005a030000ab
:020000040000fa
:0400f8005a030000a7
:020000040000fa
:0400fc005a030000a3
:020000040000fa
:040100005a0300009e
:020000040000fa
:040104005a0300009a
:020000040000fa
:040108005a03000096
:020000040000fa
:04010c005a03000092
:020000040000fa
:040110005a0300008e
:020000040000fa
:040114005a0300008a
:020000040000fa
:040118005a03000086
:020000040000fa
:04011c005a03000082
:020000040000fa
:040120005a0300007e
:020000040000fa
:040124005a0300007a
:020000040000fa
:040128005a03000076
:020000040000fa
:04012c005a03000072
:020000040000fa
:040130005a0300006e
:020000040000fa
:040134005a0300006a
:020000040000fa
:040138005a03000066
:020000040000fa
:04013c005a03000062
:020000040000fa
:040140005a0300005e
:020000040000fa
:040144005a0300005a
:020000040000fa
:040148005a03000056
:020000040000fa
:04014c005a03000052
:020000040000fa
:040150005a0300004e
:020000040000fa
:040154005a0300004a
:020000040000fa
:040158005a03000046
:020000040000fa
:04015c005a03000042
:020000040000fa
:040160005a0300003e
:020000040000fa
:040164005a0300003a
:020000040000fa
:040168005a03000036
:020000040000fa
:04016c005a03000032
:020000040000fa
:040170005a0300002e
:020000040000fa
:040174005a0300002a
:020000040000fa
:040178005a03000026
:020000040000fa
:04017c005a03000022
:020000040000fa
:040180005a0300001e
:020000040000fa
:040184005a0300001a
:020000040000fa
:040188005a03000016
:020000040000fa
:04018c005a03000012
:020000040000fa
:040190005a0300000e
:020000040000fa
:040194005a0300000a
:020000040000fa
:040198005a03000006
:020000040000fa
:04019c005a03000002
:020000040000fa
:0401a0005a030000fe
:020000040000fa
:0401a4005a030000fa
:020000040000fa
:0401a8005a030000f6
:020000040000fa
:0401ac005a030000f2
:020000040000fa
:0401b0005a030000ee
:020000040000fa
:0401b4005a030000ea
:020000040000fa
:0401b8005a030000e6
:020000040000fa
:0401bc005a030000e2
:020000040000fa
:0401c0005a030000de
:020000040000fa
:0401c4005a030000da
:020000040000fa
:0401c8005a030000d6
:020000040000fa
:0401cc005a030000d2
:020000040000fa
:0401d0005a030000ce
:020000040000fa
:0401d4005a030000ca
:020000040000fa
:0401d8005a030000c6
:020000040000fa
:0401dc005a030000c2
:020000040000fa
:0401e0005a030000be
:020000040000fa
:0401e4005a030000ba
:020000040000fa
:0401e8005a030000b6
:020000040000fa
:0401ec005a030000b2
:020000040000fa
:0401f0005a030000ae
:020000040000fa
:0401f4005a030000aa
:020000040000fa
:0401f8005a030000a6
:020000040000fa
:0401fc005a030000a2
:020000040000fa
:040200005a0300009d
:020000040000fa
:040204005a03000099
:020000040000fa
:040208005a03000095
:020000040000fa
:04020c005a03000091
:020000040000fa
:040210005a0300008d
:020000040000fa
:040214005a03000089
:020000040000fa
:040218005a03000085
:020000040000fa
:04021c005a03000081
:020000040000fa
:040220005a0300007d
:020000040000fa
:040224005a03000079
:020000040000fa
:040228005a03000075
:020000040000fa
:04022c005a03000071
:020000040000fa
:040230005a0300006d
:020000040000fa
:040234005a03000069
:020000040000fa
:040238005a03000065
:020000040000fa
:04023c005a03000061
:020000040000fa
:040240005a0300005d
:020000040000fa
:040244005a03000059
:020000040000fa
:040248005a03000055
:020000040000fa
:04024c005a03000051
:020000040000fa
:040250005a0300004d
:020000040000fa
:040254005a03000049
:020000040000fa
:040258005a03000045
:020000040000fa
:04025c005a03000041
:020000040000fa
:040260005a0300003d
:020000040000fa
:040264005a03000039
:020000040000fa
:040268005a03000035
:020000040000fa
:04026c005a03000031
:020000040000fa
:040270005a0300002d
:020000040000fa
:040274005a03000029
:020000040000fa
:040278005a03000025
:020000040000fa
:04027c005a03000021
:020000040000fa
:040280005a0300001d
:020000040000fa
:100400000e2eef000f0021000e0821000e007800d4
:100410008001b1000001880001c4fe0000c2fe009e
:100420004a9d2a003a0678003c007800000401004a
:020000040000fa
:1004300000e8a90061e2a900801f78000231ec0009
:1004400019003200600020000211e3001c0032009d
:10045000c00020000211e3001c0032002001200037
:100460000211e3001c003200200320000211e3000f
:100470001f003200200f20000211e3002100320093
:10048000f01020000451e200010032000000e800fa
:100490000211e30002003a0004f1ee0002b1ef00a5
:1004a0004f00780000400600400a200030488800d5
:1004b000e08a20002048880060088800f8ff3700a4
:1004c000a080200030488800f5ff3700400a200057
:1004d00030488800f2ff3700801420003048880040
:1004e000c01521002048880060088800ecff370014
:1004f0000551e200eaff320000c8a90020c8a800a8
:10050000e7ff370020c8a900e5ff370000c8a900b1
:10051000809fbe00829fbe00849fbe00861f780021
:100520003200f80000c2fe00118880002103b100f3
:10053000e7826000c308de00020420000110b8005a
:10054000c410210004024000238b29009048800041
:1005500063006000000601000000000000000000d1
:100560000000000061e2a8000200e000100032007c
:10057000344078000003eb000070a7000083eb001c
:10058000f007b2004300dd0080804100858040001c
:10059000114078000670a7000080ea006022ab00de
:1005a000feff3a0068e2b7000201e900eeff370003
:1005b0006022ab00feff3a006822ef003200f90033
:1005c0004f0378004f02be004f01be004f00be0037
:1005d000004006000168a900801f7800811f780094
:1005e000d3d7bf000080fb00c17a2100810040000a
:1005f0002202ae00060037003011800080487800eb
:10060000d037ec00d377ec00f0002000d377b600b1
:10061000cf0078004f007800004006000188a90054
:10062000801f7800811f7800cc17e2000a0032009a
:10063000ced7bf000080fb00c17b210081004000bd
:100640001140780024e2b700cc37ed00ce77ec0003
:10065000f0002000ce77b600cf0078004f00780081
:10066000004006001438ef0013aeae001418a800c6
:100670000268a9000040060003c8a900809fbe00d0
:10068000829fbe00b0118000417d2100b2bf80007a
:1006900081004100804878001200b000f201b200f1
:1006a000b2bf88004f01be004f00be0000400600f0
:1006b0000000fe000000fe000068a900809fbe0050
:1006c000829fbe002038ec002618e20003003200b2
:1006d0002638ed0001003a0013e1a9000a51e200ba
:1006e00003003a000b11af004c290200000000008b
:1006f0004f01be004f00be00004006000000fe009b
:020000040000fa
:10070000000000002445000058490000540000008b
:10071000ea1c000082830000a52800004c4900006c
:1007200054290000f21c00008c830000a628000061
:10073000434c00004954000029000000fc1c00004c
:1007400096830000a828000042520000414e00009d
:100750004348000029000000081d0000a28300009b
:10076000a928000054420000524100004e430000fe
:1007700048290000101d0000b0830000a9280000d7
:100780003f420000524100004e4300004829000053
:100790001e1d0000be830000a4280000444f00007e
:1007a000290000002c1d0000cc830000a6280000ba
:1007b0004c4f00004f500000290000003e1d00007b
:1007c000d6830000a72800002b4c00004f4f0000ec
:1007d00050290000581d0000e283000083490000fa
:1007e00050400000761d0000ee83000083490000a9
:1007f00050210000801d0000f6830000865200009a
:10080000454200004f4f0000540000008a1d0000c8
:10081000fe83000087450000584500004355000056
:10082000544500008c1d00000a8400008840000030
:1008300045580000454300005554000045000000a5
:10084000941d000016840000814000009a1d0000e5
:10085000248400008243000040000000a21d00002c
:100860002a8400008232000040000000ac1d00001d
:100870003284000081210000ba1d00003a8400008b
:100880008243000021000000c41d000040840000dd
:100890008232000021000000d01d000048840000ca
:1008a00081490000de1d000050840000814a0000e4
:1008b000e81d000056840000865500004e4c0000e4
:1008c0004f4f000050000000f21d00005c8400004b
:1008d0008344000055500000fc1d000068840000a7
:1008e000843200004455000050000000041e000047
:1008f00070840000843f0000445500005000000058
:10090000101e00007a84000084440000524f000052
:10091000500000001c1e000084840000853200008e
:10092000445200004f500000241e00008e8400003e
:100930008453000057410000500000002e1e0000ac
:100940009884000085320000535700004150000099
:100950003a1e0000a2840000835200004f540000a1
:100960004e1e0000ac840000842d0000524f000099
:1009700054000000601e0000b4840000844f00009a
:100980005645000052000000701e0000be840000aa
:10099000853200004f560000455200007a1e0000cc
:1009a000c8840000834e000049500000881e0000eb
:1009b000d2840000823e000052000000901e000021
:1009c000da840000825200003e0000009a1e0000ff
:1009d000e28400008252000040000000a41e0000db
:1009e000ea8400008353000050400000ae1e000067
:1009f000f28400008353000050210000ba1e000062
:100a0000fa8400008352000050400000c21e000023
:100a1000028500008352000050210000cc1e00001f
:100a20000a85000084540000554300004b0000007c
:100a3000d61e0000128500008544000045500000cd
:100a400054480000e21e00001c8500008450000095
:100a5000494300004b000000f01e00002685000006
:100a6000853e000043530000544b0000fe1e000072
:100a70003085000085430000535400004b3e0000c9
:100a80000c1f00003a850000834800004558000014
:100a9000c01c00009283000010000000d6870000f8
:100aa0003c840000888300004485000087440000e7
:100ab00045430000494d0000414c0000c01c0000af
:100ac000928300000a000000d68700003c840000ea
:100ad0008883000056850000812b00001a1f00004b
:100ae0006c850000812d0000221f0000728500002f
:100af000823100002b0000002c1f000078850000d0
:100b0000823200002b000000341f000080850000ae
:100b1000823100002d0000003c1f0000888500008d
:100b2000823200002d000000441f0000908500006c
:100b3000823200002a0000004c1f0000988500004f
:100b4000823200002f000000541f0000a08500002a
:100b5000864c000053480000494600005400000045
:100b60005c1f0000a885000086520000534800006a
:100b700049460000540000006c1f0000b4850000ce
:100b8000822b0000210000007c1f0000c0850000b7
:100b9000824d00002b0000008a1f0000c885000065
:100ba000812a00009a1f0000d085000083550000b4
:100bb0004d2a0000a81f0000d685000083550000c4
:100bc000442a0000c01c00006c840000de84000089
:100bd000da8500008a8400009e840000e68400001c
:100be000da850000b08400006e8500008883000074
:100bf000de850000812f0000b41f0000fa85000090
:100c0000822a00002f000000c21f000000860000a2
:100c1000852a00002f4d00004f440000d41f000023
:100c200008860000842f00004d4f000044000000a3
:100c3000e81f000012860000865500004d2f0000be
:100c40004d4f000044000000f81f00001c8600000b
:100c5000834d0000415800000a2000002886000053
:100c6000834d0000494e000018200000308600002f
:100c70008657000049540000484900004e0000001b
:100c800026200000388600008445000056450000fc
:100c90004e0000003e20000044860000834f00000c
:100ca000444400004c2000004e86000083410000b8
:100cb000425300005a200000568600008341000085
:100cc0004e440000642000005e860000824f000059
:100cd000520000006c20000066860000835800006f
:100ce0004f520000742000006e860000864900000c
:100cf0004e56000045520000540000007c200000c9
:100d000076860000864e00004547000041540000f2
:100d10004500000084200000828600008230000030
:100d20003d0000008c2000008e8600008230000014
:100d30003c000000962000009686000082300000f3
:100d40003e000000a22000009e860000813d0000c1
:100d5000ac200000a6860000823c00003e0000009f
:100d6000bc200000ac860000813c0000cc200000cc
:100d7000b4860000813e0000dc200000ba8600003e
:100d8000825500003c000000ec200000c0860000fe
:100d9000825500003e000000fc200000c8860000d4
:100da00084430000454c00004c0000000c21000072
:100db000d086000085430000454c00004c2b00000d
:100dc00016210000da86000085430000454c000033
:100dd0004c5300001e210000e48600008541000005
:100de0004c490000474e0000c01c00002687000050
:100df0006c84000092830000010000006286000005
:100e00006e850000ca8700003c84000088830000d3
:100e1000ee860000874100004c490000474e00006c
:100e200045440000282100000a870000853e00009c
:100e300043480000415200003221000016870000a4
:100e4000844800004552000045000000c01c00001e
:100e5000ca870000268400008883000020870000e5
:100e6000844d00004f560000450000004021000066
:100e700030870000854300004d4f000056450000bc
:100e80005c2100003a8700008453000043410000c9
:100e90004e000000782100004487000084460000d6
:100ea000494c00004c000000942100004e870000d7
:100eb00085430000464900004c4c0000aa21000078
:100ec00058870000892d000054520000414900005d
:100ed0004c4900004e470000c0210000628700001e
:100ee00085500000414300004b240000c01c00005e
:100ef000128700006c840000de840000c4840000bf
:100f00006c840000928300000000000092830000c7
:100f100002000000248600008a840000748500001e
:100f2000c48400006e850000928300000000000071
:100f30009e8400003c84000076840000448400000d
:100f400092830000010000006e8500009e84000076
:100f500040870000e684000088830000708700005e
:100f6000855300005441000054450000ca1c000095
:100f70000c000000b08700008344000050300000e7
:100f8000ca1c000008000000bc870000824400006a
:100f900050000000ca1c00000a000000c6870000c4
:100fa000844200004153000045000000ca1c0000bc
:100fb0000e000000d0870000895300005953000044
:100fc0004c4100005445000053540000ca1c00006e
:100fd00018000000dc870000864c0000415400002f
:100fe0004553000054000000ca1c00001a00000015
:100ff000ec8700008252000030000000ca1c000094
:1010000014000000fa870000825300003000000046
:10101000ca1c000012000000048800008350000079
:1010200041440000ca1c0000020000000e880000bd
:101030008354000049420000ca1c00000000000068
:1010400018880000833e0000494e0000ca1c0000c2
:1010500010000000228800008248000050000000bc
:10106000ca1c0000160000002c8800008627000023
:10107000534f00005552000043450000ca1c0000b9
:10108000040000003688000087230000534f000052
:101090005552000043450000ca1c00000600000035
:1010a0004488000087560000455200005349000064
:1010b0004f4e0000d62100005288000086520000ea
:1010c000414d0000454e000044000000e0210000ba
:1010d0005e880000854900004d4d00004544000039
:1010e000ea2100006a8800008648000049440000a8
:1010f000444500004e000000f42100007488000008
:10110000874c0000454e00004d410000534b00004d
:10111000fe21000080880000824200004c00000098
:10112000082200008c88000087540000494200001b
:10113000534900005a450000122200009488000024
:101140008750000041440000534900005a45000008
:101150001c220000a0880000865500004c490000b9
:101160004d4900005400000026220000ac88000019
:10117000854400004f4300004f4c00003022000027
:10118000b888000086270000534f00005552000029
:10119000434500003a220000c28800008753000047
:1011a0004f55000052430000452100004822000036
:1011b000ce8800008542000041530000453f0000fa
:1011c000c01c0000c48400002e8400009e83000028
:1011d00024000000a8860000c8830000080000006a
:1011e00048850000ac8300002c000000c48400008f
:1011f0002e8400009e83000025000000a8860000c9
:10120000c88300000e00000092830000020000006e
:10121000d68700003c840000ac8300001200000070
:10122000c48400002e8400009e8300002300000080
:10123000a8860000c88300000c0000005e85000046
:101240009e8400007c8500009e8400008c85000048
:1012500088830000da880000844e000045470000c3
:101260003f000000c01c0000c48400002e84000069
:101270009e8300002d000000a8860000de84000090
:101280009e840000ee840000748500009e840000af
:10129000ee8400006e850000888300002c89000029
:1012a000874e0000554d000042450000523f0000af
:1012b000c01c0000d687000026840000de840000e9
:1012c0009283000000000000c4840000488c0000ed
:1012d000e08800003289000080840000c88300009c
:1012e0004200000092830000000000009e84000085
:1012f000d28300006c840000de8400002e84000095
:10130000d687000026840000c8890000ba83000048
:101310000c000000e68400008a8400006484000061
:10132000ac830000200000009e840000d6870000ef
:1013300026840000d28500006e850000e68400004f
:101340007c850000de830000d6ff00008a84000058
:10135000ee840000c8830000040000008a860000bc
:101360009e840000e684000094840000e68400006f
:10137000d68700003c84000088830000508900006c
:101380008644000049470000495400003f00000027
:10139000c01c00006c84000092830000600000000c
:1013a000cc860000c8830000080000009283000083
:1013b00020000000748500006c840000928300000f
:1013c00039000000cc860000c88300001a0000002d
:1013d0006c8400009283000041000000c48600007d
:1013e000c883000008000000928300000000000095
:1013f00088830000928300000700000074850000cd
:101400009283000030000000748500006c840000ae
:10141000d687000026840000c48600008883000070
:10142000c0890000873e00004e5500004d4200007c
:1014300045520000c01c00006c840000c8830000fe
:101440002c000000c48400002e840000c889000025
:1014500092860000c8830000060000008a84000015
:1014600088830000de840000a8840000d687000086
:1014700026840000e2850000e6840000cc850000a0
:10148000a88400009283000001000000608b00002f
:10149000ac830000d2ff000088830000128a0000a5
:1014a000853f000053490000474e0000c01c00006b
:1014b000c48400002e840000928300002c000000f1
:1014c000748500006c8400005a860000928300003e
:1014d00001000000a8860000628600006c84000005
:1014e000c88300000e0000007c850000de84000040
:1014f0009283000001000000608b0000e684000081
:1015000088830000508a0000873f00004e5500008d
:101510004d42000045520000c01c00006c840000d9
:1015200092830000000000006c840000b084000082
:10153000488c0000568a0000de8400001a8a0000f1
:10154000c883000010000000e684000094840000be
:10155000948400009283000000000000ac8300002f
:101560001200000094840000d6840000e68400008d
:10157000c8830000040000008a86000092830000f7
:10158000ffff000088830000848a00008557000068
:101590004f52000044530000c01c0000749500002e
:1015a000f4870000268400006c840000928600000e
:1015b000ba830000400000006c8400002e8400000c
:1015c0007c88000062860000c883000008000000dc
:1015d00094850000ac830000e6ff00006c840000ee
:1015e0006c8400002e840000888800006286000061
:1015f0006c840000129500006e850000928300004c
:1016000040000000c4860000ba830000040000000f
:1016100074950000de8400007c850000e6840000f4
:10162000bc9500007e95000094850000ac8300000e
:10163000baff00008a8400007495000088830000cf
:10164000c68a000085550000505000004552000039
:1016500056220000228b0000845300004b490000fa
:1016600050000000782200002c8b00008741000011
:10167000445200003e4900004e000000c01c000023
:10168000ca880000b0840000b084000074850000a7
:101690003486000092830000000000002c860000c9
:1016a000268800003c84000088830000368b000000
:1016b000872f000053540000524900004e4700009d
:1016c000c01c0000b0840000c48400006e850000cf
:1016d000b0840000b084000074850000888300009e
:1016e000588b000085500000415200005345000017
:1016f000c01c0000ca880000268800002684000064
:10170000608b0000c4840000de840000b084000010
:101710004a870000c48400009e840000c883000043
:10172000040000007c8500003e8b0000e684000081
:10173000188500007485000088830000728b00000b
:10174000845700004f52000044000000c01c0000fd
:101750006c840000ca8800002688000026840000ef
:10176000608b0000b0840000328b00008a8400008f
:101770003e8b0000788b0000268700008c8c0000d8
:101780002687000088830000a08b000084460000ac
:10179000494e00004400000094220000c68b000067
:1017a0008641000043430000455000005400000003
:1017b000c01c0000c48400006e850000de840000b0
:1017c0006c840000289800006c8400009283000064
:1017d0000d000000a8860000c8830000160000006d
:1017e0008a84000090880000c484000044840000c3
:1017f0009e840000748500007c850000e684000063
:101800008a840000888300006c84000092830000ba
:1018100008000000a8860000c88300001400000033
:101820008a84000076840000a8860000ba83000045
:10183000caff0000089600008c850000ac83000001
:10184000c2ff0000c4840000ee840000a8860000ef
:10185000ba830000100000006c8400006c9500004a
:10186000c4840000448400007c850000ac83000038
:10187000aaff00008a840000ac830000a4ff0000df
:10188000d08b0000854300004f5500004e540000ef
:10189000c01c00006c8400002e840000de84000068
:1018a0007c850000e684000088830000428c0000f4
:1018b00085450000525200004f520000c01c00003d
:1018c0007e950000488c0000bc9500007e950000cd
:1018d0009e8300003f0000006c9500009283000092
:1018e00000000000b68700003c840000088800006b
:1018f00026840000fe84000074950000e88d00003e
:10190000588c0000883e0000434f0000554e0000f8
:101910005445000044000000c01c00007684000014
:10192000448400007c8500009e8400004087000005
:1019300088830000828c0000812c0000c01c000005
:10194000268700003c840000928300000200000013
:101950007a8f0000888300009c8c00008243000086
:101960002c000000c01c00002687000044840000fa
:1019700092830000010000007a8f0000888300003d
:10198000ae8c0000894900004e5400004552000012
:101990005052000045540000c01c0000d6880000d2
:1019a0009283000000000000268800003c840000b4
:1019b00090880000a68b00006c8400002e8400003c
:1019c000c88300003e000000cc8b00008084000033
:1019d000c88300001c0000007c850000b687000062
:1019e00026840000928600006a860000c8830000fa
:1019f0000800000012840000ac8300000400000016
:101a00009e8c0000ac830000d4ff00008c8a000094
:101a1000c883000008000000f6900000ac830000be
:101a2000c8ff0000488c0000bc95000092830000b5
:101a30003f0000006c95000074950000828d00004e
:101a40008a84000088830000c28c00008845000062
:101a5000564100004c550000415400004500000074
:101a6000c01c0000ca880000de840000de84000084
:101a70002688000026840000de840000cc8c000054
:101a8000e6840000268800003c840000e684000014
:101a9000e6840000d688000088830000268d0000c0
:101aa000824f00004b000000c01c00001295000097
:101ab00092830000030000006e8500009283000006
:101ac00040000000b6860000ba8300000400000059
:101ad000749500007e950000928300004f00000086
:101ae0006c950000928300004b0000006c95000094
:101af00088830000508d000085410000424f0000a7
:101b000052540000c01c0000b6870000268400006c
:101b1000c883000014000000f48700002684000041
:101b2000408e00006c84000026840000f4870000d2
:101b30003c840000ca8700003c8400000888000044
:101b400026840000fe840000e88d00007c8d0000eb
:101b500086410000424f0000525400002200000065
:101b6000c01c0000c88300001c0000002687000085
:101b7000488c0000bc9500007e950000ee840000bb
:101b80006c8400002e8400009e8400007c85000090
:101b90009e840000bc95000074950000828d0000ba
:101ba000e68400006c8400002e8400006e85000036
:101bb0007c85000012870000de840000888300001e
:101bc000a88d000084510000554900005400000019
:101bd000c01c0000fe870000268400000e85000067
:101be0009283000000000000b68700003c840000e3
:101bf0001c880000268400006c8400009283000092
:101c00003f000000d88b00007e950000cc8c0000c7
:101c1000b687000026840000ba830000040000009c
:101c2000548d000074950000ac830000e2ff0000ba
:101c3000e28d0000c1280000c01c0000928300005b
:101c400029000000788b0000948400008883000045
:101c50001a8e0000c15c0000c01c0000ca88000091
:101c60006e8500003e8b0000888300002a8e0000f5
:101c7000874e0000464100003e4c000046410000f7
:101c8000c01c000092830000020000007485000068
:101c900088830000388e0000874e00004641000017
:101ca0003e43000046410000c01c00006c84000060
:101cb0002e840000928300001f0000006286000056
:101cc0006e8500007c85000012870000888300007c
:101cd0004c8e0000853e0000424f00004459000039
:101ce000c01c0000e0860000888300006a8e0000af
:101cf00087430000464100003e4e00004641000080
:101d0000c01c00006c8400009283000000190000d9
:101d1000c4860000c88300000a0000006c84000034
:101d200072860000ac8300005a0000006c84000042
:101d3000de8400009283000021000000de840000a9
:101d40008c8500006c8400002e8400006c840000f0
:101d5000928300008000000062860000ba830000c9
:101d6000140000008a840000e68400008c850000d6
:101d70006c840000c88300002a000000de8400009c
:101d8000ac830000deff0000e68400008a840000cf
:101d9000928300001f00000062860000c4840000df
:101da0006e8500007c85000012870000e68400003c
:101db000a88600006c840000c88300000c000000ae
:101dc0008a840000ac8300000a000000e684000062
:101dd0008a8400009e8400008a84000088830000ba
:101de000788e0000854500004d50000054590000d9
:101df000c01c0000c0870000268400002687000069
:101e0000a886000088830000f28e00008949000047
:101e10004d4d00004544000049410000544500007c
:101e2000c01c0000f88e0000ba8300001200000001
:101e3000f4870000268400006c8400002e840000db
:101e4000708800006a8600009e84000044840000c0
:101e500088830000068f0000844800004944000089
:101e600045000000c01c0000f88e0000ba8300008e
:101e700012000000f4870000268400006c8400003b
:101e80002e8400007c8800006a8600009e8400008a
:101e900044840000888300002c8f000086520000dc
:101ea00045560000454100004c000000c01c0000e9
:101eb000f88e0000ba83000014000000f4870000d0
:101ec000268400006c8400002e8400007c880000c2
:101ed0007e860000628600009e840000448400002c
:101ee000888300004e8f0000854100004c4c0000ac
:101ef0004f540000c01c0000ca870000c4850000c9
:101f000088830000748f000081270000c01c00003f
:101f100090880000a68b00006c8400002e840000d6
:101f2000c88300000c000000cc8b0000c8830000b8
:101f300020000000ac8300002c0000008a84000018
:101f4000389100001028000027290000206e0000b2
:101f5000616d0000652000006d6900007373000072
:101f6000696e00006700000074950000828d00001b
:101f7000488c0000bc9500007e9500009283000014
:101f80003f0000006c95000074950000828d0000f9
:101f900088830000848f0000c95b0000434f00006d
:101fa0004d500000494c0000455d0000c01c000081
:101fb000868f00009e8c000088830000cc8f00007c
:101fc000c84300004f4d0000504900004c45000040
:101fd0003f000000c01c0000b687000026840000ff
:101fe00092860000b08d0000116300006f6d00004c
:101ff000706900006c650000206f00006e6c0000ce
:1020000079200000776f0000726400008883000070
:10201000e08f0000c53c00004d410000524b000025
:10202000c01c0000ea8f00002687000088830000a3
:102030000a900000c83c000052450000534f0000c9
:102040004c56000045000000c01c0000ea8f000054
:1020500026870000748500009e8c000088830000a5
:102060001a900000c53e00004d410000524b000098
:10207000c01c0000ea8f0000268700009283000049
:10208000000000009e8c0000888300003290000059
:10209000c83e000052450000534f00004c5600005f
:1020a00045000000c01c0000ea8f00006c840000a6
:1020b000268700009e840000748500009e84000036
:1020c0003c8400008883000048900000c15b000051
:1020d000c01c00009283000000000000b6870000d2
:1020e0003c8400008883000066900000c15d000011
:1020f000c01c000092830000ffff0000b6870000b4
:102100003c8400008883000076900000c95b0000da
:10211000434f00004d500000494c0000455d000059
:10212000c01c0000ea8f0000868f00009e8c00001b
:102130008883000086900000c74300004f4d0000d8
:10214000504900004c450000c01c0000e68400001f
:102150006c840000268400009e8c0000e086000055
:10216000de840000888300009c900000c8500000be
:102170004f530000545000004f4e00004500000037
:10218000c01c000090880000a68b0000cc8b0000d3
:102190006c84000092860000c88300000e000000de
:1021a0008a840000488c0000bc95000092830000e7
:1021b0003f000000828d0000a28600000c0000009d
:1021c000928300009e8c0000a4900000ac8300006d
:1021d0000200000088830000b6900000c74c000099
:1021e0004954000045520000414c0000c01c000052
:1021f000b687000026840000c883000008000000a5
:10220000a4900000928300009e8c00008883000050
:10221000ee900000834400004f240000c01c00002a
:10222000e6840000ee840000e6840000488c000094
:102230006e85000012870000de8400009e8400008e
:10224000de840000888300000a910000c32400009f
:10225000227c0000c01c00000e910000488c000091
:102260008883000026910000c32e0000227c00001d
:10227000c01c00000e910000488c0000bc950000be
:102280008883000034910000c32400002c22000049
:10229000c01c00009283000022000000a68b0000fa
:1022a000488c00006e85000012870000ca8700007d
:1022b0003c8400008883000044910000c253000069
:1022c00022000000c01c0000ea8f0000a490000063
:1022d0002a91000048910000888300005e91000070
:1022e000c22e000022000000c01c0000ea8f000087
:1022f000a4900000389100004891000088830000fd
:1023000070910000c7520000454300005552000084
:1023100053450000c01c0000f48700002684000024
:10232000548e00009e8c0000888300008291000083
:10233000c24400004f000000c01c0000ea8f0000f3
:10234000a4900000d283000026870000368500009c
:1023500092830000000000003685000088830000a2
:1023600098910000c54c0000454100005645000012
:10237000c01c0000ea8f0000a490000064840000ec
:10238000a4900000ac830000389000003685000067
:1023900088830000b2910000e74600004958000021
:1023a0004c4f00004f500000c01c00004085000052
:1023b00080840000c8830000140000006c840000ca
:1023c00026870000e08600009e84000074850000df
:1023d0009e8400003c840000ac830000e8ff000005
:1023e000408500002490000088830000cc9100000c
:1023f000c44c00004f4f000050000000c01c000003
:10240000ea8f0000a4900000de830000d491000059
:1024100088830000f8910000c52b00004c4f00009d
:102420004f500000c01c0000ea8f0000a490000084
:10243000ea830000d4910000888300000c92000021
:10244000c542000045470000494e0000c01c000086
:10245000ea8f0000109000008883000020920000a6
:10246000c541000047410000494e0000c01c00006b
:10247000ea8f0000a4900000ac83000024900000cc
:102480008883000030920000c55500004e540000c3
:10249000494c0000c01c0000ea8f0000a49000001e
:1024a000c88300002490000088830000449200004c
:1024b000c249000046000000c01c0000ea8f000076
:1024c000a4900000c88300003890000088830000ba
:1024d00058920000c4540000484500004e0000001f
:1024e000c01c0000ea8f00005290000088830000aa
:1024f0006a920000c44500004c53000045000000f3
:10250000c01c0000ea8f0000a4900000ac83000013
:10251000389000009e8400007092000088830000c4
:102520007a920000c5570000484900004c45000061
:10253000c01c0000ea8f0000a4900000c8830000c7
:10254000389000009e840000888300009292000072
:10255000c6520000455000004541000054000000f4
:10256000c01c0000ea8f0000a4900000ac830000b3
:10257000249000005290000088830000a892000080
:10258000c44300004153000045000000c01c00008f
:10259000ea8f0000928300000000000088830000a2
:1025a000c0920000c24f000046000000c01c0000a6
:1025b000ea8f0000a4900000c4840000a4900000f2
:1025c000a8860000a4900000c88300003890000096
:1025d00088830000d2920000c54500004e440000f0
:1025e0004f460000c01c0000ea8f0000a4900000cd
:1025f000ac830000389000009e84000052900000e0
:1026000088830000ec920000c74500004e440000a3
:102610004341000053450000c01c0000ea8f000049
:1026200080840000c8830000080000005290000071
:10263000ac830000f6ff0000a49000008a84000034
:102640008883000004930000c52c0000455800005a
:1026500049540000c01c0000a490000088830000c2
:102660008883000024930000864300005245000048
:102670004154000045000000c01c0000f487000029
:102680006c840000268400009e8c000026870000d9
:102690009e8400003c84000090880000a68b00000f
:1026a0002e8400006c84000092860000b08d000033
:1026b0000c6d000069730000736900006e67000014
:1026c000206e0000616d0000650000007c85000048
:1026d0007a8f0000f4860000328f000088830000ab
:1026e00034930000813a0000c01c00003c930000bd
:1026f00078900000a4900000c01c000088830000b7
:1027000072930000873c000042550000494c0000d5
:1027100044530000c01c000074930000a49000000b
:102720009a93000026870000e08600009e8c00003f
:1027300088830000da2200008293000087280000ce
:10274000444f0000455300003e290000c01c00001b
:10275000e68400006c840000e0860000de84000057
:1027600026840000f487000026840000548e0000b8
:1027700092830000040000006e8500003c8400008d
:10278000888300009e930000c54400004f45000070
:10279000533e0000c01c0000a4900000a69300005f
:1027a0002687000092830000020000007a8f00005c
:1027b000a490000028940000268700009e8400005a
:1027c0003c84000088830000c49300008856000009
:1027d0004152000049410000424c00004500000009
:1027e000c01c00003c930000789000009283000021
:1027f000d61c00009e8c00009283000000000000a8
:102800009e8c00002894000088830000e69300005e
:10281000884300004f4e000053540000414e00001a
:1028200054000000c01c00003c93000078900000a1
:1028300092830000e01c00009e8c00009e8c000033
:10284000289400008883000008940000c13b000029
:10285000c01c0000ea8f0000a490000088830000e4
:10286000568f0000689000008883000026940000c6
:10287000874900004e4600004c4f00004f500000ba
:10288000e822000038940000822e0000530000006f
:10289000c01c0000228500009e8300003c00000058
:1028a0006c9500006c8400003a9700009e83000045
:1028b0003e0000006c9500007e95000080840000c2
:1028c000c88300000e0000006c8400002c8500000e
:1028d0003a9700008c850000ac830000f0ff0000f8
:1028e000888300004494000085480000445500009f
:1028f0004d500000c01c000080840000ba8300001e
:102900000400000088830000d687000026840000b1
:10291000de840000488500009e8400009283000051
:10292000feff0000628600009e840000928300008b
:1029300000000000d2830000528400009283000057
:102940000700000062860000ba8300000e0000004d
:10295000749500006c840000928300000500000064
:102960000c9700007e9500006c8400002684000017
:1029700092830000050000000c9700009283000085
:10298000020000006e850000de830000d6ff00001c
:102990008a840000e6840000d68700003c840000a2
:1029a00088830000ea22000074940000855600002d
:1029b000494400004f4e00004e230000d694000012
:1029c0008743000055520000454e0000424c000075
:1029d0005a230000e0940000834300004c530000a1
:1029e00076230000ec940000865300004352000060
:1029f0004c550000500000008c230000f4940000af
:102a000086530000435200004c4400004e0000007a
:102a10009623000000950000844700004554000004
:102a200058000000a02300000c950000844700001f
:102a30004554000059000000ae2300001695000028
:102a4000845300004554000058000000bc230000df
:102a500020950000845300004554000059000000f8
:102a6000da2300002a95000086430000555200003a
:102a7000504f000053000000c01c000026950000cd
:102a8000309500008883000034950000844c0000dd
:102a90004546000054000000f82300004695000061
:102aa0008552000049470000485400001e240000e1
:102ab0005095000087540000474c00004348000038
:102ac00041520000482400005a950000844500004f
:102ad0004d490000540000005e240000669500008f
:102ae00082430000520000007e2400007095000028
:102af0008553000050410000434500009024000031
:102b000078950000865300005041000043450000c6
:102b100053000000c01c00006c8400009283000081
:102b200000000000bc860000ba8300000600000020
:102b30008a84000088830000928300000000000067
:102b4000d28300007e950000de830000fcff0000c1
:102b50008883000082950000854300004c520000ed
:102b60004c4e000096240000ac95000084540000f8
:102b70005950000045000000c01c00006c8400009b
:102b8000ba830000060000009484000088830000df
:102b90009283000000000000d28300006c840000db
:102ba0002e84000080840000c88300000e00000016
:102bb0006c9500007c850000de830000f0ff0000c3
:102bc000ac83000004000000648400008a840000dc
:102bd00088830000b695000086440000454c000044
:102be0004554000045000000c01c00009088000013
:102bf0006c95000088830000ec950000884200007e
:102c0000414300004b4300004841000052000000d7
:102c1000c01c00004c950000f49500004c9500008d
:102c200088830000fe9500008544000049470000ad
:102c300049540000c01c00009283000009000000fd
:102c4000c4840000b68600009283000007000000e4
:102c5000628600006e850000928300003000000054
:102c60006e850000888300001496000087450000f0
:102c7000585400005241000043540000c01c0000a2
:102c800092830000000000009e8400002486000063
:102c90009e8400001a96000088830000369600008b
:102ca000823c000023000000c01c000012880000cd
:102cb00026840000a88800006e850000308800008f
:102cc0003c84000088830000509600008448000087
:102cd0004f4c000044000000c01c00009283000024
:102ce000ffff000030880000c4850000308800002d
:102cf000268400004484000088830000669600005b
:102d000081230000c01c0000d6870000268400003c
:102d10003e9600006c9600008883000080960000bc
:102d20008223000053000000c01c000082960000b7
:102d30006c840000ba830000faff00008883000062
:102d40009096000084530000494700004e000000a8
:102d5000c01c00009a860000c88300000800000024
:102d60009e8300002d0000006c9600008883000008
:102d7000a2960000822300003e000000c01c00005c
:102d80008a84000030880000268400001288000039
:102d900026840000a88800006e850000c48400001e
:102da0007485000088830000ba96000083530000f9
:102db00054520000c01c00006c840000de8400003f
:102dc0005a8600005496000094960000e6840000a5
:102dd000a8960000be96000088830000d6960000ea
:102de000822e000052000000c01c0000de840000a3
:102df000da960000e6840000c484000074850000b8
:102e00008a950000bc95000088830000f0960000c1
:102e1000835500002e520000c01c0000de8400001c
:102e20005496000094960000be960000e6840000d0
:102e3000c4840000748500008a950000bc950000e1
:102e40008883000008970000825500002e000000d3
:102e5000c01c00005496000094960000be9600002e
:102e60007e950000bc950000888300002497000038
:102e7000812e0000c01c0000d687000026840000c0
:102e8000928300000a00000072860000ba830000ee
:102e9000e2ff00007e950000da960000bc9500007d
:102ea0008883000038970000813f0000c01c0000ac
:102eb00092830000feff000062860000268400006e
:102ec0003a97000088830000549700008243000076
:102ed0003f000000c01c00002e8400003a97000054
:102ee0008883000066970000854300004841000089
:102ef00052530000c01c00009e840000928300001a
:102f000000000000d28300006c8400006c9500007b
:102f1000de830000faff00008a840000888300003e
:102f2000be24000074970000844200004155000058
:102f300044000000f824000094970000855300002e
:102f4000454d000049540000182500009e970000e0
:102f5000845300004745000054000000462500004f
:102f600066250000a8970000845400004f4e000022
:102f7000450000008225000098250000b49700005d
:102f80008753000044430000494e000049540000ac
:102f9000c0260000c0970000865200005354000075
:102fa0004f52000045000000e8260000cc970000ca
:102fb000855200004c4f0000414400001a270000d9
:102fc000d897000086450000535400004f5200007f
:102fd000450000004c270000e297000085450000f6
:102fe0004c4f00004144000094270000cc27000013
:102ff000fc27000016280000ee970000864700001e
:10300000455400004b4500005900000030280000e6
:10301000fe970000843f00004b450000590000006f
:10302000c01c000006980000fa9700006c840000a5
:10303000c88300000600000092830000ffff00002c
:10304000888300000a980000834b00004559000067
:10305000c01c00001098000080840000c88300009d
:10306000faff00008a840000888300002498000092
:10307000844e0000554600003f000000c01c0000c8
:10308000109800006c840000c88300000c00000051
:103090009484000028980000928300000d00000036
:1030a000a886000088830000c01c00006e98000005
:1030b000709800006c980000d2940000f697000011
:1030c00090970000bc970000b09700007298000035
:1030d000f897000088830000522800006e28000046
:1030e0007e2800008a2800009228000038980000fe
:1030f00085540000494300004b530000c6280000df
:1031000078980000845500005345000043000000fb
:10311000d028000082980000844d00005345000034
:1031200043000000e22800008c980000844c00005e
:103130004653000052000000f2280000969800005c
:1031400084520000414e0000440000000a290000a3
:10315000a098000085530000524100004e4400003a
:043160003c29000006
:020000040000fa
:10316400000000000000000000000000000000005b
:1031740000000000000f000008080000080800001c
:1031840008080000080f0000000000000000000014
:103194000000000000f80000080800000808000013
:1031a4000808000008f8000000000000000000000b
:1031b40008080000080800000808000008080000cb
:1031c4000000000000ff00000000000000000000fc
:1031d4000808000008ff00000808000008080000b4
:1031e40000000000000000000000000000000000db
:1031f40000000000000000000000000000000000cb
:1032040000000000000000000000000000000000ba
:103214000000000000ff000008080000080800008b
:103224000808000008ff0000000000000000000083
:10323400000000000000000000000000000000008a
:1032440008080000080f0000080800000808000033
:103254000808000008f8000008080000080800003a
:1032640080c00000e0f00000e0c00000800000002a
:1032740001030000070f0000070300000100000025
:10328400000000000000000000000000000000003a
:10329400000000000000000000000000000000002a
:1032a400000000000000000000000000000000001a
:1032b400000000000000000000000000000000000a
:1032c40000000000000000000000000000fe0000fc
:1032d400103800007c1000001010000000fe0000f8
:1032e40020700000a8200000202000000000000042
:1032f4000020000020200000a87000002000000032
:103304004020000010f800001020000040000000e1
:103314001020000040f800004020000010000000d1
:10332400000000000080000080800000fe0000001b
:103334000000000044fe0000440000000000000003
:1033440000000000103800007cfe000000000000b7
:1033540000000000fe7c00003810000000000000a7
:103364000000000000000000000000000000000059
:103374002020000020200000200000002000000089
:103384005050000050000000000000000000000049
:1033940050500000f8500000f850000050000000a9
:1033a40020780000a070000028f000002000000039
:1033b400c0c8000010200000409800001800000061
:1033c40060900000a0400000a89000006800000089
:1033d4006020000040000000000000000000000029
:1033e40010200000404000004020000010000000b9
:1033f40040200000101000001020000040000000d9
:1034040000200000a8700000a820000000000000b8
:103414000020000020f80000202000000000000030
:1034240000000000000000006020000040000000d8
:103434000000000000f00000000000000000000098
:1034440000000000000000000060000060000000b8
:103454000008000010200000408000000000000070
:103464007088000098a80000c88800007000000060
:10347400206000002020000020200000f800000050
:10348400708800001020000040800000f800000058
:10349400f008000008f0000008080000f000000038
:1034a4001030000050900000f810000010000000e0
:1034b400f880000080f0000008080000f000000020
:1034c4003040000080f00000888800007000000098
:1034d400f8080000102000004040000040000000f8
:1034e4007088000088700000888800007000000068
:1034f4007088000088700000080800007000000058
:103504000060000060000000606000000000000037
:103514000060000060000000602000004000000027
:103524001020000040800000402000001000000037
:1035340000000000f8000000f80000000000000097
:10354400402000001008000010200000400000008f
:103554007088000008100000200000002000000017
:103564007088000008680000a8a80000700000002f
:103574007088000088f80000888800008800000037
:10358400f088000088f0000088880000f000000047
:1035940078800000808000008080000078000000b7
:1035a400f08800008888000088880000f00000008f
:1035b400f880000080f8000080800000f80000001f
:1035c400f880000080f80000808000008000000087
:1035d4007880000080b0000088880000700000003f
:1035e4008888000088f800008888000088000000af
:1035f4007020000020200000202000007000000047
:10360400780800000808000008900000600000002e
:1036140088900000a0c00000a09000008800000076
:10362400808000008080000080800000f80000009e
:1036340088d80000a888000088880000880000005e
:1036440088880000c8a8000098880000880000004e
:1036540070880000888800008888000070000000de
:10366400f088000088f000008080000080000000e6
:103674007088000088880000a89800007800000086
:10368400f088000088f00000a0900000880000008e
:10369400788000008070000008080000f00000003e
:1036a400f82000002020000020200000200000005e
:1036b4008888000088880000888800007000000066
:1036c40088880000888800008850000020000000de
:1036d4008888000088a80000a8d80000880000009e
:1036e40088880000502000005088000088000000f6
:1036f400888800008850000020200000200000007e
:10370400f81000002040000080800000f800000055
:1037140060400000404000004040000060000000a5
:10372400008000004020000010080000000000009d
:10373400180800000808000008080000180000002d
:10374400205000008800000000000000000000007d
:1037540000000000000000000000000000f800006d
:1037640040200000100000000000000000000000e5
:103774000000000070080000788800007800000055
:103784008080000080b00000c8880000f0000000c5
:1037940000000000708000008088000070000000bd
:1037a40008080000086800009888000078000000fd
:1037b4000000000070880000f88000007000000025
:1037c4003048000040e0000040400000400000009d
:1037d400000000007888000088780000087000006d
:1037e40080800000b0c800008888000088000000c5
:1037f4000020000000200000202000002000000025
:103804001000000030100000109000006000000064
:103814008080000090a00000c0a000009000000084
:103824006020000020200000202000007000000024
:1038340000000000d0a80000a88800008800000054
:1038440000000000b0c80000888800008800000064
:1038540000000000708800008888000070000000ec
:1038640000000000f088000088f000008080000064
:10387400000000006890000090b0000050180000a4
:1038840000000000b0c8000080800000800000003c
:10389400000000007080000070080000f0000000cc
:1038a40040400000e04000004048000030000000bc
:1038b400000000008888000088980000680000006c
:1038c40000000000888800008850000020000000ec
:1038d4000000000088880000a8a800005000000034
:1038e4000000000088500000205000008800000004
:1038f400000000008888000088780000087000003c
:1039040000000000f810000020400000f800000053
:1039140020400000408000004040000020000000e3
:1039240020200000202000002020000020000000b3
:103934004020000020100000202000004000000073
:103944000000000040a8000010000000000000007b
:10395400fcfc0000fcfc0000fcfc0000fcfc000083
:020000040000fa
:103964000c4600006f720000746800004578000087
:0c39740020560000302e00003100000042
:020000040000fa
:103980008a1f78000c0578003a0678003c00780021
:10399000000401000d2f78003c0078008b064000e9
:1039a0003a0678003c007800000401000d2f7800f2
:1039b0008c0678003a0678003c007800000401008c
:1039c0000d2f78009c0678003a0678003c007800bd
:1039d000000401004f0578003a0678003c007800aa
:1039e000000401000d2f7800ba0678003a0678002e
:1039f0003c007800000401000d2f7800ba06780022
:103a00008d86fb003a0678003c0078000004010037
:103a10001a0545003a0678003c00780000040100d1
:103a20000d00e000ae067800f9ff3a000a85e800d4
:103a30003a0678003c007800000401000d00e00028
:103a4000ae067800f2ff32000a85e8003a067800f8
:103a50003c00780000040100881f7800891f78006e
:103a60008d047800ae0678000d047800ae0678006c
:103a70003a0678003c007800000401008904e80060
:103a80000848e100040032001a0545003a067800b3
:103a90003c007800000401000a85e800cf047800ab
:103aa0004f0478003a0678003c00780000040100da
:103ab000090078008d844400ae0678000800e1001b
:103ac000040035000800e9000048e100f2ff34007e
:103ad000020037000848e100efff3d001a054500ed
:103ae0003a0678003c007800000401000d2f7800b1
:103af0008a0678003a0678003c007800000401004d
:103b00000d057800ae0678003a0678003c00780093
:103b1000000401000000fe000d067800ae067800eb
:103b20003c007800000401001d007800ae0678001b
:103b3000000401009d0678003a0678003c007800f9
:103b4000000401009d4678008d86fb003a0678004f
:103b50003c007800000401001d0078002d00b0003a
:103b60009d067800002f78003a0678003c00780027
:103b700000040100ae0e7800ae0678003a06780028
:103b80003c007800000401002e007800804e780090
:103b9000ae0678003a0678003c0078000004010088
:103ba000ae0e78002d00b000ae0e7800ae067800a4
:103bb0003a0678003c007800000401000d2f7800e0
:103bc000890678003a0678003c007800000401007d
:103bd0000d2f7800ffbe97003a0678003c00780071
:103be00000040100cf0478004f0478003a06780002
:103bf0003c007800000401000d2f78003a067800a0
:103c00003c007800000401001e0078000d2f7800b1
:103c1000002f78003a0678003c007800000401008c
:103c20000d00e000010032000d2f78003a06780008
:103c30003c00780000040100ae0678003a067800e7
:103c40003c00780000040100ae067800ae06780063
:103c50003a0678003c007800000401000d0078006e
:103c60009e067800000f78003a0678003c00780045
:103c7000000401007eb897007dbf9f008006780099
:103c80006eb897009e00780061bf9f00000f78001b
:103c90003a0678003c007800000401001e0078001d
:103ca0000d00fd00000f78007eb897008006fd0033
:103cb00070bf9f003a0678003c00780000040100c5
:103cc0000d0078009e067800feb89700010f78007e
:103cd00070bf9f003a0678003c00780000040100a5
:103ce0000d2f7800febe97003a0678003c00780061
:103cf000000401000d2f7800eebe97005eb897001b
:103d0000002f78003a0678003c007800000401009b
:103d10000e87e9003a0678003c00780000040100b4
:103d20008d1f7800ae0678003a0678003c007800d7
:103d3000000401000d2f7800cf0678003a067800c5
:103d40003c007800000401000d2f7800ffbe9700b2
:103d50003a0678003c007800000401000e0078006c
:103d60000d2f7800800678003a0678003c00780035
:103d7000000401000d0778003a0678003c00780046
:103d8000000401000d2f78008f0678003a067800b5
:103d90003c007800000401008d077800ae06780032
:103da0003a0678003c007800000401001e0078000c
:103db0000d0f7800002f78003a0678003c0078005c
:103dc0000004010050c08000000057000d2f780053
:103dd0008006d1003a0678003c007800000401001b
:103de0000e0078008d06d0000d005000900678007f
:103df0003a0678003c00780000040100008880004a
:103e00000d18780000888800ae0678003a06780021
:103e10003c007800000401000d2f7800008880002d
:103e2000c0067800008888003a0678003c007800d8
:103e300000040100ae8646003a0678003c00780097
:103e4000000401002e0078008d0650003a0678002c
:103e50003c007800000401001d00b0003a06780024
:103e60003c007800000401002d00b0003a06780004
:103e70003c007800000401001d00b1003a06780003
:103e80003c007800000401002d00b1003a067800e3
:103e90003c007800000401008d8646003a06780058
:103ea0003c007800000401008d06d1003a0678003d
:103eb0003c007800000401000d007800ae06780098
:103ec0000000e900008009008d06d0003a06780065
:103ed0003c007800000401000d007800ae06780078
:103ee0000000e900008009008d06d1003a06780044
:103ef0003c007800000401001d0078002e00400006
:103f0000800e7800ae0678003a0678003c00780013
:103f1000000401007eb897008d007800ae0678009e
:103f2000010f40000d80b0003a0678003c00780098
:103f3000000401000d007800ae0678000d80b90085
:103f4000800678003a0678003c0078000004010002
:103f50001e68b80081067800000f78003a067800e5
:103f60003c007800000401002e01780011000900d7
:103f70000d01d800800678003a0678003c007800f1
:103f8000000401002e007800ae0078000180b90026
:103f9000110009000d00d800800678003a0678006c
:103fa0003c007800000401002e007800ae0078008c
:103fb0000180b900110009000d00d800012f780020
:103fc000800678003a0678003c0078000004010082
:103fd0001e017800110009004d19d80080067800f4
:103fe000010f78003a0678003c00780000040100d8
:103ff000ae0078002e007800110009004d88d8002e
:1040000080067800012f78003a0678003c0078009e
:10401000000401002e0078000068e10001003d006e
:104020000d00fd003a0678003c0078000004010015
:104030002e0078000d00e10001003d000d00fd00a4
:104040003a0678003c007800000401000000eb0014
:104050002e017800ae0078000208e100030039006c
:104060000d08e100010031000080eb0080067800bf
:104070003a0678003c007800000401000080eb0064
:104080000d00a7000000eb00800678003a067800db
:104090003c007800000401000080eb000d00a60049
:1040a0000000eb00800678003a0678003c007800bb
:1040b000000401000df0a7008d06ea003a06780022
:1040c0003c00780000040100ae8666003a067800e5
:1040d0003c00780000040100ae8676003a067800c5
:1040e0003c00780000040100ae866e003a067800bd
:1040f0003c007800000401008d86ea003a06780052
:104100003c007800000401008d06ea003a067800c1
:104110003c007800000401001d00b1008d865e00a7
:104120003a0678003c007800000401008d864600c5
:104130008d865e008d86ea003a0678003c007800a5
:10414000000401008d8646008d865e003a067800e8
:104150003c007800000401000000eb002e68e10044
:1041600001003a000080eb00800678003a067800f3
:104170003c007800000401000000eb002e68e10024
:10418000010032000080ea00800678003a067800dc
:104190003c007800000401000080eb002e68e10084
:1041a00001003c000080ea00800678003a067800b2
:1041b0003c007800000401000080eb002e68e10064
:1041c000010035000080ea00800678003a06780099
:1041d0003c007800000401000000eb002e68e100c4
:1041e000010036000080ea00800678003a06780078
:1041f0003c007800000401000000eb002e68e100a4
:10420000010031000080ea00800678003a0678005c
:104210003c007800000401000d2f78002d002000e4
:104220003a0678003c007800000401002d00b00040
:104230003a0678003c007800000401006268b8008b
:10424000800678003a0678003c00780000040100ff
:104250000d00a7008d06e8003a0678003c007800c3
:1042600000040100fd07b200e068e10001003d002c
:10427000fd0520003a0678003c00780000040100ab
:104280000d007800ae0678000d017800ae067800cb
:104290008d007800ae0678000000e00003003200d8
:1042a0000000e90000800900311978003a06780022
:1042b0003c007800000401000d007800ae06780094
:1042c0000d017800ae0678008d007800ae0678000b
:1042d0000000e000030032000000e9000080090057
:1042e000315978003a0678003c007800000401005b
:1042f0000d007800ae0678009e0078000d00e0000a
:10430000050032001104e100030032008100e800e2
:104310008d06e900fbff3a00010f78003a067800ad
:104320003c007800000401002e007800ae00780008
:104330000100e000030032008100e9000180090073
:10434000801e7800ae0678003a0678003c007800bf
:10435000000401002e007800ae0078000100e000ab
:10436000030032008100e90001800900805e7800ce
:10437000ae0678003a0678003c00780000040100a0
:104380001e0078000d004000110220000000e9002e
:10439000100ce10095333e000000e8009e0650003e
:1043a0003a0678003c007800000401000d2f7800e8
:1043b0002dcb29003a0678003c007800000401006b
:1043c0000d2f7800fdff2c003a0678003c007800a5
:1043d000000401000d2f78000d0420003a0678003b
:1043e0003c007800000401000d2f78000d02200031
:1043f0003a0678003c007800000401000d2f780098
:10440000fd0120003a0678003c007800000401001d
:104410000d2f78000d0220003a0678003c0078004d
:10442000000401000d2f78000d0520003a067800e9
:104430003c007800000401000d2f78000d052000dd
:104440003a0678003c007800000401000d2f780047
:10445000edff2c003a0678003c00780000040100d3
:104460000d2f78000dcc29003a0678003c0078002a
:10447000000401000d2f7800edbf80000d2f7800a3
:10448000fdbf80003a0678003c007800000401007f
:10449000fdbf8800ae067800edbf8800ae0678004c
:1044a0003a0678003c007800000401008d00780096
:1044b000ae067800314178000204e00009003200c5
:1044c000314078000241e900e105e100faff3900de
:1044d000fa05e100f8ff3e000042b100f0f89f004d
:1044e000f5ff37003a0678003c0078000004010030
:1044f0000d007800ae0678009e0078000d00e00008
:10450000050032001104e10003003a008100e800d8
:104510008d06e900fbff3a00010f78003a067800ab
:104520003c007800000401008d0178000d2f780018
:104530003342780092c080000200e000190032008f
:104540008280e9003240780080437800f043b20076
:104550000404e1000200320011017800f6ff370088
:1045600003037800844278000504e000050032006f
:10457000364078003204e100f7ff3a008542e90056
:10458000f9ff37000200a7000201e800020f7800df
:104590008086eb000744b200030032008d06ea007b
:1045a000010037000d0020003a0678003c0078003a
:1045b000000401000a0678003c0578000d2f780001
:1045c0008c0678003a0678003c0078000004010070
:1045d000ffff3700106ea900108ea9000034800084
:1045e000f10f2e000100600001802000010070002a
:1045f000003488001034800001fe2f0001006000ac
:10460000010120000100700010348800b002200079
:10461000101388006402a800c015210060088800fb
:104620002048880080488800801420003048880096
:10463000a03820007048880050c021000048880041
:1046400050488800f0ff28004228b60000002500ee
:104650004228b700f08f2f004228b60000502000fb
:104660004228b70002b1ef0004f1ef0005f1ef00be
:1046700000e8a90020e8a80011e1a800d01420005b
:10468000408888000a71ef000b11a8000b31a900c7
:104690003a0678003c007800000401000d00780024
:1046a00005f1b700ae0678003a0678003c007800c5
:1046b000000401000d007800ae0678000000e00064
:1046c000050032006e290200000000003a06780062
:1046d0003c007800000401007e2902000000000078
:1046e0003a0678003c007800000401000a71ec00f2
:1046f00000022200c1102100ff020900801878008a
:104700000631ef000b31a9000a71ed003a0678007e
:104710003c007800000401008c2902000000000029
:104720003a0678003c00780000040100b22902003b
:10473000000000003a0678003c0078000004010008
:104740000d2f780006d1bf00800678008d86fb0013
:104750003a0678003c007800000401000d2f780034
:1047600007d1bf00800678008d86fb003a067800ee
:104770003c007800000401000a71ec000b31af002e
:1047800058290200000000000b31a900f0032000ae
:104790000068e10001003e000d00780006f1b7005e
:1047a0000a71ed00ae0678003a0678003c00780009
:1047b000000401000a71ec000b31af00582902001f
:1047c000000000000b31a9007868e1000100390009
:1047d0007d0120000d00780007f1b7000a71ed009f
:1047e000ae0678003a0678003c007800000401002c
:1047f0000a71ec000b31af005829020000000000e4
:104800000b31a9000671ed0008003b000771ed00b7
:1048100003003b00b2290200000000000771ef0016
:10482000000420000000e90006f1b7000a71ed0065
:104830003a0678003c007800000401000a71ec00a0
:104840000b31af0058290200000000000b31a90015
:104850000671ec00000420000651e3000800390056
:104860000671ef000771ec00800120000751e300a2
:10487000030039008c290200000000000771ed00e0
:104880000a71ed003a0678003c007800000401004f
:104890000a71ec000b31af00582902000000000043
:1048a0000b31a90058290200000000000a71ed0038
:1048b0003a0678003c007800000401000a71ec0020
:1048c0000b31af0058290200000000000b31a90095
:1048d00000c4b3000751bc0006d1bf000080fb003c
:1048e00002004000c1102100810040008d48780086
:1048f000ae0678000a71ed00d0ff37000a71ec00b7
:104900000b31af0058290200000000000b31a90054
:10491000f003200006f1b7000a71ed00c7ff370071
:104920000d2f78000d022000e4ff37000a71ec0023
:104930000b31af0058290200000000000b31a90024
:10494000c2102100800120000068e1000600310053
:10495000000420000068b8000201400000022200ac
:104960001f000900001978000a71ed00ae067800fa
:104970003a0678003c00780000040100116ea9009e
:10498000f00f2e008826b600003020008826b700e1
:1049900000fe2f00c426b600c0022000c426b700c7
:1049a000601c20004011880021e2a80080ff2f0039
:1049b0004628b600300020004628b700f0ff280047
:1049c0004428b600000023004428b7000188a9004d
:1049d0002188a8000168a9002168a8002462ef00ce
:1049e0002342a8003a0678003c0078000004010049
:1049f00021e2a90000d82100c1422000420020008d
:104a00008100d1000080d3000201e90011000900fb
:104a10004d88d8000000e9004011880021e2a8007c
:104a2000ae0678003a0678003c00780000040100e9
:104a3000cc17e20005003a002322af000300370044
:104a40002d118800ae0678000d003700000120000f
:104a5000cc17e300feff3200cfd7bf000080fb0081
:104a6000c17b2100810040008d487800ae067800af
:104a7000cc37ec00cf77ec00f0002000cf77b60009
:104a80003a0678003c007800000401000d2f780001
:104a9000d017e20001003a00fdff3700d2d7bf0077
:104aa0000080fb00c17a210081004000914678001f
:104ab000d037ed00d277ec00f0002000d277b600be
:104ac0003a0678003c00780000040100f0fd2f0059
:104ad000102eb600f00f2e008226b6000020210016
:104ae0008226b7001629ef0050402000a048880019
:104af00000012000900888003a0678003c00780009
:104b0000000401007d088800cd4888008d06d10092
:104b1000dd488800ae06780013e1a8003dc188009a
:104b2000ae0678003a0678003c00780000040100e8
:104b3000405c2000142eb7000080ea00102eb60062
:104b400019aea800f0ff28004828b6000000230096
:104b50004828b7002268a8000268a900e0132000d6
:104b60001012880041e2a8003a0678003c00780064
:104b70000004010041e2a900f00120004222b60039
:104b8000010078004222b70041e2a80000000600c0
:104b9000144ea80041e2a800f0cfb300a10020000d
:104ba00048e2b7004002ae00feff3700401280002e
:104bb0008100e900faff3a0000000600144ea80048
:104bc000f0cfb30048e2b7004002ae00feff37006e
:104bd000401280000000060080027800900820004b
:104be000203288004626ef0041e6a80070702000c1
:104bf000103288004c26ef004e26ef00054078006a
:104c00000060a0000070a10048e6b70048e2b700cd
:104c10004002ae00feff3700401280000100780025
:104c20000080fd0048e6b70048e2b7004002ae0051
:104c3000feff3700401280000100780048e6b70010
:104c400048e2b7004002ae00feff3700401280008d
:104c5000020078000080fd0048e6b70048e2b70097
:104c60004002ae00feff37004012800002007800d4
:104c700048e6b7004086a80048e2b7004002ae0010
:104c8000feff3700401280004086af00feff370075
:104c90004cc6bf0048e2b7004002ae00feff37003e
:104ca0004012800081002000f0cfb30048e2b7003e
:104cb0004002ae00feff370040128000f0cfb2008d
:104cc00004003a008100e900f7ff3a001498a800b8
:104cd00000000600005a78000300e00001003a00de
:104ce0000000060048e2ef004002ae00feff370081
:104cf00048c2bf00005a78008301e900f6ff370080
:104d00000d007800ae06780048e2b7004002ae0021
:104d1000feff3700401280000d0078000080fd008b
:104d200048e2b7004002ae00feff370040128000ac
:104d30000d00780048e2b7004002ae00feff3700e9
:104d400040128000ae0678000000060014cea900d4
:104d50005000200048e2b7004002ae00feff3700de
:104d60004012800048e2ef004002ae00feff370034
:104d700014cea8004802af00f4ff37000000060080
:104d80001438ef0013aeaf00000006001418a8009e
:104d900001002000ba25020000000000c825020022
:104da00000000000144ea900000020008000eb006d
:104db0000001eb008001eb00a4812100ec25020042
:104dc000000000003a0678003c0078000004010072
:104dd000154ea9002000200048e2b7004002ae00b6
:104de000feff3700401280008d007800ae0678008c
:104df00080260200000000000d017800ae06780059
:104e00000100e000070032003240780048e2b700bd
:104e10004002ae00feff3700401280008100e90032
:104e2000f7ff3700154ea8003a0678003c007800de
:104e300000040100154ea9003000200048e2b70030
:104e40004002ae00feff3700401280008d00780067
:104e5000ae06780080260200000000000d017800f8
:104e6000ae067800832420000100e0000600320036
:104e700048e2ef004002ae00feff37001359780011
:104e80008100e900f8ff3700154ea8003a067800c7
:104e90003c00780000040100a6260200000000008b
:104ea00014cea9006000200048e2b7004002ae0026
:104eb000feff37004012800014cea8000000000062
:104ec00014cea9002000200048e2b7004002ae0046
:104ed000feff370040128000c86edd000d2f780005
:104ee0008006eb008d86d2008026020000000000c4
:104ef0000d017800ae0678000310200032407800e3
:104f000048e2b7004002ae00feff370040128000ca
:104f10008301e900f9ff3a0014cea8003a067800b0
:104f20003c00780000040100a626020000000000fa
:104f300014cea9003000200048e2b7004002ae00c5
:104f4000feff370040128000c86edd000d2f780094
:104f50008006eb008d86d200802602000000000053
:104f60000d017800ae0678000310200048e2ef0043
:104f70004002ae00feff370040128000005978006a
:104f80008301e900f9ff3a0014cea8003a06780040
:104f90003c00780000040100060ea800000ea900e5
:104fa000040ea90000e0220000358800c228a800f5
:104fb000700020004a28b700f00220003036880038
:104fc000601c2000c011880031e2a800f08f2f0083
:104fd0004e28b600005020004e28b70003c8a90094
:104fe00023c8a8000288a9002288a8003a067800f1
:104ff0003c00780000040100a00f20002018b4003d
:105000002018e300feff3a00040ea90000c1800052
:10501000630040002018e300feff3a00040ea800e1
:105020003a0678003c00780000040100e068e100e6
:1050300005003d006d68e100060032006868e1008f
:105040000400320002003700ff69e1000100350072
:105050008006eb003a0678003c007800000401006e
:105060000000eb00a1bf8000b2bf80000208e10099
:1050700007003200427d210002814000f437ec003d
:10508000f0012000f437b600124078000080fb00e9
:105090000d2f7800800678003a0678003c007800f2
:1050a000000401000001200004a1b700d02222006a
:1050b00010088800f0ff28004028b60000002300f8
:1050c0004028b7000068a9002068a80005e1a800f2
:1050d0003a0678003c007800000401004427ef0005
:1050e00040042000303a880042e7a800c1e8a90047
:1050f0003a0678003c00780000040100001021000e
:105100007f5f09000018eb003a0678003c00780049
:105110000004010042c7a8003a0678003c0078006d
:10512000000401000000210060c088000008210088
:1051300050c08800000c210000888800a0002000da
:1051400030c08800c0752100d0bf8800c070210029
:10515000c0bf8800e0bf880000052000f0bf8800c5
:105160000090210010c088008b7f210000c2fe004b
:10517000e0ff2f001000780080c0880090c08800f9
:105180003a0678003c007800000401000d2f7800fa
:105190000dc180003a0678003c0078000004010050
:1051a000300220008d06e9000068b8000080090088
:1051b00000000000ae0678003a0678003c00780057
:1051c0000004010000c180000d0040002018e30031
:1051d000feff3a00ae0678003a0678003c00780000
:1051e000000401002438d50022b8d700040039009b
:1051f0000002280024b8b6002000200022b8b60023
:105200000d2f78001dc180003a0678003c00780020
:10521000000401000001eb00040120002218ae0090
:10522000030037002238ec00010039002438ec007c
:105230002218d400800078002498d6008000fd0059
:105240002238b4000100780024b8b4002438d50016
:1052500022b8d7002218d5008381d3000402e900c8
:10526000f3ff3a000d2f7800830678003a067800a5
:105270003c0078000004010000c1800032002000e2
:105280000280d80010c1880021c188003a06780049
:085290003c007800000401005d
:020000040000fa
:105298000831ed000100320000000600d0142000a3
:1052a800408888000b31aa000a71ec0000c4b300e2
:1052b8000751bc0006d1bf000080fb00020040007f
:1052c800c1102100810040001174a2000a71ed0094
:1052d800000006000b11af0000000600d0142000eb
:1052e800408888000a71ef00100020000bf1b70019
:1052f800000006000a71ec000b31af0058290200cb
:10530800000000000b71ef000a71ed0000000600bc
:105318000a71ec000b31af005829020000000000b0
:105328000b31a900c1102100000420000101400038
:1053380003602000808151008301d1008301e900ce
:1053480003800900b2187800000222001f0009003b
:10535800801878000a71ed00000006000a71ec0060
:105368000b31af0058290200000000000b31a900e2
:10537800c11021000060200080804000000420004f
:1053880000815000df0209004121780000018100fe
:105398001f000900002178000a71ed0000000600d6
:1053a80054980000749800005a880000488c000047
:0c53b800bc95000074950000e88d00001a
:020000040000fa
:04fffc00aa980000bf
:020000040000fa
:02000004000af0
:04afe000dfff00008f
:020000040000fa
:02000004000af0
:04afe400ffff00006b
:020000040000fa
:02000004000af0
:04afe8005fff000007
:020000040000fa
:02000004000af0
:04afec009aff0000c8
:020000040000fa
:02000004000af0
:04aff000fbff000063
:020000040000fa
:02000004000af0
:04aff400ffff00005b
:00000001FF
