:020000040000fa
:080000000002040000000000f2
:020000040000fa
:10000800fa030000fa030000fa030000fa030000f4
:10001800fa030000fa030000fa030000fa030000e4
:10002800fa030000fa030000fa030000b00300001e
:10003800fa030000fa0300001c030000a6020000f7
:10004800fa030000fa030000fa030000fc030000b2
:1000580028040000fa030000fa030000fa03000075
:10006800fa030000fa030000fa030000fa03000094
:100078008a030000fa030000fa030000fa030000f4
:10008800fa030000fa030000fa030000fa03000074
:10009800fa030000fa030000fa030000fa03000064
:1000a800fa030000fa030000fa030000fa03000054
:1000b800fa030000fa030000fa030000fa03000044
:1000c800fa030000fa030000fa030000fa03000034
:1000d800fa030000fa030000fa030000fa03000024
:1000e800fa030000fa030000fa030000fa03000014
:1000f800fa030000fa030000fa030000fa03000004
:10010800fa030000fa030000fa030000fa030000f3
:10011800fa030000fa030000fa030000fa030000e3
:10012800fa030000fa030000fa030000fa030000d3
:10013800fa030000fa030000fa030000fa030000c3
:10014800fa030000fa030000fa030000fa030000b3
:10015800fa030000fa030000fa030000fa030000a3
:10016800fa030000fa030000fa030000fa03000093
:10017800fa030000fa030000fa030000fa03000083
:10018800fa030000fa030000fa030000fa03000073
:10019800fa030000fa030000fa030000fa03000063
:1001a800fa030000fa030000fa030000fa03000053
:1001b800fa030000fa030000fa030000fa03000043
:1001c800fa030000fa030000fa030000fa03000033
:1001d800fa030000fa030000fa030000fa03000023
:1001e800fa030000fa030000fa030000fa03000013
:0801f800fa030000fa03000005
:020000040000fa
:10020800fa030000fa030000fa030000fa030000f2
:10021800fa030000fa030000fa030000fa030000e2
:10022800fa030000fa030000fa030000b00300001c
:10023800fa030000fa0300001c030000a6020000f5
:10024800fa030000fa030000fa030000fc030000b0
:1002580028040000fa030000fa030000fa03000073
:10026800fa030000fa030000fa030000fa03000092
:100278008a030000fa030000fa030000fa030000f2
:10028800fa030000fa030000fa030000fa03000072
:10029800fa030000fa030000fa030000fa03000062
:1002a800fa030000fa030000fa030000fa03000052
:1002b800fa030000fa030000fa030000fa03000042
:1002c800fa030000fa030000fa030000fa03000032
:1002d800fa030000fa030000fa030000fa03000022
:1002e800fa030000fa030000fa030000fa03000012
:1002f800fa030000fa030000fa030000fa03000002
:10030800fa030000fa030000fa030000fa030000f1
:10031800fa030000fa030000fa030000fa030000e1
:10032800fa030000fa030000fa030000fa030000d1
:10033800fa030000fa030000fa030000fa030000c1
:10034800fa030000fa030000fa030000fa030000b1
:10035800fa030000fa030000fa030000fa030000a1
:10036800fa030000fa030000fa030000fa03000091
:10037800fa030000fa030000fa030000fa03000081
:10038800fa030000fa030000fa030000fa03000071
:10039800fa030000fa030000fa030000fa03000061
:1003a800fa030000fa030000fa030000fa03000051
:1003b800fa030000fa030000fa030000fa03000041
:1003c800fa030000fa030000fa030000fa03000031
:1003d800fa030000fa030000fa030000fa03000021
:1003e800fa030000fa030000fa030000fa03000011
:0803f800fa030000fa03000003
:020000040000fa
:1004000000802000f1ff2000018009000018eb00af
:100410000f78220069d220008f0498003a0e020063
:100420000000000000802200000188000e742200fd
:100430009e049800a0002000a0049800e05e280020
:10044000c0049800c85e2800b80578003b0078001a
:10045000004001000000000000000000000000005b
:10046000000000000000000000000000000000008c
:10047000000000000000000000000000000000007c
:10048000000000000000000000000000000000006c
:10049000000000000000000000000000000000005c
:1004a000000000000000000000000000000000004c
:1004b000000000000000000000000000000000003c
:1004c000000000000000000000000000000000002c
:1004d000000000000000000000000000000000001c
:1004e000000000000000000000000000000000000c
:1004f00000000000000000000000000000000000fc
:1005000000000000000000000000000000000000eb
:1005100000000000000000000000000000000000db
:1005200000000000000000000000000000000000cb
:1005300000000000000000000000000000000000bb
:0c054000000000000000000000000000af
:020000040000fa
:10054c00801f78000028ec001800320060002000aa
:10055c000008e3001b003200c00020000008e3008c
:10056c001b003200200120000008e3001b003200b9
:10057c00c00220000008e3001e003200c00e200064
:10058c000008e3001e003200f01020000008e30019
:10059c001d003200001120000008e3002000320092
:1005ac0084e0a9004f0078000040060050022000b3
:1005bc00100c8800b01f2000000c88006008880018
:1005cc00f7ff3700601d2000100c8800f4ff370087
:1005dc0050022000100c8800f1ff3700a00420000e
:1005ec00100c8800703f2000000c88006008880008
:1005fc00ebff370084c0a90094c0a800e8ff3700c7
:10060c0094c0a900e6ff37000000eb000248e300ad
:10061c00e3ff320000a8ef000268ef00e0ff3700b4
:10062c0000a8ef0002e8ef00ddff3700801f780024
:10063c00811f7800821f7800831f7800841f780048
:10064c00851f78003400f8003008800063006000db
:10065c004100dd000060010000000000000000000f
:10066c00000000000000000000000000000000007e
:10067c0000000000cc42a80000002000a00188006f
:10068c0001408000c102b100e7826000c308de00b7
:10069c00220320000110b8006480200004024000f6
:1006ac0043602800344078000080fb004300dd00ec
:1006bc008081410085814100934078008180fb005e
:1006cc006022ab00feff3a00411388000201e900f2
:1006dc00f3ff3a006022ab00feff3a006822ef0005
:1006ec003400f900cf0278004f027800cf01780077
:1006fc004f017800cf0078004f007800cc42a90061
:10070c0084c0a9000040060000a0fe005016800026
:10071c0000e0a300b6acd7000b00390080cb200062
:10072c00d166800081004000b06580004500de008d
:10073c0080087800daacec00f0012000da2cb6006e
:10074c0000402000b06588000080fe008680a90073
:10075c0000400600801f7800811f7800821f7800ff
:10076c003a2dec00c0668000da0ce3001900320070
:10077c0081cb20008100400011a0a600120039009e
:10078c00110078000000d1000f0031008000eb0058
:10079c00820020000010a5000180b0000201e900d9
:1007ac00fcff3b000100a60007003700c1cd200074
:1007bc00f267800081004100804878001200b00090
:1007cc00f201b200f2678800d8acec00f001200016
:1007dc00d82cb6004f017800cf0078004f0078007d
:1007ec008460a900004006000000fe008560a9009e
:1007fc00801f7800811f780023cdbf000080fb0094
:10080c007000e1000800320021d02000810040007f
:10081c003011800080487800236dec00c00020006f
:10082c00234de300040039002322af0002003700ff
:10083c003001200020118800cf0078004f00780094
:10084c00004006008580a900801f7800811f780079
:10085c0024cdbf00254de3000a0032000080fb00d0
:10086c0021d1200081004000114078002011880027
:10087c00246dec0000012000244de3000100390040
:10088c00242def00cf0078004f00780000400600c8
:020000040000fa
:10089c0000000000044d0000534500004300000020
:1008ac00680e00006284000004520000414e0000fb
:1008bc0044000000780e0000628400000553000024
:1008cc00524100004e440000aa0e0000000000003f
:1008dc00034300004c530000400c0000cc8400008b
:1008ec0004580000504f000053000000500c000052
:1008fc00cc84000004590000504f0000530000004d
:10090c00640c0000cc84000006430000555200002b
:10091c00504f000053000000dc0c00007c840000f1
:10092c0086840000fc840000cc8400000445000098
:10093c004d49000054000000760c0000cc840000ef
:10094c000243000052000000a20c0000cc84000006
:10095c00024200004c000000a40c0000cc840000fb
:10096c0008530000435200004f4c00004c5500004f
:10097c0050000000aa0c0000cc84000005430000cd
:10098c004c5200004c4e0000c00c0000cc84000007
:10099c00045400005950000045000000dc0c00001d
:1009ac0004850000000000003e8500005885000012
:1009bc0016850000a28400004a850000dc8400003b
:1009cc00fc840000000000000745000058450000b2
:1009dc004355000054450000e80c0000e085000081
:1009ec00044500005849000054000000ee0c0000c3
:1009fc00e0850000054c000049540000f80c000094
:100a0c00e0850000044300004c4900005400000045
:100a1c00040d0000e08500000243000040000000cf
:100a2c00120d0000e08500000243000021000000d0
:100a3c001c0d0000e0850000054400004f42000042
:100a4c00524100002a0d0000e08500000644000021
:100a5c004f3000004252000041000000320d0000f7
:100a6c00e0850000044400004f4400004f000000eb
:100a7c004a0d0000e0850000064400004f4c0000c9
:100a8c004f4f0000500000005e0d0000e08500009c
:100a9c0001490000720d0000e085000003440000d5
:100aac00555000007c0d0000e0850000044400005f
:100abc00524f000050000000840d0000e085000043
:100acc000453000057410000500000008c0d000042
:100adc00e0850000035200004f540000980d000008
:100aec00e0850000044f0000564500005200000055
:100afc00a80d0000e08500000454000045530000e0
:100b0c0054000000dc0c000072840000ac85000076
:100b1c00d0850000048500004d01000056840000c3
:100b2c00ac850000c2850000048500004d0100006a
:100b3c0056840000288500008c850000e0850000ac
:100b4c00054800004f4d000045000000dc0c000083
:100b5c000485000000000000048500000000000077
:100b6c0092840000fc840000e0850000064f000029
:100b7c004b4f000046460000dc0c0000b284000025
:100b8c00b2840000fc840000e0850000024f0000ed
:100b9c004b000000dc0c0000048500004f0000003e
:100bac00a2840000048500004b000000a284000019
:100bbc00fc840000e0850000074900004e46000060
:100bcc004c4f00004f500000b20d00008885000013
:100bdc00e08500000000000005530000454d0000ba
:100bec0049540000ee0d0000fa850000045300008b
:0c0bfc0047450000540000000a0e0000f5
:020000040000fa
:100c08004020000010f80000102000004000000004
:100c18001020000040f800004020000010000000f4
:100c280020700000a8200000202000000000000024
:100c38000020000020200000a87000002000000014
:100c480000700000f8f80000f870000000000000d4
:100c5800000000000000000000000000000000008c
:100c6800000000000000000000000000000000007c
:100c7800000000000000000000000000000000006c
:100c8800000000000000000000000000000000005c
:100c9800000000000000000000000000000000004c
:100ca800000000000000000000000000000000003c
:100cb800000000000000000000000000000000002c
:100cc800000000000000000000000000000000001c
:100cd800000000000000000000000000000000000c
:100ce80000000000000000000000000000000000fc
:100cf80000000000000000000000000000000000ec
:100d080000000000000000000000000000000000db
:100d180000000000000000000000000000000000cb
:100d280000000000000000000000000000000000bb
:100d380000000000000000000000000000000000ab
:100d4800000000000000000000000000000000009b
:100d5800000000000000000000000000000000008b
:100d6800000000000000000000000000000000007b
:100d7800000000000000000000000000000000006b
:100d8800000000000000000000000000000000005b
:100d9800000000000000000000000000000000004b
:100da800000000000000000000000000000000003b
:100db800000000000000000000000000000000002b
:100dc800000000000000000000000000000000001b
:100dd800000000000000000000000000000000000b
:100de80000000000000000000000000000000000fb
:100df80000000000000000000000000000000000eb
:100e080000000000000000000000000000000000da
:100e1800202000002020000020000000200000000a
:100e280050500000500000000000000000000000ca
:100e380050500000f8500000f8500000500000002a
:100e480020780000a070000028f0000020000000ba
:100e5800c0c80000102000004098000018000000e2
:100e680060900000a0400000a8900000680000000a
:100e780060200000400000000000000000000000aa
:100e8800102000004040000040200000100000003a
:100e9800402000001010000010200000400000005a
:100ea80000200000a8700000a8200000000000003a
:100eb8000020000020f800002020000000000000b2
:100ec800000000000000000060200000400000005a
:100ed8000000000000f0000000000000000000001a
:100ee800000000000000000000600000600000003a
:100ef80000080000102000004080000000000000f2
:100f08007088000098a80000c888000070000000e1
:100f1800206000002020000020200000f8000000d1
:100f2800708800001020000040800000f8000000d9
:100f3800f008000008f0000008080000f0000000b9
:100f48001030000050900000f81000001000000061
:100f5800f880000080f0000008080000f0000000a1
:100f68003040000080f00000888800007000000019
:100f7800f808000010200000404000004000000079
:100f880070880000887000008888000070000000e9
:100f980070880000887000000808000070000000d9
:100fa80000600000600000006060000000000000b9
:100fb80000600000600000006020000040000000a9
:100fc80010200000408000004020000010000000b9
:100fd80000000000f8000000f80000000000000019
:100fe8004020000010080000102000004000000011
:100ff8007088000008100000200000002000000099
:101008007088000008680000a8a8000070000000b0
:101018007088000088f800008888000088000000b8
:10102800f088000088f0000088880000f0000000c8
:101038007880000080800000808000007800000038
:10104800f08800008888000088880000f000000010
:10105800f880000080f8000080800000f8000000a0
:10106800f880000080f80000808000008000000008
:101078007880000080b000008888000070000000c0
:101088008888000088f80000888800008800000030
:1010980070200000202000002020000070000000c8
:1010a80078080000080800000890000060000000b0
:1010b80088900000a0c00000a090000088000000f8
:1010c800808000008080000080800000f800000020
:1010d80088d80000a88800008888000088000000e0
:1010e80088880000c8a800009888000088000000d0
:1010f8007088000088880000888800007000000060
:10110800f088000088f00000808000008000000067
:101118007088000088880000a89800007800000007
:10112800f088000088f00000a0900000880000000f
:10113800788000008070000008080000f0000000bf
:10114800f8200000202000002020000020000000df
:1011580088880000888800008888000070000000e7
:10116800888800008888000088500000200000005f
:101178008888000088a80000a8d80000880000001f
:101188008888000050200000508800008800000077
:1011980088880000885000002020000020000000ff
:1011a800f81000002040000080800000f8000000d7
:1011b8006040000040400000404000006000000027
:1011c800008000004020000010080000000000001f
:1011d80018080000080800000808000018000000af
:1011e80020500000880000000000000000000000ff
:1011f80000000000000000000000000000f80000ef
:101208004020000010000000000000000000000066
:1012180000000000700800007888000078000000d6
:101228008080000080b00000c8880000f000000046
:10123800000000007080000080880000700000003e
:10124800080800000868000098880000780000007e
:101258000000000070880000f880000070000000a6
:101268003048000040e0000040400000400000001e
:1012780000000000788800008878000008700000ee
:1012880080800000b0c80000888800008800000046
:1012980000200000002000002020000020000000a6
:1012a80010000000301000001090000060000000e6
:1012b8008080000090a00000c0a000009000000006
:1012c80060200000202000002020000070000000a6
:1012d80000000000d0a80000a888000088000000d6
:1012e80000000000b0c800008888000088000000e6
:1012f800000000007088000088880000700000006e
:1013080000000000f088000088f0000080800000e5
:10131800000000006890000090b000005018000025
:1013280000000000b0c800008080000080000000bd
:10133800000000007080000070080000f00000004d
:1013480040400000e040000040480000300000003d
:1013580000000000888800008898000068000000ed
:10136800000000008888000088500000200000006d
:101378000000000088880000a8a8000050000000b5
:101388000000000088500000205000008800000085
:1013980000000000888800008878000008700000bd
:1013a80000000000f810000020400000f8000000d5
:1013b8002040000040800000404000002000000065
:1013c8002020000020200000202000002000000035
:1013d80040200000201000002020000040000000f5
:1013e8000000000040a800001000000000000000fd
:1013f800fcfc0000fcfc0000fcfc0000fcfc000005
:101408001c610000326200002163000023640000b8
:10141800246500002b660000346700003368000074
:10142800436900003b6a0000426b00004b6c0000ff
:101438003a6d0000316e0000446f00004d700000ee
:10144800157100002d7200001b7300002c74000041
:101458003c7500002a7600001d7700002278000005
:10146800357900001a7a0000453000001631000076
:101478001e32000026330000253400002e350000ff
:10148800363600003d3700003e380000463900007f
:10149800292000004e2d0000553d00000e60000080
:1014a8000d090000545b00005b5d00004c3b000030
:1014b800412c0000492e00004a2f0000522700004e
:1014c8005d7c0000660800000d0900005a0d000050
:1014d800761b0000000000000e7e000016210000b0
:1014e8001e40000026230000252400002e250000b1
:1014f800365e00003d2600003e2a00004628000017
:10150800452900004e5f0000547b0000552b000069
:101518005b7d00005d5c00004c3a00005222000038
:10152800413c0000493e00004a3f00000000000026
:10153800128100005981000014800000118200000f
:101548005883000000000000148000001182000091
:1015580000000000708500006c8600007d8c000093
:1015680071840000698700007a8d0000758800008a
:10157800728900006b8a0000748b00000000000074
:10158800466f000072740000684500007820000073
:0c159800563000002e3100000000000062
:020000040000fa
:1015a4000000eb00e1678000f26780000208e100c0
:1015b40007003200c2cd200002814000fc2cec0068
:1015c400f0012000fc2cb600124078000080fb00e3
:1015d40000000600320078000000e000060032003f
:1015e400800178008381fb000118e100f9ff3a00d3
:1015f4000080fd000080fb00000006003400f800bd
:10160400d20a0200000000000000e0006d00320079
:10161400010e20000008e10005003a0000ada8001a
:10162400d20a0200000000000000e0006500320061
:10163400010f20000008e10005003a0000cda800d9
:10164400d20a0200000000000000e0005d00320049
:101654008000780000adae001000370002002000ca
:10166400a2018800e2aa2800ec0a0200000000009f
:101674000000e000010032005000370002002000aa
:10168400a201880082aa2800ec0a020000000000df
:101694000000e000480032002d003700000dae00cd
:1016a4000800370002002000a201880002a72800d9
:1016b400ec0a0200000000000000e000010032001b
:1016c4003e00370002002000a201880042a028004a
:1016d400ec0a0200000000000000e0000d003200ef
:1016e400110620000100e10034003900a1072000a8
:1016f4000100e10031003e0000cdaf002e003700b4
:10170400006dae000050a200000daf000050a2001a
:101714002a00370002002000a2018800e2aa280063
:10172400ec0a0200000000000000e00001003200aa
:101734002200370002002000a2018800c2a928006c
:10174400ec0a0200000000000000e0001a00320071
:10175400110820000100e10004003a00000da90076
:1017640000cdae00000da8001300370031082000a2
:101774000100e10003003a0000cdae00006daa00b4
:101784000d003700010820000100e10004003a00c8
:10179400002da90000cdae00002da80006003700e2
:1017a400210820000100e10003003a00004da900d7
:1017b40000cdae00002da8000000eb0000cda90074
:1017c40000ada9003400f90000000600c862a900b9
:1017d400c882a900c842a90010368000f10f2e006b
:1017e4000100600001a02000010070001036880094
:1017f4002036800001fe2f0001006000210120003e
:101804000100700020368800b00320001013880007
:1018140061e2a8006822ef00703f200060088800a1
:10182400000c8800400c8800a0042000100c8800e4
:101834002003b000300c880050002000200c8800e9
:10184400500c8800f0ff2800a620b60000002500f8
:10185400a620b700f08f2f00a620b600005020006d
:10186400a620b70000a8ef0002e8ef0084e0a9007a
:1018740094e0a80011e1a800000006000002220084
:101884006180200057020900801878000428ef00c6
:10189400b80578003b0078000040010020032000d8
:1018a4000060e100010039001c0320000c007800f6
:1018b40004e8b7002e067800b80578003b007800ed
:1018c400004001007860e100010039007c01200043
:1018d4000c00780005e8b7002e067800b8057800fb
:1018e4003b0078000040010020c3b3000548bc0061
:1018f40004c8bf000080fb0002004000618020009b
:10190400810040008c4098002e0678000468ec00aa
:10191400200320000448e30006003a000468ef00b6
:101924000568ec00800120000548e30001003a004e
:1019340007003700b80578003b007800004001003c
:10194400f6ff37000c2f78000c022000e6ff37006a
:10195400618020002003200001014000034b20008f
:10196400830150008301d10003800900b21878007c
:101974000c2f78007c0120000000370062802000da
:10198400800120000060e1000600310020032000f7
:101994000060b800020140000002220018000900a3
:1019a400001978002e067800b80578003b0078000e
:1019b400004001008d1f7800880678000b04780031
:1019c400b80578003b007800004001008c057800e1
:1019d4002e0678000b4001000d047800cf06780035
:1019e400b80578003b007800004001000c2f780017
:1019f400080690000884e800b80578003b007800e9
:101a0400004001000c2f7800084690000884e8008c
:101a14000c86fb00b80578003b007800004001000c
:101a24000c4690000c86fb00b80578003b0078005b
:101a3400004001000c80fb002e0678000046980050
:101a44002e067800b80578003b00780000400100bd
:101a540018047800b80578003b00780000400100c5
:101a64000c0078002e0678000000e00004003a0024
:101a740018047800b80578003b00780000400100a5
:101a84000884e800b80578003b00780000400100b5
:101a94008d1f7800870678008c0378002e06780066
:101aa4008d1f78008c0678002e067800b805780023
:101ab4003b007800004001008703e8000d38e10096
:101ac40001003200080490008d037800cf067800ee
:101ad400cf067800b80578003b007800004001008c
:101ae4000c2f780007067800b80578003b007800d2
:101af400004001000c2f7800b80578003b00780006
:101b0400004001002e067800b80578003b007800fc
:101b1400004001000c0078000e06900000079800b9
:101b2400b80578003b007800004001000c00780004
:101b34000e069000feb897000107980070bf9f0042
:101b4400b80578003b007800004001000c2f7800b5
:101b54007ebe9700b80578003b0078000040010085
:101b6400ffff3700f0ff2d00c822b600f00f2e0053
:101b7400cc26b60000302000cc26b70000fe2f0093
:101b8400a426b600c0002000a426b70070062000da
:101b94004011880021e2a8002342a80080ff2f0002
:101ba400aa20b60030002000aa20b700f0ff2800c9
:101bb400a820b60000002300a820b7008580a90053
:101bc4009580a8008560a9009560a80010012000f8
:101bd400201188000000060000012000254de300cc
:101be400feff320025cdbf000080fb0021d1200084
:101bf400810040008c4878002302ae008580a80054
:101c04002e067800b80578003b00780000400100fb
:101c14000c2f78000006eb0022cdbf00234de3001b
:101c240009003a000080fb007000e1000d003a005a
:101c3400222def002322af00feff37001001200009
:101c440020118800070037000080fb0021d020000d
:101c54008100400011467800226dec000001200054
:101c6400224de300b80578003b00780000400100f5
:101c74004440a9000000eb00a00188004440a800f3
:101c84004427ef004307a80042e7a80081e0a90029
:101c9400c0a2ef00c8a2ef0068a0ef006aa0ef00a6
:101ca4002ca3ef00e80b020000000000b00e0200bd
:101cb40000000000da0e020000000000b40d020073
:101cc4000000000042c7a80000000600d0698000a0
:101cd4000c0040003a0de300feff3a002e067800a7
:101ce400b80578003b007800004001000001eb00db
:101cf400f30020003c0dae00030037003c2dec0047
:101d0400010039003e2dec003c0dd4008000780029
:101d14003e8dd6008000fd003c2db400010078000b
:101d24003eadb4003e2dd5003cadd7003c0dd500f2
:101d34008381d3000402e900f3ff31000c2f780003
:101d440003067800b80578003b00780000400100e5
:101d5400b80578003b00780000400100f00f2e0029
:101d64008026b60000f020008026b7008220a8005c
:101d740070002000ae20b7008680a9009680a800dd
:101d8400f0e7230010088800f0ff2800a420b60024
:101d940000002300a420b70000402000b0658800a4
:101da4008460a9009460a80005e1a8000000060072
:101db40000742000cc22b7000080ea00c822b600dc
:101dc40000fe2f00a826b60070002000a826b70049
:101dd40000fe2f00c826b60080002000c826b700e9
:101de400f00f2e00c626b60000702000c626b700ed
:101df400b00320001012880041e2a8000000060091
:020000040000fa
:020000040001f9
:0457f800ae2b0000d4
:020000040000fa
:020000040001f9
:0457fc007f3f0000eb
:00000001FF
